{
	"SimpleSwap.sol": {
		"SimpleSwap": {
			"abi": [
				{
					"inputs": [
						{
							"internalType": "address",
							"name": "_ekaToken",
							"type": "address"
						},
						{
							"internalType": "address",
							"name": "_ekbToken",
							"type": "address"
						}
					],
					"stateMutability": "nonpayable",
					"type": "constructor"
				},
				{
					"inputs": [
						{
							"internalType": "address",
							"name": "spender",
							"type": "address"
						},
						{
							"internalType": "uint256",
							"name": "allowance",
							"type": "uint256"
						},
						{
							"internalType": "uint256",
							"name": "needed",
							"type": "uint256"
						}
					],
					"name": "ERC20InsufficientAllowance",
					"type": "error"
				},
				{
					"inputs": [
						{
							"internalType": "address",
							"name": "sender",
							"type": "address"
						},
						{
							"internalType": "uint256",
							"name": "balance",
							"type": "uint256"
						},
						{
							"internalType": "uint256",
							"name": "needed",
							"type": "uint256"
						}
					],
					"name": "ERC20InsufficientBalance",
					"type": "error"
				},
				{
					"inputs": [
						{
							"internalType": "address",
							"name": "approver",
							"type": "address"
						}
					],
					"name": "ERC20InvalidApprover",
					"type": "error"
				},
				{
					"inputs": [
						{
							"internalType": "address",
							"name": "receiver",
							"type": "address"
						}
					],
					"name": "ERC20InvalidReceiver",
					"type": "error"
				},
				{
					"inputs": [
						{
							"internalType": "address",
							"name": "sender",
							"type": "address"
						}
					],
					"name": "ERC20InvalidSender",
					"type": "error"
				},
				{
					"inputs": [
						{
							"internalType": "address",
							"name": "spender",
							"type": "address"
						}
					],
					"name": "ERC20InvalidSpender",
					"type": "error"
				},
				{
					"anonymous": false,
					"inputs": [
						{
							"indexed": true,
							"internalType": "address",
							"name": "owner",
							"type": "address"
						},
						{
							"indexed": true,
							"internalType": "address",
							"name": "spender",
							"type": "address"
						},
						{
							"indexed": false,
							"internalType": "uint256",
							"name": "value",
							"type": "uint256"
						}
					],
					"name": "Approval",
					"type": "event"
				},
				{
					"anonymous": false,
					"inputs": [
						{
							"indexed": true,
							"internalType": "address",
							"name": "provider",
							"type": "address"
						},
						{
							"indexed": false,
							"internalType": "uint256",
							"name": "ekaAmount",
							"type": "uint256"
						},
						{
							"indexed": false,
							"internalType": "uint256",
							"name": "ekbAmount",
							"type": "uint256"
						},
						{
							"indexed": false,
							"internalType": "uint256",
							"name": "liquidityMinted",
							"type": "uint256"
						}
					],
					"name": "LiquidityProvided",
					"type": "event"
				},
				{
					"anonymous": false,
					"inputs": [
						{
							"indexed": true,
							"internalType": "address",
							"name": "provider",
							"type": "address"
						},
						{
							"indexed": false,
							"internalType": "uint256",
							"name": "ekaAmount",
							"type": "uint256"
						},
						{
							"indexed": false,
							"internalType": "uint256",
							"name": "ekbAmount",
							"type": "uint256"
						},
						{
							"indexed": false,
							"internalType": "uint256",
							"name": "liquidityBurned",
							"type": "uint256"
						}
					],
					"name": "LiquidityWithdrawn",
					"type": "event"
				},
				{
					"anonymous": false,
					"inputs": [
						{
							"indexed": true,
							"internalType": "address",
							"name": "trader",
							"type": "address"
						},
						{
							"indexed": true,
							"internalType": "address",
							"name": "recipient",
							"type": "address"
						},
						{
							"indexed": false,
							"internalType": "uint256",
							"name": "inputAmount",
							"type": "uint256"
						},
						{
							"indexed": false,
							"internalType": "uint256",
							"name": "outputAmount",
							"type": "uint256"
						}
					],
					"name": "TokenExchange",
					"type": "event"
				},
				{
					"anonymous": false,
					"inputs": [
						{
							"indexed": true,
							"internalType": "address",
							"name": "from",
							"type": "address"
						},
						{
							"indexed": true,
							"internalType": "address",
							"name": "to",
							"type": "address"
						},
						{
							"indexed": false,
							"internalType": "uint256",
							"name": "value",
							"type": "uint256"
						}
					],
					"name": "Transfer",
					"type": "event"
				},
				{
					"inputs": [
						{
							"internalType": "address",
							"name": "tokenA",
							"type": "address"
						},
						{
							"internalType": "address",
							"name": "tokenB",
							"type": "address"
						},
						{
							"internalType": "uint256",
							"name": "desiredAmountA",
							"type": "uint256"
						},
						{
							"internalType": "uint256",
							"name": "desiredAmountB",
							"type": "uint256"
						},
						{
							"internalType": "uint256",
							"name": "minimumAmountA",
							"type": "uint256"
						},
						{
							"internalType": "uint256",
							"name": "minimumAmountB",
							"type": "uint256"
						},
						{
							"internalType": "address",
							"name": "recipient",
							"type": "address"
						},
						{
							"internalType": "uint256",
							"name": "expirationTime",
							"type": "uint256"
						}
					],
					"name": "addLiquidity",
					"outputs": [
						{
							"internalType": "uint256",
							"name": "actualAmountA",
							"type": "uint256"
						},
						{
							"internalType": "uint256",
							"name": "actualAmountB",
							"type": "uint256"
						},
						{
							"internalType": "uint256",
							"name": "liquidityTokens",
							"type": "uint256"
						}
					],
					"stateMutability": "nonpayable",
					"type": "function"
				},
				{
					"inputs": [
						{
							"internalType": "address",
							"name": "owner",
							"type": "address"
						},
						{
							"internalType": "address",
							"name": "spender",
							"type": "address"
						}
					],
					"name": "allowance",
					"outputs": [
						{
							"internalType": "uint256",
							"name": "",
							"type": "uint256"
						}
					],
					"stateMutability": "view",
					"type": "function"
				},
				{
					"inputs": [
						{
							"internalType": "address",
							"name": "spender",
							"type": "address"
						},
						{
							"internalType": "uint256",
							"name": "value",
							"type": "uint256"
						}
					],
					"name": "approve",
					"outputs": [
						{
							"internalType": "bool",
							"name": "",
							"type": "bool"
						}
					],
					"stateMutability": "nonpayable",
					"type": "function"
				},
				{
					"inputs": [
						{
							"internalType": "address",
							"name": "account",
							"type": "address"
						}
					],
					"name": "balanceOf",
					"outputs": [
						{
							"internalType": "uint256",
							"name": "",
							"type": "uint256"
						}
					],
					"stateMutability": "view",
					"type": "function"
				},
				{
					"inputs": [],
					"name": "decimals",
					"outputs": [
						{
							"internalType": "uint8",
							"name": "",
							"type": "uint8"
						}
					],
					"stateMutability": "view",
					"type": "function"
				},
				{
					"inputs": [],
					"name": "ekaToken",
					"outputs": [
						{
							"internalType": "address",
							"name": "",
							"type": "address"
						}
					],
					"stateMutability": "view",
					"type": "function"
				},
				{
					"inputs": [],
					"name": "ekbToken",
					"outputs": [
						{
							"internalType": "address",
							"name": "",
							"type": "address"
						}
					],
					"stateMutability": "view",
					"type": "function"
				},
				{
					"inputs": [
						{
							"internalType": "uint256",
							"name": "inputAmount",
							"type": "uint256"
						},
						{
							"internalType": "uint256",
							"name": "inputReserve",
							"type": "uint256"
						},
						{
							"internalType": "uint256",
							"name": "outputReserve",
							"type": "uint256"
						}
					],
					"name": "getAmountOut",
					"outputs": [
						{
							"internalType": "uint256",
							"name": "expectedOutput",
							"type": "uint256"
						}
					],
					"stateMutability": "pure",
					"type": "function"
				},
				{
					"inputs": [
						{
							"internalType": "address",
							"name": "tokenA",
							"type": "address"
						},
						{
							"internalType": "address",
							"name": "tokenB",
							"type": "address"
						}
					],
					"name": "getPrice",
					"outputs": [
						{
							"internalType": "uint256",
							"name": "currentPrice",
							"type": "uint256"
						}
					],
					"stateMutability": "view",
					"type": "function"
				},
				{
					"inputs": [],
					"name": "getReserves",
					"outputs": [
						{
							"internalType": "uint256",
							"name": "ekaReserve",
							"type": "uint256"
						},
						{
							"internalType": "uint256",
							"name": "ekbReserve",
							"type": "uint256"
						}
					],
					"stateMutability": "view",
					"type": "function"
				},
				{
					"inputs": [],
					"name": "getSupportedTokens",
					"outputs": [
						{
							"internalType": "address",
							"name": "tokenA",
							"type": "address"
						},
						{
							"internalType": "address",
							"name": "tokenB",
							"type": "address"
						}
					],
					"stateMutability": "view",
					"type": "function"
				},
				{
					"inputs": [],
					"name": "name",
					"outputs": [
						{
							"internalType": "string",
							"name": "",
							"type": "string"
						}
					],
					"stateMutability": "view",
					"type": "function"
				},
				{
					"inputs": [
						{
							"internalType": "address",
							"name": "tokenA",
							"type": "address"
						},
						{
							"internalType": "address",
							"name": "tokenB",
							"type": "address"
						},
						{
							"internalType": "uint256",
							"name": "liquidityAmount",
							"type": "uint256"
						},
						{
							"internalType": "uint256",
							"name": "minimumAmountA",
							"type": "uint256"
						},
						{
							"internalType": "uint256",
							"name": "minimumAmountB",
							"type": "uint256"
						},
						{
							"internalType": "address",
							"name": "recipient",
							"type": "address"
						},
						{
							"internalType": "uint256",
							"name": "expirationTime",
							"type": "uint256"
						}
					],
					"name": "removeLiquidity",
					"outputs": [
						{
							"internalType": "uint256",
							"name": "withdrawnAmountA",
							"type": "uint256"
						},
						{
							"internalType": "uint256",
							"name": "withdrawnAmountB",
							"type": "uint256"
						}
					],
					"stateMutability": "nonpayable",
					"type": "function"
				},
				{
					"inputs": [
						{
							"internalType": "uint256",
							"name": "inputAmount",
							"type": "uint256"
						},
						{
							"internalType": "uint256",
							"name": "minimumOutput",
							"type": "uint256"
						},
						{
							"internalType": "address[]",
							"name": "tradingPath",
							"type": "address[]"
						},
						{
							"internalType": "address",
							"name": "recipient",
							"type": "address"
						},
						{
							"internalType": "uint256",
							"name": "expirationTime",
							"type": "uint256"
						}
					],
					"name": "swapExactTokensForTokens",
					"outputs": [
						{
							"internalType": "uint256[]",
							"name": "outputAmounts",
							"type": "uint256[]"
						}
					],
					"stateMutability": "nonpayable",
					"type": "function"
				},
				{
					"inputs": [],
					"name": "symbol",
					"outputs": [
						{
							"internalType": "string",
							"name": "",
							"type": "string"
						}
					],
					"stateMutability": "view",
					"type": "function"
				},
				{
					"inputs": [],
					"name": "totalSupply",
					"outputs": [
						{
							"internalType": "uint256",
							"name": "",
							"type": "uint256"
						}
					],
					"stateMutability": "view",
					"type": "function"
				},
				{
					"inputs": [
						{
							"internalType": "address",
							"name": "to",
							"type": "address"
						},
						{
							"internalType": "uint256",
							"name": "value",
							"type": "uint256"
						}
					],
					"name": "transfer",
					"outputs": [
						{
							"internalType": "bool",
							"name": "",
							"type": "bool"
						}
					],
					"stateMutability": "nonpayable",
					"type": "function"
				},
				{
					"inputs": [
						{
							"internalType": "address",
							"name": "from",
							"type": "address"
						},
						{
							"internalType": "address",
							"name": "to",
							"type": "address"
						},
						{
							"internalType": "uint256",
							"name": "value",
							"type": "uint256"
						}
					],
					"name": "transferFrom",
					"outputs": [
						{
							"internalType": "bool",
							"name": "",
							"type": "bool"
						}
					],
					"stateMutability": "nonpayable",
					"type": "function"
				}
			],
			"devdoc": {
				"details": "Decentralized exchange contract for swapping between TokenA (EKA) and TokenB (EKB)Implements automated market maker functionality with liquidity provision",
				"errors": {
					"ERC20InsufficientAllowance(address,uint256,uint256)": [
						{
							"details": "Indicates a failure with the `spender`’s `allowance`. Used in transfers.",
							"params": {
								"allowance": "Amount of tokens a `spender` is allowed to operate with.",
								"needed": "Minimum amount required to perform a transfer.",
								"spender": "Address that may be allowed to operate on tokens without being their owner."
							}
						}
					],
					"ERC20InsufficientBalance(address,uint256,uint256)": [
						{
							"details": "Indicates an error related to the current `balance` of a `sender`. Used in transfers.",
							"params": {
								"balance": "Current balance for the interacting account.",
								"needed": "Minimum amount required to perform a transfer.",
								"sender": "Address whose tokens are being transferred."
							}
						}
					],
					"ERC20InvalidApprover(address)": [
						{
							"details": "Indicates a failure with the `approver` of a token to be approved. Used in approvals.",
							"params": {
								"approver": "Address initiating an approval operation."
							}
						}
					],
					"ERC20InvalidReceiver(address)": [
						{
							"details": "Indicates a failure with the token `receiver`. Used in transfers.",
							"params": {
								"receiver": "Address to which tokens are being transferred."
							}
						}
					],
					"ERC20InvalidSender(address)": [
						{
							"details": "Indicates a failure with the token `sender`. Used in transfers.",
							"params": {
								"sender": "Address whose tokens are being transferred."
							}
						}
					],
					"ERC20InvalidSpender(address)": [
						{
							"details": "Indicates a failure with the `spender` to be approved. Used in approvals.",
							"params": {
								"spender": "Address that may be allowed to operate on tokens without being their owner."
							}
						}
					]
				},
				"events": {
					"Approval(address,address,uint256)": {
						"details": "Emitted when the allowance of a `spender` for an `owner` is set by a call to {approve}. `value` is the new allowance."
					},
					"Transfer(address,address,uint256)": {
						"details": "Emitted when `value` tokens are moved from one account (`from`) to another (`to`). Note that `value` may be zero."
					}
				},
				"kind": "dev",
				"methods": {
					"addLiquidity(address,address,uint256,uint256,uint256,uint256,address,uint256)": {
						"details": "Calculates optimal token amounts based on current pool ratios",
						"params": {
							"desiredAmountA": "Maximum amount of tokenA willing to deposit",
							"desiredAmountB": "Maximum amount of tokenB willing to deposit",
							"expirationTime": "Transaction deadline timestamp",
							"minimumAmountA": "Minimum amount of tokenA to accept (slippage protection)",
							"minimumAmountB": "Minimum amount of tokenB to accept (slippage protection)",
							"recipient": "Address that will receive the liquidity tokens",
							"tokenA": "Address of first token (must be EKA or EKB)",
							"tokenB": "Address of second token (must be EKA or EKB)"
						},
						"returns": {
							"actualAmountA": "Actual amount of tokenA deposited",
							"actualAmountB": "Actual amount of tokenB deposited",
							"liquidityTokens": "Amount of LP tokens minted to recipient"
						}
					},
					"allowance(address,address)": {
						"details": "See {IERC20-allowance}."
					},
					"approve(address,uint256)": {
						"details": "See {IERC20-approve}. NOTE: If `value` is the maximum `uint256`, the allowance is not updated on `transferFrom`. This is semantically equivalent to an infinite approval. Requirements: - `spender` cannot be the zero address."
					},
					"balanceOf(address)": {
						"details": "See {IERC20-balanceOf}."
					},
					"constructor": {
						"details": "Constructor initializes the contract with TokenA and TokenB addresses",
						"params": {
							"_ekaToken": "Address of the deployed TokenA (EKA) contract",
							"_ekbToken": "Address of the deployed TokenB (EKB) contract"
						}
					},
					"decimals()": {
						"details": "Returns the number of decimals used to get its user representation. For example, if `decimals` equals `2`, a balance of `505` tokens should be displayed to a user as `5.05` (`505 / 10 ** 2`). Tokens usually opt for a value of 18, imitating the relationship between Ether and Wei. This is the default value returned by this function, unless it's overridden. NOTE: This information is only used for _display_ purposes: it in no way affects any of the arithmetic of the contract, including {IERC20-balanceOf} and {IERC20-transfer}."
					},
					"getAmountOut(uint256,uint256,uint256)": {
						"params": {
							"inputAmount": "Amount of input tokens",
							"inputReserve": "Current reserve of input token",
							"outputReserve": "Current reserve of output token"
						},
						"returns": {
							"expectedOutput": "Calculated output amount"
						}
					},
					"getPrice(address,address)": {
						"params": {
							"tokenA": "Base token address",
							"tokenB": "Quote token address  "
						},
						"returns": {
							"currentPrice": "Price ratio scaled by PRECISION (1e18)"
						}
					},
					"getReserves()": {
						"returns": {
							"ekaReserve": "Current EKA token balance in contract",
							"ekbReserve": "Current EKB token balance in contract"
						}
					},
					"getSupportedTokens()": {
						"returns": {
							"tokenA": "Address of EKA token contract",
							"tokenB": "Address of EKB token contract"
						}
					},
					"name()": {
						"details": "Returns the name of the token."
					},
					"removeLiquidity(address,address,uint256,uint256,uint256,address,uint256)": {
						"params": {
							"expirationTime": "Transaction deadline timestamp",
							"liquidityAmount": "Amount of LP tokens to burn",
							"minimumAmountA": "Minimum amount of tokenA to receive",
							"minimumAmountB": "Minimum amount of tokenB to receive",
							"recipient": "Address that will receive the underlying tokens",
							"tokenA": "Address of first token (must be EKA or EKB)",
							"tokenB": "Address of second token (must be EKA or EKB)"
						},
						"returns": {
							"withdrawnAmountA": "Amount of tokenA returned to recipient",
							"withdrawnAmountB": "Amount of tokenB returned to recipient"
						}
					},
					"swapExactTokensForTokens(uint256,uint256,address[],address,uint256)": {
						"params": {
							"expirationTime": "Transaction deadline timestamp",
							"inputAmount": "Exact amount of input tokens to trade",
							"minimumOutput": "Minimum acceptable amount of output tokens",
							"recipient": "Address that will receive the output tokens",
							"tradingPath": "Array containing [inputToken, outputToken] addresses"
						},
						"returns": {
							"outputAmounts": "Array containing [inputAmount, actualOutputAmount]"
						}
					},
					"symbol()": {
						"details": "Returns the symbol of the token, usually a shorter version of the name."
					},
					"totalSupply()": {
						"details": "See {IERC20-totalSupply}."
					},
					"transfer(address,uint256)": {
						"details": "See {IERC20-transfer}. Requirements: - `to` cannot be the zero address. - the caller must have a balance of at least `value`."
					},
					"transferFrom(address,address,uint256)": {
						"details": "See {IERC20-transferFrom}. Skips emitting an {Approval} event indicating an allowance update. This is not required by the ERC. See {xref-ERC20-_approve-address-address-uint256-bool-}[_approve]. NOTE: Does not update the allowance if the current allowance is the maximum `uint256`. Requirements: - `from` and `to` cannot be the zero address. - `from` must have a balance of at least `value`. - the caller must have allowance for ``from``'s tokens of at least `value`."
					}
				},
				"stateVariables": {
					"INITIAL_RESERVE": {
						"details": "Set to 1 to allow initial calculations without special handling"
					},
					"MINIMUM_LOCKED_LIQUIDITY": {
						"details": "Prevents liquidity drain attacks and maintains price stability"
					}
				},
				"title": "SimpleSwap",
				"version": 1
			},
			"evm": {
				"assembly": "    /* \"SimpleSwap.sol\":410:15533  contract SimpleSwap is ERC20 {... */\n  mstore(0x40, 0xc0)\n    /* \"SimpleSwap.sol\":2175:2637  constructor(address _ekaToken, address _ekbToken) ERC20(\"EKA-EKB Liquidity\", \"EKA-EKB-LP\") {... */\n  callvalue\n  dup1\n  iszero\n  tag_1\n  jumpi\n  revert(0x00, 0x00)\ntag_1:\n  pop\n  mload(0x40)\n  sub(codesize, bytecodeSize)\n  dup1\n  bytecodeSize\n  dup4\n  codecopy\n  dup2\n  dup2\n  add\n  0x40\n  mstore\n  dup2\n  add\n  swap1\n  tag_2\n  swap2\n  swap1\n  tag_3\n  jump\t// in\ntag_2:\n    /* \"@openzeppelin/contracts/token/ERC20/ERC20.sol\":1582:1695  constructor(string memory name_, string memory symbol_) {... */\n  mload(0x40)\n  dup1\n  0x40\n  add\n  0x40\n  mstore\n  dup1\n  0x11\n  dup2\n  mstore\n  0x20\n  add\n  0x454b412d454b42204c6971756964697479000000000000000000000000000000\n  dup2\n  mstore\n  pop\n  mload(0x40)\n  dup1\n  0x40\n  add\n  0x40\n  mstore\n  dup1\n  0x0a\n  dup2\n  mstore\n  0x20\n  add\n  0x454b412d454b422d4c5000000000000000000000000000000000000000000000\n  dup2\n  mstore\n  pop\n    /* \"@openzeppelin/contracts/token/ERC20/ERC20.sol\":1656:1661  name_ */\n  dup2\n    /* \"@openzeppelin/contracts/token/ERC20/ERC20.sol\":1648:1653  _name */\n  0x03\n    /* \"@openzeppelin/contracts/token/ERC20/ERC20.sol\":1648:1661  _name = name_ */\n  swap1\n  dup2\n  tag_7\n  swap2\n  swap1\n  tag_8\n  jump\t// in\ntag_7:\n  pop\n    /* \"@openzeppelin/contracts/token/ERC20/ERC20.sol\":1681:1688  symbol_ */\n  dup1\n    /* \"@openzeppelin/contracts/token/ERC20/ERC20.sol\":1671:1678  _symbol */\n  0x04\n    /* \"@openzeppelin/contracts/token/ERC20/ERC20.sol\":1671:1688  _symbol = symbol_ */\n  swap1\n  dup2\n  tag_9\n  swap2\n  swap1\n  tag_8\n  jump\t// in\ntag_9:\n  pop\n    /* \"@openzeppelin/contracts/token/ERC20/ERC20.sol\":1582:1695  constructor(string memory name_, string memory symbol_) {... */\n  pop\n  pop\n    /* \"SimpleSwap.sol\":2306:2307  0 */\n  0x00\n    /* \"SimpleSwap.sol\":2285:2308  _ekaToken != address(0) */\n  0xffffffffffffffffffffffffffffffffffffffff\n  and\n    /* \"SimpleSwap.sol\":2285:2294  _ekaToken */\n  dup3\n    /* \"SimpleSwap.sol\":2285:2308  _ekaToken != address(0) */\n  0xffffffffffffffffffffffffffffffffffffffff\n  and\n  eq\n  iszero\n    /* \"SimpleSwap.sol\":2285:2335  _ekaToken != address(0) && _ekbToken != address(0) */\n  dup1\n  iszero\n  tag_11\n  jumpi\n  pop\n    /* \"SimpleSwap.sol\":2333:2334  0 */\n  0x00\n    /* \"SimpleSwap.sol\":2312:2335  _ekbToken != address(0) */\n  0xffffffffffffffffffffffffffffffffffffffff\n  and\n    /* \"SimpleSwap.sol\":2312:2321  _ekbToken */\n  dup2\n    /* \"SimpleSwap.sol\":2312:2335  _ekbToken != address(0) */\n  0xffffffffffffffffffffffffffffffffffffffff\n  and\n  eq\n  iszero\n    /* \"SimpleSwap.sol\":2285:2335  _ekaToken != address(0) && _ekbToken != address(0) */\ntag_11:\n    /* \"SimpleSwap.sol\":2277:2359  require(_ekaToken != address(0) && _ekbToken != address(0), \"InvalidTokenAddress\") */\n  tag_12\n  jumpi\n  mload(0x40)\n  0x08c379a000000000000000000000000000000000000000000000000000000000\n  dup2\n  mstore\n  0x04\n  add\n  tag_13\n  swap1\n  tag_14\n  jump\t// in\ntag_13:\n  mload(0x40)\n  dup1\n  swap2\n  sub\n  swap1\n  revert\ntag_12:\n    /* \"SimpleSwap.sol\":2391:2400  _ekbToken */\n  dup1\n    /* \"SimpleSwap.sol\":2378:2400  _ekaToken != _ekbToken */\n  0xffffffffffffffffffffffffffffffffffffffff\n  and\n    /* \"SimpleSwap.sol\":2378:2387  _ekaToken */\n  dup3\n    /* \"SimpleSwap.sol\":2378:2400  _ekaToken != _ekbToken */\n  0xffffffffffffffffffffffffffffffffffffffff\n  and\n  sub\n    /* \"SimpleSwap.sol\":2370:2420  require(_ekaToken != _ekbToken, \"IdenticalTokens\") */\n  tag_15\n  jumpi\n  mload(0x40)\n  0x08c379a000000000000000000000000000000000000000000000000000000000\n  dup2\n  mstore\n  0x04\n  add\n  tag_16\n  swap1\n  tag_17\n  jump\t// in\ntag_16:\n  mload(0x40)\n  dup1\n  swap2\n  sub\n  swap1\n  revert\ntag_15:\n    /* \"SimpleSwap.sol\":2452:2461  _ekaToken */\n  dup2\n    /* \"SimpleSwap.sol\":2441:2461  ekaToken = _ekaToken */\n  0xffffffffffffffffffffffffffffffffffffffff\n  and\n  0x80\n  dup2\n  0xffffffffffffffffffffffffffffffffffffffff\n  and\n  dup2\n  mstore\n  pop\n  pop\n    /* \"SimpleSwap.sol\":2483:2492  _ekbToken */\n  dup1\n    /* \"SimpleSwap.sol\":2472:2492  ekbToken = _ekbToken */\n  0xffffffffffffffffffffffffffffffffffffffff\n  and\n  0xa0\n  dup2\n  0xffffffffffffffffffffffffffffffffffffffff\n  and\n  dup2\n  mstore\n  pop\n  pop\n    /* \"SimpleSwap.sol\":2583:2629  _mint(address(this), MINIMUM_LOCKED_LIQUIDITY) */\n  tag_18\n    /* \"SimpleSwap.sol\":2597:2601  this */\n  address\n    /* \"SimpleSwap.sol\":1008:1014  10_000 */\n  0x2710\n    /* \"SimpleSwap.sol\":2583:2588  _mint */\n  shl(0x20, tag_19)\n    /* \"SimpleSwap.sol\":2583:2629  _mint(address(this), MINIMUM_LOCKED_LIQUIDITY) */\n  0x20\n  shr\n  jump\t// in\ntag_18:\n    /* \"SimpleSwap.sol\":2175:2637  constructor(address _ekaToken, address _ekbToken) ERC20(\"EKA-EKB Liquidity\", \"EKA-EKB-LP\") {... */\n  pop\n  pop\n    /* \"SimpleSwap.sol\":410:15533  contract SimpleSwap is ERC20 {... */\n  jump(tag_20)\n    /* \"@openzeppelin/contracts/token/ERC20/ERC20.sol\":7439:7647  function _mint(address account, uint256 value) internal {... */\ntag_19:\n    /* \"@openzeppelin/contracts/token/ERC20/ERC20.sol\":7528:7529  0 */\n  0x00\n    /* \"@openzeppelin/contracts/token/ERC20/ERC20.sol\":7509:7530  account == address(0) */\n  0xffffffffffffffffffffffffffffffffffffffff\n  and\n    /* \"@openzeppelin/contracts/token/ERC20/ERC20.sol\":7509:7516  account */\n  dup3\n    /* \"@openzeppelin/contracts/token/ERC20/ERC20.sol\":7509:7530  account == address(0) */\n  0xffffffffffffffffffffffffffffffffffffffff\n  and\n  sub\n    /* \"@openzeppelin/contracts/token/ERC20/ERC20.sol\":7505:7596  if (account == address(0)) {... */\n  tag_22\n  jumpi\n    /* \"@openzeppelin/contracts/token/ERC20/ERC20.sol\":7582:7583  0 */\n  0x00\n    /* \"@openzeppelin/contracts/token/ERC20/ERC20.sol\":7553:7585  ERC20InvalidReceiver(address(0)) */\n  mload(0x40)\n  0xec442f0500000000000000000000000000000000000000000000000000000000\n  dup2\n  mstore\n  0x04\n  add\n  tag_23\n  swap2\n  swap1\n  tag_24\n  jump\t// in\ntag_23:\n  mload(0x40)\n  dup1\n  swap2\n  sub\n  swap1\n  revert\n    /* \"@openzeppelin/contracts/token/ERC20/ERC20.sol\":7505:7596  if (account == address(0)) {... */\ntag_22:\n    /* \"@openzeppelin/contracts/token/ERC20/ERC20.sol\":7605:7640  _update(address(0), account, value) */\n  tag_25\n    /* \"@openzeppelin/contracts/token/ERC20/ERC20.sol\":7621:7622  0 */\n  0x00\n    /* \"@openzeppelin/contracts/token/ERC20/ERC20.sol\":7625:7632  account */\n  dup4\n    /* \"@openzeppelin/contracts/token/ERC20/ERC20.sol\":7634:7639  value */\n  dup4\n    /* \"@openzeppelin/contracts/token/ERC20/ERC20.sol\":7605:7612  _update */\n  shl(0x20, tag_26)\n    /* \"@openzeppelin/contracts/token/ERC20/ERC20.sol\":7605:7640  _update(address(0), account, value) */\n  0x20\n  shr\n  jump\t// in\ntag_25:\n    /* \"@openzeppelin/contracts/token/ERC20/ERC20.sol\":7439:7647  function _mint(address account, uint256 value) internal {... */\n  pop\n  pop\n  jump\t// out\n    /* \"@openzeppelin/contracts/token/ERC20/ERC20.sol\":5989:7096  function _update(address from, address to, uint256 value) internal virtual {... */\ntag_26:\n    /* \"@openzeppelin/contracts/token/ERC20/ERC20.sol\":6094:6095  0 */\n  0x00\n    /* \"@openzeppelin/contracts/token/ERC20/ERC20.sol\":6078:6096  from == address(0) */\n  0xffffffffffffffffffffffffffffffffffffffff\n  and\n    /* \"@openzeppelin/contracts/token/ERC20/ERC20.sol\":6078:6082  from */\n  dup4\n    /* \"@openzeppelin/contracts/token/ERC20/ERC20.sol\":6078:6096  from == address(0) */\n  0xffffffffffffffffffffffffffffffffffffffff\n  and\n  sub\n    /* \"@openzeppelin/contracts/token/ERC20/ERC20.sol\":6074:6614  if (from == address(0)) {... */\n  tag_28\n  jumpi\n    /* \"@openzeppelin/contracts/token/ERC20/ERC20.sol\":6230:6235  value */\n  dup1\n    /* \"@openzeppelin/contracts/token/ERC20/ERC20.sol\":6214:6226  _totalSupply */\n  0x02\n  0x00\n    /* \"@openzeppelin/contracts/token/ERC20/ERC20.sol\":6214:6235  _totalSupply += value */\n  dup3\n  dup3\n  sload\n  tag_29\n  swap2\n  swap1\n  tag_30\n  jump\t// in\ntag_29:\n  swap3\n  pop\n  pop\n  dup2\n  swap1\n  sstore\n  pop\n    /* \"@openzeppelin/contracts/token/ERC20/ERC20.sol\":6074:6614  if (from == address(0)) {... */\n  jump(tag_31)\ntag_28:\n    /* \"@openzeppelin/contracts/token/ERC20/ERC20.sol\":6266:6285  uint256 fromBalance */\n  0x00\n    /* \"@openzeppelin/contracts/token/ERC20/ERC20.sol\":6288:6297  _balances */\n  0x00\n    /* \"@openzeppelin/contracts/token/ERC20/ERC20.sol\":6288:6303  _balances[from] */\n  0x00\n    /* \"@openzeppelin/contracts/token/ERC20/ERC20.sol\":6298:6302  from */\n  dup6\n    /* \"@openzeppelin/contracts/token/ERC20/ERC20.sol\":6288:6303  _balances[from] */\n  0xffffffffffffffffffffffffffffffffffffffff\n  and\n  0xffffffffffffffffffffffffffffffffffffffff\n  and\n  dup2\n  mstore\n  0x20\n  add\n  swap1\n  dup2\n  mstore\n  0x20\n  add\n  0x00\n  keccak256\n  sload\n    /* \"@openzeppelin/contracts/token/ERC20/ERC20.sol\":6266:6303  uint256 fromBalance = _balances[from] */\n  swap1\n  pop\n    /* \"@openzeppelin/contracts/token/ERC20/ERC20.sol\":6335:6340  value */\n  dup2\n    /* \"@openzeppelin/contracts/token/ERC20/ERC20.sol\":6321:6332  fromBalance */\n  dup2\n    /* \"@openzeppelin/contracts/token/ERC20/ERC20.sol\":6321:6340  fromBalance < value */\n  lt\n    /* \"@openzeppelin/contracts/token/ERC20/ERC20.sol\":6317:6432  if (fromBalance < value) {... */\n  iszero\n  tag_32\n  jumpi\n    /* \"@openzeppelin/contracts/token/ERC20/ERC20.sol\":6392:6396  from */\n  dup4\n    /* \"@openzeppelin/contracts/token/ERC20/ERC20.sol\":6398:6409  fromBalance */\n  dup2\n    /* \"@openzeppelin/contracts/token/ERC20/ERC20.sol\":6411:6416  value */\n  dup4\n    /* \"@openzeppelin/contracts/token/ERC20/ERC20.sol\":6367:6417  ERC20InsufficientBalance(from, fromBalance, value) */\n  mload(0x40)\n  0xe450d38c00000000000000000000000000000000000000000000000000000000\n  dup2\n  mstore\n  0x04\n  add\n  tag_33\n  swap4\n  swap3\n  swap2\n  swap1\n  tag_34\n  jump\t// in\ntag_33:\n  mload(0x40)\n  dup1\n  swap2\n  sub\n  swap1\n  revert\n    /* \"@openzeppelin/contracts/token/ERC20/ERC20.sol\":6317:6432  if (fromBalance < value) {... */\ntag_32:\n    /* \"@openzeppelin/contracts/token/ERC20/ERC20.sol\":6584:6589  value */\n  dup2\n    /* \"@openzeppelin/contracts/token/ERC20/ERC20.sol\":6570:6581  fromBalance */\n  dup2\n    /* \"@openzeppelin/contracts/token/ERC20/ERC20.sol\":6570:6589  fromBalance - value */\n  sub\n    /* \"@openzeppelin/contracts/token/ERC20/ERC20.sol\":6552:6561  _balances */\n  0x00\n    /* \"@openzeppelin/contracts/token/ERC20/ERC20.sol\":6552:6567  _balances[from] */\n  0x00\n    /* \"@openzeppelin/contracts/token/ERC20/ERC20.sol\":6562:6566  from */\n  dup7\n    /* \"@openzeppelin/contracts/token/ERC20/ERC20.sol\":6552:6567  _balances[from] */\n  0xffffffffffffffffffffffffffffffffffffffff\n  and\n  0xffffffffffffffffffffffffffffffffffffffff\n  and\n  dup2\n  mstore\n  0x20\n  add\n  swap1\n  dup2\n  mstore\n  0x20\n  add\n  0x00\n  keccak256\n    /* \"@openzeppelin/contracts/token/ERC20/ERC20.sol\":6552:6589  _balances[from] = fromBalance - value */\n  dup2\n  swap1\n  sstore\n  pop\n    /* \"@openzeppelin/contracts/token/ERC20/ERC20.sol\":6252:6614  {... */\n  pop\n    /* \"@openzeppelin/contracts/token/ERC20/ERC20.sol\":6074:6614  if (from == address(0)) {... */\ntag_31:\n    /* \"@openzeppelin/contracts/token/ERC20/ERC20.sol\":6642:6643  0 */\n  0x00\n    /* \"@openzeppelin/contracts/token/ERC20/ERC20.sol\":6628:6644  to == address(0) */\n  0xffffffffffffffffffffffffffffffffffffffff\n  and\n    /* \"@openzeppelin/contracts/token/ERC20/ERC20.sol\":6628:6630  to */\n  dup3\n    /* \"@openzeppelin/contracts/token/ERC20/ERC20.sol\":6628:6644  to == address(0) */\n  0xffffffffffffffffffffffffffffffffffffffff\n  and\n  sub\n    /* \"@openzeppelin/contracts/token/ERC20/ERC20.sol\":6624:7049  if (to == address(0)) {... */\n  tag_35\n  jumpi\n    /* \"@openzeppelin/contracts/token/ERC20/ERC20.sol\":6807:6812  value */\n  dup1\n    /* \"@openzeppelin/contracts/token/ERC20/ERC20.sol\":6791:6803  _totalSupply */\n  0x02\n  0x00\n    /* \"@openzeppelin/contracts/token/ERC20/ERC20.sol\":6791:6812  _totalSupply -= value */\n  dup3\n  dup3\n  sload\n  sub\n  swap3\n  pop\n  pop\n  dup2\n  swap1\n  sstore\n  pop\n    /* \"@openzeppelin/contracts/token/ERC20/ERC20.sol\":6624:7049  if (to == address(0)) {... */\n  jump(tag_36)\ntag_35:\n    /* \"@openzeppelin/contracts/token/ERC20/ERC20.sol\":7019:7024  value */\n  dup1\n    /* \"@openzeppelin/contracts/token/ERC20/ERC20.sol\":7002:7011  _balances */\n  0x00\n    /* \"@openzeppelin/contracts/token/ERC20/ERC20.sol\":7002:7015  _balances[to] */\n  0x00\n    /* \"@openzeppelin/contracts/token/ERC20/ERC20.sol\":7012:7014  to */\n  dup5\n    /* \"@openzeppelin/contracts/token/ERC20/ERC20.sol\":7002:7015  _balances[to] */\n  0xffffffffffffffffffffffffffffffffffffffff\n  and\n  0xffffffffffffffffffffffffffffffffffffffff\n  and\n  dup2\n  mstore\n  0x20\n  add\n  swap1\n  dup2\n  mstore\n  0x20\n  add\n  0x00\n  keccak256\n  0x00\n    /* \"@openzeppelin/contracts/token/ERC20/ERC20.sol\":7002:7024  _balances[to] += value */\n  dup3\n  dup3\n  sload\n  add\n  swap3\n  pop\n  pop\n  dup2\n  swap1\n  sstore\n  pop\n    /* \"@openzeppelin/contracts/token/ERC20/ERC20.sol\":6624:7049  if (to == address(0)) {... */\ntag_36:\n    /* \"@openzeppelin/contracts/token/ERC20/ERC20.sol\":7079:7081  to */\n  dup2\n    /* \"@openzeppelin/contracts/token/ERC20/ERC20.sol\":7064:7089  Transfer(from, to, value) */\n  0xffffffffffffffffffffffffffffffffffffffff\n  and\n    /* \"@openzeppelin/contracts/token/ERC20/ERC20.sol\":7073:7077  from */\n  dup4\n    /* \"@openzeppelin/contracts/token/ERC20/ERC20.sol\":7064:7089  Transfer(from, to, value) */\n  0xffffffffffffffffffffffffffffffffffffffff\n  and\n  0xddf252ad1be2c89b69c2b068fc378daa952ba7f163c4a11628f55a4df523b3ef\n    /* \"@openzeppelin/contracts/token/ERC20/ERC20.sol\":7083:7088  value */\n  dup4\n    /* \"@openzeppelin/contracts/token/ERC20/ERC20.sol\":7064:7089  Transfer(from, to, value) */\n  mload(0x40)\n  tag_37\n  swap2\n  swap1\n  tag_38\n  jump\t// in\ntag_37:\n  mload(0x40)\n  dup1\n  swap2\n  sub\n  swap1\n  log3\n    /* \"@openzeppelin/contracts/token/ERC20/ERC20.sol\":5989:7096  function _update(address from, address to, uint256 value) internal virtual {... */\n  pop\n  pop\n  pop\n  jump\t// out\n    /* \"#utility.yul\":88:205   */\ntag_40:\n    /* \"#utility.yul\":197:198   */\n  0x00\n    /* \"#utility.yul\":194:195   */\n  0x00\n    /* \"#utility.yul\":187:199   */\n  revert\n    /* \"#utility.yul\":334:460   */\ntag_42:\n    /* \"#utility.yul\":371:378   */\n  0x00\n    /* \"#utility.yul\":411:453   */\n  0xffffffffffffffffffffffffffffffffffffffff\n    /* \"#utility.yul\":404:409   */\n  dup3\n    /* \"#utility.yul\":400:454   */\n  and\n    /* \"#utility.yul\":389:454   */\n  swap1\n  pop\n    /* \"#utility.yul\":334:460   */\n  swap2\n  swap1\n  pop\n  jump\t// out\n    /* \"#utility.yul\":466:562   */\ntag_43:\n    /* \"#utility.yul\":503:510   */\n  0x00\n    /* \"#utility.yul\":532:556   */\n  tag_80\n    /* \"#utility.yul\":550:555   */\n  dup3\n    /* \"#utility.yul\":532:556   */\n  tag_42\n  jump\t// in\ntag_80:\n    /* \"#utility.yul\":521:556   */\n  swap1\n  pop\n    /* \"#utility.yul\":466:562   */\n  swap2\n  swap1\n  pop\n  jump\t// out\n    /* \"#utility.yul\":568:690   */\ntag_44:\n    /* \"#utility.yul\":641:665   */\n  tag_82\n    /* \"#utility.yul\":659:664   */\n  dup2\n    /* \"#utility.yul\":641:665   */\n  tag_43\n  jump\t// in\ntag_82:\n    /* \"#utility.yul\":634:639   */\n  dup2\n    /* \"#utility.yul\":631:666   */\n  eq\n    /* \"#utility.yul\":621:684   */\n  tag_83\n  jumpi\n    /* \"#utility.yul\":680:681   */\n  0x00\n    /* \"#utility.yul\":677:678   */\n  0x00\n    /* \"#utility.yul\":670:682   */\n  revert\n    /* \"#utility.yul\":621:684   */\ntag_83:\n    /* \"#utility.yul\":568:690   */\n  pop\n  jump\t// out\n    /* \"#utility.yul\":696:839   */\ntag_45:\n    /* \"#utility.yul\":753:758   */\n  0x00\n    /* \"#utility.yul\":784:790   */\n  dup2\n    /* \"#utility.yul\":778:791   */\n  mload\n    /* \"#utility.yul\":769:791   */\n  swap1\n  pop\n    /* \"#utility.yul\":800:833   */\n  tag_85\n    /* \"#utility.yul\":827:832   */\n  dup2\n    /* \"#utility.yul\":800:833   */\n  tag_44\n  jump\t// in\ntag_85:\n    /* \"#utility.yul\":696:839   */\n  swap3\n  swap2\n  pop\n  pop\n  jump\t// out\n    /* \"#utility.yul\":845:1352   */\ntag_3:\n    /* \"#utility.yul\":924:930   */\n  0x00\n    /* \"#utility.yul\":932:938   */\n  0x00\n    /* \"#utility.yul\":981:983   */\n  0x40\n    /* \"#utility.yul\":969:978   */\n  dup4\n    /* \"#utility.yul\":960:967   */\n  dup6\n    /* \"#utility.yul\":956:979   */\n  sub\n    /* \"#utility.yul\":952:984   */\n  slt\n    /* \"#utility.yul\":949:1068   */\n  iszero\n  tag_87\n  jumpi\n    /* \"#utility.yul\":987:1066   */\n  tag_88\n  tag_40\n  jump\t// in\ntag_88:\n    /* \"#utility.yul\":949:1068   */\ntag_87:\n    /* \"#utility.yul\":1107:1108   */\n  0x00\n    /* \"#utility.yul\":1132:1196   */\n  tag_89\n    /* \"#utility.yul\":1188:1195   */\n  dup6\n    /* \"#utility.yul\":1179:1185   */\n  dup3\n    /* \"#utility.yul\":1168:1177   */\n  dup7\n    /* \"#utility.yul\":1164:1186   */\n  add\n    /* \"#utility.yul\":1132:1196   */\n  tag_45\n  jump\t// in\ntag_89:\n    /* \"#utility.yul\":1122:1196   */\n  swap3\n  pop\n    /* \"#utility.yul\":1078:1206   */\n  pop\n    /* \"#utility.yul\":1245:1247   */\n  0x20\n    /* \"#utility.yul\":1271:1335   */\n  tag_90\n    /* \"#utility.yul\":1327:1334   */\n  dup6\n    /* \"#utility.yul\":1318:1324   */\n  dup3\n    /* \"#utility.yul\":1307:1316   */\n  dup7\n    /* \"#utility.yul\":1303:1325   */\n  add\n    /* \"#utility.yul\":1271:1335   */\n  tag_45\n  jump\t// in\ntag_90:\n    /* \"#utility.yul\":1261:1335   */\n  swap2\n  pop\n    /* \"#utility.yul\":1216:1345   */\n  pop\n    /* \"#utility.yul\":845:1352   */\n  swap3\n  pop\n  swap3\n  swap1\n  pop\n  jump\t// out\n    /* \"#utility.yul\":1358:1457   */\ntag_46:\n    /* \"#utility.yul\":1410:1416   */\n  0x00\n    /* \"#utility.yul\":1444:1449   */\n  dup2\n    /* \"#utility.yul\":1438:1450   */\n  mload\n    /* \"#utility.yul\":1428:1450   */\n  swap1\n  pop\n    /* \"#utility.yul\":1358:1457   */\n  swap2\n  swap1\n  pop\n  jump\t// out\n    /* \"#utility.yul\":1463:1643   */\ntag_47:\n    /* \"#utility.yul\":1511:1588   */\n  0x4e487b7100000000000000000000000000000000000000000000000000000000\n    /* \"#utility.yul\":1508:1509   */\n  0x00\n    /* \"#utility.yul\":1501:1589   */\n  mstore\n    /* \"#utility.yul\":1608:1612   */\n  0x41\n    /* \"#utility.yul\":1605:1606   */\n  0x04\n    /* \"#utility.yul\":1598:1613   */\n  mstore\n    /* \"#utility.yul\":1632:1636   */\n  0x24\n    /* \"#utility.yul\":1629:1630   */\n  0x00\n    /* \"#utility.yul\":1622:1637   */\n  revert\n    /* \"#utility.yul\":1649:1829   */\ntag_48:\n    /* \"#utility.yul\":1697:1774   */\n  0x4e487b7100000000000000000000000000000000000000000000000000000000\n    /* \"#utility.yul\":1694:1695   */\n  0x00\n    /* \"#utility.yul\":1687:1775   */\n  mstore\n    /* \"#utility.yul\":1794:1798   */\n  0x22\n    /* \"#utility.yul\":1791:1792   */\n  0x04\n    /* \"#utility.yul\":1784:1799   */\n  mstore\n    /* \"#utility.yul\":1818:1822   */\n  0x24\n    /* \"#utility.yul\":1815:1816   */\n  0x00\n    /* \"#utility.yul\":1808:1823   */\n  revert\n    /* \"#utility.yul\":1835:2155   */\ntag_49:\n    /* \"#utility.yul\":1879:1885   */\n  0x00\n    /* \"#utility.yul\":1916:1917   */\n  0x02\n    /* \"#utility.yul\":1910:1914   */\n  dup3\n    /* \"#utility.yul\":1906:1918   */\n  div\n    /* \"#utility.yul\":1896:1918   */\n  swap1\n  pop\n    /* \"#utility.yul\":1963:1964   */\n  0x01\n    /* \"#utility.yul\":1957:1961   */\n  dup3\n    /* \"#utility.yul\":1953:1965   */\n  and\n    /* \"#utility.yul\":1984:2002   */\n  dup1\n    /* \"#utility.yul\":1974:2055   */\n  tag_95\n  jumpi\n    /* \"#utility.yul\":2040:2044   */\n  0x7f\n    /* \"#utility.yul\":2032:2038   */\n  dup3\n    /* \"#utility.yul\":2028:2045   */\n  and\n    /* \"#utility.yul\":2018:2045   */\n  swap2\n  pop\n    /* \"#utility.yul\":1974:2055   */\ntag_95:\n    /* \"#utility.yul\":2102:2104   */\n  0x20\n    /* \"#utility.yul\":2094:2100   */\n  dup3\n    /* \"#utility.yul\":2091:2105   */\n  lt\n    /* \"#utility.yul\":2071:2089   */\n  dup2\n    /* \"#utility.yul\":2068:2106   */\n  sub\n    /* \"#utility.yul\":2065:2149   */\n  tag_96\n  jumpi\n    /* \"#utility.yul\":2121:2139   */\n  tag_97\n  tag_48\n  jump\t// in\ntag_97:\n    /* \"#utility.yul\":2065:2149   */\ntag_96:\n    /* \"#utility.yul\":1886:2155   */\n  pop\n    /* \"#utility.yul\":1835:2155   */\n  swap2\n  swap1\n  pop\n  jump\t// out\n    /* \"#utility.yul\":2161:2302   */\ntag_50:\n    /* \"#utility.yul\":2210:2214   */\n  0x00\n    /* \"#utility.yul\":2233:2236   */\n  dup2\n    /* \"#utility.yul\":2225:2236   */\n  swap1\n  pop\n    /* \"#utility.yul\":2256:2259   */\n  dup2\n    /* \"#utility.yul\":2253:2254   */\n  0x00\n    /* \"#utility.yul\":2246:2260   */\n  mstore\n    /* \"#utility.yul\":2290:2294   */\n  0x20\n    /* \"#utility.yul\":2287:2288   */\n  0x00\n    /* \"#utility.yul\":2277:2295   */\n  keccak256\n    /* \"#utility.yul\":2269:2295   */\n  swap1\n  pop\n    /* \"#utility.yul\":2161:2302   */\n  swap2\n  swap1\n  pop\n  jump\t// out\n    /* \"#utility.yul\":2308:2401   */\ntag_51:\n    /* \"#utility.yul\":2345:2351   */\n  0x00\n    /* \"#utility.yul\":2392:2394   */\n  0x20\n    /* \"#utility.yul\":2387:2389   */\n  0x1f\n    /* \"#utility.yul\":2380:2385   */\n  dup4\n    /* \"#utility.yul\":2376:2390   */\n  add\n    /* \"#utility.yul\":2372:2395   */\n  div\n    /* \"#utility.yul\":2362:2395   */\n  swap1\n  pop\n    /* \"#utility.yul\":2308:2401   */\n  swap2\n  swap1\n  pop\n  jump\t// out\n    /* \"#utility.yul\":2407:2514   */\ntag_52:\n    /* \"#utility.yul\":2451:2459   */\n  0x00\n    /* \"#utility.yul\":2501:2506   */\n  dup3\n    /* \"#utility.yul\":2495:2499   */\n  dup3\n    /* \"#utility.yul\":2491:2507   */\n  shl\n    /* \"#utility.yul\":2470:2507   */\n  swap1\n  pop\n    /* \"#utility.yul\":2407:2514   */\n  swap3\n  swap2\n  pop\n  pop\n  jump\t// out\n    /* \"#utility.yul\":2520:2913   */\ntag_53:\n    /* \"#utility.yul\":2589:2595   */\n  0x00\n    /* \"#utility.yul\":2639:2640   */\n  0x08\n    /* \"#utility.yul\":2627:2637   */\n  dup4\n    /* \"#utility.yul\":2623:2641   */\n  mul\n    /* \"#utility.yul\":2662:2759   */\n  tag_102\n    /* \"#utility.yul\":2692:2758   */\n  0xffffffffffffffffffffffffffffffffffffffffffffffffffffffffffffffff\n    /* \"#utility.yul\":2681:2690   */\n  dup3\n    /* \"#utility.yul\":2662:2759   */\n  tag_52\n  jump\t// in\ntag_102:\n    /* \"#utility.yul\":2780:2819   */\n  tag_103\n    /* \"#utility.yul\":2810:2818   */\n  dup7\n    /* \"#utility.yul\":2799:2808   */\n  dup4\n    /* \"#utility.yul\":2780:2819   */\n  tag_52\n  jump\t// in\ntag_103:\n    /* \"#utility.yul\":2768:2819   */\n  swap6\n  pop\n    /* \"#utility.yul\":2852:2856   */\n  dup1\n    /* \"#utility.yul\":2848:2857   */\n  not\n    /* \"#utility.yul\":2841:2846   */\n  dup5\n    /* \"#utility.yul\":2837:2858   */\n  and\n    /* \"#utility.yul\":2828:2858   */\n  swap4\n  pop\n    /* \"#utility.yul\":2901:2905   */\n  dup1\n    /* \"#utility.yul\":2891:2899   */\n  dup7\n    /* \"#utility.yul\":2887:2906   */\n  and\n    /* \"#utility.yul\":2880:2885   */\n  dup5\n    /* \"#utility.yul\":2877:2907   */\n  or\n    /* \"#utility.yul\":2867:2907   */\n  swap3\n  pop\n    /* \"#utility.yul\":2596:2913   */\n  pop\n  pop\n    /* \"#utility.yul\":2520:2913   */\n  swap4\n  swap3\n  pop\n  pop\n  pop\n  jump\t// out\n    /* \"#utility.yul\":2919:2996   */\ntag_54:\n    /* \"#utility.yul\":2956:2963   */\n  0x00\n    /* \"#utility.yul\":2985:2990   */\n  dup2\n    /* \"#utility.yul\":2974:2990   */\n  swap1\n  pop\n    /* \"#utility.yul\":2919:2996   */\n  swap2\n  swap1\n  pop\n  jump\t// out\n    /* \"#utility.yul\":3002:3062   */\ntag_55:\n    /* \"#utility.yul\":3030:3033   */\n  0x00\n    /* \"#utility.yul\":3051:3056   */\n  dup2\n    /* \"#utility.yul\":3044:3056   */\n  swap1\n  pop\n    /* \"#utility.yul\":3002:3062   */\n  swap2\n  swap1\n  pop\n  jump\t// out\n    /* \"#utility.yul\":3068:3210   */\ntag_56:\n    /* \"#utility.yul\":3118:3127   */\n  0x00\n    /* \"#utility.yul\":3151:3204   */\n  tag_107\n    /* \"#utility.yul\":3169:3203   */\n  tag_108\n    /* \"#utility.yul\":3178:3202   */\n  tag_109\n    /* \"#utility.yul\":3196:3201   */\n  dup5\n    /* \"#utility.yul\":3178:3202   */\n  tag_54\n  jump\t// in\ntag_109:\n    /* \"#utility.yul\":3169:3203   */\n  tag_55\n  jump\t// in\ntag_108:\n    /* \"#utility.yul\":3151:3204   */\n  tag_54\n  jump\t// in\ntag_107:\n    /* \"#utility.yul\":3138:3204   */\n  swap1\n  pop\n    /* \"#utility.yul\":3068:3210   */\n  swap2\n  swap1\n  pop\n  jump\t// out\n    /* \"#utility.yul\":3216:3291   */\ntag_57:\n    /* \"#utility.yul\":3259:3262   */\n  0x00\n    /* \"#utility.yul\":3280:3285   */\n  dup2\n    /* \"#utility.yul\":3273:3285   */\n  swap1\n  pop\n    /* \"#utility.yul\":3216:3291   */\n  swap2\n  swap1\n  pop\n  jump\t// out\n    /* \"#utility.yul\":3297:3566   */\ntag_58:\n    /* \"#utility.yul\":3407:3446   */\n  tag_112\n    /* \"#utility.yul\":3438:3445   */\n  dup4\n    /* \"#utility.yul\":3407:3446   */\n  tag_56\n  jump\t// in\ntag_112:\n    /* \"#utility.yul\":3468:3559   */\n  tag_113\n    /* \"#utility.yul\":3517:3558   */\n  tag_114\n    /* \"#utility.yul\":3541:3557   */\n  dup3\n    /* \"#utility.yul\":3517:3558   */\n  tag_57\n  jump\t// in\ntag_114:\n    /* \"#utility.yul\":3509:3515   */\n  dup5\n    /* \"#utility.yul\":3502:3506   */\n  dup5\n    /* \"#utility.yul\":3496:3507   */\n  sload\n    /* \"#utility.yul\":3468:3559   */\n  tag_53\n  jump\t// in\ntag_113:\n    /* \"#utility.yul\":3462:3466   */\n  dup3\n    /* \"#utility.yul\":3455:3560   */\n  sstore\n    /* \"#utility.yul\":3373:3566   */\n  pop\n    /* \"#utility.yul\":3297:3566   */\n  pop\n  pop\n  pop\n  jump\t// out\n    /* \"#utility.yul\":3572:3645   */\ntag_59:\n    /* \"#utility.yul\":3617:3620   */\n  0x00\n    /* \"#utility.yul\":3638:3639   */\n  0x00\n    /* \"#utility.yul\":3631:3639   */\n  swap1\n  pop\n    /* \"#utility.yul\":3572:3645   */\n  swap1\n  jump\t// out\n    /* \"#utility.yul\":3651:3840   */\ntag_60:\n    /* \"#utility.yul\":3728:3760   */\n  tag_117\n  tag_59\n  jump\t// in\ntag_117:\n    /* \"#utility.yul\":3769:3834   */\n  tag_118\n    /* \"#utility.yul\":3827:3833   */\n  dup2\n    /* \"#utility.yul\":3819:3825   */\n  dup5\n    /* \"#utility.yul\":3813:3817   */\n  dup5\n    /* \"#utility.yul\":3769:3834   */\n  tag_58\n  jump\t// in\ntag_118:\n    /* \"#utility.yul\":3704:3840   */\n  pop\n    /* \"#utility.yul\":3651:3840   */\n  pop\n  pop\n  jump\t// out\n    /* \"#utility.yul\":3846:4032   */\ntag_61:\n    /* \"#utility.yul\":3906:4026   */\ntag_120:\n    /* \"#utility.yul\":3923:3926   */\n  dup2\n    /* \"#utility.yul\":3916:3921   */\n  dup2\n    /* \"#utility.yul\":3913:3927   */\n  lt\n    /* \"#utility.yul\":3906:4026   */\n  iszero\n  tag_122\n  jumpi\n    /* \"#utility.yul\":3977:4016   */\n  tag_123\n    /* \"#utility.yul\":4014:4015   */\n  0x00\n    /* \"#utility.yul\":4007:4012   */\n  dup3\n    /* \"#utility.yul\":3977:4016   */\n  tag_60\n  jump\t// in\ntag_123:\n    /* \"#utility.yul\":3950:3951   */\n  0x01\n    /* \"#utility.yul\":3943:3948   */\n  dup2\n    /* \"#utility.yul\":3939:3952   */\n  add\n    /* \"#utility.yul\":3930:3952   */\n  swap1\n  pop\n    /* \"#utility.yul\":3906:4026   */\n  jump(tag_120)\ntag_122:\n    /* \"#utility.yul\":3846:4032   */\n  pop\n  pop\n  jump\t// out\n    /* \"#utility.yul\":4038:4581   */\ntag_62:\n    /* \"#utility.yul\":4139:4141   */\n  0x1f\n    /* \"#utility.yul\":4134:4137   */\n  dup3\n    /* \"#utility.yul\":4131:4142   */\n  gt\n    /* \"#utility.yul\":4128:4574   */\n  iszero\n  tag_125\n  jumpi\n    /* \"#utility.yul\":4173:4211   */\n  tag_126\n    /* \"#utility.yul\":4205:4210   */\n  dup2\n    /* \"#utility.yul\":4173:4211   */\n  tag_50\n  jump\t// in\ntag_126:\n    /* \"#utility.yul\":4257:4286   */\n  tag_127\n    /* \"#utility.yul\":4275:4285   */\n  dup5\n    /* \"#utility.yul\":4257:4286   */\n  tag_51\n  jump\t// in\ntag_127:\n    /* \"#utility.yul\":4247:4255   */\n  dup2\n    /* \"#utility.yul\":4243:4287   */\n  add\n    /* \"#utility.yul\":4440:4442   */\n  0x20\n    /* \"#utility.yul\":4428:4438   */\n  dup6\n    /* \"#utility.yul\":4425:4443   */\n  lt\n    /* \"#utility.yul\":4422:4471   */\n  iszero\n  tag_128\n  jumpi\n    /* \"#utility.yul\":4461:4469   */\n  dup2\n    /* \"#utility.yul\":4446:4469   */\n  swap1\n  pop\n    /* \"#utility.yul\":4422:4471   */\ntag_128:\n    /* \"#utility.yul\":4484:4564   */\n  tag_129\n    /* \"#utility.yul\":4540:4562   */\n  tag_130\n    /* \"#utility.yul\":4558:4561   */\n  dup6\n    /* \"#utility.yul\":4540:4562   */\n  tag_51\n  jump\t// in\ntag_130:\n    /* \"#utility.yul\":4530:4538   */\n  dup4\n    /* \"#utility.yul\":4526:4563   */\n  add\n    /* \"#utility.yul\":4513:4524   */\n  dup3\n    /* \"#utility.yul\":4484:4564   */\n  tag_61\n  jump\t// in\ntag_129:\n    /* \"#utility.yul\":4143:4574   */\n  pop\n  pop\n    /* \"#utility.yul\":4128:4574   */\ntag_125:\n    /* \"#utility.yul\":4038:4581   */\n  pop\n  pop\n  pop\n  jump\t// out\n    /* \"#utility.yul\":4587:4704   */\ntag_63:\n    /* \"#utility.yul\":4641:4649   */\n  0x00\n    /* \"#utility.yul\":4691:4696   */\n  dup3\n    /* \"#utility.yul\":4685:4689   */\n  dup3\n    /* \"#utility.yul\":4681:4697   */\n  shr\n    /* \"#utility.yul\":4660:4697   */\n  swap1\n  pop\n    /* \"#utility.yul\":4587:4704   */\n  swap3\n  swap2\n  pop\n  pop\n  jump\t// out\n    /* \"#utility.yul\":4710:4879   */\ntag_64:\n    /* \"#utility.yul\":4754:4760   */\n  0x00\n    /* \"#utility.yul\":4787:4838   */\n  tag_133\n    /* \"#utility.yul\":4835:4836   */\n  0x00\n    /* \"#utility.yul\":4831:4837   */\n  not\n    /* \"#utility.yul\":4823:4828   */\n  dup5\n    /* \"#utility.yul\":4820:4821   */\n  0x08\n    /* \"#utility.yul\":4816:4829   */\n  mul\n    /* \"#utility.yul\":4787:4838   */\n  tag_63\n  jump\t// in\ntag_133:\n    /* \"#utility.yul\":4783:4839   */\n  not\n    /* \"#utility.yul\":4868:4872   */\n  dup1\n    /* \"#utility.yul\":4862:4866   */\n  dup4\n    /* \"#utility.yul\":4858:4873   */\n  and\n    /* \"#utility.yul\":4848:4873   */\n  swap2\n  pop\n    /* \"#utility.yul\":4761:4879   */\n  pop\n    /* \"#utility.yul\":4710:4879   */\n  swap3\n  swap2\n  pop\n  pop\n  jump\t// out\n    /* \"#utility.yul\":4884:5179   */\ntag_65:\n    /* \"#utility.yul\":4960:4964   */\n  0x00\n    /* \"#utility.yul\":5106:5135   */\n  tag_135\n    /* \"#utility.yul\":5131:5134   */\n  dup4\n    /* \"#utility.yul\":5125:5129   */\n  dup4\n    /* \"#utility.yul\":5106:5135   */\n  tag_64\n  jump\t// in\ntag_135:\n    /* \"#utility.yul\":5098:5135   */\n  swap2\n  pop\n    /* \"#utility.yul\":5168:5171   */\n  dup3\n    /* \"#utility.yul\":5165:5166   */\n  0x02\n    /* \"#utility.yul\":5161:5172   */\n  mul\n    /* \"#utility.yul\":5155:5159   */\n  dup3\n    /* \"#utility.yul\":5152:5173   */\n  or\n    /* \"#utility.yul\":5144:5173   */\n  swap1\n  pop\n    /* \"#utility.yul\":4884:5179   */\n  swap3\n  swap2\n  pop\n  pop\n  jump\t// out\n    /* \"#utility.yul\":5184:6579   */\ntag_8:\n    /* \"#utility.yul\":5301:5338   */\n  tag_137\n    /* \"#utility.yul\":5334:5337   */\n  dup3\n    /* \"#utility.yul\":5301:5338   */\n  tag_46\n  jump\t// in\ntag_137:\n    /* \"#utility.yul\":5403:5421   */\n  0xffffffffffffffff\n    /* \"#utility.yul\":5395:5401   */\n  dup2\n    /* \"#utility.yul\":5392:5422   */\n  gt\n    /* \"#utility.yul\":5389:5445   */\n  iszero\n  tag_138\n  jumpi\n    /* \"#utility.yul\":5425:5443   */\n  tag_139\n  tag_47\n  jump\t// in\ntag_139:\n    /* \"#utility.yul\":5389:5445   */\ntag_138:\n    /* \"#utility.yul\":5469:5507   */\n  tag_140\n    /* \"#utility.yul\":5501:5505   */\n  dup3\n    /* \"#utility.yul\":5495:5506   */\n  sload\n    /* \"#utility.yul\":5469:5507   */\n  tag_49\n  jump\t// in\ntag_140:\n    /* \"#utility.yul\":5554:5621   */\n  tag_141\n    /* \"#utility.yul\":5614:5620   */\n  dup3\n    /* \"#utility.yul\":5606:5612   */\n  dup3\n    /* \"#utility.yul\":5600:5604   */\n  dup6\n    /* \"#utility.yul\":5554:5621   */\n  tag_62\n  jump\t// in\ntag_141:\n    /* \"#utility.yul\":5648:5649   */\n  0x00\n    /* \"#utility.yul\":5672:5676   */\n  0x20\n    /* \"#utility.yul\":5659:5676   */\n  swap1\n  pop\n    /* \"#utility.yul\":5704:5706   */\n  0x1f\n    /* \"#utility.yul\":5696:5702   */\n  dup4\n    /* \"#utility.yul\":5693:5707   */\n  gt\n    /* \"#utility.yul\":5721:5722   */\n  0x01\n    /* \"#utility.yul\":5716:6334   */\n  dup2\n  eq\n  tag_143\n  jumpi\n    /* \"#utility.yul\":6378:6379   */\n  0x00\n    /* \"#utility.yul\":6395:6401   */\n  dup5\n    /* \"#utility.yul\":6392:6469   */\n  iszero\n  tag_144\n  jumpi\n    /* \"#utility.yul\":6444:6453   */\n  dup3\n    /* \"#utility.yul\":6439:6442   */\n  dup8\n    /* \"#utility.yul\":6435:6454   */\n  add\n    /* \"#utility.yul\":6429:6455   */\n  mload\n    /* \"#utility.yul\":6420:6455   */\n  swap1\n  pop\n    /* \"#utility.yul\":6392:6469   */\ntag_144:\n    /* \"#utility.yul\":6495:6562   */\n  tag_145\n    /* \"#utility.yul\":6555:6561   */\n  dup6\n    /* \"#utility.yul\":6548:6553   */\n  dup3\n    /* \"#utility.yul\":6495:6562   */\n  tag_65\n  jump\t// in\ntag_145:\n    /* \"#utility.yul\":6489:6493   */\n  dup7\n    /* \"#utility.yul\":6482:6563   */\n  sstore\n    /* \"#utility.yul\":6351:6573   */\n  pop\n    /* \"#utility.yul\":5686:6573   */\n  jump(tag_142)\n    /* \"#utility.yul\":5716:6334   */\ntag_143:\n    /* \"#utility.yul\":5768:5772   */\n  0x1f\n    /* \"#utility.yul\":5764:5773   */\n  not\n    /* \"#utility.yul\":5756:5762   */\n  dup5\n    /* \"#utility.yul\":5752:5774   */\n  and\n    /* \"#utility.yul\":5802:5839   */\n  tag_146\n    /* \"#utility.yul\":5834:5838   */\n  dup7\n    /* \"#utility.yul\":5802:5839   */\n  tag_50\n  jump\t// in\ntag_146:\n    /* \"#utility.yul\":5861:5862   */\n  0x00\n    /* \"#utility.yul\":5875:6083   */\ntag_147:\n    /* \"#utility.yul\":5889:5896   */\n  dup3\n    /* \"#utility.yul\":5886:5887   */\n  dup2\n    /* \"#utility.yul\":5883:5897   */\n  lt\n    /* \"#utility.yul\":5875:6083   */\n  iszero\n  tag_149\n  jumpi\n    /* \"#utility.yul\":5968:5977   */\n  dup5\n    /* \"#utility.yul\":5963:5966   */\n  dup10\n    /* \"#utility.yul\":5959:5978   */\n  add\n    /* \"#utility.yul\":5953:5979   */\n  mload\n    /* \"#utility.yul\":5945:5951   */\n  dup3\n    /* \"#utility.yul\":5938:5980   */\n  sstore\n    /* \"#utility.yul\":6019:6020   */\n  0x01\n    /* \"#utility.yul\":6011:6017   */\n  dup3\n    /* \"#utility.yul\":6007:6021   */\n  add\n    /* \"#utility.yul\":5997:6021   */\n  swap2\n  pop\n    /* \"#utility.yul\":6066:6068   */\n  0x20\n    /* \"#utility.yul\":6055:6064   */\n  dup6\n    /* \"#utility.yul\":6051:6069   */\n  add\n    /* \"#utility.yul\":6038:6069   */\n  swap5\n  pop\n    /* \"#utility.yul\":5912:5916   */\n  0x20\n    /* \"#utility.yul\":5909:5910   */\n  dup2\n    /* \"#utility.yul\":5905:5917   */\n  add\n    /* \"#utility.yul\":5900:5917   */\n  swap1\n  pop\n    /* \"#utility.yul\":5875:6083   */\n  jump(tag_147)\ntag_149:\n    /* \"#utility.yul\":6111:6117   */\n  dup7\n    /* \"#utility.yul\":6102:6109   */\n  dup4\n    /* \"#utility.yul\":6099:6118   */\n  lt\n    /* \"#utility.yul\":6096:6275   */\n  iszero\n  tag_150\n  jumpi\n    /* \"#utility.yul\":6169:6178   */\n  dup5\n    /* \"#utility.yul\":6164:6167   */\n  dup10\n    /* \"#utility.yul\":6160:6179   */\n  add\n    /* \"#utility.yul\":6154:6180   */\n  mload\n    /* \"#utility.yul\":6212:6260   */\n  tag_151\n    /* \"#utility.yul\":6254:6258   */\n  0x1f\n    /* \"#utility.yul\":6246:6252   */\n  dup10\n    /* \"#utility.yul\":6242:6259   */\n  and\n    /* \"#utility.yul\":6231:6240   */\n  dup3\n    /* \"#utility.yul\":6212:6260   */\n  tag_64\n  jump\t// in\ntag_151:\n    /* \"#utility.yul\":6204:6210   */\n  dup4\n    /* \"#utility.yul\":6197:6261   */\n  sstore\n    /* \"#utility.yul\":6119:6275   */\n  pop\n    /* \"#utility.yul\":6096:6275   */\ntag_150:\n    /* \"#utility.yul\":6321:6322   */\n  0x01\n    /* \"#utility.yul\":6317:6318   */\n  0x02\n    /* \"#utility.yul\":6309:6315   */\n  dup9\n    /* \"#utility.yul\":6305:6319   */\n  mul\n    /* \"#utility.yul\":6301:6323   */\n  add\n    /* \"#utility.yul\":6295:6299   */\n  dup9\n    /* \"#utility.yul\":6288:6324   */\n  sstore\n    /* \"#utility.yul\":5723:6334   */\n  pop\n  pop\n  pop\n    /* \"#utility.yul\":5686:6573   */\ntag_142:\n  pop\n    /* \"#utility.yul\":5276:6579   */\n  pop\n  pop\n  pop\n    /* \"#utility.yul\":5184:6579   */\n  pop\n  pop\n  jump\t// out\n    /* \"#utility.yul\":6585:6754   */\ntag_66:\n    /* \"#utility.yul\":6669:6680   */\n  0x00\n    /* \"#utility.yul\":6703:6709   */\n  dup3\n    /* \"#utility.yul\":6698:6701   */\n  dup3\n    /* \"#utility.yul\":6691:6710   */\n  mstore\n    /* \"#utility.yul\":6743:6747   */\n  0x20\n    /* \"#utility.yul\":6738:6741   */\n  dup3\n    /* \"#utility.yul\":6734:6748   */\n  add\n    /* \"#utility.yul\":6719:6748   */\n  swap1\n  pop\n    /* \"#utility.yul\":6585:6754   */\n  swap3\n  swap2\n  pop\n  pop\n  jump\t// out\n    /* \"#utility.yul\":6760:6929   */\ntag_67:\n    /* \"#utility.yul\":6900:6921   */\n  0x496e76616c6964546f6b656e4164647265737300000000000000000000000000\n    /* \"#utility.yul\":6896:6897   */\n  0x00\n    /* \"#utility.yul\":6888:6894   */\n  dup3\n    /* \"#utility.yul\":6884:6898   */\n  add\n    /* \"#utility.yul\":6877:6922   */\n  mstore\n    /* \"#utility.yul\":6760:6929   */\n  pop\n  jump\t// out\n    /* \"#utility.yul\":6935:7301   */\ntag_68:\n    /* \"#utility.yul\":7077:7080   */\n  0x00\n    /* \"#utility.yul\":7098:7165   */\n  tag_155\n    /* \"#utility.yul\":7162:7164   */\n  0x13\n    /* \"#utility.yul\":7157:7160   */\n  dup4\n    /* \"#utility.yul\":7098:7165   */\n  tag_66\n  jump\t// in\ntag_155:\n    /* \"#utility.yul\":7091:7165   */\n  swap2\n  pop\n    /* \"#utility.yul\":7174:7267   */\n  tag_156\n    /* \"#utility.yul\":7263:7266   */\n  dup3\n    /* \"#utility.yul\":7174:7267   */\n  tag_67\n  jump\t// in\ntag_156:\n    /* \"#utility.yul\":7292:7294   */\n  0x20\n    /* \"#utility.yul\":7287:7290   */\n  dup3\n    /* \"#utility.yul\":7283:7295   */\n  add\n    /* \"#utility.yul\":7276:7295   */\n  swap1\n  pop\n    /* \"#utility.yul\":6935:7301   */\n  swap2\n  swap1\n  pop\n  jump\t// out\n    /* \"#utility.yul\":7307:7726   */\ntag_14:\n    /* \"#utility.yul\":7473:7477   */\n  0x00\n    /* \"#utility.yul\":7511:7513   */\n  0x20\n    /* \"#utility.yul\":7500:7509   */\n  dup3\n    /* \"#utility.yul\":7496:7514   */\n  add\n    /* \"#utility.yul\":7488:7514   */\n  swap1\n  pop\n    /* \"#utility.yul\":7560:7569   */\n  dup2\n    /* \"#utility.yul\":7554:7558   */\n  dup2\n    /* \"#utility.yul\":7550:7570   */\n  sub\n    /* \"#utility.yul\":7546:7547   */\n  0x00\n    /* \"#utility.yul\":7535:7544   */\n  dup4\n    /* \"#utility.yul\":7531:7548   */\n  add\n    /* \"#utility.yul\":7524:7571   */\n  mstore\n    /* \"#utility.yul\":7588:7719   */\n  tag_158\n    /* \"#utility.yul\":7714:7718   */\n  dup2\n    /* \"#utility.yul\":7588:7719   */\n  tag_68\n  jump\t// in\ntag_158:\n    /* \"#utility.yul\":7580:7719   */\n  swap1\n  pop\n    /* \"#utility.yul\":7307:7726   */\n  swap2\n  swap1\n  pop\n  jump\t// out\n    /* \"#utility.yul\":7732:7897   */\ntag_69:\n    /* \"#utility.yul\":7872:7889   */\n  0x4964656e746963616c546f6b656e730000000000000000000000000000000000\n    /* \"#utility.yul\":7868:7869   */\n  0x00\n    /* \"#utility.yul\":7860:7866   */\n  dup3\n    /* \"#utility.yul\":7856:7870   */\n  add\n    /* \"#utility.yul\":7849:7890   */\n  mstore\n    /* \"#utility.yul\":7732:7897   */\n  pop\n  jump\t// out\n    /* \"#utility.yul\":7903:8269   */\ntag_70:\n    /* \"#utility.yul\":8045:8048   */\n  0x00\n    /* \"#utility.yul\":8066:8133   */\n  tag_161\n    /* \"#utility.yul\":8130:8132   */\n  0x0f\n    /* \"#utility.yul\":8125:8128   */\n  dup4\n    /* \"#utility.yul\":8066:8133   */\n  tag_66\n  jump\t// in\ntag_161:\n    /* \"#utility.yul\":8059:8133   */\n  swap2\n  pop\n    /* \"#utility.yul\":8142:8235   */\n  tag_162\n    /* \"#utility.yul\":8231:8234   */\n  dup3\n    /* \"#utility.yul\":8142:8235   */\n  tag_69\n  jump\t// in\ntag_162:\n    /* \"#utility.yul\":8260:8262   */\n  0x20\n    /* \"#utility.yul\":8255:8258   */\n  dup3\n    /* \"#utility.yul\":8251:8263   */\n  add\n    /* \"#utility.yul\":8244:8263   */\n  swap1\n  pop\n    /* \"#utility.yul\":7903:8269   */\n  swap2\n  swap1\n  pop\n  jump\t// out\n    /* \"#utility.yul\":8275:8694   */\ntag_17:\n    /* \"#utility.yul\":8441:8445   */\n  0x00\n    /* \"#utility.yul\":8479:8481   */\n  0x20\n    /* \"#utility.yul\":8468:8477   */\n  dup3\n    /* \"#utility.yul\":8464:8482   */\n  add\n    /* \"#utility.yul\":8456:8482   */\n  swap1\n  pop\n    /* \"#utility.yul\":8528:8537   */\n  dup2\n    /* \"#utility.yul\":8522:8526   */\n  dup2\n    /* \"#utility.yul\":8518:8538   */\n  sub\n    /* \"#utility.yul\":8514:8515   */\n  0x00\n    /* \"#utility.yul\":8503:8512   */\n  dup4\n    /* \"#utility.yul\":8499:8516   */\n  add\n    /* \"#utility.yul\":8492:8539   */\n  mstore\n    /* \"#utility.yul\":8556:8687   */\n  tag_164\n    /* \"#utility.yul\":8682:8686   */\n  dup2\n    /* \"#utility.yul\":8556:8687   */\n  tag_70\n  jump\t// in\ntag_164:\n    /* \"#utility.yul\":8548:8687   */\n  swap1\n  pop\n    /* \"#utility.yul\":8275:8694   */\n  swap2\n  swap1\n  pop\n  jump\t// out\n    /* \"#utility.yul\":8700:8818   */\ntag_71:\n    /* \"#utility.yul\":8787:8811   */\n  tag_166\n    /* \"#utility.yul\":8805:8810   */\n  dup2\n    /* \"#utility.yul\":8787:8811   */\n  tag_43\n  jump\t// in\ntag_166:\n    /* \"#utility.yul\":8782:8785   */\n  dup3\n    /* \"#utility.yul\":8775:8812   */\n  mstore\n    /* \"#utility.yul\":8700:8818   */\n  pop\n  pop\n  jump\t// out\n    /* \"#utility.yul\":8824:9046   */\ntag_24:\n    /* \"#utility.yul\":8917:8921   */\n  0x00\n    /* \"#utility.yul\":8955:8957   */\n  0x20\n    /* \"#utility.yul\":8944:8953   */\n  dup3\n    /* \"#utility.yul\":8940:8958   */\n  add\n    /* \"#utility.yul\":8932:8958   */\n  swap1\n  pop\n    /* \"#utility.yul\":8968:9039   */\n  tag_168\n    /* \"#utility.yul\":9036:9037   */\n  0x00\n    /* \"#utility.yul\":9025:9034   */\n  dup4\n    /* \"#utility.yul\":9021:9038   */\n  add\n    /* \"#utility.yul\":9012:9018   */\n  dup5\n    /* \"#utility.yul\":8968:9039   */\n  tag_71\n  jump\t// in\ntag_168:\n    /* \"#utility.yul\":8824:9046   */\n  swap3\n  swap2\n  pop\n  pop\n  jump\t// out\n    /* \"#utility.yul\":9052:9232   */\ntag_72:\n    /* \"#utility.yul\":9100:9177   */\n  0x4e487b7100000000000000000000000000000000000000000000000000000000\n    /* \"#utility.yul\":9097:9098   */\n  0x00\n    /* \"#utility.yul\":9090:9178   */\n  mstore\n    /* \"#utility.yul\":9197:9201   */\n  0x11\n    /* \"#utility.yul\":9194:9195   */\n  0x04\n    /* \"#utility.yul\":9187:9202   */\n  mstore\n    /* \"#utility.yul\":9221:9225   */\n  0x24\n    /* \"#utility.yul\":9218:9219   */\n  0x00\n    /* \"#utility.yul\":9211:9226   */\n  revert\n    /* \"#utility.yul\":9238:9429   */\ntag_30:\n    /* \"#utility.yul\":9278:9281   */\n  0x00\n    /* \"#utility.yul\":9297:9317   */\n  tag_171\n    /* \"#utility.yul\":9315:9316   */\n  dup3\n    /* \"#utility.yul\":9297:9317   */\n  tag_54\n  jump\t// in\ntag_171:\n    /* \"#utility.yul\":9292:9317   */\n  swap2\n  pop\n    /* \"#utility.yul\":9331:9351   */\n  tag_172\n    /* \"#utility.yul\":9349:9350   */\n  dup4\n    /* \"#utility.yul\":9331:9351   */\n  tag_54\n  jump\t// in\ntag_172:\n    /* \"#utility.yul\":9326:9351   */\n  swap3\n  pop\n    /* \"#utility.yul\":9374:9375   */\n  dup3\n    /* \"#utility.yul\":9371:9372   */\n  dup3\n    /* \"#utility.yul\":9367:9376   */\n  add\n    /* \"#utility.yul\":9360:9376   */\n  swap1\n  pop\n    /* \"#utility.yul\":9395:9398   */\n  dup1\n    /* \"#utility.yul\":9392:9393   */\n  dup3\n    /* \"#utility.yul\":9389:9399   */\n  gt\n    /* \"#utility.yul\":9386:9422   */\n  iszero\n  tag_173\n  jumpi\n    /* \"#utility.yul\":9402:9420   */\n  tag_174\n  tag_72\n  jump\t// in\ntag_174:\n    /* \"#utility.yul\":9386:9422   */\ntag_173:\n    /* \"#utility.yul\":9238:9429   */\n  swap3\n  swap2\n  pop\n  pop\n  jump\t// out\n    /* \"#utility.yul\":9435:9553   */\ntag_73:\n    /* \"#utility.yul\":9522:9546   */\n  tag_176\n    /* \"#utility.yul\":9540:9545   */\n  dup2\n    /* \"#utility.yul\":9522:9546   */\n  tag_54\n  jump\t// in\ntag_176:\n    /* \"#utility.yul\":9517:9520   */\n  dup3\n    /* \"#utility.yul\":9510:9547   */\n  mstore\n    /* \"#utility.yul\":9435:9553   */\n  pop\n  pop\n  jump\t// out\n    /* \"#utility.yul\":9559:10001   */\ntag_34:\n    /* \"#utility.yul\":9708:9712   */\n  0x00\n    /* \"#utility.yul\":9746:9748   */\n  0x60\n    /* \"#utility.yul\":9735:9744   */\n  dup3\n    /* \"#utility.yul\":9731:9749   */\n  add\n    /* \"#utility.yul\":9723:9749   */\n  swap1\n  pop\n    /* \"#utility.yul\":9759:9830   */\n  tag_178\n    /* \"#utility.yul\":9827:9828   */\n  0x00\n    /* \"#utility.yul\":9816:9825   */\n  dup4\n    /* \"#utility.yul\":9812:9829   */\n  add\n    /* \"#utility.yul\":9803:9809   */\n  dup7\n    /* \"#utility.yul\":9759:9830   */\n  tag_71\n  jump\t// in\ntag_178:\n    /* \"#utility.yul\":9840:9912   */\n  tag_179\n    /* \"#utility.yul\":9908:9910   */\n  0x20\n    /* \"#utility.yul\":9897:9906   */\n  dup4\n    /* \"#utility.yul\":9893:9911   */\n  add\n    /* \"#utility.yul\":9884:9890   */\n  dup6\n    /* \"#utility.yul\":9840:9912   */\n  tag_73\n  jump\t// in\ntag_179:\n    /* \"#utility.yul\":9922:9994   */\n  tag_180\n    /* \"#utility.yul\":9990:9992   */\n  0x40\n    /* \"#utility.yul\":9979:9988   */\n  dup4\n    /* \"#utility.yul\":9975:9993   */\n  add\n    /* \"#utility.yul\":9966:9972   */\n  dup5\n    /* \"#utility.yul\":9922:9994   */\n  tag_73\n  jump\t// in\ntag_180:\n    /* \"#utility.yul\":9559:10001   */\n  swap5\n  swap4\n  pop\n  pop\n  pop\n  pop\n  jump\t// out\n    /* \"#utility.yul\":10007:10229   */\ntag_38:\n    /* \"#utility.yul\":10100:10104   */\n  0x00\n    /* \"#utility.yul\":10138:10140   */\n  0x20\n    /* \"#utility.yul\":10127:10136   */\n  dup3\n    /* \"#utility.yul\":10123:10141   */\n  add\n    /* \"#utility.yul\":10115:10141   */\n  swap1\n  pop\n    /* \"#utility.yul\":10151:10222   */\n  tag_182\n    /* \"#utility.yul\":10219:10220   */\n  0x00\n    /* \"#utility.yul\":10208:10217   */\n  dup4\n    /* \"#utility.yul\":10204:10221   */\n  add\n    /* \"#utility.yul\":10195:10201   */\n  dup5\n    /* \"#utility.yul\":10151:10222   */\n  tag_73\n  jump\t// in\ntag_182:\n    /* \"#utility.yul\":10007:10229   */\n  swap3\n  swap2\n  pop\n  pop\n  jump\t// out\n    /* \"SimpleSwap.sol\":410:15533  contract SimpleSwap is ERC20 {... */\ntag_20:\n  mload(0x80)\n  mload(0xa0)\n  codecopy(0x00, dataOffset(sub_0), dataSize(sub_0))\n  0x00\n  assignImmutable(\"0xbb3f2e621eeffbebbfb22debd922d40ff430acea77036fb1a161fb2091c11198\")\n  0x00\n  assignImmutable(\"0x3ad1041c7fca4b981ec9df1cdec68238bc49ef0c518c8c6bf20002aeca8bde61\")\n  return(0x00, dataSize(sub_0))\nstop\n\nsub_0: assembly {\n        /* \"SimpleSwap.sol\":410:15533  contract SimpleSwap is ERC20 {... */\n      mstore(0x40, 0x80)\n      callvalue\n      dup1\n      iszero\n      tag_1\n      jumpi\n      revert(0x00, 0x00)\n    tag_1:\n      pop\n      jumpi(tag_2, lt(calldatasize, 0x04))\n      shr(0xe0, calldataload(0x00))\n      dup1\n      0x38ed1739\n      gt\n      tag_21\n      jumpi\n      dup1\n      0xac41865a\n      gt\n      tag_22\n      jumpi\n      dup1\n      0xac41865a\n      eq\n      tag_16\n      jumpi\n      dup1\n      0xbaa2abde\n      eq\n      tag_17\n      jumpi\n      dup1\n      0xd3c7c2c7\n      eq\n      tag_18\n      jumpi\n      dup1\n      0xdd62ed3e\n      eq\n      tag_19\n      jumpi\n      dup1\n      0xe8e33700\n      eq\n      tag_20\n      jumpi\n      jump(tag_2)\n    tag_22:\n      dup1\n      0x38ed1739\n      eq\n      tag_12\n      jumpi\n      dup1\n      0x70a08231\n      eq\n      tag_13\n      jumpi\n      dup1\n      0x95d89b41\n      eq\n      tag_14\n      jumpi\n      dup1\n      0xa9059cbb\n      eq\n      tag_15\n      jumpi\n      jump(tag_2)\n    tag_21:\n      dup1\n      0x18160ddd\n      gt\n      tag_23\n      jumpi\n      dup1\n      0x18160ddd\n      eq\n      tag_7\n      jumpi\n      dup1\n      0x1e23d8e0\n      eq\n      tag_8\n      jumpi\n      dup1\n      0x23b872dd\n      eq\n      tag_9\n      jumpi\n      dup1\n      0x301c2a5f\n      eq\n      tag_10\n      jumpi\n      dup1\n      0x313ce567\n      eq\n      tag_11\n      jumpi\n      jump(tag_2)\n    tag_23:\n      dup1\n      0x054d50d4\n      eq\n      tag_3\n      jumpi\n      dup1\n      0x06fdde03\n      eq\n      tag_4\n      jumpi\n      dup1\n      0x0902f1ac\n      eq\n      tag_5\n      jumpi\n      dup1\n      0x095ea7b3\n      eq\n      tag_6\n      jumpi\n    tag_2:\n      revert(0x00, 0x00)\n        /* \"SimpleSwap.sol\":12900:13211  function getAmountOut(uint256 inputAmount, uint256 inputReserve, uint256 outputReserve) ... */\n    tag_3:\n      tag_24\n      0x04\n      dup1\n      calldatasize\n      sub\n      dup2\n      add\n      swap1\n      tag_25\n      swap2\n      swap1\n      tag_26\n      jump\t// in\n    tag_25:\n      tag_27\n      jump\t// in\n    tag_24:\n      mload(0x40)\n      tag_28\n      swap2\n      swap1\n      tag_29\n      jump\t// in\n    tag_28:\n      mload(0x40)\n      dup1\n      swap2\n      sub\n      swap1\n      return\n        /* \"@openzeppelin/contracts/token/ERC20/ERC20.sol\":1760:1849  function name() public view virtual returns (string memory) {... */\n    tag_4:\n      tag_30\n      tag_31\n      jump\t// in\n    tag_30:\n      mload(0x40)\n      tag_32\n      swap2\n      swap1\n      tag_33\n      jump\t// in\n    tag_32:\n      mload(0x40)\n      dup1\n      swap2\n      sub\n      swap1\n      return\n        /* \"SimpleSwap.sol\":14959:15183  function getReserves() external view returns (uint256 ekaReserve, uint256 ekbReserve) {... */\n    tag_5:\n      tag_34\n      tag_35\n      jump\t// in\n    tag_34:\n      mload(0x40)\n      tag_36\n      swap3\n      swap2\n      swap1\n      tag_37\n      jump\t// in\n    tag_36:\n      mload(0x40)\n      dup1\n      swap2\n      sub\n      swap1\n      return\n        /* \"@openzeppelin/contracts/token/ERC20/ERC20.sol\":3979:4165  function approve(address spender, uint256 value) public virtual returns (bool) {... */\n    tag_6:\n      tag_38\n      0x04\n      dup1\n      calldatasize\n      sub\n      dup2\n      add\n      swap1\n      tag_39\n      swap2\n      swap1\n      tag_40\n      jump\t// in\n    tag_39:\n      tag_41\n      jump\t// in\n    tag_38:\n      mload(0x40)\n      tag_42\n      swap2\n      swap1\n      tag_43\n      jump\t// in\n    tag_42:\n      mload(0x40)\n      dup1\n      swap2\n      sub\n      swap1\n      return\n        /* \"@openzeppelin/contracts/token/ERC20/ERC20.sol\":2830:2927  function totalSupply() public view virtual returns (uint256) {... */\n    tag_7:\n      tag_44\n      tag_45\n      jump\t// in\n    tag_44:\n      mload(0x40)\n      tag_46\n      swap2\n      swap1\n      tag_29\n      jump\t// in\n    tag_46:\n      mload(0x40)\n      dup1\n      swap2\n      sub\n      swap1\n      return\n        /* \"SimpleSwap.sol\":1342:1375  address public immutable ekbToken */\n    tag_8:\n      tag_47\n      tag_48\n      jump\t// in\n    tag_47:\n      mload(0x40)\n      tag_49\n      swap2\n      swap1\n      tag_50\n      jump\t// in\n    tag_49:\n      mload(0x40)\n      dup1\n      swap2\n      sub\n      swap1\n      return\n        /* \"@openzeppelin/contracts/token/ERC20/ERC20.sol\":4757:5001  function transferFrom(address from, address to, uint256 value) public virtual returns (bool) {... */\n    tag_9:\n      tag_51\n      0x04\n      dup1\n      calldatasize\n      sub\n      dup2\n      add\n      swap1\n      tag_52\n      swap2\n      swap1\n      tag_53\n      jump\t// in\n    tag_52:\n      tag_54\n      jump\t// in\n    tag_51:\n      mload(0x40)\n      tag_55\n      swap2\n      swap1\n      tag_43\n      jump\t// in\n    tag_55:\n      mload(0x40)\n      dup1\n      swap2\n      sub\n      swap1\n      return\n        /* \"SimpleSwap.sol\":1244:1277  address public immutable ekaToken */\n    tag_10:\n      tag_56\n      tag_57\n      jump\t// in\n    tag_56:\n      mload(0x40)\n      tag_58\n      swap2\n      swap1\n      tag_50\n      jump\t// in\n    tag_58:\n      mload(0x40)\n      dup1\n      swap2\n      sub\n      swap1\n      return\n        /* \"@openzeppelin/contracts/token/ERC20/ERC20.sol\":2688:2770  function decimals() public view virtual returns (uint8) {... */\n    tag_11:\n      tag_59\n      tag_60\n      jump\t// in\n    tag_59:\n      mload(0x40)\n      tag_61\n      swap2\n      swap1\n      tag_62\n      jump\t// in\n    tag_61:\n      mload(0x40)\n      dup1\n      swap2\n      sub\n      swap1\n      return\n        /* \"SimpleSwap.sol\":10357:11860  function swapExactTokensForTokens(... */\n    tag_12:\n      tag_63\n      0x04\n      dup1\n      calldatasize\n      sub\n      dup2\n      add\n      swap1\n      tag_64\n      swap2\n      swap1\n      tag_65\n      jump\t// in\n    tag_64:\n      tag_66\n      jump\t// in\n    tag_63:\n      mload(0x40)\n      tag_67\n      swap2\n      swap1\n      tag_68\n      jump\t// in\n    tag_67:\n      mload(0x40)\n      dup1\n      swap2\n      sub\n      swap1\n      return\n        /* \"@openzeppelin/contracts/token/ERC20/ERC20.sol\":2985:3101  function balanceOf(address account) public view virtual returns (uint256) {... */\n    tag_13:\n      tag_69\n      0x04\n      dup1\n      calldatasize\n      sub\n      dup2\n      add\n      swap1\n      tag_70\n      swap2\n      swap1\n      tag_71\n      jump\t// in\n    tag_70:\n      tag_72\n      jump\t// in\n    tag_69:\n      mload(0x40)\n      tag_73\n      swap2\n      swap1\n      tag_29\n      jump\t// in\n    tag_73:\n      mload(0x40)\n      dup1\n      swap2\n      sub\n      swap1\n      return\n        /* \"@openzeppelin/contracts/token/ERC20/ERC20.sol\":1962:2055  function symbol() public view virtual returns (string memory) {... */\n    tag_14:\n      tag_74\n      tag_75\n      jump\t// in\n    tag_74:\n      mload(0x40)\n      tag_76\n      swap2\n      swap1\n      tag_33\n      jump\t// in\n    tag_76:\n      mload(0x40)\n      dup1\n      swap2\n      sub\n      swap1\n      return\n        /* \"@openzeppelin/contracts/token/ERC20/ERC20.sol\":3296:3474  function transfer(address to, uint256 value) public virtual returns (bool) {... */\n    tag_15:\n      tag_77\n      0x04\n      dup1\n      calldatasize\n      sub\n      dup2\n      add\n      swap1\n      tag_78\n      swap2\n      swap1\n      tag_40\n      jump\t// in\n    tag_78:\n      tag_79\n      jump\t// in\n    tag_77:\n      mload(0x40)\n      tag_80\n      swap2\n      swap1\n      tag_43\n      jump\t// in\n    tag_80:\n      mload(0x40)\n      dup1\n      swap2\n      sub\n      swap1\n      return\n        /* \"SimpleSwap.sol\":12106:12567  function getPrice(address tokenA, address tokenB) external view returns (uint256 currentPrice) {... */\n    tag_16:\n      tag_81\n      0x04\n      dup1\n      calldatasize\n      sub\n      dup2\n      add\n      swap1\n      tag_82\n      swap2\n      swap1\n      tag_83\n      jump\t// in\n    tag_82:\n      tag_84\n      jump\t// in\n    tag_81:\n      mload(0x40)\n      tag_85\n      swap2\n      swap1\n      tag_29\n      jump\t// in\n    tag_85:\n      mload(0x40)\n      dup1\n      swap2\n      sub\n      swap1\n      return\n        /* \"SimpleSwap.sol\":8086:9844  function removeLiquidity(... */\n    tag_17:\n      tag_86\n      0x04\n      dup1\n      calldatasize\n      sub\n      dup2\n      add\n      swap1\n      tag_87\n      swap2\n      swap1\n      tag_88\n      jump\t// in\n    tag_87:\n      tag_89\n      jump\t// in\n    tag_86:\n      mload(0x40)\n      tag_90\n      swap3\n      swap2\n      swap1\n      tag_37\n      jump\t// in\n    tag_90:\n      mload(0x40)\n      dup1\n      swap2\n      sub\n      swap1\n      return\n        /* \"SimpleSwap.sol\":15381:15530  function getSupportedTokens() external view returns (address tokenA, address tokenB) {... */\n    tag_18:\n      tag_91\n      tag_92\n      jump\t// in\n    tag_91:\n      mload(0x40)\n      tag_93\n      swap3\n      swap2\n      swap1\n      tag_94\n      jump\t// in\n    tag_93:\n      mload(0x40)\n      dup1\n      swap2\n      sub\n      swap1\n      return\n        /* \"@openzeppelin/contracts/token/ERC20/ERC20.sol\":3532:3672  function allowance(address owner, address spender) public view virtual returns (uint256) {... */\n    tag_19:\n      tag_95\n      0x04\n      dup1\n      calldatasize\n      sub\n      dup2\n      add\n      swap1\n      tag_96\n      swap2\n      swap1\n      tag_83\n      jump\t// in\n    tag_96:\n      tag_97\n      jump\t// in\n    tag_95:\n      mload(0x40)\n      tag_98\n      swap2\n      swap1\n      tag_29\n      jump\t// in\n    tag_98:\n      mload(0x40)\n      dup1\n      swap2\n      sub\n      swap1\n      return\n        /* \"SimpleSwap.sol\":3903:5209  function addLiquidity(... */\n    tag_20:\n      tag_99\n      0x04\n      dup1\n      calldatasize\n      sub\n      dup2\n      add\n      swap1\n      tag_100\n      swap2\n      swap1\n      tag_101\n      jump\t// in\n    tag_100:\n      tag_102\n      jump\t// in\n    tag_99:\n      mload(0x40)\n      tag_103\n      swap4\n      swap3\n      swap2\n      swap1\n      tag_104\n      jump\t// in\n    tag_103:\n      mload(0x40)\n      dup1\n      swap2\n      sub\n      swap1\n      return\n        /* \"SimpleSwap.sol\":12900:13211  function getAmountOut(uint256 inputAmount, uint256 inputReserve, uint256 outputReserve) ... */\n    tag_27:\n        /* \"SimpleSwap.sol\":13019:13041  uint256 expectedOutput */\n      0x00\n        /* \"SimpleSwap.sol\":13077:13078  0 */\n      0x00\n        /* \"SimpleSwap.sol\":13062:13074  inputReserve */\n      dup4\n        /* \"SimpleSwap.sol\":13062:13078  inputReserve > 0 */\n      gt\n        /* \"SimpleSwap.sol\":13062:13099  inputReserve > 0 && outputReserve > 0 */\n      dup1\n      iszero\n      tag_106\n      jumpi\n      pop\n        /* \"SimpleSwap.sol\":13098:13099  0 */\n      0x00\n        /* \"SimpleSwap.sol\":13082:13095  outputReserve */\n      dup3\n        /* \"SimpleSwap.sol\":13082:13099  outputReserve > 0 */\n      gt\n        /* \"SimpleSwap.sol\":13062:13099  inputReserve > 0 && outputReserve > 0 */\n    tag_106:\n        /* \"SimpleSwap.sol\":13054:13124  require(inputReserve > 0 && outputReserve > 0, \"InsufficientReserves\") */\n      tag_107\n      jumpi\n      mload(0x40)\n      0x08c379a000000000000000000000000000000000000000000000000000000000\n      dup2\n      mstore\n      0x04\n      add\n      tag_108\n      swap1\n      tag_109\n      jump\t// in\n    tag_108:\n      mload(0x40)\n      dup1\n      swap2\n      sub\n      swap1\n      revert\n    tag_107:\n        /* \"SimpleSwap.sol\":13191:13203  inputReserve */\n      dup3\n        /* \"SimpleSwap.sol\":13174:13187  outputReserve */\n      dup3\n        /* \"SimpleSwap.sol\":13160:13171  inputAmount */\n      dup6\n        /* \"SimpleSwap.sol\":13160:13187  inputAmount * outputReserve */\n      tag_110\n      swap2\n      swap1\n      tag_111\n      jump\t// in\n    tag_110:\n        /* \"SimpleSwap.sol\":13159:13203  (inputAmount * outputReserve) / inputReserve */\n      tag_112\n      swap2\n      swap1\n      tag_113\n      jump\t// in\n    tag_112:\n        /* \"SimpleSwap.sol\":13142:13203  expectedOutput = (inputAmount * outputReserve) / inputReserve */\n      swap1\n      pop\n        /* \"SimpleSwap.sol\":12900:13211  function getAmountOut(uint256 inputAmount, uint256 inputReserve, uint256 outputReserve) ... */\n      swap4\n      swap3\n      pop\n      pop\n      pop\n      jump\t// out\n        /* \"@openzeppelin/contracts/token/ERC20/ERC20.sol\":1760:1849  function name() public view virtual returns (string memory) {... */\n    tag_31:\n        /* \"@openzeppelin/contracts/token/ERC20/ERC20.sol\":1805:1818  string memory */\n      0x60\n        /* \"@openzeppelin/contracts/token/ERC20/ERC20.sol\":1837:1842  _name */\n      0x03\n        /* \"@openzeppelin/contracts/token/ERC20/ERC20.sol\":1830:1842  return _name */\n      dup1\n      sload\n      tag_115\n      swap1\n      tag_116\n      jump\t// in\n    tag_115:\n      dup1\n      0x1f\n      add\n      0x20\n      dup1\n      swap2\n      div\n      mul\n      0x20\n      add\n      mload(0x40)\n      swap1\n      dup2\n      add\n      0x40\n      mstore\n      dup1\n      swap3\n      swap2\n      swap1\n      dup2\n      dup2\n      mstore\n      0x20\n      add\n      dup3\n      dup1\n      sload\n      tag_117\n      swap1\n      tag_116\n      jump\t// in\n    tag_117:\n      dup1\n      iszero\n      tag_118\n      jumpi\n      dup1\n      0x1f\n      lt\n      tag_119\n      jumpi\n      0x0100\n      dup1\n      dup4\n      sload\n      div\n      mul\n      dup4\n      mstore\n      swap2\n      0x20\n      add\n      swap2\n      jump(tag_118)\n    tag_119:\n      dup3\n      add\n      swap2\n      swap1\n      0x00\n      mstore\n      keccak256(0x00, 0x20)\n      swap1\n    tag_120:\n      dup2\n      sload\n      dup2\n      mstore\n      swap1\n      0x01\n      add\n      swap1\n      0x20\n      add\n      dup1\n      dup4\n      gt\n      tag_120\n      jumpi\n      dup3\n      swap1\n      sub\n      0x1f\n      and\n      dup3\n      add\n      swap2\n    tag_118:\n      pop\n      pop\n      pop\n      pop\n      pop\n      swap1\n      pop\n        /* \"@openzeppelin/contracts/token/ERC20/ERC20.sol\":1760:1849  function name() public view virtual returns (string memory) {... */\n      swap1\n      jump\t// out\n        /* \"SimpleSwap.sol\":14959:15183  function getReserves() external view returns (uint256 ekaReserve, uint256 ekbReserve) {... */\n    tag_35:\n        /* \"SimpleSwap.sol\":15005:15023  uint256 ekaReserve */\n      0x00\n        /* \"SimpleSwap.sol\":15025:15043  uint256 ekbReserve */\n      0x00\n        /* \"SimpleSwap.sol\":15076:15084  ekaToken */\n      immutable(\"0x3ad1041c7fca4b981ec9df1cdec68238bc49ef0c518c8c6bf20002aeca8bde61\")\n        /* \"SimpleSwap.sol\":15069:15095  IERC20(ekaToken).balanceOf */\n      0xffffffffffffffffffffffffffffffffffffffff\n      and\n      0x70a08231\n        /* \"SimpleSwap.sol\":15104:15108  this */\n      address\n        /* \"SimpleSwap.sol\":15069:15110  IERC20(ekaToken).balanceOf(address(this)) */\n      mload(0x40)\n      dup3\n      0xffffffff\n      and\n      0xe0\n      shl\n      dup2\n      mstore\n      0x04\n      add\n      tag_122\n      swap2\n      swap1\n      tag_50\n      jump\t// in\n    tag_122:\n      0x20\n      mload(0x40)\n      dup1\n      dup4\n      sub\n      dup2\n      dup7\n      gas\n      staticcall\n      iszero\n      dup1\n      iszero\n      tag_124\n      jumpi\n      returndatacopy(0x00, 0x00, returndatasize)\n      revert(0x00, returndatasize)\n    tag_124:\n      pop\n      pop\n      pop\n      pop\n      mload(0x40)\n      returndatasize\n      not(0x1f)\n      0x1f\n      dup3\n      add\n      and\n      dup3\n      add\n      dup1\n      0x40\n      mstore\n      pop\n      dup2\n      add\n      swap1\n      tag_125\n      swap2\n      swap1\n      tag_126\n      jump\t// in\n    tag_125:\n        /* \"SimpleSwap.sol\":15056:15110  ekaReserve = IERC20(ekaToken).balanceOf(address(this)) */\n      swap2\n      pop\n        /* \"SimpleSwap.sol\":15141:15149  ekbToken */\n      immutable(\"0xbb3f2e621eeffbebbfb22debd922d40ff430acea77036fb1a161fb2091c11198\")\n        /* \"SimpleSwap.sol\":15134:15160  IERC20(ekbToken).balanceOf */\n      0xffffffffffffffffffffffffffffffffffffffff\n      and\n      0x70a08231\n        /* \"SimpleSwap.sol\":15169:15173  this */\n      address\n        /* \"SimpleSwap.sol\":15134:15175  IERC20(ekbToken).balanceOf(address(this)) */\n      mload(0x40)\n      dup3\n      0xffffffff\n      and\n      0xe0\n      shl\n      dup2\n      mstore\n      0x04\n      add\n      tag_127\n      swap2\n      swap1\n      tag_50\n      jump\t// in\n    tag_127:\n      0x20\n      mload(0x40)\n      dup1\n      dup4\n      sub\n      dup2\n      dup7\n      gas\n      staticcall\n      iszero\n      dup1\n      iszero\n      tag_129\n      jumpi\n      returndatacopy(0x00, 0x00, returndatasize)\n      revert(0x00, returndatasize)\n    tag_129:\n      pop\n      pop\n      pop\n      pop\n      mload(0x40)\n      returndatasize\n      not(0x1f)\n      0x1f\n      dup3\n      add\n      and\n      dup3\n      add\n      dup1\n      0x40\n      mstore\n      pop\n      dup2\n      add\n      swap1\n      tag_130\n      swap2\n      swap1\n      tag_126\n      jump\t// in\n    tag_130:\n        /* \"SimpleSwap.sol\":15121:15175  ekbReserve = IERC20(ekbToken).balanceOf(address(this)) */\n      swap1\n      pop\n        /* \"SimpleSwap.sol\":14959:15183  function getReserves() external view returns (uint256 ekaReserve, uint256 ekbReserve) {... */\n      swap1\n      swap2\n      jump\t// out\n        /* \"@openzeppelin/contracts/token/ERC20/ERC20.sol\":3979:4165  function approve(address spender, uint256 value) public virtual returns (bool) {... */\n    tag_41:\n        /* \"@openzeppelin/contracts/token/ERC20/ERC20.sol\":4052:4056  bool */\n      0x00\n        /* \"@openzeppelin/contracts/token/ERC20/ERC20.sol\":4068:4081  address owner */\n      0x00\n        /* \"@openzeppelin/contracts/token/ERC20/ERC20.sol\":4084:4096  _msgSender() */\n      tag_132\n        /* \"@openzeppelin/contracts/token/ERC20/ERC20.sol\":4084:4094  _msgSender */\n      tag_133\n        /* \"@openzeppelin/contracts/token/ERC20/ERC20.sol\":4084:4096  _msgSender() */\n      jump\t// in\n    tag_132:\n        /* \"@openzeppelin/contracts/token/ERC20/ERC20.sol\":4068:4096  address owner = _msgSender() */\n      swap1\n      pop\n        /* \"@openzeppelin/contracts/token/ERC20/ERC20.sol\":4106:4137  _approve(owner, spender, value) */\n      tag_134\n        /* \"@openzeppelin/contracts/token/ERC20/ERC20.sol\":4115:4120  owner */\n      dup2\n        /* \"@openzeppelin/contracts/token/ERC20/ERC20.sol\":4122:4129  spender */\n      dup6\n        /* \"@openzeppelin/contracts/token/ERC20/ERC20.sol\":4131:4136  value */\n      dup6\n        /* \"@openzeppelin/contracts/token/ERC20/ERC20.sol\":4106:4114  _approve */\n      tag_135\n        /* \"@openzeppelin/contracts/token/ERC20/ERC20.sol\":4106:4137  _approve(owner, spender, value) */\n      jump\t// in\n    tag_134:\n        /* \"@openzeppelin/contracts/token/ERC20/ERC20.sol\":4154:4158  true */\n      0x01\n        /* \"@openzeppelin/contracts/token/ERC20/ERC20.sol\":4147:4158  return true */\n      swap2\n      pop\n      pop\n        /* \"@openzeppelin/contracts/token/ERC20/ERC20.sol\":3979:4165  function approve(address spender, uint256 value) public virtual returns (bool) {... */\n      swap3\n      swap2\n      pop\n      pop\n      jump\t// out\n        /* \"@openzeppelin/contracts/token/ERC20/ERC20.sol\":2830:2927  function totalSupply() public view virtual returns (uint256) {... */\n    tag_45:\n        /* \"@openzeppelin/contracts/token/ERC20/ERC20.sol\":2882:2889  uint256 */\n      0x00\n        /* \"@openzeppelin/contracts/token/ERC20/ERC20.sol\":2908:2920  _totalSupply */\n      sload(0x02)\n        /* \"@openzeppelin/contracts/token/ERC20/ERC20.sol\":2901:2920  return _totalSupply */\n      swap1\n      pop\n        /* \"@openzeppelin/contracts/token/ERC20/ERC20.sol\":2830:2927  function totalSupply() public view virtual returns (uint256) {... */\n      swap1\n      jump\t// out\n        /* \"SimpleSwap.sol\":1342:1375  address public immutable ekbToken */\n    tag_48:\n      immutable(\"0xbb3f2e621eeffbebbfb22debd922d40ff430acea77036fb1a161fb2091c11198\")\n      dup2\n      jump\t// out\n        /* \"@openzeppelin/contracts/token/ERC20/ERC20.sol\":4757:5001  function transferFrom(address from, address to, uint256 value) public virtual returns (bool) {... */\n    tag_54:\n        /* \"@openzeppelin/contracts/token/ERC20/ERC20.sol\":4844:4848  bool */\n      0x00\n        /* \"@openzeppelin/contracts/token/ERC20/ERC20.sol\":4860:4875  address spender */\n      0x00\n        /* \"@openzeppelin/contracts/token/ERC20/ERC20.sol\":4878:4890  _msgSender() */\n      tag_138\n        /* \"@openzeppelin/contracts/token/ERC20/ERC20.sol\":4878:4888  _msgSender */\n      tag_133\n        /* \"@openzeppelin/contracts/token/ERC20/ERC20.sol\":4878:4890  _msgSender() */\n      jump\t// in\n    tag_138:\n        /* \"@openzeppelin/contracts/token/ERC20/ERC20.sol\":4860:4890  address spender = _msgSender() */\n      swap1\n      pop\n        /* \"@openzeppelin/contracts/token/ERC20/ERC20.sol\":4900:4937  _spendAllowance(from, spender, value) */\n      tag_139\n        /* \"@openzeppelin/contracts/token/ERC20/ERC20.sol\":4916:4920  from */\n      dup6\n        /* \"@openzeppelin/contracts/token/ERC20/ERC20.sol\":4922:4929  spender */\n      dup3\n        /* \"@openzeppelin/contracts/token/ERC20/ERC20.sol\":4931:4936  value */\n      dup6\n        /* \"@openzeppelin/contracts/token/ERC20/ERC20.sol\":4900:4915  _spendAllowance */\n      tag_140\n        /* \"@openzeppelin/contracts/token/ERC20/ERC20.sol\":4900:4937  _spendAllowance(from, spender, value) */\n      jump\t// in\n    tag_139:\n        /* \"@openzeppelin/contracts/token/ERC20/ERC20.sol\":4947:4973  _transfer(from, to, value) */\n      tag_141\n        /* \"@openzeppelin/contracts/token/ERC20/ERC20.sol\":4957:4961  from */\n      dup6\n        /* \"@openzeppelin/contracts/token/ERC20/ERC20.sol\":4963:4965  to */\n      dup6\n        /* \"@openzeppelin/contracts/token/ERC20/ERC20.sol\":4967:4972  value */\n      dup6\n        /* \"@openzeppelin/contracts/token/ERC20/ERC20.sol\":4947:4956  _transfer */\n      tag_142\n        /* \"@openzeppelin/contracts/token/ERC20/ERC20.sol\":4947:4973  _transfer(from, to, value) */\n      jump\t// in\n    tag_141:\n        /* \"@openzeppelin/contracts/token/ERC20/ERC20.sol\":4990:4994  true */\n      0x01\n        /* \"@openzeppelin/contracts/token/ERC20/ERC20.sol\":4983:4994  return true */\n      swap2\n      pop\n      pop\n        /* \"@openzeppelin/contracts/token/ERC20/ERC20.sol\":4757:5001  function transferFrom(address from, address to, uint256 value) public virtual returns (bool) {... */\n      swap4\n      swap3\n      pop\n      pop\n      pop\n      jump\t// out\n        /* \"SimpleSwap.sol\":1244:1277  address public immutable ekaToken */\n    tag_57:\n      immutable(\"0x3ad1041c7fca4b981ec9df1cdec68238bc49ef0c518c8c6bf20002aeca8bde61\")\n      dup2\n      jump\t// out\n        /* \"@openzeppelin/contracts/token/ERC20/ERC20.sol\":2688:2770  function decimals() public view virtual returns (uint8) {... */\n    tag_60:\n        /* \"@openzeppelin/contracts/token/ERC20/ERC20.sol\":2737:2742  uint8 */\n      0x00\n        /* \"@openzeppelin/contracts/token/ERC20/ERC20.sol\":2761:2763  18 */\n      0x12\n        /* \"@openzeppelin/contracts/token/ERC20/ERC20.sol\":2754:2763  return 18 */\n      swap1\n      pop\n        /* \"@openzeppelin/contracts/token/ERC20/ERC20.sol\":2688:2770  function decimals() public view virtual returns (uint8) {... */\n      swap1\n      jump\t// out\n        /* \"SimpleSwap.sol\":10357:11860  function swapExactTokensForTokens(... */\n    tag_66:\n        /* \"SimpleSwap.sol\":10611:10641  uint256[] memory outputAmounts */\n      0x60\n        /* \"SimpleSwap.sol\":10586:10600  expirationTime */\n      dup2\n        /* \"SimpleSwap.sol\":2897:2912  block.timestamp */\n      timestamp\n        /* \"SimpleSwap.sol\":2879:2893  expirationTime */\n      dup2\n        /* \"SimpleSwap.sol\":2879:2912  expirationTime >= block.timestamp */\n      lt\n      iszero\n        /* \"SimpleSwap.sol\":2871:2935  require(expirationTime >= block.timestamp, \"TransactionExpired\") */\n      tag_145\n      jumpi\n      mload(0x40)\n      0x08c379a000000000000000000000000000000000000000000000000000000000\n      dup2\n      mstore\n      0x04\n      add\n      tag_146\n      swap1\n      tag_147\n      jump\t// in\n    tag_146:\n      mload(0x40)\n      dup1\n      swap2\n      sub\n      swap1\n      revert\n    tag_145:\n        /* \"SimpleSwap.sol\":10694:10695  2 */\n      0x02\n        /* \"SimpleSwap.sol\":10672:10683  tradingPath */\n      dup7\n      dup7\n        /* \"SimpleSwap.sol\":10672:10690  tradingPath.length */\n      swap1\n      pop\n        /* \"SimpleSwap.sol\":10672:10695  tradingPath.length == 2 */\n      eq\n        /* \"SimpleSwap.sol\":10664:10718  require(tradingPath.length == 2, \"InvalidTradingPath\") */\n      tag_149\n      jumpi\n      mload(0x40)\n      0x08c379a000000000000000000000000000000000000000000000000000000000\n      dup2\n      mstore\n      0x04\n      add\n      tag_150\n      swap1\n      tag_151\n      jump\t// in\n    tag_150:\n      mload(0x40)\n      dup1\n      swap2\n      sub\n      swap1\n      revert\n    tag_149:\n        /* \"SimpleSwap.sol\":10758:10759  0 */\n      0x00\n        /* \"SimpleSwap.sol\":10737:10760  recipient != address(0) */\n      0xffffffffffffffffffffffffffffffffffffffff\n      and\n        /* \"SimpleSwap.sol\":10737:10746  recipient */\n      dup5\n        /* \"SimpleSwap.sol\":10737:10760  recipient != address(0) */\n      0xffffffffffffffffffffffffffffffffffffffff\n      and\n      sub\n        /* \"SimpleSwap.sol\":10729:10781  require(recipient != address(0), \"InvalidRecipient\") */\n      tag_152\n      jumpi\n      mload(0x40)\n      0x08c379a000000000000000000000000000000000000000000000000000000000\n      dup2\n      mstore\n      0x04\n      add\n      tag_153\n      swap1\n      tag_154\n      jump\t// in\n    tag_153:\n      mload(0x40)\n      dup1\n      swap2\n      sub\n      swap1\n      revert\n    tag_152:\n        /* \"SimpleSwap.sol\":10800:10849  _isValidTokenPair(tradingPath[0], tradingPath[1]) */\n      tag_155\n        /* \"SimpleSwap.sol\":10818:10829  tradingPath */\n      dup7\n      dup7\n        /* \"SimpleSwap.sol\":10830:10831  0 */\n      0x00\n        /* \"SimpleSwap.sol\":10818:10832  tradingPath[0] */\n      dup2\n      dup2\n      lt\n      tag_156\n      jumpi\n      tag_157\n      tag_158\n      jump\t// in\n    tag_157:\n    tag_156:\n      swap1\n      pop\n      0x20\n      mul\n      add\n      0x20\n      dup2\n      add\n      swap1\n      tag_159\n      swap2\n      swap1\n      tag_71\n      jump\t// in\n    tag_159:\n        /* \"SimpleSwap.sol\":10834:10845  tradingPath */\n      dup8\n      dup8\n        /* \"SimpleSwap.sol\":10846:10847  1 */\n      0x01\n        /* \"SimpleSwap.sol\":10834:10848  tradingPath[1] */\n      dup2\n      dup2\n      lt\n      tag_160\n      jumpi\n      tag_161\n      tag_158\n      jump\t// in\n    tag_161:\n    tag_160:\n      swap1\n      pop\n      0x20\n      mul\n      add\n      0x20\n      dup2\n      add\n      swap1\n      tag_162\n      swap2\n      swap1\n      tag_71\n      jump\t// in\n    tag_162:\n        /* \"SimpleSwap.sol\":10800:10817  _isValidTokenPair */\n      tag_163\n        /* \"SimpleSwap.sol\":10800:10849  _isValidTokenPair(tradingPath[0], tradingPath[1]) */\n      jump\t// in\n    tag_155:\n        /* \"SimpleSwap.sol\":10792:10874  require(_isValidTokenPair(tradingPath[0], tradingPath[1]), \"UnsupportedTokenPair\") */\n      tag_164\n      jumpi\n      mload(0x40)\n      0x08c379a000000000000000000000000000000000000000000000000000000000\n      dup2\n      mstore\n      0x04\n      add\n      tag_165\n      swap1\n      tag_166\n      jump\t// in\n    tag_165:\n      mload(0x40)\n      dup1\n      swap2\n      sub\n      swap1\n      revert\n    tag_164:\n        /* \"SimpleSwap.sol\":10948:10968  uint256 inputReserve */\n      0x00\n        /* \"SimpleSwap.sol\":10978:10989  tradingPath */\n      dup7\n      dup7\n        /* \"SimpleSwap.sol\":10990:10991  0 */\n      0x00\n        /* \"SimpleSwap.sol\":10978:10992  tradingPath[0] */\n      dup2\n      dup2\n      lt\n      tag_167\n      jumpi\n      tag_168\n      tag_158\n      jump\t// in\n    tag_168:\n    tag_167:\n      swap1\n      pop\n      0x20\n      mul\n      add\n      0x20\n      dup2\n      add\n      swap1\n      tag_169\n      swap2\n      swap1\n      tag_71\n      jump\t// in\n    tag_169:\n        /* \"SimpleSwap.sol\":10971:11003  IERC20(tradingPath[0]).balanceOf */\n      0xffffffffffffffffffffffffffffffffffffffff\n      and\n      0x70a08231\n        /* \"SimpleSwap.sol\":11012:11016  this */\n      address\n        /* \"SimpleSwap.sol\":10971:11018  IERC20(tradingPath[0]).balanceOf(address(this)) */\n      mload(0x40)\n      dup3\n      0xffffffff\n      and\n      0xe0\n      shl\n      dup2\n      mstore\n      0x04\n      add\n      tag_170\n      swap2\n      swap1\n      tag_50\n      jump\t// in\n    tag_170:\n      0x20\n      mload(0x40)\n      dup1\n      dup4\n      sub\n      dup2\n      dup7\n      gas\n      staticcall\n      iszero\n      dup1\n      iszero\n      tag_172\n      jumpi\n      returndatacopy(0x00, 0x00, returndatasize)\n      revert(0x00, returndatasize)\n    tag_172:\n      pop\n      pop\n      pop\n      pop\n      mload(0x40)\n      returndatasize\n      not(0x1f)\n      0x1f\n      dup3\n      add\n      and\n      dup3\n      add\n      dup1\n      0x40\n      mstore\n      pop\n      dup2\n      add\n      swap1\n      tag_173\n      swap2\n      swap1\n      tag_126\n      jump\t// in\n    tag_173:\n        /* \"SimpleSwap.sol\":10948:11018  uint256 inputReserve = IERC20(tradingPath[0]).balanceOf(address(this)) */\n      swap1\n      pop\n        /* \"SimpleSwap.sol\":11029:11050  uint256 outputReserve */\n      0x00\n        /* \"SimpleSwap.sol\":11060:11071  tradingPath */\n      dup8\n      dup8\n        /* \"SimpleSwap.sol\":11072:11073  1 */\n      0x01\n        /* \"SimpleSwap.sol\":11060:11074  tradingPath[1] */\n      dup2\n      dup2\n      lt\n      tag_174\n      jumpi\n      tag_175\n      tag_158\n      jump\t// in\n    tag_175:\n    tag_174:\n      swap1\n      pop\n      0x20\n      mul\n      add\n      0x20\n      dup2\n      add\n      swap1\n      tag_176\n      swap2\n      swap1\n      tag_71\n      jump\t// in\n    tag_176:\n        /* \"SimpleSwap.sol\":11053:11085  IERC20(tradingPath[1]).balanceOf */\n      0xffffffffffffffffffffffffffffffffffffffff\n      and\n      0x70a08231\n        /* \"SimpleSwap.sol\":11094:11098  this */\n      address\n        /* \"SimpleSwap.sol\":11053:11100  IERC20(tradingPath[1]).balanceOf(address(this)) */\n      mload(0x40)\n      dup3\n      0xffffffff\n      and\n      0xe0\n      shl\n      dup2\n      mstore\n      0x04\n      add\n      tag_177\n      swap2\n      swap1\n      tag_50\n      jump\t// in\n    tag_177:\n      0x20\n      mload(0x40)\n      dup1\n      dup4\n      sub\n      dup2\n      dup7\n      gas\n      staticcall\n      iszero\n      dup1\n      iszero\n      tag_179\n      jumpi\n      returndatacopy(0x00, 0x00, returndatasize)\n      revert(0x00, returndatasize)\n    tag_179:\n      pop\n      pop\n      pop\n      pop\n      mload(0x40)\n      returndatasize\n      not(0x1f)\n      0x1f\n      dup3\n      add\n      and\n      dup3\n      add\n      dup1\n      0x40\n      mstore\n      pop\n      dup2\n      add\n      swap1\n      tag_180\n      swap2\n      swap1\n      tag_126\n      jump\t// in\n    tag_180:\n        /* \"SimpleSwap.sol\":11029:11100  uint256 outputReserve = IERC20(tradingPath[1]).balanceOf(address(this)) */\n      swap1\n      pop\n        /* \"SimpleSwap.sol\":11176:11196  uint256 actualOutput */\n      0x00\n        /* \"SimpleSwap.sol\":11199:11261  _calculateSwapOutput(inputAmount, inputReserve, outputReserve) */\n      tag_181\n        /* \"SimpleSwap.sol\":11220:11231  inputAmount */\n      dup12\n        /* \"SimpleSwap.sol\":11233:11245  inputReserve */\n      dup5\n        /* \"SimpleSwap.sol\":11247:11260  outputReserve */\n      dup5\n        /* \"SimpleSwap.sol\":11199:11219  _calculateSwapOutput */\n      tag_182\n        /* \"SimpleSwap.sol\":11199:11261  _calculateSwapOutput(inputAmount, inputReserve, outputReserve) */\n      jump\t// in\n    tag_181:\n        /* \"SimpleSwap.sol\":11176:11261  uint256 actualOutput = _calculateSwapOutput(inputAmount, inputReserve, outputReserve) */\n      swap1\n      pop\n        /* \"SimpleSwap.sol\":11296:11309  minimumOutput */\n      dup10\n        /* \"SimpleSwap.sol\":11280:11292  actualOutput */\n      dup2\n        /* \"SimpleSwap.sol\":11280:11309  actualOutput >= minimumOutput */\n      lt\n      iszero\n        /* \"SimpleSwap.sol\":11272:11338  require(actualOutput >= minimumOutput, \"InsufficientOutputAmount\") */\n      tag_183\n      jumpi\n      mload(0x40)\n      0x08c379a000000000000000000000000000000000000000000000000000000000\n      dup2\n      mstore\n      0x04\n      add\n      tag_184\n      swap1\n      tag_185\n      jump\t// in\n    tag_184:\n      mload(0x40)\n      dup1\n      swap2\n      sub\n      swap1\n      revert\n    tag_183:\n        /* \"SimpleSwap.sol\":11402:11413  tradingPath */\n      dup9\n      dup9\n        /* \"SimpleSwap.sol\":11414:11415  0 */\n      0x00\n        /* \"SimpleSwap.sol\":11402:11416  tradingPath[0] */\n      dup2\n      dup2\n      lt\n      tag_186\n      jumpi\n      tag_187\n      tag_158\n      jump\t// in\n    tag_187:\n    tag_186:\n      swap1\n      pop\n      0x20\n      mul\n      add\n      0x20\n      dup2\n      add\n      swap1\n      tag_188\n      swap2\n      swap1\n      tag_71\n      jump\t// in\n    tag_188:\n        /* \"SimpleSwap.sol\":11395:11430  IERC20(tradingPath[0]).transferFrom */\n      0xffffffffffffffffffffffffffffffffffffffff\n      and\n      0x23b872dd\n        /* \"SimpleSwap.sol\":11431:11441  msg.sender */\n      caller\n        /* \"SimpleSwap.sol\":11451:11455  this */\n      address\n        /* \"SimpleSwap.sol\":11458:11469  inputAmount */\n      dup15\n        /* \"SimpleSwap.sol\":11395:11470  IERC20(tradingPath[0]).transferFrom(msg.sender, address(this), inputAmount) */\n      mload(0x40)\n      dup5\n      0xffffffff\n      and\n      0xe0\n      shl\n      dup2\n      mstore\n      0x04\n      add\n      tag_189\n      swap4\n      swap3\n      swap2\n      swap1\n      tag_190\n      jump\t// in\n    tag_189:\n      0x20\n      mload(0x40)\n      dup1\n      dup4\n      sub\n      dup2\n      0x00\n      dup8\n      gas\n      call\n      iszero\n      dup1\n      iszero\n      tag_192\n      jumpi\n      returndatacopy(0x00, 0x00, returndatasize)\n      revert(0x00, returndatasize)\n    tag_192:\n      pop\n      pop\n      pop\n      pop\n      mload(0x40)\n      returndatasize\n      not(0x1f)\n      0x1f\n      dup3\n      add\n      and\n      dup3\n      add\n      dup1\n      0x40\n      mstore\n      pop\n      dup2\n      add\n      swap1\n      tag_193\n      swap2\n      swap1\n      tag_194\n      jump\t// in\n    tag_193:\n        /* \"SimpleSwap.sol\":11387:11494  require(IERC20(tradingPath[0]).transferFrom(msg.sender, address(this), inputAmount), \"InputTransferFailed\") */\n      tag_195\n      jumpi\n      mload(0x40)\n      0x08c379a000000000000000000000000000000000000000000000000000000000\n      dup2\n      mstore\n      0x04\n      add\n      tag_196\n      swap1\n      tag_197\n      jump\t// in\n    tag_196:\n      mload(0x40)\n      dup1\n      swap2\n      sub\n      swap1\n      revert\n    tag_195:\n        /* \"SimpleSwap.sol\":11520:11531  tradingPath */\n      dup9\n      dup9\n        /* \"SimpleSwap.sol\":11532:11533  1 */\n      0x01\n        /* \"SimpleSwap.sol\":11520:11534  tradingPath[1] */\n      dup2\n      dup2\n      lt\n      tag_198\n      jumpi\n      tag_199\n      tag_158\n      jump\t// in\n    tag_199:\n    tag_198:\n      swap1\n      pop\n      0x20\n      mul\n      add\n      0x20\n      dup2\n      add\n      swap1\n      tag_200\n      swap2\n      swap1\n      tag_71\n      jump\t// in\n    tag_200:\n        /* \"SimpleSwap.sol\":11513:11544  IERC20(tradingPath[1]).transfer */\n      0xffffffffffffffffffffffffffffffffffffffff\n      and\n      0xa9059cbb\n        /* \"SimpleSwap.sol\":11545:11554  recipient */\n      dup9\n        /* \"SimpleSwap.sol\":11556:11568  actualOutput */\n      dup4\n        /* \"SimpleSwap.sol\":11513:11569  IERC20(tradingPath[1]).transfer(recipient, actualOutput) */\n      mload(0x40)\n      dup4\n      0xffffffff\n      and\n      0xe0\n      shl\n      dup2\n      mstore\n      0x04\n      add\n      tag_201\n      swap3\n      swap2\n      swap1\n      tag_202\n      jump\t// in\n    tag_201:\n      0x20\n      mload(0x40)\n      dup1\n      dup4\n      sub\n      dup2\n      0x00\n      dup8\n      gas\n      call\n      iszero\n      dup1\n      iszero\n      tag_204\n      jumpi\n      returndatacopy(0x00, 0x00, returndatasize)\n      revert(0x00, returndatasize)\n    tag_204:\n      pop\n      pop\n      pop\n      pop\n      mload(0x40)\n      returndatasize\n      not(0x1f)\n      0x1f\n      dup3\n      add\n      and\n      dup3\n      add\n      dup1\n      0x40\n      mstore\n      pop\n      dup2\n      add\n      swap1\n      tag_205\n      swap2\n      swap1\n      tag_194\n      jump\t// in\n    tag_205:\n        /* \"SimpleSwap.sol\":11505:11594  require(IERC20(tradingPath[1]).transfer(recipient, actualOutput), \"OutputTransferFailed\") */\n      tag_206\n      jumpi\n      mload(0x40)\n      0x08c379a000000000000000000000000000000000000000000000000000000000\n      dup2\n      mstore\n      0x04\n      add\n      tag_207\n      swap1\n      tag_208\n      jump\t// in\n    tag_207:\n      mload(0x40)\n      dup1\n      swap2\n      sub\n      swap1\n      revert\n    tag_206:\n        /* \"SimpleSwap.sol\":11678:11679  2 */\n      0x02\n        /* \"SimpleSwap.sol\":11664:11680  new uint256[](2) */\n      0xffffffffffffffff\n      dup2\n      gt\n      iszero\n      tag_209\n      jumpi\n      tag_210\n      tag_211\n      jump\t// in\n    tag_210:\n    tag_209:\n      mload(0x40)\n      swap1\n      dup1\n      dup3\n      mstore\n      dup1\n      0x20\n      mul\n      0x20\n      add\n      dup3\n      add\n      0x40\n      mstore\n      dup1\n      iszero\n      tag_212\n      jumpi\n      dup2\n      0x20\n      add\n      0x20\n      dup3\n      mul\n      dup1\n      calldatasize\n      dup4\n      calldatacopy\n      dup1\n      dup3\n      add\n      swap2\n      pop\n      pop\n      swap1\n      pop\n    tag_212:\n      pop\n        /* \"SimpleSwap.sol\":11648:11680  outputAmounts = new uint256[](2) */\n      swap5\n      pop\n        /* \"SimpleSwap.sol\":11710:11721  inputAmount */\n      dup11\n        /* \"SimpleSwap.sol\":11691:11704  outputAmounts */\n      dup6\n        /* \"SimpleSwap.sol\":11705:11706  0 */\n      0x00\n        /* \"SimpleSwap.sol\":11691:11707  outputAmounts[0] */\n      dup2\n      mload\n      dup2\n      lt\n      tag_213\n      jumpi\n      tag_214\n      tag_158\n      jump\t// in\n    tag_214:\n    tag_213:\n      0x20\n      mul\n      0x20\n      add\n      add\n        /* \"SimpleSwap.sol\":11691:11721  outputAmounts[0] = inputAmount */\n      dup2\n      dup2\n      mstore\n      pop\n      pop\n        /* \"SimpleSwap.sol\":11751:11763  actualOutput */\n      dup1\n        /* \"SimpleSwap.sol\":11732:11745  outputAmounts */\n      dup6\n        /* \"SimpleSwap.sol\":11746:11747  1 */\n      0x01\n        /* \"SimpleSwap.sol\":11732:11748  outputAmounts[1] */\n      dup2\n      mload\n      dup2\n      lt\n      tag_215\n      jumpi\n      tag_216\n      tag_158\n      jump\t// in\n    tag_216:\n    tag_215:\n      0x20\n      mul\n      0x20\n      add\n      add\n        /* \"SimpleSwap.sol\":11732:11763  outputAmounts[1] = actualOutput */\n      dup2\n      dup2\n      mstore\n      pop\n      pop\n        /* \"SimpleSwap.sol\":11815:11824  recipient */\n      dup7\n        /* \"SimpleSwap.sol\":11789:11852  TokenExchange(msg.sender, recipient, inputAmount, actualOutput) */\n      0xffffffffffffffffffffffffffffffffffffffff\n      and\n        /* \"SimpleSwap.sol\":11803:11813  msg.sender */\n      caller\n        /* \"SimpleSwap.sol\":11789:11852  TokenExchange(msg.sender, recipient, inputAmount, actualOutput) */\n      0xffffffffffffffffffffffffffffffffffffffff\n      and\n      0xeb05ee085ef924deb20ea84a6b8b36a242b7c0807eda9547f99a5b1ec13cd9d8\n        /* \"SimpleSwap.sol\":11826:11837  inputAmount */\n      dup14\n        /* \"SimpleSwap.sol\":11839:11851  actualOutput */\n      dup5\n        /* \"SimpleSwap.sol\":11789:11852  TokenExchange(msg.sender, recipient, inputAmount, actualOutput) */\n      mload(0x40)\n      tag_217\n      swap3\n      swap2\n      swap1\n      tag_37\n      jump\t// in\n    tag_217:\n      mload(0x40)\n      dup1\n      swap2\n      sub\n      swap1\n      log3\n        /* \"SimpleSwap.sol\":10643:11860  {... */\n      pop\n      pop\n      pop\n        /* \"SimpleSwap.sol\":10357:11860  function swapExactTokensForTokens(... */\n      pop\n      swap7\n      swap6\n      pop\n      pop\n      pop\n      pop\n      pop\n      pop\n      jump\t// out\n        /* \"@openzeppelin/contracts/token/ERC20/ERC20.sol\":2985:3101  function balanceOf(address account) public view virtual returns (uint256) {... */\n    tag_72:\n        /* \"@openzeppelin/contracts/token/ERC20/ERC20.sol\":3050:3057  uint256 */\n      0x00\n        /* \"@openzeppelin/contracts/token/ERC20/ERC20.sol\":3076:3085  _balances */\n      0x00\n        /* \"@openzeppelin/contracts/token/ERC20/ERC20.sol\":3076:3094  _balances[account] */\n      0x00\n        /* \"@openzeppelin/contracts/token/ERC20/ERC20.sol\":3086:3093  account */\n      dup4\n        /* \"@openzeppelin/contracts/token/ERC20/ERC20.sol\":3076:3094  _balances[account] */\n      0xffffffffffffffffffffffffffffffffffffffff\n      and\n      0xffffffffffffffffffffffffffffffffffffffff\n      and\n      dup2\n      mstore\n      0x20\n      add\n      swap1\n      dup2\n      mstore\n      0x20\n      add\n      0x00\n      keccak256\n      sload\n        /* \"@openzeppelin/contracts/token/ERC20/ERC20.sol\":3069:3094  return _balances[account] */\n      swap1\n      pop\n        /* \"@openzeppelin/contracts/token/ERC20/ERC20.sol\":2985:3101  function balanceOf(address account) public view virtual returns (uint256) {... */\n      swap2\n      swap1\n      pop\n      jump\t// out\n        /* \"@openzeppelin/contracts/token/ERC20/ERC20.sol\":1962:2055  function symbol() public view virtual returns (string memory) {... */\n    tag_75:\n        /* \"@openzeppelin/contracts/token/ERC20/ERC20.sol\":2009:2022  string memory */\n      0x60\n        /* \"@openzeppelin/contracts/token/ERC20/ERC20.sol\":2041:2048  _symbol */\n      0x04\n        /* \"@openzeppelin/contracts/token/ERC20/ERC20.sol\":2034:2048  return _symbol */\n      dup1\n      sload\n      tag_220\n      swap1\n      tag_116\n      jump\t// in\n    tag_220:\n      dup1\n      0x1f\n      add\n      0x20\n      dup1\n      swap2\n      div\n      mul\n      0x20\n      add\n      mload(0x40)\n      swap1\n      dup2\n      add\n      0x40\n      mstore\n      dup1\n      swap3\n      swap2\n      swap1\n      dup2\n      dup2\n      mstore\n      0x20\n      add\n      dup3\n      dup1\n      sload\n      tag_221\n      swap1\n      tag_116\n      jump\t// in\n    tag_221:\n      dup1\n      iszero\n      tag_222\n      jumpi\n      dup1\n      0x1f\n      lt\n      tag_223\n      jumpi\n      0x0100\n      dup1\n      dup4\n      sload\n      div\n      mul\n      dup4\n      mstore\n      swap2\n      0x20\n      add\n      swap2\n      jump(tag_222)\n    tag_223:\n      dup3\n      add\n      swap2\n      swap1\n      0x00\n      mstore\n      keccak256(0x00, 0x20)\n      swap1\n    tag_224:\n      dup2\n      sload\n      dup2\n      mstore\n      swap1\n      0x01\n      add\n      swap1\n      0x20\n      add\n      dup1\n      dup4\n      gt\n      tag_224\n      jumpi\n      dup3\n      swap1\n      sub\n      0x1f\n      and\n      dup3\n      add\n      swap2\n    tag_222:\n      pop\n      pop\n      pop\n      pop\n      pop\n      swap1\n      pop\n        /* \"@openzeppelin/contracts/token/ERC20/ERC20.sol\":1962:2055  function symbol() public view virtual returns (string memory) {... */\n      swap1\n      jump\t// out\n        /* \"@openzeppelin/contracts/token/ERC20/ERC20.sol\":3296:3474  function transfer(address to, uint256 value) public virtual returns (bool) {... */\n    tag_79:\n        /* \"@openzeppelin/contracts/token/ERC20/ERC20.sol\":3365:3369  bool */\n      0x00\n        /* \"@openzeppelin/contracts/token/ERC20/ERC20.sol\":3381:3394  address owner */\n      0x00\n        /* \"@openzeppelin/contracts/token/ERC20/ERC20.sol\":3397:3409  _msgSender() */\n      tag_226\n        /* \"@openzeppelin/contracts/token/ERC20/ERC20.sol\":3397:3407  _msgSender */\n      tag_133\n        /* \"@openzeppelin/contracts/token/ERC20/ERC20.sol\":3397:3409  _msgSender() */\n      jump\t// in\n    tag_226:\n        /* \"@openzeppelin/contracts/token/ERC20/ERC20.sol\":3381:3409  address owner = _msgSender() */\n      swap1\n      pop\n        /* \"@openzeppelin/contracts/token/ERC20/ERC20.sol\":3419:3446  _transfer(owner, to, value) */\n      tag_227\n        /* \"@openzeppelin/contracts/token/ERC20/ERC20.sol\":3429:3434  owner */\n      dup2\n        /* \"@openzeppelin/contracts/token/ERC20/ERC20.sol\":3436:3438  to */\n      dup6\n        /* \"@openzeppelin/contracts/token/ERC20/ERC20.sol\":3440:3445  value */\n      dup6\n        /* \"@openzeppelin/contracts/token/ERC20/ERC20.sol\":3419:3428  _transfer */\n      tag_142\n        /* \"@openzeppelin/contracts/token/ERC20/ERC20.sol\":3419:3446  _transfer(owner, to, value) */\n      jump\t// in\n    tag_227:\n        /* \"@openzeppelin/contracts/token/ERC20/ERC20.sol\":3463:3467  true */\n      0x01\n        /* \"@openzeppelin/contracts/token/ERC20/ERC20.sol\":3456:3467  return true */\n      swap2\n      pop\n      pop\n        /* \"@openzeppelin/contracts/token/ERC20/ERC20.sol\":3296:3474  function transfer(address to, uint256 value) public virtual returns (bool) {... */\n      swap3\n      swap2\n      pop\n      pop\n      jump\t// out\n        /* \"SimpleSwap.sol\":12106:12567  function getPrice(address tokenA, address tokenB) external view returns (uint256 currentPrice) {... */\n    tag_84:\n        /* \"SimpleSwap.sol\":12179:12199  uint256 currentPrice */\n      0x00\n        /* \"SimpleSwap.sol\":12220:12253  _isValidTokenPair(tokenA, tokenB) */\n      tag_229\n        /* \"SimpleSwap.sol\":12238:12244  tokenA */\n      dup4\n        /* \"SimpleSwap.sol\":12246:12252  tokenB */\n      dup4\n        /* \"SimpleSwap.sol\":12220:12237  _isValidTokenPair */\n      tag_163\n        /* \"SimpleSwap.sol\":12220:12253  _isValidTokenPair(tokenA, tokenB) */\n      jump\t// in\n    tag_229:\n        /* \"SimpleSwap.sol\":12212:12278  require(_isValidTokenPair(tokenA, tokenB), \"UnsupportedTokenPair\") */\n      tag_230\n      jumpi\n      mload(0x40)\n      0x08c379a000000000000000000000000000000000000000000000000000000000\n      dup2\n      mstore\n      0x04\n      add\n      tag_231\n      swap1\n      tag_166\n      jump\t// in\n    tag_231:\n      mload(0x40)\n      dup1\n      swap2\n      sub\n      swap1\n      revert\n    tag_230:\n        /* \"SimpleSwap.sol\":12299:12315  uint256 reserveA */\n      0x00\n        /* \"SimpleSwap.sol\":12325:12331  tokenA */\n      dup4\n        /* \"SimpleSwap.sol\":12318:12342  IERC20(tokenA).balanceOf */\n      0xffffffffffffffffffffffffffffffffffffffff\n      and\n      0x70a08231\n        /* \"SimpleSwap.sol\":12351:12355  this */\n      address\n        /* \"SimpleSwap.sol\":12318:12357  IERC20(tokenA).balanceOf(address(this)) */\n      mload(0x40)\n      dup3\n      0xffffffff\n      and\n      0xe0\n      shl\n      dup2\n      mstore\n      0x04\n      add\n      tag_232\n      swap2\n      swap1\n      tag_50\n      jump\t// in\n    tag_232:\n      0x20\n      mload(0x40)\n      dup1\n      dup4\n      sub\n      dup2\n      dup7\n      gas\n      staticcall\n      iszero\n      dup1\n      iszero\n      tag_234\n      jumpi\n      returndatacopy(0x00, 0x00, returndatasize)\n      revert(0x00, returndatasize)\n    tag_234:\n      pop\n      pop\n      pop\n      pop\n      mload(0x40)\n      returndatasize\n      not(0x1f)\n      0x1f\n      dup3\n      add\n      and\n      dup3\n      add\n      dup1\n      0x40\n      mstore\n      pop\n      dup2\n      add\n      swap1\n      tag_235\n      swap2\n      swap1\n      tag_126\n      jump\t// in\n    tag_235:\n        /* \"SimpleSwap.sol\":12299:12357  uint256 reserveA = IERC20(tokenA).balanceOf(address(this)) */\n      swap1\n      pop\n        /* \"SimpleSwap.sol\":12368:12384  uint256 reserveB */\n      0x00\n        /* \"SimpleSwap.sol\":12394:12400  tokenB */\n      dup4\n        /* \"SimpleSwap.sol\":12387:12411  IERC20(tokenB).balanceOf */\n      0xffffffffffffffffffffffffffffffffffffffff\n      and\n      0x70a08231\n        /* \"SimpleSwap.sol\":12420:12424  this */\n      address\n        /* \"SimpleSwap.sol\":12387:12426  IERC20(tokenB).balanceOf(address(this)) */\n      mload(0x40)\n      dup3\n      0xffffffff\n      and\n      0xe0\n      shl\n      dup2\n      mstore\n      0x04\n      add\n      tag_236\n      swap2\n      swap1\n      tag_50\n      jump\t// in\n    tag_236:\n      0x20\n      mload(0x40)\n      dup1\n      dup4\n      sub\n      dup2\n      dup7\n      gas\n      staticcall\n      iszero\n      dup1\n      iszero\n      tag_238\n      jumpi\n      returndatacopy(0x00, 0x00, returndatasize)\n      revert(0x00, returndatasize)\n    tag_238:\n      pop\n      pop\n      pop\n      pop\n      mload(0x40)\n      returndatasize\n      not(0x1f)\n      0x1f\n      dup3\n      add\n      and\n      dup3\n      add\n      dup1\n      0x40\n      mstore\n      pop\n      dup2\n      add\n      swap1\n      tag_239\n      swap2\n      swap1\n      tag_126\n      jump\t// in\n    tag_239:\n        /* \"SimpleSwap.sol\":12368:12426  uint256 reserveB = IERC20(tokenB).balanceOf(address(this)) */\n      swap1\n      pop\n        /* \"SimpleSwap.sol\":12456:12457  0 */\n      0x00\n        /* \"SimpleSwap.sol\":12445:12453  reserveA */\n      dup3\n        /* \"SimpleSwap.sol\":12445:12457  reserveA > 0 */\n      gt\n        /* \"SimpleSwap.sol\":12445:12473  reserveA > 0 && reserveB > 0 */\n      dup1\n      iszero\n      tag_240\n      jumpi\n      pop\n        /* \"SimpleSwap.sol\":12472:12473  0 */\n      0x00\n        /* \"SimpleSwap.sol\":12461:12469  reserveB */\n      dup2\n        /* \"SimpleSwap.sol\":12461:12473  reserveB > 0 */\n      gt\n        /* \"SimpleSwap.sol\":12445:12473  reserveA > 0 && reserveB > 0 */\n    tag_240:\n        /* \"SimpleSwap.sol\":12437:12498  require(reserveA > 0 && reserveB > 0, \"InsufficientReserves\") */\n      tag_241\n      jumpi\n      mload(0x40)\n      0x08c379a000000000000000000000000000000000000000000000000000000000\n      dup2\n      mstore\n      0x04\n      add\n      tag_242\n      swap1\n      tag_109\n      jump\t// in\n    tag_242:\n      mload(0x40)\n      dup1\n      swap2\n      sub\n      swap1\n      revert\n    tag_241:\n        /* \"SimpleSwap.sol\":12551:12559  reserveB */\n      dup1\n        /* \"SimpleSwap.sol\":786:790  1e18 */\n      0x0de0b6b3a7640000\n        /* \"SimpleSwap.sol\":12527:12535  reserveA */\n      dup4\n        /* \"SimpleSwap.sol\":12527:12547  reserveA * PRECISION */\n      tag_243\n      swap2\n      swap1\n      tag_111\n      jump\t// in\n    tag_243:\n        /* \"SimpleSwap.sol\":12526:12559  (reserveA * PRECISION) / reserveB */\n      tag_244\n      swap2\n      swap1\n      tag_113\n      jump\t// in\n    tag_244:\n        /* \"SimpleSwap.sol\":12519:12559  return (reserveA * PRECISION) / reserveB */\n      swap3\n      pop\n      pop\n      pop\n        /* \"SimpleSwap.sol\":12106:12567  function getPrice(address tokenA, address tokenB) external view returns (uint256 currentPrice) {... */\n      swap3\n      swap2\n      pop\n      pop\n      jump\t// out\n        /* \"SimpleSwap.sol\":8086:9844  function removeLiquidity(... */\n    tag_89:\n        /* \"SimpleSwap.sol\":8378:8402  uint256 withdrawnAmountA */\n      0x00\n        /* \"SimpleSwap.sol\":8404:8428  uint256 withdrawnAmountB */\n      0x00\n        /* \"SimpleSwap.sol\":8353:8367  expirationTime */\n      dup3\n        /* \"SimpleSwap.sol\":2897:2912  block.timestamp */\n      timestamp\n        /* \"SimpleSwap.sol\":2879:2893  expirationTime */\n      dup2\n        /* \"SimpleSwap.sol\":2879:2912  expirationTime >= block.timestamp */\n      lt\n      iszero\n        /* \"SimpleSwap.sol\":2871:2935  require(expirationTime >= block.timestamp, \"TransactionExpired\") */\n      tag_246\n      jumpi\n      mload(0x40)\n      0x08c379a000000000000000000000000000000000000000000000000000000000\n      dup2\n      mstore\n      0x04\n      add\n      tag_247\n      swap1\n      tag_147\n      jump\t// in\n    tag_247:\n      mload(0x40)\n      dup1\n      swap2\n      sub\n      swap1\n      revert\n    tag_246:\n        /* \"SimpleSwap.sol\":8483:8516  _isValidTokenPair(tokenA, tokenB) */\n      tag_249\n        /* \"SimpleSwap.sol\":8501:8507  tokenA */\n      dup11\n        /* \"SimpleSwap.sol\":8509:8515  tokenB */\n      dup11\n        /* \"SimpleSwap.sol\":8483:8500  _isValidTokenPair */\n      tag_163\n        /* \"SimpleSwap.sol\":8483:8516  _isValidTokenPair(tokenA, tokenB) */\n      jump\t// in\n    tag_249:\n        /* \"SimpleSwap.sol\":8475:8541  require(_isValidTokenPair(tokenA, tokenB), \"UnsupportedTokenPair\") */\n      tag_250\n      jumpi\n      mload(0x40)\n      0x08c379a000000000000000000000000000000000000000000000000000000000\n      dup2\n      mstore\n      0x04\n      add\n      tag_251\n      swap1\n      tag_166\n      jump\t// in\n    tag_251:\n      mload(0x40)\n      dup1\n      swap2\n      sub\n      swap1\n      revert\n    tag_250:\n        /* \"SimpleSwap.sol\":8581:8582  0 */\n      0x00\n        /* \"SimpleSwap.sol\":8560:8583  recipient != address(0) */\n      0xffffffffffffffffffffffffffffffffffffffff\n      and\n        /* \"SimpleSwap.sol\":8560:8569  recipient */\n      dup6\n        /* \"SimpleSwap.sol\":8560:8583  recipient != address(0) */\n      0xffffffffffffffffffffffffffffffffffffffff\n      and\n      sub\n        /* \"SimpleSwap.sol\":8552:8604  require(recipient != address(0), \"InvalidRecipient\") */\n      tag_252\n      jumpi\n      mload(0x40)\n      0x08c379a000000000000000000000000000000000000000000000000000000000\n      dup2\n      mstore\n      0x04\n      add\n      tag_253\n      swap1\n      tag_154\n      jump\t// in\n    tag_253:\n      mload(0x40)\n      dup1\n      swap2\n      sub\n      swap1\n      revert\n    tag_252:\n        /* \"SimpleSwap.sol\":8641:8642  0 */\n      0x00\n        /* \"SimpleSwap.sol\":8623:8638  liquidityAmount */\n      dup9\n        /* \"SimpleSwap.sol\":8623:8642  liquidityAmount > 0 */\n      gt\n        /* \"SimpleSwap.sol\":8615:8666  require(liquidityAmount > 0, \"ZeroLiquidityAmount\") */\n      tag_254\n      jumpi\n      mload(0x40)\n      0x08c379a000000000000000000000000000000000000000000000000000000000\n      dup2\n      mstore\n      0x04\n      add\n      tag_255\n      swap1\n      tag_256\n      jump\t// in\n    tag_255:\n      mload(0x40)\n      dup1\n      swap2\n      sub\n      swap1\n      revert\n    tag_254:\n        /* \"SimpleSwap.sol\":8737:8760  uint256 currentReserveA */\n      0x00\n        /* \"SimpleSwap.sol\":8770:8776  tokenA */\n      dup11\n        /* \"SimpleSwap.sol\":8763:8787  IERC20(tokenA).balanceOf */\n      0xffffffffffffffffffffffffffffffffffffffff\n      and\n      0x70a08231\n        /* \"SimpleSwap.sol\":8796:8800  this */\n      address\n        /* \"SimpleSwap.sol\":8763:8802  IERC20(tokenA).balanceOf(address(this)) */\n      mload(0x40)\n      dup3\n      0xffffffff\n      and\n      0xe0\n      shl\n      dup2\n      mstore\n      0x04\n      add\n      tag_257\n      swap2\n      swap1\n      tag_50\n      jump\t// in\n    tag_257:\n      0x20\n      mload(0x40)\n      dup1\n      dup4\n      sub\n      dup2\n      dup7\n      gas\n      staticcall\n      iszero\n      dup1\n      iszero\n      tag_259\n      jumpi\n      returndatacopy(0x00, 0x00, returndatasize)\n      revert(0x00, returndatasize)\n    tag_259:\n      pop\n      pop\n      pop\n      pop\n      mload(0x40)\n      returndatasize\n      not(0x1f)\n      0x1f\n      dup3\n      add\n      and\n      dup3\n      add\n      dup1\n      0x40\n      mstore\n      pop\n      dup2\n      add\n      swap1\n      tag_260\n      swap2\n      swap1\n      tag_126\n      jump\t// in\n    tag_260:\n        /* \"SimpleSwap.sol\":8737:8802  uint256 currentReserveA = IERC20(tokenA).balanceOf(address(this)) */\n      swap1\n      pop\n        /* \"SimpleSwap.sol\":8813:8836  uint256 currentReserveB */\n      0x00\n        /* \"SimpleSwap.sol\":8846:8852  tokenB */\n      dup11\n        /* \"SimpleSwap.sol\":8839:8863  IERC20(tokenB).balanceOf */\n      0xffffffffffffffffffffffffffffffffffffffff\n      and\n      0x70a08231\n        /* \"SimpleSwap.sol\":8872:8876  this */\n      address\n        /* \"SimpleSwap.sol\":8839:8878  IERC20(tokenB).balanceOf(address(this)) */\n      mload(0x40)\n      dup3\n      0xffffffff\n      and\n      0xe0\n      shl\n      dup2\n      mstore\n      0x04\n      add\n      tag_261\n      swap2\n      swap1\n      tag_50\n      jump\t// in\n    tag_261:\n      0x20\n      mload(0x40)\n      dup1\n      dup4\n      sub\n      dup2\n      dup7\n      gas\n      staticcall\n      iszero\n      dup1\n      iszero\n      tag_263\n      jumpi\n      returndatacopy(0x00, 0x00, returndatasize)\n      revert(0x00, returndatasize)\n    tag_263:\n      pop\n      pop\n      pop\n      pop\n      mload(0x40)\n      returndatasize\n      not(0x1f)\n      0x1f\n      dup3\n      add\n      and\n      dup3\n      add\n      dup1\n      0x40\n      mstore\n      pop\n      dup2\n      add\n      swap1\n      tag_264\n      swap2\n      swap1\n      tag_126\n      jump\t// in\n    tag_264:\n        /* \"SimpleSwap.sol\":8813:8878  uint256 currentReserveB = IERC20(tokenB).balanceOf(address(this)) */\n      swap1\n      pop\n        /* \"SimpleSwap.sol\":8889:8915  uint256 currentTotalSupply */\n      0x00\n        /* \"SimpleSwap.sol\":8918:8931  totalSupply() */\n      tag_265\n        /* \"SimpleSwap.sol\":8918:8929  totalSupply */\n      tag_45\n        /* \"SimpleSwap.sol\":8918:8931  totalSupply() */\n      jump\t// in\n    tag_265:\n        /* \"SimpleSwap.sol\":8889:8931  uint256 currentTotalSupply = totalSupply() */\n      swap1\n      pop\n        /* \"SimpleSwap.sol\":9068:9086  currentTotalSupply */\n      dup1\n        /* \"SimpleSwap.sol\":9049:9064  currentReserveA */\n      dup4\n        /* \"SimpleSwap.sol\":9031:9046  liquidityAmount */\n      dup13\n        /* \"SimpleSwap.sol\":9031:9064  liquidityAmount * currentReserveA */\n      tag_266\n      swap2\n      swap1\n      tag_111\n      jump\t// in\n    tag_266:\n        /* \"SimpleSwap.sol\":9030:9086  (liquidityAmount * currentReserveA) / currentTotalSupply */\n      tag_267\n      swap2\n      swap1\n      tag_113\n      jump\t// in\n    tag_267:\n        /* \"SimpleSwap.sol\":9011:9086  withdrawnAmountA = (liquidityAmount * currentReserveA) / currentTotalSupply */\n      swap6\n      pop\n        /* \"SimpleSwap.sol\":9154:9172  currentTotalSupply */\n      dup1\n        /* \"SimpleSwap.sol\":9135:9150  currentReserveB */\n      dup3\n        /* \"SimpleSwap.sol\":9117:9132  liquidityAmount */\n      dup13\n        /* \"SimpleSwap.sol\":9117:9150  liquidityAmount * currentReserveB */\n      tag_268\n      swap2\n      swap1\n      tag_111\n      jump\t// in\n    tag_268:\n        /* \"SimpleSwap.sol\":9116:9172  (liquidityAmount * currentReserveB) / currentTotalSupply */\n      tag_269\n      swap2\n      swap1\n      tag_113\n      jump\t// in\n    tag_269:\n        /* \"SimpleSwap.sol\":9097:9172  withdrawnAmountB = (liquidityAmount * currentReserveB) / currentTotalSupply */\n      swap5\n      pop\n        /* \"SimpleSwap.sol\":9282:9296  minimumAmountA */\n      dup10\n        /* \"SimpleSwap.sol\":9262:9278  withdrawnAmountA */\n      dup7\n        /* \"SimpleSwap.sol\":9262:9296  withdrawnAmountA >= minimumAmountA */\n      lt\n      iszero\n        /* \"SimpleSwap.sol\":9254:9325  require(withdrawnAmountA >= minimumAmountA, \"InsufficientTokenAAmount\") */\n      tag_270\n      jumpi\n      mload(0x40)\n      0x08c379a000000000000000000000000000000000000000000000000000000000\n      dup2\n      mstore\n      0x04\n      add\n      tag_271\n      swap1\n      tag_272\n      jump\t// in\n    tag_271:\n      mload(0x40)\n      dup1\n      swap2\n      sub\n      swap1\n      revert\n    tag_270:\n        /* \"SimpleSwap.sol\":9364:9378  minimumAmountB */\n      dup9\n        /* \"SimpleSwap.sol\":9344:9360  withdrawnAmountB */\n      dup6\n        /* \"SimpleSwap.sol\":9344:9378  withdrawnAmountB >= minimumAmountB */\n      lt\n      iszero\n        /* \"SimpleSwap.sol\":9336:9407  require(withdrawnAmountB >= minimumAmountB, \"InsufficientTokenBAmount\") */\n      tag_273\n      jumpi\n      mload(0x40)\n      0x08c379a000000000000000000000000000000000000000000000000000000000\n      dup2\n      mstore\n      0x04\n      add\n      tag_274\n      swap1\n      tag_275\n      jump\t// in\n    tag_274:\n      mload(0x40)\n      dup1\n      swap2\n      sub\n      swap1\n      revert\n    tag_273:\n        /* \"SimpleSwap.sol\":9476:9482  tokenA */\n      dup13\n        /* \"SimpleSwap.sol\":9469:9492  IERC20(tokenA).transfer */\n      0xffffffffffffffffffffffffffffffffffffffff\n      and\n      0xa9059cbb\n        /* \"SimpleSwap.sol\":9493:9502  recipient */\n      dup10\n        /* \"SimpleSwap.sol\":9504:9520  withdrawnAmountA */\n      dup9\n        /* \"SimpleSwap.sol\":9469:9521  IERC20(tokenA).transfer(recipient, withdrawnAmountA) */\n      mload(0x40)\n      dup4\n      0xffffffff\n      and\n      0xe0\n      shl\n      dup2\n      mstore\n      0x04\n      add\n      tag_276\n      swap3\n      swap2\n      swap1\n      tag_202\n      jump\t// in\n    tag_276:\n      0x20\n      mload(0x40)\n      dup1\n      dup4\n      sub\n      dup2\n      0x00\n      dup8\n      gas\n      call\n      iszero\n      dup1\n      iszero\n      tag_278\n      jumpi\n      returndatacopy(0x00, 0x00, returndatasize)\n      revert(0x00, returndatasize)\n    tag_278:\n      pop\n      pop\n      pop\n      pop\n      mload(0x40)\n      returndatasize\n      not(0x1f)\n      0x1f\n      dup3\n      add\n      and\n      dup3\n      add\n      dup1\n      0x40\n      mstore\n      pop\n      dup2\n      add\n      swap1\n      tag_279\n      swap2\n      swap1\n      tag_194\n      jump\t// in\n    tag_279:\n        /* \"SimpleSwap.sol\":9461:9546  require(IERC20(tokenA).transfer(recipient, withdrawnAmountA), \"TokenATransferFailed\") */\n      tag_280\n      jumpi\n      mload(0x40)\n      0x08c379a000000000000000000000000000000000000000000000000000000000\n      dup2\n      mstore\n      0x04\n      add\n      tag_281\n      swap1\n      tag_282\n      jump\t// in\n    tag_281:\n      mload(0x40)\n      dup1\n      swap2\n      sub\n      swap1\n      revert\n    tag_280:\n        /* \"SimpleSwap.sol\":9572:9578  tokenB */\n      dup12\n        /* \"SimpleSwap.sol\":9565:9588  IERC20(tokenB).transfer */\n      0xffffffffffffffffffffffffffffffffffffffff\n      and\n      0xa9059cbb\n        /* \"SimpleSwap.sol\":9589:9598  recipient */\n      dup10\n        /* \"SimpleSwap.sol\":9600:9616  withdrawnAmountB */\n      dup8\n        /* \"SimpleSwap.sol\":9565:9617  IERC20(tokenB).transfer(recipient, withdrawnAmountB) */\n      mload(0x40)\n      dup4\n      0xffffffff\n      and\n      0xe0\n      shl\n      dup2\n      mstore\n      0x04\n      add\n      tag_283\n      swap3\n      swap2\n      swap1\n      tag_202\n      jump\t// in\n    tag_283:\n      0x20\n      mload(0x40)\n      dup1\n      dup4\n      sub\n      dup2\n      0x00\n      dup8\n      gas\n      call\n      iszero\n      dup1\n      iszero\n      tag_285\n      jumpi\n      returndatacopy(0x00, 0x00, returndatasize)\n      revert(0x00, returndatasize)\n    tag_285:\n      pop\n      pop\n      pop\n      pop\n      mload(0x40)\n      returndatasize\n      not(0x1f)\n      0x1f\n      dup3\n      add\n      and\n      dup3\n      add\n      dup1\n      0x40\n      mstore\n      pop\n      dup2\n      add\n      swap1\n      tag_286\n      swap2\n      swap1\n      tag_194\n      jump\t// in\n    tag_286:\n        /* \"SimpleSwap.sol\":9557:9642  require(IERC20(tokenB).transfer(recipient, withdrawnAmountB), \"TokenBTransferFailed\") */\n      tag_287\n      jumpi\n      mload(0x40)\n      0x08c379a000000000000000000000000000000000000000000000000000000000\n      dup2\n      mstore\n      0x04\n      add\n      tag_288\n      swap1\n      tag_289\n      jump\t// in\n    tag_288:\n      mload(0x40)\n      dup1\n      swap2\n      sub\n      swap1\n      revert\n    tag_287:\n        /* \"SimpleSwap.sol\":9701:9735  _burn(msg.sender, liquidityAmount) */\n      tag_290\n        /* \"SimpleSwap.sol\":9707:9717  msg.sender */\n      caller\n        /* \"SimpleSwap.sol\":9719:9734  liquidityAmount */\n      dup13\n        /* \"SimpleSwap.sol\":9701:9706  _burn */\n      tag_291\n        /* \"SimpleSwap.sol\":9701:9735  _burn(msg.sender, liquidityAmount) */\n      jump\t// in\n    tag_290:\n        /* \"SimpleSwap.sol\":9772:9782  msg.sender */\n      caller\n        /* \"SimpleSwap.sol\":9753:9836  LiquidityWithdrawn(msg.sender, withdrawnAmountA, withdrawnAmountB, liquidityAmount) */\n      0xffffffffffffffffffffffffffffffffffffffff\n      and\n      0x9746cd459b192e14d25047ee6f0c763709fc38435eb4883830cf715de0a40ac0\n        /* \"SimpleSwap.sol\":9784:9800  withdrawnAmountA */\n      dup8\n        /* \"SimpleSwap.sol\":9802:9818  withdrawnAmountB */\n      dup8\n        /* \"SimpleSwap.sol\":9820:9835  liquidityAmount */\n      dup15\n        /* \"SimpleSwap.sol\":9753:9836  LiquidityWithdrawn(msg.sender, withdrawnAmountA, withdrawnAmountB, liquidityAmount) */\n      mload(0x40)\n      tag_292\n      swap4\n      swap3\n      swap2\n      swap1\n      tag_104\n      jump\t// in\n    tag_292:\n      mload(0x40)\n      dup1\n      swap2\n      sub\n      swap1\n      log2\n        /* \"SimpleSwap.sol\":8430:9844  {... */\n      pop\n      pop\n      pop\n        /* \"SimpleSwap.sol\":8086:9844  function removeLiquidity(... */\n      pop\n      swap8\n      pop\n      swap8\n      swap6\n      pop\n      pop\n      pop\n      pop\n      pop\n      pop\n      jump\t// out\n        /* \"SimpleSwap.sol\":15381:15530  function getSupportedTokens() external view returns (address tokenA, address tokenB) {... */\n    tag_92:\n        /* \"SimpleSwap.sol\":15434:15448  address tokenA */\n      0x00\n        /* \"SimpleSwap.sol\":15450:15464  address tokenB */\n      0x00\n        /* \"SimpleSwap.sol\":15486:15494  ekaToken */\n      immutable(\"0x3ad1041c7fca4b981ec9df1cdec68238bc49ef0c518c8c6bf20002aeca8bde61\")\n        /* \"SimpleSwap.sol\":15477:15494  tokenA = ekaToken */\n      swap2\n      pop\n        /* \"SimpleSwap.sol\":15514:15522  ekbToken */\n      immutable(\"0xbb3f2e621eeffbebbfb22debd922d40ff430acea77036fb1a161fb2091c11198\")\n        /* \"SimpleSwap.sol\":15505:15522  tokenB = ekbToken */\n      swap1\n      pop\n        /* \"SimpleSwap.sol\":15381:15530  function getSupportedTokens() external view returns (address tokenA, address tokenB) {... */\n      swap1\n      swap2\n      jump\t// out\n        /* \"@openzeppelin/contracts/token/ERC20/ERC20.sol\":3532:3672  function allowance(address owner, address spender) public view virtual returns (uint256) {... */\n    tag_97:\n        /* \"@openzeppelin/contracts/token/ERC20/ERC20.sol\":3612:3619  uint256 */\n      0x00\n        /* \"@openzeppelin/contracts/token/ERC20/ERC20.sol\":3638:3649  _allowances */\n      0x01\n        /* \"@openzeppelin/contracts/token/ERC20/ERC20.sol\":3638:3656  _allowances[owner] */\n      0x00\n        /* \"@openzeppelin/contracts/token/ERC20/ERC20.sol\":3650:3655  owner */\n      dup5\n        /* \"@openzeppelin/contracts/token/ERC20/ERC20.sol\":3638:3656  _allowances[owner] */\n      0xffffffffffffffffffffffffffffffffffffffff\n      and\n      0xffffffffffffffffffffffffffffffffffffffff\n      and\n      dup2\n      mstore\n      0x20\n      add\n      swap1\n      dup2\n      mstore\n      0x20\n      add\n      0x00\n      keccak256\n        /* \"@openzeppelin/contracts/token/ERC20/ERC20.sol\":3638:3665  _allowances[owner][spender] */\n      0x00\n        /* \"@openzeppelin/contracts/token/ERC20/ERC20.sol\":3657:3664  spender */\n      dup4\n        /* \"@openzeppelin/contracts/token/ERC20/ERC20.sol\":3638:3665  _allowances[owner][spender] */\n      0xffffffffffffffffffffffffffffffffffffffff\n      and\n      0xffffffffffffffffffffffffffffffffffffffff\n      and\n      dup2\n      mstore\n      0x20\n      add\n      swap1\n      dup2\n      mstore\n      0x20\n      add\n      0x00\n      keccak256\n      sload\n        /* \"@openzeppelin/contracts/token/ERC20/ERC20.sol\":3631:3665  return _allowances[owner][spender] */\n      swap1\n      pop\n        /* \"@openzeppelin/contracts/token/ERC20/ERC20.sol\":3532:3672  function allowance(address owner, address spender) public view virtual returns (uint256) {... */\n      swap3\n      swap2\n      pop\n      pop\n      jump\t// out\n        /* \"SimpleSwap.sol\":3903:5209  function addLiquidity(... */\n    tag_102:\n        /* \"SimpleSwap.sol\":4224:4245  uint256 actualAmountA */\n      0x00\n        /* \"SimpleSwap.sol\":4247:4268  uint256 actualAmountB */\n      0x00\n        /* \"SimpleSwap.sol\":4270:4293  uint256 liquidityTokens */\n      0x00\n        /* \"SimpleSwap.sol\":4199:4213  expirationTime */\n      dup4\n        /* \"SimpleSwap.sol\":2897:2912  block.timestamp */\n      timestamp\n        /* \"SimpleSwap.sol\":2879:2893  expirationTime */\n      dup2\n        /* \"SimpleSwap.sol\":2879:2912  expirationTime >= block.timestamp */\n      lt\n      iszero\n        /* \"SimpleSwap.sol\":2871:2935  require(expirationTime >= block.timestamp, \"TransactionExpired\") */\n      tag_296\n      jumpi\n      mload(0x40)\n      0x08c379a000000000000000000000000000000000000000000000000000000000\n      dup2\n      mstore\n      0x04\n      add\n      tag_297\n      swap1\n      tag_147\n      jump\t// in\n    tag_297:\n      mload(0x40)\n      dup1\n      swap2\n      sub\n      swap1\n      revert\n    tag_296:\n        /* \"SimpleSwap.sol\":4352:4385  _isValidTokenPair(tokenA, tokenB) */\n      tag_299\n        /* \"SimpleSwap.sol\":4370:4376  tokenA */\n      dup13\n        /* \"SimpleSwap.sol\":4378:4384  tokenB */\n      dup13\n        /* \"SimpleSwap.sol\":4352:4369  _isValidTokenPair */\n      tag_163\n        /* \"SimpleSwap.sol\":4352:4385  _isValidTokenPair(tokenA, tokenB) */\n      jump\t// in\n    tag_299:\n        /* \"SimpleSwap.sol\":4344:4410  require(_isValidTokenPair(tokenA, tokenB), \"UnsupportedTokenPair\") */\n      tag_300\n      jumpi\n      mload(0x40)\n      0x08c379a000000000000000000000000000000000000000000000000000000000\n      dup2\n      mstore\n      0x04\n      add\n      tag_301\n      swap1\n      tag_166\n      jump\t// in\n    tag_301:\n      mload(0x40)\n      dup1\n      swap2\n      sub\n      swap1\n      revert\n    tag_300:\n        /* \"SimpleSwap.sol\":4450:4451  0 */\n      0x00\n        /* \"SimpleSwap.sol\":4429:4452  recipient != address(0) */\n      0xffffffffffffffffffffffffffffffffffffffff\n      and\n        /* \"SimpleSwap.sol\":4429:4438  recipient */\n      dup7\n        /* \"SimpleSwap.sol\":4429:4452  recipient != address(0) */\n      0xffffffffffffffffffffffffffffffffffffffff\n      and\n      sub\n        /* \"SimpleSwap.sol\":4421:4473  require(recipient != address(0), \"InvalidRecipient\") */\n      tag_302\n      jumpi\n      mload(0x40)\n      0x08c379a000000000000000000000000000000000000000000000000000000000\n      dup2\n      mstore\n      0x04\n      add\n      tag_303\n      swap1\n      tag_154\n      jump\t// in\n    tag_303:\n      mload(0x40)\n      dup1\n      swap2\n      sub\n      swap1\n      revert\n    tag_302:\n        /* \"SimpleSwap.sol\":4596:4796  _calculateLiquidityAmounts(... */\n      tag_304\n        /* \"SimpleSwap.sol\":4637:4643  tokenA */\n      dup13\n        /* \"SimpleSwap.sol\":4659:4665  tokenB */\n      dup13\n        /* \"SimpleSwap.sol\":4681:4695  desiredAmountA */\n      dup13\n        /* \"SimpleSwap.sol\":4711:4725  desiredAmountB */\n      dup13\n        /* \"SimpleSwap.sol\":4741:4755  minimumAmountA */\n      dup13\n        /* \"SimpleSwap.sol\":4771:4785  minimumAmountB */\n      dup13\n        /* \"SimpleSwap.sol\":4596:4622  _calculateLiquidityAmounts */\n      tag_305\n        /* \"SimpleSwap.sol\":4596:4796  _calculateLiquidityAmounts(... */\n      jump\t// in\n    tag_304:\n        /* \"SimpleSwap.sol\":4546:4796  (actualAmountA, actualAmountB, liquidityTokens) = _calculateLiquidityAmounts(... */\n      dup1\n      swap5\n      pop\n      dup2\n      swap6\n      pop\n      dup3\n      swap7\n      pop\n      pop\n      pop\n      pop\n        /* \"SimpleSwap.sol\":4863:4869  tokenA */\n      dup12\n        /* \"SimpleSwap.sol\":4856:4883  IERC20(tokenA).transferFrom */\n      0xffffffffffffffffffffffffffffffffffffffff\n      and\n      0x23b872dd\n        /* \"SimpleSwap.sol\":4884:4894  msg.sender */\n      caller\n        /* \"SimpleSwap.sol\":4904:4908  this */\n      address\n        /* \"SimpleSwap.sol\":4911:4924  actualAmountA */\n      dup8\n        /* \"SimpleSwap.sol\":4856:4925  IERC20(tokenA).transferFrom(msg.sender, address(this), actualAmountA) */\n      mload(0x40)\n      dup5\n      0xffffffff\n      and\n      0xe0\n      shl\n      dup2\n      mstore\n      0x04\n      add\n      tag_306\n      swap4\n      swap3\n      swap2\n      swap1\n      tag_190\n      jump\t// in\n    tag_306:\n      0x20\n      mload(0x40)\n      dup1\n      dup4\n      sub\n      dup2\n      0x00\n      dup8\n      gas\n      call\n      iszero\n      dup1\n      iszero\n      tag_308\n      jumpi\n      returndatacopy(0x00, 0x00, returndatasize)\n      revert(0x00, returndatasize)\n    tag_308:\n      pop\n      pop\n      pop\n      pop\n      mload(0x40)\n      returndatasize\n      not(0x1f)\n      0x1f\n      dup3\n      add\n      and\n      dup3\n      add\n      dup1\n      0x40\n      mstore\n      pop\n      dup2\n      add\n      swap1\n      tag_309\n      swap2\n      swap1\n      tag_194\n      jump\t// in\n    tag_309:\n        /* \"SimpleSwap.sol\":4848:4950  require(IERC20(tokenA).transferFrom(msg.sender, address(this), actualAmountA), \"TokenATransferFailed\") */\n      tag_310\n      jumpi\n      mload(0x40)\n      0x08c379a000000000000000000000000000000000000000000000000000000000\n      dup2\n      mstore\n      0x04\n      add\n      tag_311\n      swap1\n      tag_282\n      jump\t// in\n    tag_311:\n      mload(0x40)\n      dup1\n      swap2\n      sub\n      swap1\n      revert\n    tag_310:\n        /* \"SimpleSwap.sol\":4976:4982  tokenB */\n      dup11\n        /* \"SimpleSwap.sol\":4969:4996  IERC20(tokenB).transferFrom */\n      0xffffffffffffffffffffffffffffffffffffffff\n      and\n      0x23b872dd\n        /* \"SimpleSwap.sol\":4997:5007  msg.sender */\n      caller\n        /* \"SimpleSwap.sol\":5017:5021  this */\n      address\n        /* \"SimpleSwap.sol\":5024:5037  actualAmountB */\n      dup7\n        /* \"SimpleSwap.sol\":4969:5038  IERC20(tokenB).transferFrom(msg.sender, address(this), actualAmountB) */\n      mload(0x40)\n      dup5\n      0xffffffff\n      and\n      0xe0\n      shl\n      dup2\n      mstore\n      0x04\n      add\n      tag_312\n      swap4\n      swap3\n      swap2\n      swap1\n      tag_190\n      jump\t// in\n    tag_312:\n      0x20\n      mload(0x40)\n      dup1\n      dup4\n      sub\n      dup2\n      0x00\n      dup8\n      gas\n      call\n      iszero\n      dup1\n      iszero\n      tag_314\n      jumpi\n      returndatacopy(0x00, 0x00, returndatasize)\n      revert(0x00, returndatasize)\n    tag_314:\n      pop\n      pop\n      pop\n      pop\n      mload(0x40)\n      returndatasize\n      not(0x1f)\n      0x1f\n      dup3\n      add\n      and\n      dup3\n      add\n      dup1\n      0x40\n      mstore\n      pop\n      dup2\n      add\n      swap1\n      tag_315\n      swap2\n      swap1\n      tag_194\n      jump\t// in\n    tag_315:\n        /* \"SimpleSwap.sol\":4961:5063  require(IERC20(tokenB).transferFrom(msg.sender, address(this), actualAmountB), \"TokenBTransferFailed\") */\n      tag_316\n      jumpi\n      mload(0x40)\n      0x08c379a000000000000000000000000000000000000000000000000000000000\n      dup2\n      mstore\n      0x04\n      add\n      tag_317\n      swap1\n      tag_289\n      jump\t// in\n    tag_317:\n      mload(0x40)\n      dup1\n      swap2\n      sub\n      swap1\n      revert\n    tag_316:\n        /* \"SimpleSwap.sol\":5074:5107  _mint(recipient, liquidityTokens) */\n      tag_318\n        /* \"SimpleSwap.sol\":5080:5089  recipient */\n      dup7\n        /* \"SimpleSwap.sol\":5091:5106  liquidityTokens */\n      dup4\n        /* \"SimpleSwap.sol\":5074:5079  _mint */\n      tag_319\n        /* \"SimpleSwap.sol\":5074:5107  _mint(recipient, liquidityTokens) */\n      jump\t// in\n    tag_318:\n        /* \"SimpleSwap.sol\":5143:5153  msg.sender */\n      caller\n        /* \"SimpleSwap.sol\":5125:5201  LiquidityProvided(msg.sender, actualAmountA, actualAmountB, liquidityTokens) */\n      0xffffffffffffffffffffffffffffffffffffffff\n      and\n      0x3bca7014f4c0ccc8016338c79f4c00e82068dbadaf4f01ca5449040fdd39f500\n        /* \"SimpleSwap.sol\":5155:5168  actualAmountA */\n      dup6\n        /* \"SimpleSwap.sol\":5170:5183  actualAmountB */\n      dup6\n        /* \"SimpleSwap.sol\":5185:5200  liquidityTokens */\n      dup6\n        /* \"SimpleSwap.sol\":5125:5201  LiquidityProvided(msg.sender, actualAmountA, actualAmountB, liquidityTokens) */\n      mload(0x40)\n      tag_320\n      swap4\n      swap3\n      swap2\n      swap1\n      tag_104\n      jump\t// in\n    tag_320:\n      mload(0x40)\n      dup1\n      swap2\n      sub\n      swap1\n      log2\n        /* \"SimpleSwap.sol\":3903:5209  function addLiquidity(... */\n      pop\n      swap9\n      pop\n      swap9\n      pop\n      swap9\n      swap6\n      pop\n      pop\n      pop\n      pop\n      pop\n      pop\n      jump\t// out\n        /* \"@openzeppelin/contracts/utils/Context.sol\":656:752  function _msgSender() internal view virtual returns (address) {... */\n    tag_133:\n        /* \"@openzeppelin/contracts/utils/Context.sol\":709:716  address */\n      0x00\n        /* \"@openzeppelin/contracts/utils/Context.sol\":735:745  msg.sender */\n      caller\n        /* \"@openzeppelin/contracts/utils/Context.sol\":728:745  return msg.sender */\n      swap1\n      pop\n        /* \"@openzeppelin/contracts/utils/Context.sol\":656:752  function _msgSender() internal view virtual returns (address) {... */\n      swap1\n      jump\t// out\n        /* \"@openzeppelin/contracts/token/ERC20/ERC20.sol\":8707:8835  function _approve(address owner, address spender, uint256 value) internal {... */\n    tag_135:\n        /* \"@openzeppelin/contracts/token/ERC20/ERC20.sol\":8791:8828  _approve(owner, spender, value, true) */\n      tag_323\n        /* \"@openzeppelin/contracts/token/ERC20/ERC20.sol\":8800:8805  owner */\n      dup4\n        /* \"@openzeppelin/contracts/token/ERC20/ERC20.sol\":8807:8814  spender */\n      dup4\n        /* \"@openzeppelin/contracts/token/ERC20/ERC20.sol\":8816:8821  value */\n      dup4\n        /* \"@openzeppelin/contracts/token/ERC20/ERC20.sol\":8823:8827  true */\n      0x01\n        /* \"@openzeppelin/contracts/token/ERC20/ERC20.sol\":8791:8799  _approve */\n      tag_324\n        /* \"@openzeppelin/contracts/token/ERC20/ERC20.sol\":8791:8828  _approve(owner, spender, value, true) */\n      jump\t// in\n    tag_323:\n        /* \"@openzeppelin/contracts/token/ERC20/ERC20.sol\":8707:8835  function _approve(address owner, address spender, uint256 value) internal {... */\n      pop\n      pop\n      pop\n      jump\t// out\n        /* \"@openzeppelin/contracts/token/ERC20/ERC20.sol\":10396:10872  function _spendAllowance(address owner, address spender, uint256 value) internal virtual {... */\n    tag_140:\n        /* \"@openzeppelin/contracts/token/ERC20/ERC20.sol\":10495:10519  uint256 currentAllowance */\n      0x00\n        /* \"@openzeppelin/contracts/token/ERC20/ERC20.sol\":10522:10547  allowance(owner, spender) */\n      tag_326\n        /* \"@openzeppelin/contracts/token/ERC20/ERC20.sol\":10532:10537  owner */\n      dup5\n        /* \"@openzeppelin/contracts/token/ERC20/ERC20.sol\":10539:10546  spender */\n      dup5\n        /* \"@openzeppelin/contracts/token/ERC20/ERC20.sol\":10522:10531  allowance */\n      tag_97\n        /* \"@openzeppelin/contracts/token/ERC20/ERC20.sol\":10522:10547  allowance(owner, spender) */\n      jump\t// in\n    tag_326:\n        /* \"@openzeppelin/contracts/token/ERC20/ERC20.sol\":10495:10547  uint256 currentAllowance = allowance(owner, spender) */\n      swap1\n      pop\n        /* \"@openzeppelin/contracts/token/ERC20/ERC20.sol\":10580:10597  type(uint256).max */\n      0xffffffffffffffffffffffffffffffffffffffffffffffffffffffffffffffff\n        /* \"@openzeppelin/contracts/token/ERC20/ERC20.sol\":10561:10577  currentAllowance */\n      dup2\n        /* \"@openzeppelin/contracts/token/ERC20/ERC20.sol\":10561:10597  currentAllowance < type(uint256).max */\n      lt\n        /* \"@openzeppelin/contracts/token/ERC20/ERC20.sol\":10557:10866  if (currentAllowance < type(uint256).max) {... */\n      iszero\n      tag_327\n      jumpi\n        /* \"@openzeppelin/contracts/token/ERC20/ERC20.sol\":10636:10641  value */\n      dup2\n        /* \"@openzeppelin/contracts/token/ERC20/ERC20.sol\":10617:10633  currentAllowance */\n      dup2\n        /* \"@openzeppelin/contracts/token/ERC20/ERC20.sol\":10617:10641  currentAllowance < value */\n      lt\n        /* \"@openzeppelin/contracts/token/ERC20/ERC20.sol\":10613:10743  if (currentAllowance < value) {... */\n      iszero\n      tag_328\n      jumpi\n        /* \"@openzeppelin/contracts/token/ERC20/ERC20.sol\":10695:10702  spender */\n      dup3\n        /* \"@openzeppelin/contracts/token/ERC20/ERC20.sol\":10704:10720  currentAllowance */\n      dup2\n        /* \"@openzeppelin/contracts/token/ERC20/ERC20.sol\":10722:10727  value */\n      dup4\n        /* \"@openzeppelin/contracts/token/ERC20/ERC20.sol\":10668:10728  ERC20InsufficientAllowance(spender, currentAllowance, value) */\n      mload(0x40)\n      0xfb8f41b200000000000000000000000000000000000000000000000000000000\n      dup2\n      mstore\n      0x04\n      add\n      tag_329\n      swap4\n      swap3\n      swap2\n      swap1\n      tag_330\n      jump\t// in\n    tag_329:\n      mload(0x40)\n      dup1\n      swap2\n      sub\n      swap1\n      revert\n        /* \"@openzeppelin/contracts/token/ERC20/ERC20.sol\":10613:10743  if (currentAllowance < value) {... */\n    tag_328:\n        /* \"@openzeppelin/contracts/token/ERC20/ERC20.sol\":10784:10841  _approve(owner, spender, currentAllowance - value, false) */\n      tag_331\n        /* \"@openzeppelin/contracts/token/ERC20/ERC20.sol\":10793:10798  owner */\n      dup5\n        /* \"@openzeppelin/contracts/token/ERC20/ERC20.sol\":10800:10807  spender */\n      dup5\n        /* \"@openzeppelin/contracts/token/ERC20/ERC20.sol\":10828:10833  value */\n      dup5\n        /* \"@openzeppelin/contracts/token/ERC20/ERC20.sol\":10809:10825  currentAllowance */\n      dup5\n        /* \"@openzeppelin/contracts/token/ERC20/ERC20.sol\":10809:10833  currentAllowance - value */\n      sub\n        /* \"@openzeppelin/contracts/token/ERC20/ERC20.sol\":10835:10840  false */\n      0x00\n        /* \"@openzeppelin/contracts/token/ERC20/ERC20.sol\":10784:10792  _approve */\n      tag_324\n        /* \"@openzeppelin/contracts/token/ERC20/ERC20.sol\":10784:10841  _approve(owner, spender, currentAllowance - value, false) */\n      jump\t// in\n    tag_331:\n        /* \"@openzeppelin/contracts/token/ERC20/ERC20.sol\":10557:10866  if (currentAllowance < type(uint256).max) {... */\n    tag_327:\n        /* \"@openzeppelin/contracts/token/ERC20/ERC20.sol\":10485:10872  {... */\n      pop\n        /* \"@openzeppelin/contracts/token/ERC20/ERC20.sol\":10396:10872  function _spendAllowance(address owner, address spender, uint256 value) internal virtual {... */\n      pop\n      pop\n      pop\n      jump\t// out\n        /* \"@openzeppelin/contracts/token/ERC20/ERC20.sol\":5374:5674  function _transfer(address from, address to, uint256 value) internal {... */\n    tag_142:\n        /* \"@openzeppelin/contracts/token/ERC20/ERC20.sol\":5473:5474  0 */\n      0x00\n        /* \"@openzeppelin/contracts/token/ERC20/ERC20.sol\":5457:5475  from == address(0) */\n      0xffffffffffffffffffffffffffffffffffffffff\n      and\n        /* \"@openzeppelin/contracts/token/ERC20/ERC20.sol\":5457:5461  from */\n      dup4\n        /* \"@openzeppelin/contracts/token/ERC20/ERC20.sol\":5457:5475  from == address(0) */\n      0xffffffffffffffffffffffffffffffffffffffff\n      and\n      sub\n        /* \"@openzeppelin/contracts/token/ERC20/ERC20.sol\":5453:5539  if (from == address(0)) {... */\n      tag_333\n      jumpi\n        /* \"@openzeppelin/contracts/token/ERC20/ERC20.sol\":5525:5526  0 */\n      0x00\n        /* \"@openzeppelin/contracts/token/ERC20/ERC20.sol\":5498:5528  ERC20InvalidSender(address(0)) */\n      mload(0x40)\n      0x96c6fd1e00000000000000000000000000000000000000000000000000000000\n      dup2\n      mstore\n      0x04\n      add\n      tag_334\n      swap2\n      swap1\n      tag_50\n      jump\t// in\n    tag_334:\n      mload(0x40)\n      dup1\n      swap2\n      sub\n      swap1\n      revert\n        /* \"@openzeppelin/contracts/token/ERC20/ERC20.sol\":5453:5539  if (from == address(0)) {... */\n    tag_333:\n        /* \"@openzeppelin/contracts/token/ERC20/ERC20.sol\":5566:5567  0 */\n      0x00\n        /* \"@openzeppelin/contracts/token/ERC20/ERC20.sol\":5552:5568  to == address(0) */\n      0xffffffffffffffffffffffffffffffffffffffff\n      and\n        /* \"@openzeppelin/contracts/token/ERC20/ERC20.sol\":5552:5554  to */\n      dup3\n        /* \"@openzeppelin/contracts/token/ERC20/ERC20.sol\":5552:5568  to == address(0) */\n      0xffffffffffffffffffffffffffffffffffffffff\n      and\n      sub\n        /* \"@openzeppelin/contracts/token/ERC20/ERC20.sol\":5548:5634  if (to == address(0)) {... */\n      tag_335\n      jumpi\n        /* \"@openzeppelin/contracts/token/ERC20/ERC20.sol\":5620:5621  0 */\n      0x00\n        /* \"@openzeppelin/contracts/token/ERC20/ERC20.sol\":5591:5623  ERC20InvalidReceiver(address(0)) */\n      mload(0x40)\n      0xec442f0500000000000000000000000000000000000000000000000000000000\n      dup2\n      mstore\n      0x04\n      add\n      tag_336\n      swap2\n      swap1\n      tag_50\n      jump\t// in\n    tag_336:\n      mload(0x40)\n      dup1\n      swap2\n      sub\n      swap1\n      revert\n        /* \"@openzeppelin/contracts/token/ERC20/ERC20.sol\":5548:5634  if (to == address(0)) {... */\n    tag_335:\n        /* \"@openzeppelin/contracts/token/ERC20/ERC20.sol\":5643:5667  _update(from, to, value) */\n      tag_337\n        /* \"@openzeppelin/contracts/token/ERC20/ERC20.sol\":5651:5655  from */\n      dup4\n        /* \"@openzeppelin/contracts/token/ERC20/ERC20.sol\":5657:5659  to */\n      dup4\n        /* \"@openzeppelin/contracts/token/ERC20/ERC20.sol\":5661:5666  value */\n      dup4\n        /* \"@openzeppelin/contracts/token/ERC20/ERC20.sol\":5643:5650  _update */\n      tag_338\n        /* \"@openzeppelin/contracts/token/ERC20/ERC20.sol\":5643:5667  _update(from, to, value) */\n      jump\t// in\n    tag_337:\n        /* \"@openzeppelin/contracts/token/ERC20/ERC20.sol\":5374:5674  function _transfer(address from, address to, uint256 value) internal {... */\n      pop\n      pop\n      pop\n      jump\t// out\n        /* \"SimpleSwap.sol\":14525:14735  function _isValidTokenPair(address tokenA, address tokenB) internal view returns (bool isValid) {... */\n    tag_163:\n        /* \"SimpleSwap.sol\":14607:14619  bool isValid */\n      0x00\n        /* \"SimpleSwap.sol\":14650:14658  ekaToken */\n      immutable(\"0x3ad1041c7fca4b981ec9df1cdec68238bc49ef0c518c8c6bf20002aeca8bde61\")\n        /* \"SimpleSwap.sol\":14640:14658  tokenA == ekaToken */\n      0xffffffffffffffffffffffffffffffffffffffff\n      and\n        /* \"SimpleSwap.sol\":14640:14646  tokenA */\n      dup4\n        /* \"SimpleSwap.sol\":14640:14658  tokenA == ekaToken */\n      0xffffffffffffffffffffffffffffffffffffffff\n      and\n      eq\n        /* \"SimpleSwap.sol\":14640:14680  tokenA == ekaToken && tokenB == ekbToken */\n      dup1\n      iszero\n      tag_340\n      jumpi\n      pop\n        /* \"SimpleSwap.sol\":14672:14680  ekbToken */\n      immutable(\"0xbb3f2e621eeffbebbfb22debd922d40ff430acea77036fb1a161fb2091c11198\")\n        /* \"SimpleSwap.sol\":14662:14680  tokenB == ekbToken */\n      0xffffffffffffffffffffffffffffffffffffffff\n      and\n        /* \"SimpleSwap.sol\":14662:14668  tokenB */\n      dup3\n        /* \"SimpleSwap.sol\":14662:14680  tokenB == ekbToken */\n      0xffffffffffffffffffffffffffffffffffffffff\n      and\n      eq\n        /* \"SimpleSwap.sol\":14640:14680  tokenA == ekaToken && tokenB == ekbToken */\n    tag_340:\n        /* \"SimpleSwap.sol\":14639:14727  (tokenA == ekaToken && tokenB == ekbToken) || (tokenA == ekbToken && tokenB == ekaToken) */\n      dup1\n      tag_341\n      jumpi\n      pop\n        /* \"SimpleSwap.sol\":14696:14704  ekbToken */\n      immutable(\"0xbb3f2e621eeffbebbfb22debd922d40ff430acea77036fb1a161fb2091c11198\")\n        /* \"SimpleSwap.sol\":14686:14704  tokenA == ekbToken */\n      0xffffffffffffffffffffffffffffffffffffffff\n      and\n        /* \"SimpleSwap.sol\":14686:14692  tokenA */\n      dup4\n        /* \"SimpleSwap.sol\":14686:14704  tokenA == ekbToken */\n      0xffffffffffffffffffffffffffffffffffffffff\n      and\n      eq\n        /* \"SimpleSwap.sol\":14686:14726  tokenA == ekbToken && tokenB == ekaToken */\n      dup1\n      iszero\n      tag_342\n      jumpi\n      pop\n        /* \"SimpleSwap.sol\":14718:14726  ekaToken */\n      immutable(\"0x3ad1041c7fca4b981ec9df1cdec68238bc49ef0c518c8c6bf20002aeca8bde61\")\n        /* \"SimpleSwap.sol\":14708:14726  tokenB == ekaToken */\n      0xffffffffffffffffffffffffffffffffffffffff\n      and\n        /* \"SimpleSwap.sol\":14708:14714  tokenB */\n      dup3\n        /* \"SimpleSwap.sol\":14708:14726  tokenB == ekaToken */\n      0xffffffffffffffffffffffffffffffffffffffff\n      and\n      eq\n        /* \"SimpleSwap.sol\":14686:14726  tokenA == ekbToken && tokenB == ekaToken */\n    tag_342:\n        /* \"SimpleSwap.sol\":14639:14727  (tokenA == ekaToken && tokenB == ekbToken) || (tokenA == ekbToken && tokenB == ekaToken) */\n    tag_341:\n        /* \"SimpleSwap.sol\":14632:14727  return (tokenA == ekaToken && tokenB == ekbToken) || (tokenA == ekbToken && tokenB == ekaToken) */\n      swap1\n      pop\n        /* \"SimpleSwap.sol\":14525:14735  function _isValidTokenPair(address tokenA, address tokenB) internal view returns (bool isValid) {... */\n      swap3\n      swap2\n      pop\n      pop\n      jump\t// out\n        /* \"SimpleSwap.sol\":13564:14269  function _calculateSwapOutput(uint256 inputAmount, uint256 inputReserve, uint256 outputReserve) ... */\n    tag_182:\n        /* \"SimpleSwap.sol\":13693:13713  uint256 outputAmount */\n      0x00\n        /* \"SimpleSwap.sol\":13749:13750  0 */\n      0x00\n        /* \"SimpleSwap.sol\":13734:13746  inputReserve */\n      dup4\n        /* \"SimpleSwap.sol\":13734:13750  inputReserve > 0 */\n      gt\n        /* \"SimpleSwap.sol\":13734:13771  inputReserve > 0 && outputReserve > 0 */\n      dup1\n      iszero\n      tag_344\n      jumpi\n      pop\n        /* \"SimpleSwap.sol\":13770:13771  0 */\n      0x00\n        /* \"SimpleSwap.sol\":13754:13767  outputReserve */\n      dup3\n        /* \"SimpleSwap.sol\":13754:13771  outputReserve > 0 */\n      gt\n        /* \"SimpleSwap.sol\":13734:13771  inputReserve > 0 && outputReserve > 0 */\n    tag_344:\n        /* \"SimpleSwap.sol\":13726:13796  require(inputReserve > 0 && outputReserve > 0, \"InsufficientReserves\") */\n      tag_345\n      jumpi\n      mload(0x40)\n      0x08c379a000000000000000000000000000000000000000000000000000000000\n      dup2\n      mstore\n      0x04\n      add\n      tag_346\n      swap1\n      tag_109\n      jump\t// in\n    tag_346:\n      mload(0x40)\n      dup1\n      swap2\n      sub\n      swap1\n      revert\n    tag_345:\n        /* \"SimpleSwap.sol\":14024:14044  uint256 inputWithFee */\n      0x00\n        /* \"SimpleSwap.sol\":1128:1131  997 */\n      0x03e5\n        /* \"SimpleSwap.sol\":14047:14058  inputAmount */\n      dup6\n        /* \"SimpleSwap.sol\":14047:14071  inputAmount * FEE_FACTOR */\n      tag_347\n      swap2\n      swap1\n      tag_111\n      jump\t// in\n    tag_347:\n        /* \"SimpleSwap.sol\":14024:14071  uint256 inputWithFee = inputAmount * FEE_FACTOR */\n      swap1\n      pop\n        /* \"SimpleSwap.sol\":14082:14099  uint256 numerator */\n      0x00\n        /* \"SimpleSwap.sol\":14117:14130  outputReserve */\n      dup4\n        /* \"SimpleSwap.sol\":14102:14114  inputWithFee */\n      dup3\n        /* \"SimpleSwap.sol\":14102:14130  inputWithFee * outputReserve */\n      tag_348\n      swap2\n      swap1\n      tag_111\n      jump\t// in\n    tag_348:\n        /* \"SimpleSwap.sol\":14082:14130  uint256 numerator = inputWithFee * outputReserve */\n      swap1\n      pop\n        /* \"SimpleSwap.sol\":14141:14160  uint256 denominator */\n      0x00\n        /* \"SimpleSwap.sol\":14198:14210  inputWithFee */\n      dup3\n        /* \"SimpleSwap.sol\":1181:1185  1000 */\n      0x03e8\n        /* \"SimpleSwap.sol\":14164:14176  inputReserve */\n      dup8\n        /* \"SimpleSwap.sol\":14164:14194  inputReserve * FEE_DENOMINATOR */\n      tag_349\n      swap2\n      swap1\n      tag_111\n      jump\t// in\n    tag_349:\n        /* \"SimpleSwap.sol\":14163:14210  (inputReserve * FEE_DENOMINATOR) + inputWithFee */\n      tag_350\n      swap2\n      swap1\n      tag_351\n      jump\t// in\n    tag_350:\n        /* \"SimpleSwap.sol\":14141:14210  uint256 denominator = (inputReserve * FEE_DENOMINATOR) + inputWithFee */\n      swap1\n      pop\n        /* \"SimpleSwap.sol\":14250:14261  denominator */\n      dup1\n        /* \"SimpleSwap.sol\":14238:14247  numerator */\n      dup3\n        /* \"SimpleSwap.sol\":14238:14261  numerator / denominator */\n      tag_352\n      swap2\n      swap1\n      tag_113\n      jump\t// in\n    tag_352:\n        /* \"SimpleSwap.sol\":14231:14261  return numerator / denominator */\n      swap4\n      pop\n      pop\n      pop\n      pop\n        /* \"SimpleSwap.sol\":13564:14269  function _calculateSwapOutput(uint256 inputAmount, uint256 inputReserve, uint256 outputReserve) ... */\n      swap4\n      swap3\n      pop\n      pop\n      pop\n      jump\t// out\n        /* \"@openzeppelin/contracts/token/ERC20/ERC20.sol\":7965:8171  function _burn(address account, uint256 value) internal {... */\n    tag_291:\n        /* \"@openzeppelin/contracts/token/ERC20/ERC20.sol\":8054:8055  0 */\n      0x00\n        /* \"@openzeppelin/contracts/token/ERC20/ERC20.sol\":8035:8056  account == address(0) */\n      0xffffffffffffffffffffffffffffffffffffffff\n      and\n        /* \"@openzeppelin/contracts/token/ERC20/ERC20.sol\":8035:8042  account */\n      dup3\n        /* \"@openzeppelin/contracts/token/ERC20/ERC20.sol\":8035:8056  account == address(0) */\n      0xffffffffffffffffffffffffffffffffffffffff\n      and\n      sub\n        /* \"@openzeppelin/contracts/token/ERC20/ERC20.sol\":8031:8120  if (account == address(0)) {... */\n      tag_354\n      jumpi\n        /* \"@openzeppelin/contracts/token/ERC20/ERC20.sol\":8106:8107  0 */\n      0x00\n        /* \"@openzeppelin/contracts/token/ERC20/ERC20.sol\":8079:8109  ERC20InvalidSender(address(0)) */\n      mload(0x40)\n      0x96c6fd1e00000000000000000000000000000000000000000000000000000000\n      dup2\n      mstore\n      0x04\n      add\n      tag_355\n      swap2\n      swap1\n      tag_50\n      jump\t// in\n    tag_355:\n      mload(0x40)\n      dup1\n      swap2\n      sub\n      swap1\n      revert\n        /* \"@openzeppelin/contracts/token/ERC20/ERC20.sol\":8031:8120  if (account == address(0)) {... */\n    tag_354:\n        /* \"@openzeppelin/contracts/token/ERC20/ERC20.sol\":8129:8164  _update(account, address(0), value) */\n      tag_356\n        /* \"@openzeppelin/contracts/token/ERC20/ERC20.sol\":8137:8144  account */\n      dup3\n        /* \"@openzeppelin/contracts/token/ERC20/ERC20.sol\":8154:8155  0 */\n      0x00\n        /* \"@openzeppelin/contracts/token/ERC20/ERC20.sol\":8158:8163  value */\n      dup4\n        /* \"@openzeppelin/contracts/token/ERC20/ERC20.sol\":8129:8136  _update */\n      tag_338\n        /* \"@openzeppelin/contracts/token/ERC20/ERC20.sol\":8129:8164  _update(account, address(0), value) */\n      jump\t// in\n    tag_356:\n        /* \"@openzeppelin/contracts/token/ERC20/ERC20.sol\":7965:8171  function _burn(address account, uint256 value) internal {... */\n      pop\n      pop\n      jump\t// out\n        /* \"SimpleSwap.sol\":5798:7389  function _calculateLiquidityAmounts(... */\n    tag_305:\n        /* \"SimpleSwap.sol\":6046:6067  uint256 actualAmountA */\n      0x00\n        /* \"SimpleSwap.sol\":6069:6090  uint256 actualAmountB */\n      0x00\n        /* \"SimpleSwap.sol\":6092:6115  uint256 liquidityTokens */\n      0x00\n        /* \"SimpleSwap.sol\":6171:6187  uint256 reserveA */\n      0x00\n        /* \"SimpleSwap.sol\":6197:6203  tokenA */\n      dup10\n        /* \"SimpleSwap.sol\":6190:6214  IERC20(tokenA).balanceOf */\n      0xffffffffffffffffffffffffffffffffffffffff\n      and\n      0x70a08231\n        /* \"SimpleSwap.sol\":6223:6227  this */\n      address\n        /* \"SimpleSwap.sol\":6190:6229  IERC20(tokenA).balanceOf(address(this)) */\n      mload(0x40)\n      dup3\n      0xffffffff\n      and\n      0xe0\n      shl\n      dup2\n      mstore\n      0x04\n      add\n      tag_358\n      swap2\n      swap1\n      tag_50\n      jump\t// in\n    tag_358:\n      0x20\n      mload(0x40)\n      dup1\n      dup4\n      sub\n      dup2\n      dup7\n      gas\n      staticcall\n      iszero\n      dup1\n      iszero\n      tag_360\n      jumpi\n      returndatacopy(0x00, 0x00, returndatasize)\n      revert(0x00, returndatasize)\n    tag_360:\n      pop\n      pop\n      pop\n      pop\n      mload(0x40)\n      returndatasize\n      not(0x1f)\n      0x1f\n      dup3\n      add\n      and\n      dup3\n      add\n      dup1\n      0x40\n      mstore\n      pop\n      dup2\n      add\n      swap1\n      tag_361\n      swap2\n      swap1\n      tag_126\n      jump\t// in\n    tag_361:\n        /* \"SimpleSwap.sol\":6171:6229  uint256 reserveA = IERC20(tokenA).balanceOf(address(this)) */\n      swap1\n      pop\n        /* \"SimpleSwap.sol\":6240:6256  uint256 reserveB */\n      0x00\n        /* \"SimpleSwap.sol\":6266:6272  tokenB */\n      dup10\n        /* \"SimpleSwap.sol\":6259:6283  IERC20(tokenB).balanceOf */\n      0xffffffffffffffffffffffffffffffffffffffff\n      and\n      0x70a08231\n        /* \"SimpleSwap.sol\":6292:6296  this */\n      address\n        /* \"SimpleSwap.sol\":6259:6298  IERC20(tokenB).balanceOf(address(this)) */\n      mload(0x40)\n      dup3\n      0xffffffff\n      and\n      0xe0\n      shl\n      dup2\n      mstore\n      0x04\n      add\n      tag_362\n      swap2\n      swap1\n      tag_50\n      jump\t// in\n    tag_362:\n      0x20\n      mload(0x40)\n      dup1\n      dup4\n      sub\n      dup2\n      dup7\n      gas\n      staticcall\n      iszero\n      dup1\n      iszero\n      tag_364\n      jumpi\n      returndatacopy(0x00, 0x00, returndatasize)\n      revert(0x00, returndatasize)\n    tag_364:\n      pop\n      pop\n      pop\n      pop\n      mload(0x40)\n      returndatasize\n      not(0x1f)\n      0x1f\n      dup3\n      add\n      and\n      dup3\n      add\n      dup1\n      0x40\n      mstore\n      pop\n      dup2\n      add\n      swap1\n      tag_365\n      swap2\n      swap1\n      tag_126\n      jump\t// in\n    tag_365:\n        /* \"SimpleSwap.sol\":6240:6298  uint256 reserveB = IERC20(tokenB).balanceOf(address(this)) */\n      swap1\n      pop\n        /* \"SimpleSwap.sol\":6370:6371  0 */\n      0x00\n        /* \"SimpleSwap.sol\":6358:6366  reserveA */\n      dup3\n        /* \"SimpleSwap.sol\":6358:6371  reserveA == 0 */\n      eq\n        /* \"SimpleSwap.sol\":6358:6388  reserveA == 0 && reserveB == 0 */\n      dup1\n      iszero\n      tag_366\n      jumpi\n      pop\n        /* \"SimpleSwap.sol\":6387:6388  0 */\n      0x00\n        /* \"SimpleSwap.sol\":6375:6383  reserveB */\n      dup2\n        /* \"SimpleSwap.sol\":6375:6388  reserveB == 0 */\n      eq\n        /* \"SimpleSwap.sol\":6358:6388  reserveA == 0 && reserveB == 0 */\n    tag_366:\n        /* \"SimpleSwap.sol\":6354:6484  if (reserveA == 0 && reserveB == 0) {... */\n      iszero\n      tag_367\n      jumpi\n        /* \"SimpleSwap.sol\":660:661  1 */\n      0x01\n        /* \"SimpleSwap.sol\":6405:6431  reserveA = INITIAL_RESERVE */\n      swap2\n      pop\n        /* \"SimpleSwap.sol\":660:661  1 */\n      0x01\n        /* \"SimpleSwap.sol\":6446:6472  reserveB = INITIAL_RESERVE */\n      swap1\n      pop\n        /* \"SimpleSwap.sol\":6354:6484  if (reserveA == 0 && reserveB == 0) {... */\n    tag_367:\n        /* \"SimpleSwap.sol\":6534:6550  uint256 optimalA */\n      0x00\n        /* \"SimpleSwap.sol\":6553:6601  getAmountOut(desiredAmountB, reserveB, reserveA) */\n      tag_368\n        /* \"SimpleSwap.sol\":6566:6580  desiredAmountB */\n      dup10\n        /* \"SimpleSwap.sol\":6582:6590  reserveB */\n      dup4\n        /* \"SimpleSwap.sol\":6592:6600  reserveA */\n      dup6\n        /* \"SimpleSwap.sol\":6553:6565  getAmountOut */\n      tag_27\n        /* \"SimpleSwap.sol\":6553:6601  getAmountOut(desiredAmountB, reserveB, reserveA) */\n      jump\t// in\n    tag_368:\n        /* \"SimpleSwap.sol\":6534:6601  uint256 optimalA = getAmountOut(desiredAmountB, reserveB, reserveA) */\n      swap1\n      pop\n        /* \"SimpleSwap.sol\":6628:6642  desiredAmountA */\n      dup10\n        /* \"SimpleSwap.sol\":6616:6624  optimalA */\n      dup2\n        /* \"SimpleSwap.sol\":6616:6642  optimalA <= desiredAmountA */\n      gt\n        /* \"SimpleSwap.sol\":6612:7080  if (optimalA <= desiredAmountA) {... */\n      tag_369\n      jumpi\n        /* \"SimpleSwap.sol\":6679:6693  minimumAmountA */\n      dup8\n        /* \"SimpleSwap.sol\":6667:6675  optimalA */\n      dup2\n        /* \"SimpleSwap.sol\":6667:6693  optimalA >= minimumAmountA */\n      lt\n      iszero\n        /* \"SimpleSwap.sol\":6659:6722  require(optimalA >= minimumAmountA, \"InsufficientTokenAAmount\") */\n      tag_370\n      jumpi\n      mload(0x40)\n      0x08c379a000000000000000000000000000000000000000000000000000000000\n      dup2\n      mstore\n      0x04\n      add\n      tag_371\n      swap1\n      tag_272\n      jump\t// in\n    tag_371:\n      mload(0x40)\n      dup1\n      swap2\n      sub\n      swap1\n      revert\n    tag_370:\n        /* \"SimpleSwap.sol\":6753:6761  optimalA */\n      dup1\n        /* \"SimpleSwap.sol\":6737:6761  actualAmountA = optimalA */\n      swap6\n      pop\n        /* \"SimpleSwap.sol\":6792:6806  desiredAmountB */\n      dup9\n        /* \"SimpleSwap.sol\":6776:6806  actualAmountB = desiredAmountB */\n      swap5\n      pop\n        /* \"SimpleSwap.sol\":6612:7080  if (optimalA <= desiredAmountA) {... */\n      jump(tag_372)\n    tag_369:\n        /* \"SimpleSwap.sol\":6839:6855  uint256 optimalB */\n      0x00\n        /* \"SimpleSwap.sol\":6858:6906  getAmountOut(desiredAmountA, reserveA, reserveB) */\n      tag_373\n        /* \"SimpleSwap.sol\":6871:6885  desiredAmountA */\n      dup12\n        /* \"SimpleSwap.sol\":6887:6895  reserveA */\n      dup6\n        /* \"SimpleSwap.sol\":6897:6905  reserveB */\n      dup6\n        /* \"SimpleSwap.sol\":6858:6870  getAmountOut */\n      tag_27\n        /* \"SimpleSwap.sol\":6858:6906  getAmountOut(desiredAmountA, reserveA, reserveB) */\n      jump\t// in\n    tag_373:\n        /* \"SimpleSwap.sol\":6839:6906  uint256 optimalB = getAmountOut(desiredAmountA, reserveA, reserveB) */\n      swap1\n      pop\n        /* \"SimpleSwap.sol\":6941:6955  minimumAmountB */\n      dup8\n        /* \"SimpleSwap.sol\":6929:6937  optimalB */\n      dup2\n        /* \"SimpleSwap.sol\":6929:6955  optimalB >= minimumAmountB */\n      lt\n      iszero\n        /* \"SimpleSwap.sol\":6921:6984  require(optimalB >= minimumAmountB, \"InsufficientTokenBAmount\") */\n      tag_374\n      jumpi\n      mload(0x40)\n      0x08c379a000000000000000000000000000000000000000000000000000000000\n      dup2\n      mstore\n      0x04\n      add\n      tag_375\n      swap1\n      tag_275\n      jump\t// in\n    tag_375:\n      mload(0x40)\n      dup1\n      swap2\n      sub\n      swap1\n      revert\n    tag_374:\n        /* \"SimpleSwap.sol\":7015:7029  desiredAmountA */\n      dup11\n        /* \"SimpleSwap.sol\":6999:7029  actualAmountA = desiredAmountA */\n      swap7\n      pop\n        /* \"SimpleSwap.sol\":7060:7068  optimalB */\n      dup1\n        /* \"SimpleSwap.sol\":7044:7068  actualAmountB = optimalB */\n      swap6\n      pop\n        /* \"SimpleSwap.sol\":6824:7080  {... */\n      pop\n        /* \"SimpleSwap.sol\":6612:7080  if (optimalA <= desiredAmountA) {... */\n    tag_372:\n        /* \"SimpleSwap.sol\":7139:7153  uint256 supply */\n      0x00\n        /* \"SimpleSwap.sol\":7156:7169  totalSupply() */\n      tag_376\n        /* \"SimpleSwap.sol\":7156:7167  totalSupply */\n      tag_45\n        /* \"SimpleSwap.sol\":7156:7169  totalSupply() */\n      jump\t// in\n    tag_376:\n        /* \"SimpleSwap.sol\":7139:7169  uint256 supply = totalSupply() */\n      swap1\n      pop\n        /* \"SimpleSwap.sol\":7180:7198  uint256 liquidityA */\n      0x00\n        /* \"SimpleSwap.sol\":7228:7236  reserveA */\n      dup5\n        /* \"SimpleSwap.sol\":7218:7224  supply */\n      dup3\n        /* \"SimpleSwap.sol\":7202:7215  actualAmountA */\n      dup10\n        /* \"SimpleSwap.sol\":7202:7224  actualAmountA * supply */\n      tag_377\n      swap2\n      swap1\n      tag_111\n      jump\t// in\n    tag_377:\n        /* \"SimpleSwap.sol\":7201:7236  (actualAmountA * supply) / reserveA */\n      tag_378\n      swap2\n      swap1\n      tag_113\n      jump\t// in\n    tag_378:\n        /* \"SimpleSwap.sol\":7180:7236  uint256 liquidityA = (actualAmountA * supply) / reserveA */\n      swap1\n      pop\n        /* \"SimpleSwap.sol\":7247:7265  uint256 liquidityB */\n      0x00\n        /* \"SimpleSwap.sol\":7295:7303  reserveB */\n      dup5\n        /* \"SimpleSwap.sol\":7285:7291  supply */\n      dup4\n        /* \"SimpleSwap.sol\":7269:7282  actualAmountB */\n      dup10\n        /* \"SimpleSwap.sol\":7269:7291  actualAmountB * supply */\n      tag_379\n      swap2\n      swap1\n      tag_111\n      jump\t// in\n    tag_379:\n        /* \"SimpleSwap.sol\":7268:7303  (actualAmountB * supply) / reserveB */\n      tag_380\n      swap2\n      swap1\n      tag_113\n      jump\t// in\n    tag_380:\n        /* \"SimpleSwap.sol\":7247:7303  uint256 liquidityB = (actualAmountB * supply) / reserveB */\n      swap1\n      pop\n        /* \"SimpleSwap.sol\":7345:7355  liquidityB */\n      dup1\n        /* \"SimpleSwap.sol\":7332:7342  liquidityA */\n      dup3\n        /* \"SimpleSwap.sol\":7332:7355  liquidityA < liquidityB */\n      lt\n        /* \"SimpleSwap.sol\":7332:7381  liquidityA < liquidityB ? liquidityA : liquidityB */\n      tag_381\n      jumpi\n        /* \"SimpleSwap.sol\":7371:7381  liquidityB */\n      dup1\n        /* \"SimpleSwap.sol\":7332:7381  liquidityA < liquidityB ? liquidityA : liquidityB */\n      jump(tag_382)\n    tag_381:\n        /* \"SimpleSwap.sol\":7358:7368  liquidityA */\n      dup2\n        /* \"SimpleSwap.sol\":7332:7381  liquidityA < liquidityB ? liquidityA : liquidityB */\n    tag_382:\n        /* \"SimpleSwap.sol\":7314:7381  liquidityTokens = liquidityA < liquidityB ? liquidityA : liquidityB */\n      swap7\n      pop\n        /* \"SimpleSwap.sol\":6117:7389  {... */\n      pop\n      pop\n      pop\n      pop\n      pop\n      pop\n        /* \"SimpleSwap.sol\":5798:7389  function _calculateLiquidityAmounts(... */\n      swap7\n      pop\n      swap7\n      pop\n      swap7\n      swap4\n      pop\n      pop\n      pop\n      pop\n      jump\t// out\n        /* \"@openzeppelin/contracts/token/ERC20/ERC20.sol\":7439:7647  function _mint(address account, uint256 value) internal {... */\n    tag_319:\n        /* \"@openzeppelin/contracts/token/ERC20/ERC20.sol\":7528:7529  0 */\n      0x00\n        /* \"@openzeppelin/contracts/token/ERC20/ERC20.sol\":7509:7530  account == address(0) */\n      0xffffffffffffffffffffffffffffffffffffffff\n      and\n        /* \"@openzeppelin/contracts/token/ERC20/ERC20.sol\":7509:7516  account */\n      dup3\n        /* \"@openzeppelin/contracts/token/ERC20/ERC20.sol\":7509:7530  account == address(0) */\n      0xffffffffffffffffffffffffffffffffffffffff\n      and\n      sub\n        /* \"@openzeppelin/contracts/token/ERC20/ERC20.sol\":7505:7596  if (account == address(0)) {... */\n      tag_384\n      jumpi\n        /* \"@openzeppelin/contracts/token/ERC20/ERC20.sol\":7582:7583  0 */\n      0x00\n        /* \"@openzeppelin/contracts/token/ERC20/ERC20.sol\":7553:7585  ERC20InvalidReceiver(address(0)) */\n      mload(0x40)\n      0xec442f0500000000000000000000000000000000000000000000000000000000\n      dup2\n      mstore\n      0x04\n      add\n      tag_385\n      swap2\n      swap1\n      tag_50\n      jump\t// in\n    tag_385:\n      mload(0x40)\n      dup1\n      swap2\n      sub\n      swap1\n      revert\n        /* \"@openzeppelin/contracts/token/ERC20/ERC20.sol\":7505:7596  if (account == address(0)) {... */\n    tag_384:\n        /* \"@openzeppelin/contracts/token/ERC20/ERC20.sol\":7605:7640  _update(address(0), account, value) */\n      tag_386\n        /* \"@openzeppelin/contracts/token/ERC20/ERC20.sol\":7621:7622  0 */\n      0x00\n        /* \"@openzeppelin/contracts/token/ERC20/ERC20.sol\":7625:7632  account */\n      dup4\n        /* \"@openzeppelin/contracts/token/ERC20/ERC20.sol\":7634:7639  value */\n      dup4\n        /* \"@openzeppelin/contracts/token/ERC20/ERC20.sol\":7605:7612  _update */\n      tag_338\n        /* \"@openzeppelin/contracts/token/ERC20/ERC20.sol\":7605:7640  _update(address(0), account, value) */\n      jump\t// in\n    tag_386:\n        /* \"@openzeppelin/contracts/token/ERC20/ERC20.sol\":7439:7647  function _mint(address account, uint256 value) internal {... */\n      pop\n      pop\n      jump\t// out\n        /* \"@openzeppelin/contracts/token/ERC20/ERC20.sol\":9682:10114  function _approve(address owner, address spender, uint256 value, bool emitEvent) internal virtual {... */\n    tag_324:\n        /* \"@openzeppelin/contracts/token/ERC20/ERC20.sol\":9811:9812  0 */\n      0x00\n        /* \"@openzeppelin/contracts/token/ERC20/ERC20.sol\":9794:9813  owner == address(0) */\n      0xffffffffffffffffffffffffffffffffffffffff\n      and\n        /* \"@openzeppelin/contracts/token/ERC20/ERC20.sol\":9794:9799  owner */\n      dup5\n        /* \"@openzeppelin/contracts/token/ERC20/ERC20.sol\":9794:9813  owner == address(0) */\n      0xffffffffffffffffffffffffffffffffffffffff\n      and\n      sub\n        /* \"@openzeppelin/contracts/token/ERC20/ERC20.sol\":9790:9879  if (owner == address(0)) {... */\n      tag_388\n      jumpi\n        /* \"@openzeppelin/contracts/token/ERC20/ERC20.sol\":9865:9866  0 */\n      0x00\n        /* \"@openzeppelin/contracts/token/ERC20/ERC20.sol\":9836:9868  ERC20InvalidApprover(address(0)) */\n      mload(0x40)\n      0xe602df0500000000000000000000000000000000000000000000000000000000\n      dup2\n      mstore\n      0x04\n      add\n      tag_389\n      swap2\n      swap1\n      tag_50\n      jump\t// in\n    tag_389:\n      mload(0x40)\n      dup1\n      swap2\n      sub\n      swap1\n      revert\n        /* \"@openzeppelin/contracts/token/ERC20/ERC20.sol\":9790:9879  if (owner == address(0)) {... */\n    tag_388:\n        /* \"@openzeppelin/contracts/token/ERC20/ERC20.sol\":9911:9912  0 */\n      0x00\n        /* \"@openzeppelin/contracts/token/ERC20/ERC20.sol\":9892:9913  spender == address(0) */\n      0xffffffffffffffffffffffffffffffffffffffff\n      and\n        /* \"@openzeppelin/contracts/token/ERC20/ERC20.sol\":9892:9899  spender */\n      dup4\n        /* \"@openzeppelin/contracts/token/ERC20/ERC20.sol\":9892:9913  spender == address(0) */\n      0xffffffffffffffffffffffffffffffffffffffff\n      and\n      sub\n        /* \"@openzeppelin/contracts/token/ERC20/ERC20.sol\":9888:9978  if (spender == address(0)) {... */\n      tag_390\n      jumpi\n        /* \"@openzeppelin/contracts/token/ERC20/ERC20.sol\":9964:9965  0 */\n      0x00\n        /* \"@openzeppelin/contracts/token/ERC20/ERC20.sol\":9936:9967  ERC20InvalidSpender(address(0)) */\n      mload(0x40)\n      0x94280d6200000000000000000000000000000000000000000000000000000000\n      dup2\n      mstore\n      0x04\n      add\n      tag_391\n      swap2\n      swap1\n      tag_50\n      jump\t// in\n    tag_391:\n      mload(0x40)\n      dup1\n      swap2\n      sub\n      swap1\n      revert\n        /* \"@openzeppelin/contracts/token/ERC20/ERC20.sol\":9888:9978  if (spender == address(0)) {... */\n    tag_390:\n        /* \"@openzeppelin/contracts/token/ERC20/ERC20.sol\":10017:10022  value */\n      dup2\n        /* \"@openzeppelin/contracts/token/ERC20/ERC20.sol\":9987:9998  _allowances */\n      0x01\n        /* \"@openzeppelin/contracts/token/ERC20/ERC20.sol\":9987:10005  _allowances[owner] */\n      0x00\n        /* \"@openzeppelin/contracts/token/ERC20/ERC20.sol\":9999:10004  owner */\n      dup7\n        /* \"@openzeppelin/contracts/token/ERC20/ERC20.sol\":9987:10005  _allowances[owner] */\n      0xffffffffffffffffffffffffffffffffffffffff\n      and\n      0xffffffffffffffffffffffffffffffffffffffff\n      and\n      dup2\n      mstore\n      0x20\n      add\n      swap1\n      dup2\n      mstore\n      0x20\n      add\n      0x00\n      keccak256\n        /* \"@openzeppelin/contracts/token/ERC20/ERC20.sol\":9987:10014  _allowances[owner][spender] */\n      0x00\n        /* \"@openzeppelin/contracts/token/ERC20/ERC20.sol\":10006:10013  spender */\n      dup6\n        /* \"@openzeppelin/contracts/token/ERC20/ERC20.sol\":9987:10014  _allowances[owner][spender] */\n      0xffffffffffffffffffffffffffffffffffffffff\n      and\n      0xffffffffffffffffffffffffffffffffffffffff\n      and\n      dup2\n      mstore\n      0x20\n      add\n      swap1\n      dup2\n      mstore\n      0x20\n      add\n      0x00\n      keccak256\n        /* \"@openzeppelin/contracts/token/ERC20/ERC20.sol\":9987:10022  _allowances[owner][spender] = value */\n      dup2\n      swap1\n      sstore\n      pop\n        /* \"@openzeppelin/contracts/token/ERC20/ERC20.sol\":10036:10045  emitEvent */\n      dup1\n        /* \"@openzeppelin/contracts/token/ERC20/ERC20.sol\":10032:10108  if (emitEvent) {... */\n      iszero\n      tag_392\n      jumpi\n        /* \"@openzeppelin/contracts/token/ERC20/ERC20.sol\":10082:10089  spender */\n      dup3\n        /* \"@openzeppelin/contracts/token/ERC20/ERC20.sol\":10066:10097  Approval(owner, spender, value) */\n      0xffffffffffffffffffffffffffffffffffffffff\n      and\n        /* \"@openzeppelin/contracts/token/ERC20/ERC20.sol\":10075:10080  owner */\n      dup5\n        /* \"@openzeppelin/contracts/token/ERC20/ERC20.sol\":10066:10097  Approval(owner, spender, value) */\n      0xffffffffffffffffffffffffffffffffffffffff\n      and\n      0x8c5be1e5ebec7d5bd14f71427d1e84f3dd0314c0f7b2291e5b200ac8c7c3b925\n        /* \"@openzeppelin/contracts/token/ERC20/ERC20.sol\":10091:10096  value */\n      dup5\n        /* \"@openzeppelin/contracts/token/ERC20/ERC20.sol\":10066:10097  Approval(owner, spender, value) */\n      mload(0x40)\n      tag_393\n      swap2\n      swap1\n      tag_29\n      jump\t// in\n    tag_393:\n      mload(0x40)\n      dup1\n      swap2\n      sub\n      swap1\n      log3\n        /* \"@openzeppelin/contracts/token/ERC20/ERC20.sol\":10032:10108  if (emitEvent) {... */\n    tag_392:\n        /* \"@openzeppelin/contracts/token/ERC20/ERC20.sol\":9682:10114  function _approve(address owner, address spender, uint256 value, bool emitEvent) internal virtual {... */\n      pop\n      pop\n      pop\n      pop\n      jump\t// out\n        /* \"@openzeppelin/contracts/token/ERC20/ERC20.sol\":5989:7096  function _update(address from, address to, uint256 value) internal virtual {... */\n    tag_338:\n        /* \"@openzeppelin/contracts/token/ERC20/ERC20.sol\":6094:6095  0 */\n      0x00\n        /* \"@openzeppelin/contracts/token/ERC20/ERC20.sol\":6078:6096  from == address(0) */\n      0xffffffffffffffffffffffffffffffffffffffff\n      and\n        /* \"@openzeppelin/contracts/token/ERC20/ERC20.sol\":6078:6082  from */\n      dup4\n        /* \"@openzeppelin/contracts/token/ERC20/ERC20.sol\":6078:6096  from == address(0) */\n      0xffffffffffffffffffffffffffffffffffffffff\n      and\n      sub\n        /* \"@openzeppelin/contracts/token/ERC20/ERC20.sol\":6074:6614  if (from == address(0)) {... */\n      tag_395\n      jumpi\n        /* \"@openzeppelin/contracts/token/ERC20/ERC20.sol\":6230:6235  value */\n      dup1\n        /* \"@openzeppelin/contracts/token/ERC20/ERC20.sol\":6214:6226  _totalSupply */\n      0x02\n      0x00\n        /* \"@openzeppelin/contracts/token/ERC20/ERC20.sol\":6214:6235  _totalSupply += value */\n      dup3\n      dup3\n      sload\n      tag_396\n      swap2\n      swap1\n      tag_351\n      jump\t// in\n    tag_396:\n      swap3\n      pop\n      pop\n      dup2\n      swap1\n      sstore\n      pop\n        /* \"@openzeppelin/contracts/token/ERC20/ERC20.sol\":6074:6614  if (from == address(0)) {... */\n      jump(tag_397)\n    tag_395:\n        /* \"@openzeppelin/contracts/token/ERC20/ERC20.sol\":6266:6285  uint256 fromBalance */\n      0x00\n        /* \"@openzeppelin/contracts/token/ERC20/ERC20.sol\":6288:6297  _balances */\n      0x00\n        /* \"@openzeppelin/contracts/token/ERC20/ERC20.sol\":6288:6303  _balances[from] */\n      0x00\n        /* \"@openzeppelin/contracts/token/ERC20/ERC20.sol\":6298:6302  from */\n      dup6\n        /* \"@openzeppelin/contracts/token/ERC20/ERC20.sol\":6288:6303  _balances[from] */\n      0xffffffffffffffffffffffffffffffffffffffff\n      and\n      0xffffffffffffffffffffffffffffffffffffffff\n      and\n      dup2\n      mstore\n      0x20\n      add\n      swap1\n      dup2\n      mstore\n      0x20\n      add\n      0x00\n      keccak256\n      sload\n        /* \"@openzeppelin/contracts/token/ERC20/ERC20.sol\":6266:6303  uint256 fromBalance = _balances[from] */\n      swap1\n      pop\n        /* \"@openzeppelin/contracts/token/ERC20/ERC20.sol\":6335:6340  value */\n      dup2\n        /* \"@openzeppelin/contracts/token/ERC20/ERC20.sol\":6321:6332  fromBalance */\n      dup2\n        /* \"@openzeppelin/contracts/token/ERC20/ERC20.sol\":6321:6340  fromBalance < value */\n      lt\n        /* \"@openzeppelin/contracts/token/ERC20/ERC20.sol\":6317:6432  if (fromBalance < value) {... */\n      iszero\n      tag_398\n      jumpi\n        /* \"@openzeppelin/contracts/token/ERC20/ERC20.sol\":6392:6396  from */\n      dup4\n        /* \"@openzeppelin/contracts/token/ERC20/ERC20.sol\":6398:6409  fromBalance */\n      dup2\n        /* \"@openzeppelin/contracts/token/ERC20/ERC20.sol\":6411:6416  value */\n      dup4\n        /* \"@openzeppelin/contracts/token/ERC20/ERC20.sol\":6367:6417  ERC20InsufficientBalance(from, fromBalance, value) */\n      mload(0x40)\n      0xe450d38c00000000000000000000000000000000000000000000000000000000\n      dup2\n      mstore\n      0x04\n      add\n      tag_399\n      swap4\n      swap3\n      swap2\n      swap1\n      tag_330\n      jump\t// in\n    tag_399:\n      mload(0x40)\n      dup1\n      swap2\n      sub\n      swap1\n      revert\n        /* \"@openzeppelin/contracts/token/ERC20/ERC20.sol\":6317:6432  if (fromBalance < value) {... */\n    tag_398:\n        /* \"@openzeppelin/contracts/token/ERC20/ERC20.sol\":6584:6589  value */\n      dup2\n        /* \"@openzeppelin/contracts/token/ERC20/ERC20.sol\":6570:6581  fromBalance */\n      dup2\n        /* \"@openzeppelin/contracts/token/ERC20/ERC20.sol\":6570:6589  fromBalance - value */\n      sub\n        /* \"@openzeppelin/contracts/token/ERC20/ERC20.sol\":6552:6561  _balances */\n      0x00\n        /* \"@openzeppelin/contracts/token/ERC20/ERC20.sol\":6552:6567  _balances[from] */\n      0x00\n        /* \"@openzeppelin/contracts/token/ERC20/ERC20.sol\":6562:6566  from */\n      dup7\n        /* \"@openzeppelin/contracts/token/ERC20/ERC20.sol\":6552:6567  _balances[from] */\n      0xffffffffffffffffffffffffffffffffffffffff\n      and\n      0xffffffffffffffffffffffffffffffffffffffff\n      and\n      dup2\n      mstore\n      0x20\n      add\n      swap1\n      dup2\n      mstore\n      0x20\n      add\n      0x00\n      keccak256\n        /* \"@openzeppelin/contracts/token/ERC20/ERC20.sol\":6552:6589  _balances[from] = fromBalance - value */\n      dup2\n      swap1\n      sstore\n      pop\n        /* \"@openzeppelin/contracts/token/ERC20/ERC20.sol\":6252:6614  {... */\n      pop\n        /* \"@openzeppelin/contracts/token/ERC20/ERC20.sol\":6074:6614  if (from == address(0)) {... */\n    tag_397:\n        /* \"@openzeppelin/contracts/token/ERC20/ERC20.sol\":6642:6643  0 */\n      0x00\n        /* \"@openzeppelin/contracts/token/ERC20/ERC20.sol\":6628:6644  to == address(0) */\n      0xffffffffffffffffffffffffffffffffffffffff\n      and\n        /* \"@openzeppelin/contracts/token/ERC20/ERC20.sol\":6628:6630  to */\n      dup3\n        /* \"@openzeppelin/contracts/token/ERC20/ERC20.sol\":6628:6644  to == address(0) */\n      0xffffffffffffffffffffffffffffffffffffffff\n      and\n      sub\n        /* \"@openzeppelin/contracts/token/ERC20/ERC20.sol\":6624:7049  if (to == address(0)) {... */\n      tag_400\n      jumpi\n        /* \"@openzeppelin/contracts/token/ERC20/ERC20.sol\":6807:6812  value */\n      dup1\n        /* \"@openzeppelin/contracts/token/ERC20/ERC20.sol\":6791:6803  _totalSupply */\n      0x02\n      0x00\n        /* \"@openzeppelin/contracts/token/ERC20/ERC20.sol\":6791:6812  _totalSupply -= value */\n      dup3\n      dup3\n      sload\n      sub\n      swap3\n      pop\n      pop\n      dup2\n      swap1\n      sstore\n      pop\n        /* \"@openzeppelin/contracts/token/ERC20/ERC20.sol\":6624:7049  if (to == address(0)) {... */\n      jump(tag_401)\n    tag_400:\n        /* \"@openzeppelin/contracts/token/ERC20/ERC20.sol\":7019:7024  value */\n      dup1\n        /* \"@openzeppelin/contracts/token/ERC20/ERC20.sol\":7002:7011  _balances */\n      0x00\n        /* \"@openzeppelin/contracts/token/ERC20/ERC20.sol\":7002:7015  _balances[to] */\n      0x00\n        /* \"@openzeppelin/contracts/token/ERC20/ERC20.sol\":7012:7014  to */\n      dup5\n        /* \"@openzeppelin/contracts/token/ERC20/ERC20.sol\":7002:7015  _balances[to] */\n      0xffffffffffffffffffffffffffffffffffffffff\n      and\n      0xffffffffffffffffffffffffffffffffffffffff\n      and\n      dup2\n      mstore\n      0x20\n      add\n      swap1\n      dup2\n      mstore\n      0x20\n      add\n      0x00\n      keccak256\n      0x00\n        /* \"@openzeppelin/contracts/token/ERC20/ERC20.sol\":7002:7024  _balances[to] += value */\n      dup3\n      dup3\n      sload\n      add\n      swap3\n      pop\n      pop\n      dup2\n      swap1\n      sstore\n      pop\n        /* \"@openzeppelin/contracts/token/ERC20/ERC20.sol\":6624:7049  if (to == address(0)) {... */\n    tag_401:\n        /* \"@openzeppelin/contracts/token/ERC20/ERC20.sol\":7079:7081  to */\n      dup2\n        /* \"@openzeppelin/contracts/token/ERC20/ERC20.sol\":7064:7089  Transfer(from, to, value) */\n      0xffffffffffffffffffffffffffffffffffffffff\n      and\n        /* \"@openzeppelin/contracts/token/ERC20/ERC20.sol\":7073:7077  from */\n      dup4\n        /* \"@openzeppelin/contracts/token/ERC20/ERC20.sol\":7064:7089  Transfer(from, to, value) */\n      0xffffffffffffffffffffffffffffffffffffffff\n      and\n      0xddf252ad1be2c89b69c2b068fc378daa952ba7f163c4a11628f55a4df523b3ef\n        /* \"@openzeppelin/contracts/token/ERC20/ERC20.sol\":7083:7088  value */\n      dup4\n        /* \"@openzeppelin/contracts/token/ERC20/ERC20.sol\":7064:7089  Transfer(from, to, value) */\n      mload(0x40)\n      tag_402\n      swap2\n      swap1\n      tag_29\n      jump\t// in\n    tag_402:\n      mload(0x40)\n      dup1\n      swap2\n      sub\n      swap1\n      log3\n        /* \"@openzeppelin/contracts/token/ERC20/ERC20.sol\":5989:7096  function _update(address from, address to, uint256 value) internal virtual {... */\n      pop\n      pop\n      pop\n      jump\t// out\n        /* \"#utility.yul\":88:205   */\n    tag_404:\n        /* \"#utility.yul\":197:198   */\n      0x00\n        /* \"#utility.yul\":194:195   */\n      0x00\n        /* \"#utility.yul\":187:199   */\n      revert\n        /* \"#utility.yul\":211:328   */\n    tag_405:\n        /* \"#utility.yul\":320:321   */\n      0x00\n        /* \"#utility.yul\":317:318   */\n      0x00\n        /* \"#utility.yul\":310:322   */\n      revert\n        /* \"#utility.yul\":334:411   */\n    tag_406:\n        /* \"#utility.yul\":371:378   */\n      0x00\n        /* \"#utility.yul\":400:405   */\n      dup2\n        /* \"#utility.yul\":389:405   */\n      swap1\n      pop\n        /* \"#utility.yul\":334:411   */\n      swap2\n      swap1\n      pop\n      jump\t// out\n        /* \"#utility.yul\":417:539   */\n    tag_407:\n        /* \"#utility.yul\":490:514   */\n      tag_473\n        /* \"#utility.yul\":508:513   */\n      dup2\n        /* \"#utility.yul\":490:514   */\n      tag_406\n      jump\t// in\n    tag_473:\n        /* \"#utility.yul\":483:488   */\n      dup2\n        /* \"#utility.yul\":480:515   */\n      eq\n        /* \"#utility.yul\":470:533   */\n      tag_474\n      jumpi\n        /* \"#utility.yul\":529:530   */\n      0x00\n        /* \"#utility.yul\":526:527   */\n      0x00\n        /* \"#utility.yul\":519:531   */\n      revert\n        /* \"#utility.yul\":470:533   */\n    tag_474:\n        /* \"#utility.yul\":417:539   */\n      pop\n      jump\t// out\n        /* \"#utility.yul\":545:684   */\n    tag_408:\n        /* \"#utility.yul\":591:596   */\n      0x00\n        /* \"#utility.yul\":629:635   */\n      dup2\n        /* \"#utility.yul\":616:636   */\n      calldataload\n        /* \"#utility.yul\":607:636   */\n      swap1\n      pop\n        /* \"#utility.yul\":645:678   */\n      tag_476\n        /* \"#utility.yul\":672:677   */\n      dup2\n        /* \"#utility.yul\":645:678   */\n      tag_407\n      jump\t// in\n    tag_476:\n        /* \"#utility.yul\":545:684   */\n      swap3\n      swap2\n      pop\n      pop\n      jump\t// out\n        /* \"#utility.yul\":690:1309   */\n    tag_26:\n        /* \"#utility.yul\":767:773   */\n      0x00\n        /* \"#utility.yul\":775:781   */\n      0x00\n        /* \"#utility.yul\":783:789   */\n      0x00\n        /* \"#utility.yul\":832:834   */\n      0x60\n        /* \"#utility.yul\":820:829   */\n      dup5\n        /* \"#utility.yul\":811:818   */\n      dup7\n        /* \"#utility.yul\":807:830   */\n      sub\n        /* \"#utility.yul\":803:835   */\n      slt\n        /* \"#utility.yul\":800:919   */\n      iszero\n      tag_478\n      jumpi\n        /* \"#utility.yul\":838:917   */\n      tag_479\n      tag_404\n      jump\t// in\n    tag_479:\n        /* \"#utility.yul\":800:919   */\n    tag_478:\n        /* \"#utility.yul\":958:959   */\n      0x00\n        /* \"#utility.yul\":983:1036   */\n      tag_480\n        /* \"#utility.yul\":1028:1035   */\n      dup7\n        /* \"#utility.yul\":1019:1025   */\n      dup3\n        /* \"#utility.yul\":1008:1017   */\n      dup8\n        /* \"#utility.yul\":1004:1026   */\n      add\n        /* \"#utility.yul\":983:1036   */\n      tag_408\n      jump\t// in\n    tag_480:\n        /* \"#utility.yul\":973:1036   */\n      swap4\n      pop\n        /* \"#utility.yul\":929:1046   */\n      pop\n        /* \"#utility.yul\":1085:1087   */\n      0x20\n        /* \"#utility.yul\":1111:1164   */\n      tag_481\n        /* \"#utility.yul\":1156:1163   */\n      dup7\n        /* \"#utility.yul\":1147:1153   */\n      dup3\n        /* \"#utility.yul\":1136:1145   */\n      dup8\n        /* \"#utility.yul\":1132:1154   */\n      add\n        /* \"#utility.yul\":1111:1164   */\n      tag_408\n      jump\t// in\n    tag_481:\n        /* \"#utility.yul\":1101:1164   */\n      swap3\n      pop\n        /* \"#utility.yul\":1056:1174   */\n      pop\n        /* \"#utility.yul\":1213:1215   */\n      0x40\n        /* \"#utility.yul\":1239:1292   */\n      tag_482\n        /* \"#utility.yul\":1284:1291   */\n      dup7\n        /* \"#utility.yul\":1275:1281   */\n      dup3\n        /* \"#utility.yul\":1264:1273   */\n      dup8\n        /* \"#utility.yul\":1260:1282   */\n      add\n        /* \"#utility.yul\":1239:1292   */\n      tag_408\n      jump\t// in\n    tag_482:\n        /* \"#utility.yul\":1229:1292   */\n      swap2\n      pop\n        /* \"#utility.yul\":1184:1302   */\n      pop\n        /* \"#utility.yul\":690:1309   */\n      swap3\n      pop\n      swap3\n      pop\n      swap3\n      jump\t// out\n        /* \"#utility.yul\":1315:1433   */\n    tag_409:\n        /* \"#utility.yul\":1402:1426   */\n      tag_484\n        /* \"#utility.yul\":1420:1425   */\n      dup2\n        /* \"#utility.yul\":1402:1426   */\n      tag_406\n      jump\t// in\n    tag_484:\n        /* \"#utility.yul\":1397:1400   */\n      dup3\n        /* \"#utility.yul\":1390:1427   */\n      mstore\n        /* \"#utility.yul\":1315:1433   */\n      pop\n      pop\n      jump\t// out\n        /* \"#utility.yul\":1439:1661   */\n    tag_29:\n        /* \"#utility.yul\":1532:1536   */\n      0x00\n        /* \"#utility.yul\":1570:1572   */\n      0x20\n        /* \"#utility.yul\":1559:1568   */\n      dup3\n        /* \"#utility.yul\":1555:1573   */\n      add\n        /* \"#utility.yul\":1547:1573   */\n      swap1\n      pop\n        /* \"#utility.yul\":1583:1654   */\n      tag_486\n        /* \"#utility.yul\":1651:1652   */\n      0x00\n        /* \"#utility.yul\":1640:1649   */\n      dup4\n        /* \"#utility.yul\":1636:1653   */\n      add\n        /* \"#utility.yul\":1627:1633   */\n      dup5\n        /* \"#utility.yul\":1583:1654   */\n      tag_409\n      jump\t// in\n    tag_486:\n        /* \"#utility.yul\":1439:1661   */\n      swap3\n      swap2\n      pop\n      pop\n      jump\t// out\n        /* \"#utility.yul\":1667:1766   */\n    tag_410:\n        /* \"#utility.yul\":1719:1725   */\n      0x00\n        /* \"#utility.yul\":1753:1758   */\n      dup2\n        /* \"#utility.yul\":1747:1759   */\n      mload\n        /* \"#utility.yul\":1737:1759   */\n      swap1\n      pop\n        /* \"#utility.yul\":1667:1766   */\n      swap2\n      swap1\n      pop\n      jump\t// out\n        /* \"#utility.yul\":1772:1941   */\n    tag_411:\n        /* \"#utility.yul\":1856:1867   */\n      0x00\n        /* \"#utility.yul\":1890:1896   */\n      dup3\n        /* \"#utility.yul\":1885:1888   */\n      dup3\n        /* \"#utility.yul\":1878:1897   */\n      mstore\n        /* \"#utility.yul\":1930:1934   */\n      0x20\n        /* \"#utility.yul\":1925:1928   */\n      dup3\n        /* \"#utility.yul\":1921:1935   */\n      add\n        /* \"#utility.yul\":1906:1935   */\n      swap1\n      pop\n        /* \"#utility.yul\":1772:1941   */\n      swap3\n      swap2\n      pop\n      pop\n      jump\t// out\n        /* \"#utility.yul\":1947:2086   */\n    tag_412:\n        /* \"#utility.yul\":2036:2042   */\n      dup3\n        /* \"#utility.yul\":2031:2034   */\n      dup2\n        /* \"#utility.yul\":2026:2029   */\n      dup4\n        /* \"#utility.yul\":2020:2043   */\n      mcopy\n        /* \"#utility.yul\":2077:2078   */\n      0x00\n        /* \"#utility.yul\":2068:2074   */\n      dup4\n        /* \"#utility.yul\":2063:2066   */\n      dup4\n        /* \"#utility.yul\":2059:2075   */\n      add\n        /* \"#utility.yul\":2052:2079   */\n      mstore\n        /* \"#utility.yul\":1947:2086   */\n      pop\n      pop\n      pop\n      jump\t// out\n        /* \"#utility.yul\":2092:2194   */\n    tag_413:\n        /* \"#utility.yul\":2133:2139   */\n      0x00\n        /* \"#utility.yul\":2184:2186   */\n      0x1f\n        /* \"#utility.yul\":2180:2187   */\n      not\n        /* \"#utility.yul\":2175:2177   */\n      0x1f\n        /* \"#utility.yul\":2168:2173   */\n      dup4\n        /* \"#utility.yul\":2164:2178   */\n      add\n        /* \"#utility.yul\":2160:2188   */\n      and\n        /* \"#utility.yul\":2150:2188   */\n      swap1\n      pop\n        /* \"#utility.yul\":2092:2194   */\n      swap2\n      swap1\n      pop\n      jump\t// out\n        /* \"#utility.yul\":2200:2577   */\n    tag_414:\n        /* \"#utility.yul\":2288:2291   */\n      0x00\n        /* \"#utility.yul\":2316:2355   */\n      tag_492\n        /* \"#utility.yul\":2349:2354   */\n      dup3\n        /* \"#utility.yul\":2316:2355   */\n      tag_410\n      jump\t// in\n    tag_492:\n        /* \"#utility.yul\":2371:2442   */\n      tag_493\n        /* \"#utility.yul\":2435:2441   */\n      dup2\n        /* \"#utility.yul\":2430:2433   */\n      dup6\n        /* \"#utility.yul\":2371:2442   */\n      tag_411\n      jump\t// in\n    tag_493:\n        /* \"#utility.yul\":2364:2442   */\n      swap4\n      pop\n        /* \"#utility.yul\":2451:2516   */\n      tag_494\n        /* \"#utility.yul\":2509:2515   */\n      dup2\n        /* \"#utility.yul\":2504:2507   */\n      dup6\n        /* \"#utility.yul\":2497:2501   */\n      0x20\n        /* \"#utility.yul\":2490:2495   */\n      dup7\n        /* \"#utility.yul\":2486:2502   */\n      add\n        /* \"#utility.yul\":2451:2516   */\n      tag_412\n      jump\t// in\n    tag_494:\n        /* \"#utility.yul\":2541:2570   */\n      tag_495\n        /* \"#utility.yul\":2563:2569   */\n      dup2\n        /* \"#utility.yul\":2541:2570   */\n      tag_413\n      jump\t// in\n    tag_495:\n        /* \"#utility.yul\":2536:2539   */\n      dup5\n        /* \"#utility.yul\":2532:2571   */\n      add\n        /* \"#utility.yul\":2525:2571   */\n      swap2\n      pop\n        /* \"#utility.yul\":2292:2577   */\n      pop\n        /* \"#utility.yul\":2200:2577   */\n      swap3\n      swap2\n      pop\n      pop\n      jump\t// out\n        /* \"#utility.yul\":2583:2896   */\n    tag_33:\n        /* \"#utility.yul\":2696:2700   */\n      0x00\n        /* \"#utility.yul\":2734:2736   */\n      0x20\n        /* \"#utility.yul\":2723:2732   */\n      dup3\n        /* \"#utility.yul\":2719:2737   */\n      add\n        /* \"#utility.yul\":2711:2737   */\n      swap1\n      pop\n        /* \"#utility.yul\":2783:2792   */\n      dup2\n        /* \"#utility.yul\":2777:2781   */\n      dup2\n        /* \"#utility.yul\":2773:2793   */\n      sub\n        /* \"#utility.yul\":2769:2770   */\n      0x00\n        /* \"#utility.yul\":2758:2767   */\n      dup4\n        /* \"#utility.yul\":2754:2771   */\n      add\n        /* \"#utility.yul\":2747:2794   */\n      mstore\n        /* \"#utility.yul\":2811:2889   */\n      tag_497\n        /* \"#utility.yul\":2884:2888   */\n      dup2\n        /* \"#utility.yul\":2875:2881   */\n      dup5\n        /* \"#utility.yul\":2811:2889   */\n      tag_414\n      jump\t// in\n    tag_497:\n        /* \"#utility.yul\":2803:2889   */\n      swap1\n      pop\n        /* \"#utility.yul\":2583:2896   */\n      swap3\n      swap2\n      pop\n      pop\n      jump\t// out\n        /* \"#utility.yul\":2902:3234   */\n    tag_37:\n        /* \"#utility.yul\":3023:3027   */\n      0x00\n        /* \"#utility.yul\":3061:3063   */\n      0x40\n        /* \"#utility.yul\":3050:3059   */\n      dup3\n        /* \"#utility.yul\":3046:3064   */\n      add\n        /* \"#utility.yul\":3038:3064   */\n      swap1\n      pop\n        /* \"#utility.yul\":3074:3145   */\n      tag_499\n        /* \"#utility.yul\":3142:3143   */\n      0x00\n        /* \"#utility.yul\":3131:3140   */\n      dup4\n        /* \"#utility.yul\":3127:3144   */\n      add\n        /* \"#utility.yul\":3118:3124   */\n      dup6\n        /* \"#utility.yul\":3074:3145   */\n      tag_409\n      jump\t// in\n    tag_499:\n        /* \"#utility.yul\":3155:3227   */\n      tag_500\n        /* \"#utility.yul\":3223:3225   */\n      0x20\n        /* \"#utility.yul\":3212:3221   */\n      dup4\n        /* \"#utility.yul\":3208:3226   */\n      add\n        /* \"#utility.yul\":3199:3205   */\n      dup5\n        /* \"#utility.yul\":3155:3227   */\n      tag_409\n      jump\t// in\n    tag_500:\n        /* \"#utility.yul\":2902:3234   */\n      swap4\n      swap3\n      pop\n      pop\n      pop\n      jump\t// out\n        /* \"#utility.yul\":3240:3366   */\n    tag_415:\n        /* \"#utility.yul\":3277:3284   */\n      0x00\n        /* \"#utility.yul\":3317:3359   */\n      0xffffffffffffffffffffffffffffffffffffffff\n        /* \"#utility.yul\":3310:3315   */\n      dup3\n        /* \"#utility.yul\":3306:3360   */\n      and\n        /* \"#utility.yul\":3295:3360   */\n      swap1\n      pop\n        /* \"#utility.yul\":3240:3366   */\n      swap2\n      swap1\n      pop\n      jump\t// out\n        /* \"#utility.yul\":3372:3468   */\n    tag_416:\n        /* \"#utility.yul\":3409:3416   */\n      0x00\n        /* \"#utility.yul\":3438:3462   */\n      tag_503\n        /* \"#utility.yul\":3456:3461   */\n      dup3\n        /* \"#utility.yul\":3438:3462   */\n      tag_415\n      jump\t// in\n    tag_503:\n        /* \"#utility.yul\":3427:3462   */\n      swap1\n      pop\n        /* \"#utility.yul\":3372:3468   */\n      swap2\n      swap1\n      pop\n      jump\t// out\n        /* \"#utility.yul\":3474:3596   */\n    tag_417:\n        /* \"#utility.yul\":3547:3571   */\n      tag_505\n        /* \"#utility.yul\":3565:3570   */\n      dup2\n        /* \"#utility.yul\":3547:3571   */\n      tag_416\n      jump\t// in\n    tag_505:\n        /* \"#utility.yul\":3540:3545   */\n      dup2\n        /* \"#utility.yul\":3537:3572   */\n      eq\n        /* \"#utility.yul\":3527:3590   */\n      tag_506\n      jumpi\n        /* \"#utility.yul\":3586:3587   */\n      0x00\n        /* \"#utility.yul\":3583:3584   */\n      0x00\n        /* \"#utility.yul\":3576:3588   */\n      revert\n        /* \"#utility.yul\":3527:3590   */\n    tag_506:\n        /* \"#utility.yul\":3474:3596   */\n      pop\n      jump\t// out\n        /* \"#utility.yul\":3602:3741   */\n    tag_418:\n        /* \"#utility.yul\":3648:3653   */\n      0x00\n        /* \"#utility.yul\":3686:3692   */\n      dup2\n        /* \"#utility.yul\":3673:3693   */\n      calldataload\n        /* \"#utility.yul\":3664:3693   */\n      swap1\n      pop\n        /* \"#utility.yul\":3702:3735   */\n      tag_508\n        /* \"#utility.yul\":3729:3734   */\n      dup2\n        /* \"#utility.yul\":3702:3735   */\n      tag_417\n      jump\t// in\n    tag_508:\n        /* \"#utility.yul\":3602:3741   */\n      swap3\n      swap2\n      pop\n      pop\n      jump\t// out\n        /* \"#utility.yul\":3747:4221   */\n    tag_40:\n        /* \"#utility.yul\":3815:3821   */\n      0x00\n        /* \"#utility.yul\":3823:3829   */\n      0x00\n        /* \"#utility.yul\":3872:3874   */\n      0x40\n        /* \"#utility.yul\":3860:3869   */\n      dup4\n        /* \"#utility.yul\":3851:3858   */\n      dup6\n        /* \"#utility.yul\":3847:3870   */\n      sub\n        /* \"#utility.yul\":3843:3875   */\n      slt\n        /* \"#utility.yul\":3840:3959   */\n      iszero\n      tag_510\n      jumpi\n        /* \"#utility.yul\":3878:3957   */\n      tag_511\n      tag_404\n      jump\t// in\n    tag_511:\n        /* \"#utility.yul\":3840:3959   */\n    tag_510:\n        /* \"#utility.yul\":3998:3999   */\n      0x00\n        /* \"#utility.yul\":4023:4076   */\n      tag_512\n        /* \"#utility.yul\":4068:4075   */\n      dup6\n        /* \"#utility.yul\":4059:4065   */\n      dup3\n        /* \"#utility.yul\":4048:4057   */\n      dup7\n        /* \"#utility.yul\":4044:4066   */\n      add\n        /* \"#utility.yul\":4023:4076   */\n      tag_418\n      jump\t// in\n    tag_512:\n        /* \"#utility.yul\":4013:4076   */\n      swap3\n      pop\n        /* \"#utility.yul\":3969:4086   */\n      pop\n        /* \"#utility.yul\":4125:4127   */\n      0x20\n        /* \"#utility.yul\":4151:4204   */\n      tag_513\n        /* \"#utility.yul\":4196:4203   */\n      dup6\n        /* \"#utility.yul\":4187:4193   */\n      dup3\n        /* \"#utility.yul\":4176:4185   */\n      dup7\n        /* \"#utility.yul\":4172:4194   */\n      add\n        /* \"#utility.yul\":4151:4204   */\n      tag_408\n      jump\t// in\n    tag_513:\n        /* \"#utility.yul\":4141:4204   */\n      swap2\n      pop\n        /* \"#utility.yul\":4096:4214   */\n      pop\n        /* \"#utility.yul\":3747:4221   */\n      swap3\n      pop\n      swap3\n      swap1\n      pop\n      jump\t// out\n        /* \"#utility.yul\":4227:4317   */\n    tag_419:\n        /* \"#utility.yul\":4261:4268   */\n      0x00\n        /* \"#utility.yul\":4304:4309   */\n      dup2\n        /* \"#utility.yul\":4297:4310   */\n      iszero\n        /* \"#utility.yul\":4290:4311   */\n      iszero\n        /* \"#utility.yul\":4279:4311   */\n      swap1\n      pop\n        /* \"#utility.yul\":4227:4317   */\n      swap2\n      swap1\n      pop\n      jump\t// out\n        /* \"#utility.yul\":4323:4432   */\n    tag_420:\n        /* \"#utility.yul\":4404:4425   */\n      tag_516\n        /* \"#utility.yul\":4419:4424   */\n      dup2\n        /* \"#utility.yul\":4404:4425   */\n      tag_419\n      jump\t// in\n    tag_516:\n        /* \"#utility.yul\":4399:4402   */\n      dup3\n        /* \"#utility.yul\":4392:4426   */\n      mstore\n        /* \"#utility.yul\":4323:4432   */\n      pop\n      pop\n      jump\t// out\n        /* \"#utility.yul\":4438:4648   */\n    tag_43:\n        /* \"#utility.yul\":4525:4529   */\n      0x00\n        /* \"#utility.yul\":4563:4565   */\n      0x20\n        /* \"#utility.yul\":4552:4561   */\n      dup3\n        /* \"#utility.yul\":4548:4566   */\n      add\n        /* \"#utility.yul\":4540:4566   */\n      swap1\n      pop\n        /* \"#utility.yul\":4576:4641   */\n      tag_518\n        /* \"#utility.yul\":4638:4639   */\n      0x00\n        /* \"#utility.yul\":4627:4636   */\n      dup4\n        /* \"#utility.yul\":4623:4640   */\n      add\n        /* \"#utility.yul\":4614:4620   */\n      dup5\n        /* \"#utility.yul\":4576:4641   */\n      tag_420\n      jump\t// in\n    tag_518:\n        /* \"#utility.yul\":4438:4648   */\n      swap3\n      swap2\n      pop\n      pop\n      jump\t// out\n        /* \"#utility.yul\":4654:4772   */\n    tag_421:\n        /* \"#utility.yul\":4741:4765   */\n      tag_520\n        /* \"#utility.yul\":4759:4764   */\n      dup2\n        /* \"#utility.yul\":4741:4765   */\n      tag_416\n      jump\t// in\n    tag_520:\n        /* \"#utility.yul\":4736:4739   */\n      dup3\n        /* \"#utility.yul\":4729:4766   */\n      mstore\n        /* \"#utility.yul\":4654:4772   */\n      pop\n      pop\n      jump\t// out\n        /* \"#utility.yul\":4778:5000   */\n    tag_50:\n        /* \"#utility.yul\":4871:4875   */\n      0x00\n        /* \"#utility.yul\":4909:4911   */\n      0x20\n        /* \"#utility.yul\":4898:4907   */\n      dup3\n        /* \"#utility.yul\":4894:4912   */\n      add\n        /* \"#utility.yul\":4886:4912   */\n      swap1\n      pop\n        /* \"#utility.yul\":4922:4993   */\n      tag_522\n        /* \"#utility.yul\":4990:4991   */\n      0x00\n        /* \"#utility.yul\":4979:4988   */\n      dup4\n        /* \"#utility.yul\":4975:4992   */\n      add\n        /* \"#utility.yul\":4966:4972   */\n      dup5\n        /* \"#utility.yul\":4922:4993   */\n      tag_421\n      jump\t// in\n    tag_522:\n        /* \"#utility.yul\":4778:5000   */\n      swap3\n      swap2\n      pop\n      pop\n      jump\t// out\n        /* \"#utility.yul\":5006:5625   */\n    tag_53:\n        /* \"#utility.yul\":5083:5089   */\n      0x00\n        /* \"#utility.yul\":5091:5097   */\n      0x00\n        /* \"#utility.yul\":5099:5105   */\n      0x00\n        /* \"#utility.yul\":5148:5150   */\n      0x60\n        /* \"#utility.yul\":5136:5145   */\n      dup5\n        /* \"#utility.yul\":5127:5134   */\n      dup7\n        /* \"#utility.yul\":5123:5146   */\n      sub\n        /* \"#utility.yul\":5119:5151   */\n      slt\n        /* \"#utility.yul\":5116:5235   */\n      iszero\n      tag_524\n      jumpi\n        /* \"#utility.yul\":5154:5233   */\n      tag_525\n      tag_404\n      jump\t// in\n    tag_525:\n        /* \"#utility.yul\":5116:5235   */\n    tag_524:\n        /* \"#utility.yul\":5274:5275   */\n      0x00\n        /* \"#utility.yul\":5299:5352   */\n      tag_526\n        /* \"#utility.yul\":5344:5351   */\n      dup7\n        /* \"#utility.yul\":5335:5341   */\n      dup3\n        /* \"#utility.yul\":5324:5333   */\n      dup8\n        /* \"#utility.yul\":5320:5342   */\n      add\n        /* \"#utility.yul\":5299:5352   */\n      tag_418\n      jump\t// in\n    tag_526:\n        /* \"#utility.yul\":5289:5352   */\n      swap4\n      pop\n        /* \"#utility.yul\":5245:5362   */\n      pop\n        /* \"#utility.yul\":5401:5403   */\n      0x20\n        /* \"#utility.yul\":5427:5480   */\n      tag_527\n        /* \"#utility.yul\":5472:5479   */\n      dup7\n        /* \"#utility.yul\":5463:5469   */\n      dup3\n        /* \"#utility.yul\":5452:5461   */\n      dup8\n        /* \"#utility.yul\":5448:5470   */\n      add\n        /* \"#utility.yul\":5427:5480   */\n      tag_418\n      jump\t// in\n    tag_527:\n        /* \"#utility.yul\":5417:5480   */\n      swap3\n      pop\n        /* \"#utility.yul\":5372:5490   */\n      pop\n        /* \"#utility.yul\":5529:5531   */\n      0x40\n        /* \"#utility.yul\":5555:5608   */\n      tag_528\n        /* \"#utility.yul\":5600:5607   */\n      dup7\n        /* \"#utility.yul\":5591:5597   */\n      dup3\n        /* \"#utility.yul\":5580:5589   */\n      dup8\n        /* \"#utility.yul\":5576:5598   */\n      add\n        /* \"#utility.yul\":5555:5608   */\n      tag_408\n      jump\t// in\n    tag_528:\n        /* \"#utility.yul\":5545:5608   */\n      swap2\n      pop\n        /* \"#utility.yul\":5500:5618   */\n      pop\n        /* \"#utility.yul\":5006:5625   */\n      swap3\n      pop\n      swap3\n      pop\n      swap3\n      jump\t// out\n        /* \"#utility.yul\":5631:5717   */\n    tag_422:\n        /* \"#utility.yul\":5666:5673   */\n      0x00\n        /* \"#utility.yul\":5706:5710   */\n      0xff\n        /* \"#utility.yul\":5699:5704   */\n      dup3\n        /* \"#utility.yul\":5695:5711   */\n      and\n        /* \"#utility.yul\":5684:5711   */\n      swap1\n      pop\n        /* \"#utility.yul\":5631:5717   */\n      swap2\n      swap1\n      pop\n      jump\t// out\n        /* \"#utility.yul\":5723:5835   */\n    tag_423:\n        /* \"#utility.yul\":5806:5828   */\n      tag_531\n        /* \"#utility.yul\":5822:5827   */\n      dup2\n        /* \"#utility.yul\":5806:5828   */\n      tag_422\n      jump\t// in\n    tag_531:\n        /* \"#utility.yul\":5801:5804   */\n      dup3\n        /* \"#utility.yul\":5794:5829   */\n      mstore\n        /* \"#utility.yul\":5723:5835   */\n      pop\n      pop\n      jump\t// out\n        /* \"#utility.yul\":5841:6055   */\n    tag_62:\n        /* \"#utility.yul\":5930:5934   */\n      0x00\n        /* \"#utility.yul\":5968:5970   */\n      0x20\n        /* \"#utility.yul\":5957:5966   */\n      dup3\n        /* \"#utility.yul\":5953:5971   */\n      add\n        /* \"#utility.yul\":5945:5971   */\n      swap1\n      pop\n        /* \"#utility.yul\":5981:6048   */\n      tag_533\n        /* \"#utility.yul\":6045:6046   */\n      0x00\n        /* \"#utility.yul\":6034:6043   */\n      dup4\n        /* \"#utility.yul\":6030:6047   */\n      add\n        /* \"#utility.yul\":6021:6027   */\n      dup5\n        /* \"#utility.yul\":5981:6048   */\n      tag_423\n      jump\t// in\n    tag_533:\n        /* \"#utility.yul\":5841:6055   */\n      swap3\n      swap2\n      pop\n      pop\n      jump\t// out\n        /* \"#utility.yul\":6061:6178   */\n    tag_424:\n        /* \"#utility.yul\":6170:6171   */\n      0x00\n        /* \"#utility.yul\":6167:6168   */\n      0x00\n        /* \"#utility.yul\":6160:6172   */\n      revert\n        /* \"#utility.yul\":6184:6301   */\n    tag_425:\n        /* \"#utility.yul\":6293:6294   */\n      0x00\n        /* \"#utility.yul\":6290:6291   */\n      0x00\n        /* \"#utility.yul\":6283:6295   */\n      revert\n        /* \"#utility.yul\":6307:6424   */\n    tag_426:\n        /* \"#utility.yul\":6416:6417   */\n      0x00\n        /* \"#utility.yul\":6413:6414   */\n      0x00\n        /* \"#utility.yul\":6406:6418   */\n      revert\n        /* \"#utility.yul\":6447:7015   */\n    tag_427:\n        /* \"#utility.yul\":6520:6528   */\n      0x00\n        /* \"#utility.yul\":6530:6536   */\n      0x00\n        /* \"#utility.yul\":6580:6583   */\n      dup4\n        /* \"#utility.yul\":6573:6577   */\n      0x1f\n        /* \"#utility.yul\":6565:6571   */\n      dup5\n        /* \"#utility.yul\":6561:6578   */\n      add\n        /* \"#utility.yul\":6557:6584   */\n      slt\n        /* \"#utility.yul\":6547:6669   */\n      tag_538\n      jumpi\n        /* \"#utility.yul\":6588:6667   */\n      tag_539\n      tag_424\n      jump\t// in\n    tag_539:\n        /* \"#utility.yul\":6547:6669   */\n    tag_538:\n        /* \"#utility.yul\":6701:6707   */\n      dup3\n        /* \"#utility.yul\":6688:6708   */\n      calldataload\n        /* \"#utility.yul\":6678:6708   */\n      swap1\n      pop\n        /* \"#utility.yul\":6731:6749   */\n      0xffffffffffffffff\n        /* \"#utility.yul\":6723:6729   */\n      dup2\n        /* \"#utility.yul\":6720:6750   */\n      gt\n        /* \"#utility.yul\":6717:6834   */\n      iszero\n      tag_540\n      jumpi\n        /* \"#utility.yul\":6753:6832   */\n      tag_541\n      tag_425\n      jump\t// in\n    tag_541:\n        /* \"#utility.yul\":6717:6834   */\n    tag_540:\n        /* \"#utility.yul\":6867:6871   */\n      0x20\n        /* \"#utility.yul\":6859:6865   */\n      dup4\n        /* \"#utility.yul\":6855:6872   */\n      add\n        /* \"#utility.yul\":6843:6872   */\n      swap2\n      pop\n        /* \"#utility.yul\":6921:6924   */\n      dup4\n        /* \"#utility.yul\":6913:6917   */\n      0x20\n        /* \"#utility.yul\":6905:6911   */\n      dup3\n        /* \"#utility.yul\":6901:6918   */\n      mul\n        /* \"#utility.yul\":6891:6899   */\n      dup4\n        /* \"#utility.yul\":6887:6919   */\n      add\n        /* \"#utility.yul\":6884:6925   */\n      gt\n        /* \"#utility.yul\":6881:7009   */\n      iszero\n      tag_542\n      jumpi\n        /* \"#utility.yul\":6928:7007   */\n      tag_543\n      tag_426\n      jump\t// in\n    tag_543:\n        /* \"#utility.yul\":6881:7009   */\n    tag_542:\n        /* \"#utility.yul\":6447:7015   */\n      swap3\n      pop\n      swap3\n      swap1\n      pop\n      jump\t// out\n        /* \"#utility.yul\":7021:8162   */\n    tag_65:\n        /* \"#utility.yul\":7143:7149   */\n      0x00\n        /* \"#utility.yul\":7151:7157   */\n      0x00\n        /* \"#utility.yul\":7159:7165   */\n      0x00\n        /* \"#utility.yul\":7167:7173   */\n      0x00\n        /* \"#utility.yul\":7175:7181   */\n      0x00\n        /* \"#utility.yul\":7183:7189   */\n      0x00\n        /* \"#utility.yul\":7232:7235   */\n      0xa0\n        /* \"#utility.yul\":7220:7229   */\n      dup8\n        /* \"#utility.yul\":7211:7218   */\n      dup10\n        /* \"#utility.yul\":7207:7230   */\n      sub\n        /* \"#utility.yul\":7203:7236   */\n      slt\n        /* \"#utility.yul\":7200:7320   */\n      iszero\n      tag_545\n      jumpi\n        /* \"#utility.yul\":7239:7318   */\n      tag_546\n      tag_404\n      jump\t// in\n    tag_546:\n        /* \"#utility.yul\":7200:7320   */\n    tag_545:\n        /* \"#utility.yul\":7359:7360   */\n      0x00\n        /* \"#utility.yul\":7384:7437   */\n      tag_547\n        /* \"#utility.yul\":7429:7436   */\n      dup10\n        /* \"#utility.yul\":7420:7426   */\n      dup3\n        /* \"#utility.yul\":7409:7418   */\n      dup11\n        /* \"#utility.yul\":7405:7427   */\n      add\n        /* \"#utility.yul\":7384:7437   */\n      tag_408\n      jump\t// in\n    tag_547:\n        /* \"#utility.yul\":7374:7437   */\n      swap7\n      pop\n        /* \"#utility.yul\":7330:7447   */\n      pop\n        /* \"#utility.yul\":7486:7488   */\n      0x20\n        /* \"#utility.yul\":7512:7565   */\n      tag_548\n        /* \"#utility.yul\":7557:7564   */\n      dup10\n        /* \"#utility.yul\":7548:7554   */\n      dup3\n        /* \"#utility.yul\":7537:7546   */\n      dup11\n        /* \"#utility.yul\":7533:7555   */\n      add\n        /* \"#utility.yul\":7512:7565   */\n      tag_408\n      jump\t// in\n    tag_548:\n        /* \"#utility.yul\":7502:7565   */\n      swap6\n      pop\n        /* \"#utility.yul\":7457:7575   */\n      pop\n        /* \"#utility.yul\":7642:7644   */\n      0x40\n        /* \"#utility.yul\":7631:7640   */\n      dup8\n        /* \"#utility.yul\":7627:7645   */\n      add\n        /* \"#utility.yul\":7614:7646   */\n      calldataload\n        /* \"#utility.yul\":7673:7691   */\n      0xffffffffffffffff\n        /* \"#utility.yul\":7665:7671   */\n      dup2\n        /* \"#utility.yul\":7662:7692   */\n      gt\n        /* \"#utility.yul\":7659:7776   */\n      iszero\n      tag_549\n      jumpi\n        /* \"#utility.yul\":7695:7774   */\n      tag_550\n      tag_405\n      jump\t// in\n    tag_550:\n        /* \"#utility.yul\":7659:7776   */\n    tag_549:\n        /* \"#utility.yul\":7808:7888   */\n      tag_551\n        /* \"#utility.yul\":7880:7887   */\n      dup10\n        /* \"#utility.yul\":7871:7877   */\n      dup3\n        /* \"#utility.yul\":7860:7869   */\n      dup11\n        /* \"#utility.yul\":7856:7878   */\n      add\n        /* \"#utility.yul\":7808:7888   */\n      tag_427\n      jump\t// in\n    tag_551:\n        /* \"#utility.yul\":7790:7888   */\n      swap5\n      pop\n      swap5\n      pop\n        /* \"#utility.yul\":7585:7898   */\n      pop\n        /* \"#utility.yul\":7937:7939   */\n      0x60\n        /* \"#utility.yul\":7963:8016   */\n      tag_552\n        /* \"#utility.yul\":8008:8015   */\n      dup10\n        /* \"#utility.yul\":7999:8005   */\n      dup3\n        /* \"#utility.yul\":7988:7997   */\n      dup11\n        /* \"#utility.yul\":7984:8006   */\n      add\n        /* \"#utility.yul\":7963:8016   */\n      tag_418\n      jump\t// in\n    tag_552:\n        /* \"#utility.yul\":7953:8016   */\n      swap3\n      pop\n        /* \"#utility.yul\":7908:8026   */\n      pop\n        /* \"#utility.yul\":8065:8068   */\n      0x80\n        /* \"#utility.yul\":8092:8145   */\n      tag_553\n        /* \"#utility.yul\":8137:8144   */\n      dup10\n        /* \"#utility.yul\":8128:8134   */\n      dup3\n        /* \"#utility.yul\":8117:8126   */\n      dup11\n        /* \"#utility.yul\":8113:8135   */\n      add\n        /* \"#utility.yul\":8092:8145   */\n      tag_408\n      jump\t// in\n    tag_553:\n        /* \"#utility.yul\":8082:8145   */\n      swap2\n      pop\n        /* \"#utility.yul\":8036:8155   */\n      pop\n        /* \"#utility.yul\":7021:8162   */\n      swap3\n      swap6\n      pop\n      swap3\n      swap6\n      pop\n      swap3\n      swap6\n      jump\t// out\n        /* \"#utility.yul\":8168:8282   */\n    tag_428:\n        /* \"#utility.yul\":8235:8241   */\n      0x00\n        /* \"#utility.yul\":8269:8274   */\n      dup2\n        /* \"#utility.yul\":8263:8275   */\n      mload\n        /* \"#utility.yul\":8253:8275   */\n      swap1\n      pop\n        /* \"#utility.yul\":8168:8282   */\n      swap2\n      swap1\n      pop\n      jump\t// out\n        /* \"#utility.yul\":8288:8472   */\n    tag_429:\n        /* \"#utility.yul\":8387:8398   */\n      0x00\n        /* \"#utility.yul\":8421:8427   */\n      dup3\n        /* \"#utility.yul\":8416:8419   */\n      dup3\n        /* \"#utility.yul\":8409:8428   */\n      mstore\n        /* \"#utility.yul\":8461:8465   */\n      0x20\n        /* \"#utility.yul\":8456:8459   */\n      dup3\n        /* \"#utility.yul\":8452:8466   */\n      add\n        /* \"#utility.yul\":8437:8466   */\n      swap1\n      pop\n        /* \"#utility.yul\":8288:8472   */\n      swap3\n      swap2\n      pop\n      pop\n      jump\t// out\n        /* \"#utility.yul\":8478:8610   */\n    tag_430:\n        /* \"#utility.yul\":8545:8549   */\n      0x00\n        /* \"#utility.yul\":8568:8571   */\n      dup2\n        /* \"#utility.yul\":8560:8571   */\n      swap1\n      pop\n        /* \"#utility.yul\":8598:8602   */\n      0x20\n        /* \"#utility.yul\":8593:8596   */\n      dup3\n        /* \"#utility.yul\":8589:8603   */\n      add\n        /* \"#utility.yul\":8581:8603   */\n      swap1\n      pop\n        /* \"#utility.yul\":8478:8610   */\n      swap2\n      swap1\n      pop\n      jump\t// out\n        /* \"#utility.yul\":8616:8724   */\n    tag_431:\n        /* \"#utility.yul\":8693:8717   */\n      tag_558\n        /* \"#utility.yul\":8711:8716   */\n      dup2\n        /* \"#utility.yul\":8693:8717   */\n      tag_406\n      jump\t// in\n    tag_558:\n        /* \"#utility.yul\":8688:8691   */\n      dup3\n        /* \"#utility.yul\":8681:8718   */\n      mstore\n        /* \"#utility.yul\":8616:8724   */\n      pop\n      pop\n      jump\t// out\n        /* \"#utility.yul\":8730:8909   */\n    tag_432:\n        /* \"#utility.yul\":8799:8809   */\n      0x00\n        /* \"#utility.yul\":8820:8866   */\n      tag_560\n        /* \"#utility.yul\":8862:8865   */\n      dup4\n        /* \"#utility.yul\":8854:8860   */\n      dup4\n        /* \"#utility.yul\":8820:8866   */\n      tag_431\n      jump\t// in\n    tag_560:\n        /* \"#utility.yul\":8898:8902   */\n      0x20\n        /* \"#utility.yul\":8893:8896   */\n      dup4\n        /* \"#utility.yul\":8889:8903   */\n      add\n        /* \"#utility.yul\":8875:8903   */\n      swap1\n      pop\n        /* \"#utility.yul\":8730:8909   */\n      swap3\n      swap2\n      pop\n      pop\n      jump\t// out\n        /* \"#utility.yul\":8915:9028   */\n    tag_433:\n        /* \"#utility.yul\":8985:8989   */\n      0x00\n        /* \"#utility.yul\":9017:9021   */\n      0x20\n        /* \"#utility.yul\":9012:9015   */\n      dup3\n        /* \"#utility.yul\":9008:9022   */\n      add\n        /* \"#utility.yul\":9000:9022   */\n      swap1\n      pop\n        /* \"#utility.yul\":8915:9028   */\n      swap2\n      swap1\n      pop\n      jump\t// out\n        /* \"#utility.yul\":9064:9796   */\n    tag_434:\n        /* \"#utility.yul\":9183:9186   */\n      0x00\n        /* \"#utility.yul\":9212:9266   */\n      tag_563\n        /* \"#utility.yul\":9260:9265   */\n      dup3\n        /* \"#utility.yul\":9212:9266   */\n      tag_428\n      jump\t// in\n    tag_563:\n        /* \"#utility.yul\":9282:9368   */\n      tag_564\n        /* \"#utility.yul\":9361:9367   */\n      dup2\n        /* \"#utility.yul\":9356:9359   */\n      dup6\n        /* \"#utility.yul\":9282:9368   */\n      tag_429\n      jump\t// in\n    tag_564:\n        /* \"#utility.yul\":9275:9368   */\n      swap4\n      pop\n        /* \"#utility.yul\":9392:9448   */\n      tag_565\n        /* \"#utility.yul\":9442:9447   */\n      dup4\n        /* \"#utility.yul\":9392:9448   */\n      tag_430\n      jump\t// in\n    tag_565:\n        /* \"#utility.yul\":9471:9478   */\n      dup1\n        /* \"#utility.yul\":9502:9503   */\n      0x00\n        /* \"#utility.yul\":9487:9771   */\n    tag_566:\n        /* \"#utility.yul\":9512:9518   */\n      dup4\n        /* \"#utility.yul\":9509:9510   */\n      dup2\n        /* \"#utility.yul\":9506:9519   */\n      lt\n        /* \"#utility.yul\":9487:9771   */\n      iszero\n      tag_568\n      jumpi\n        /* \"#utility.yul\":9588:9594   */\n      dup2\n        /* \"#utility.yul\":9582:9595   */\n      mload\n        /* \"#utility.yul\":9615:9678   */\n      tag_569\n        /* \"#utility.yul\":9674:9677   */\n      dup9\n        /* \"#utility.yul\":9659:9672   */\n      dup3\n        /* \"#utility.yul\":9615:9678   */\n      tag_432\n      jump\t// in\n    tag_569:\n        /* \"#utility.yul\":9608:9678   */\n      swap8\n      pop\n        /* \"#utility.yul\":9701:9761   */\n      tag_570\n        /* \"#utility.yul\":9754:9760   */\n      dup4\n        /* \"#utility.yul\":9701:9761   */\n      tag_433\n      jump\t// in\n    tag_570:\n        /* \"#utility.yul\":9691:9761   */\n      swap3\n      pop\n        /* \"#utility.yul\":9547:9771   */\n      pop\n        /* \"#utility.yul\":9534:9535   */\n      0x01\n        /* \"#utility.yul\":9531:9532   */\n      dup2\n        /* \"#utility.yul\":9527:9536   */\n      add\n        /* \"#utility.yul\":9522:9536   */\n      swap1\n      pop\n        /* \"#utility.yul\":9487:9771   */\n      jump(tag_566)\n    tag_568:\n        /* \"#utility.yul\":9491:9505   */\n      pop\n        /* \"#utility.yul\":9787:9790   */\n      dup6\n        /* \"#utility.yul\":9780:9790   */\n      swap4\n      pop\n        /* \"#utility.yul\":9188:9796   */\n      pop\n      pop\n      pop\n        /* \"#utility.yul\":9064:9796   */\n      swap3\n      swap2\n      pop\n      pop\n      jump\t// out\n        /* \"#utility.yul\":9802:10175   */\n    tag_68:\n        /* \"#utility.yul\":9945:9949   */\n      0x00\n        /* \"#utility.yul\":9983:9985   */\n      0x20\n        /* \"#utility.yul\":9972:9981   */\n      dup3\n        /* \"#utility.yul\":9968:9986   */\n      add\n        /* \"#utility.yul\":9960:9986   */\n      swap1\n      pop\n        /* \"#utility.yul\":10032:10041   */\n      dup2\n        /* \"#utility.yul\":10026:10030   */\n      dup2\n        /* \"#utility.yul\":10022:10042   */\n      sub\n        /* \"#utility.yul\":10018:10019   */\n      0x00\n        /* \"#utility.yul\":10007:10016   */\n      dup4\n        /* \"#utility.yul\":10003:10020   */\n      add\n        /* \"#utility.yul\":9996:10043   */\n      mstore\n        /* \"#utility.yul\":10060:10168   */\n      tag_572\n        /* \"#utility.yul\":10163:10167   */\n      dup2\n        /* \"#utility.yul\":10154:10160   */\n      dup5\n        /* \"#utility.yul\":10060:10168   */\n      tag_434\n      jump\t// in\n    tag_572:\n        /* \"#utility.yul\":10052:10168   */\n      swap1\n      pop\n        /* \"#utility.yul\":9802:10175   */\n      swap3\n      swap2\n      pop\n      pop\n      jump\t// out\n        /* \"#utility.yul\":10181:10510   */\n    tag_71:\n        /* \"#utility.yul\":10240:10246   */\n      0x00\n        /* \"#utility.yul\":10289:10291   */\n      0x20\n        /* \"#utility.yul\":10277:10286   */\n      dup3\n        /* \"#utility.yul\":10268:10275   */\n      dup5\n        /* \"#utility.yul\":10264:10287   */\n      sub\n        /* \"#utility.yul\":10260:10292   */\n      slt\n        /* \"#utility.yul\":10257:10376   */\n      iszero\n      tag_574\n      jumpi\n        /* \"#utility.yul\":10295:10374   */\n      tag_575\n      tag_404\n      jump\t// in\n    tag_575:\n        /* \"#utility.yul\":10257:10376   */\n    tag_574:\n        /* \"#utility.yul\":10415:10416   */\n      0x00\n        /* \"#utility.yul\":10440:10493   */\n      tag_576\n        /* \"#utility.yul\":10485:10492   */\n      dup5\n        /* \"#utility.yul\":10476:10482   */\n      dup3\n        /* \"#utility.yul\":10465:10474   */\n      dup6\n        /* \"#utility.yul\":10461:10483   */\n      add\n        /* \"#utility.yul\":10440:10493   */\n      tag_418\n      jump\t// in\n    tag_576:\n        /* \"#utility.yul\":10430:10493   */\n      swap2\n      pop\n        /* \"#utility.yul\":10386:10503   */\n      pop\n        /* \"#utility.yul\":10181:10510   */\n      swap3\n      swap2\n      pop\n      pop\n      jump\t// out\n        /* \"#utility.yul\":10516:10990   */\n    tag_83:\n        /* \"#utility.yul\":10584:10590   */\n      0x00\n        /* \"#utility.yul\":10592:10598   */\n      0x00\n        /* \"#utility.yul\":10641:10643   */\n      0x40\n        /* \"#utility.yul\":10629:10638   */\n      dup4\n        /* \"#utility.yul\":10620:10627   */\n      dup6\n        /* \"#utility.yul\":10616:10639   */\n      sub\n        /* \"#utility.yul\":10612:10644   */\n      slt\n        /* \"#utility.yul\":10609:10728   */\n      iszero\n      tag_578\n      jumpi\n        /* \"#utility.yul\":10647:10726   */\n      tag_579\n      tag_404\n      jump\t// in\n    tag_579:\n        /* \"#utility.yul\":10609:10728   */\n    tag_578:\n        /* \"#utility.yul\":10767:10768   */\n      0x00\n        /* \"#utility.yul\":10792:10845   */\n      tag_580\n        /* \"#utility.yul\":10837:10844   */\n      dup6\n        /* \"#utility.yul\":10828:10834   */\n      dup3\n        /* \"#utility.yul\":10817:10826   */\n      dup7\n        /* \"#utility.yul\":10813:10835   */\n      add\n        /* \"#utility.yul\":10792:10845   */\n      tag_418\n      jump\t// in\n    tag_580:\n        /* \"#utility.yul\":10782:10845   */\n      swap3\n      pop\n        /* \"#utility.yul\":10738:10855   */\n      pop\n        /* \"#utility.yul\":10894:10896   */\n      0x20\n        /* \"#utility.yul\":10920:10973   */\n      tag_581\n        /* \"#utility.yul\":10965:10972   */\n      dup6\n        /* \"#utility.yul\":10956:10962   */\n      dup3\n        /* \"#utility.yul\":10945:10954   */\n      dup7\n        /* \"#utility.yul\":10941:10963   */\n      add\n        /* \"#utility.yul\":10920:10973   */\n      tag_418\n      jump\t// in\n    tag_581:\n        /* \"#utility.yul\":10910:10973   */\n      swap2\n      pop\n        /* \"#utility.yul\":10865:10983   */\n      pop\n        /* \"#utility.yul\":10516:10990   */\n      swap3\n      pop\n      swap3\n      swap1\n      pop\n      jump\t// out\n        /* \"#utility.yul\":10996:12199   */\n    tag_88:\n        /* \"#utility.yul\":11109:11115   */\n      0x00\n        /* \"#utility.yul\":11117:11123   */\n      0x00\n        /* \"#utility.yul\":11125:11131   */\n      0x00\n        /* \"#utility.yul\":11133:11139   */\n      0x00\n        /* \"#utility.yul\":11141:11147   */\n      0x00\n        /* \"#utility.yul\":11149:11155   */\n      0x00\n        /* \"#utility.yul\":11157:11163   */\n      0x00\n        /* \"#utility.yul\":11206:11209   */\n      0xe0\n        /* \"#utility.yul\":11194:11203   */\n      dup9\n        /* \"#utility.yul\":11185:11192   */\n      dup11\n        /* \"#utility.yul\":11181:11204   */\n      sub\n        /* \"#utility.yul\":11177:11210   */\n      slt\n        /* \"#utility.yul\":11174:11294   */\n      iszero\n      tag_583\n      jumpi\n        /* \"#utility.yul\":11213:11292   */\n      tag_584\n      tag_404\n      jump\t// in\n    tag_584:\n        /* \"#utility.yul\":11174:11294   */\n    tag_583:\n        /* \"#utility.yul\":11333:11334   */\n      0x00\n        /* \"#utility.yul\":11358:11411   */\n      tag_585\n        /* \"#utility.yul\":11403:11410   */\n      dup11\n        /* \"#utility.yul\":11394:11400   */\n      dup3\n        /* \"#utility.yul\":11383:11392   */\n      dup12\n        /* \"#utility.yul\":11379:11401   */\n      add\n        /* \"#utility.yul\":11358:11411   */\n      tag_418\n      jump\t// in\n    tag_585:\n        /* \"#utility.yul\":11348:11411   */\n      swap8\n      pop\n        /* \"#utility.yul\":11304:11421   */\n      pop\n        /* \"#utility.yul\":11460:11462   */\n      0x20\n        /* \"#utility.yul\":11486:11539   */\n      tag_586\n        /* \"#utility.yul\":11531:11538   */\n      dup11\n        /* \"#utility.yul\":11522:11528   */\n      dup3\n        /* \"#utility.yul\":11511:11520   */\n      dup12\n        /* \"#utility.yul\":11507:11529   */\n      add\n        /* \"#utility.yul\":11486:11539   */\n      tag_418\n      jump\t// in\n    tag_586:\n        /* \"#utility.yul\":11476:11539   */\n      swap7\n      pop\n        /* \"#utility.yul\":11431:11549   */\n      pop\n        /* \"#utility.yul\":11588:11590   */\n      0x40\n        /* \"#utility.yul\":11614:11667   */\n      tag_587\n        /* \"#utility.yul\":11659:11666   */\n      dup11\n        /* \"#utility.yul\":11650:11656   */\n      dup3\n        /* \"#utility.yul\":11639:11648   */\n      dup12\n        /* \"#utility.yul\":11635:11657   */\n      add\n        /* \"#utility.yul\":11614:11667   */\n      tag_408\n      jump\t// in\n    tag_587:\n        /* \"#utility.yul\":11604:11667   */\n      swap6\n      pop\n        /* \"#utility.yul\":11559:11677   */\n      pop\n        /* \"#utility.yul\":11716:11718   */\n      0x60\n        /* \"#utility.yul\":11742:11795   */\n      tag_588\n        /* \"#utility.yul\":11787:11794   */\n      dup11\n        /* \"#utility.yul\":11778:11784   */\n      dup3\n        /* \"#utility.yul\":11767:11776   */\n      dup12\n        /* \"#utility.yul\":11763:11785   */\n      add\n        /* \"#utility.yul\":11742:11795   */\n      tag_408\n      jump\t// in\n    tag_588:\n        /* \"#utility.yul\":11732:11795   */\n      swap5\n      pop\n        /* \"#utility.yul\":11687:11805   */\n      pop\n        /* \"#utility.yul\":11844:11847   */\n      0x80\n        /* \"#utility.yul\":11871:11924   */\n      tag_589\n        /* \"#utility.yul\":11916:11923   */\n      dup11\n        /* \"#utility.yul\":11907:11913   */\n      dup3\n        /* \"#utility.yul\":11896:11905   */\n      dup12\n        /* \"#utility.yul\":11892:11914   */\n      add\n        /* \"#utility.yul\":11871:11924   */\n      tag_408\n      jump\t// in\n    tag_589:\n        /* \"#utility.yul\":11861:11924   */\n      swap4\n      pop\n        /* \"#utility.yul\":11815:11934   */\n      pop\n        /* \"#utility.yul\":11973:11976   */\n      0xa0\n        /* \"#utility.yul\":12000:12053   */\n      tag_590\n        /* \"#utility.yul\":12045:12052   */\n      dup11\n        /* \"#utility.yul\":12036:12042   */\n      dup3\n        /* \"#utility.yul\":12025:12034   */\n      dup12\n        /* \"#utility.yul\":12021:12043   */\n      add\n        /* \"#utility.yul\":12000:12053   */\n      tag_418\n      jump\t// in\n    tag_590:\n        /* \"#utility.yul\":11990:12053   */\n      swap3\n      pop\n        /* \"#utility.yul\":11944:12063   */\n      pop\n        /* \"#utility.yul\":12102:12105   */\n      0xc0\n        /* \"#utility.yul\":12129:12182   */\n      tag_591\n        /* \"#utility.yul\":12174:12181   */\n      dup11\n        /* \"#utility.yul\":12165:12171   */\n      dup3\n        /* \"#utility.yul\":12154:12163   */\n      dup12\n        /* \"#utility.yul\":12150:12172   */\n      add\n        /* \"#utility.yul\":12129:12182   */\n      tag_408\n      jump\t// in\n    tag_591:\n        /* \"#utility.yul\":12119:12182   */\n      swap2\n      pop\n        /* \"#utility.yul\":12073:12192   */\n      pop\n        /* \"#utility.yul\":10996:12199   */\n      swap3\n      swap6\n      swap9\n      swap2\n      swap5\n      swap8\n      pop\n      swap3\n      swap6\n      pop\n      jump\t// out\n        /* \"#utility.yul\":12205:12537   */\n    tag_94:\n        /* \"#utility.yul\":12326:12330   */\n      0x00\n        /* \"#utility.yul\":12364:12366   */\n      0x40\n        /* \"#utility.yul\":12353:12362   */\n      dup3\n        /* \"#utility.yul\":12349:12367   */\n      add\n        /* \"#utility.yul\":12341:12367   */\n      swap1\n      pop\n        /* \"#utility.yul\":12377:12448   */\n      tag_593\n        /* \"#utility.yul\":12445:12446   */\n      0x00\n        /* \"#utility.yul\":12434:12443   */\n      dup4\n        /* \"#utility.yul\":12430:12447   */\n      add\n        /* \"#utility.yul\":12421:12427   */\n      dup6\n        /* \"#utility.yul\":12377:12448   */\n      tag_421\n      jump\t// in\n    tag_593:\n        /* \"#utility.yul\":12458:12530   */\n      tag_594\n        /* \"#utility.yul\":12526:12528   */\n      0x20\n        /* \"#utility.yul\":12515:12524   */\n      dup4\n        /* \"#utility.yul\":12511:12529   */\n      add\n        /* \"#utility.yul\":12502:12508   */\n      dup5\n        /* \"#utility.yul\":12458:12530   */\n      tag_421\n      jump\t// in\n    tag_594:\n        /* \"#utility.yul\":12205:12537   */\n      swap4\n      swap3\n      pop\n      pop\n      pop\n      jump\t// out\n        /* \"#utility.yul\":12543:13892   */\n    tag_101:\n        /* \"#utility.yul\":12665:12671   */\n      0x00\n        /* \"#utility.yul\":12673:12679   */\n      0x00\n        /* \"#utility.yul\":12681:12687   */\n      0x00\n        /* \"#utility.yul\":12689:12695   */\n      0x00\n        /* \"#utility.yul\":12697:12703   */\n      0x00\n        /* \"#utility.yul\":12705:12711   */\n      0x00\n        /* \"#utility.yul\":12713:12719   */\n      0x00\n        /* \"#utility.yul\":12721:12727   */\n      0x00\n        /* \"#utility.yul\":12770:12773   */\n      0x0100\n        /* \"#utility.yul\":12758:12767   */\n      dup10\n        /* \"#utility.yul\":12749:12756   */\n      dup12\n        /* \"#utility.yul\":12745:12768   */\n      sub\n        /* \"#utility.yul\":12741:12774   */\n      slt\n        /* \"#utility.yul\":12738:12858   */\n      iszero\n      tag_596\n      jumpi\n        /* \"#utility.yul\":12777:12856   */\n      tag_597\n      tag_404\n      jump\t// in\n    tag_597:\n        /* \"#utility.yul\":12738:12858   */\n    tag_596:\n        /* \"#utility.yul\":12897:12898   */\n      0x00\n        /* \"#utility.yul\":12922:12975   */\n      tag_598\n        /* \"#utility.yul\":12967:12974   */\n      dup12\n        /* \"#utility.yul\":12958:12964   */\n      dup3\n        /* \"#utility.yul\":12947:12956   */\n      dup13\n        /* \"#utility.yul\":12943:12965   */\n      add\n        /* \"#utility.yul\":12922:12975   */\n      tag_418\n      jump\t// in\n    tag_598:\n        /* \"#utility.yul\":12912:12975   */\n      swap9\n      pop\n        /* \"#utility.yul\":12868:12985   */\n      pop\n        /* \"#utility.yul\":13024:13026   */\n      0x20\n        /* \"#utility.yul\":13050:13103   */\n      tag_599\n        /* \"#utility.yul\":13095:13102   */\n      dup12\n        /* \"#utility.yul\":13086:13092   */\n      dup3\n        /* \"#utility.yul\":13075:13084   */\n      dup13\n        /* \"#utility.yul\":13071:13093   */\n      add\n        /* \"#utility.yul\":13050:13103   */\n      tag_418\n      jump\t// in\n    tag_599:\n        /* \"#utility.yul\":13040:13103   */\n      swap8\n      pop\n        /* \"#utility.yul\":12995:13113   */\n      pop\n        /* \"#utility.yul\":13152:13154   */\n      0x40\n        /* \"#utility.yul\":13178:13231   */\n      tag_600\n        /* \"#utility.yul\":13223:13230   */\n      dup12\n        /* \"#utility.yul\":13214:13220   */\n      dup3\n        /* \"#utility.yul\":13203:13212   */\n      dup13\n        /* \"#utility.yul\":13199:13221   */\n      add\n        /* \"#utility.yul\":13178:13231   */\n      tag_408\n      jump\t// in\n    tag_600:\n        /* \"#utility.yul\":13168:13231   */\n      swap7\n      pop\n        /* \"#utility.yul\":13123:13241   */\n      pop\n        /* \"#utility.yul\":13280:13282   */\n      0x60\n        /* \"#utility.yul\":13306:13359   */\n      tag_601\n        /* \"#utility.yul\":13351:13358   */\n      dup12\n        /* \"#utility.yul\":13342:13348   */\n      dup3\n        /* \"#utility.yul\":13331:13340   */\n      dup13\n        /* \"#utility.yul\":13327:13349   */\n      add\n        /* \"#utility.yul\":13306:13359   */\n      tag_408\n      jump\t// in\n    tag_601:\n        /* \"#utility.yul\":13296:13359   */\n      swap6\n      pop\n        /* \"#utility.yul\":13251:13369   */\n      pop\n        /* \"#utility.yul\":13408:13411   */\n      0x80\n        /* \"#utility.yul\":13435:13488   */\n      tag_602\n        /* \"#utility.yul\":13480:13487   */\n      dup12\n        /* \"#utility.yul\":13471:13477   */\n      dup3\n        /* \"#utility.yul\":13460:13469   */\n      dup13\n        /* \"#utility.yul\":13456:13478   */\n      add\n        /* \"#utility.yul\":13435:13488   */\n      tag_408\n      jump\t// in\n    tag_602:\n        /* \"#utility.yul\":13425:13488   */\n      swap5\n      pop\n        /* \"#utility.yul\":13379:13498   */\n      pop\n        /* \"#utility.yul\":13537:13540   */\n      0xa0\n        /* \"#utility.yul\":13564:13617   */\n      tag_603\n        /* \"#utility.yul\":13609:13616   */\n      dup12\n        /* \"#utility.yul\":13600:13606   */\n      dup3\n        /* \"#utility.yul\":13589:13598   */\n      dup13\n        /* \"#utility.yul\":13585:13607   */\n      add\n        /* \"#utility.yul\":13564:13617   */\n      tag_408\n      jump\t// in\n    tag_603:\n        /* \"#utility.yul\":13554:13617   */\n      swap4\n      pop\n        /* \"#utility.yul\":13508:13627   */\n      pop\n        /* \"#utility.yul\":13666:13669   */\n      0xc0\n        /* \"#utility.yul\":13693:13746   */\n      tag_604\n        /* \"#utility.yul\":13738:13745   */\n      dup12\n        /* \"#utility.yul\":13729:13735   */\n      dup3\n        /* \"#utility.yul\":13718:13727   */\n      dup13\n        /* \"#utility.yul\":13714:13736   */\n      add\n        /* \"#utility.yul\":13693:13746   */\n      tag_418\n      jump\t// in\n    tag_604:\n        /* \"#utility.yul\":13683:13746   */\n      swap3\n      pop\n        /* \"#utility.yul\":13637:13756   */\n      pop\n        /* \"#utility.yul\":13795:13798   */\n      0xe0\n        /* \"#utility.yul\":13822:13875   */\n      tag_605\n        /* \"#utility.yul\":13867:13874   */\n      dup12\n        /* \"#utility.yul\":13858:13864   */\n      dup3\n        /* \"#utility.yul\":13847:13856   */\n      dup13\n        /* \"#utility.yul\":13843:13865   */\n      add\n        /* \"#utility.yul\":13822:13875   */\n      tag_408\n      jump\t// in\n    tag_605:\n        /* \"#utility.yul\":13812:13875   */\n      swap2\n      pop\n        /* \"#utility.yul\":13766:13885   */\n      pop\n        /* \"#utility.yul\":12543:13892   */\n      swap3\n      swap6\n      swap9\n      pop\n      swap3\n      swap6\n      swap9\n      swap1\n      swap4\n      swap7\n      pop\n      jump\t// out\n        /* \"#utility.yul\":13898:14340   */\n    tag_104:\n        /* \"#utility.yul\":14047:14051   */\n      0x00\n        /* \"#utility.yul\":14085:14087   */\n      0x60\n        /* \"#utility.yul\":14074:14083   */\n      dup3\n        /* \"#utility.yul\":14070:14088   */\n      add\n        /* \"#utility.yul\":14062:14088   */\n      swap1\n      pop\n        /* \"#utility.yul\":14098:14169   */\n      tag_607\n        /* \"#utility.yul\":14166:14167   */\n      0x00\n        /* \"#utility.yul\":14155:14164   */\n      dup4\n        /* \"#utility.yul\":14151:14168   */\n      add\n        /* \"#utility.yul\":14142:14148   */\n      dup7\n        /* \"#utility.yul\":14098:14169   */\n      tag_409\n      jump\t// in\n    tag_607:\n        /* \"#utility.yul\":14179:14251   */\n      tag_608\n        /* \"#utility.yul\":14247:14249   */\n      0x20\n        /* \"#utility.yul\":14236:14245   */\n      dup4\n        /* \"#utility.yul\":14232:14250   */\n      add\n        /* \"#utility.yul\":14223:14229   */\n      dup6\n        /* \"#utility.yul\":14179:14251   */\n      tag_409\n      jump\t// in\n    tag_608:\n        /* \"#utility.yul\":14261:14333   */\n      tag_609\n        /* \"#utility.yul\":14329:14331   */\n      0x40\n        /* \"#utility.yul\":14318:14327   */\n      dup4\n        /* \"#utility.yul\":14314:14332   */\n      add\n        /* \"#utility.yul\":14305:14311   */\n      dup5\n        /* \"#utility.yul\":14261:14333   */\n      tag_409\n      jump\t// in\n    tag_609:\n        /* \"#utility.yul\":13898:14340   */\n      swap5\n      swap4\n      pop\n      pop\n      pop\n      pop\n      jump\t// out\n        /* \"#utility.yul\":14346:14516   */\n    tag_435:\n        /* \"#utility.yul\":14486:14508   */\n      0x496e73756666696369656e745265736572766573000000000000000000000000\n        /* \"#utility.yul\":14482:14483   */\n      0x00\n        /* \"#utility.yul\":14474:14480   */\n      dup3\n        /* \"#utility.yul\":14470:14484   */\n      add\n        /* \"#utility.yul\":14463:14509   */\n      mstore\n        /* \"#utility.yul\":14346:14516   */\n      pop\n      jump\t// out\n        /* \"#utility.yul\":14522:14888   */\n    tag_436:\n        /* \"#utility.yul\":14664:14667   */\n      0x00\n        /* \"#utility.yul\":14685:14752   */\n      tag_612\n        /* \"#utility.yul\":14749:14751   */\n      0x14\n        /* \"#utility.yul\":14744:14747   */\n      dup4\n        /* \"#utility.yul\":14685:14752   */\n      tag_411\n      jump\t// in\n    tag_612:\n        /* \"#utility.yul\":14678:14752   */\n      swap2\n      pop\n        /* \"#utility.yul\":14761:14854   */\n      tag_613\n        /* \"#utility.yul\":14850:14853   */\n      dup3\n        /* \"#utility.yul\":14761:14854   */\n      tag_435\n      jump\t// in\n    tag_613:\n        /* \"#utility.yul\":14879:14881   */\n      0x20\n        /* \"#utility.yul\":14874:14877   */\n      dup3\n        /* \"#utility.yul\":14870:14882   */\n      add\n        /* \"#utility.yul\":14863:14882   */\n      swap1\n      pop\n        /* \"#utility.yul\":14522:14888   */\n      swap2\n      swap1\n      pop\n      jump\t// out\n        /* \"#utility.yul\":14894:15313   */\n    tag_109:\n        /* \"#utility.yul\":15060:15064   */\n      0x00\n        /* \"#utility.yul\":15098:15100   */\n      0x20\n        /* \"#utility.yul\":15087:15096   */\n      dup3\n        /* \"#utility.yul\":15083:15101   */\n      add\n        /* \"#utility.yul\":15075:15101   */\n      swap1\n      pop\n        /* \"#utility.yul\":15147:15156   */\n      dup2\n        /* \"#utility.yul\":15141:15145   */\n      dup2\n        /* \"#utility.yul\":15137:15157   */\n      sub\n        /* \"#utility.yul\":15133:15134   */\n      0x00\n        /* \"#utility.yul\":15122:15131   */\n      dup4\n        /* \"#utility.yul\":15118:15135   */\n      add\n        /* \"#utility.yul\":15111:15158   */\n      mstore\n        /* \"#utility.yul\":15175:15306   */\n      tag_615\n        /* \"#utility.yul\":15301:15305   */\n      dup2\n        /* \"#utility.yul\":15175:15306   */\n      tag_436\n      jump\t// in\n    tag_615:\n        /* \"#utility.yul\":15167:15306   */\n      swap1\n      pop\n        /* \"#utility.yul\":14894:15313   */\n      swap2\n      swap1\n      pop\n      jump\t// out\n        /* \"#utility.yul\":15319:15499   */\n    tag_437:\n        /* \"#utility.yul\":15367:15444   */\n      0x4e487b7100000000000000000000000000000000000000000000000000000000\n        /* \"#utility.yul\":15364:15365   */\n      0x00\n        /* \"#utility.yul\":15357:15445   */\n      mstore\n        /* \"#utility.yul\":15464:15468   */\n      0x11\n        /* \"#utility.yul\":15461:15462   */\n      0x04\n        /* \"#utility.yul\":15454:15469   */\n      mstore\n        /* \"#utility.yul\":15488:15492   */\n      0x24\n        /* \"#utility.yul\":15485:15486   */\n      0x00\n        /* \"#utility.yul\":15478:15493   */\n      revert\n        /* \"#utility.yul\":15505:15915   */\n    tag_111:\n        /* \"#utility.yul\":15545:15552   */\n      0x00\n        /* \"#utility.yul\":15568:15588   */\n      tag_618\n        /* \"#utility.yul\":15586:15587   */\n      dup3\n        /* \"#utility.yul\":15568:15588   */\n      tag_406\n      jump\t// in\n    tag_618:\n        /* \"#utility.yul\":15563:15588   */\n      swap2\n      pop\n        /* \"#utility.yul\":15602:15622   */\n      tag_619\n        /* \"#utility.yul\":15620:15621   */\n      dup4\n        /* \"#utility.yul\":15602:15622   */\n      tag_406\n      jump\t// in\n    tag_619:\n        /* \"#utility.yul\":15597:15622   */\n      swap3\n      pop\n        /* \"#utility.yul\":15657:15658   */\n      dup3\n        /* \"#utility.yul\":15654:15655   */\n      dup3\n        /* \"#utility.yul\":15650:15659   */\n      mul\n        /* \"#utility.yul\":15679:15709   */\n      tag_620\n        /* \"#utility.yul\":15697:15708   */\n      dup2\n        /* \"#utility.yul\":15679:15709   */\n      tag_406\n      jump\t// in\n    tag_620:\n        /* \"#utility.yul\":15668:15709   */\n      swap2\n      pop\n        /* \"#utility.yul\":15858:15859   */\n      dup3\n        /* \"#utility.yul\":15849:15856   */\n      dup3\n        /* \"#utility.yul\":15845:15860   */\n      div\n        /* \"#utility.yul\":15842:15843   */\n      dup5\n        /* \"#utility.yul\":15839:15861   */\n      eq\n        /* \"#utility.yul\":15819:15820   */\n      dup4\n        /* \"#utility.yul\":15812:15821   */\n      iszero\n        /* \"#utility.yul\":15792:15875   */\n      or\n        /* \"#utility.yul\":15769:15908   */\n      tag_621\n      jumpi\n        /* \"#utility.yul\":15888:15906   */\n      tag_622\n      tag_437\n      jump\t// in\n    tag_622:\n        /* \"#utility.yul\":15769:15908   */\n    tag_621:\n        /* \"#utility.yul\":15553:15915   */\n      pop\n        /* \"#utility.yul\":15505:15915   */\n      swap3\n      swap2\n      pop\n      pop\n      jump\t// out\n        /* \"#utility.yul\":15921:16101   */\n    tag_438:\n        /* \"#utility.yul\":15969:16046   */\n      0x4e487b7100000000000000000000000000000000000000000000000000000000\n        /* \"#utility.yul\":15966:15967   */\n      0x00\n        /* \"#utility.yul\":15959:16047   */\n      mstore\n        /* \"#utility.yul\":16066:16070   */\n      0x12\n        /* \"#utility.yul\":16063:16064   */\n      0x04\n        /* \"#utility.yul\":16056:16071   */\n      mstore\n        /* \"#utility.yul\":16090:16094   */\n      0x24\n        /* \"#utility.yul\":16087:16088   */\n      0x00\n        /* \"#utility.yul\":16080:16095   */\n      revert\n        /* \"#utility.yul\":16107:16292   */\n    tag_113:\n        /* \"#utility.yul\":16147:16148   */\n      0x00\n        /* \"#utility.yul\":16164:16184   */\n      tag_625\n        /* \"#utility.yul\":16182:16183   */\n      dup3\n        /* \"#utility.yul\":16164:16184   */\n      tag_406\n      jump\t// in\n    tag_625:\n        /* \"#utility.yul\":16159:16184   */\n      swap2\n      pop\n        /* \"#utility.yul\":16198:16218   */\n      tag_626\n        /* \"#utility.yul\":16216:16217   */\n      dup4\n        /* \"#utility.yul\":16198:16218   */\n      tag_406\n      jump\t// in\n    tag_626:\n        /* \"#utility.yul\":16193:16218   */\n      swap3\n      pop\n        /* \"#utility.yul\":16237:16238   */\n      dup3\n        /* \"#utility.yul\":16227:16262   */\n      tag_627\n      jumpi\n        /* \"#utility.yul\":16242:16260   */\n      tag_628\n      tag_438\n      jump\t// in\n    tag_628:\n        /* \"#utility.yul\":16227:16262   */\n    tag_627:\n        /* \"#utility.yul\":16284:16285   */\n      dup3\n        /* \"#utility.yul\":16281:16282   */\n      dup3\n        /* \"#utility.yul\":16277:16286   */\n      div\n        /* \"#utility.yul\":16272:16286   */\n      swap1\n      pop\n        /* \"#utility.yul\":16107:16292   */\n      swap3\n      swap2\n      pop\n      pop\n      jump\t// out\n        /* \"#utility.yul\":16298:16478   */\n    tag_439:\n        /* \"#utility.yul\":16346:16423   */\n      0x4e487b7100000000000000000000000000000000000000000000000000000000\n        /* \"#utility.yul\":16343:16344   */\n      0x00\n        /* \"#utility.yul\":16336:16424   */\n      mstore\n        /* \"#utility.yul\":16443:16447   */\n      0x22\n        /* \"#utility.yul\":16440:16441   */\n      0x04\n        /* \"#utility.yul\":16433:16448   */\n      mstore\n        /* \"#utility.yul\":16467:16471   */\n      0x24\n        /* \"#utility.yul\":16464:16465   */\n      0x00\n        /* \"#utility.yul\":16457:16472   */\n      revert\n        /* \"#utility.yul\":16484:16804   */\n    tag_116:\n        /* \"#utility.yul\":16528:16534   */\n      0x00\n        /* \"#utility.yul\":16565:16566   */\n      0x02\n        /* \"#utility.yul\":16559:16563   */\n      dup3\n        /* \"#utility.yul\":16555:16567   */\n      div\n        /* \"#utility.yul\":16545:16567   */\n      swap1\n      pop\n        /* \"#utility.yul\":16612:16613   */\n      0x01\n        /* \"#utility.yul\":16606:16610   */\n      dup3\n        /* \"#utility.yul\":16602:16614   */\n      and\n        /* \"#utility.yul\":16633:16651   */\n      dup1\n        /* \"#utility.yul\":16623:16704   */\n      tag_631\n      jumpi\n        /* \"#utility.yul\":16689:16693   */\n      0x7f\n        /* \"#utility.yul\":16681:16687   */\n      dup3\n        /* \"#utility.yul\":16677:16694   */\n      and\n        /* \"#utility.yul\":16667:16694   */\n      swap2\n      pop\n        /* \"#utility.yul\":16623:16704   */\n    tag_631:\n        /* \"#utility.yul\":16751:16753   */\n      0x20\n        /* \"#utility.yul\":16743:16749   */\n      dup3\n        /* \"#utility.yul\":16740:16754   */\n      lt\n        /* \"#utility.yul\":16720:16738   */\n      dup2\n        /* \"#utility.yul\":16717:16755   */\n      sub\n        /* \"#utility.yul\":16714:16798   */\n      tag_632\n      jumpi\n        /* \"#utility.yul\":16770:16788   */\n      tag_633\n      tag_439\n      jump\t// in\n    tag_633:\n        /* \"#utility.yul\":16714:16798   */\n    tag_632:\n        /* \"#utility.yul\":16535:16804   */\n      pop\n        /* \"#utility.yul\":16484:16804   */\n      swap2\n      swap1\n      pop\n      jump\t// out\n        /* \"#utility.yul\":16810:16953   */\n    tag_440:\n        /* \"#utility.yul\":16867:16872   */\n      0x00\n        /* \"#utility.yul\":16898:16904   */\n      dup2\n        /* \"#utility.yul\":16892:16905   */\n      mload\n        /* \"#utility.yul\":16883:16905   */\n      swap1\n      pop\n        /* \"#utility.yul\":16914:16947   */\n      tag_635\n        /* \"#utility.yul\":16941:16946   */\n      dup2\n        /* \"#utility.yul\":16914:16947   */\n      tag_407\n      jump\t// in\n    tag_635:\n        /* \"#utility.yul\":16810:16953   */\n      swap3\n      swap2\n      pop\n      pop\n      jump\t// out\n        /* \"#utility.yul\":16959:17310   */\n    tag_126:\n        /* \"#utility.yul\":17029:17035   */\n      0x00\n        /* \"#utility.yul\":17078:17080   */\n      0x20\n        /* \"#utility.yul\":17066:17075   */\n      dup3\n        /* \"#utility.yul\":17057:17064   */\n      dup5\n        /* \"#utility.yul\":17053:17076   */\n      sub\n        /* \"#utility.yul\":17049:17081   */\n      slt\n        /* \"#utility.yul\":17046:17165   */\n      iszero\n      tag_637\n      jumpi\n        /* \"#utility.yul\":17084:17163   */\n      tag_638\n      tag_404\n      jump\t// in\n    tag_638:\n        /* \"#utility.yul\":17046:17165   */\n    tag_637:\n        /* \"#utility.yul\":17204:17205   */\n      0x00\n        /* \"#utility.yul\":17229:17293   */\n      tag_639\n        /* \"#utility.yul\":17285:17292   */\n      dup5\n        /* \"#utility.yul\":17276:17282   */\n      dup3\n        /* \"#utility.yul\":17265:17274   */\n      dup6\n        /* \"#utility.yul\":17261:17283   */\n      add\n        /* \"#utility.yul\":17229:17293   */\n      tag_440\n      jump\t// in\n    tag_639:\n        /* \"#utility.yul\":17219:17293   */\n      swap2\n      pop\n        /* \"#utility.yul\":17175:17303   */\n      pop\n        /* \"#utility.yul\":16959:17310   */\n      swap3\n      swap2\n      pop\n      pop\n      jump\t// out\n        /* \"#utility.yul\":17316:17484   */\n    tag_441:\n        /* \"#utility.yul\":17456:17476   */\n      0x5472616e73616374696f6e457870697265640000000000000000000000000000\n        /* \"#utility.yul\":17452:17453   */\n      0x00\n        /* \"#utility.yul\":17444:17450   */\n      dup3\n        /* \"#utility.yul\":17440:17454   */\n      add\n        /* \"#utility.yul\":17433:17477   */\n      mstore\n        /* \"#utility.yul\":17316:17484   */\n      pop\n      jump\t// out\n        /* \"#utility.yul\":17490:17856   */\n    tag_442:\n        /* \"#utility.yul\":17632:17635   */\n      0x00\n        /* \"#utility.yul\":17653:17720   */\n      tag_642\n        /* \"#utility.yul\":17717:17719   */\n      0x12\n        /* \"#utility.yul\":17712:17715   */\n      dup4\n        /* \"#utility.yul\":17653:17720   */\n      tag_411\n      jump\t// in\n    tag_642:\n        /* \"#utility.yul\":17646:17720   */\n      swap2\n      pop\n        /* \"#utility.yul\":17729:17822   */\n      tag_643\n        /* \"#utility.yul\":17818:17821   */\n      dup3\n        /* \"#utility.yul\":17729:17822   */\n      tag_441\n      jump\t// in\n    tag_643:\n        /* \"#utility.yul\":17847:17849   */\n      0x20\n        /* \"#utility.yul\":17842:17845   */\n      dup3\n        /* \"#utility.yul\":17838:17850   */\n      add\n        /* \"#utility.yul\":17831:17850   */\n      swap1\n      pop\n        /* \"#utility.yul\":17490:17856   */\n      swap2\n      swap1\n      pop\n      jump\t// out\n        /* \"#utility.yul\":17862:18281   */\n    tag_147:\n        /* \"#utility.yul\":18028:18032   */\n      0x00\n        /* \"#utility.yul\":18066:18068   */\n      0x20\n        /* \"#utility.yul\":18055:18064   */\n      dup3\n        /* \"#utility.yul\":18051:18069   */\n      add\n        /* \"#utility.yul\":18043:18069   */\n      swap1\n      pop\n        /* \"#utility.yul\":18115:18124   */\n      dup2\n        /* \"#utility.yul\":18109:18113   */\n      dup2\n        /* \"#utility.yul\":18105:18125   */\n      sub\n        /* \"#utility.yul\":18101:18102   */\n      0x00\n        /* \"#utility.yul\":18090:18099   */\n      dup4\n        /* \"#utility.yul\":18086:18103   */\n      add\n        /* \"#utility.yul\":18079:18126   */\n      mstore\n        /* \"#utility.yul\":18143:18274   */\n      tag_645\n        /* \"#utility.yul\":18269:18273   */\n      dup2\n        /* \"#utility.yul\":18143:18274   */\n      tag_442\n      jump\t// in\n    tag_645:\n        /* \"#utility.yul\":18135:18274   */\n      swap1\n      pop\n        /* \"#utility.yul\":17862:18281   */\n      swap2\n      swap1\n      pop\n      jump\t// out\n        /* \"#utility.yul\":18287:18455   */\n    tag_443:\n        /* \"#utility.yul\":18427:18447   */\n      0x496e76616c696454726164696e67506174680000000000000000000000000000\n        /* \"#utility.yul\":18423:18424   */\n      0x00\n        /* \"#utility.yul\":18415:18421   */\n      dup3\n        /* \"#utility.yul\":18411:18425   */\n      add\n        /* \"#utility.yul\":18404:18448   */\n      mstore\n        /* \"#utility.yul\":18287:18455   */\n      pop\n      jump\t// out\n        /* \"#utility.yul\":18461:18827   */\n    tag_444:\n        /* \"#utility.yul\":18603:18606   */\n      0x00\n        /* \"#utility.yul\":18624:18691   */\n      tag_648\n        /* \"#utility.yul\":18688:18690   */\n      0x12\n        /* \"#utility.yul\":18683:18686   */\n      dup4\n        /* \"#utility.yul\":18624:18691   */\n      tag_411\n      jump\t// in\n    tag_648:\n        /* \"#utility.yul\":18617:18691   */\n      swap2\n      pop\n        /* \"#utility.yul\":18700:18793   */\n      tag_649\n        /* \"#utility.yul\":18789:18792   */\n      dup3\n        /* \"#utility.yul\":18700:18793   */\n      tag_443\n      jump\t// in\n    tag_649:\n        /* \"#utility.yul\":18818:18820   */\n      0x20\n        /* \"#utility.yul\":18813:18816   */\n      dup3\n        /* \"#utility.yul\":18809:18821   */\n      add\n        /* \"#utility.yul\":18802:18821   */\n      swap1\n      pop\n        /* \"#utility.yul\":18461:18827   */\n      swap2\n      swap1\n      pop\n      jump\t// out\n        /* \"#utility.yul\":18833:19252   */\n    tag_151:\n        /* \"#utility.yul\":18999:19003   */\n      0x00\n        /* \"#utility.yul\":19037:19039   */\n      0x20\n        /* \"#utility.yul\":19026:19035   */\n      dup3\n        /* \"#utility.yul\":19022:19040   */\n      add\n        /* \"#utility.yul\":19014:19040   */\n      swap1\n      pop\n        /* \"#utility.yul\":19086:19095   */\n      dup2\n        /* \"#utility.yul\":19080:19084   */\n      dup2\n        /* \"#utility.yul\":19076:19096   */\n      sub\n        /* \"#utility.yul\":19072:19073   */\n      0x00\n        /* \"#utility.yul\":19061:19070   */\n      dup4\n        /* \"#utility.yul\":19057:19074   */\n      add\n        /* \"#utility.yul\":19050:19097   */\n      mstore\n        /* \"#utility.yul\":19114:19245   */\n      tag_651\n        /* \"#utility.yul\":19240:19244   */\n      dup2\n        /* \"#utility.yul\":19114:19245   */\n      tag_444\n      jump\t// in\n    tag_651:\n        /* \"#utility.yul\":19106:19245   */\n      swap1\n      pop\n        /* \"#utility.yul\":18833:19252   */\n      swap2\n      swap1\n      pop\n      jump\t// out\n        /* \"#utility.yul\":19258:19424   */\n    tag_445:\n        /* \"#utility.yul\":19398:19416   */\n      0x496e76616c6964526563697069656e7400000000000000000000000000000000\n        /* \"#utility.yul\":19394:19395   */\n      0x00\n        /* \"#utility.yul\":19386:19392   */\n      dup3\n        /* \"#utility.yul\":19382:19396   */\n      add\n        /* \"#utility.yul\":19375:19417   */\n      mstore\n        /* \"#utility.yul\":19258:19424   */\n      pop\n      jump\t// out\n        /* \"#utility.yul\":19430:19796   */\n    tag_446:\n        /* \"#utility.yul\":19572:19575   */\n      0x00\n        /* \"#utility.yul\":19593:19660   */\n      tag_654\n        /* \"#utility.yul\":19657:19659   */\n      0x10\n        /* \"#utility.yul\":19652:19655   */\n      dup4\n        /* \"#utility.yul\":19593:19660   */\n      tag_411\n      jump\t// in\n    tag_654:\n        /* \"#utility.yul\":19586:19660   */\n      swap2\n      pop\n        /* \"#utility.yul\":19669:19762   */\n      tag_655\n        /* \"#utility.yul\":19758:19761   */\n      dup3\n        /* \"#utility.yul\":19669:19762   */\n      tag_445\n      jump\t// in\n    tag_655:\n        /* \"#utility.yul\":19787:19789   */\n      0x20\n        /* \"#utility.yul\":19782:19785   */\n      dup3\n        /* \"#utility.yul\":19778:19790   */\n      add\n        /* \"#utility.yul\":19771:19790   */\n      swap1\n      pop\n        /* \"#utility.yul\":19430:19796   */\n      swap2\n      swap1\n      pop\n      jump\t// out\n        /* \"#utility.yul\":19802:20221   */\n    tag_154:\n        /* \"#utility.yul\":19968:19972   */\n      0x00\n        /* \"#utility.yul\":20006:20008   */\n      0x20\n        /* \"#utility.yul\":19995:20004   */\n      dup3\n        /* \"#utility.yul\":19991:20009   */\n      add\n        /* \"#utility.yul\":19983:20009   */\n      swap1\n      pop\n        /* \"#utility.yul\":20055:20064   */\n      dup2\n        /* \"#utility.yul\":20049:20053   */\n      dup2\n        /* \"#utility.yul\":20045:20065   */\n      sub\n        /* \"#utility.yul\":20041:20042   */\n      0x00\n        /* \"#utility.yul\":20030:20039   */\n      dup4\n        /* \"#utility.yul\":20026:20043   */\n      add\n        /* \"#utility.yul\":20019:20066   */\n      mstore\n        /* \"#utility.yul\":20083:20214   */\n      tag_657\n        /* \"#utility.yul\":20209:20213   */\n      dup2\n        /* \"#utility.yul\":20083:20214   */\n      tag_446\n      jump\t// in\n    tag_657:\n        /* \"#utility.yul\":20075:20214   */\n      swap1\n      pop\n        /* \"#utility.yul\":19802:20221   */\n      swap2\n      swap1\n      pop\n      jump\t// out\n        /* \"#utility.yul\":20227:20407   */\n    tag_158:\n        /* \"#utility.yul\":20275:20352   */\n      0x4e487b7100000000000000000000000000000000000000000000000000000000\n        /* \"#utility.yul\":20272:20273   */\n      0x00\n        /* \"#utility.yul\":20265:20353   */\n      mstore\n        /* \"#utility.yul\":20372:20376   */\n      0x32\n        /* \"#utility.yul\":20369:20370   */\n      0x04\n        /* \"#utility.yul\":20362:20377   */\n      mstore\n        /* \"#utility.yul\":20396:20400   */\n      0x24\n        /* \"#utility.yul\":20393:20394   */\n      0x00\n        /* \"#utility.yul\":20386:20401   */\n      revert\n        /* \"#utility.yul\":20413:20583   */\n    tag_447:\n        /* \"#utility.yul\":20553:20575   */\n      0x556e737570706f72746564546f6b656e50616972000000000000000000000000\n        /* \"#utility.yul\":20549:20550   */\n      0x00\n        /* \"#utility.yul\":20541:20547   */\n      dup3\n        /* \"#utility.yul\":20537:20551   */\n      add\n        /* \"#utility.yul\":20530:20576   */\n      mstore\n        /* \"#utility.yul\":20413:20583   */\n      pop\n      jump\t// out\n        /* \"#utility.yul\":20589:20955   */\n    tag_448:\n        /* \"#utility.yul\":20731:20734   */\n      0x00\n        /* \"#utility.yul\":20752:20819   */\n      tag_661\n        /* \"#utility.yul\":20816:20818   */\n      0x14\n        /* \"#utility.yul\":20811:20814   */\n      dup4\n        /* \"#utility.yul\":20752:20819   */\n      tag_411\n      jump\t// in\n    tag_661:\n        /* \"#utility.yul\":20745:20819   */\n      swap2\n      pop\n        /* \"#utility.yul\":20828:20921   */\n      tag_662\n        /* \"#utility.yul\":20917:20920   */\n      dup3\n        /* \"#utility.yul\":20828:20921   */\n      tag_447\n      jump\t// in\n    tag_662:\n        /* \"#utility.yul\":20946:20948   */\n      0x20\n        /* \"#utility.yul\":20941:20944   */\n      dup3\n        /* \"#utility.yul\":20937:20949   */\n      add\n        /* \"#utility.yul\":20930:20949   */\n      swap1\n      pop\n        /* \"#utility.yul\":20589:20955   */\n      swap2\n      swap1\n      pop\n      jump\t// out\n        /* \"#utility.yul\":20961:21380   */\n    tag_166:\n        /* \"#utility.yul\":21127:21131   */\n      0x00\n        /* \"#utility.yul\":21165:21167   */\n      0x20\n        /* \"#utility.yul\":21154:21163   */\n      dup3\n        /* \"#utility.yul\":21150:21168   */\n      add\n        /* \"#utility.yul\":21142:21168   */\n      swap1\n      pop\n        /* \"#utility.yul\":21214:21223   */\n      dup2\n        /* \"#utility.yul\":21208:21212   */\n      dup2\n        /* \"#utility.yul\":21204:21224   */\n      sub\n        /* \"#utility.yul\":21200:21201   */\n      0x00\n        /* \"#utility.yul\":21189:21198   */\n      dup4\n        /* \"#utility.yul\":21185:21202   */\n      add\n        /* \"#utility.yul\":21178:21225   */\n      mstore\n        /* \"#utility.yul\":21242:21373   */\n      tag_664\n        /* \"#utility.yul\":21368:21372   */\n      dup2\n        /* \"#utility.yul\":21242:21373   */\n      tag_448\n      jump\t// in\n    tag_664:\n        /* \"#utility.yul\":21234:21373   */\n      swap1\n      pop\n        /* \"#utility.yul\":20961:21380   */\n      swap2\n      swap1\n      pop\n      jump\t// out\n        /* \"#utility.yul\":21386:21560   */\n    tag_449:\n        /* \"#utility.yul\":21526:21552   */\n      0x496e73756666696369656e744f7574707574416d6f756e740000000000000000\n        /* \"#utility.yul\":21522:21523   */\n      0x00\n        /* \"#utility.yul\":21514:21520   */\n      dup3\n        /* \"#utility.yul\":21510:21524   */\n      add\n        /* \"#utility.yul\":21503:21553   */\n      mstore\n        /* \"#utility.yul\":21386:21560   */\n      pop\n      jump\t// out\n        /* \"#utility.yul\":21566:21932   */\n    tag_450:\n        /* \"#utility.yul\":21708:21711   */\n      0x00\n        /* \"#utility.yul\":21729:21796   */\n      tag_667\n        /* \"#utility.yul\":21793:21795   */\n      0x18\n        /* \"#utility.yul\":21788:21791   */\n      dup4\n        /* \"#utility.yul\":21729:21796   */\n      tag_411\n      jump\t// in\n    tag_667:\n        /* \"#utility.yul\":21722:21796   */\n      swap2\n      pop\n        /* \"#utility.yul\":21805:21898   */\n      tag_668\n        /* \"#utility.yul\":21894:21897   */\n      dup3\n        /* \"#utility.yul\":21805:21898   */\n      tag_449\n      jump\t// in\n    tag_668:\n        /* \"#utility.yul\":21923:21925   */\n      0x20\n        /* \"#utility.yul\":21918:21921   */\n      dup3\n        /* \"#utility.yul\":21914:21926   */\n      add\n        /* \"#utility.yul\":21907:21926   */\n      swap1\n      pop\n        /* \"#utility.yul\":21566:21932   */\n      swap2\n      swap1\n      pop\n      jump\t// out\n        /* \"#utility.yul\":21938:22357   */\n    tag_185:\n        /* \"#utility.yul\":22104:22108   */\n      0x00\n        /* \"#utility.yul\":22142:22144   */\n      0x20\n        /* \"#utility.yul\":22131:22140   */\n      dup3\n        /* \"#utility.yul\":22127:22145   */\n      add\n        /* \"#utility.yul\":22119:22145   */\n      swap1\n      pop\n        /* \"#utility.yul\":22191:22200   */\n      dup2\n        /* \"#utility.yul\":22185:22189   */\n      dup2\n        /* \"#utility.yul\":22181:22201   */\n      sub\n        /* \"#utility.yul\":22177:22178   */\n      0x00\n        /* \"#utility.yul\":22166:22175   */\n      dup4\n        /* \"#utility.yul\":22162:22179   */\n      add\n        /* \"#utility.yul\":22155:22202   */\n      mstore\n        /* \"#utility.yul\":22219:22350   */\n      tag_670\n        /* \"#utility.yul\":22345:22349   */\n      dup2\n        /* \"#utility.yul\":22219:22350   */\n      tag_450\n      jump\t// in\n    tag_670:\n        /* \"#utility.yul\":22211:22350   */\n      swap1\n      pop\n        /* \"#utility.yul\":21938:22357   */\n      swap2\n      swap1\n      pop\n      jump\t// out\n        /* \"#utility.yul\":22363:22805   */\n    tag_190:\n        /* \"#utility.yul\":22512:22516   */\n      0x00\n        /* \"#utility.yul\":22550:22552   */\n      0x60\n        /* \"#utility.yul\":22539:22548   */\n      dup3\n        /* \"#utility.yul\":22535:22553   */\n      add\n        /* \"#utility.yul\":22527:22553   */\n      swap1\n      pop\n        /* \"#utility.yul\":22563:22634   */\n      tag_672\n        /* \"#utility.yul\":22631:22632   */\n      0x00\n        /* \"#utility.yul\":22620:22629   */\n      dup4\n        /* \"#utility.yul\":22616:22633   */\n      add\n        /* \"#utility.yul\":22607:22613   */\n      dup7\n        /* \"#utility.yul\":22563:22634   */\n      tag_421\n      jump\t// in\n    tag_672:\n        /* \"#utility.yul\":22644:22716   */\n      tag_673\n        /* \"#utility.yul\":22712:22714   */\n      0x20\n        /* \"#utility.yul\":22701:22710   */\n      dup4\n        /* \"#utility.yul\":22697:22715   */\n      add\n        /* \"#utility.yul\":22688:22694   */\n      dup6\n        /* \"#utility.yul\":22644:22716   */\n      tag_421\n      jump\t// in\n    tag_673:\n        /* \"#utility.yul\":22726:22798   */\n      tag_674\n        /* \"#utility.yul\":22794:22796   */\n      0x40\n        /* \"#utility.yul\":22783:22792   */\n      dup4\n        /* \"#utility.yul\":22779:22797   */\n      add\n        /* \"#utility.yul\":22770:22776   */\n      dup5\n        /* \"#utility.yul\":22726:22798   */\n      tag_409\n      jump\t// in\n    tag_674:\n        /* \"#utility.yul\":22363:22805   */\n      swap5\n      swap4\n      pop\n      pop\n      pop\n      pop\n      jump\t// out\n        /* \"#utility.yul\":22811:22927   */\n    tag_451:\n        /* \"#utility.yul\":22881:22902   */\n      tag_676\n        /* \"#utility.yul\":22896:22901   */\n      dup2\n        /* \"#utility.yul\":22881:22902   */\n      tag_419\n      jump\t// in\n    tag_676:\n        /* \"#utility.yul\":22874:22879   */\n      dup2\n        /* \"#utility.yul\":22871:22903   */\n      eq\n        /* \"#utility.yul\":22861:22921   */\n      tag_677\n      jumpi\n        /* \"#utility.yul\":22917:22918   */\n      0x00\n        /* \"#utility.yul\":22914:22915   */\n      0x00\n        /* \"#utility.yul\":22907:22919   */\n      revert\n        /* \"#utility.yul\":22861:22921   */\n    tag_677:\n        /* \"#utility.yul\":22811:22927   */\n      pop\n      jump\t// out\n        /* \"#utility.yul\":22933:23070   */\n    tag_452:\n        /* \"#utility.yul\":22987:22992   */\n      0x00\n        /* \"#utility.yul\":23018:23024   */\n      dup2\n        /* \"#utility.yul\":23012:23025   */\n      mload\n        /* \"#utility.yul\":23003:23025   */\n      swap1\n      pop\n        /* \"#utility.yul\":23034:23064   */\n      tag_679\n        /* \"#utility.yul\":23058:23063   */\n      dup2\n        /* \"#utility.yul\":23034:23064   */\n      tag_451\n      jump\t// in\n    tag_679:\n        /* \"#utility.yul\":22933:23070   */\n      swap3\n      swap2\n      pop\n      pop\n      jump\t// out\n        /* \"#utility.yul\":23076:23421   */\n    tag_194:\n        /* \"#utility.yul\":23143:23149   */\n      0x00\n        /* \"#utility.yul\":23192:23194   */\n      0x20\n        /* \"#utility.yul\":23180:23189   */\n      dup3\n        /* \"#utility.yul\":23171:23178   */\n      dup5\n        /* \"#utility.yul\":23167:23190   */\n      sub\n        /* \"#utility.yul\":23163:23195   */\n      slt\n        /* \"#utility.yul\":23160:23279   */\n      iszero\n      tag_681\n      jumpi\n        /* \"#utility.yul\":23198:23277   */\n      tag_682\n      tag_404\n      jump\t// in\n    tag_682:\n        /* \"#utility.yul\":23160:23279   */\n    tag_681:\n        /* \"#utility.yul\":23318:23319   */\n      0x00\n        /* \"#utility.yul\":23343:23404   */\n      tag_683\n        /* \"#utility.yul\":23396:23403   */\n      dup5\n        /* \"#utility.yul\":23387:23393   */\n      dup3\n        /* \"#utility.yul\":23376:23385   */\n      dup6\n        /* \"#utility.yul\":23372:23394   */\n      add\n        /* \"#utility.yul\":23343:23404   */\n      tag_452\n      jump\t// in\n    tag_683:\n        /* \"#utility.yul\":23333:23404   */\n      swap2\n      pop\n        /* \"#utility.yul\":23289:23414   */\n      pop\n        /* \"#utility.yul\":23076:23421   */\n      swap3\n      swap2\n      pop\n      pop\n      jump\t// out\n        /* \"#utility.yul\":23427:23596   */\n    tag_453:\n        /* \"#utility.yul\":23567:23588   */\n      0x496e7075745472616e736665724661696c656400000000000000000000000000\n        /* \"#utility.yul\":23563:23564   */\n      0x00\n        /* \"#utility.yul\":23555:23561   */\n      dup3\n        /* \"#utility.yul\":23551:23565   */\n      add\n        /* \"#utility.yul\":23544:23589   */\n      mstore\n        /* \"#utility.yul\":23427:23596   */\n      pop\n      jump\t// out\n        /* \"#utility.yul\":23602:23968   */\n    tag_454:\n        /* \"#utility.yul\":23744:23747   */\n      0x00\n        /* \"#utility.yul\":23765:23832   */\n      tag_686\n        /* \"#utility.yul\":23829:23831   */\n      0x13\n        /* \"#utility.yul\":23824:23827   */\n      dup4\n        /* \"#utility.yul\":23765:23832   */\n      tag_411\n      jump\t// in\n    tag_686:\n        /* \"#utility.yul\":23758:23832   */\n      swap2\n      pop\n        /* \"#utility.yul\":23841:23934   */\n      tag_687\n        /* \"#utility.yul\":23930:23933   */\n      dup3\n        /* \"#utility.yul\":23841:23934   */\n      tag_453\n      jump\t// in\n    tag_687:\n        /* \"#utility.yul\":23959:23961   */\n      0x20\n        /* \"#utility.yul\":23954:23957   */\n      dup3\n        /* \"#utility.yul\":23950:23962   */\n      add\n        /* \"#utility.yul\":23943:23962   */\n      swap1\n      pop\n        /* \"#utility.yul\":23602:23968   */\n      swap2\n      swap1\n      pop\n      jump\t// out\n        /* \"#utility.yul\":23974:24393   */\n    tag_197:\n        /* \"#utility.yul\":24140:24144   */\n      0x00\n        /* \"#utility.yul\":24178:24180   */\n      0x20\n        /* \"#utility.yul\":24167:24176   */\n      dup3\n        /* \"#utility.yul\":24163:24181   */\n      add\n        /* \"#utility.yul\":24155:24181   */\n      swap1\n      pop\n        /* \"#utility.yul\":24227:24236   */\n      dup2\n        /* \"#utility.yul\":24221:24225   */\n      dup2\n        /* \"#utility.yul\":24217:24237   */\n      sub\n        /* \"#utility.yul\":24213:24214   */\n      0x00\n        /* \"#utility.yul\":24202:24211   */\n      dup4\n        /* \"#utility.yul\":24198:24215   */\n      add\n        /* \"#utility.yul\":24191:24238   */\n      mstore\n        /* \"#utility.yul\":24255:24386   */\n      tag_689\n        /* \"#utility.yul\":24381:24385   */\n      dup2\n        /* \"#utility.yul\":24255:24386   */\n      tag_454\n      jump\t// in\n    tag_689:\n        /* \"#utility.yul\":24247:24386   */\n      swap1\n      pop\n        /* \"#utility.yul\":23974:24393   */\n      swap2\n      swap1\n      pop\n      jump\t// out\n        /* \"#utility.yul\":24399:24731   */\n    tag_202:\n        /* \"#utility.yul\":24520:24524   */\n      0x00\n        /* \"#utility.yul\":24558:24560   */\n      0x40\n        /* \"#utility.yul\":24547:24556   */\n      dup3\n        /* \"#utility.yul\":24543:24561   */\n      add\n        /* \"#utility.yul\":24535:24561   */\n      swap1\n      pop\n        /* \"#utility.yul\":24571:24642   */\n      tag_691\n        /* \"#utility.yul\":24639:24640   */\n      0x00\n        /* \"#utility.yul\":24628:24637   */\n      dup4\n        /* \"#utility.yul\":24624:24641   */\n      add\n        /* \"#utility.yul\":24615:24621   */\n      dup6\n        /* \"#utility.yul\":24571:24642   */\n      tag_421\n      jump\t// in\n    tag_691:\n        /* \"#utility.yul\":24652:24724   */\n      tag_692\n        /* \"#utility.yul\":24720:24722   */\n      0x20\n        /* \"#utility.yul\":24709:24718   */\n      dup4\n        /* \"#utility.yul\":24705:24723   */\n      add\n        /* \"#utility.yul\":24696:24702   */\n      dup5\n        /* \"#utility.yul\":24652:24724   */\n      tag_409\n      jump\t// in\n    tag_692:\n        /* \"#utility.yul\":24399:24731   */\n      swap4\n      swap3\n      pop\n      pop\n      pop\n      jump\t// out\n        /* \"#utility.yul\":24737:24907   */\n    tag_455:\n        /* \"#utility.yul\":24877:24899   */\n      0x4f75747075745472616e736665724661696c6564000000000000000000000000\n        /* \"#utility.yul\":24873:24874   */\n      0x00\n        /* \"#utility.yul\":24865:24871   */\n      dup3\n        /* \"#utility.yul\":24861:24875   */\n      add\n        /* \"#utility.yul\":24854:24900   */\n      mstore\n        /* \"#utility.yul\":24737:24907   */\n      pop\n      jump\t// out\n        /* \"#utility.yul\":24913:25279   */\n    tag_456:\n        /* \"#utility.yul\":25055:25058   */\n      0x00\n        /* \"#utility.yul\":25076:25143   */\n      tag_695\n        /* \"#utility.yul\":25140:25142   */\n      0x14\n        /* \"#utility.yul\":25135:25138   */\n      dup4\n        /* \"#utility.yul\":25076:25143   */\n      tag_411\n      jump\t// in\n    tag_695:\n        /* \"#utility.yul\":25069:25143   */\n      swap2\n      pop\n        /* \"#utility.yul\":25152:25245   */\n      tag_696\n        /* \"#utility.yul\":25241:25244   */\n      dup3\n        /* \"#utility.yul\":25152:25245   */\n      tag_455\n      jump\t// in\n    tag_696:\n        /* \"#utility.yul\":25270:25272   */\n      0x20\n        /* \"#utility.yul\":25265:25268   */\n      dup3\n        /* \"#utility.yul\":25261:25273   */\n      add\n        /* \"#utility.yul\":25254:25273   */\n      swap1\n      pop\n        /* \"#utility.yul\":24913:25279   */\n      swap2\n      swap1\n      pop\n      jump\t// out\n        /* \"#utility.yul\":25285:25704   */\n    tag_208:\n        /* \"#utility.yul\":25451:25455   */\n      0x00\n        /* \"#utility.yul\":25489:25491   */\n      0x20\n        /* \"#utility.yul\":25478:25487   */\n      dup3\n        /* \"#utility.yul\":25474:25492   */\n      add\n        /* \"#utility.yul\":25466:25492   */\n      swap1\n      pop\n        /* \"#utility.yul\":25538:25547   */\n      dup2\n        /* \"#utility.yul\":25532:25536   */\n      dup2\n        /* \"#utility.yul\":25528:25548   */\n      sub\n        /* \"#utility.yul\":25524:25525   */\n      0x00\n        /* \"#utility.yul\":25513:25522   */\n      dup4\n        /* \"#utility.yul\":25509:25526   */\n      add\n        /* \"#utility.yul\":25502:25549   */\n      mstore\n        /* \"#utility.yul\":25566:25697   */\n      tag_698\n        /* \"#utility.yul\":25692:25696   */\n      dup2\n        /* \"#utility.yul\":25566:25697   */\n      tag_456\n      jump\t// in\n    tag_698:\n        /* \"#utility.yul\":25558:25697   */\n      swap1\n      pop\n        /* \"#utility.yul\":25285:25704   */\n      swap2\n      swap1\n      pop\n      jump\t// out\n        /* \"#utility.yul\":25710:25890   */\n    tag_211:\n        /* \"#utility.yul\":25758:25835   */\n      0x4e487b7100000000000000000000000000000000000000000000000000000000\n        /* \"#utility.yul\":25755:25756   */\n      0x00\n        /* \"#utility.yul\":25748:25836   */\n      mstore\n        /* \"#utility.yul\":25855:25859   */\n      0x41\n        /* \"#utility.yul\":25852:25853   */\n      0x04\n        /* \"#utility.yul\":25845:25860   */\n      mstore\n        /* \"#utility.yul\":25879:25883   */\n      0x24\n        /* \"#utility.yul\":25876:25877   */\n      0x00\n        /* \"#utility.yul\":25869:25884   */\n      revert\n        /* \"#utility.yul\":25896:26065   */\n    tag_457:\n        /* \"#utility.yul\":26036:26057   */\n      0x5a65726f4c6971756964697479416d6f756e7400000000000000000000000000\n        /* \"#utility.yul\":26032:26033   */\n      0x00\n        /* \"#utility.yul\":26024:26030   */\n      dup3\n        /* \"#utility.yul\":26020:26034   */\n      add\n        /* \"#utility.yul\":26013:26058   */\n      mstore\n        /* \"#utility.yul\":25896:26065   */\n      pop\n      jump\t// out\n        /* \"#utility.yul\":26071:26437   */\n    tag_458:\n        /* \"#utility.yul\":26213:26216   */\n      0x00\n        /* \"#utility.yul\":26234:26301   */\n      tag_702\n        /* \"#utility.yul\":26298:26300   */\n      0x13\n        /* \"#utility.yul\":26293:26296   */\n      dup4\n        /* \"#utility.yul\":26234:26301   */\n      tag_411\n      jump\t// in\n    tag_702:\n        /* \"#utility.yul\":26227:26301   */\n      swap2\n      pop\n        /* \"#utility.yul\":26310:26403   */\n      tag_703\n        /* \"#utility.yul\":26399:26402   */\n      dup3\n        /* \"#utility.yul\":26310:26403   */\n      tag_457\n      jump\t// in\n    tag_703:\n        /* \"#utility.yul\":26428:26430   */\n      0x20\n        /* \"#utility.yul\":26423:26426   */\n      dup3\n        /* \"#utility.yul\":26419:26431   */\n      add\n        /* \"#utility.yul\":26412:26431   */\n      swap1\n      pop\n        /* \"#utility.yul\":26071:26437   */\n      swap2\n      swap1\n      pop\n      jump\t// out\n        /* \"#utility.yul\":26443:26862   */\n    tag_256:\n        /* \"#utility.yul\":26609:26613   */\n      0x00\n        /* \"#utility.yul\":26647:26649   */\n      0x20\n        /* \"#utility.yul\":26636:26645   */\n      dup3\n        /* \"#utility.yul\":26632:26650   */\n      add\n        /* \"#utility.yul\":26624:26650   */\n      swap1\n      pop\n        /* \"#utility.yul\":26696:26705   */\n      dup2\n        /* \"#utility.yul\":26690:26694   */\n      dup2\n        /* \"#utility.yul\":26686:26706   */\n      sub\n        /* \"#utility.yul\":26682:26683   */\n      0x00\n        /* \"#utility.yul\":26671:26680   */\n      dup4\n        /* \"#utility.yul\":26667:26684   */\n      add\n        /* \"#utility.yul\":26660:26707   */\n      mstore\n        /* \"#utility.yul\":26724:26855   */\n      tag_705\n        /* \"#utility.yul\":26850:26854   */\n      dup2\n        /* \"#utility.yul\":26724:26855   */\n      tag_458\n      jump\t// in\n    tag_705:\n        /* \"#utility.yul\":26716:26855   */\n      swap1\n      pop\n        /* \"#utility.yul\":26443:26862   */\n      swap2\n      swap1\n      pop\n      jump\t// out\n        /* \"#utility.yul\":26868:27042   */\n    tag_459:\n        /* \"#utility.yul\":27008:27034   */\n      0x496e73756666696369656e74546f6b656e41416d6f756e740000000000000000\n        /* \"#utility.yul\":27004:27005   */\n      0x00\n        /* \"#utility.yul\":26996:27002   */\n      dup3\n        /* \"#utility.yul\":26992:27006   */\n      add\n        /* \"#utility.yul\":26985:27035   */\n      mstore\n        /* \"#utility.yul\":26868:27042   */\n      pop\n      jump\t// out\n        /* \"#utility.yul\":27048:27414   */\n    tag_460:\n        /* \"#utility.yul\":27190:27193   */\n      0x00\n        /* \"#utility.yul\":27211:27278   */\n      tag_708\n        /* \"#utility.yul\":27275:27277   */\n      0x18\n        /* \"#utility.yul\":27270:27273   */\n      dup4\n        /* \"#utility.yul\":27211:27278   */\n      tag_411\n      jump\t// in\n    tag_708:\n        /* \"#utility.yul\":27204:27278   */\n      swap2\n      pop\n        /* \"#utility.yul\":27287:27380   */\n      tag_709\n        /* \"#utility.yul\":27376:27379   */\n      dup3\n        /* \"#utility.yul\":27287:27380   */\n      tag_459\n      jump\t// in\n    tag_709:\n        /* \"#utility.yul\":27405:27407   */\n      0x20\n        /* \"#utility.yul\":27400:27403   */\n      dup3\n        /* \"#utility.yul\":27396:27408   */\n      add\n        /* \"#utility.yul\":27389:27408   */\n      swap1\n      pop\n        /* \"#utility.yul\":27048:27414   */\n      swap2\n      swap1\n      pop\n      jump\t// out\n        /* \"#utility.yul\":27420:27839   */\n    tag_272:\n        /* \"#utility.yul\":27586:27590   */\n      0x00\n        /* \"#utility.yul\":27624:27626   */\n      0x20\n        /* \"#utility.yul\":27613:27622   */\n      dup3\n        /* \"#utility.yul\":27609:27627   */\n      add\n        /* \"#utility.yul\":27601:27627   */\n      swap1\n      pop\n        /* \"#utility.yul\":27673:27682   */\n      dup2\n        /* \"#utility.yul\":27667:27671   */\n      dup2\n        /* \"#utility.yul\":27663:27683   */\n      sub\n        /* \"#utility.yul\":27659:27660   */\n      0x00\n        /* \"#utility.yul\":27648:27657   */\n      dup4\n        /* \"#utility.yul\":27644:27661   */\n      add\n        /* \"#utility.yul\":27637:27684   */\n      mstore\n        /* \"#utility.yul\":27701:27832   */\n      tag_711\n        /* \"#utility.yul\":27827:27831   */\n      dup2\n        /* \"#utility.yul\":27701:27832   */\n      tag_460\n      jump\t// in\n    tag_711:\n        /* \"#utility.yul\":27693:27832   */\n      swap1\n      pop\n        /* \"#utility.yul\":27420:27839   */\n      swap2\n      swap1\n      pop\n      jump\t// out\n        /* \"#utility.yul\":27845:28019   */\n    tag_461:\n        /* \"#utility.yul\":27985:28011   */\n      0x496e73756666696369656e74546f6b656e42416d6f756e740000000000000000\n        /* \"#utility.yul\":27981:27982   */\n      0x00\n        /* \"#utility.yul\":27973:27979   */\n      dup3\n        /* \"#utility.yul\":27969:27983   */\n      add\n        /* \"#utility.yul\":27962:28012   */\n      mstore\n        /* \"#utility.yul\":27845:28019   */\n      pop\n      jump\t// out\n        /* \"#utility.yul\":28025:28391   */\n    tag_462:\n        /* \"#utility.yul\":28167:28170   */\n      0x00\n        /* \"#utility.yul\":28188:28255   */\n      tag_714\n        /* \"#utility.yul\":28252:28254   */\n      0x18\n        /* \"#utility.yul\":28247:28250   */\n      dup4\n        /* \"#utility.yul\":28188:28255   */\n      tag_411\n      jump\t// in\n    tag_714:\n        /* \"#utility.yul\":28181:28255   */\n      swap2\n      pop\n        /* \"#utility.yul\":28264:28357   */\n      tag_715\n        /* \"#utility.yul\":28353:28356   */\n      dup3\n        /* \"#utility.yul\":28264:28357   */\n      tag_461\n      jump\t// in\n    tag_715:\n        /* \"#utility.yul\":28382:28384   */\n      0x20\n        /* \"#utility.yul\":28377:28380   */\n      dup3\n        /* \"#utility.yul\":28373:28385   */\n      add\n        /* \"#utility.yul\":28366:28385   */\n      swap1\n      pop\n        /* \"#utility.yul\":28025:28391   */\n      swap2\n      swap1\n      pop\n      jump\t// out\n        /* \"#utility.yul\":28397:28816   */\n    tag_275:\n        /* \"#utility.yul\":28563:28567   */\n      0x00\n        /* \"#utility.yul\":28601:28603   */\n      0x20\n        /* \"#utility.yul\":28590:28599   */\n      dup3\n        /* \"#utility.yul\":28586:28604   */\n      add\n        /* \"#utility.yul\":28578:28604   */\n      swap1\n      pop\n        /* \"#utility.yul\":28650:28659   */\n      dup2\n        /* \"#utility.yul\":28644:28648   */\n      dup2\n        /* \"#utility.yul\":28640:28660   */\n      sub\n        /* \"#utility.yul\":28636:28637   */\n      0x00\n        /* \"#utility.yul\":28625:28634   */\n      dup4\n        /* \"#utility.yul\":28621:28638   */\n      add\n        /* \"#utility.yul\":28614:28661   */\n      mstore\n        /* \"#utility.yul\":28678:28809   */\n      tag_717\n        /* \"#utility.yul\":28804:28808   */\n      dup2\n        /* \"#utility.yul\":28678:28809   */\n      tag_462\n      jump\t// in\n    tag_717:\n        /* \"#utility.yul\":28670:28809   */\n      swap1\n      pop\n        /* \"#utility.yul\":28397:28816   */\n      swap2\n      swap1\n      pop\n      jump\t// out\n        /* \"#utility.yul\":28822:28992   */\n    tag_463:\n        /* \"#utility.yul\":28962:28984   */\n      0x546f6b656e415472616e736665724661696c6564000000000000000000000000\n        /* \"#utility.yul\":28958:28959   */\n      0x00\n        /* \"#utility.yul\":28950:28956   */\n      dup3\n        /* \"#utility.yul\":28946:28960   */\n      add\n        /* \"#utility.yul\":28939:28985   */\n      mstore\n        /* \"#utility.yul\":28822:28992   */\n      pop\n      jump\t// out\n        /* \"#utility.yul\":28998:29364   */\n    tag_464:\n        /* \"#utility.yul\":29140:29143   */\n      0x00\n        /* \"#utility.yul\":29161:29228   */\n      tag_720\n        /* \"#utility.yul\":29225:29227   */\n      0x14\n        /* \"#utility.yul\":29220:29223   */\n      dup4\n        /* \"#utility.yul\":29161:29228   */\n      tag_411\n      jump\t// in\n    tag_720:\n        /* \"#utility.yul\":29154:29228   */\n      swap2\n      pop\n        /* \"#utility.yul\":29237:29330   */\n      tag_721\n        /* \"#utility.yul\":29326:29329   */\n      dup3\n        /* \"#utility.yul\":29237:29330   */\n      tag_463\n      jump\t// in\n    tag_721:\n        /* \"#utility.yul\":29355:29357   */\n      0x20\n        /* \"#utility.yul\":29350:29353   */\n      dup3\n        /* \"#utility.yul\":29346:29358   */\n      add\n        /* \"#utility.yul\":29339:29358   */\n      swap1\n      pop\n        /* \"#utility.yul\":28998:29364   */\n      swap2\n      swap1\n      pop\n      jump\t// out\n        /* \"#utility.yul\":29370:29789   */\n    tag_282:\n        /* \"#utility.yul\":29536:29540   */\n      0x00\n        /* \"#utility.yul\":29574:29576   */\n      0x20\n        /* \"#utility.yul\":29563:29572   */\n      dup3\n        /* \"#utility.yul\":29559:29577   */\n      add\n        /* \"#utility.yul\":29551:29577   */\n      swap1\n      pop\n        /* \"#utility.yul\":29623:29632   */\n      dup2\n        /* \"#utility.yul\":29617:29621   */\n      dup2\n        /* \"#utility.yul\":29613:29633   */\n      sub\n        /* \"#utility.yul\":29609:29610   */\n      0x00\n        /* \"#utility.yul\":29598:29607   */\n      dup4\n        /* \"#utility.yul\":29594:29611   */\n      add\n        /* \"#utility.yul\":29587:29634   */\n      mstore\n        /* \"#utility.yul\":29651:29782   */\n      tag_723\n        /* \"#utility.yul\":29777:29781   */\n      dup2\n        /* \"#utility.yul\":29651:29782   */\n      tag_464\n      jump\t// in\n    tag_723:\n        /* \"#utility.yul\":29643:29782   */\n      swap1\n      pop\n        /* \"#utility.yul\":29370:29789   */\n      swap2\n      swap1\n      pop\n      jump\t// out\n        /* \"#utility.yul\":29795:29965   */\n    tag_465:\n        /* \"#utility.yul\":29935:29957   */\n      0x546f6b656e425472616e736665724661696c6564000000000000000000000000\n        /* \"#utility.yul\":29931:29932   */\n      0x00\n        /* \"#utility.yul\":29923:29929   */\n      dup3\n        /* \"#utility.yul\":29919:29933   */\n      add\n        /* \"#utility.yul\":29912:29958   */\n      mstore\n        /* \"#utility.yul\":29795:29965   */\n      pop\n      jump\t// out\n        /* \"#utility.yul\":29971:30337   */\n    tag_466:\n        /* \"#utility.yul\":30113:30116   */\n      0x00\n        /* \"#utility.yul\":30134:30201   */\n      tag_726\n        /* \"#utility.yul\":30198:30200   */\n      0x14\n        /* \"#utility.yul\":30193:30196   */\n      dup4\n        /* \"#utility.yul\":30134:30201   */\n      tag_411\n      jump\t// in\n    tag_726:\n        /* \"#utility.yul\":30127:30201   */\n      swap2\n      pop\n        /* \"#utility.yul\":30210:30303   */\n      tag_727\n        /* \"#utility.yul\":30299:30302   */\n      dup3\n        /* \"#utility.yul\":30210:30303   */\n      tag_465\n      jump\t// in\n    tag_727:\n        /* \"#utility.yul\":30328:30330   */\n      0x20\n        /* \"#utility.yul\":30323:30326   */\n      dup3\n        /* \"#utility.yul\":30319:30331   */\n      add\n        /* \"#utility.yul\":30312:30331   */\n      swap1\n      pop\n        /* \"#utility.yul\":29971:30337   */\n      swap2\n      swap1\n      pop\n      jump\t// out\n        /* \"#utility.yul\":30343:30762   */\n    tag_289:\n        /* \"#utility.yul\":30509:30513   */\n      0x00\n        /* \"#utility.yul\":30547:30549   */\n      0x20\n        /* \"#utility.yul\":30536:30545   */\n      dup3\n        /* \"#utility.yul\":30532:30550   */\n      add\n        /* \"#utility.yul\":30524:30550   */\n      swap1\n      pop\n        /* \"#utility.yul\":30596:30605   */\n      dup2\n        /* \"#utility.yul\":30590:30594   */\n      dup2\n        /* \"#utility.yul\":30586:30606   */\n      sub\n        /* \"#utility.yul\":30582:30583   */\n      0x00\n        /* \"#utility.yul\":30571:30580   */\n      dup4\n        /* \"#utility.yul\":30567:30584   */\n      add\n        /* \"#utility.yul\":30560:30607   */\n      mstore\n        /* \"#utility.yul\":30624:30755   */\n      tag_729\n        /* \"#utility.yul\":30750:30754   */\n      dup2\n        /* \"#utility.yul\":30624:30755   */\n      tag_466\n      jump\t// in\n    tag_729:\n        /* \"#utility.yul\":30616:30755   */\n      swap1\n      pop\n        /* \"#utility.yul\":30343:30762   */\n      swap2\n      swap1\n      pop\n      jump\t// out\n        /* \"#utility.yul\":30768:31210   */\n    tag_330:\n        /* \"#utility.yul\":30917:30921   */\n      0x00\n        /* \"#utility.yul\":30955:30957   */\n      0x60\n        /* \"#utility.yul\":30944:30953   */\n      dup3\n        /* \"#utility.yul\":30940:30958   */\n      add\n        /* \"#utility.yul\":30932:30958   */\n      swap1\n      pop\n        /* \"#utility.yul\":30968:31039   */\n      tag_731\n        /* \"#utility.yul\":31036:31037   */\n      0x00\n        /* \"#utility.yul\":31025:31034   */\n      dup4\n        /* \"#utility.yul\":31021:31038   */\n      add\n        /* \"#utility.yul\":31012:31018   */\n      dup7\n        /* \"#utility.yul\":30968:31039   */\n      tag_421\n      jump\t// in\n    tag_731:\n        /* \"#utility.yul\":31049:31121   */\n      tag_732\n        /* \"#utility.yul\":31117:31119   */\n      0x20\n        /* \"#utility.yul\":31106:31115   */\n      dup4\n        /* \"#utility.yul\":31102:31120   */\n      add\n        /* \"#utility.yul\":31093:31099   */\n      dup6\n        /* \"#utility.yul\":31049:31121   */\n      tag_409\n      jump\t// in\n    tag_732:\n        /* \"#utility.yul\":31131:31203   */\n      tag_733\n        /* \"#utility.yul\":31199:31201   */\n      0x40\n        /* \"#utility.yul\":31188:31197   */\n      dup4\n        /* \"#utility.yul\":31184:31202   */\n      add\n        /* \"#utility.yul\":31175:31181   */\n      dup5\n        /* \"#utility.yul\":31131:31203   */\n      tag_409\n      jump\t// in\n    tag_733:\n        /* \"#utility.yul\":30768:31210   */\n      swap5\n      swap4\n      pop\n      pop\n      pop\n      pop\n      jump\t// out\n        /* \"#utility.yul\":31216:31407   */\n    tag_351:\n        /* \"#utility.yul\":31256:31259   */\n      0x00\n        /* \"#utility.yul\":31275:31295   */\n      tag_735\n        /* \"#utility.yul\":31293:31294   */\n      dup3\n        /* \"#utility.yul\":31275:31295   */\n      tag_406\n      jump\t// in\n    tag_735:\n        /* \"#utility.yul\":31270:31295   */\n      swap2\n      pop\n        /* \"#utility.yul\":31309:31329   */\n      tag_736\n        /* \"#utility.yul\":31327:31328   */\n      dup4\n        /* \"#utility.yul\":31309:31329   */\n      tag_406\n      jump\t// in\n    tag_736:\n        /* \"#utility.yul\":31304:31329   */\n      swap3\n      pop\n        /* \"#utility.yul\":31352:31353   */\n      dup3\n        /* \"#utility.yul\":31349:31350   */\n      dup3\n        /* \"#utility.yul\":31345:31354   */\n      add\n        /* \"#utility.yul\":31338:31354   */\n      swap1\n      pop\n        /* \"#utility.yul\":31373:31376   */\n      dup1\n        /* \"#utility.yul\":31370:31371   */\n      dup3\n        /* \"#utility.yul\":31367:31377   */\n      gt\n        /* \"#utility.yul\":31364:31400   */\n      iszero\n      tag_737\n      jumpi\n        /* \"#utility.yul\":31380:31398   */\n      tag_738\n      tag_437\n      jump\t// in\n    tag_738:\n        /* \"#utility.yul\":31364:31400   */\n    tag_737:\n        /* \"#utility.yul\":31216:31407   */\n      swap3\n      swap2\n      pop\n      pop\n      jump\t// out\n\n    auxdata: 0xa2646970667358221220ddef9942428fa952b8217fc390522190fa9107b8a8d04b4d098399444e84215464736f6c634300081e0033\n}\n",
				"bytecode": {
					"linkReferences": {},
					"object": "60c060405234801561000f575f5ffd5b50604051613c91380380613c9183398181016040528101906100319190610551565b6040518060400160405280601181526020017f454b412d454b42204c69717569646974790000000000000000000000000000008152506040518060400160405280600a81526020017f454b412d454b422d4c500000000000000000000000000000000000000000000081525081600390816100ac91906107cc565b5080600490816100bc91906107cc565b5050505f73ffffffffffffffffffffffffffffffffffffffff168273ffffffffffffffffffffffffffffffffffffffff161415801561012757505f73ffffffffffffffffffffffffffffffffffffffff168173ffffffffffffffffffffffffffffffffffffffff1614155b610166576040517f08c379a000000000000000000000000000000000000000000000000000000000815260040161015d906108f5565b60405180910390fd5b8073ffffffffffffffffffffffffffffffffffffffff168273ffffffffffffffffffffffffffffffffffffffff16036101d4576040517f08c379a00000000000000000000000000000000000000000000000000000000081526004016101cb9061095d565b60405180910390fd5b8173ffffffffffffffffffffffffffffffffffffffff1660808173ffffffffffffffffffffffffffffffffffffffff16815250508073ffffffffffffffffffffffffffffffffffffffff1660a08173ffffffffffffffffffffffffffffffffffffffff168152505061024e3061271061025560201b60201c565b5050610a60565b5f73ffffffffffffffffffffffffffffffffffffffff168273ffffffffffffffffffffffffffffffffffffffff16036102c5575f6040517fec442f050000000000000000000000000000000000000000000000000000000081526004016102bc919061098a565b60405180910390fd5b6102d65f83836102da60201b60201c565b5050565b5f73ffffffffffffffffffffffffffffffffffffffff168373ffffffffffffffffffffffffffffffffffffffff160361032a578060025f82825461031e91906109d0565b925050819055506103f8565b5f5f5f8573ffffffffffffffffffffffffffffffffffffffff1673ffffffffffffffffffffffffffffffffffffffff1681526020019081526020015f20549050818110156103b3578381836040517fe450d38c0000000000000000000000000000000000000000000000000000000081526004016103aa93929190610a12565b60405180910390fd5b8181035f5f8673ffffffffffffffffffffffffffffffffffffffff1673ffffffffffffffffffffffffffffffffffffffff1681526020019081526020015f2081905550505b5f73ffffffffffffffffffffffffffffffffffffffff168273ffffffffffffffffffffffffffffffffffffffff160361043f578060025f8282540392505081905550610489565b805f5f8473ffffffffffffffffffffffffffffffffffffffff1673ffffffffffffffffffffffffffffffffffffffff1681526020019081526020015f205f82825401925050819055505b8173ffffffffffffffffffffffffffffffffffffffff168373ffffffffffffffffffffffffffffffffffffffff167fddf252ad1be2c89b69c2b068fc378daa952ba7f163c4a11628f55a4df523b3ef836040516104e69190610a47565b60405180910390a3505050565b5f5ffd5b5f73ffffffffffffffffffffffffffffffffffffffff82169050919050565b5f610520826104f7565b9050919050565b61053081610516565b811461053a575f5ffd5b50565b5f8151905061054b81610527565b92915050565b5f5f60408385031215610567576105666104f3565b5b5f6105748582860161053d565b92505060206105858582860161053d565b9150509250929050565b5f81519050919050565b7f4e487b71000000000000000000000000000000000000000000000000000000005f52604160045260245ffd5b7f4e487b71000000000000000000000000000000000000000000000000000000005f52602260045260245ffd5b5f600282049050600182168061060a57607f821691505b60208210810361061d5761061c6105c6565b5b50919050565b5f819050815f5260205f209050919050565b5f6020601f8301049050919050565b5f82821b905092915050565b5f6008830261067f7fffffffffffffffffffffffffffffffffffffffffffffffffffffffffffffffff82610644565b6106898683610644565b95508019841693508086168417925050509392505050565b5f819050919050565b5f819050919050565b5f6106cd6106c86106c3846106a1565b6106aa565b6106a1565b9050919050565b5f819050919050565b6106e6836106b3565b6106fa6106f2826106d4565b848454610650565b825550505050565b5f5f905090565b610711610702565b61071c8184846106dd565b505050565b5b8181101561073f576107345f82610709565b600181019050610722565b5050565b601f8211156107845761075581610623565b61075e84610635565b8101602085101561076d578190505b61078161077985610635565b830182610721565b50505b505050565b5f82821c905092915050565b5f6107a45f1984600802610789565b1980831691505092915050565b5f6107bc8383610795565b9150826002028217905092915050565b6107d58261058f565b67ffffffffffffffff8111156107ee576107ed610599565b5b6107f882546105f3565b610803828285610743565b5f60209050601f831160018114610834575f8415610822578287015190505b61082c85826107b1565b865550610893565b601f19841661084286610623565b5f5b8281101561086957848901518255600182019150602085019450602081019050610844565b868310156108865784890151610882601f891682610795565b8355505b6001600288020188555050505b505050505050565b5f82825260208201905092915050565b7f496e76616c6964546f6b656e41646472657373000000000000000000000000005f82015250565b5f6108df60138361089b565b91506108ea826108ab565b602082019050919050565b5f6020820190508181035f83015261090c816108d3565b9050919050565b7f4964656e746963616c546f6b656e7300000000000000000000000000000000005f82015250565b5f610947600f8361089b565b915061095282610913565b602082019050919050565b5f6020820190508181035f8301526109748161093b565b9050919050565b61098481610516565b82525050565b5f60208201905061099d5f83018461097b565b92915050565b7f4e487b71000000000000000000000000000000000000000000000000000000005f52601160045260245ffd5b5f6109da826106a1565b91506109e5836106a1565b92508282019050808211156109fd576109fc6109a3565b5b92915050565b610a0c816106a1565b82525050565b5f606082019050610a255f83018661097b565b610a326020830185610a03565b610a3f6040830184610a03565b949350505050565b5f602082019050610a5a5f830184610a03565b92915050565b60805160a0516131d8610ab95f395f8181610589015281816106520152818161146901528181611a000152611a5601525f81816104ef015281816106a401528181611446015281816119aa0152611aac01526131d85ff3fe608060405234801561000f575f5ffd5b5060043610610114575f3560e01c806338ed1739116100a0578063ac41865a1161006f578063ac41865a1461030b578063baa2abde1461033b578063d3c7c2c71461036c578063dd62ed3e1461038b578063e8e33700146103bb57610114565b806338ed17391461025d57806370a082311461028d57806395d89b41146102bd578063a9059cbb146102db57610114565b806318160ddd116100e757806318160ddd146101b55780631e23d8e0146101d357806323b872dd146101f1578063301c2a5f14610221578063313ce5671461023f57610114565b8063054d50d41461011857806306fdde03146101485780630902f1ac14610166578063095ea7b314610185575b5f5ffd5b610132600480360381019061012d91906122f9565b6103ed565b60405161013f9190612358565b60405180910390f35b61015061045b565b60405161015d91906123e1565b60405180910390f35b61016e6104eb565b60405161017c929190612401565b60405180910390f35b61019f600480360381019061019a9190612482565b610625565b6040516101ac91906124da565b60405180910390f35b6101bd610647565b6040516101ca9190612358565b60405180910390f35b6101db610650565b6040516101e89190612502565b60405180910390f35b61020b6004803603810190610206919061251b565b610674565b60405161021891906124da565b60405180910390f35b6102296106a2565b6040516102369190612502565b60405180910390f35b6102476106c6565b6040516102549190612586565b60405180910390f35b61027760048036038101906102729190612600565b6106ce565b604051610284919061274d565b60405180910390f35b6102a760048036038101906102a2919061276d565b610cbd565b6040516102b49190612358565b60405180910390f35b6102c5610d02565b6040516102d291906123e1565b60405180910390f35b6102f560048036038101906102f09190612482565b610d92565b60405161030291906124da565b60405180910390f35b61032560048036038101906103209190612798565b610db4565b6040516103329190612358565b60405180910390f35b610355600480360381019061035091906127d6565b610f6a565b604051610363929190612401565b60405180910390f35b610374611442565b604051610382929190612873565b60405180910390f35b6103a560048036038101906103a09190612798565b61148e565b6040516103b29190612358565b60405180910390f35b6103d560048036038101906103d0919061289a565b611510565b6040516103e49392919061294b565b60405180910390f35b5f5f831180156103fc57505f82115b61043b576040517f08c379a0000000000000000000000000000000000000000000000000000000008152600401610432906129ca565b60405180910390fd5b8282856104489190612a15565b6104529190612a83565b90509392505050565b60606003805461046a90612ae0565b80601f016020809104026020016040519081016040528092919081815260200182805461049690612ae0565b80156104e15780601f106104b8576101008083540402835291602001916104e1565b820191905f5260205f20905b8154815290600101906020018083116104c457829003601f168201915b5050505050905090565b5f5f7f000000000000000000000000000000000000000000000000000000000000000073ffffffffffffffffffffffffffffffffffffffff166370a08231306040518263ffffffff1660e01b81526004016105469190612502565b602060405180830381865afa158015610561573d5f5f3e3d5ffd5b505050506040513d601f19601f820116820180604052508101906105859190612b24565b91507f000000000000000000000000000000000000000000000000000000000000000073ffffffffffffffffffffffffffffffffffffffff166370a08231306040518263ffffffff1660e01b81526004016105e09190612502565b602060405180830381865afa1580156105fb573d5f5f3e3d5ffd5b505050506040513d601f19601f8201168201806040525081019061061f9190612b24565b90509091565b5f5f61062f61180b565b905061063c818585611812565b600191505092915050565b5f600254905090565b7f000000000000000000000000000000000000000000000000000000000000000081565b5f5f61067e61180b565b905061068b858285611824565b6106968585856118b7565b60019150509392505050565b7f000000000000000000000000000000000000000000000000000000000000000081565b5f6012905090565b60608142811015610714576040517f08c379a000000000000000000000000000000000000000000000000000000000815260040161070b90612b99565b60405180910390fd5b6002868690501461075a576040517f08c379a000000000000000000000000000000000000000000000000000000000815260040161075190612c01565b60405180910390fd5b5f73ffffffffffffffffffffffffffffffffffffffff168473ffffffffffffffffffffffffffffffffffffffff16036107c8576040517f08c379a00000000000000000000000000000000000000000000000000000000081526004016107bf90612c69565b60405180910390fd5b61082186865f8181106107de576107dd612c87565b5b90506020020160208101906107f3919061276d565b8787600181811061080757610806612c87565b5b905060200201602081019061081c919061276d565b6119a7565b610860576040517f08c379a000000000000000000000000000000000000000000000000000000000815260040161085790612cfe565b60405180910390fd5b5f86865f81811061087457610873612c87565b5b9050602002016020810190610889919061276d565b73ffffffffffffffffffffffffffffffffffffffff166370a08231306040518263ffffffff1660e01b81526004016108c19190612502565b602060405180830381865afa1580156108dc573d5f5f3e3d5ffd5b505050506040513d601f19601f820116820180604052508101906109009190612b24565b90505f8787600181811061091757610916612c87565b5b905060200201602081019061092c919061276d565b73ffffffffffffffffffffffffffffffffffffffff166370a08231306040518263ffffffff1660e01b81526004016109649190612502565b602060405180830381865afa15801561097f573d5f5f3e3d5ffd5b505050506040513d601f19601f820116820180604052508101906109a39190612b24565b90505f6109b18b8484611b03565b9050898110156109f6576040517f08c379a00000000000000000000000000000000000000000000000000000000081526004016109ed90612d66565b60405180910390fd5b88885f818110610a0957610a08612c87565b5b9050602002016020810190610a1e919061276d565b73ffffffffffffffffffffffffffffffffffffffff166323b872dd33308e6040518463ffffffff1660e01b8152600401610a5a93929190612d84565b6020604051808303815f875af1158015610a76573d5f5f3e3d5ffd5b505050506040513d601f19601f82011682018060405250810190610a9a9190612de3565b610ad9576040517f08c379a0000000000000000000000000000000000000000000000000000000008152600401610ad090612e58565b60405180910390fd5b88886001818110610aed57610aec612c87565b5b9050602002016020810190610b02919061276d565b73ffffffffffffffffffffffffffffffffffffffff1663a9059cbb88836040518363ffffffff1660e01b8152600401610b3c929190612e76565b6020604051808303815f875af1158015610b58573d5f5f3e3d5ffd5b505050506040513d601f19601f82011682018060405250810190610b7c9190612de3565b610bbb576040517f08c379a0000000000000000000000000000000000000000000000000000000008152600401610bb290612ee7565b60405180910390fd5b600267ffffffffffffffff811115610bd657610bd5612f05565b5b604051908082528060200260200182016040528015610c045781602001602082028036833780820191505090505b5094508a855f81518110610c1b57610c1a612c87565b5b6020026020010181815250508085600181518110610c3c57610c3b612c87565b5b6020026020010181815250508673ffffffffffffffffffffffffffffffffffffffff163373ffffffffffffffffffffffffffffffffffffffff167feb05ee085ef924deb20ea84a6b8b36a242b7c0807eda9547f99a5b1ec13cd9d88d84604051610ca7929190612401565b60405180910390a3505050509695505050505050565b5f5f5f8373ffffffffffffffffffffffffffffffffffffffff1673ffffffffffffffffffffffffffffffffffffffff1681526020019081526020015f20549050919050565b606060048054610d1190612ae0565b80601f0160208091040260200160405190810160405280929190818152602001828054610d3d90612ae0565b8015610d885780601f10610d5f57610100808354040283529160200191610d88565b820191905f5260205f20905b815481529060010190602001808311610d6b57829003601f168201915b5050505050905090565b5f5f610d9c61180b565b9050610da98185856118b7565b600191505092915050565b5f610dbf83836119a7565b610dfe576040517f08c379a0000000000000000000000000000000000000000000000000000000008152600401610df590612cfe565b60405180910390fd5b5f8373ffffffffffffffffffffffffffffffffffffffff166370a08231306040518263ffffffff1660e01b8152600401610e389190612502565b602060405180830381865afa158015610e53573d5f5f3e3d5ffd5b505050506040513d601f19601f82011682018060405250810190610e779190612b24565b90505f8373ffffffffffffffffffffffffffffffffffffffff166370a08231306040518263ffffffff1660e01b8152600401610eb39190612502565b602060405180830381865afa158015610ece573d5f5f3e3d5ffd5b505050506040513d601f19601f82011682018060405250810190610ef29190612b24565b90505f82118015610f0257505f81115b610f41576040517f08c379a0000000000000000000000000000000000000000000000000000000008152600401610f38906129ca565b60405180910390fd5b80670de0b6b3a764000083610f569190612a15565b610f609190612a83565b9250505092915050565b5f5f8242811015610fb0576040517f08c379a0000000000000000000000000000000000000000000000000000000008152600401610fa790612b99565b60405180910390fd5b610fba8a8a6119a7565b610ff9576040517f08c379a0000000000000000000000000000000000000000000000000000000008152600401610ff090612cfe565b60405180910390fd5b5f73ffffffffffffffffffffffffffffffffffffffff168573ffffffffffffffffffffffffffffffffffffffff1603611067576040517f08c379a000000000000000000000000000000000000000000000000000000000815260040161105e90612c69565b60405180910390fd5b5f88116110a9576040517f08c379a00000000000000000000000000000000000000000000000000000000081526004016110a090612f7c565b60405180910390fd5b5f8a73ffffffffffffffffffffffffffffffffffffffff166370a08231306040518263ffffffff1660e01b81526004016110e39190612502565b602060405180830381865afa1580156110fe573d5f5f3e3d5ffd5b505050506040513d601f19601f820116820180604052508101906111229190612b24565b90505f8a73ffffffffffffffffffffffffffffffffffffffff166370a08231306040518263ffffffff1660e01b815260040161115e9190612502565b602060405180830381865afa158015611179573d5f5f3e3d5ffd5b505050506040513d601f19601f8201168201806040525081019061119d9190612b24565b90505f6111a8610647565b905080838c6111b79190612a15565b6111c19190612a83565b955080828c6111d09190612a15565b6111da9190612a83565b94508986101561121f576040517f08c379a000000000000000000000000000000000000000000000000000000000815260040161121690612fe4565b60405180910390fd5b88851015611262576040517f08c379a00000000000000000000000000000000000000000000000000000000081526004016112599061304c565b60405180910390fd5b8c73ffffffffffffffffffffffffffffffffffffffff1663a9059cbb89886040518363ffffffff1660e01b815260040161129d929190612e76565b6020604051808303815f875af11580156112b9573d5f5f3e3d5ffd5b505050506040513d601f19601f820116820180604052508101906112dd9190612de3565b61131c576040517f08c379a0000000000000000000000000000000000000000000000000000000008152600401611313906130b4565b60405180910390fd5b8b73ffffffffffffffffffffffffffffffffffffffff1663a9059cbb89876040518363ffffffff1660e01b8152600401611357929190612e76565b6020604051808303815f875af1158015611373573d5f5f3e3d5ffd5b505050506040513d601f19601f820116820180604052508101906113979190612de3565b6113d6576040517f08c379a00000000000000000000000000000000000000000000000000000000081526004016113cd9061311c565b60405180910390fd5b6113e0338c611ba5565b3373ffffffffffffffffffffffffffffffffffffffff167f9746cd459b192e14d25047ee6f0c763709fc38435eb4883830cf715de0a40ac087878e60405161142a9392919061294b565b60405180910390a25050505097509795505050505050565b5f5f7f000000000000000000000000000000000000000000000000000000000000000091507f000000000000000000000000000000000000000000000000000000000000000090509091565b5f60015f8473ffffffffffffffffffffffffffffffffffffffff1673ffffffffffffffffffffffffffffffffffffffff1681526020019081526020015f205f8373ffffffffffffffffffffffffffffffffffffffff1673ffffffffffffffffffffffffffffffffffffffff1681526020019081526020015f2054905092915050565b5f5f5f8342811015611557576040517f08c379a000000000000000000000000000000000000000000000000000000000815260040161154e90612b99565b60405180910390fd5b6115618c8c6119a7565b6115a0576040517f08c379a000000000000000000000000000000000000000000000000000000000815260040161159790612cfe565b60405180910390fd5b5f73ffffffffffffffffffffffffffffffffffffffff168673ffffffffffffffffffffffffffffffffffffffff160361160e576040517f08c379a000000000000000000000000000000000000000000000000000000000815260040161160590612c69565b60405180910390fd5b61161c8c8c8c8c8c8c611c24565b8094508195508296505050508b73ffffffffffffffffffffffffffffffffffffffff166323b872dd3330876040518463ffffffff1660e01b815260040161166593929190612d84565b6020604051808303815f875af1158015611681573d5f5f3e3d5ffd5b505050506040513d601f19601f820116820180604052508101906116a59190612de3565b6116e4576040517f08c379a00000000000000000000000000000000000000000000000000000000081526004016116db906130b4565b60405180910390fd5b8a73ffffffffffffffffffffffffffffffffffffffff166323b872dd3330866040518463ffffffff1660e01b815260040161172193929190612d84565b6020604051808303815f875af115801561173d573d5f5f3e3d5ffd5b505050506040513d601f19601f820116820180604052508101906117619190612de3565b6117a0576040517f08c379a00000000000000000000000000000000000000000000000000000000081526004016117979061311c565b60405180910390fd5b6117aa8683611e57565b3373ffffffffffffffffffffffffffffffffffffffff167f3bca7014f4c0ccc8016338c79f4c00e82068dbadaf4f01ca5449040fdd39f5008585856040516117f49392919061294b565b60405180910390a250985098509895505050505050565b5f33905090565b61181f8383836001611ed6565b505050565b5f61182f848461148e565b90507fffffffffffffffffffffffffffffffffffffffffffffffffffffffffffffffff8110156118b157818110156118a2578281836040517ffb8f41b20000000000000000000000000000000000000000000000000000000081526004016118999392919061313a565b60405180910390fd5b6118b084848484035f611ed6565b5b50505050565b5f73ffffffffffffffffffffffffffffffffffffffff168373ffffffffffffffffffffffffffffffffffffffff1603611927575f6040517f96c6fd1e00000000000000000000000000000000000000000000000000000000815260040161191e9190612502565b60405180910390fd5b5f73ffffffffffffffffffffffffffffffffffffffff168273ffffffffffffffffffffffffffffffffffffffff1603611997575f6040517fec442f0500000000000000000000000000000000000000000000000000000000815260040161198e9190612502565b60405180910390fd5b6119a28383836120a5565b505050565b5f7f000000000000000000000000000000000000000000000000000000000000000073ffffffffffffffffffffffffffffffffffffffff168373ffffffffffffffffffffffffffffffffffffffff16148015611a4e57507f000000000000000000000000000000000000000000000000000000000000000073ffffffffffffffffffffffffffffffffffffffff168273ffffffffffffffffffffffffffffffffffffffff16145b80611afb57507f000000000000000000000000000000000000000000000000000000000000000073ffffffffffffffffffffffffffffffffffffffff168373ffffffffffffffffffffffffffffffffffffffff16148015611afa57507f000000000000000000000000000000000000000000000000000000000000000073ffffffffffffffffffffffffffffffffffffffff168273ffffffffffffffffffffffffffffffffffffffff16145b5b905092915050565b5f5f83118015611b1257505f82115b611b51576040517f08c379a0000000000000000000000000000000000000000000000000000000008152600401611b48906129ca565b60405180910390fd5b5f6103e585611b609190612a15565b90505f8382611b6f9190612a15565b90505f826103e887611b819190612a15565b611b8b919061316f565b90508082611b999190612a83565b93505050509392505050565b5f73ffffffffffffffffffffffffffffffffffffffff168273ffffffffffffffffffffffffffffffffffffffff1603611c15575f6040517f96c6fd1e000000000000000000000000000000000000000000000000000000008152600401611c0c9190612502565b60405180910390fd5b611c20825f836120a5565b5050565b5f5f5f5f8973ffffffffffffffffffffffffffffffffffffffff166370a08231306040518263ffffffff1660e01b8152600401611c619190612502565b602060405180830381865afa158015611c7c573d5f5f3e3d5ffd5b505050506040513d601f19601f82011682018060405250810190611ca09190612b24565b90505f8973ffffffffffffffffffffffffffffffffffffffff166370a08231306040518263ffffffff1660e01b8152600401611cdc9190612502565b602060405180830381865afa158015611cf7573d5f5f3e3d5ffd5b505050506040513d601f19601f82011682018060405250810190611d1b9190612b24565b90505f82148015611d2b57505f81145b15611d395760019150600190505b5f611d458983856103ed565b9050898111611d9c5787811015611d91576040517f08c379a0000000000000000000000000000000000000000000000000000000008152600401611d8890612fe4565b60405180910390fd5b809550889450611df5565b5f611da88b85856103ed565b905087811015611ded576040517f08c379a0000000000000000000000000000000000000000000000000000000008152600401611de49061304c565b60405180910390fd5b8a9650809550505b5f611dfe610647565b90505f848289611e0e9190612a15565b611e189190612a83565b90505f848389611e289190612a15565b611e329190612a83565b9050808210611e415780611e43565b815b965050505050505096509650969350505050565b5f73ffffffffffffffffffffffffffffffffffffffff168273ffffffffffffffffffffffffffffffffffffffff1603611ec7575f6040517fec442f05000000000000000000000000000000000000000000000000000000008152600401611ebe9190612502565b60405180910390fd5b611ed25f83836120a5565b5050565b5f73ffffffffffffffffffffffffffffffffffffffff168473ffffffffffffffffffffffffffffffffffffffff1603611f46575f6040517fe602df05000000000000000000000000000000000000000000000000000000008152600401611f3d9190612502565b60405180910390fd5b5f73ffffffffffffffffffffffffffffffffffffffff168373ffffffffffffffffffffffffffffffffffffffff1603611fb6575f6040517f94280d62000000000000000000000000000000000000000000000000000000008152600401611fad9190612502565b60405180910390fd5b8160015f8673ffffffffffffffffffffffffffffffffffffffff1673ffffffffffffffffffffffffffffffffffffffff1681526020019081526020015f205f8573ffffffffffffffffffffffffffffffffffffffff1673ffffffffffffffffffffffffffffffffffffffff1681526020019081526020015f2081905550801561209f578273ffffffffffffffffffffffffffffffffffffffff168473ffffffffffffffffffffffffffffffffffffffff167f8c5be1e5ebec7d5bd14f71427d1e84f3dd0314c0f7b2291e5b200ac8c7c3b925846040516120969190612358565b60405180910390a35b50505050565b5f73ffffffffffffffffffffffffffffffffffffffff168373ffffffffffffffffffffffffffffffffffffffff16036120f5578060025f8282546120e9919061316f565b925050819055506121c3565b5f5f5f8573ffffffffffffffffffffffffffffffffffffffff1673ffffffffffffffffffffffffffffffffffffffff1681526020019081526020015f205490508181101561217e578381836040517fe450d38c0000000000000000000000000000000000000000000000000000000081526004016121759392919061313a565b60405180910390fd5b8181035f5f8673ffffffffffffffffffffffffffffffffffffffff1673ffffffffffffffffffffffffffffffffffffffff1681526020019081526020015f2081905550505b5f73ffffffffffffffffffffffffffffffffffffffff168273ffffffffffffffffffffffffffffffffffffffff160361220a578060025f8282540392505081905550612254565b805f5f8473ffffffffffffffffffffffffffffffffffffffff1673ffffffffffffffffffffffffffffffffffffffff1681526020019081526020015f205f82825401925050819055505b8173ffffffffffffffffffffffffffffffffffffffff168373ffffffffffffffffffffffffffffffffffffffff167fddf252ad1be2c89b69c2b068fc378daa952ba7f163c4a11628f55a4df523b3ef836040516122b19190612358565b60405180910390a3505050565b5f5ffd5b5f5ffd5b5f819050919050565b6122d8816122c6565b81146122e2575f5ffd5b50565b5f813590506122f3816122cf565b92915050565b5f5f5f606084860312156123105761230f6122be565b5b5f61231d868287016122e5565b935050602061232e868287016122e5565b925050604061233f868287016122e5565b9150509250925092565b612352816122c6565b82525050565b5f60208201905061236b5f830184612349565b92915050565b5f81519050919050565b5f82825260208201905092915050565b8281835e5f83830152505050565b5f601f19601f8301169050919050565b5f6123b382612371565b6123bd818561237b565b93506123cd81856020860161238b565b6123d681612399565b840191505092915050565b5f6020820190508181035f8301526123f981846123a9565b905092915050565b5f6040820190506124145f830185612349565b6124216020830184612349565b9392505050565b5f73ffffffffffffffffffffffffffffffffffffffff82169050919050565b5f61245182612428565b9050919050565b61246181612447565b811461246b575f5ffd5b50565b5f8135905061247c81612458565b92915050565b5f5f60408385031215612498576124976122be565b5b5f6124a58582860161246e565b92505060206124b6858286016122e5565b9150509250929050565b5f8115159050919050565b6124d4816124c0565b82525050565b5f6020820190506124ed5f8301846124cb565b92915050565b6124fc81612447565b82525050565b5f6020820190506125155f8301846124f3565b92915050565b5f5f5f60608486031215612532576125316122be565b5b5f61253f8682870161246e565b93505060206125508682870161246e565b9250506040612561868287016122e5565b9150509250925092565b5f60ff82169050919050565b6125808161256b565b82525050565b5f6020820190506125995f830184612577565b92915050565b5f5ffd5b5f5ffd5b5f5ffd5b5f5f83601f8401126125c0576125bf61259f565b5b8235905067ffffffffffffffff8111156125dd576125dc6125a3565b5b6020830191508360208202830111156125f9576125f86125a7565b5b9250929050565b5f5f5f5f5f5f60a0878903121561261a576126196122be565b5b5f61262789828a016122e5565b965050602061263889828a016122e5565b955050604087013567ffffffffffffffff811115612659576126586122c2565b5b61266589828a016125ab565b9450945050606061267889828a0161246e565b925050608061268989828a016122e5565b9150509295509295509295565b5f81519050919050565b5f82825260208201905092915050565b5f819050602082019050919050565b6126c8816122c6565b82525050565b5f6126d983836126bf565b60208301905092915050565b5f602082019050919050565b5f6126fb82612696565b61270581856126a0565b9350612710836126b0565b805f5b8381101561274057815161272788826126ce565b9750612732836126e5565b925050600181019050612713565b5085935050505092915050565b5f6020820190508181035f83015261276581846126f1565b905092915050565b5f60208284031215612782576127816122be565b5b5f61278f8482850161246e565b91505092915050565b5f5f604083850312156127ae576127ad6122be565b5b5f6127bb8582860161246e565b92505060206127cc8582860161246e565b9150509250929050565b5f5f5f5f5f5f5f60e0888a0312156127f1576127f06122be565b5b5f6127fe8a828b0161246e565b975050602061280f8a828b0161246e565b96505060406128208a828b016122e5565b95505060606128318a828b016122e5565b94505060806128428a828b016122e5565b93505060a06128538a828b0161246e565b92505060c06128648a828b016122e5565b91505092959891949750929550565b5f6040820190506128865f8301856124f3565b61289360208301846124f3565b9392505050565b5f5f5f5f5f5f5f5f610100898b0312156128b7576128b66122be565b5b5f6128c48b828c0161246e565b98505060206128d58b828c0161246e565b97505060406128e68b828c016122e5565b96505060606128f78b828c016122e5565b95505060806129088b828c016122e5565b94505060a06129198b828c016122e5565b93505060c061292a8b828c0161246e565b92505060e061293b8b828c016122e5565b9150509295985092959890939650565b5f60608201905061295e5f830186612349565b61296b6020830185612349565b6129786040830184612349565b949350505050565b7f496e73756666696369656e7452657365727665730000000000000000000000005f82015250565b5f6129b460148361237b565b91506129bf82612980565b602082019050919050565b5f6020820190508181035f8301526129e1816129a8565b9050919050565b7f4e487b71000000000000000000000000000000000000000000000000000000005f52601160045260245ffd5b5f612a1f826122c6565b9150612a2a836122c6565b9250828202612a38816122c6565b91508282048414831517612a4f57612a4e6129e8565b5b5092915050565b7f4e487b71000000000000000000000000000000000000000000000000000000005f52601260045260245ffd5b5f612a8d826122c6565b9150612a98836122c6565b925082612aa857612aa7612a56565b5b828204905092915050565b7f4e487b71000000000000000000000000000000000000000000000000000000005f52602260045260245ffd5b5f6002820490506001821680612af757607f821691505b602082108103612b0a57612b09612ab3565b5b50919050565b5f81519050612b1e816122cf565b92915050565b5f60208284031215612b3957612b386122be565b5b5f612b4684828501612b10565b91505092915050565b7f5472616e73616374696f6e4578706972656400000000000000000000000000005f82015250565b5f612b8360128361237b565b9150612b8e82612b4f565b602082019050919050565b5f6020820190508181035f830152612bb081612b77565b9050919050565b7f496e76616c696454726164696e675061746800000000000000000000000000005f82015250565b5f612beb60128361237b565b9150612bf682612bb7565b602082019050919050565b5f6020820190508181035f830152612c1881612bdf565b9050919050565b7f496e76616c6964526563697069656e74000000000000000000000000000000005f82015250565b5f612c5360108361237b565b9150612c5e82612c1f565b602082019050919050565b5f6020820190508181035f830152612c8081612c47565b9050919050565b7f4e487b71000000000000000000000000000000000000000000000000000000005f52603260045260245ffd5b7f556e737570706f72746564546f6b656e506169720000000000000000000000005f82015250565b5f612ce860148361237b565b9150612cf382612cb4565b602082019050919050565b5f6020820190508181035f830152612d1581612cdc565b9050919050565b7f496e73756666696369656e744f7574707574416d6f756e7400000000000000005f82015250565b5f612d5060188361237b565b9150612d5b82612d1c565b602082019050919050565b5f6020820190508181035f830152612d7d81612d44565b9050919050565b5f606082019050612d975f8301866124f3565b612da460208301856124f3565b612db16040830184612349565b949350505050565b612dc2816124c0565b8114612dcc575f5ffd5b50565b5f81519050612ddd81612db9565b92915050565b5f60208284031215612df857612df76122be565b5b5f612e0584828501612dcf565b91505092915050565b7f496e7075745472616e736665724661696c6564000000000000000000000000005f82015250565b5f612e4260138361237b565b9150612e4d82612e0e565b602082019050919050565b5f6020820190508181035f830152612e6f81612e36565b9050919050565b5f604082019050612e895f8301856124f3565b612e966020830184612349565b9392505050565b7f4f75747075745472616e736665724661696c65640000000000000000000000005f82015250565b5f612ed160148361237b565b9150612edc82612e9d565b602082019050919050565b5f6020820190508181035f830152612efe81612ec5565b9050919050565b7f4e487b71000000000000000000000000000000000000000000000000000000005f52604160045260245ffd5b7f5a65726f4c6971756964697479416d6f756e74000000000000000000000000005f82015250565b5f612f6660138361237b565b9150612f7182612f32565b602082019050919050565b5f6020820190508181035f830152612f9381612f5a565b9050919050565b7f496e73756666696369656e74546f6b656e41416d6f756e7400000000000000005f82015250565b5f612fce60188361237b565b9150612fd982612f9a565b602082019050919050565b5f6020820190508181035f830152612ffb81612fc2565b9050919050565b7f496e73756666696369656e74546f6b656e42416d6f756e7400000000000000005f82015250565b5f61303660188361237b565b915061304182613002565b602082019050919050565b5f6020820190508181035f8301526130638161302a565b9050919050565b7f546f6b656e415472616e736665724661696c65640000000000000000000000005f82015250565b5f61309e60148361237b565b91506130a98261306a565b602082019050919050565b5f6020820190508181035f8301526130cb81613092565b9050919050565b7f546f6b656e425472616e736665724661696c65640000000000000000000000005f82015250565b5f61310660148361237b565b9150613111826130d2565b602082019050919050565b5f6020820190508181035f830152613133816130fa565b9050919050565b5f60608201905061314d5f8301866124f3565b61315a6020830185612349565b6131676040830184612349565b949350505050565b5f613179826122c6565b9150613184836122c6565b925082820190508082111561319c5761319b6129e8565b5b9291505056fea2646970667358221220ddef9942428fa952b8217fc390522190fa9107b8a8d04b4d098399444e84215464736f6c634300081e0033",
					"opcodes": "PUSH1 0xC0 PUSH1 0x40 MSTORE CALLVALUE DUP1 ISZERO PUSH2 0xF JUMPI PUSH0 PUSH0 REVERT JUMPDEST POP PUSH1 0x40 MLOAD PUSH2 0x3C91 CODESIZE SUB DUP1 PUSH2 0x3C91 DUP4 CODECOPY DUP2 DUP2 ADD PUSH1 0x40 MSTORE DUP2 ADD SWAP1 PUSH2 0x31 SWAP2 SWAP1 PUSH2 0x551 JUMP JUMPDEST PUSH1 0x40 MLOAD DUP1 PUSH1 0x40 ADD PUSH1 0x40 MSTORE DUP1 PUSH1 0x11 DUP2 MSTORE PUSH1 0x20 ADD PUSH32 0x454B412D454B42204C6971756964697479000000000000000000000000000000 DUP2 MSTORE POP PUSH1 0x40 MLOAD DUP1 PUSH1 0x40 ADD PUSH1 0x40 MSTORE DUP1 PUSH1 0xA DUP2 MSTORE PUSH1 0x20 ADD PUSH32 0x454B412D454B422D4C5000000000000000000000000000000000000000000000 DUP2 MSTORE POP DUP2 PUSH1 0x3 SWAP1 DUP2 PUSH2 0xAC SWAP2 SWAP1 PUSH2 0x7CC JUMP JUMPDEST POP DUP1 PUSH1 0x4 SWAP1 DUP2 PUSH2 0xBC SWAP2 SWAP1 PUSH2 0x7CC JUMP JUMPDEST POP POP POP PUSH0 PUSH20 0xFFFFFFFFFFFFFFFFFFFFFFFFFFFFFFFFFFFFFFFF AND DUP3 PUSH20 0xFFFFFFFFFFFFFFFFFFFFFFFFFFFFFFFFFFFFFFFF AND EQ ISZERO DUP1 ISZERO PUSH2 0x127 JUMPI POP PUSH0 PUSH20 0xFFFFFFFFFFFFFFFFFFFFFFFFFFFFFFFFFFFFFFFF AND DUP2 PUSH20 0xFFFFFFFFFFFFFFFFFFFFFFFFFFFFFFFFFFFFFFFF AND EQ ISZERO JUMPDEST PUSH2 0x166 JUMPI PUSH1 0x40 MLOAD PUSH32 0x8C379A000000000000000000000000000000000000000000000000000000000 DUP2 MSTORE PUSH1 0x4 ADD PUSH2 0x15D SWAP1 PUSH2 0x8F5 JUMP JUMPDEST PUSH1 0x40 MLOAD DUP1 SWAP2 SUB SWAP1 REVERT JUMPDEST DUP1 PUSH20 0xFFFFFFFFFFFFFFFFFFFFFFFFFFFFFFFFFFFFFFFF AND DUP3 PUSH20 0xFFFFFFFFFFFFFFFFFFFFFFFFFFFFFFFFFFFFFFFF AND SUB PUSH2 0x1D4 JUMPI PUSH1 0x40 MLOAD PUSH32 0x8C379A000000000000000000000000000000000000000000000000000000000 DUP2 MSTORE PUSH1 0x4 ADD PUSH2 0x1CB SWAP1 PUSH2 0x95D JUMP JUMPDEST PUSH1 0x40 MLOAD DUP1 SWAP2 SUB SWAP1 REVERT JUMPDEST DUP2 PUSH20 0xFFFFFFFFFFFFFFFFFFFFFFFFFFFFFFFFFFFFFFFF AND PUSH1 0x80 DUP2 PUSH20 0xFFFFFFFFFFFFFFFFFFFFFFFFFFFFFFFFFFFFFFFF AND DUP2 MSTORE POP POP DUP1 PUSH20 0xFFFFFFFFFFFFFFFFFFFFFFFFFFFFFFFFFFFFFFFF AND PUSH1 0xA0 DUP2 PUSH20 0xFFFFFFFFFFFFFFFFFFFFFFFFFFFFFFFFFFFFFFFF AND DUP2 MSTORE POP POP PUSH2 0x24E ADDRESS PUSH2 0x2710 PUSH2 0x255 PUSH1 0x20 SHL PUSH1 0x20 SHR JUMP JUMPDEST POP POP PUSH2 0xA60 JUMP JUMPDEST PUSH0 PUSH20 0xFFFFFFFFFFFFFFFFFFFFFFFFFFFFFFFFFFFFFFFF AND DUP3 PUSH20 0xFFFFFFFFFFFFFFFFFFFFFFFFFFFFFFFFFFFFFFFF AND SUB PUSH2 0x2C5 JUMPI PUSH0 PUSH1 0x40 MLOAD PUSH32 0xEC442F0500000000000000000000000000000000000000000000000000000000 DUP2 MSTORE PUSH1 0x4 ADD PUSH2 0x2BC SWAP2 SWAP1 PUSH2 0x98A JUMP JUMPDEST PUSH1 0x40 MLOAD DUP1 SWAP2 SUB SWAP1 REVERT JUMPDEST PUSH2 0x2D6 PUSH0 DUP4 DUP4 PUSH2 0x2DA PUSH1 0x20 SHL PUSH1 0x20 SHR JUMP JUMPDEST POP POP JUMP JUMPDEST PUSH0 PUSH20 0xFFFFFFFFFFFFFFFFFFFFFFFFFFFFFFFFFFFFFFFF AND DUP4 PUSH20 0xFFFFFFFFFFFFFFFFFFFFFFFFFFFFFFFFFFFFFFFF AND SUB PUSH2 0x32A JUMPI DUP1 PUSH1 0x2 PUSH0 DUP3 DUP3 SLOAD PUSH2 0x31E SWAP2 SWAP1 PUSH2 0x9D0 JUMP JUMPDEST SWAP3 POP POP DUP2 SWAP1 SSTORE POP PUSH2 0x3F8 JUMP JUMPDEST PUSH0 PUSH0 PUSH0 DUP6 PUSH20 0xFFFFFFFFFFFFFFFFFFFFFFFFFFFFFFFFFFFFFFFF AND PUSH20 0xFFFFFFFFFFFFFFFFFFFFFFFFFFFFFFFFFFFFFFFF AND DUP2 MSTORE PUSH1 0x20 ADD SWAP1 DUP2 MSTORE PUSH1 0x20 ADD PUSH0 KECCAK256 SLOAD SWAP1 POP DUP2 DUP2 LT ISZERO PUSH2 0x3B3 JUMPI DUP4 DUP2 DUP4 PUSH1 0x40 MLOAD PUSH32 0xE450D38C00000000000000000000000000000000000000000000000000000000 DUP2 MSTORE PUSH1 0x4 ADD PUSH2 0x3AA SWAP4 SWAP3 SWAP2 SWAP1 PUSH2 0xA12 JUMP JUMPDEST PUSH1 0x40 MLOAD DUP1 SWAP2 SUB SWAP1 REVERT JUMPDEST DUP2 DUP2 SUB PUSH0 PUSH0 DUP7 PUSH20 0xFFFFFFFFFFFFFFFFFFFFFFFFFFFFFFFFFFFFFFFF AND PUSH20 0xFFFFFFFFFFFFFFFFFFFFFFFFFFFFFFFFFFFFFFFF AND DUP2 MSTORE PUSH1 0x20 ADD SWAP1 DUP2 MSTORE PUSH1 0x20 ADD PUSH0 KECCAK256 DUP2 SWAP1 SSTORE POP POP JUMPDEST PUSH0 PUSH20 0xFFFFFFFFFFFFFFFFFFFFFFFFFFFFFFFFFFFFFFFF AND DUP3 PUSH20 0xFFFFFFFFFFFFFFFFFFFFFFFFFFFFFFFFFFFFFFFF AND SUB PUSH2 0x43F JUMPI DUP1 PUSH1 0x2 PUSH0 DUP3 DUP3 SLOAD SUB SWAP3 POP POP DUP2 SWAP1 SSTORE POP PUSH2 0x489 JUMP JUMPDEST DUP1 PUSH0 PUSH0 DUP5 PUSH20 0xFFFFFFFFFFFFFFFFFFFFFFFFFFFFFFFFFFFFFFFF AND PUSH20 0xFFFFFFFFFFFFFFFFFFFFFFFFFFFFFFFFFFFFFFFF AND DUP2 MSTORE PUSH1 0x20 ADD SWAP1 DUP2 MSTORE PUSH1 0x20 ADD PUSH0 KECCAK256 PUSH0 DUP3 DUP3 SLOAD ADD SWAP3 POP POP DUP2 SWAP1 SSTORE POP JUMPDEST DUP2 PUSH20 0xFFFFFFFFFFFFFFFFFFFFFFFFFFFFFFFFFFFFFFFF AND DUP4 PUSH20 0xFFFFFFFFFFFFFFFFFFFFFFFFFFFFFFFFFFFFFFFF AND PUSH32 0xDDF252AD1BE2C89B69C2B068FC378DAA952BA7F163C4A11628F55A4DF523B3EF DUP4 PUSH1 0x40 MLOAD PUSH2 0x4E6 SWAP2 SWAP1 PUSH2 0xA47 JUMP JUMPDEST PUSH1 0x40 MLOAD DUP1 SWAP2 SUB SWAP1 LOG3 POP POP POP JUMP JUMPDEST PUSH0 PUSH0 REVERT JUMPDEST PUSH0 PUSH20 0xFFFFFFFFFFFFFFFFFFFFFFFFFFFFFFFFFFFFFFFF DUP3 AND SWAP1 POP SWAP2 SWAP1 POP JUMP JUMPDEST PUSH0 PUSH2 0x520 DUP3 PUSH2 0x4F7 JUMP JUMPDEST SWAP1 POP SWAP2 SWAP1 POP JUMP JUMPDEST PUSH2 0x530 DUP2 PUSH2 0x516 JUMP JUMPDEST DUP2 EQ PUSH2 0x53A JUMPI PUSH0 PUSH0 REVERT JUMPDEST POP JUMP JUMPDEST PUSH0 DUP2 MLOAD SWAP1 POP PUSH2 0x54B DUP2 PUSH2 0x527 JUMP JUMPDEST SWAP3 SWAP2 POP POP JUMP JUMPDEST PUSH0 PUSH0 PUSH1 0x40 DUP4 DUP6 SUB SLT ISZERO PUSH2 0x567 JUMPI PUSH2 0x566 PUSH2 0x4F3 JUMP JUMPDEST JUMPDEST PUSH0 PUSH2 0x574 DUP6 DUP3 DUP7 ADD PUSH2 0x53D JUMP JUMPDEST SWAP3 POP POP PUSH1 0x20 PUSH2 0x585 DUP6 DUP3 DUP7 ADD PUSH2 0x53D JUMP JUMPDEST SWAP2 POP POP SWAP3 POP SWAP3 SWAP1 POP JUMP JUMPDEST PUSH0 DUP2 MLOAD SWAP1 POP SWAP2 SWAP1 POP JUMP JUMPDEST PUSH32 0x4E487B7100000000000000000000000000000000000000000000000000000000 PUSH0 MSTORE PUSH1 0x41 PUSH1 0x4 MSTORE PUSH1 0x24 PUSH0 REVERT JUMPDEST PUSH32 0x4E487B7100000000000000000000000000000000000000000000000000000000 PUSH0 MSTORE PUSH1 0x22 PUSH1 0x4 MSTORE PUSH1 0x24 PUSH0 REVERT JUMPDEST PUSH0 PUSH1 0x2 DUP3 DIV SWAP1 POP PUSH1 0x1 DUP3 AND DUP1 PUSH2 0x60A JUMPI PUSH1 0x7F DUP3 AND SWAP2 POP JUMPDEST PUSH1 0x20 DUP3 LT DUP2 SUB PUSH2 0x61D JUMPI PUSH2 0x61C PUSH2 0x5C6 JUMP JUMPDEST JUMPDEST POP SWAP2 SWAP1 POP JUMP JUMPDEST PUSH0 DUP2 SWAP1 POP DUP2 PUSH0 MSTORE PUSH1 0x20 PUSH0 KECCAK256 SWAP1 POP SWAP2 SWAP1 POP JUMP JUMPDEST PUSH0 PUSH1 0x20 PUSH1 0x1F DUP4 ADD DIV SWAP1 POP SWAP2 SWAP1 POP JUMP JUMPDEST PUSH0 DUP3 DUP3 SHL SWAP1 POP SWAP3 SWAP2 POP POP JUMP JUMPDEST PUSH0 PUSH1 0x8 DUP4 MUL PUSH2 0x67F PUSH32 0xFFFFFFFFFFFFFFFFFFFFFFFFFFFFFFFFFFFFFFFFFFFFFFFFFFFFFFFFFFFFFFFF DUP3 PUSH2 0x644 JUMP JUMPDEST PUSH2 0x689 DUP7 DUP4 PUSH2 0x644 JUMP JUMPDEST SWAP6 POP DUP1 NOT DUP5 AND SWAP4 POP DUP1 DUP7 AND DUP5 OR SWAP3 POP POP POP SWAP4 SWAP3 POP POP POP JUMP JUMPDEST PUSH0 DUP2 SWAP1 POP SWAP2 SWAP1 POP JUMP JUMPDEST PUSH0 DUP2 SWAP1 POP SWAP2 SWAP1 POP JUMP JUMPDEST PUSH0 PUSH2 0x6CD PUSH2 0x6C8 PUSH2 0x6C3 DUP5 PUSH2 0x6A1 JUMP JUMPDEST PUSH2 0x6AA JUMP JUMPDEST PUSH2 0x6A1 JUMP JUMPDEST SWAP1 POP SWAP2 SWAP1 POP JUMP JUMPDEST PUSH0 DUP2 SWAP1 POP SWAP2 SWAP1 POP JUMP JUMPDEST PUSH2 0x6E6 DUP4 PUSH2 0x6B3 JUMP JUMPDEST PUSH2 0x6FA PUSH2 0x6F2 DUP3 PUSH2 0x6D4 JUMP JUMPDEST DUP5 DUP5 SLOAD PUSH2 0x650 JUMP JUMPDEST DUP3 SSTORE POP POP POP POP JUMP JUMPDEST PUSH0 PUSH0 SWAP1 POP SWAP1 JUMP JUMPDEST PUSH2 0x711 PUSH2 0x702 JUMP JUMPDEST PUSH2 0x71C DUP2 DUP5 DUP5 PUSH2 0x6DD JUMP JUMPDEST POP POP POP JUMP JUMPDEST JUMPDEST DUP2 DUP2 LT ISZERO PUSH2 0x73F JUMPI PUSH2 0x734 PUSH0 DUP3 PUSH2 0x709 JUMP JUMPDEST PUSH1 0x1 DUP2 ADD SWAP1 POP PUSH2 0x722 JUMP JUMPDEST POP POP JUMP JUMPDEST PUSH1 0x1F DUP3 GT ISZERO PUSH2 0x784 JUMPI PUSH2 0x755 DUP2 PUSH2 0x623 JUMP JUMPDEST PUSH2 0x75E DUP5 PUSH2 0x635 JUMP JUMPDEST DUP2 ADD PUSH1 0x20 DUP6 LT ISZERO PUSH2 0x76D JUMPI DUP2 SWAP1 POP JUMPDEST PUSH2 0x781 PUSH2 0x779 DUP6 PUSH2 0x635 JUMP JUMPDEST DUP4 ADD DUP3 PUSH2 0x721 JUMP JUMPDEST POP POP JUMPDEST POP POP POP JUMP JUMPDEST PUSH0 DUP3 DUP3 SHR SWAP1 POP SWAP3 SWAP2 POP POP JUMP JUMPDEST PUSH0 PUSH2 0x7A4 PUSH0 NOT DUP5 PUSH1 0x8 MUL PUSH2 0x789 JUMP JUMPDEST NOT DUP1 DUP4 AND SWAP2 POP POP SWAP3 SWAP2 POP POP JUMP JUMPDEST PUSH0 PUSH2 0x7BC DUP4 DUP4 PUSH2 0x795 JUMP JUMPDEST SWAP2 POP DUP3 PUSH1 0x2 MUL DUP3 OR SWAP1 POP SWAP3 SWAP2 POP POP JUMP JUMPDEST PUSH2 0x7D5 DUP3 PUSH2 0x58F JUMP JUMPDEST PUSH8 0xFFFFFFFFFFFFFFFF DUP2 GT ISZERO PUSH2 0x7EE JUMPI PUSH2 0x7ED PUSH2 0x599 JUMP JUMPDEST JUMPDEST PUSH2 0x7F8 DUP3 SLOAD PUSH2 0x5F3 JUMP JUMPDEST PUSH2 0x803 DUP3 DUP3 DUP6 PUSH2 0x743 JUMP JUMPDEST PUSH0 PUSH1 0x20 SWAP1 POP PUSH1 0x1F DUP4 GT PUSH1 0x1 DUP2 EQ PUSH2 0x834 JUMPI PUSH0 DUP5 ISZERO PUSH2 0x822 JUMPI DUP3 DUP8 ADD MLOAD SWAP1 POP JUMPDEST PUSH2 0x82C DUP6 DUP3 PUSH2 0x7B1 JUMP JUMPDEST DUP7 SSTORE POP PUSH2 0x893 JUMP JUMPDEST PUSH1 0x1F NOT DUP5 AND PUSH2 0x842 DUP7 PUSH2 0x623 JUMP JUMPDEST PUSH0 JUMPDEST DUP3 DUP2 LT ISZERO PUSH2 0x869 JUMPI DUP5 DUP10 ADD MLOAD DUP3 SSTORE PUSH1 0x1 DUP3 ADD SWAP2 POP PUSH1 0x20 DUP6 ADD SWAP5 POP PUSH1 0x20 DUP2 ADD SWAP1 POP PUSH2 0x844 JUMP JUMPDEST DUP7 DUP4 LT ISZERO PUSH2 0x886 JUMPI DUP5 DUP10 ADD MLOAD PUSH2 0x882 PUSH1 0x1F DUP10 AND DUP3 PUSH2 0x795 JUMP JUMPDEST DUP4 SSTORE POP JUMPDEST PUSH1 0x1 PUSH1 0x2 DUP9 MUL ADD DUP9 SSTORE POP POP POP JUMPDEST POP POP POP POP POP POP JUMP JUMPDEST PUSH0 DUP3 DUP3 MSTORE PUSH1 0x20 DUP3 ADD SWAP1 POP SWAP3 SWAP2 POP POP JUMP JUMPDEST PUSH32 0x496E76616C6964546F6B656E4164647265737300000000000000000000000000 PUSH0 DUP3 ADD MSTORE POP JUMP JUMPDEST PUSH0 PUSH2 0x8DF PUSH1 0x13 DUP4 PUSH2 0x89B JUMP JUMPDEST SWAP2 POP PUSH2 0x8EA DUP3 PUSH2 0x8AB JUMP JUMPDEST PUSH1 0x20 DUP3 ADD SWAP1 POP SWAP2 SWAP1 POP JUMP JUMPDEST PUSH0 PUSH1 0x20 DUP3 ADD SWAP1 POP DUP2 DUP2 SUB PUSH0 DUP4 ADD MSTORE PUSH2 0x90C DUP2 PUSH2 0x8D3 JUMP JUMPDEST SWAP1 POP SWAP2 SWAP1 POP JUMP JUMPDEST PUSH32 0x4964656E746963616C546F6B656E730000000000000000000000000000000000 PUSH0 DUP3 ADD MSTORE POP JUMP JUMPDEST PUSH0 PUSH2 0x947 PUSH1 0xF DUP4 PUSH2 0x89B JUMP JUMPDEST SWAP2 POP PUSH2 0x952 DUP3 PUSH2 0x913 JUMP JUMPDEST PUSH1 0x20 DUP3 ADD SWAP1 POP SWAP2 SWAP1 POP JUMP JUMPDEST PUSH0 PUSH1 0x20 DUP3 ADD SWAP1 POP DUP2 DUP2 SUB PUSH0 DUP4 ADD MSTORE PUSH2 0x974 DUP2 PUSH2 0x93B JUMP JUMPDEST SWAP1 POP SWAP2 SWAP1 POP JUMP JUMPDEST PUSH2 0x984 DUP2 PUSH2 0x516 JUMP JUMPDEST DUP3 MSTORE POP POP JUMP JUMPDEST PUSH0 PUSH1 0x20 DUP3 ADD SWAP1 POP PUSH2 0x99D PUSH0 DUP4 ADD DUP5 PUSH2 0x97B JUMP JUMPDEST SWAP3 SWAP2 POP POP JUMP JUMPDEST PUSH32 0x4E487B7100000000000000000000000000000000000000000000000000000000 PUSH0 MSTORE PUSH1 0x11 PUSH1 0x4 MSTORE PUSH1 0x24 PUSH0 REVERT JUMPDEST PUSH0 PUSH2 0x9DA DUP3 PUSH2 0x6A1 JUMP JUMPDEST SWAP2 POP PUSH2 0x9E5 DUP4 PUSH2 0x6A1 JUMP JUMPDEST SWAP3 POP DUP3 DUP3 ADD SWAP1 POP DUP1 DUP3 GT ISZERO PUSH2 0x9FD JUMPI PUSH2 0x9FC PUSH2 0x9A3 JUMP JUMPDEST JUMPDEST SWAP3 SWAP2 POP POP JUMP JUMPDEST PUSH2 0xA0C DUP2 PUSH2 0x6A1 JUMP JUMPDEST DUP3 MSTORE POP POP JUMP JUMPDEST PUSH0 PUSH1 0x60 DUP3 ADD SWAP1 POP PUSH2 0xA25 PUSH0 DUP4 ADD DUP7 PUSH2 0x97B JUMP JUMPDEST PUSH2 0xA32 PUSH1 0x20 DUP4 ADD DUP6 PUSH2 0xA03 JUMP JUMPDEST PUSH2 0xA3F PUSH1 0x40 DUP4 ADD DUP5 PUSH2 0xA03 JUMP JUMPDEST SWAP5 SWAP4 POP POP POP POP JUMP JUMPDEST PUSH0 PUSH1 0x20 DUP3 ADD SWAP1 POP PUSH2 0xA5A PUSH0 DUP4 ADD DUP5 PUSH2 0xA03 JUMP JUMPDEST SWAP3 SWAP2 POP POP JUMP JUMPDEST PUSH1 0x80 MLOAD PUSH1 0xA0 MLOAD PUSH2 0x31D8 PUSH2 0xAB9 PUSH0 CODECOPY PUSH0 DUP2 DUP2 PUSH2 0x589 ADD MSTORE DUP2 DUP2 PUSH2 0x652 ADD MSTORE DUP2 DUP2 PUSH2 0x1469 ADD MSTORE DUP2 DUP2 PUSH2 0x1A00 ADD MSTORE PUSH2 0x1A56 ADD MSTORE PUSH0 DUP2 DUP2 PUSH2 0x4EF ADD MSTORE DUP2 DUP2 PUSH2 0x6A4 ADD MSTORE DUP2 DUP2 PUSH2 0x1446 ADD MSTORE DUP2 DUP2 PUSH2 0x19AA ADD MSTORE PUSH2 0x1AAC ADD MSTORE PUSH2 0x31D8 PUSH0 RETURN INVALID PUSH1 0x80 PUSH1 0x40 MSTORE CALLVALUE DUP1 ISZERO PUSH2 0xF JUMPI PUSH0 PUSH0 REVERT JUMPDEST POP PUSH1 0x4 CALLDATASIZE LT PUSH2 0x114 JUMPI PUSH0 CALLDATALOAD PUSH1 0xE0 SHR DUP1 PUSH4 0x38ED1739 GT PUSH2 0xA0 JUMPI DUP1 PUSH4 0xAC41865A GT PUSH2 0x6F JUMPI DUP1 PUSH4 0xAC41865A EQ PUSH2 0x30B JUMPI DUP1 PUSH4 0xBAA2ABDE EQ PUSH2 0x33B JUMPI DUP1 PUSH4 0xD3C7C2C7 EQ PUSH2 0x36C JUMPI DUP1 PUSH4 0xDD62ED3E EQ PUSH2 0x38B JUMPI DUP1 PUSH4 0xE8E33700 EQ PUSH2 0x3BB JUMPI PUSH2 0x114 JUMP JUMPDEST DUP1 PUSH4 0x38ED1739 EQ PUSH2 0x25D JUMPI DUP1 PUSH4 0x70A08231 EQ PUSH2 0x28D JUMPI DUP1 PUSH4 0x95D89B41 EQ PUSH2 0x2BD JUMPI DUP1 PUSH4 0xA9059CBB EQ PUSH2 0x2DB JUMPI PUSH2 0x114 JUMP JUMPDEST DUP1 PUSH4 0x18160DDD GT PUSH2 0xE7 JUMPI DUP1 PUSH4 0x18160DDD EQ PUSH2 0x1B5 JUMPI DUP1 PUSH4 0x1E23D8E0 EQ PUSH2 0x1D3 JUMPI DUP1 PUSH4 0x23B872DD EQ PUSH2 0x1F1 JUMPI DUP1 PUSH4 0x301C2A5F EQ PUSH2 0x221 JUMPI DUP1 PUSH4 0x313CE567 EQ PUSH2 0x23F JUMPI PUSH2 0x114 JUMP JUMPDEST DUP1 PUSH4 0x54D50D4 EQ PUSH2 0x118 JUMPI DUP1 PUSH4 0x6FDDE03 EQ PUSH2 0x148 JUMPI DUP1 PUSH4 0x902F1AC EQ PUSH2 0x166 JUMPI DUP1 PUSH4 0x95EA7B3 EQ PUSH2 0x185 JUMPI JUMPDEST PUSH0 PUSH0 REVERT JUMPDEST PUSH2 0x132 PUSH1 0x4 DUP1 CALLDATASIZE SUB DUP2 ADD SWAP1 PUSH2 0x12D SWAP2 SWAP1 PUSH2 0x22F9 JUMP JUMPDEST PUSH2 0x3ED JUMP JUMPDEST PUSH1 0x40 MLOAD PUSH2 0x13F SWAP2 SWAP1 PUSH2 0x2358 JUMP JUMPDEST PUSH1 0x40 MLOAD DUP1 SWAP2 SUB SWAP1 RETURN JUMPDEST PUSH2 0x150 PUSH2 0x45B JUMP JUMPDEST PUSH1 0x40 MLOAD PUSH2 0x15D SWAP2 SWAP1 PUSH2 0x23E1 JUMP JUMPDEST PUSH1 0x40 MLOAD DUP1 SWAP2 SUB SWAP1 RETURN JUMPDEST PUSH2 0x16E PUSH2 0x4EB JUMP JUMPDEST PUSH1 0x40 MLOAD PUSH2 0x17C SWAP3 SWAP2 SWAP1 PUSH2 0x2401 JUMP JUMPDEST PUSH1 0x40 MLOAD DUP1 SWAP2 SUB SWAP1 RETURN JUMPDEST PUSH2 0x19F PUSH1 0x4 DUP1 CALLDATASIZE SUB DUP2 ADD SWAP1 PUSH2 0x19A SWAP2 SWAP1 PUSH2 0x2482 JUMP JUMPDEST PUSH2 0x625 JUMP JUMPDEST PUSH1 0x40 MLOAD PUSH2 0x1AC SWAP2 SWAP1 PUSH2 0x24DA JUMP JUMPDEST PUSH1 0x40 MLOAD DUP1 SWAP2 SUB SWAP1 RETURN JUMPDEST PUSH2 0x1BD PUSH2 0x647 JUMP JUMPDEST PUSH1 0x40 MLOAD PUSH2 0x1CA SWAP2 SWAP1 PUSH2 0x2358 JUMP JUMPDEST PUSH1 0x40 MLOAD DUP1 SWAP2 SUB SWAP1 RETURN JUMPDEST PUSH2 0x1DB PUSH2 0x650 JUMP JUMPDEST PUSH1 0x40 MLOAD PUSH2 0x1E8 SWAP2 SWAP1 PUSH2 0x2502 JUMP JUMPDEST PUSH1 0x40 MLOAD DUP1 SWAP2 SUB SWAP1 RETURN JUMPDEST PUSH2 0x20B PUSH1 0x4 DUP1 CALLDATASIZE SUB DUP2 ADD SWAP1 PUSH2 0x206 SWAP2 SWAP1 PUSH2 0x251B JUMP JUMPDEST PUSH2 0x674 JUMP JUMPDEST PUSH1 0x40 MLOAD PUSH2 0x218 SWAP2 SWAP1 PUSH2 0x24DA JUMP JUMPDEST PUSH1 0x40 MLOAD DUP1 SWAP2 SUB SWAP1 RETURN JUMPDEST PUSH2 0x229 PUSH2 0x6A2 JUMP JUMPDEST PUSH1 0x40 MLOAD PUSH2 0x236 SWAP2 SWAP1 PUSH2 0x2502 JUMP JUMPDEST PUSH1 0x40 MLOAD DUP1 SWAP2 SUB SWAP1 RETURN JUMPDEST PUSH2 0x247 PUSH2 0x6C6 JUMP JUMPDEST PUSH1 0x40 MLOAD PUSH2 0x254 SWAP2 SWAP1 PUSH2 0x2586 JUMP JUMPDEST PUSH1 0x40 MLOAD DUP1 SWAP2 SUB SWAP1 RETURN JUMPDEST PUSH2 0x277 PUSH1 0x4 DUP1 CALLDATASIZE SUB DUP2 ADD SWAP1 PUSH2 0x272 SWAP2 SWAP1 PUSH2 0x2600 JUMP JUMPDEST PUSH2 0x6CE JUMP JUMPDEST PUSH1 0x40 MLOAD PUSH2 0x284 SWAP2 SWAP1 PUSH2 0x274D JUMP JUMPDEST PUSH1 0x40 MLOAD DUP1 SWAP2 SUB SWAP1 RETURN JUMPDEST PUSH2 0x2A7 PUSH1 0x4 DUP1 CALLDATASIZE SUB DUP2 ADD SWAP1 PUSH2 0x2A2 SWAP2 SWAP1 PUSH2 0x276D JUMP JUMPDEST PUSH2 0xCBD JUMP JUMPDEST PUSH1 0x40 MLOAD PUSH2 0x2B4 SWAP2 SWAP1 PUSH2 0x2358 JUMP JUMPDEST PUSH1 0x40 MLOAD DUP1 SWAP2 SUB SWAP1 RETURN JUMPDEST PUSH2 0x2C5 PUSH2 0xD02 JUMP JUMPDEST PUSH1 0x40 MLOAD PUSH2 0x2D2 SWAP2 SWAP1 PUSH2 0x23E1 JUMP JUMPDEST PUSH1 0x40 MLOAD DUP1 SWAP2 SUB SWAP1 RETURN JUMPDEST PUSH2 0x2F5 PUSH1 0x4 DUP1 CALLDATASIZE SUB DUP2 ADD SWAP1 PUSH2 0x2F0 SWAP2 SWAP1 PUSH2 0x2482 JUMP JUMPDEST PUSH2 0xD92 JUMP JUMPDEST PUSH1 0x40 MLOAD PUSH2 0x302 SWAP2 SWAP1 PUSH2 0x24DA JUMP JUMPDEST PUSH1 0x40 MLOAD DUP1 SWAP2 SUB SWAP1 RETURN JUMPDEST PUSH2 0x325 PUSH1 0x4 DUP1 CALLDATASIZE SUB DUP2 ADD SWAP1 PUSH2 0x320 SWAP2 SWAP1 PUSH2 0x2798 JUMP JUMPDEST PUSH2 0xDB4 JUMP JUMPDEST PUSH1 0x40 MLOAD PUSH2 0x332 SWAP2 SWAP1 PUSH2 0x2358 JUMP JUMPDEST PUSH1 0x40 MLOAD DUP1 SWAP2 SUB SWAP1 RETURN JUMPDEST PUSH2 0x355 PUSH1 0x4 DUP1 CALLDATASIZE SUB DUP2 ADD SWAP1 PUSH2 0x350 SWAP2 SWAP1 PUSH2 0x27D6 JUMP JUMPDEST PUSH2 0xF6A JUMP JUMPDEST PUSH1 0x40 MLOAD PUSH2 0x363 SWAP3 SWAP2 SWAP1 PUSH2 0x2401 JUMP JUMPDEST PUSH1 0x40 MLOAD DUP1 SWAP2 SUB SWAP1 RETURN JUMPDEST PUSH2 0x374 PUSH2 0x1442 JUMP JUMPDEST PUSH1 0x40 MLOAD PUSH2 0x382 SWAP3 SWAP2 SWAP1 PUSH2 0x2873 JUMP JUMPDEST PUSH1 0x40 MLOAD DUP1 SWAP2 SUB SWAP1 RETURN JUMPDEST PUSH2 0x3A5 PUSH1 0x4 DUP1 CALLDATASIZE SUB DUP2 ADD SWAP1 PUSH2 0x3A0 SWAP2 SWAP1 PUSH2 0x2798 JUMP JUMPDEST PUSH2 0x148E JUMP JUMPDEST PUSH1 0x40 MLOAD PUSH2 0x3B2 SWAP2 SWAP1 PUSH2 0x2358 JUMP JUMPDEST PUSH1 0x40 MLOAD DUP1 SWAP2 SUB SWAP1 RETURN JUMPDEST PUSH2 0x3D5 PUSH1 0x4 DUP1 CALLDATASIZE SUB DUP2 ADD SWAP1 PUSH2 0x3D0 SWAP2 SWAP1 PUSH2 0x289A JUMP JUMPDEST PUSH2 0x1510 JUMP JUMPDEST PUSH1 0x40 MLOAD PUSH2 0x3E4 SWAP4 SWAP3 SWAP2 SWAP1 PUSH2 0x294B JUMP JUMPDEST PUSH1 0x40 MLOAD DUP1 SWAP2 SUB SWAP1 RETURN JUMPDEST PUSH0 PUSH0 DUP4 GT DUP1 ISZERO PUSH2 0x3FC JUMPI POP PUSH0 DUP3 GT JUMPDEST PUSH2 0x43B JUMPI PUSH1 0x40 MLOAD PUSH32 0x8C379A000000000000000000000000000000000000000000000000000000000 DUP2 MSTORE PUSH1 0x4 ADD PUSH2 0x432 SWAP1 PUSH2 0x29CA JUMP JUMPDEST PUSH1 0x40 MLOAD DUP1 SWAP2 SUB SWAP1 REVERT JUMPDEST DUP3 DUP3 DUP6 PUSH2 0x448 SWAP2 SWAP1 PUSH2 0x2A15 JUMP JUMPDEST PUSH2 0x452 SWAP2 SWAP1 PUSH2 0x2A83 JUMP JUMPDEST SWAP1 POP SWAP4 SWAP3 POP POP POP JUMP JUMPDEST PUSH1 0x60 PUSH1 0x3 DUP1 SLOAD PUSH2 0x46A SWAP1 PUSH2 0x2AE0 JUMP JUMPDEST DUP1 PUSH1 0x1F ADD PUSH1 0x20 DUP1 SWAP2 DIV MUL PUSH1 0x20 ADD PUSH1 0x40 MLOAD SWAP1 DUP2 ADD PUSH1 0x40 MSTORE DUP1 SWAP3 SWAP2 SWAP1 DUP2 DUP2 MSTORE PUSH1 0x20 ADD DUP3 DUP1 SLOAD PUSH2 0x496 SWAP1 PUSH2 0x2AE0 JUMP JUMPDEST DUP1 ISZERO PUSH2 0x4E1 JUMPI DUP1 PUSH1 0x1F LT PUSH2 0x4B8 JUMPI PUSH2 0x100 DUP1 DUP4 SLOAD DIV MUL DUP4 MSTORE SWAP2 PUSH1 0x20 ADD SWAP2 PUSH2 0x4E1 JUMP JUMPDEST DUP3 ADD SWAP2 SWAP1 PUSH0 MSTORE PUSH1 0x20 PUSH0 KECCAK256 SWAP1 JUMPDEST DUP2 SLOAD DUP2 MSTORE SWAP1 PUSH1 0x1 ADD SWAP1 PUSH1 0x20 ADD DUP1 DUP4 GT PUSH2 0x4C4 JUMPI DUP3 SWAP1 SUB PUSH1 0x1F AND DUP3 ADD SWAP2 JUMPDEST POP POP POP POP POP SWAP1 POP SWAP1 JUMP JUMPDEST PUSH0 PUSH0 PUSH32 0x0 PUSH20 0xFFFFFFFFFFFFFFFFFFFFFFFFFFFFFFFFFFFFFFFF AND PUSH4 0x70A08231 ADDRESS PUSH1 0x40 MLOAD DUP3 PUSH4 0xFFFFFFFF AND PUSH1 0xE0 SHL DUP2 MSTORE PUSH1 0x4 ADD PUSH2 0x546 SWAP2 SWAP1 PUSH2 0x2502 JUMP JUMPDEST PUSH1 0x20 PUSH1 0x40 MLOAD DUP1 DUP4 SUB DUP2 DUP7 GAS STATICCALL ISZERO DUP1 ISZERO PUSH2 0x561 JUMPI RETURNDATASIZE PUSH0 PUSH0 RETURNDATACOPY RETURNDATASIZE PUSH0 REVERT JUMPDEST POP POP POP POP PUSH1 0x40 MLOAD RETURNDATASIZE PUSH1 0x1F NOT PUSH1 0x1F DUP3 ADD AND DUP3 ADD DUP1 PUSH1 0x40 MSTORE POP DUP2 ADD SWAP1 PUSH2 0x585 SWAP2 SWAP1 PUSH2 0x2B24 JUMP JUMPDEST SWAP2 POP PUSH32 0x0 PUSH20 0xFFFFFFFFFFFFFFFFFFFFFFFFFFFFFFFFFFFFFFFF AND PUSH4 0x70A08231 ADDRESS PUSH1 0x40 MLOAD DUP3 PUSH4 0xFFFFFFFF AND PUSH1 0xE0 SHL DUP2 MSTORE PUSH1 0x4 ADD PUSH2 0x5E0 SWAP2 SWAP1 PUSH2 0x2502 JUMP JUMPDEST PUSH1 0x20 PUSH1 0x40 MLOAD DUP1 DUP4 SUB DUP2 DUP7 GAS STATICCALL ISZERO DUP1 ISZERO PUSH2 0x5FB JUMPI RETURNDATASIZE PUSH0 PUSH0 RETURNDATACOPY RETURNDATASIZE PUSH0 REVERT JUMPDEST POP POP POP POP PUSH1 0x40 MLOAD RETURNDATASIZE PUSH1 0x1F NOT PUSH1 0x1F DUP3 ADD AND DUP3 ADD DUP1 PUSH1 0x40 MSTORE POP DUP2 ADD SWAP1 PUSH2 0x61F SWAP2 SWAP1 PUSH2 0x2B24 JUMP JUMPDEST SWAP1 POP SWAP1 SWAP2 JUMP JUMPDEST PUSH0 PUSH0 PUSH2 0x62F PUSH2 0x180B JUMP JUMPDEST SWAP1 POP PUSH2 0x63C DUP2 DUP6 DUP6 PUSH2 0x1812 JUMP JUMPDEST PUSH1 0x1 SWAP2 POP POP SWAP3 SWAP2 POP POP JUMP JUMPDEST PUSH0 PUSH1 0x2 SLOAD SWAP1 POP SWAP1 JUMP JUMPDEST PUSH32 0x0 DUP2 JUMP JUMPDEST PUSH0 PUSH0 PUSH2 0x67E PUSH2 0x180B JUMP JUMPDEST SWAP1 POP PUSH2 0x68B DUP6 DUP3 DUP6 PUSH2 0x1824 JUMP JUMPDEST PUSH2 0x696 DUP6 DUP6 DUP6 PUSH2 0x18B7 JUMP JUMPDEST PUSH1 0x1 SWAP2 POP POP SWAP4 SWAP3 POP POP POP JUMP JUMPDEST PUSH32 0x0 DUP2 JUMP JUMPDEST PUSH0 PUSH1 0x12 SWAP1 POP SWAP1 JUMP JUMPDEST PUSH1 0x60 DUP2 TIMESTAMP DUP2 LT ISZERO PUSH2 0x714 JUMPI PUSH1 0x40 MLOAD PUSH32 0x8C379A000000000000000000000000000000000000000000000000000000000 DUP2 MSTORE PUSH1 0x4 ADD PUSH2 0x70B SWAP1 PUSH2 0x2B99 JUMP JUMPDEST PUSH1 0x40 MLOAD DUP1 SWAP2 SUB SWAP1 REVERT JUMPDEST PUSH1 0x2 DUP7 DUP7 SWAP1 POP EQ PUSH2 0x75A JUMPI PUSH1 0x40 MLOAD PUSH32 0x8C379A000000000000000000000000000000000000000000000000000000000 DUP2 MSTORE PUSH1 0x4 ADD PUSH2 0x751 SWAP1 PUSH2 0x2C01 JUMP JUMPDEST PUSH1 0x40 MLOAD DUP1 SWAP2 SUB SWAP1 REVERT JUMPDEST PUSH0 PUSH20 0xFFFFFFFFFFFFFFFFFFFFFFFFFFFFFFFFFFFFFFFF AND DUP5 PUSH20 0xFFFFFFFFFFFFFFFFFFFFFFFFFFFFFFFFFFFFFFFF AND SUB PUSH2 0x7C8 JUMPI PUSH1 0x40 MLOAD PUSH32 0x8C379A000000000000000000000000000000000000000000000000000000000 DUP2 MSTORE PUSH1 0x4 ADD PUSH2 0x7BF SWAP1 PUSH2 0x2C69 JUMP JUMPDEST PUSH1 0x40 MLOAD DUP1 SWAP2 SUB SWAP1 REVERT JUMPDEST PUSH2 0x821 DUP7 DUP7 PUSH0 DUP2 DUP2 LT PUSH2 0x7DE JUMPI PUSH2 0x7DD PUSH2 0x2C87 JUMP JUMPDEST JUMPDEST SWAP1 POP PUSH1 0x20 MUL ADD PUSH1 0x20 DUP2 ADD SWAP1 PUSH2 0x7F3 SWAP2 SWAP1 PUSH2 0x276D JUMP JUMPDEST DUP8 DUP8 PUSH1 0x1 DUP2 DUP2 LT PUSH2 0x807 JUMPI PUSH2 0x806 PUSH2 0x2C87 JUMP JUMPDEST JUMPDEST SWAP1 POP PUSH1 0x20 MUL ADD PUSH1 0x20 DUP2 ADD SWAP1 PUSH2 0x81C SWAP2 SWAP1 PUSH2 0x276D JUMP JUMPDEST PUSH2 0x19A7 JUMP JUMPDEST PUSH2 0x860 JUMPI PUSH1 0x40 MLOAD PUSH32 0x8C379A000000000000000000000000000000000000000000000000000000000 DUP2 MSTORE PUSH1 0x4 ADD PUSH2 0x857 SWAP1 PUSH2 0x2CFE JUMP JUMPDEST PUSH1 0x40 MLOAD DUP1 SWAP2 SUB SWAP1 REVERT JUMPDEST PUSH0 DUP7 DUP7 PUSH0 DUP2 DUP2 LT PUSH2 0x874 JUMPI PUSH2 0x873 PUSH2 0x2C87 JUMP JUMPDEST JUMPDEST SWAP1 POP PUSH1 0x20 MUL ADD PUSH1 0x20 DUP2 ADD SWAP1 PUSH2 0x889 SWAP2 SWAP1 PUSH2 0x276D JUMP JUMPDEST PUSH20 0xFFFFFFFFFFFFFFFFFFFFFFFFFFFFFFFFFFFFFFFF AND PUSH4 0x70A08231 ADDRESS PUSH1 0x40 MLOAD DUP3 PUSH4 0xFFFFFFFF AND PUSH1 0xE0 SHL DUP2 MSTORE PUSH1 0x4 ADD PUSH2 0x8C1 SWAP2 SWAP1 PUSH2 0x2502 JUMP JUMPDEST PUSH1 0x20 PUSH1 0x40 MLOAD DUP1 DUP4 SUB DUP2 DUP7 GAS STATICCALL ISZERO DUP1 ISZERO PUSH2 0x8DC JUMPI RETURNDATASIZE PUSH0 PUSH0 RETURNDATACOPY RETURNDATASIZE PUSH0 REVERT JUMPDEST POP POP POP POP PUSH1 0x40 MLOAD RETURNDATASIZE PUSH1 0x1F NOT PUSH1 0x1F DUP3 ADD AND DUP3 ADD DUP1 PUSH1 0x40 MSTORE POP DUP2 ADD SWAP1 PUSH2 0x900 SWAP2 SWAP1 PUSH2 0x2B24 JUMP JUMPDEST SWAP1 POP PUSH0 DUP8 DUP8 PUSH1 0x1 DUP2 DUP2 LT PUSH2 0x917 JUMPI PUSH2 0x916 PUSH2 0x2C87 JUMP JUMPDEST JUMPDEST SWAP1 POP PUSH1 0x20 MUL ADD PUSH1 0x20 DUP2 ADD SWAP1 PUSH2 0x92C SWAP2 SWAP1 PUSH2 0x276D JUMP JUMPDEST PUSH20 0xFFFFFFFFFFFFFFFFFFFFFFFFFFFFFFFFFFFFFFFF AND PUSH4 0x70A08231 ADDRESS PUSH1 0x40 MLOAD DUP3 PUSH4 0xFFFFFFFF AND PUSH1 0xE0 SHL DUP2 MSTORE PUSH1 0x4 ADD PUSH2 0x964 SWAP2 SWAP1 PUSH2 0x2502 JUMP JUMPDEST PUSH1 0x20 PUSH1 0x40 MLOAD DUP1 DUP4 SUB DUP2 DUP7 GAS STATICCALL ISZERO DUP1 ISZERO PUSH2 0x97F JUMPI RETURNDATASIZE PUSH0 PUSH0 RETURNDATACOPY RETURNDATASIZE PUSH0 REVERT JUMPDEST POP POP POP POP PUSH1 0x40 MLOAD RETURNDATASIZE PUSH1 0x1F NOT PUSH1 0x1F DUP3 ADD AND DUP3 ADD DUP1 PUSH1 0x40 MSTORE POP DUP2 ADD SWAP1 PUSH2 0x9A3 SWAP2 SWAP1 PUSH2 0x2B24 JUMP JUMPDEST SWAP1 POP PUSH0 PUSH2 0x9B1 DUP12 DUP5 DUP5 PUSH2 0x1B03 JUMP JUMPDEST SWAP1 POP DUP10 DUP2 LT ISZERO PUSH2 0x9F6 JUMPI PUSH1 0x40 MLOAD PUSH32 0x8C379A000000000000000000000000000000000000000000000000000000000 DUP2 MSTORE PUSH1 0x4 ADD PUSH2 0x9ED SWAP1 PUSH2 0x2D66 JUMP JUMPDEST PUSH1 0x40 MLOAD DUP1 SWAP2 SUB SWAP1 REVERT JUMPDEST DUP9 DUP9 PUSH0 DUP2 DUP2 LT PUSH2 0xA09 JUMPI PUSH2 0xA08 PUSH2 0x2C87 JUMP JUMPDEST JUMPDEST SWAP1 POP PUSH1 0x20 MUL ADD PUSH1 0x20 DUP2 ADD SWAP1 PUSH2 0xA1E SWAP2 SWAP1 PUSH2 0x276D JUMP JUMPDEST PUSH20 0xFFFFFFFFFFFFFFFFFFFFFFFFFFFFFFFFFFFFFFFF AND PUSH4 0x23B872DD CALLER ADDRESS DUP15 PUSH1 0x40 MLOAD DUP5 PUSH4 0xFFFFFFFF AND PUSH1 0xE0 SHL DUP2 MSTORE PUSH1 0x4 ADD PUSH2 0xA5A SWAP4 SWAP3 SWAP2 SWAP1 PUSH2 0x2D84 JUMP JUMPDEST PUSH1 0x20 PUSH1 0x40 MLOAD DUP1 DUP4 SUB DUP2 PUSH0 DUP8 GAS CALL ISZERO DUP1 ISZERO PUSH2 0xA76 JUMPI RETURNDATASIZE PUSH0 PUSH0 RETURNDATACOPY RETURNDATASIZE PUSH0 REVERT JUMPDEST POP POP POP POP PUSH1 0x40 MLOAD RETURNDATASIZE PUSH1 0x1F NOT PUSH1 0x1F DUP3 ADD AND DUP3 ADD DUP1 PUSH1 0x40 MSTORE POP DUP2 ADD SWAP1 PUSH2 0xA9A SWAP2 SWAP1 PUSH2 0x2DE3 JUMP JUMPDEST PUSH2 0xAD9 JUMPI PUSH1 0x40 MLOAD PUSH32 0x8C379A000000000000000000000000000000000000000000000000000000000 DUP2 MSTORE PUSH1 0x4 ADD PUSH2 0xAD0 SWAP1 PUSH2 0x2E58 JUMP JUMPDEST PUSH1 0x40 MLOAD DUP1 SWAP2 SUB SWAP1 REVERT JUMPDEST DUP9 DUP9 PUSH1 0x1 DUP2 DUP2 LT PUSH2 0xAED JUMPI PUSH2 0xAEC PUSH2 0x2C87 JUMP JUMPDEST JUMPDEST SWAP1 POP PUSH1 0x20 MUL ADD PUSH1 0x20 DUP2 ADD SWAP1 PUSH2 0xB02 SWAP2 SWAP1 PUSH2 0x276D JUMP JUMPDEST PUSH20 0xFFFFFFFFFFFFFFFFFFFFFFFFFFFFFFFFFFFFFFFF AND PUSH4 0xA9059CBB DUP9 DUP4 PUSH1 0x40 MLOAD DUP4 PUSH4 0xFFFFFFFF AND PUSH1 0xE0 SHL DUP2 MSTORE PUSH1 0x4 ADD PUSH2 0xB3C SWAP3 SWAP2 SWAP1 PUSH2 0x2E76 JUMP JUMPDEST PUSH1 0x20 PUSH1 0x40 MLOAD DUP1 DUP4 SUB DUP2 PUSH0 DUP8 GAS CALL ISZERO DUP1 ISZERO PUSH2 0xB58 JUMPI RETURNDATASIZE PUSH0 PUSH0 RETURNDATACOPY RETURNDATASIZE PUSH0 REVERT JUMPDEST POP POP POP POP PUSH1 0x40 MLOAD RETURNDATASIZE PUSH1 0x1F NOT PUSH1 0x1F DUP3 ADD AND DUP3 ADD DUP1 PUSH1 0x40 MSTORE POP DUP2 ADD SWAP1 PUSH2 0xB7C SWAP2 SWAP1 PUSH2 0x2DE3 JUMP JUMPDEST PUSH2 0xBBB JUMPI PUSH1 0x40 MLOAD PUSH32 0x8C379A000000000000000000000000000000000000000000000000000000000 DUP2 MSTORE PUSH1 0x4 ADD PUSH2 0xBB2 SWAP1 PUSH2 0x2EE7 JUMP JUMPDEST PUSH1 0x40 MLOAD DUP1 SWAP2 SUB SWAP1 REVERT JUMPDEST PUSH1 0x2 PUSH8 0xFFFFFFFFFFFFFFFF DUP2 GT ISZERO PUSH2 0xBD6 JUMPI PUSH2 0xBD5 PUSH2 0x2F05 JUMP JUMPDEST JUMPDEST PUSH1 0x40 MLOAD SWAP1 DUP1 DUP3 MSTORE DUP1 PUSH1 0x20 MUL PUSH1 0x20 ADD DUP3 ADD PUSH1 0x40 MSTORE DUP1 ISZERO PUSH2 0xC04 JUMPI DUP2 PUSH1 0x20 ADD PUSH1 0x20 DUP3 MUL DUP1 CALLDATASIZE DUP4 CALLDATACOPY DUP1 DUP3 ADD SWAP2 POP POP SWAP1 POP JUMPDEST POP SWAP5 POP DUP11 DUP6 PUSH0 DUP2 MLOAD DUP2 LT PUSH2 0xC1B JUMPI PUSH2 0xC1A PUSH2 0x2C87 JUMP JUMPDEST JUMPDEST PUSH1 0x20 MUL PUSH1 0x20 ADD ADD DUP2 DUP2 MSTORE POP POP DUP1 DUP6 PUSH1 0x1 DUP2 MLOAD DUP2 LT PUSH2 0xC3C JUMPI PUSH2 0xC3B PUSH2 0x2C87 JUMP JUMPDEST JUMPDEST PUSH1 0x20 MUL PUSH1 0x20 ADD ADD DUP2 DUP2 MSTORE POP POP DUP7 PUSH20 0xFFFFFFFFFFFFFFFFFFFFFFFFFFFFFFFFFFFFFFFF AND CALLER PUSH20 0xFFFFFFFFFFFFFFFFFFFFFFFFFFFFFFFFFFFFFFFF AND PUSH32 0xEB05EE085EF924DEB20EA84A6B8B36A242B7C0807EDA9547F99A5B1EC13CD9D8 DUP14 DUP5 PUSH1 0x40 MLOAD PUSH2 0xCA7 SWAP3 SWAP2 SWAP1 PUSH2 0x2401 JUMP JUMPDEST PUSH1 0x40 MLOAD DUP1 SWAP2 SUB SWAP1 LOG3 POP POP POP POP SWAP7 SWAP6 POP POP POP POP POP POP JUMP JUMPDEST PUSH0 PUSH0 PUSH0 DUP4 PUSH20 0xFFFFFFFFFFFFFFFFFFFFFFFFFFFFFFFFFFFFFFFF AND PUSH20 0xFFFFFFFFFFFFFFFFFFFFFFFFFFFFFFFFFFFFFFFF AND DUP2 MSTORE PUSH1 0x20 ADD SWAP1 DUP2 MSTORE PUSH1 0x20 ADD PUSH0 KECCAK256 SLOAD SWAP1 POP SWAP2 SWAP1 POP JUMP JUMPDEST PUSH1 0x60 PUSH1 0x4 DUP1 SLOAD PUSH2 0xD11 SWAP1 PUSH2 0x2AE0 JUMP JUMPDEST DUP1 PUSH1 0x1F ADD PUSH1 0x20 DUP1 SWAP2 DIV MUL PUSH1 0x20 ADD PUSH1 0x40 MLOAD SWAP1 DUP2 ADD PUSH1 0x40 MSTORE DUP1 SWAP3 SWAP2 SWAP1 DUP2 DUP2 MSTORE PUSH1 0x20 ADD DUP3 DUP1 SLOAD PUSH2 0xD3D SWAP1 PUSH2 0x2AE0 JUMP JUMPDEST DUP1 ISZERO PUSH2 0xD88 JUMPI DUP1 PUSH1 0x1F LT PUSH2 0xD5F JUMPI PUSH2 0x100 DUP1 DUP4 SLOAD DIV MUL DUP4 MSTORE SWAP2 PUSH1 0x20 ADD SWAP2 PUSH2 0xD88 JUMP JUMPDEST DUP3 ADD SWAP2 SWAP1 PUSH0 MSTORE PUSH1 0x20 PUSH0 KECCAK256 SWAP1 JUMPDEST DUP2 SLOAD DUP2 MSTORE SWAP1 PUSH1 0x1 ADD SWAP1 PUSH1 0x20 ADD DUP1 DUP4 GT PUSH2 0xD6B JUMPI DUP3 SWAP1 SUB PUSH1 0x1F AND DUP3 ADD SWAP2 JUMPDEST POP POP POP POP POP SWAP1 POP SWAP1 JUMP JUMPDEST PUSH0 PUSH0 PUSH2 0xD9C PUSH2 0x180B JUMP JUMPDEST SWAP1 POP PUSH2 0xDA9 DUP2 DUP6 DUP6 PUSH2 0x18B7 JUMP JUMPDEST PUSH1 0x1 SWAP2 POP POP SWAP3 SWAP2 POP POP JUMP JUMPDEST PUSH0 PUSH2 0xDBF DUP4 DUP4 PUSH2 0x19A7 JUMP JUMPDEST PUSH2 0xDFE JUMPI PUSH1 0x40 MLOAD PUSH32 0x8C379A000000000000000000000000000000000000000000000000000000000 DUP2 MSTORE PUSH1 0x4 ADD PUSH2 0xDF5 SWAP1 PUSH2 0x2CFE JUMP JUMPDEST PUSH1 0x40 MLOAD DUP1 SWAP2 SUB SWAP1 REVERT JUMPDEST PUSH0 DUP4 PUSH20 0xFFFFFFFFFFFFFFFFFFFFFFFFFFFFFFFFFFFFFFFF AND PUSH4 0x70A08231 ADDRESS PUSH1 0x40 MLOAD DUP3 PUSH4 0xFFFFFFFF AND PUSH1 0xE0 SHL DUP2 MSTORE PUSH1 0x4 ADD PUSH2 0xE38 SWAP2 SWAP1 PUSH2 0x2502 JUMP JUMPDEST PUSH1 0x20 PUSH1 0x40 MLOAD DUP1 DUP4 SUB DUP2 DUP7 GAS STATICCALL ISZERO DUP1 ISZERO PUSH2 0xE53 JUMPI RETURNDATASIZE PUSH0 PUSH0 RETURNDATACOPY RETURNDATASIZE PUSH0 REVERT JUMPDEST POP POP POP POP PUSH1 0x40 MLOAD RETURNDATASIZE PUSH1 0x1F NOT PUSH1 0x1F DUP3 ADD AND DUP3 ADD DUP1 PUSH1 0x40 MSTORE POP DUP2 ADD SWAP1 PUSH2 0xE77 SWAP2 SWAP1 PUSH2 0x2B24 JUMP JUMPDEST SWAP1 POP PUSH0 DUP4 PUSH20 0xFFFFFFFFFFFFFFFFFFFFFFFFFFFFFFFFFFFFFFFF AND PUSH4 0x70A08231 ADDRESS PUSH1 0x40 MLOAD DUP3 PUSH4 0xFFFFFFFF AND PUSH1 0xE0 SHL DUP2 MSTORE PUSH1 0x4 ADD PUSH2 0xEB3 SWAP2 SWAP1 PUSH2 0x2502 JUMP JUMPDEST PUSH1 0x20 PUSH1 0x40 MLOAD DUP1 DUP4 SUB DUP2 DUP7 GAS STATICCALL ISZERO DUP1 ISZERO PUSH2 0xECE JUMPI RETURNDATASIZE PUSH0 PUSH0 RETURNDATACOPY RETURNDATASIZE PUSH0 REVERT JUMPDEST POP POP POP POP PUSH1 0x40 MLOAD RETURNDATASIZE PUSH1 0x1F NOT PUSH1 0x1F DUP3 ADD AND DUP3 ADD DUP1 PUSH1 0x40 MSTORE POP DUP2 ADD SWAP1 PUSH2 0xEF2 SWAP2 SWAP1 PUSH2 0x2B24 JUMP JUMPDEST SWAP1 POP PUSH0 DUP3 GT DUP1 ISZERO PUSH2 0xF02 JUMPI POP PUSH0 DUP2 GT JUMPDEST PUSH2 0xF41 JUMPI PUSH1 0x40 MLOAD PUSH32 0x8C379A000000000000000000000000000000000000000000000000000000000 DUP2 MSTORE PUSH1 0x4 ADD PUSH2 0xF38 SWAP1 PUSH2 0x29CA JUMP JUMPDEST PUSH1 0x40 MLOAD DUP1 SWAP2 SUB SWAP1 REVERT JUMPDEST DUP1 PUSH8 0xDE0B6B3A7640000 DUP4 PUSH2 0xF56 SWAP2 SWAP1 PUSH2 0x2A15 JUMP JUMPDEST PUSH2 0xF60 SWAP2 SWAP1 PUSH2 0x2A83 JUMP JUMPDEST SWAP3 POP POP POP SWAP3 SWAP2 POP POP JUMP JUMPDEST PUSH0 PUSH0 DUP3 TIMESTAMP DUP2 LT ISZERO PUSH2 0xFB0 JUMPI PUSH1 0x40 MLOAD PUSH32 0x8C379A000000000000000000000000000000000000000000000000000000000 DUP2 MSTORE PUSH1 0x4 ADD PUSH2 0xFA7 SWAP1 PUSH2 0x2B99 JUMP JUMPDEST PUSH1 0x40 MLOAD DUP1 SWAP2 SUB SWAP1 REVERT JUMPDEST PUSH2 0xFBA DUP11 DUP11 PUSH2 0x19A7 JUMP JUMPDEST PUSH2 0xFF9 JUMPI PUSH1 0x40 MLOAD PUSH32 0x8C379A000000000000000000000000000000000000000000000000000000000 DUP2 MSTORE PUSH1 0x4 ADD PUSH2 0xFF0 SWAP1 PUSH2 0x2CFE JUMP JUMPDEST PUSH1 0x40 MLOAD DUP1 SWAP2 SUB SWAP1 REVERT JUMPDEST PUSH0 PUSH20 0xFFFFFFFFFFFFFFFFFFFFFFFFFFFFFFFFFFFFFFFF AND DUP6 PUSH20 0xFFFFFFFFFFFFFFFFFFFFFFFFFFFFFFFFFFFFFFFF AND SUB PUSH2 0x1067 JUMPI PUSH1 0x40 MLOAD PUSH32 0x8C379A000000000000000000000000000000000000000000000000000000000 DUP2 MSTORE PUSH1 0x4 ADD PUSH2 0x105E SWAP1 PUSH2 0x2C69 JUMP JUMPDEST PUSH1 0x40 MLOAD DUP1 SWAP2 SUB SWAP1 REVERT JUMPDEST PUSH0 DUP9 GT PUSH2 0x10A9 JUMPI PUSH1 0x40 MLOAD PUSH32 0x8C379A000000000000000000000000000000000000000000000000000000000 DUP2 MSTORE PUSH1 0x4 ADD PUSH2 0x10A0 SWAP1 PUSH2 0x2F7C JUMP JUMPDEST PUSH1 0x40 MLOAD DUP1 SWAP2 SUB SWAP1 REVERT JUMPDEST PUSH0 DUP11 PUSH20 0xFFFFFFFFFFFFFFFFFFFFFFFFFFFFFFFFFFFFFFFF AND PUSH4 0x70A08231 ADDRESS PUSH1 0x40 MLOAD DUP3 PUSH4 0xFFFFFFFF AND PUSH1 0xE0 SHL DUP2 MSTORE PUSH1 0x4 ADD PUSH2 0x10E3 SWAP2 SWAP1 PUSH2 0x2502 JUMP JUMPDEST PUSH1 0x20 PUSH1 0x40 MLOAD DUP1 DUP4 SUB DUP2 DUP7 GAS STATICCALL ISZERO DUP1 ISZERO PUSH2 0x10FE JUMPI RETURNDATASIZE PUSH0 PUSH0 RETURNDATACOPY RETURNDATASIZE PUSH0 REVERT JUMPDEST POP POP POP POP PUSH1 0x40 MLOAD RETURNDATASIZE PUSH1 0x1F NOT PUSH1 0x1F DUP3 ADD AND DUP3 ADD DUP1 PUSH1 0x40 MSTORE POP DUP2 ADD SWAP1 PUSH2 0x1122 SWAP2 SWAP1 PUSH2 0x2B24 JUMP JUMPDEST SWAP1 POP PUSH0 DUP11 PUSH20 0xFFFFFFFFFFFFFFFFFFFFFFFFFFFFFFFFFFFFFFFF AND PUSH4 0x70A08231 ADDRESS PUSH1 0x40 MLOAD DUP3 PUSH4 0xFFFFFFFF AND PUSH1 0xE0 SHL DUP2 MSTORE PUSH1 0x4 ADD PUSH2 0x115E SWAP2 SWAP1 PUSH2 0x2502 JUMP JUMPDEST PUSH1 0x20 PUSH1 0x40 MLOAD DUP1 DUP4 SUB DUP2 DUP7 GAS STATICCALL ISZERO DUP1 ISZERO PUSH2 0x1179 JUMPI RETURNDATASIZE PUSH0 PUSH0 RETURNDATACOPY RETURNDATASIZE PUSH0 REVERT JUMPDEST POP POP POP POP PUSH1 0x40 MLOAD RETURNDATASIZE PUSH1 0x1F NOT PUSH1 0x1F DUP3 ADD AND DUP3 ADD DUP1 PUSH1 0x40 MSTORE POP DUP2 ADD SWAP1 PUSH2 0x119D SWAP2 SWAP1 PUSH2 0x2B24 JUMP JUMPDEST SWAP1 POP PUSH0 PUSH2 0x11A8 PUSH2 0x647 JUMP JUMPDEST SWAP1 POP DUP1 DUP4 DUP13 PUSH2 0x11B7 SWAP2 SWAP1 PUSH2 0x2A15 JUMP JUMPDEST PUSH2 0x11C1 SWAP2 SWAP1 PUSH2 0x2A83 JUMP JUMPDEST SWAP6 POP DUP1 DUP3 DUP13 PUSH2 0x11D0 SWAP2 SWAP1 PUSH2 0x2A15 JUMP JUMPDEST PUSH2 0x11DA SWAP2 SWAP1 PUSH2 0x2A83 JUMP JUMPDEST SWAP5 POP DUP10 DUP7 LT ISZERO PUSH2 0x121F JUMPI PUSH1 0x40 MLOAD PUSH32 0x8C379A000000000000000000000000000000000000000000000000000000000 DUP2 MSTORE PUSH1 0x4 ADD PUSH2 0x1216 SWAP1 PUSH2 0x2FE4 JUMP JUMPDEST PUSH1 0x40 MLOAD DUP1 SWAP2 SUB SWAP1 REVERT JUMPDEST DUP9 DUP6 LT ISZERO PUSH2 0x1262 JUMPI PUSH1 0x40 MLOAD PUSH32 0x8C379A000000000000000000000000000000000000000000000000000000000 DUP2 MSTORE PUSH1 0x4 ADD PUSH2 0x1259 SWAP1 PUSH2 0x304C JUMP JUMPDEST PUSH1 0x40 MLOAD DUP1 SWAP2 SUB SWAP1 REVERT JUMPDEST DUP13 PUSH20 0xFFFFFFFFFFFFFFFFFFFFFFFFFFFFFFFFFFFFFFFF AND PUSH4 0xA9059CBB DUP10 DUP9 PUSH1 0x40 MLOAD DUP4 PUSH4 0xFFFFFFFF AND PUSH1 0xE0 SHL DUP2 MSTORE PUSH1 0x4 ADD PUSH2 0x129D SWAP3 SWAP2 SWAP1 PUSH2 0x2E76 JUMP JUMPDEST PUSH1 0x20 PUSH1 0x40 MLOAD DUP1 DUP4 SUB DUP2 PUSH0 DUP8 GAS CALL ISZERO DUP1 ISZERO PUSH2 0x12B9 JUMPI RETURNDATASIZE PUSH0 PUSH0 RETURNDATACOPY RETURNDATASIZE PUSH0 REVERT JUMPDEST POP POP POP POP PUSH1 0x40 MLOAD RETURNDATASIZE PUSH1 0x1F NOT PUSH1 0x1F DUP3 ADD AND DUP3 ADD DUP1 PUSH1 0x40 MSTORE POP DUP2 ADD SWAP1 PUSH2 0x12DD SWAP2 SWAP1 PUSH2 0x2DE3 JUMP JUMPDEST PUSH2 0x131C JUMPI PUSH1 0x40 MLOAD PUSH32 0x8C379A000000000000000000000000000000000000000000000000000000000 DUP2 MSTORE PUSH1 0x4 ADD PUSH2 0x1313 SWAP1 PUSH2 0x30B4 JUMP JUMPDEST PUSH1 0x40 MLOAD DUP1 SWAP2 SUB SWAP1 REVERT JUMPDEST DUP12 PUSH20 0xFFFFFFFFFFFFFFFFFFFFFFFFFFFFFFFFFFFFFFFF AND PUSH4 0xA9059CBB DUP10 DUP8 PUSH1 0x40 MLOAD DUP4 PUSH4 0xFFFFFFFF AND PUSH1 0xE0 SHL DUP2 MSTORE PUSH1 0x4 ADD PUSH2 0x1357 SWAP3 SWAP2 SWAP1 PUSH2 0x2E76 JUMP JUMPDEST PUSH1 0x20 PUSH1 0x40 MLOAD DUP1 DUP4 SUB DUP2 PUSH0 DUP8 GAS CALL ISZERO DUP1 ISZERO PUSH2 0x1373 JUMPI RETURNDATASIZE PUSH0 PUSH0 RETURNDATACOPY RETURNDATASIZE PUSH0 REVERT JUMPDEST POP POP POP POP PUSH1 0x40 MLOAD RETURNDATASIZE PUSH1 0x1F NOT PUSH1 0x1F DUP3 ADD AND DUP3 ADD DUP1 PUSH1 0x40 MSTORE POP DUP2 ADD SWAP1 PUSH2 0x1397 SWAP2 SWAP1 PUSH2 0x2DE3 JUMP JUMPDEST PUSH2 0x13D6 JUMPI PUSH1 0x40 MLOAD PUSH32 0x8C379A000000000000000000000000000000000000000000000000000000000 DUP2 MSTORE PUSH1 0x4 ADD PUSH2 0x13CD SWAP1 PUSH2 0x311C JUMP JUMPDEST PUSH1 0x40 MLOAD DUP1 SWAP2 SUB SWAP1 REVERT JUMPDEST PUSH2 0x13E0 CALLER DUP13 PUSH2 0x1BA5 JUMP JUMPDEST CALLER PUSH20 0xFFFFFFFFFFFFFFFFFFFFFFFFFFFFFFFFFFFFFFFF AND PUSH32 0x9746CD459B192E14D25047EE6F0C763709FC38435EB4883830CF715DE0A40AC0 DUP8 DUP8 DUP15 PUSH1 0x40 MLOAD PUSH2 0x142A SWAP4 SWAP3 SWAP2 SWAP1 PUSH2 0x294B JUMP JUMPDEST PUSH1 0x40 MLOAD DUP1 SWAP2 SUB SWAP1 LOG2 POP POP POP POP SWAP8 POP SWAP8 SWAP6 POP POP POP POP POP POP JUMP JUMPDEST PUSH0 PUSH0 PUSH32 0x0 SWAP2 POP PUSH32 0x0 SWAP1 POP SWAP1 SWAP2 JUMP JUMPDEST PUSH0 PUSH1 0x1 PUSH0 DUP5 PUSH20 0xFFFFFFFFFFFFFFFFFFFFFFFFFFFFFFFFFFFFFFFF AND PUSH20 0xFFFFFFFFFFFFFFFFFFFFFFFFFFFFFFFFFFFFFFFF AND DUP2 MSTORE PUSH1 0x20 ADD SWAP1 DUP2 MSTORE PUSH1 0x20 ADD PUSH0 KECCAK256 PUSH0 DUP4 PUSH20 0xFFFFFFFFFFFFFFFFFFFFFFFFFFFFFFFFFFFFFFFF AND PUSH20 0xFFFFFFFFFFFFFFFFFFFFFFFFFFFFFFFFFFFFFFFF AND DUP2 MSTORE PUSH1 0x20 ADD SWAP1 DUP2 MSTORE PUSH1 0x20 ADD PUSH0 KECCAK256 SLOAD SWAP1 POP SWAP3 SWAP2 POP POP JUMP JUMPDEST PUSH0 PUSH0 PUSH0 DUP4 TIMESTAMP DUP2 LT ISZERO PUSH2 0x1557 JUMPI PUSH1 0x40 MLOAD PUSH32 0x8C379A000000000000000000000000000000000000000000000000000000000 DUP2 MSTORE PUSH1 0x4 ADD PUSH2 0x154E SWAP1 PUSH2 0x2B99 JUMP JUMPDEST PUSH1 0x40 MLOAD DUP1 SWAP2 SUB SWAP1 REVERT JUMPDEST PUSH2 0x1561 DUP13 DUP13 PUSH2 0x19A7 JUMP JUMPDEST PUSH2 0x15A0 JUMPI PUSH1 0x40 MLOAD PUSH32 0x8C379A000000000000000000000000000000000000000000000000000000000 DUP2 MSTORE PUSH1 0x4 ADD PUSH2 0x1597 SWAP1 PUSH2 0x2CFE JUMP JUMPDEST PUSH1 0x40 MLOAD DUP1 SWAP2 SUB SWAP1 REVERT JUMPDEST PUSH0 PUSH20 0xFFFFFFFFFFFFFFFFFFFFFFFFFFFFFFFFFFFFFFFF AND DUP7 PUSH20 0xFFFFFFFFFFFFFFFFFFFFFFFFFFFFFFFFFFFFFFFF AND SUB PUSH2 0x160E JUMPI PUSH1 0x40 MLOAD PUSH32 0x8C379A000000000000000000000000000000000000000000000000000000000 DUP2 MSTORE PUSH1 0x4 ADD PUSH2 0x1605 SWAP1 PUSH2 0x2C69 JUMP JUMPDEST PUSH1 0x40 MLOAD DUP1 SWAP2 SUB SWAP1 REVERT JUMPDEST PUSH2 0x161C DUP13 DUP13 DUP13 DUP13 DUP13 DUP13 PUSH2 0x1C24 JUMP JUMPDEST DUP1 SWAP5 POP DUP2 SWAP6 POP DUP3 SWAP7 POP POP POP POP DUP12 PUSH20 0xFFFFFFFFFFFFFFFFFFFFFFFFFFFFFFFFFFFFFFFF AND PUSH4 0x23B872DD CALLER ADDRESS DUP8 PUSH1 0x40 MLOAD DUP5 PUSH4 0xFFFFFFFF AND PUSH1 0xE0 SHL DUP2 MSTORE PUSH1 0x4 ADD PUSH2 0x1665 SWAP4 SWAP3 SWAP2 SWAP1 PUSH2 0x2D84 JUMP JUMPDEST PUSH1 0x20 PUSH1 0x40 MLOAD DUP1 DUP4 SUB DUP2 PUSH0 DUP8 GAS CALL ISZERO DUP1 ISZERO PUSH2 0x1681 JUMPI RETURNDATASIZE PUSH0 PUSH0 RETURNDATACOPY RETURNDATASIZE PUSH0 REVERT JUMPDEST POP POP POP POP PUSH1 0x40 MLOAD RETURNDATASIZE PUSH1 0x1F NOT PUSH1 0x1F DUP3 ADD AND DUP3 ADD DUP1 PUSH1 0x40 MSTORE POP DUP2 ADD SWAP1 PUSH2 0x16A5 SWAP2 SWAP1 PUSH2 0x2DE3 JUMP JUMPDEST PUSH2 0x16E4 JUMPI PUSH1 0x40 MLOAD PUSH32 0x8C379A000000000000000000000000000000000000000000000000000000000 DUP2 MSTORE PUSH1 0x4 ADD PUSH2 0x16DB SWAP1 PUSH2 0x30B4 JUMP JUMPDEST PUSH1 0x40 MLOAD DUP1 SWAP2 SUB SWAP1 REVERT JUMPDEST DUP11 PUSH20 0xFFFFFFFFFFFFFFFFFFFFFFFFFFFFFFFFFFFFFFFF AND PUSH4 0x23B872DD CALLER ADDRESS DUP7 PUSH1 0x40 MLOAD DUP5 PUSH4 0xFFFFFFFF AND PUSH1 0xE0 SHL DUP2 MSTORE PUSH1 0x4 ADD PUSH2 0x1721 SWAP4 SWAP3 SWAP2 SWAP1 PUSH2 0x2D84 JUMP JUMPDEST PUSH1 0x20 PUSH1 0x40 MLOAD DUP1 DUP4 SUB DUP2 PUSH0 DUP8 GAS CALL ISZERO DUP1 ISZERO PUSH2 0x173D JUMPI RETURNDATASIZE PUSH0 PUSH0 RETURNDATACOPY RETURNDATASIZE PUSH0 REVERT JUMPDEST POP POP POP POP PUSH1 0x40 MLOAD RETURNDATASIZE PUSH1 0x1F NOT PUSH1 0x1F DUP3 ADD AND DUP3 ADD DUP1 PUSH1 0x40 MSTORE POP DUP2 ADD SWAP1 PUSH2 0x1761 SWAP2 SWAP1 PUSH2 0x2DE3 JUMP JUMPDEST PUSH2 0x17A0 JUMPI PUSH1 0x40 MLOAD PUSH32 0x8C379A000000000000000000000000000000000000000000000000000000000 DUP2 MSTORE PUSH1 0x4 ADD PUSH2 0x1797 SWAP1 PUSH2 0x311C JUMP JUMPDEST PUSH1 0x40 MLOAD DUP1 SWAP2 SUB SWAP1 REVERT JUMPDEST PUSH2 0x17AA DUP7 DUP4 PUSH2 0x1E57 JUMP JUMPDEST CALLER PUSH20 0xFFFFFFFFFFFFFFFFFFFFFFFFFFFFFFFFFFFFFFFF AND PUSH32 0x3BCA7014F4C0CCC8016338C79F4C00E82068DBADAF4F01CA5449040FDD39F500 DUP6 DUP6 DUP6 PUSH1 0x40 MLOAD PUSH2 0x17F4 SWAP4 SWAP3 SWAP2 SWAP1 PUSH2 0x294B JUMP JUMPDEST PUSH1 0x40 MLOAD DUP1 SWAP2 SUB SWAP1 LOG2 POP SWAP9 POP SWAP9 POP SWAP9 SWAP6 POP POP POP POP POP POP JUMP JUMPDEST PUSH0 CALLER SWAP1 POP SWAP1 JUMP JUMPDEST PUSH2 0x181F DUP4 DUP4 DUP4 PUSH1 0x1 PUSH2 0x1ED6 JUMP JUMPDEST POP POP POP JUMP JUMPDEST PUSH0 PUSH2 0x182F DUP5 DUP5 PUSH2 0x148E JUMP JUMPDEST SWAP1 POP PUSH32 0xFFFFFFFFFFFFFFFFFFFFFFFFFFFFFFFFFFFFFFFFFFFFFFFFFFFFFFFFFFFFFFFF DUP2 LT ISZERO PUSH2 0x18B1 JUMPI DUP2 DUP2 LT ISZERO PUSH2 0x18A2 JUMPI DUP3 DUP2 DUP4 PUSH1 0x40 MLOAD PUSH32 0xFB8F41B200000000000000000000000000000000000000000000000000000000 DUP2 MSTORE PUSH1 0x4 ADD PUSH2 0x1899 SWAP4 SWAP3 SWAP2 SWAP1 PUSH2 0x313A JUMP JUMPDEST PUSH1 0x40 MLOAD DUP1 SWAP2 SUB SWAP1 REVERT JUMPDEST PUSH2 0x18B0 DUP5 DUP5 DUP5 DUP5 SUB PUSH0 PUSH2 0x1ED6 JUMP JUMPDEST JUMPDEST POP POP POP POP JUMP JUMPDEST PUSH0 PUSH20 0xFFFFFFFFFFFFFFFFFFFFFFFFFFFFFFFFFFFFFFFF AND DUP4 PUSH20 0xFFFFFFFFFFFFFFFFFFFFFFFFFFFFFFFFFFFFFFFF AND SUB PUSH2 0x1927 JUMPI PUSH0 PUSH1 0x40 MLOAD PUSH32 0x96C6FD1E00000000000000000000000000000000000000000000000000000000 DUP2 MSTORE PUSH1 0x4 ADD PUSH2 0x191E SWAP2 SWAP1 PUSH2 0x2502 JUMP JUMPDEST PUSH1 0x40 MLOAD DUP1 SWAP2 SUB SWAP1 REVERT JUMPDEST PUSH0 PUSH20 0xFFFFFFFFFFFFFFFFFFFFFFFFFFFFFFFFFFFFFFFF AND DUP3 PUSH20 0xFFFFFFFFFFFFFFFFFFFFFFFFFFFFFFFFFFFFFFFF AND SUB PUSH2 0x1997 JUMPI PUSH0 PUSH1 0x40 MLOAD PUSH32 0xEC442F0500000000000000000000000000000000000000000000000000000000 DUP2 MSTORE PUSH1 0x4 ADD PUSH2 0x198E SWAP2 SWAP1 PUSH2 0x2502 JUMP JUMPDEST PUSH1 0x40 MLOAD DUP1 SWAP2 SUB SWAP1 REVERT JUMPDEST PUSH2 0x19A2 DUP4 DUP4 DUP4 PUSH2 0x20A5 JUMP JUMPDEST POP POP POP JUMP JUMPDEST PUSH0 PUSH32 0x0 PUSH20 0xFFFFFFFFFFFFFFFFFFFFFFFFFFFFFFFFFFFFFFFF AND DUP4 PUSH20 0xFFFFFFFFFFFFFFFFFFFFFFFFFFFFFFFFFFFFFFFF AND EQ DUP1 ISZERO PUSH2 0x1A4E JUMPI POP PUSH32 0x0 PUSH20 0xFFFFFFFFFFFFFFFFFFFFFFFFFFFFFFFFFFFFFFFF AND DUP3 PUSH20 0xFFFFFFFFFFFFFFFFFFFFFFFFFFFFFFFFFFFFFFFF AND EQ JUMPDEST DUP1 PUSH2 0x1AFB JUMPI POP PUSH32 0x0 PUSH20 0xFFFFFFFFFFFFFFFFFFFFFFFFFFFFFFFFFFFFFFFF AND DUP4 PUSH20 0xFFFFFFFFFFFFFFFFFFFFFFFFFFFFFFFFFFFFFFFF AND EQ DUP1 ISZERO PUSH2 0x1AFA JUMPI POP PUSH32 0x0 PUSH20 0xFFFFFFFFFFFFFFFFFFFFFFFFFFFFFFFFFFFFFFFF AND DUP3 PUSH20 0xFFFFFFFFFFFFFFFFFFFFFFFFFFFFFFFFFFFFFFFF AND EQ JUMPDEST JUMPDEST SWAP1 POP SWAP3 SWAP2 POP POP JUMP JUMPDEST PUSH0 PUSH0 DUP4 GT DUP1 ISZERO PUSH2 0x1B12 JUMPI POP PUSH0 DUP3 GT JUMPDEST PUSH2 0x1B51 JUMPI PUSH1 0x40 MLOAD PUSH32 0x8C379A000000000000000000000000000000000000000000000000000000000 DUP2 MSTORE PUSH1 0x4 ADD PUSH2 0x1B48 SWAP1 PUSH2 0x29CA JUMP JUMPDEST PUSH1 0x40 MLOAD DUP1 SWAP2 SUB SWAP1 REVERT JUMPDEST PUSH0 PUSH2 0x3E5 DUP6 PUSH2 0x1B60 SWAP2 SWAP1 PUSH2 0x2A15 JUMP JUMPDEST SWAP1 POP PUSH0 DUP4 DUP3 PUSH2 0x1B6F SWAP2 SWAP1 PUSH2 0x2A15 JUMP JUMPDEST SWAP1 POP PUSH0 DUP3 PUSH2 0x3E8 DUP8 PUSH2 0x1B81 SWAP2 SWAP1 PUSH2 0x2A15 JUMP JUMPDEST PUSH2 0x1B8B SWAP2 SWAP1 PUSH2 0x316F JUMP JUMPDEST SWAP1 POP DUP1 DUP3 PUSH2 0x1B99 SWAP2 SWAP1 PUSH2 0x2A83 JUMP JUMPDEST SWAP4 POP POP POP POP SWAP4 SWAP3 POP POP POP JUMP JUMPDEST PUSH0 PUSH20 0xFFFFFFFFFFFFFFFFFFFFFFFFFFFFFFFFFFFFFFFF AND DUP3 PUSH20 0xFFFFFFFFFFFFFFFFFFFFFFFFFFFFFFFFFFFFFFFF AND SUB PUSH2 0x1C15 JUMPI PUSH0 PUSH1 0x40 MLOAD PUSH32 0x96C6FD1E00000000000000000000000000000000000000000000000000000000 DUP2 MSTORE PUSH1 0x4 ADD PUSH2 0x1C0C SWAP2 SWAP1 PUSH2 0x2502 JUMP JUMPDEST PUSH1 0x40 MLOAD DUP1 SWAP2 SUB SWAP1 REVERT JUMPDEST PUSH2 0x1C20 DUP3 PUSH0 DUP4 PUSH2 0x20A5 JUMP JUMPDEST POP POP JUMP JUMPDEST PUSH0 PUSH0 PUSH0 PUSH0 DUP10 PUSH20 0xFFFFFFFFFFFFFFFFFFFFFFFFFFFFFFFFFFFFFFFF AND PUSH4 0x70A08231 ADDRESS PUSH1 0x40 MLOAD DUP3 PUSH4 0xFFFFFFFF AND PUSH1 0xE0 SHL DUP2 MSTORE PUSH1 0x4 ADD PUSH2 0x1C61 SWAP2 SWAP1 PUSH2 0x2502 JUMP JUMPDEST PUSH1 0x20 PUSH1 0x40 MLOAD DUP1 DUP4 SUB DUP2 DUP7 GAS STATICCALL ISZERO DUP1 ISZERO PUSH2 0x1C7C JUMPI RETURNDATASIZE PUSH0 PUSH0 RETURNDATACOPY RETURNDATASIZE PUSH0 REVERT JUMPDEST POP POP POP POP PUSH1 0x40 MLOAD RETURNDATASIZE PUSH1 0x1F NOT PUSH1 0x1F DUP3 ADD AND DUP3 ADD DUP1 PUSH1 0x40 MSTORE POP DUP2 ADD SWAP1 PUSH2 0x1CA0 SWAP2 SWAP1 PUSH2 0x2B24 JUMP JUMPDEST SWAP1 POP PUSH0 DUP10 PUSH20 0xFFFFFFFFFFFFFFFFFFFFFFFFFFFFFFFFFFFFFFFF AND PUSH4 0x70A08231 ADDRESS PUSH1 0x40 MLOAD DUP3 PUSH4 0xFFFFFFFF AND PUSH1 0xE0 SHL DUP2 MSTORE PUSH1 0x4 ADD PUSH2 0x1CDC SWAP2 SWAP1 PUSH2 0x2502 JUMP JUMPDEST PUSH1 0x20 PUSH1 0x40 MLOAD DUP1 DUP4 SUB DUP2 DUP7 GAS STATICCALL ISZERO DUP1 ISZERO PUSH2 0x1CF7 JUMPI RETURNDATASIZE PUSH0 PUSH0 RETURNDATACOPY RETURNDATASIZE PUSH0 REVERT JUMPDEST POP POP POP POP PUSH1 0x40 MLOAD RETURNDATASIZE PUSH1 0x1F NOT PUSH1 0x1F DUP3 ADD AND DUP3 ADD DUP1 PUSH1 0x40 MSTORE POP DUP2 ADD SWAP1 PUSH2 0x1D1B SWAP2 SWAP1 PUSH2 0x2B24 JUMP JUMPDEST SWAP1 POP PUSH0 DUP3 EQ DUP1 ISZERO PUSH2 0x1D2B JUMPI POP PUSH0 DUP2 EQ JUMPDEST ISZERO PUSH2 0x1D39 JUMPI PUSH1 0x1 SWAP2 POP PUSH1 0x1 SWAP1 POP JUMPDEST PUSH0 PUSH2 0x1D45 DUP10 DUP4 DUP6 PUSH2 0x3ED JUMP JUMPDEST SWAP1 POP DUP10 DUP2 GT PUSH2 0x1D9C JUMPI DUP8 DUP2 LT ISZERO PUSH2 0x1D91 JUMPI PUSH1 0x40 MLOAD PUSH32 0x8C379A000000000000000000000000000000000000000000000000000000000 DUP2 MSTORE PUSH1 0x4 ADD PUSH2 0x1D88 SWAP1 PUSH2 0x2FE4 JUMP JUMPDEST PUSH1 0x40 MLOAD DUP1 SWAP2 SUB SWAP1 REVERT JUMPDEST DUP1 SWAP6 POP DUP9 SWAP5 POP PUSH2 0x1DF5 JUMP JUMPDEST PUSH0 PUSH2 0x1DA8 DUP12 DUP6 DUP6 PUSH2 0x3ED JUMP JUMPDEST SWAP1 POP DUP8 DUP2 LT ISZERO PUSH2 0x1DED JUMPI PUSH1 0x40 MLOAD PUSH32 0x8C379A000000000000000000000000000000000000000000000000000000000 DUP2 MSTORE PUSH1 0x4 ADD PUSH2 0x1DE4 SWAP1 PUSH2 0x304C JUMP JUMPDEST PUSH1 0x40 MLOAD DUP1 SWAP2 SUB SWAP1 REVERT JUMPDEST DUP11 SWAP7 POP DUP1 SWAP6 POP POP JUMPDEST PUSH0 PUSH2 0x1DFE PUSH2 0x647 JUMP JUMPDEST SWAP1 POP PUSH0 DUP5 DUP3 DUP10 PUSH2 0x1E0E SWAP2 SWAP1 PUSH2 0x2A15 JUMP JUMPDEST PUSH2 0x1E18 SWAP2 SWAP1 PUSH2 0x2A83 JUMP JUMPDEST SWAP1 POP PUSH0 DUP5 DUP4 DUP10 PUSH2 0x1E28 SWAP2 SWAP1 PUSH2 0x2A15 JUMP JUMPDEST PUSH2 0x1E32 SWAP2 SWAP1 PUSH2 0x2A83 JUMP JUMPDEST SWAP1 POP DUP1 DUP3 LT PUSH2 0x1E41 JUMPI DUP1 PUSH2 0x1E43 JUMP JUMPDEST DUP2 JUMPDEST SWAP7 POP POP POP POP POP POP POP SWAP7 POP SWAP7 POP SWAP7 SWAP4 POP POP POP POP JUMP JUMPDEST PUSH0 PUSH20 0xFFFFFFFFFFFFFFFFFFFFFFFFFFFFFFFFFFFFFFFF AND DUP3 PUSH20 0xFFFFFFFFFFFFFFFFFFFFFFFFFFFFFFFFFFFFFFFF AND SUB PUSH2 0x1EC7 JUMPI PUSH0 PUSH1 0x40 MLOAD PUSH32 0xEC442F0500000000000000000000000000000000000000000000000000000000 DUP2 MSTORE PUSH1 0x4 ADD PUSH2 0x1EBE SWAP2 SWAP1 PUSH2 0x2502 JUMP JUMPDEST PUSH1 0x40 MLOAD DUP1 SWAP2 SUB SWAP1 REVERT JUMPDEST PUSH2 0x1ED2 PUSH0 DUP4 DUP4 PUSH2 0x20A5 JUMP JUMPDEST POP POP JUMP JUMPDEST PUSH0 PUSH20 0xFFFFFFFFFFFFFFFFFFFFFFFFFFFFFFFFFFFFFFFF AND DUP5 PUSH20 0xFFFFFFFFFFFFFFFFFFFFFFFFFFFFFFFFFFFFFFFF AND SUB PUSH2 0x1F46 JUMPI PUSH0 PUSH1 0x40 MLOAD PUSH32 0xE602DF0500000000000000000000000000000000000000000000000000000000 DUP2 MSTORE PUSH1 0x4 ADD PUSH2 0x1F3D SWAP2 SWAP1 PUSH2 0x2502 JUMP JUMPDEST PUSH1 0x40 MLOAD DUP1 SWAP2 SUB SWAP1 REVERT JUMPDEST PUSH0 PUSH20 0xFFFFFFFFFFFFFFFFFFFFFFFFFFFFFFFFFFFFFFFF AND DUP4 PUSH20 0xFFFFFFFFFFFFFFFFFFFFFFFFFFFFFFFFFFFFFFFF AND SUB PUSH2 0x1FB6 JUMPI PUSH0 PUSH1 0x40 MLOAD PUSH32 0x94280D6200000000000000000000000000000000000000000000000000000000 DUP2 MSTORE PUSH1 0x4 ADD PUSH2 0x1FAD SWAP2 SWAP1 PUSH2 0x2502 JUMP JUMPDEST PUSH1 0x40 MLOAD DUP1 SWAP2 SUB SWAP1 REVERT JUMPDEST DUP2 PUSH1 0x1 PUSH0 DUP7 PUSH20 0xFFFFFFFFFFFFFFFFFFFFFFFFFFFFFFFFFFFFFFFF AND PUSH20 0xFFFFFFFFFFFFFFFFFFFFFFFFFFFFFFFFFFFFFFFF AND DUP2 MSTORE PUSH1 0x20 ADD SWAP1 DUP2 MSTORE PUSH1 0x20 ADD PUSH0 KECCAK256 PUSH0 DUP6 PUSH20 0xFFFFFFFFFFFFFFFFFFFFFFFFFFFFFFFFFFFFFFFF AND PUSH20 0xFFFFFFFFFFFFFFFFFFFFFFFFFFFFFFFFFFFFFFFF AND DUP2 MSTORE PUSH1 0x20 ADD SWAP1 DUP2 MSTORE PUSH1 0x20 ADD PUSH0 KECCAK256 DUP2 SWAP1 SSTORE POP DUP1 ISZERO PUSH2 0x209F JUMPI DUP3 PUSH20 0xFFFFFFFFFFFFFFFFFFFFFFFFFFFFFFFFFFFFFFFF AND DUP5 PUSH20 0xFFFFFFFFFFFFFFFFFFFFFFFFFFFFFFFFFFFFFFFF AND PUSH32 0x8C5BE1E5EBEC7D5BD14F71427D1E84F3DD0314C0F7B2291E5B200AC8C7C3B925 DUP5 PUSH1 0x40 MLOAD PUSH2 0x2096 SWAP2 SWAP1 PUSH2 0x2358 JUMP JUMPDEST PUSH1 0x40 MLOAD DUP1 SWAP2 SUB SWAP1 LOG3 JUMPDEST POP POP POP POP JUMP JUMPDEST PUSH0 PUSH20 0xFFFFFFFFFFFFFFFFFFFFFFFFFFFFFFFFFFFFFFFF AND DUP4 PUSH20 0xFFFFFFFFFFFFFFFFFFFFFFFFFFFFFFFFFFFFFFFF AND SUB PUSH2 0x20F5 JUMPI DUP1 PUSH1 0x2 PUSH0 DUP3 DUP3 SLOAD PUSH2 0x20E9 SWAP2 SWAP1 PUSH2 0x316F JUMP JUMPDEST SWAP3 POP POP DUP2 SWAP1 SSTORE POP PUSH2 0x21C3 JUMP JUMPDEST PUSH0 PUSH0 PUSH0 DUP6 PUSH20 0xFFFFFFFFFFFFFFFFFFFFFFFFFFFFFFFFFFFFFFFF AND PUSH20 0xFFFFFFFFFFFFFFFFFFFFFFFFFFFFFFFFFFFFFFFF AND DUP2 MSTORE PUSH1 0x20 ADD SWAP1 DUP2 MSTORE PUSH1 0x20 ADD PUSH0 KECCAK256 SLOAD SWAP1 POP DUP2 DUP2 LT ISZERO PUSH2 0x217E JUMPI DUP4 DUP2 DUP4 PUSH1 0x40 MLOAD PUSH32 0xE450D38C00000000000000000000000000000000000000000000000000000000 DUP2 MSTORE PUSH1 0x4 ADD PUSH2 0x2175 SWAP4 SWAP3 SWAP2 SWAP1 PUSH2 0x313A JUMP JUMPDEST PUSH1 0x40 MLOAD DUP1 SWAP2 SUB SWAP1 REVERT JUMPDEST DUP2 DUP2 SUB PUSH0 PUSH0 DUP7 PUSH20 0xFFFFFFFFFFFFFFFFFFFFFFFFFFFFFFFFFFFFFFFF AND PUSH20 0xFFFFFFFFFFFFFFFFFFFFFFFFFFFFFFFFFFFFFFFF AND DUP2 MSTORE PUSH1 0x20 ADD SWAP1 DUP2 MSTORE PUSH1 0x20 ADD PUSH0 KECCAK256 DUP2 SWAP1 SSTORE POP POP JUMPDEST PUSH0 PUSH20 0xFFFFFFFFFFFFFFFFFFFFFFFFFFFFFFFFFFFFFFFF AND DUP3 PUSH20 0xFFFFFFFFFFFFFFFFFFFFFFFFFFFFFFFFFFFFFFFF AND SUB PUSH2 0x220A JUMPI DUP1 PUSH1 0x2 PUSH0 DUP3 DUP3 SLOAD SUB SWAP3 POP POP DUP2 SWAP1 SSTORE POP PUSH2 0x2254 JUMP JUMPDEST DUP1 PUSH0 PUSH0 DUP5 PUSH20 0xFFFFFFFFFFFFFFFFFFFFFFFFFFFFFFFFFFFFFFFF AND PUSH20 0xFFFFFFFFFFFFFFFFFFFFFFFFFFFFFFFFFFFFFFFF AND DUP2 MSTORE PUSH1 0x20 ADD SWAP1 DUP2 MSTORE PUSH1 0x20 ADD PUSH0 KECCAK256 PUSH0 DUP3 DUP3 SLOAD ADD SWAP3 POP POP DUP2 SWAP1 SSTORE POP JUMPDEST DUP2 PUSH20 0xFFFFFFFFFFFFFFFFFFFFFFFFFFFFFFFFFFFFFFFF AND DUP4 PUSH20 0xFFFFFFFFFFFFFFFFFFFFFFFFFFFFFFFFFFFFFFFF AND PUSH32 0xDDF252AD1BE2C89B69C2B068FC378DAA952BA7F163C4A11628F55A4DF523B3EF DUP4 PUSH1 0x40 MLOAD PUSH2 0x22B1 SWAP2 SWAP1 PUSH2 0x2358 JUMP JUMPDEST PUSH1 0x40 MLOAD DUP1 SWAP2 SUB SWAP1 LOG3 POP POP POP JUMP JUMPDEST PUSH0 PUSH0 REVERT JUMPDEST PUSH0 PUSH0 REVERT JUMPDEST PUSH0 DUP2 SWAP1 POP SWAP2 SWAP1 POP JUMP JUMPDEST PUSH2 0x22D8 DUP2 PUSH2 0x22C6 JUMP JUMPDEST DUP2 EQ PUSH2 0x22E2 JUMPI PUSH0 PUSH0 REVERT JUMPDEST POP JUMP JUMPDEST PUSH0 DUP2 CALLDATALOAD SWAP1 POP PUSH2 0x22F3 DUP2 PUSH2 0x22CF JUMP JUMPDEST SWAP3 SWAP2 POP POP JUMP JUMPDEST PUSH0 PUSH0 PUSH0 PUSH1 0x60 DUP5 DUP7 SUB SLT ISZERO PUSH2 0x2310 JUMPI PUSH2 0x230F PUSH2 0x22BE JUMP JUMPDEST JUMPDEST PUSH0 PUSH2 0x231D DUP7 DUP3 DUP8 ADD PUSH2 0x22E5 JUMP JUMPDEST SWAP4 POP POP PUSH1 0x20 PUSH2 0x232E DUP7 DUP3 DUP8 ADD PUSH2 0x22E5 JUMP JUMPDEST SWAP3 POP POP PUSH1 0x40 PUSH2 0x233F DUP7 DUP3 DUP8 ADD PUSH2 0x22E5 JUMP JUMPDEST SWAP2 POP POP SWAP3 POP SWAP3 POP SWAP3 JUMP JUMPDEST PUSH2 0x2352 DUP2 PUSH2 0x22C6 JUMP JUMPDEST DUP3 MSTORE POP POP JUMP JUMPDEST PUSH0 PUSH1 0x20 DUP3 ADD SWAP1 POP PUSH2 0x236B PUSH0 DUP4 ADD DUP5 PUSH2 0x2349 JUMP JUMPDEST SWAP3 SWAP2 POP POP JUMP JUMPDEST PUSH0 DUP2 MLOAD SWAP1 POP SWAP2 SWAP1 POP JUMP JUMPDEST PUSH0 DUP3 DUP3 MSTORE PUSH1 0x20 DUP3 ADD SWAP1 POP SWAP3 SWAP2 POP POP JUMP JUMPDEST DUP3 DUP2 DUP4 MCOPY PUSH0 DUP4 DUP4 ADD MSTORE POP POP POP JUMP JUMPDEST PUSH0 PUSH1 0x1F NOT PUSH1 0x1F DUP4 ADD AND SWAP1 POP SWAP2 SWAP1 POP JUMP JUMPDEST PUSH0 PUSH2 0x23B3 DUP3 PUSH2 0x2371 JUMP JUMPDEST PUSH2 0x23BD DUP2 DUP6 PUSH2 0x237B JUMP JUMPDEST SWAP4 POP PUSH2 0x23CD DUP2 DUP6 PUSH1 0x20 DUP7 ADD PUSH2 0x238B JUMP JUMPDEST PUSH2 0x23D6 DUP2 PUSH2 0x2399 JUMP JUMPDEST DUP5 ADD SWAP2 POP POP SWAP3 SWAP2 POP POP JUMP JUMPDEST PUSH0 PUSH1 0x20 DUP3 ADD SWAP1 POP DUP2 DUP2 SUB PUSH0 DUP4 ADD MSTORE PUSH2 0x23F9 DUP2 DUP5 PUSH2 0x23A9 JUMP JUMPDEST SWAP1 POP SWAP3 SWAP2 POP POP JUMP JUMPDEST PUSH0 PUSH1 0x40 DUP3 ADD SWAP1 POP PUSH2 0x2414 PUSH0 DUP4 ADD DUP6 PUSH2 0x2349 JUMP JUMPDEST PUSH2 0x2421 PUSH1 0x20 DUP4 ADD DUP5 PUSH2 0x2349 JUMP JUMPDEST SWAP4 SWAP3 POP POP POP JUMP JUMPDEST PUSH0 PUSH20 0xFFFFFFFFFFFFFFFFFFFFFFFFFFFFFFFFFFFFFFFF DUP3 AND SWAP1 POP SWAP2 SWAP1 POP JUMP JUMPDEST PUSH0 PUSH2 0x2451 DUP3 PUSH2 0x2428 JUMP JUMPDEST SWAP1 POP SWAP2 SWAP1 POP JUMP JUMPDEST PUSH2 0x2461 DUP2 PUSH2 0x2447 JUMP JUMPDEST DUP2 EQ PUSH2 0x246B JUMPI PUSH0 PUSH0 REVERT JUMPDEST POP JUMP JUMPDEST PUSH0 DUP2 CALLDATALOAD SWAP1 POP PUSH2 0x247C DUP2 PUSH2 0x2458 JUMP JUMPDEST SWAP3 SWAP2 POP POP JUMP JUMPDEST PUSH0 PUSH0 PUSH1 0x40 DUP4 DUP6 SUB SLT ISZERO PUSH2 0x2498 JUMPI PUSH2 0x2497 PUSH2 0x22BE JUMP JUMPDEST JUMPDEST PUSH0 PUSH2 0x24A5 DUP6 DUP3 DUP7 ADD PUSH2 0x246E JUMP JUMPDEST SWAP3 POP POP PUSH1 0x20 PUSH2 0x24B6 DUP6 DUP3 DUP7 ADD PUSH2 0x22E5 JUMP JUMPDEST SWAP2 POP POP SWAP3 POP SWAP3 SWAP1 POP JUMP JUMPDEST PUSH0 DUP2 ISZERO ISZERO SWAP1 POP SWAP2 SWAP1 POP JUMP JUMPDEST PUSH2 0x24D4 DUP2 PUSH2 0x24C0 JUMP JUMPDEST DUP3 MSTORE POP POP JUMP JUMPDEST PUSH0 PUSH1 0x20 DUP3 ADD SWAP1 POP PUSH2 0x24ED PUSH0 DUP4 ADD DUP5 PUSH2 0x24CB JUMP JUMPDEST SWAP3 SWAP2 POP POP JUMP JUMPDEST PUSH2 0x24FC DUP2 PUSH2 0x2447 JUMP JUMPDEST DUP3 MSTORE POP POP JUMP JUMPDEST PUSH0 PUSH1 0x20 DUP3 ADD SWAP1 POP PUSH2 0x2515 PUSH0 DUP4 ADD DUP5 PUSH2 0x24F3 JUMP JUMPDEST SWAP3 SWAP2 POP POP JUMP JUMPDEST PUSH0 PUSH0 PUSH0 PUSH1 0x60 DUP5 DUP7 SUB SLT ISZERO PUSH2 0x2532 JUMPI PUSH2 0x2531 PUSH2 0x22BE JUMP JUMPDEST JUMPDEST PUSH0 PUSH2 0x253F DUP7 DUP3 DUP8 ADD PUSH2 0x246E JUMP JUMPDEST SWAP4 POP POP PUSH1 0x20 PUSH2 0x2550 DUP7 DUP3 DUP8 ADD PUSH2 0x246E JUMP JUMPDEST SWAP3 POP POP PUSH1 0x40 PUSH2 0x2561 DUP7 DUP3 DUP8 ADD PUSH2 0x22E5 JUMP JUMPDEST SWAP2 POP POP SWAP3 POP SWAP3 POP SWAP3 JUMP JUMPDEST PUSH0 PUSH1 0xFF DUP3 AND SWAP1 POP SWAP2 SWAP1 POP JUMP JUMPDEST PUSH2 0x2580 DUP2 PUSH2 0x256B JUMP JUMPDEST DUP3 MSTORE POP POP JUMP JUMPDEST PUSH0 PUSH1 0x20 DUP3 ADD SWAP1 POP PUSH2 0x2599 PUSH0 DUP4 ADD DUP5 PUSH2 0x2577 JUMP JUMPDEST SWAP3 SWAP2 POP POP JUMP JUMPDEST PUSH0 PUSH0 REVERT JUMPDEST PUSH0 PUSH0 REVERT JUMPDEST PUSH0 PUSH0 REVERT JUMPDEST PUSH0 PUSH0 DUP4 PUSH1 0x1F DUP5 ADD SLT PUSH2 0x25C0 JUMPI PUSH2 0x25BF PUSH2 0x259F JUMP JUMPDEST JUMPDEST DUP3 CALLDATALOAD SWAP1 POP PUSH8 0xFFFFFFFFFFFFFFFF DUP2 GT ISZERO PUSH2 0x25DD JUMPI PUSH2 0x25DC PUSH2 0x25A3 JUMP JUMPDEST JUMPDEST PUSH1 0x20 DUP4 ADD SWAP2 POP DUP4 PUSH1 0x20 DUP3 MUL DUP4 ADD GT ISZERO PUSH2 0x25F9 JUMPI PUSH2 0x25F8 PUSH2 0x25A7 JUMP JUMPDEST JUMPDEST SWAP3 POP SWAP3 SWAP1 POP JUMP JUMPDEST PUSH0 PUSH0 PUSH0 PUSH0 PUSH0 PUSH0 PUSH1 0xA0 DUP8 DUP10 SUB SLT ISZERO PUSH2 0x261A JUMPI PUSH2 0x2619 PUSH2 0x22BE JUMP JUMPDEST JUMPDEST PUSH0 PUSH2 0x2627 DUP10 DUP3 DUP11 ADD PUSH2 0x22E5 JUMP JUMPDEST SWAP7 POP POP PUSH1 0x20 PUSH2 0x2638 DUP10 DUP3 DUP11 ADD PUSH2 0x22E5 JUMP JUMPDEST SWAP6 POP POP PUSH1 0x40 DUP8 ADD CALLDATALOAD PUSH8 0xFFFFFFFFFFFFFFFF DUP2 GT ISZERO PUSH2 0x2659 JUMPI PUSH2 0x2658 PUSH2 0x22C2 JUMP JUMPDEST JUMPDEST PUSH2 0x2665 DUP10 DUP3 DUP11 ADD PUSH2 0x25AB JUMP JUMPDEST SWAP5 POP SWAP5 POP POP PUSH1 0x60 PUSH2 0x2678 DUP10 DUP3 DUP11 ADD PUSH2 0x246E JUMP JUMPDEST SWAP3 POP POP PUSH1 0x80 PUSH2 0x2689 DUP10 DUP3 DUP11 ADD PUSH2 0x22E5 JUMP JUMPDEST SWAP2 POP POP SWAP3 SWAP6 POP SWAP3 SWAP6 POP SWAP3 SWAP6 JUMP JUMPDEST PUSH0 DUP2 MLOAD SWAP1 POP SWAP2 SWAP1 POP JUMP JUMPDEST PUSH0 DUP3 DUP3 MSTORE PUSH1 0x20 DUP3 ADD SWAP1 POP SWAP3 SWAP2 POP POP JUMP JUMPDEST PUSH0 DUP2 SWAP1 POP PUSH1 0x20 DUP3 ADD SWAP1 POP SWAP2 SWAP1 POP JUMP JUMPDEST PUSH2 0x26C8 DUP2 PUSH2 0x22C6 JUMP JUMPDEST DUP3 MSTORE POP POP JUMP JUMPDEST PUSH0 PUSH2 0x26D9 DUP4 DUP4 PUSH2 0x26BF JUMP JUMPDEST PUSH1 0x20 DUP4 ADD SWAP1 POP SWAP3 SWAP2 POP POP JUMP JUMPDEST PUSH0 PUSH1 0x20 DUP3 ADD SWAP1 POP SWAP2 SWAP1 POP JUMP JUMPDEST PUSH0 PUSH2 0x26FB DUP3 PUSH2 0x2696 JUMP JUMPDEST PUSH2 0x2705 DUP2 DUP6 PUSH2 0x26A0 JUMP JUMPDEST SWAP4 POP PUSH2 0x2710 DUP4 PUSH2 0x26B0 JUMP JUMPDEST DUP1 PUSH0 JUMPDEST DUP4 DUP2 LT ISZERO PUSH2 0x2740 JUMPI DUP2 MLOAD PUSH2 0x2727 DUP9 DUP3 PUSH2 0x26CE JUMP JUMPDEST SWAP8 POP PUSH2 0x2732 DUP4 PUSH2 0x26E5 JUMP JUMPDEST SWAP3 POP POP PUSH1 0x1 DUP2 ADD SWAP1 POP PUSH2 0x2713 JUMP JUMPDEST POP DUP6 SWAP4 POP POP POP POP SWAP3 SWAP2 POP POP JUMP JUMPDEST PUSH0 PUSH1 0x20 DUP3 ADD SWAP1 POP DUP2 DUP2 SUB PUSH0 DUP4 ADD MSTORE PUSH2 0x2765 DUP2 DUP5 PUSH2 0x26F1 JUMP JUMPDEST SWAP1 POP SWAP3 SWAP2 POP POP JUMP JUMPDEST PUSH0 PUSH1 0x20 DUP3 DUP5 SUB SLT ISZERO PUSH2 0x2782 JUMPI PUSH2 0x2781 PUSH2 0x22BE JUMP JUMPDEST JUMPDEST PUSH0 PUSH2 0x278F DUP5 DUP3 DUP6 ADD PUSH2 0x246E JUMP JUMPDEST SWAP2 POP POP SWAP3 SWAP2 POP POP JUMP JUMPDEST PUSH0 PUSH0 PUSH1 0x40 DUP4 DUP6 SUB SLT ISZERO PUSH2 0x27AE JUMPI PUSH2 0x27AD PUSH2 0x22BE JUMP JUMPDEST JUMPDEST PUSH0 PUSH2 0x27BB DUP6 DUP3 DUP7 ADD PUSH2 0x246E JUMP JUMPDEST SWAP3 POP POP PUSH1 0x20 PUSH2 0x27CC DUP6 DUP3 DUP7 ADD PUSH2 0x246E JUMP JUMPDEST SWAP2 POP POP SWAP3 POP SWAP3 SWAP1 POP JUMP JUMPDEST PUSH0 PUSH0 PUSH0 PUSH0 PUSH0 PUSH0 PUSH0 PUSH1 0xE0 DUP9 DUP11 SUB SLT ISZERO PUSH2 0x27F1 JUMPI PUSH2 0x27F0 PUSH2 0x22BE JUMP JUMPDEST JUMPDEST PUSH0 PUSH2 0x27FE DUP11 DUP3 DUP12 ADD PUSH2 0x246E JUMP JUMPDEST SWAP8 POP POP PUSH1 0x20 PUSH2 0x280F DUP11 DUP3 DUP12 ADD PUSH2 0x246E JUMP JUMPDEST SWAP7 POP POP PUSH1 0x40 PUSH2 0x2820 DUP11 DUP3 DUP12 ADD PUSH2 0x22E5 JUMP JUMPDEST SWAP6 POP POP PUSH1 0x60 PUSH2 0x2831 DUP11 DUP3 DUP12 ADD PUSH2 0x22E5 JUMP JUMPDEST SWAP5 POP POP PUSH1 0x80 PUSH2 0x2842 DUP11 DUP3 DUP12 ADD PUSH2 0x22E5 JUMP JUMPDEST SWAP4 POP POP PUSH1 0xA0 PUSH2 0x2853 DUP11 DUP3 DUP12 ADD PUSH2 0x246E JUMP JUMPDEST SWAP3 POP POP PUSH1 0xC0 PUSH2 0x2864 DUP11 DUP3 DUP12 ADD PUSH2 0x22E5 JUMP JUMPDEST SWAP2 POP POP SWAP3 SWAP6 SWAP9 SWAP2 SWAP5 SWAP8 POP SWAP3 SWAP6 POP JUMP JUMPDEST PUSH0 PUSH1 0x40 DUP3 ADD SWAP1 POP PUSH2 0x2886 PUSH0 DUP4 ADD DUP6 PUSH2 0x24F3 JUMP JUMPDEST PUSH2 0x2893 PUSH1 0x20 DUP4 ADD DUP5 PUSH2 0x24F3 JUMP JUMPDEST SWAP4 SWAP3 POP POP POP JUMP JUMPDEST PUSH0 PUSH0 PUSH0 PUSH0 PUSH0 PUSH0 PUSH0 PUSH0 PUSH2 0x100 DUP10 DUP12 SUB SLT ISZERO PUSH2 0x28B7 JUMPI PUSH2 0x28B6 PUSH2 0x22BE JUMP JUMPDEST JUMPDEST PUSH0 PUSH2 0x28C4 DUP12 DUP3 DUP13 ADD PUSH2 0x246E JUMP JUMPDEST SWAP9 POP POP PUSH1 0x20 PUSH2 0x28D5 DUP12 DUP3 DUP13 ADD PUSH2 0x246E JUMP JUMPDEST SWAP8 POP POP PUSH1 0x40 PUSH2 0x28E6 DUP12 DUP3 DUP13 ADD PUSH2 0x22E5 JUMP JUMPDEST SWAP7 POP POP PUSH1 0x60 PUSH2 0x28F7 DUP12 DUP3 DUP13 ADD PUSH2 0x22E5 JUMP JUMPDEST SWAP6 POP POP PUSH1 0x80 PUSH2 0x2908 DUP12 DUP3 DUP13 ADD PUSH2 0x22E5 JUMP JUMPDEST SWAP5 POP POP PUSH1 0xA0 PUSH2 0x2919 DUP12 DUP3 DUP13 ADD PUSH2 0x22E5 JUMP JUMPDEST SWAP4 POP POP PUSH1 0xC0 PUSH2 0x292A DUP12 DUP3 DUP13 ADD PUSH2 0x246E JUMP JUMPDEST SWAP3 POP POP PUSH1 0xE0 PUSH2 0x293B DUP12 DUP3 DUP13 ADD PUSH2 0x22E5 JUMP JUMPDEST SWAP2 POP POP SWAP3 SWAP6 SWAP9 POP SWAP3 SWAP6 SWAP9 SWAP1 SWAP4 SWAP7 POP JUMP JUMPDEST PUSH0 PUSH1 0x60 DUP3 ADD SWAP1 POP PUSH2 0x295E PUSH0 DUP4 ADD DUP7 PUSH2 0x2349 JUMP JUMPDEST PUSH2 0x296B PUSH1 0x20 DUP4 ADD DUP6 PUSH2 0x2349 JUMP JUMPDEST PUSH2 0x2978 PUSH1 0x40 DUP4 ADD DUP5 PUSH2 0x2349 JUMP JUMPDEST SWAP5 SWAP4 POP POP POP POP JUMP JUMPDEST PUSH32 0x496E73756666696369656E745265736572766573000000000000000000000000 PUSH0 DUP3 ADD MSTORE POP JUMP JUMPDEST PUSH0 PUSH2 0x29B4 PUSH1 0x14 DUP4 PUSH2 0x237B JUMP JUMPDEST SWAP2 POP PUSH2 0x29BF DUP3 PUSH2 0x2980 JUMP JUMPDEST PUSH1 0x20 DUP3 ADD SWAP1 POP SWAP2 SWAP1 POP JUMP JUMPDEST PUSH0 PUSH1 0x20 DUP3 ADD SWAP1 POP DUP2 DUP2 SUB PUSH0 DUP4 ADD MSTORE PUSH2 0x29E1 DUP2 PUSH2 0x29A8 JUMP JUMPDEST SWAP1 POP SWAP2 SWAP1 POP JUMP JUMPDEST PUSH32 0x4E487B7100000000000000000000000000000000000000000000000000000000 PUSH0 MSTORE PUSH1 0x11 PUSH1 0x4 MSTORE PUSH1 0x24 PUSH0 REVERT JUMPDEST PUSH0 PUSH2 0x2A1F DUP3 PUSH2 0x22C6 JUMP JUMPDEST SWAP2 POP PUSH2 0x2A2A DUP4 PUSH2 0x22C6 JUMP JUMPDEST SWAP3 POP DUP3 DUP3 MUL PUSH2 0x2A38 DUP2 PUSH2 0x22C6 JUMP JUMPDEST SWAP2 POP DUP3 DUP3 DIV DUP5 EQ DUP4 ISZERO OR PUSH2 0x2A4F JUMPI PUSH2 0x2A4E PUSH2 0x29E8 JUMP JUMPDEST JUMPDEST POP SWAP3 SWAP2 POP POP JUMP JUMPDEST PUSH32 0x4E487B7100000000000000000000000000000000000000000000000000000000 PUSH0 MSTORE PUSH1 0x12 PUSH1 0x4 MSTORE PUSH1 0x24 PUSH0 REVERT JUMPDEST PUSH0 PUSH2 0x2A8D DUP3 PUSH2 0x22C6 JUMP JUMPDEST SWAP2 POP PUSH2 0x2A98 DUP4 PUSH2 0x22C6 JUMP JUMPDEST SWAP3 POP DUP3 PUSH2 0x2AA8 JUMPI PUSH2 0x2AA7 PUSH2 0x2A56 JUMP JUMPDEST JUMPDEST DUP3 DUP3 DIV SWAP1 POP SWAP3 SWAP2 POP POP JUMP JUMPDEST PUSH32 0x4E487B7100000000000000000000000000000000000000000000000000000000 PUSH0 MSTORE PUSH1 0x22 PUSH1 0x4 MSTORE PUSH1 0x24 PUSH0 REVERT JUMPDEST PUSH0 PUSH1 0x2 DUP3 DIV SWAP1 POP PUSH1 0x1 DUP3 AND DUP1 PUSH2 0x2AF7 JUMPI PUSH1 0x7F DUP3 AND SWAP2 POP JUMPDEST PUSH1 0x20 DUP3 LT DUP2 SUB PUSH2 0x2B0A JUMPI PUSH2 0x2B09 PUSH2 0x2AB3 JUMP JUMPDEST JUMPDEST POP SWAP2 SWAP1 POP JUMP JUMPDEST PUSH0 DUP2 MLOAD SWAP1 POP PUSH2 0x2B1E DUP2 PUSH2 0x22CF JUMP JUMPDEST SWAP3 SWAP2 POP POP JUMP JUMPDEST PUSH0 PUSH1 0x20 DUP3 DUP5 SUB SLT ISZERO PUSH2 0x2B39 JUMPI PUSH2 0x2B38 PUSH2 0x22BE JUMP JUMPDEST JUMPDEST PUSH0 PUSH2 0x2B46 DUP5 DUP3 DUP6 ADD PUSH2 0x2B10 JUMP JUMPDEST SWAP2 POP POP SWAP3 SWAP2 POP POP JUMP JUMPDEST PUSH32 0x5472616E73616374696F6E457870697265640000000000000000000000000000 PUSH0 DUP3 ADD MSTORE POP JUMP JUMPDEST PUSH0 PUSH2 0x2B83 PUSH1 0x12 DUP4 PUSH2 0x237B JUMP JUMPDEST SWAP2 POP PUSH2 0x2B8E DUP3 PUSH2 0x2B4F JUMP JUMPDEST PUSH1 0x20 DUP3 ADD SWAP1 POP SWAP2 SWAP1 POP JUMP JUMPDEST PUSH0 PUSH1 0x20 DUP3 ADD SWAP1 POP DUP2 DUP2 SUB PUSH0 DUP4 ADD MSTORE PUSH2 0x2BB0 DUP2 PUSH2 0x2B77 JUMP JUMPDEST SWAP1 POP SWAP2 SWAP1 POP JUMP JUMPDEST PUSH32 0x496E76616C696454726164696E67506174680000000000000000000000000000 PUSH0 DUP3 ADD MSTORE POP JUMP JUMPDEST PUSH0 PUSH2 0x2BEB PUSH1 0x12 DUP4 PUSH2 0x237B JUMP JUMPDEST SWAP2 POP PUSH2 0x2BF6 DUP3 PUSH2 0x2BB7 JUMP JUMPDEST PUSH1 0x20 DUP3 ADD SWAP1 POP SWAP2 SWAP1 POP JUMP JUMPDEST PUSH0 PUSH1 0x20 DUP3 ADD SWAP1 POP DUP2 DUP2 SUB PUSH0 DUP4 ADD MSTORE PUSH2 0x2C18 DUP2 PUSH2 0x2BDF JUMP JUMPDEST SWAP1 POP SWAP2 SWAP1 POP JUMP JUMPDEST PUSH32 0x496E76616C6964526563697069656E7400000000000000000000000000000000 PUSH0 DUP3 ADD MSTORE POP JUMP JUMPDEST PUSH0 PUSH2 0x2C53 PUSH1 0x10 DUP4 PUSH2 0x237B JUMP JUMPDEST SWAP2 POP PUSH2 0x2C5E DUP3 PUSH2 0x2C1F JUMP JUMPDEST PUSH1 0x20 DUP3 ADD SWAP1 POP SWAP2 SWAP1 POP JUMP JUMPDEST PUSH0 PUSH1 0x20 DUP3 ADD SWAP1 POP DUP2 DUP2 SUB PUSH0 DUP4 ADD MSTORE PUSH2 0x2C80 DUP2 PUSH2 0x2C47 JUMP JUMPDEST SWAP1 POP SWAP2 SWAP1 POP JUMP JUMPDEST PUSH32 0x4E487B7100000000000000000000000000000000000000000000000000000000 PUSH0 MSTORE PUSH1 0x32 PUSH1 0x4 MSTORE PUSH1 0x24 PUSH0 REVERT JUMPDEST PUSH32 0x556E737570706F72746564546F6B656E50616972000000000000000000000000 PUSH0 DUP3 ADD MSTORE POP JUMP JUMPDEST PUSH0 PUSH2 0x2CE8 PUSH1 0x14 DUP4 PUSH2 0x237B JUMP JUMPDEST SWAP2 POP PUSH2 0x2CF3 DUP3 PUSH2 0x2CB4 JUMP JUMPDEST PUSH1 0x20 DUP3 ADD SWAP1 POP SWAP2 SWAP1 POP JUMP JUMPDEST PUSH0 PUSH1 0x20 DUP3 ADD SWAP1 POP DUP2 DUP2 SUB PUSH0 DUP4 ADD MSTORE PUSH2 0x2D15 DUP2 PUSH2 0x2CDC JUMP JUMPDEST SWAP1 POP SWAP2 SWAP1 POP JUMP JUMPDEST PUSH32 0x496E73756666696369656E744F7574707574416D6F756E740000000000000000 PUSH0 DUP3 ADD MSTORE POP JUMP JUMPDEST PUSH0 PUSH2 0x2D50 PUSH1 0x18 DUP4 PUSH2 0x237B JUMP JUMPDEST SWAP2 POP PUSH2 0x2D5B DUP3 PUSH2 0x2D1C JUMP JUMPDEST PUSH1 0x20 DUP3 ADD SWAP1 POP SWAP2 SWAP1 POP JUMP JUMPDEST PUSH0 PUSH1 0x20 DUP3 ADD SWAP1 POP DUP2 DUP2 SUB PUSH0 DUP4 ADD MSTORE PUSH2 0x2D7D DUP2 PUSH2 0x2D44 JUMP JUMPDEST SWAP1 POP SWAP2 SWAP1 POP JUMP JUMPDEST PUSH0 PUSH1 0x60 DUP3 ADD SWAP1 POP PUSH2 0x2D97 PUSH0 DUP4 ADD DUP7 PUSH2 0x24F3 JUMP JUMPDEST PUSH2 0x2DA4 PUSH1 0x20 DUP4 ADD DUP6 PUSH2 0x24F3 JUMP JUMPDEST PUSH2 0x2DB1 PUSH1 0x40 DUP4 ADD DUP5 PUSH2 0x2349 JUMP JUMPDEST SWAP5 SWAP4 POP POP POP POP JUMP JUMPDEST PUSH2 0x2DC2 DUP2 PUSH2 0x24C0 JUMP JUMPDEST DUP2 EQ PUSH2 0x2DCC JUMPI PUSH0 PUSH0 REVERT JUMPDEST POP JUMP JUMPDEST PUSH0 DUP2 MLOAD SWAP1 POP PUSH2 0x2DDD DUP2 PUSH2 0x2DB9 JUMP JUMPDEST SWAP3 SWAP2 POP POP JUMP JUMPDEST PUSH0 PUSH1 0x20 DUP3 DUP5 SUB SLT ISZERO PUSH2 0x2DF8 JUMPI PUSH2 0x2DF7 PUSH2 0x22BE JUMP JUMPDEST JUMPDEST PUSH0 PUSH2 0x2E05 DUP5 DUP3 DUP6 ADD PUSH2 0x2DCF JUMP JUMPDEST SWAP2 POP POP SWAP3 SWAP2 POP POP JUMP JUMPDEST PUSH32 0x496E7075745472616E736665724661696C656400000000000000000000000000 PUSH0 DUP3 ADD MSTORE POP JUMP JUMPDEST PUSH0 PUSH2 0x2E42 PUSH1 0x13 DUP4 PUSH2 0x237B JUMP JUMPDEST SWAP2 POP PUSH2 0x2E4D DUP3 PUSH2 0x2E0E JUMP JUMPDEST PUSH1 0x20 DUP3 ADD SWAP1 POP SWAP2 SWAP1 POP JUMP JUMPDEST PUSH0 PUSH1 0x20 DUP3 ADD SWAP1 POP DUP2 DUP2 SUB PUSH0 DUP4 ADD MSTORE PUSH2 0x2E6F DUP2 PUSH2 0x2E36 JUMP JUMPDEST SWAP1 POP SWAP2 SWAP1 POP JUMP JUMPDEST PUSH0 PUSH1 0x40 DUP3 ADD SWAP1 POP PUSH2 0x2E89 PUSH0 DUP4 ADD DUP6 PUSH2 0x24F3 JUMP JUMPDEST PUSH2 0x2E96 PUSH1 0x20 DUP4 ADD DUP5 PUSH2 0x2349 JUMP JUMPDEST SWAP4 SWAP3 POP POP POP JUMP JUMPDEST PUSH32 0x4F75747075745472616E736665724661696C6564000000000000000000000000 PUSH0 DUP3 ADD MSTORE POP JUMP JUMPDEST PUSH0 PUSH2 0x2ED1 PUSH1 0x14 DUP4 PUSH2 0x237B JUMP JUMPDEST SWAP2 POP PUSH2 0x2EDC DUP3 PUSH2 0x2E9D JUMP JUMPDEST PUSH1 0x20 DUP3 ADD SWAP1 POP SWAP2 SWAP1 POP JUMP JUMPDEST PUSH0 PUSH1 0x20 DUP3 ADD SWAP1 POP DUP2 DUP2 SUB PUSH0 DUP4 ADD MSTORE PUSH2 0x2EFE DUP2 PUSH2 0x2EC5 JUMP JUMPDEST SWAP1 POP SWAP2 SWAP1 POP JUMP JUMPDEST PUSH32 0x4E487B7100000000000000000000000000000000000000000000000000000000 PUSH0 MSTORE PUSH1 0x41 PUSH1 0x4 MSTORE PUSH1 0x24 PUSH0 REVERT JUMPDEST PUSH32 0x5A65726F4C6971756964697479416D6F756E7400000000000000000000000000 PUSH0 DUP3 ADD MSTORE POP JUMP JUMPDEST PUSH0 PUSH2 0x2F66 PUSH1 0x13 DUP4 PUSH2 0x237B JUMP JUMPDEST SWAP2 POP PUSH2 0x2F71 DUP3 PUSH2 0x2F32 JUMP JUMPDEST PUSH1 0x20 DUP3 ADD SWAP1 POP SWAP2 SWAP1 POP JUMP JUMPDEST PUSH0 PUSH1 0x20 DUP3 ADD SWAP1 POP DUP2 DUP2 SUB PUSH0 DUP4 ADD MSTORE PUSH2 0x2F93 DUP2 PUSH2 0x2F5A JUMP JUMPDEST SWAP1 POP SWAP2 SWAP1 POP JUMP JUMPDEST PUSH32 0x496E73756666696369656E74546F6B656E41416D6F756E740000000000000000 PUSH0 DUP3 ADD MSTORE POP JUMP JUMPDEST PUSH0 PUSH2 0x2FCE PUSH1 0x18 DUP4 PUSH2 0x237B JUMP JUMPDEST SWAP2 POP PUSH2 0x2FD9 DUP3 PUSH2 0x2F9A JUMP JUMPDEST PUSH1 0x20 DUP3 ADD SWAP1 POP SWAP2 SWAP1 POP JUMP JUMPDEST PUSH0 PUSH1 0x20 DUP3 ADD SWAP1 POP DUP2 DUP2 SUB PUSH0 DUP4 ADD MSTORE PUSH2 0x2FFB DUP2 PUSH2 0x2FC2 JUMP JUMPDEST SWAP1 POP SWAP2 SWAP1 POP JUMP JUMPDEST PUSH32 0x496E73756666696369656E74546F6B656E42416D6F756E740000000000000000 PUSH0 DUP3 ADD MSTORE POP JUMP JUMPDEST PUSH0 PUSH2 0x3036 PUSH1 0x18 DUP4 PUSH2 0x237B JUMP JUMPDEST SWAP2 POP PUSH2 0x3041 DUP3 PUSH2 0x3002 JUMP JUMPDEST PUSH1 0x20 DUP3 ADD SWAP1 POP SWAP2 SWAP1 POP JUMP JUMPDEST PUSH0 PUSH1 0x20 DUP3 ADD SWAP1 POP DUP2 DUP2 SUB PUSH0 DUP4 ADD MSTORE PUSH2 0x3063 DUP2 PUSH2 0x302A JUMP JUMPDEST SWAP1 POP SWAP2 SWAP1 POP JUMP JUMPDEST PUSH32 0x546F6B656E415472616E736665724661696C6564000000000000000000000000 PUSH0 DUP3 ADD MSTORE POP JUMP JUMPDEST PUSH0 PUSH2 0x309E PUSH1 0x14 DUP4 PUSH2 0x237B JUMP JUMPDEST SWAP2 POP PUSH2 0x30A9 DUP3 PUSH2 0x306A JUMP JUMPDEST PUSH1 0x20 DUP3 ADD SWAP1 POP SWAP2 SWAP1 POP JUMP JUMPDEST PUSH0 PUSH1 0x20 DUP3 ADD SWAP1 POP DUP2 DUP2 SUB PUSH0 DUP4 ADD MSTORE PUSH2 0x30CB DUP2 PUSH2 0x3092 JUMP JUMPDEST SWAP1 POP SWAP2 SWAP1 POP JUMP JUMPDEST PUSH32 0x546F6B656E425472616E736665724661696C6564000000000000000000000000 PUSH0 DUP3 ADD MSTORE POP JUMP JUMPDEST PUSH0 PUSH2 0x3106 PUSH1 0x14 DUP4 PUSH2 0x237B JUMP JUMPDEST SWAP2 POP PUSH2 0x3111 DUP3 PUSH2 0x30D2 JUMP JUMPDEST PUSH1 0x20 DUP3 ADD SWAP1 POP SWAP2 SWAP1 POP JUMP JUMPDEST PUSH0 PUSH1 0x20 DUP3 ADD SWAP1 POP DUP2 DUP2 SUB PUSH0 DUP4 ADD MSTORE PUSH2 0x3133 DUP2 PUSH2 0x30FA JUMP JUMPDEST SWAP1 POP SWAP2 SWAP1 POP JUMP JUMPDEST PUSH0 PUSH1 0x60 DUP3 ADD SWAP1 POP PUSH2 0x314D PUSH0 DUP4 ADD DUP7 PUSH2 0x24F3 JUMP JUMPDEST PUSH2 0x315A PUSH1 0x20 DUP4 ADD DUP6 PUSH2 0x2349 JUMP JUMPDEST PUSH2 0x3167 PUSH1 0x40 DUP4 ADD DUP5 PUSH2 0x2349 JUMP JUMPDEST SWAP5 SWAP4 POP POP POP POP JUMP JUMPDEST PUSH0 PUSH2 0x3179 DUP3 PUSH2 0x22C6 JUMP JUMPDEST SWAP2 POP PUSH2 0x3184 DUP4 PUSH2 0x22C6 JUMP JUMPDEST SWAP3 POP DUP3 DUP3 ADD SWAP1 POP DUP1 DUP3 GT ISZERO PUSH2 0x319C JUMPI PUSH2 0x319B PUSH2 0x29E8 JUMP JUMPDEST JUMPDEST SWAP3 SWAP2 POP POP JUMP INVALID LOG2 PUSH5 0x6970667358 0x22 SLT KECCAK256 0xDD 0xEF SWAP10 TIMESTAMP TIMESTAMP DUP16 0xA9 MSTORE 0xB8 0x21 PUSH32 0xC390522190FA9107B8A8D04B4D098399444E84215464736F6C634300081E0033 "
				},
				"gasEstimates": {
					"creation": {
						"codeDepositCost": "2552000",
						"executionCost": "infinite",
						"totalCost": "infinite"
					},
					"external": {
						"addLiquidity(address,address,uint256,uint256,uint256,uint256,address,uint256)": "infinite",
						"allowance(address,address)": "infinite",
						"approve(address,uint256)": "infinite",
						"balanceOf(address)": "2873",
						"decimals()": "449",
						"ekaToken()": "infinite",
						"ekbToken()": "infinite",
						"getAmountOut(uint256,uint256,uint256)": "infinite",
						"getPrice(address,address)": "infinite",
						"getReserves()": "infinite",
						"getSupportedTokens()": "infinite",
						"name()": "infinite",
						"removeLiquidity(address,address,uint256,uint256,uint256,address,uint256)": "infinite",
						"swapExactTokensForTokens(uint256,uint256,address[],address,uint256)": "infinite",
						"symbol()": "infinite",
						"totalSupply()": "2455",
						"transfer(address,uint256)": "infinite",
						"transferFrom(address,address,uint256)": "infinite"
					},
					"internal": {
						"_calculateLiquidityAmounts(address,address,uint256,uint256,uint256,uint256)": "infinite",
						"_calculateSwapOutput(uint256,uint256,uint256)": "infinite",
						"_isValidTokenPair(address,address)": "infinite"
					}
				},
				"methodIdentifiers": {
					"addLiquidity(address,address,uint256,uint256,uint256,uint256,address,uint256)": "e8e33700",
					"allowance(address,address)": "dd62ed3e",
					"approve(address,uint256)": "095ea7b3",
					"balanceOf(address)": "70a08231",
					"decimals()": "313ce567",
					"ekaToken()": "301c2a5f",
					"ekbToken()": "1e23d8e0",
					"getAmountOut(uint256,uint256,uint256)": "054d50d4",
					"getPrice(address,address)": "ac41865a",
					"getReserves()": "0902f1ac",
					"getSupportedTokens()": "d3c7c2c7",
					"name()": "06fdde03",
					"removeLiquidity(address,address,uint256,uint256,uint256,address,uint256)": "baa2abde",
					"swapExactTokensForTokens(uint256,uint256,address[],address,uint256)": "38ed1739",
					"symbol()": "95d89b41",
					"totalSupply()": "18160ddd",
					"transfer(address,uint256)": "a9059cbb",
					"transferFrom(address,address,uint256)": "23b872dd"
				}
			},
			"storageLayout": {
				"storage": [
					{
						"astId": 159,
						"contract": "SimpleSwap.sol:SimpleSwap",
						"label": "_balances",
						"offset": 0,
						"slot": "0",
						"type": "t_mapping(t_address,t_uint256)"
					},
					{
						"astId": 165,
						"contract": "SimpleSwap.sol:SimpleSwap",
						"label": "_allowances",
						"offset": 0,
						"slot": "1",
						"type": "t_mapping(t_address,t_mapping(t_address,t_uint256))"
					},
					{
						"astId": 167,
						"contract": "SimpleSwap.sol:SimpleSwap",
						"label": "_totalSupply",
						"offset": 0,
						"slot": "2",
						"type": "t_uint256"
					},
					{
						"astId": 169,
						"contract": "SimpleSwap.sol:SimpleSwap",
						"label": "_name",
						"offset": 0,
						"slot": "3",
						"type": "t_string_storage"
					},
					{
						"astId": 171,
						"contract": "SimpleSwap.sol:SimpleSwap",
						"label": "_symbol",
						"offset": 0,
						"slot": "4",
						"type": "t_string_storage"
					}
				],
				"types": {
					"t_address": {
						"encoding": "inplace",
						"label": "address",
						"numberOfBytes": "20"
					},
					"t_mapping(t_address,t_mapping(t_address,t_uint256))": {
						"encoding": "mapping",
						"key": "t_address",
						"label": "mapping(address => mapping(address => uint256))",
						"numberOfBytes": "32",
						"value": "t_mapping(t_address,t_uint256)"
					},
					"t_mapping(t_address,t_uint256)": {
						"encoding": "mapping",
						"key": "t_address",
						"label": "mapping(address => uint256)",
						"numberOfBytes": "32",
						"value": "t_uint256"
					},
					"t_string_storage": {
						"encoding": "bytes",
						"label": "string",
						"numberOfBytes": "32"
					},
					"t_uint256": {
						"encoding": "inplace",
						"label": "uint256",
						"numberOfBytes": "32"
					}
				}
			},
			"userdoc": {
				"events": {
					"LiquidityProvided(address,uint256,uint256,uint256)": {
						"notice": "Emitted when liquidity is added to the pool"
					},
					"LiquidityWithdrawn(address,uint256,uint256,uint256)": {
						"notice": "Emitted when liquidity is removed from the pool"
					},
					"TokenExchange(address,address,uint256,uint256)": {
						"notice": "Emitted when tokens are swapped"
					}
				},
				"kind": "user",
				"methods": {
					"addLiquidity(address,address,uint256,uint256,uint256,uint256,address,uint256)": {
						"notice": "Adds liquidity to the EKA/EKB trading pair"
					},
					"ekaToken()": {
						"notice": "Address of TokenA (EKA) contract"
					},
					"ekbToken()": {
						"notice": "Address of TokenB (EKB) contract  "
					},
					"getAmountOut(uint256,uint256,uint256)": {
						"notice": "Calculates expected output amount for a given input without fees"
					},
					"getPrice(address,address)": {
						"notice": "Returns current price of tokenA in terms of tokenB"
					},
					"getReserves()": {
						"notice": "Returns current reserves of both tokens in the pool"
					},
					"getSupportedTokens()": {
						"notice": "Returns the token addresses supported by this DEX"
					},
					"removeLiquidity(address,address,uint256,uint256,uint256,address,uint256)": {
						"notice": "Removes liquidity from the pool by burning LP tokens"
					},
					"swapExactTokensForTokens(uint256,uint256,address[],address,uint256)": {
						"notice": "Swaps exact input tokens for output tokens"
					}
				},
				"version": 1
			}
		}
	}
}