{
	"SimpleSwap.sol": {
		"SimpleSwap": {
			"abi": [
				{
					"inputs": [
						{
							"internalType": "address",
							"name": "_tokenA",
							"type": "address"
						},
						{
							"internalType": "address",
							"name": "_tokenB",
							"type": "address"
						}
					],
					"stateMutability": "nonpayable",
					"type": "constructor"
				},
				{
					"anonymous": false,
					"inputs": [
						{
							"indexed": true,
							"internalType": "address",
							"name": "owner",
							"type": "address"
						},
						{
							"indexed": true,
							"internalType": "address",
							"name": "spender",
							"type": "address"
						},
						{
							"indexed": false,
							"internalType": "uint256",
							"name": "value",
							"type": "uint256"
						}
					],
					"name": "Approval",
					"type": "event"
				},
				{
					"anonymous": false,
					"inputs": [
						{
							"indexed": true,
							"internalType": "address",
							"name": "provider",
							"type": "address"
						},
						{
							"indexed": false,
							"internalType": "uint256",
							"name": "amountA",
							"type": "uint256"
						},
						{
							"indexed": false,
							"internalType": "uint256",
							"name": "amountB",
							"type": "uint256"
						},
						{
							"indexed": false,
							"internalType": "uint256",
							"name": "liquidity",
							"type": "uint256"
						}
					],
					"name": "LiquidityAdded",
					"type": "event"
				},
				{
					"anonymous": false,
					"inputs": [
						{
							"indexed": true,
							"internalType": "address",
							"name": "provider",
							"type": "address"
						},
						{
							"indexed": false,
							"internalType": "uint256",
							"name": "amountA",
							"type": "uint256"
						},
						{
							"indexed": false,
							"internalType": "uint256",
							"name": "amountB",
							"type": "uint256"
						},
						{
							"indexed": false,
							"internalType": "uint256",
							"name": "liquidity",
							"type": "uint256"
						}
					],
					"name": "LiquidityRemoved",
					"type": "event"
				},
				{
					"anonymous": false,
					"inputs": [
						{
							"indexed": true,
							"internalType": "address",
							"name": "user",
							"type": "address"
						},
						{
							"indexed": true,
							"internalType": "address",
							"name": "tokenIn",
							"type": "address"
						},
						{
							"indexed": true,
							"internalType": "address",
							"name": "tokenOut",
							"type": "address"
						},
						{
							"indexed": false,
							"internalType": "uint256",
							"name": "amountIn",
							"type": "uint256"
						},
						{
							"indexed": false,
							"internalType": "uint256",
							"name": "amountOut",
							"type": "uint256"
						}
					],
					"name": "TokensSwapped",
					"type": "event"
				},
				{
					"anonymous": false,
					"inputs": [
						{
							"indexed": true,
							"internalType": "address",
							"name": "from",
							"type": "address"
						},
						{
							"indexed": true,
							"internalType": "address",
							"name": "to",
							"type": "address"
						},
						{
							"indexed": false,
							"internalType": "uint256",
							"name": "value",
							"type": "uint256"
						}
					],
					"name": "Transfer",
					"type": "event"
				},
				{
					"inputs": [
						{
							"internalType": "address",
							"name": "_tokenA",
							"type": "address"
						},
						{
							"internalType": "address",
							"name": "_tokenB",
							"type": "address"
						},
						{
							"internalType": "uint256",
							"name": "amountADesired",
							"type": "uint256"
						},
						{
							"internalType": "uint256",
							"name": "amountBDesired",
							"type": "uint256"
						},
						{
							"internalType": "uint256",
							"name": "amountAMin",
							"type": "uint256"
						},
						{
							"internalType": "uint256",
							"name": "amountBMin",
							"type": "uint256"
						},
						{
							"internalType": "address",
							"name": "to",
							"type": "address"
						},
						{
							"internalType": "uint256",
							"name": "deadline",
							"type": "uint256"
						}
					],
					"name": "addLiquidity",
					"outputs": [
						{
							"internalType": "uint256",
							"name": "amountA",
							"type": "uint256"
						},
						{
							"internalType": "uint256",
							"name": "amountB",
							"type": "uint256"
						},
						{
							"internalType": "uint256",
							"name": "liquidity",
							"type": "uint256"
						}
					],
					"stateMutability": "nonpayable",
					"type": "function"
				},
				{
					"inputs": [
						{
							"internalType": "address",
							"name": "",
							"type": "address"
						},
						{
							"internalType": "address",
							"name": "",
							"type": "address"
						}
					],
					"name": "allowance",
					"outputs": [
						{
							"internalType": "uint256",
							"name": "",
							"type": "uint256"
						}
					],
					"stateMutability": "view",
					"type": "function"
				},
				{
					"inputs": [
						{
							"internalType": "address",
							"name": "spender",
							"type": "address"
						},
						{
							"internalType": "uint256",
							"name": "amount",
							"type": "uint256"
						}
					],
					"name": "approve",
					"outputs": [
						{
							"internalType": "bool",
							"name": "",
							"type": "bool"
						}
					],
					"stateMutability": "nonpayable",
					"type": "function"
				},
				{
					"inputs": [
						{
							"internalType": "address",
							"name": "",
							"type": "address"
						}
					],
					"name": "balanceOf",
					"outputs": [
						{
							"internalType": "uint256",
							"name": "",
							"type": "uint256"
						}
					],
					"stateMutability": "view",
					"type": "function"
				},
				{
					"inputs": [],
					"name": "decimals",
					"outputs": [
						{
							"internalType": "uint8",
							"name": "",
							"type": "uint8"
						}
					],
					"stateMutability": "view",
					"type": "function"
				},
				{
					"inputs": [
						{
							"internalType": "uint256",
							"name": "amountIn",
							"type": "uint256"
						},
						{
							"internalType": "uint256",
							"name": "reserveIn",
							"type": "uint256"
						},
						{
							"internalType": "uint256",
							"name": "reserveOut",
							"type": "uint256"
						}
					],
					"name": "getAmountOut",
					"outputs": [
						{
							"internalType": "uint256",
							"name": "amountOut",
							"type": "uint256"
						}
					],
					"stateMutability": "pure",
					"type": "function"
				},
				{
					"inputs": [
						{
							"internalType": "address",
							"name": "user",
							"type": "address"
						}
					],
					"name": "getLiquidityShares",
					"outputs": [
						{
							"internalType": "uint256",
							"name": "shares",
							"type": "uint256"
						}
					],
					"stateMutability": "view",
					"type": "function"
				},
				{
					"inputs": [
						{
							"internalType": "address",
							"name": "_tokenA",
							"type": "address"
						},
						{
							"internalType": "address",
							"name": "_tokenB",
							"type": "address"
						}
					],
					"name": "getPrice",
					"outputs": [
						{
							"internalType": "uint256",
							"name": "price",
							"type": "uint256"
						}
					],
					"stateMutability": "view",
					"type": "function"
				},
				{
					"inputs": [],
					"name": "getReserves",
					"outputs": [
						{
							"internalType": "uint256",
							"name": "_reserveA",
							"type": "uint256"
						},
						{
							"internalType": "uint256",
							"name": "_reserveB",
							"type": "uint256"
						}
					],
					"stateMutability": "view",
					"type": "function"
				},
				{
					"inputs": [],
					"name": "getSupportedTokens",
					"outputs": [
						{
							"internalType": "address",
							"name": "_tokenA",
							"type": "address"
						},
						{
							"internalType": "address",
							"name": "_tokenB",
							"type": "address"
						}
					],
					"stateMutability": "view",
					"type": "function"
				},
				{
					"inputs": [],
					"name": "getTotalLiquidity",
					"outputs": [
						{
							"internalType": "uint256",
							"name": "total",
							"type": "uint256"
						}
					],
					"stateMutability": "view",
					"type": "function"
				},
				{
					"inputs": [],
					"name": "name",
					"outputs": [
						{
							"internalType": "string",
							"name": "",
							"type": "string"
						}
					],
					"stateMutability": "view",
					"type": "function"
				},
				{
					"inputs": [
						{
							"internalType": "address",
							"name": "_tokenA",
							"type": "address"
						},
						{
							"internalType": "address",
							"name": "_tokenB",
							"type": "address"
						},
						{
							"internalType": "uint256",
							"name": "liquidity",
							"type": "uint256"
						},
						{
							"internalType": "uint256",
							"name": "amountAMin",
							"type": "uint256"
						},
						{
							"internalType": "uint256",
							"name": "amountBMin",
							"type": "uint256"
						},
						{
							"internalType": "address",
							"name": "to",
							"type": "address"
						},
						{
							"internalType": "uint256",
							"name": "deadline",
							"type": "uint256"
						}
					],
					"name": "removeLiquidity",
					"outputs": [
						{
							"internalType": "uint256",
							"name": "amountA",
							"type": "uint256"
						},
						{
							"internalType": "uint256",
							"name": "amountB",
							"type": "uint256"
						}
					],
					"stateMutability": "nonpayable",
					"type": "function"
				},
				{
					"inputs": [],
					"name": "reserveA",
					"outputs": [
						{
							"internalType": "uint256",
							"name": "",
							"type": "uint256"
						}
					],
					"stateMutability": "view",
					"type": "function"
				},
				{
					"inputs": [],
					"name": "reserveB",
					"outputs": [
						{
							"internalType": "uint256",
							"name": "",
							"type": "uint256"
						}
					],
					"stateMutability": "view",
					"type": "function"
				},
				{
					"inputs": [
						{
							"internalType": "uint256",
							"name": "amountIn",
							"type": "uint256"
						},
						{
							"internalType": "uint256",
							"name": "amountOutMin",
							"type": "uint256"
						},
						{
							"internalType": "address[]",
							"name": "path",
							"type": "address[]"
						},
						{
							"internalType": "address",
							"name": "to",
							"type": "address"
						},
						{
							"internalType": "uint256",
							"name": "deadline",
							"type": "uint256"
						}
					],
					"name": "swapExactTokensForTokens",
					"outputs": [],
					"stateMutability": "nonpayable",
					"type": "function"
				},
				{
					"inputs": [],
					"name": "symbol",
					"outputs": [
						{
							"internalType": "string",
							"name": "",
							"type": "string"
						}
					],
					"stateMutability": "view",
					"type": "function"
				},
				{
					"inputs": [],
					"name": "tokenA",
					"outputs": [
						{
							"internalType": "address",
							"name": "",
							"type": "address"
						}
					],
					"stateMutability": "view",
					"type": "function"
				},
				{
					"inputs": [],
					"name": "tokenB",
					"outputs": [
						{
							"internalType": "address",
							"name": "",
							"type": "address"
						}
					],
					"stateMutability": "view",
					"type": "function"
				},
				{
					"inputs": [],
					"name": "totalSupply",
					"outputs": [
						{
							"internalType": "uint256",
							"name": "",
							"type": "uint256"
						}
					],
					"stateMutability": "view",
					"type": "function"
				},
				{
					"inputs": [
						{
							"internalType": "address",
							"name": "to",
							"type": "address"
						},
						{
							"internalType": "uint256",
							"name": "amount",
							"type": "uint256"
						}
					],
					"name": "transfer",
					"outputs": [
						{
							"internalType": "bool",
							"name": "",
							"type": "bool"
						}
					],
					"stateMutability": "nonpayable",
					"type": "function"
				},
				{
					"inputs": [
						{
							"internalType": "address",
							"name": "from",
							"type": "address"
						},
						{
							"internalType": "address",
							"name": "to",
							"type": "address"
						},
						{
							"internalType": "uint256",
							"name": "amount",
							"type": "uint256"
						}
					],
					"name": "transferFrom",
					"outputs": [
						{
							"internalType": "bool",
							"name": "",
							"type": "bool"
						}
					],
					"stateMutability": "nonpayable",
					"type": "function"
				}
			],
			"devdoc": {
				"kind": "dev",
				"methods": {},
				"version": 1
			},
			"evm": {
				"assembly": "    /* \"SimpleSwap.sol\":330:10472  contract SimpleSwap {... */\n  mstore(0x40, 0x80)\n    /* \"SimpleSwap.sol\":391:440  string public name = \"SimpleSwap Liquidity Token\" */\n  mload(0x40)\n  dup1\n  0x40\n  add\n  0x40\n  mstore\n  dup1\n  0x1a\n  dup2\n  mstore\n  0x20\n  add\n  0x53696d706c6553776170204c697175696469747920546f6b656e000000000000\n  dup2\n  mstore\n  pop\n  0x00\n  swap1\n  dup2\n  tag_1\n  swap2\n  swap1\n  tag_2\n  jump\t// in\ntag_1:\n  pop\n    /* \"SimpleSwap.sol\":447:476  string public symbol = \"SSLT\" */\n  mload(0x40)\n  dup1\n  0x40\n  add\n  0x40\n  mstore\n  dup1\n  0x04\n  dup2\n  mstore\n  0x20\n  add\n  0x53534c5400000000000000000000000000000000000000000000000000000000\n  dup2\n  mstore\n  pop\n  0x01\n  swap1\n  dup2\n  tag_3\n  swap2\n  swap1\n  tag_2\n  jump\t// in\ntag_3:\n  pop\n    /* \"SimpleSwap.sol\":507:509  18 */\n  0x12\n    /* \"SimpleSwap.sol\":483:509  uint8 public decimals = 18 */\n  0x02\n  exp(0x0100, 0x00)\n  dup2\n  sload\n  dup2\n  0xff\n  mul\n  not\n  and\n  swap1\n  dup4\n  0xff\n  and\n  mul\n  or\n  swap1\n  sstore\n  pop\n    /* \"SimpleSwap.sol\":1533:1910  constructor(address _tokenA, address _tokenB) {... */\n  callvalue\n  dup1\n  iszero\n  tag_4\n  jumpi\n  revert(0x00, 0x00)\ntag_4:\n  pop\n  mload(0x40)\n  sub(codesize, bytecodeSize)\n  dup1\n  bytecodeSize\n  dup4\n  codecopy\n  dup2\n  dup2\n  add\n  0x40\n  mstore\n  dup2\n  add\n  swap1\n  tag_5\n  swap2\n  swap1\n  tag_6\n  jump\t// in\ntag_5:\n    /* \"SimpleSwap.sol\":1617:1618  0 */\n  0x00\n    /* \"SimpleSwap.sol\":1598:1619  _tokenA != address(0) */\n  0xffffffffffffffffffffffffffffffffffffffff\n  and\n    /* \"SimpleSwap.sol\":1598:1605  _tokenA */\n  dup3\n    /* \"SimpleSwap.sol\":1598:1619  _tokenA != address(0) */\n  0xffffffffffffffffffffffffffffffffffffffff\n  and\n  eq\n  iszero\n    /* \"SimpleSwap.sol\":1598:1644  _tokenA != address(0) && _tokenB != address(0) */\n  dup1\n  iszero\n  tag_9\n  jumpi\n  pop\n    /* \"SimpleSwap.sol\":1642:1643  0 */\n  0x00\n    /* \"SimpleSwap.sol\":1623:1644  _tokenB != address(0) */\n  0xffffffffffffffffffffffffffffffffffffffff\n  and\n    /* \"SimpleSwap.sol\":1623:1630  _tokenB */\n  dup2\n    /* \"SimpleSwap.sol\":1623:1644  _tokenB != address(0) */\n  0xffffffffffffffffffffffffffffffffffffffff\n  and\n  eq\n  iszero\n    /* \"SimpleSwap.sol\":1598:1644  _tokenA != address(0) && _tokenB != address(0) */\ntag_9:\n    /* \"SimpleSwap.sol\":1590:1672  require(_tokenA != address(0) && _tokenB != address(0), \"Invalid token addresses\") */\n  tag_10\n  jumpi\n  mload(0x40)\n  0x08c379a000000000000000000000000000000000000000000000000000000000\n  dup2\n  mstore\n  0x04\n  add\n  tag_11\n  swap1\n  tag_12\n  jump\t// in\ntag_11:\n  mload(0x40)\n  dup1\n  swap2\n  sub\n  swap1\n  revert\ntag_10:\n    /* \"SimpleSwap.sol\":1702:1709  _tokenB */\n  dup1\n    /* \"SimpleSwap.sol\":1691:1709  _tokenA != _tokenB */\n  0xffffffffffffffffffffffffffffffffffffffff\n  and\n    /* \"SimpleSwap.sol\":1691:1698  _tokenA */\n  dup3\n    /* \"SimpleSwap.sol\":1691:1709  _tokenA != _tokenB */\n  0xffffffffffffffffffffffffffffffffffffffff\n  and\n  sub\n    /* \"SimpleSwap.sol\":1683:1730  require(_tokenA != _tokenB, \"Identical tokens\") */\n  tag_13\n  jumpi\n  mload(0x40)\n  0x08c379a000000000000000000000000000000000000000000000000000000000\n  dup2\n  mstore\n  0x04\n  add\n  tag_14\n  swap1\n  tag_15\n  jump\t// in\ntag_14:\n  mload(0x40)\n  dup1\n  swap2\n  sub\n  swap1\n  revert\ntag_13:\n    /* \"SimpleSwap.sol\":1750:1757  _tokenA */\n  dup2\n    /* \"SimpleSwap.sol\":1741:1747  tokenA */\n  0x06\n  0x00\n    /* \"SimpleSwap.sol\":1741:1757  tokenA = _tokenA */\n  0x0100\n  exp\n  dup2\n  sload\n  dup2\n  0xffffffffffffffffffffffffffffffffffffffff\n  mul\n  not\n  and\n  swap1\n  dup4\n  0xffffffffffffffffffffffffffffffffffffffff\n  and\n  mul\n  or\n  swap1\n  sstore\n  pop\n    /* \"SimpleSwap.sol\":1777:1784  _tokenB */\n  dup1\n    /* \"SimpleSwap.sol\":1768:1774  tokenB */\n  0x07\n  0x00\n    /* \"SimpleSwap.sol\":1768:1784  tokenB = _tokenB */\n  0x0100\n  exp\n  dup2\n  sload\n  dup2\n  0xffffffffffffffffffffffffffffffffffffffff\n  mul\n  not\n  and\n  swap1\n  dup4\n  0xffffffffffffffffffffffffffffffffffffffff\n  and\n  mul\n  or\n  swap1\n  sstore\n  pop\n    /* \"SimpleSwap.sol\":1863:1902  _mint(address(this), MINIMUM_LIQUIDITY) */\n  tag_16\n    /* \"SimpleSwap.sol\":1877:1881  this */\n  address\n    /* \"SimpleSwap.sol\":946:950  1000 */\n  0x03e8\n    /* \"SimpleSwap.sol\":1863:1868  _mint */\n  shl(0x20, tag_17)\n    /* \"SimpleSwap.sol\":1863:1902  _mint(address(this), MINIMUM_LIQUIDITY) */\n  0x20\n  shr\n  jump\t// in\ntag_16:\n    /* \"SimpleSwap.sol\":1533:1910  constructor(address _tokenA, address _tokenB) {... */\n  pop\n  pop\n    /* \"SimpleSwap.sol\":330:10472  contract SimpleSwap {... */\n  jump(tag_18)\n    /* \"SimpleSwap.sol\":2083:2257  function _mint(address to, uint256 amount) internal {... */\ntag_17:\n    /* \"SimpleSwap.sol\":2161:2167  amount */\n  dup1\n    /* \"SimpleSwap.sol\":2146:2157  totalSupply */\n  0x03\n  0x00\n    /* \"SimpleSwap.sol\":2146:2167  totalSupply += amount */\n  dup3\n  dup3\n  sload\n  tag_20\n  swap2\n  swap1\n  tag_21\n  jump\t// in\ntag_20:\n  swap3\n  pop\n  pop\n  dup2\n  swap1\n  sstore\n  pop\n    /* \"SimpleSwap.sol\":2195:2201  amount */\n  dup1\n    /* \"SimpleSwap.sol\":2178:2187  balanceOf */\n  0x04\n    /* \"SimpleSwap.sol\":2178:2191  balanceOf[to] */\n  0x00\n    /* \"SimpleSwap.sol\":2188:2190  to */\n  dup5\n    /* \"SimpleSwap.sol\":2178:2191  balanceOf[to] */\n  0xffffffffffffffffffffffffffffffffffffffff\n  and\n  0xffffffffffffffffffffffffffffffffffffffff\n  and\n  dup2\n  mstore\n  0x20\n  add\n  swap1\n  dup2\n  mstore\n  0x20\n  add\n  0x00\n  keccak256\n  0x00\n    /* \"SimpleSwap.sol\":2178:2201  balanceOf[to] += amount */\n  dup3\n  dup3\n  sload\n  tag_22\n  swap2\n  swap1\n  tag_21\n  jump\t// in\ntag_22:\n  swap3\n  pop\n  pop\n  dup2\n  swap1\n  sstore\n  pop\n    /* \"SimpleSwap.sol\":2238:2240  to */\n  dup2\n    /* \"SimpleSwap.sol\":2217:2249  Transfer(address(0), to, amount) */\n  0xffffffffffffffffffffffffffffffffffffffff\n  and\n    /* \"SimpleSwap.sol\":2234:2235  0 */\n  0x00\n    /* \"SimpleSwap.sol\":2217:2249  Transfer(address(0), to, amount) */\n  0xffffffffffffffffffffffffffffffffffffffff\n  and\n  0xddf252ad1be2c89b69c2b068fc378daa952ba7f163c4a11628f55a4df523b3ef\n    /* \"SimpleSwap.sol\":2242:2248  amount */\n  dup4\n    /* \"SimpleSwap.sol\":2217:2249  Transfer(address(0), to, amount) */\n  mload(0x40)\n  tag_23\n  swap2\n  swap1\n  tag_24\n  jump\t// in\ntag_23:\n  mload(0x40)\n  dup1\n  swap2\n  sub\n  swap1\n  log3\n    /* \"SimpleSwap.sol\":2083:2257  function _mint(address to, uint256 amount) internal {... */\n  pop\n  pop\n  jump\t// out\n    /* \"#utility.yul\":7:106   */\ntag_25:\n    /* \"#utility.yul\":59:65   */\n  0x00\n    /* \"#utility.yul\":93:98   */\n  dup2\n    /* \"#utility.yul\":87:99   */\n  mload\n    /* \"#utility.yul\":77:99   */\n  swap1\n  pop\n    /* \"#utility.yul\":7:106   */\n  swap2\n  swap1\n  pop\n  jump\t// out\n    /* \"#utility.yul\":112:292   */\ntag_26:\n    /* \"#utility.yul\":160:237   */\n  0x4e487b7100000000000000000000000000000000000000000000000000000000\n    /* \"#utility.yul\":157:158   */\n  0x00\n    /* \"#utility.yul\":150:238   */\n  mstore\n    /* \"#utility.yul\":257:261   */\n  0x41\n    /* \"#utility.yul\":254:255   */\n  0x04\n    /* \"#utility.yul\":247:262   */\n  mstore\n    /* \"#utility.yul\":281:285   */\n  0x24\n    /* \"#utility.yul\":278:279   */\n  0x00\n    /* \"#utility.yul\":271:286   */\n  revert\n    /* \"#utility.yul\":298:478   */\ntag_27:\n    /* \"#utility.yul\":346:423   */\n  0x4e487b7100000000000000000000000000000000000000000000000000000000\n    /* \"#utility.yul\":343:344   */\n  0x00\n    /* \"#utility.yul\":336:424   */\n  mstore\n    /* \"#utility.yul\":443:447   */\n  0x22\n    /* \"#utility.yul\":440:441   */\n  0x04\n    /* \"#utility.yul\":433:448   */\n  mstore\n    /* \"#utility.yul\":467:471   */\n  0x24\n    /* \"#utility.yul\":464:465   */\n  0x00\n    /* \"#utility.yul\":457:472   */\n  revert\n    /* \"#utility.yul\":484:804   */\ntag_28:\n    /* \"#utility.yul\":528:534   */\n  0x00\n    /* \"#utility.yul\":565:566   */\n  0x02\n    /* \"#utility.yul\":559:563   */\n  dup3\n    /* \"#utility.yul\":555:567   */\n  div\n    /* \"#utility.yul\":545:567   */\n  swap1\n  pop\n    /* \"#utility.yul\":612:613   */\n  0x01\n    /* \"#utility.yul\":606:610   */\n  dup3\n    /* \"#utility.yul\":602:614   */\n  and\n    /* \"#utility.yul\":633:651   */\n  dup1\n    /* \"#utility.yul\":623:704   */\n  tag_64\n  jumpi\n    /* \"#utility.yul\":689:693   */\n  0x7f\n    /* \"#utility.yul\":681:687   */\n  dup3\n    /* \"#utility.yul\":677:694   */\n  and\n    /* \"#utility.yul\":667:694   */\n  swap2\n  pop\n    /* \"#utility.yul\":623:704   */\ntag_64:\n    /* \"#utility.yul\":751:753   */\n  0x20\n    /* \"#utility.yul\":743:749   */\n  dup3\n    /* \"#utility.yul\":740:754   */\n  lt\n    /* \"#utility.yul\":720:738   */\n  dup2\n    /* \"#utility.yul\":717:755   */\n  sub\n    /* \"#utility.yul\":714:798   */\n  tag_65\n  jumpi\n    /* \"#utility.yul\":770:788   */\n  tag_66\n  tag_27\n  jump\t// in\ntag_66:\n    /* \"#utility.yul\":714:798   */\ntag_65:\n    /* \"#utility.yul\":535:804   */\n  pop\n    /* \"#utility.yul\":484:804   */\n  swap2\n  swap1\n  pop\n  jump\t// out\n    /* \"#utility.yul\":810:951   */\ntag_29:\n    /* \"#utility.yul\":859:863   */\n  0x00\n    /* \"#utility.yul\":882:885   */\n  dup2\n    /* \"#utility.yul\":874:885   */\n  swap1\n  pop\n    /* \"#utility.yul\":905:908   */\n  dup2\n    /* \"#utility.yul\":902:903   */\n  0x00\n    /* \"#utility.yul\":895:909   */\n  mstore\n    /* \"#utility.yul\":939:943   */\n  0x20\n    /* \"#utility.yul\":936:937   */\n  0x00\n    /* \"#utility.yul\":926:944   */\n  keccak256\n    /* \"#utility.yul\":918:944   */\n  swap1\n  pop\n    /* \"#utility.yul\":810:951   */\n  swap2\n  swap1\n  pop\n  jump\t// out\n    /* \"#utility.yul\":957:1050   */\ntag_30:\n    /* \"#utility.yul\":994:1000   */\n  0x00\n    /* \"#utility.yul\":1041:1043   */\n  0x20\n    /* \"#utility.yul\":1036:1038   */\n  0x1f\n    /* \"#utility.yul\":1029:1034   */\n  dup4\n    /* \"#utility.yul\":1025:1039   */\n  add\n    /* \"#utility.yul\":1021:1044   */\n  div\n    /* \"#utility.yul\":1011:1044   */\n  swap1\n  pop\n    /* \"#utility.yul\":957:1050   */\n  swap2\n  swap1\n  pop\n  jump\t// out\n    /* \"#utility.yul\":1056:1163   */\ntag_31:\n    /* \"#utility.yul\":1100:1108   */\n  0x00\n    /* \"#utility.yul\":1150:1155   */\n  dup3\n    /* \"#utility.yul\":1144:1148   */\n  dup3\n    /* \"#utility.yul\":1140:1156   */\n  shl\n    /* \"#utility.yul\":1119:1156   */\n  swap1\n  pop\n    /* \"#utility.yul\":1056:1163   */\n  swap3\n  swap2\n  pop\n  pop\n  jump\t// out\n    /* \"#utility.yul\":1169:1562   */\ntag_32:\n    /* \"#utility.yul\":1238:1244   */\n  0x00\n    /* \"#utility.yul\":1288:1289   */\n  0x08\n    /* \"#utility.yul\":1276:1286   */\n  dup4\n    /* \"#utility.yul\":1272:1290   */\n  mul\n    /* \"#utility.yul\":1311:1408   */\n  tag_71\n    /* \"#utility.yul\":1341:1407   */\n  0xffffffffffffffffffffffffffffffffffffffffffffffffffffffffffffffff\n    /* \"#utility.yul\":1330:1339   */\n  dup3\n    /* \"#utility.yul\":1311:1408   */\n  tag_31\n  jump\t// in\ntag_71:\n    /* \"#utility.yul\":1429:1468   */\n  tag_72\n    /* \"#utility.yul\":1459:1467   */\n  dup7\n    /* \"#utility.yul\":1448:1457   */\n  dup4\n    /* \"#utility.yul\":1429:1468   */\n  tag_31\n  jump\t// in\ntag_72:\n    /* \"#utility.yul\":1417:1468   */\n  swap6\n  pop\n    /* \"#utility.yul\":1501:1505   */\n  dup1\n    /* \"#utility.yul\":1497:1506   */\n  not\n    /* \"#utility.yul\":1490:1495   */\n  dup5\n    /* \"#utility.yul\":1486:1507   */\n  and\n    /* \"#utility.yul\":1477:1507   */\n  swap4\n  pop\n    /* \"#utility.yul\":1550:1554   */\n  dup1\n    /* \"#utility.yul\":1540:1548   */\n  dup7\n    /* \"#utility.yul\":1536:1555   */\n  and\n    /* \"#utility.yul\":1529:1534   */\n  dup5\n    /* \"#utility.yul\":1526:1556   */\n  or\n    /* \"#utility.yul\":1516:1556   */\n  swap3\n  pop\n    /* \"#utility.yul\":1245:1562   */\n  pop\n  pop\n    /* \"#utility.yul\":1169:1562   */\n  swap4\n  swap3\n  pop\n  pop\n  pop\n  jump\t// out\n    /* \"#utility.yul\":1568:1645   */\ntag_33:\n    /* \"#utility.yul\":1605:1612   */\n  0x00\n    /* \"#utility.yul\":1634:1639   */\n  dup2\n    /* \"#utility.yul\":1623:1639   */\n  swap1\n  pop\n    /* \"#utility.yul\":1568:1645   */\n  swap2\n  swap1\n  pop\n  jump\t// out\n    /* \"#utility.yul\":1651:1711   */\ntag_34:\n    /* \"#utility.yul\":1679:1682   */\n  0x00\n    /* \"#utility.yul\":1700:1705   */\n  dup2\n    /* \"#utility.yul\":1693:1705   */\n  swap1\n  pop\n    /* \"#utility.yul\":1651:1711   */\n  swap2\n  swap1\n  pop\n  jump\t// out\n    /* \"#utility.yul\":1717:1859   */\ntag_35:\n    /* \"#utility.yul\":1767:1776   */\n  0x00\n    /* \"#utility.yul\":1800:1853   */\n  tag_76\n    /* \"#utility.yul\":1818:1852   */\n  tag_77\n    /* \"#utility.yul\":1827:1851   */\n  tag_78\n    /* \"#utility.yul\":1845:1850   */\n  dup5\n    /* \"#utility.yul\":1827:1851   */\n  tag_33\n  jump\t// in\ntag_78:\n    /* \"#utility.yul\":1818:1852   */\n  tag_34\n  jump\t// in\ntag_77:\n    /* \"#utility.yul\":1800:1853   */\n  tag_33\n  jump\t// in\ntag_76:\n    /* \"#utility.yul\":1787:1853   */\n  swap1\n  pop\n    /* \"#utility.yul\":1717:1859   */\n  swap2\n  swap1\n  pop\n  jump\t// out\n    /* \"#utility.yul\":1865:1940   */\ntag_36:\n    /* \"#utility.yul\":1908:1911   */\n  0x00\n    /* \"#utility.yul\":1929:1934   */\n  dup2\n    /* \"#utility.yul\":1922:1934   */\n  swap1\n  pop\n    /* \"#utility.yul\":1865:1940   */\n  swap2\n  swap1\n  pop\n  jump\t// out\n    /* \"#utility.yul\":1946:2215   */\ntag_37:\n    /* \"#utility.yul\":2056:2095   */\n  tag_81\n    /* \"#utility.yul\":2087:2094   */\n  dup4\n    /* \"#utility.yul\":2056:2095   */\n  tag_35\n  jump\t// in\ntag_81:\n    /* \"#utility.yul\":2117:2208   */\n  tag_82\n    /* \"#utility.yul\":2166:2207   */\n  tag_83\n    /* \"#utility.yul\":2190:2206   */\n  dup3\n    /* \"#utility.yul\":2166:2207   */\n  tag_36\n  jump\t// in\ntag_83:\n    /* \"#utility.yul\":2158:2164   */\n  dup5\n    /* \"#utility.yul\":2151:2155   */\n  dup5\n    /* \"#utility.yul\":2145:2156   */\n  sload\n    /* \"#utility.yul\":2117:2208   */\n  tag_32\n  jump\t// in\ntag_82:\n    /* \"#utility.yul\":2111:2115   */\n  dup3\n    /* \"#utility.yul\":2104:2209   */\n  sstore\n    /* \"#utility.yul\":2022:2215   */\n  pop\n    /* \"#utility.yul\":1946:2215   */\n  pop\n  pop\n  pop\n  jump\t// out\n    /* \"#utility.yul\":2221:2294   */\ntag_38:\n    /* \"#utility.yul\":2266:2269   */\n  0x00\n    /* \"#utility.yul\":2287:2288   */\n  0x00\n    /* \"#utility.yul\":2280:2288   */\n  swap1\n  pop\n    /* \"#utility.yul\":2221:2294   */\n  swap1\n  jump\t// out\n    /* \"#utility.yul\":2300:2489   */\ntag_39:\n    /* \"#utility.yul\":2377:2409   */\n  tag_86\n  tag_38\n  jump\t// in\ntag_86:\n    /* \"#utility.yul\":2418:2483   */\n  tag_87\n    /* \"#utility.yul\":2476:2482   */\n  dup2\n    /* \"#utility.yul\":2468:2474   */\n  dup5\n    /* \"#utility.yul\":2462:2466   */\n  dup5\n    /* \"#utility.yul\":2418:2483   */\n  tag_37\n  jump\t// in\ntag_87:\n    /* \"#utility.yul\":2353:2489   */\n  pop\n    /* \"#utility.yul\":2300:2489   */\n  pop\n  pop\n  jump\t// out\n    /* \"#utility.yul\":2495:2681   */\ntag_40:\n    /* \"#utility.yul\":2555:2675   */\ntag_89:\n    /* \"#utility.yul\":2572:2575   */\n  dup2\n    /* \"#utility.yul\":2565:2570   */\n  dup2\n    /* \"#utility.yul\":2562:2576   */\n  lt\n    /* \"#utility.yul\":2555:2675   */\n  iszero\n  tag_91\n  jumpi\n    /* \"#utility.yul\":2626:2665   */\n  tag_92\n    /* \"#utility.yul\":2663:2664   */\n  0x00\n    /* \"#utility.yul\":2656:2661   */\n  dup3\n    /* \"#utility.yul\":2626:2665   */\n  tag_39\n  jump\t// in\ntag_92:\n    /* \"#utility.yul\":2599:2600   */\n  0x01\n    /* \"#utility.yul\":2592:2597   */\n  dup2\n    /* \"#utility.yul\":2588:2601   */\n  add\n    /* \"#utility.yul\":2579:2601   */\n  swap1\n  pop\n    /* \"#utility.yul\":2555:2675   */\n  jump(tag_89)\ntag_91:\n    /* \"#utility.yul\":2495:2681   */\n  pop\n  pop\n  jump\t// out\n    /* \"#utility.yul\":2687:3230   */\ntag_41:\n    /* \"#utility.yul\":2788:2790   */\n  0x1f\n    /* \"#utility.yul\":2783:2786   */\n  dup3\n    /* \"#utility.yul\":2780:2791   */\n  gt\n    /* \"#utility.yul\":2777:3223   */\n  iszero\n  tag_94\n  jumpi\n    /* \"#utility.yul\":2822:2860   */\n  tag_95\n    /* \"#utility.yul\":2854:2859   */\n  dup2\n    /* \"#utility.yul\":2822:2860   */\n  tag_29\n  jump\t// in\ntag_95:\n    /* \"#utility.yul\":2906:2935   */\n  tag_96\n    /* \"#utility.yul\":2924:2934   */\n  dup5\n    /* \"#utility.yul\":2906:2935   */\n  tag_30\n  jump\t// in\ntag_96:\n    /* \"#utility.yul\":2896:2904   */\n  dup2\n    /* \"#utility.yul\":2892:2936   */\n  add\n    /* \"#utility.yul\":3089:3091   */\n  0x20\n    /* \"#utility.yul\":3077:3087   */\n  dup6\n    /* \"#utility.yul\":3074:3092   */\n  lt\n    /* \"#utility.yul\":3071:3120   */\n  iszero\n  tag_97\n  jumpi\n    /* \"#utility.yul\":3110:3118   */\n  dup2\n    /* \"#utility.yul\":3095:3118   */\n  swap1\n  pop\n    /* \"#utility.yul\":3071:3120   */\ntag_97:\n    /* \"#utility.yul\":3133:3213   */\n  tag_98\n    /* \"#utility.yul\":3189:3211   */\n  tag_99\n    /* \"#utility.yul\":3207:3210   */\n  dup6\n    /* \"#utility.yul\":3189:3211   */\n  tag_30\n  jump\t// in\ntag_99:\n    /* \"#utility.yul\":3179:3187   */\n  dup4\n    /* \"#utility.yul\":3175:3212   */\n  add\n    /* \"#utility.yul\":3162:3173   */\n  dup3\n    /* \"#utility.yul\":3133:3213   */\n  tag_40\n  jump\t// in\ntag_98:\n    /* \"#utility.yul\":2792:3223   */\n  pop\n  pop\n    /* \"#utility.yul\":2777:3223   */\ntag_94:\n    /* \"#utility.yul\":2687:3230   */\n  pop\n  pop\n  pop\n  jump\t// out\n    /* \"#utility.yul\":3236:3353   */\ntag_42:\n    /* \"#utility.yul\":3290:3298   */\n  0x00\n    /* \"#utility.yul\":3340:3345   */\n  dup3\n    /* \"#utility.yul\":3334:3338   */\n  dup3\n    /* \"#utility.yul\":3330:3346   */\n  shr\n    /* \"#utility.yul\":3309:3346   */\n  swap1\n  pop\n    /* \"#utility.yul\":3236:3353   */\n  swap3\n  swap2\n  pop\n  pop\n  jump\t// out\n    /* \"#utility.yul\":3359:3528   */\ntag_43:\n    /* \"#utility.yul\":3403:3409   */\n  0x00\n    /* \"#utility.yul\":3436:3487   */\n  tag_102\n    /* \"#utility.yul\":3484:3485   */\n  0x00\n    /* \"#utility.yul\":3480:3486   */\n  not\n    /* \"#utility.yul\":3472:3477   */\n  dup5\n    /* \"#utility.yul\":3469:3470   */\n  0x08\n    /* \"#utility.yul\":3465:3478   */\n  mul\n    /* \"#utility.yul\":3436:3487   */\n  tag_42\n  jump\t// in\ntag_102:\n    /* \"#utility.yul\":3432:3488   */\n  not\n    /* \"#utility.yul\":3517:3521   */\n  dup1\n    /* \"#utility.yul\":3511:3515   */\n  dup4\n    /* \"#utility.yul\":3507:3522   */\n  and\n    /* \"#utility.yul\":3497:3522   */\n  swap2\n  pop\n    /* \"#utility.yul\":3410:3528   */\n  pop\n    /* \"#utility.yul\":3359:3528   */\n  swap3\n  swap2\n  pop\n  pop\n  jump\t// out\n    /* \"#utility.yul\":3533:3828   */\ntag_44:\n    /* \"#utility.yul\":3609:3613   */\n  0x00\n    /* \"#utility.yul\":3755:3784   */\n  tag_104\n    /* \"#utility.yul\":3780:3783   */\n  dup4\n    /* \"#utility.yul\":3774:3778   */\n  dup4\n    /* \"#utility.yul\":3755:3784   */\n  tag_43\n  jump\t// in\ntag_104:\n    /* \"#utility.yul\":3747:3784   */\n  swap2\n  pop\n    /* \"#utility.yul\":3817:3820   */\n  dup3\n    /* \"#utility.yul\":3814:3815   */\n  0x02\n    /* \"#utility.yul\":3810:3821   */\n  mul\n    /* \"#utility.yul\":3804:3808   */\n  dup3\n    /* \"#utility.yul\":3801:3822   */\n  or\n    /* \"#utility.yul\":3793:3822   */\n  swap1\n  pop\n    /* \"#utility.yul\":3533:3828   */\n  swap3\n  swap2\n  pop\n  pop\n  jump\t// out\n    /* \"#utility.yul\":3833:5228   */\ntag_2:\n    /* \"#utility.yul\":3950:3987   */\n  tag_106\n    /* \"#utility.yul\":3983:3986   */\n  dup3\n    /* \"#utility.yul\":3950:3987   */\n  tag_25\n  jump\t// in\ntag_106:\n    /* \"#utility.yul\":4052:4070   */\n  0xffffffffffffffff\n    /* \"#utility.yul\":4044:4050   */\n  dup2\n    /* \"#utility.yul\":4041:4071   */\n  gt\n    /* \"#utility.yul\":4038:4094   */\n  iszero\n  tag_107\n  jumpi\n    /* \"#utility.yul\":4074:4092   */\n  tag_108\n  tag_26\n  jump\t// in\ntag_108:\n    /* \"#utility.yul\":4038:4094   */\ntag_107:\n    /* \"#utility.yul\":4118:4156   */\n  tag_109\n    /* \"#utility.yul\":4150:4154   */\n  dup3\n    /* \"#utility.yul\":4144:4155   */\n  sload\n    /* \"#utility.yul\":4118:4156   */\n  tag_28\n  jump\t// in\ntag_109:\n    /* \"#utility.yul\":4203:4270   */\n  tag_110\n    /* \"#utility.yul\":4263:4269   */\n  dup3\n    /* \"#utility.yul\":4255:4261   */\n  dup3\n    /* \"#utility.yul\":4249:4253   */\n  dup6\n    /* \"#utility.yul\":4203:4270   */\n  tag_41\n  jump\t// in\ntag_110:\n    /* \"#utility.yul\":4297:4298   */\n  0x00\n    /* \"#utility.yul\":4321:4325   */\n  0x20\n    /* \"#utility.yul\":4308:4325   */\n  swap1\n  pop\n    /* \"#utility.yul\":4353:4355   */\n  0x1f\n    /* \"#utility.yul\":4345:4351   */\n  dup4\n    /* \"#utility.yul\":4342:4356   */\n  gt\n    /* \"#utility.yul\":4370:4371   */\n  0x01\n    /* \"#utility.yul\":4365:4983   */\n  dup2\n  eq\n  tag_112\n  jumpi\n    /* \"#utility.yul\":5027:5028   */\n  0x00\n    /* \"#utility.yul\":5044:5050   */\n  dup5\n    /* \"#utility.yul\":5041:5118   */\n  iszero\n  tag_113\n  jumpi\n    /* \"#utility.yul\":5093:5102   */\n  dup3\n    /* \"#utility.yul\":5088:5091   */\n  dup8\n    /* \"#utility.yul\":5084:5103   */\n  add\n    /* \"#utility.yul\":5078:5104   */\n  mload\n    /* \"#utility.yul\":5069:5104   */\n  swap1\n  pop\n    /* \"#utility.yul\":5041:5118   */\ntag_113:\n    /* \"#utility.yul\":5144:5211   */\n  tag_114\n    /* \"#utility.yul\":5204:5210   */\n  dup6\n    /* \"#utility.yul\":5197:5202   */\n  dup3\n    /* \"#utility.yul\":5144:5211   */\n  tag_44\n  jump\t// in\ntag_114:\n    /* \"#utility.yul\":5138:5142   */\n  dup7\n    /* \"#utility.yul\":5131:5212   */\n  sstore\n    /* \"#utility.yul\":5000:5222   */\n  pop\n    /* \"#utility.yul\":4335:5222   */\n  jump(tag_111)\n    /* \"#utility.yul\":4365:4983   */\ntag_112:\n    /* \"#utility.yul\":4417:4421   */\n  0x1f\n    /* \"#utility.yul\":4413:4422   */\n  not\n    /* \"#utility.yul\":4405:4411   */\n  dup5\n    /* \"#utility.yul\":4401:4423   */\n  and\n    /* \"#utility.yul\":4451:4488   */\n  tag_115\n    /* \"#utility.yul\":4483:4487   */\n  dup7\n    /* \"#utility.yul\":4451:4488   */\n  tag_29\n  jump\t// in\ntag_115:\n    /* \"#utility.yul\":4510:4511   */\n  0x00\n    /* \"#utility.yul\":4524:4732   */\ntag_116:\n    /* \"#utility.yul\":4538:4545   */\n  dup3\n    /* \"#utility.yul\":4535:4536   */\n  dup2\n    /* \"#utility.yul\":4532:4546   */\n  lt\n    /* \"#utility.yul\":4524:4732   */\n  iszero\n  tag_118\n  jumpi\n    /* \"#utility.yul\":4617:4626   */\n  dup5\n    /* \"#utility.yul\":4612:4615   */\n  dup10\n    /* \"#utility.yul\":4608:4627   */\n  add\n    /* \"#utility.yul\":4602:4628   */\n  mload\n    /* \"#utility.yul\":4594:4600   */\n  dup3\n    /* \"#utility.yul\":4587:4629   */\n  sstore\n    /* \"#utility.yul\":4668:4669   */\n  0x01\n    /* \"#utility.yul\":4660:4666   */\n  dup3\n    /* \"#utility.yul\":4656:4670   */\n  add\n    /* \"#utility.yul\":4646:4670   */\n  swap2\n  pop\n    /* \"#utility.yul\":4715:4717   */\n  0x20\n    /* \"#utility.yul\":4704:4713   */\n  dup6\n    /* \"#utility.yul\":4700:4718   */\n  add\n    /* \"#utility.yul\":4687:4718   */\n  swap5\n  pop\n    /* \"#utility.yul\":4561:4565   */\n  0x20\n    /* \"#utility.yul\":4558:4559   */\n  dup2\n    /* \"#utility.yul\":4554:4566   */\n  add\n    /* \"#utility.yul\":4549:4566   */\n  swap1\n  pop\n    /* \"#utility.yul\":4524:4732   */\n  jump(tag_116)\ntag_118:\n    /* \"#utility.yul\":4760:4766   */\n  dup7\n    /* \"#utility.yul\":4751:4758   */\n  dup4\n    /* \"#utility.yul\":4748:4767   */\n  lt\n    /* \"#utility.yul\":4745:4924   */\n  iszero\n  tag_119\n  jumpi\n    /* \"#utility.yul\":4818:4827   */\n  dup5\n    /* \"#utility.yul\":4813:4816   */\n  dup10\n    /* \"#utility.yul\":4809:4828   */\n  add\n    /* \"#utility.yul\":4803:4829   */\n  mload\n    /* \"#utility.yul\":4861:4909   */\n  tag_120\n    /* \"#utility.yul\":4903:4907   */\n  0x1f\n    /* \"#utility.yul\":4895:4901   */\n  dup10\n    /* \"#utility.yul\":4891:4908   */\n  and\n    /* \"#utility.yul\":4880:4889   */\n  dup3\n    /* \"#utility.yul\":4861:4909   */\n  tag_43\n  jump\t// in\ntag_120:\n    /* \"#utility.yul\":4853:4859   */\n  dup4\n    /* \"#utility.yul\":4846:4910   */\n  sstore\n    /* \"#utility.yul\":4768:4924   */\n  pop\n    /* \"#utility.yul\":4745:4924   */\ntag_119:\n    /* \"#utility.yul\":4970:4971   */\n  0x01\n    /* \"#utility.yul\":4966:4967   */\n  0x02\n    /* \"#utility.yul\":4958:4964   */\n  dup9\n    /* \"#utility.yul\":4954:4968   */\n  mul\n    /* \"#utility.yul\":4950:4972   */\n  add\n    /* \"#utility.yul\":4944:4948   */\n  dup9\n    /* \"#utility.yul\":4937:4973   */\n  sstore\n    /* \"#utility.yul\":4372:4983   */\n  pop\n  pop\n  pop\n    /* \"#utility.yul\":4335:5222   */\ntag_111:\n  pop\n    /* \"#utility.yul\":3925:5228   */\n  pop\n  pop\n  pop\n    /* \"#utility.yul\":3833:5228   */\n  pop\n  pop\n  jump\t// out\n    /* \"#utility.yul\":5315:5432   */\ntag_46:\n    /* \"#utility.yul\":5424:5425   */\n  0x00\n    /* \"#utility.yul\":5421:5422   */\n  0x00\n    /* \"#utility.yul\":5414:5426   */\n  revert\n    /* \"#utility.yul\":5561:5687   */\ntag_48:\n    /* \"#utility.yul\":5598:5605   */\n  0x00\n    /* \"#utility.yul\":5638:5680   */\n  0xffffffffffffffffffffffffffffffffffffffff\n    /* \"#utility.yul\":5631:5636   */\n  dup3\n    /* \"#utility.yul\":5627:5681   */\n  and\n    /* \"#utility.yul\":5616:5681   */\n  swap1\n  pop\n    /* \"#utility.yul\":5561:5687   */\n  swap2\n  swap1\n  pop\n  jump\t// out\n    /* \"#utility.yul\":5693:5789   */\ntag_49:\n    /* \"#utility.yul\":5730:5737   */\n  0x00\n    /* \"#utility.yul\":5759:5783   */\n  tag_126\n    /* \"#utility.yul\":5777:5782   */\n  dup3\n    /* \"#utility.yul\":5759:5783   */\n  tag_48\n  jump\t// in\ntag_126:\n    /* \"#utility.yul\":5748:5783   */\n  swap1\n  pop\n    /* \"#utility.yul\":5693:5789   */\n  swap2\n  swap1\n  pop\n  jump\t// out\n    /* \"#utility.yul\":5795:5917   */\ntag_50:\n    /* \"#utility.yul\":5868:5892   */\n  tag_128\n    /* \"#utility.yul\":5886:5891   */\n  dup2\n    /* \"#utility.yul\":5868:5892   */\n  tag_49\n  jump\t// in\ntag_128:\n    /* \"#utility.yul\":5861:5866   */\n  dup2\n    /* \"#utility.yul\":5858:5893   */\n  eq\n    /* \"#utility.yul\":5848:5911   */\n  tag_129\n  jumpi\n    /* \"#utility.yul\":5907:5908   */\n  0x00\n    /* \"#utility.yul\":5904:5905   */\n  0x00\n    /* \"#utility.yul\":5897:5909   */\n  revert\n    /* \"#utility.yul\":5848:5911   */\ntag_129:\n    /* \"#utility.yul\":5795:5917   */\n  pop\n  jump\t// out\n    /* \"#utility.yul\":5923:6066   */\ntag_51:\n    /* \"#utility.yul\":5980:5985   */\n  0x00\n    /* \"#utility.yul\":6011:6017   */\n  dup2\n    /* \"#utility.yul\":6005:6018   */\n  mload\n    /* \"#utility.yul\":5996:6018   */\n  swap1\n  pop\n    /* \"#utility.yul\":6027:6060   */\n  tag_131\n    /* \"#utility.yul\":6054:6059   */\n  dup2\n    /* \"#utility.yul\":6027:6060   */\n  tag_50\n  jump\t// in\ntag_131:\n    /* \"#utility.yul\":5923:6066   */\n  swap3\n  swap2\n  pop\n  pop\n  jump\t// out\n    /* \"#utility.yul\":6072:6579   */\ntag_6:\n    /* \"#utility.yul\":6151:6157   */\n  0x00\n    /* \"#utility.yul\":6159:6165   */\n  0x00\n    /* \"#utility.yul\":6208:6210   */\n  0x40\n    /* \"#utility.yul\":6196:6205   */\n  dup4\n    /* \"#utility.yul\":6187:6194   */\n  dup6\n    /* \"#utility.yul\":6183:6206   */\n  sub\n    /* \"#utility.yul\":6179:6211   */\n  slt\n    /* \"#utility.yul\":6176:6295   */\n  iszero\n  tag_133\n  jumpi\n    /* \"#utility.yul\":6214:6293   */\n  tag_134\n  tag_46\n  jump\t// in\ntag_134:\n    /* \"#utility.yul\":6176:6295   */\ntag_133:\n    /* \"#utility.yul\":6334:6335   */\n  0x00\n    /* \"#utility.yul\":6359:6423   */\n  tag_135\n    /* \"#utility.yul\":6415:6422   */\n  dup6\n    /* \"#utility.yul\":6406:6412   */\n  dup3\n    /* \"#utility.yul\":6395:6404   */\n  dup7\n    /* \"#utility.yul\":6391:6413   */\n  add\n    /* \"#utility.yul\":6359:6423   */\n  tag_51\n  jump\t// in\ntag_135:\n    /* \"#utility.yul\":6349:6423   */\n  swap3\n  pop\n    /* \"#utility.yul\":6305:6433   */\n  pop\n    /* \"#utility.yul\":6472:6474   */\n  0x20\n    /* \"#utility.yul\":6498:6562   */\n  tag_136\n    /* \"#utility.yul\":6554:6561   */\n  dup6\n    /* \"#utility.yul\":6545:6551   */\n  dup3\n    /* \"#utility.yul\":6534:6543   */\n  dup7\n    /* \"#utility.yul\":6530:6552   */\n  add\n    /* \"#utility.yul\":6498:6562   */\n  tag_51\n  jump\t// in\ntag_136:\n    /* \"#utility.yul\":6488:6562   */\n  swap2\n  pop\n    /* \"#utility.yul\":6443:6572   */\n  pop\n    /* \"#utility.yul\":6072:6579   */\n  swap3\n  pop\n  swap3\n  swap1\n  pop\n  jump\t// out\n    /* \"#utility.yul\":6585:6754   */\ntag_52:\n    /* \"#utility.yul\":6669:6680   */\n  0x00\n    /* \"#utility.yul\":6703:6709   */\n  dup3\n    /* \"#utility.yul\":6698:6701   */\n  dup3\n    /* \"#utility.yul\":6691:6710   */\n  mstore\n    /* \"#utility.yul\":6743:6747   */\n  0x20\n    /* \"#utility.yul\":6738:6741   */\n  dup3\n    /* \"#utility.yul\":6734:6748   */\n  add\n    /* \"#utility.yul\":6719:6748   */\n  swap1\n  pop\n    /* \"#utility.yul\":6585:6754   */\n  swap3\n  swap2\n  pop\n  pop\n  jump\t// out\n    /* \"#utility.yul\":6760:6933   */\ntag_53:\n    /* \"#utility.yul\":6900:6925   */\n  0x496e76616c696420746f6b656e20616464726573736573000000000000000000\n    /* \"#utility.yul\":6896:6897   */\n  0x00\n    /* \"#utility.yul\":6888:6894   */\n  dup3\n    /* \"#utility.yul\":6884:6898   */\n  add\n    /* \"#utility.yul\":6877:6926   */\n  mstore\n    /* \"#utility.yul\":6760:6933   */\n  pop\n  jump\t// out\n    /* \"#utility.yul\":6939:7305   */\ntag_54:\n    /* \"#utility.yul\":7081:7084   */\n  0x00\n    /* \"#utility.yul\":7102:7169   */\n  tag_140\n    /* \"#utility.yul\":7166:7168   */\n  0x17\n    /* \"#utility.yul\":7161:7164   */\n  dup4\n    /* \"#utility.yul\":7102:7169   */\n  tag_52\n  jump\t// in\ntag_140:\n    /* \"#utility.yul\":7095:7169   */\n  swap2\n  pop\n    /* \"#utility.yul\":7178:7271   */\n  tag_141\n    /* \"#utility.yul\":7267:7270   */\n  dup3\n    /* \"#utility.yul\":7178:7271   */\n  tag_53\n  jump\t// in\ntag_141:\n    /* \"#utility.yul\":7296:7298   */\n  0x20\n    /* \"#utility.yul\":7291:7294   */\n  dup3\n    /* \"#utility.yul\":7287:7299   */\n  add\n    /* \"#utility.yul\":7280:7299   */\n  swap1\n  pop\n    /* \"#utility.yul\":6939:7305   */\n  swap2\n  swap1\n  pop\n  jump\t// out\n    /* \"#utility.yul\":7311:7730   */\ntag_12:\n    /* \"#utility.yul\":7477:7481   */\n  0x00\n    /* \"#utility.yul\":7515:7517   */\n  0x20\n    /* \"#utility.yul\":7504:7513   */\n  dup3\n    /* \"#utility.yul\":7500:7518   */\n  add\n    /* \"#utility.yul\":7492:7518   */\n  swap1\n  pop\n    /* \"#utility.yul\":7564:7573   */\n  dup2\n    /* \"#utility.yul\":7558:7562   */\n  dup2\n    /* \"#utility.yul\":7554:7574   */\n  sub\n    /* \"#utility.yul\":7550:7551   */\n  0x00\n    /* \"#utility.yul\":7539:7548   */\n  dup4\n    /* \"#utility.yul\":7535:7552   */\n  add\n    /* \"#utility.yul\":7528:7575   */\n  mstore\n    /* \"#utility.yul\":7592:7723   */\n  tag_143\n    /* \"#utility.yul\":7718:7722   */\n  dup2\n    /* \"#utility.yul\":7592:7723   */\n  tag_54\n  jump\t// in\ntag_143:\n    /* \"#utility.yul\":7584:7723   */\n  swap1\n  pop\n    /* \"#utility.yul\":7311:7730   */\n  swap2\n  swap1\n  pop\n  jump\t// out\n    /* \"#utility.yul\":7736:7902   */\ntag_55:\n    /* \"#utility.yul\":7876:7894   */\n  0x4964656e746963616c20746f6b656e7300000000000000000000000000000000\n    /* \"#utility.yul\":7872:7873   */\n  0x00\n    /* \"#utility.yul\":7864:7870   */\n  dup3\n    /* \"#utility.yul\":7860:7874   */\n  add\n    /* \"#utility.yul\":7853:7895   */\n  mstore\n    /* \"#utility.yul\":7736:7902   */\n  pop\n  jump\t// out\n    /* \"#utility.yul\":7908:8274   */\ntag_56:\n    /* \"#utility.yul\":8050:8053   */\n  0x00\n    /* \"#utility.yul\":8071:8138   */\n  tag_146\n    /* \"#utility.yul\":8135:8137   */\n  0x10\n    /* \"#utility.yul\":8130:8133   */\n  dup4\n    /* \"#utility.yul\":8071:8138   */\n  tag_52\n  jump\t// in\ntag_146:\n    /* \"#utility.yul\":8064:8138   */\n  swap2\n  pop\n    /* \"#utility.yul\":8147:8240   */\n  tag_147\n    /* \"#utility.yul\":8236:8239   */\n  dup3\n    /* \"#utility.yul\":8147:8240   */\n  tag_55\n  jump\t// in\ntag_147:\n    /* \"#utility.yul\":8265:8267   */\n  0x20\n    /* \"#utility.yul\":8260:8263   */\n  dup3\n    /* \"#utility.yul\":8256:8268   */\n  add\n    /* \"#utility.yul\":8249:8268   */\n  swap1\n  pop\n    /* \"#utility.yul\":7908:8274   */\n  swap2\n  swap1\n  pop\n  jump\t// out\n    /* \"#utility.yul\":8280:8699   */\ntag_15:\n    /* \"#utility.yul\":8446:8450   */\n  0x00\n    /* \"#utility.yul\":8484:8486   */\n  0x20\n    /* \"#utility.yul\":8473:8482   */\n  dup3\n    /* \"#utility.yul\":8469:8487   */\n  add\n    /* \"#utility.yul\":8461:8487   */\n  swap1\n  pop\n    /* \"#utility.yul\":8533:8542   */\n  dup2\n    /* \"#utility.yul\":8527:8531   */\n  dup2\n    /* \"#utility.yul\":8523:8543   */\n  sub\n    /* \"#utility.yul\":8519:8520   */\n  0x00\n    /* \"#utility.yul\":8508:8517   */\n  dup4\n    /* \"#utility.yul\":8504:8521   */\n  add\n    /* \"#utility.yul\":8497:8544   */\n  mstore\n    /* \"#utility.yul\":8561:8692   */\n  tag_149\n    /* \"#utility.yul\":8687:8691   */\n  dup2\n    /* \"#utility.yul\":8561:8692   */\n  tag_56\n  jump\t// in\ntag_149:\n    /* \"#utility.yul\":8553:8692   */\n  swap1\n  pop\n    /* \"#utility.yul\":8280:8699   */\n  swap2\n  swap1\n  pop\n  jump\t// out\n    /* \"#utility.yul\":8705:8885   */\ntag_57:\n    /* \"#utility.yul\":8753:8830   */\n  0x4e487b7100000000000000000000000000000000000000000000000000000000\n    /* \"#utility.yul\":8750:8751   */\n  0x00\n    /* \"#utility.yul\":8743:8831   */\n  mstore\n    /* \"#utility.yul\":8850:8854   */\n  0x11\n    /* \"#utility.yul\":8847:8848   */\n  0x04\n    /* \"#utility.yul\":8840:8855   */\n  mstore\n    /* \"#utility.yul\":8874:8878   */\n  0x24\n    /* \"#utility.yul\":8871:8872   */\n  0x00\n    /* \"#utility.yul\":8864:8879   */\n  revert\n    /* \"#utility.yul\":8891:9082   */\ntag_21:\n    /* \"#utility.yul\":8931:8934   */\n  0x00\n    /* \"#utility.yul\":8950:8970   */\n  tag_152\n    /* \"#utility.yul\":8968:8969   */\n  dup3\n    /* \"#utility.yul\":8950:8970   */\n  tag_33\n  jump\t// in\ntag_152:\n    /* \"#utility.yul\":8945:8970   */\n  swap2\n  pop\n    /* \"#utility.yul\":8984:9004   */\n  tag_153\n    /* \"#utility.yul\":9002:9003   */\n  dup4\n    /* \"#utility.yul\":8984:9004   */\n  tag_33\n  jump\t// in\ntag_153:\n    /* \"#utility.yul\":8979:9004   */\n  swap3\n  pop\n    /* \"#utility.yul\":9027:9028   */\n  dup3\n    /* \"#utility.yul\":9024:9025   */\n  dup3\n    /* \"#utility.yul\":9020:9029   */\n  add\n    /* \"#utility.yul\":9013:9029   */\n  swap1\n  pop\n    /* \"#utility.yul\":9048:9051   */\n  dup1\n    /* \"#utility.yul\":9045:9046   */\n  dup3\n    /* \"#utility.yul\":9042:9052   */\n  gt\n    /* \"#utility.yul\":9039:9075   */\n  iszero\n  tag_154\n  jumpi\n    /* \"#utility.yul\":9055:9073   */\n  tag_155\n  tag_57\n  jump\t// in\ntag_155:\n    /* \"#utility.yul\":9039:9075   */\ntag_154:\n    /* \"#utility.yul\":8891:9082   */\n  swap3\n  swap2\n  pop\n  pop\n  jump\t// out\n    /* \"#utility.yul\":9088:9206   */\ntag_58:\n    /* \"#utility.yul\":9175:9199   */\n  tag_157\n    /* \"#utility.yul\":9193:9198   */\n  dup2\n    /* \"#utility.yul\":9175:9199   */\n  tag_33\n  jump\t// in\ntag_157:\n    /* \"#utility.yul\":9170:9173   */\n  dup3\n    /* \"#utility.yul\":9163:9200   */\n  mstore\n    /* \"#utility.yul\":9088:9206   */\n  pop\n  pop\n  jump\t// out\n    /* \"#utility.yul\":9212:9434   */\ntag_24:\n    /* \"#utility.yul\":9305:9309   */\n  0x00\n    /* \"#utility.yul\":9343:9345   */\n  0x20\n    /* \"#utility.yul\":9332:9341   */\n  dup3\n    /* \"#utility.yul\":9328:9346   */\n  add\n    /* \"#utility.yul\":9320:9346   */\n  swap1\n  pop\n    /* \"#utility.yul\":9356:9427   */\n  tag_159\n    /* \"#utility.yul\":9424:9425   */\n  0x00\n    /* \"#utility.yul\":9413:9422   */\n  dup4\n    /* \"#utility.yul\":9409:9426   */\n  add\n    /* \"#utility.yul\":9400:9406   */\n  dup5\n    /* \"#utility.yul\":9356:9427   */\n  tag_58\n  jump\t// in\ntag_159:\n    /* \"#utility.yul\":9212:9434   */\n  swap3\n  swap2\n  pop\n  pop\n  jump\t// out\n    /* \"SimpleSwap.sol\":330:10472  contract SimpleSwap {... */\ntag_18:\n  dataSize(sub_0)\n  dup1\n  dataOffset(sub_0)\n  0x00\n  codecopy\n  0x00\n  return\nstop\n\nsub_0: assembly {\n        /* \"SimpleSwap.sol\":330:10472  contract SimpleSwap {... */\n      mstore(0x40, 0x80)\n      callvalue\n      dup1\n      iszero\n      tag_1\n      jumpi\n      revert(0x00, 0x00)\n    tag_1:\n      pop\n      jumpi(tag_2, lt(calldatasize, 0x04))\n      shr(0xe0, calldataload(0x00))\n      dup1\n      0x5f64b55b\n      gt\n      tag_25\n      jumpi\n      dup1\n      0xbaa2abde\n      gt\n      tag_26\n      jumpi\n      dup1\n      0xbaa2abde\n      eq\n      tag_19\n      jumpi\n      dup1\n      0xc8c0526e\n      eq\n      tag_20\n      jumpi\n      dup1\n      0xd3c7c2c7\n      eq\n      tag_21\n      jumpi\n      dup1\n      0xdc5fa6c5\n      eq\n      tag_22\n      jumpi\n      dup1\n      0xdd62ed3e\n      eq\n      tag_23\n      jumpi\n      dup1\n      0xe8e33700\n      eq\n      tag_24\n      jumpi\n      jump(tag_2)\n    tag_26:\n      dup1\n      0x5f64b55b\n      eq\n      tag_14\n      jumpi\n      dup1\n      0x70a08231\n      eq\n      tag_15\n      jumpi\n      dup1\n      0x95d89b41\n      eq\n      tag_16\n      jumpi\n      dup1\n      0xa9059cbb\n      eq\n      tag_17\n      jumpi\n      dup1\n      0xac41865a\n      eq\n      tag_18\n      jumpi\n      jump(tag_2)\n    tag_25:\n      dup1\n      0x18160ddd\n      gt\n      tag_27\n      jumpi\n      dup1\n      0x18160ddd\n      eq\n      tag_8\n      jumpi\n      dup1\n      0x19e36f3b\n      eq\n      tag_9\n      jumpi\n      dup1\n      0x23b872dd\n      eq\n      tag_10\n      jumpi\n      dup1\n      0x313ce567\n      eq\n      tag_11\n      jumpi\n      dup1\n      0x35c7e925\n      eq\n      tag_12\n      jumpi\n      dup1\n      0x38ed1739\n      eq\n      tag_13\n      jumpi\n      jump(tag_2)\n    tag_27:\n      dup1\n      0x054d50d4\n      eq\n      tag_3\n      jumpi\n      dup1\n      0x06fdde03\n      eq\n      tag_4\n      jumpi\n      dup1\n      0x0902f1ac\n      eq\n      tag_5\n      jumpi\n      dup1\n      0x095ea7b3\n      eq\n      tag_6\n      jumpi\n      dup1\n      0x0fc63d10\n      eq\n      tag_7\n      jumpi\n    tag_2:\n      revert(0x00, 0x00)\n        /* \"SimpleSwap.sol\":8885:9322  function getAmountOut(uint256 amountIn, uint256 reserveIn, uint256 reserveOut) ... */\n    tag_3:\n      tag_28\n      0x04\n      dup1\n      calldatasize\n      sub\n      dup2\n      add\n      swap1\n      tag_29\n      swap2\n      swap1\n      tag_30\n      jump\t// in\n    tag_29:\n      tag_31\n      jump\t// in\n    tag_28:\n      mload(0x40)\n      tag_32\n      swap2\n      swap1\n      tag_33\n      jump\t// in\n    tag_32:\n      mload(0x40)\n      dup1\n      swap2\n      sub\n      swap1\n      return\n        /* \"SimpleSwap.sol\":391:440  string public name = \"SimpleSwap Liquidity Token\" */\n    tag_4:\n      tag_34\n      tag_35\n      jump\t// in\n    tag_34:\n      mload(0x40)\n      tag_36\n      swap2\n      swap1\n      tag_37\n      jump\t// in\n    tag_36:\n      mload(0x40)\n      dup1\n      swap2\n      sub\n      swap1\n      return\n        /* \"SimpleSwap.sol\":9916:10070  function getReserves() external view returns (uint256 _reserveA, uint256 _reserveB) {... */\n    tag_5:\n      tag_38\n      tag_39\n      jump\t// in\n    tag_38:\n      mload(0x40)\n      tag_40\n      swap3\n      swap2\n      swap1\n      tag_41\n      jump\t// in\n    tag_40:\n      mload(0x40)\n      dup1\n      swap2\n      sub\n      swap1\n      return\n        /* \"SimpleSwap.sol\":2555:2762  function approve(address spender, uint256 amount) external returns (bool) {... */\n    tag_6:\n      tag_42\n      0x04\n      dup1\n      calldatasize\n      sub\n      dup2\n      add\n      swap1\n      tag_43\n      swap2\n      swap1\n      tag_44\n      jump\t// in\n    tag_43:\n      tag_45\n      jump\t// in\n    tag_42:\n      mload(0x40)\n      tag_46\n      swap2\n      swap1\n      tag_47\n      jump\t// in\n    tag_46:\n      mload(0x40)\n      dup1\n      swap2\n      sub\n      swap1\n      return\n        /* \"SimpleSwap.sol\":736:757  address public tokenA */\n    tag_7:\n      tag_48\n      tag_49\n      jump\t// in\n    tag_48:\n      mload(0x40)\n      tag_50\n      swap2\n      swap1\n      tag_51\n      jump\t// in\n    tag_50:\n      mload(0x40)\n      dup1\n      swap2\n      sub\n      swap1\n      return\n        /* \"SimpleSwap.sol\":516:542  uint256 public totalSupply */\n    tag_8:\n      tag_52\n      tag_53\n      jump\t// in\n    tag_52:\n      mload(0x40)\n      tag_54\n      swap2\n      swap1\n      tag_33\n      jump\t// in\n    tag_54:\n      mload(0x40)\n      dup1\n      swap2\n      sub\n      swap1\n      return\n        /* \"SimpleSwap.sol\":851:874  uint256 public reserveB */\n    tag_9:\n      tag_55\n      tag_56\n      jump\t// in\n    tag_55:\n      mload(0x40)\n      tag_57\n      swap2\n      swap1\n      tag_33\n      jump\t// in\n    tag_57:\n      mload(0x40)\n      dup1\n      swap2\n      sub\n      swap1\n      return\n        /* \"SimpleSwap.sol\":3077:3507  function transferFrom(address from, address to, uint256 amount) external returns (bool) {... */\n    tag_10:\n      tag_58\n      0x04\n      dup1\n      calldatasize\n      sub\n      dup2\n      add\n      swap1\n      tag_59\n      swap2\n      swap1\n      tag_60\n      jump\t// in\n    tag_59:\n      tag_61\n      jump\t// in\n    tag_58:\n      mload(0x40)\n      tag_62\n      swap2\n      swap1\n      tag_47\n      jump\t// in\n    tag_62:\n      mload(0x40)\n      dup1\n      swap2\n      sub\n      swap1\n      return\n        /* \"SimpleSwap.sol\":483:509  uint8 public decimals = 18 */\n    tag_11:\n      tag_63\n      tag_64\n      jump\t// in\n    tag_63:\n      mload(0x40)\n      tag_65\n      swap2\n      swap1\n      tag_66\n      jump\t// in\n    tag_65:\n      mload(0x40)\n      dup1\n      swap2\n      sub\n      swap1\n      return\n        /* \"SimpleSwap.sol\":10365:10469  function getTotalLiquidity() external view returns (uint256 total) {... */\n    tag_12:\n      tag_67\n      tag_68\n      jump\t// in\n    tag_67:\n      mload(0x40)\n      tag_69\n      swap2\n      swap1\n      tag_33\n      jump\t// in\n    tag_69:\n      mload(0x40)\n      dup1\n      swap2\n      sub\n      swap1\n      return\n        /* \"SimpleSwap.sol\":7060:8446  function swapExactTokensForTokens(... */\n    tag_13:\n      tag_70\n      0x04\n      dup1\n      calldatasize\n      sub\n      dup2\n      add\n      swap1\n      tag_71\n      swap2\n      swap1\n      tag_72\n      jump\t// in\n    tag_71:\n      tag_73\n      jump\t// in\n    tag_70:\n      stop\n        /* \"SimpleSwap.sol\":764:785  address public tokenB */\n    tag_14:\n      tag_74\n      tag_75\n      jump\t// in\n    tag_74:\n      mload(0x40)\n      tag_76\n      swap2\n      swap1\n      tag_51\n      jump\t// in\n    tag_76:\n      mload(0x40)\n      dup1\n      swap2\n      sub\n      swap1\n      return\n        /* \"SimpleSwap.sol\":583:627  mapping(address => uint256) public balanceOf */\n    tag_15:\n      tag_77\n      0x04\n      dup1\n      calldatasize\n      sub\n      dup2\n      add\n      swap1\n      tag_78\n      swap2\n      swap1\n      tag_79\n      jump\t// in\n    tag_78:\n      tag_80\n      jump\t// in\n    tag_77:\n      mload(0x40)\n      tag_81\n      swap2\n      swap1\n      tag_33\n      jump\t// in\n    tag_81:\n      mload(0x40)\n      dup1\n      swap2\n      sub\n      swap1\n      return\n        /* \"SimpleSwap.sol\":447:476  string public symbol = \"SSLT\" */\n    tag_16:\n      tag_82\n      tag_83\n      jump\t// in\n    tag_82:\n      mload(0x40)\n      tag_84\n      swap2\n      swap1\n      tag_37\n      jump\t// in\n    tag_84:\n      mload(0x40)\n      dup1\n      swap2\n      sub\n      swap1\n      return\n        /* \"SimpleSwap.sol\":2770:3069  function transfer(address to, uint256 amount) external returns (bool) {... */\n    tag_17:\n      tag_85\n      0x04\n      dup1\n      calldatasize\n      sub\n      dup2\n      add\n      swap1\n      tag_86\n      swap2\n      swap1\n      tag_44\n      jump\t// in\n    tag_86:\n      tag_87\n      jump\t// in\n    tag_85:\n      mload(0x40)\n      tag_88\n      swap2\n      swap1\n      tag_47\n      jump\t// in\n    tag_88:\n      mload(0x40)\n      dup1\n      swap2\n      sub\n      swap1\n      return\n        /* \"SimpleSwap.sol\":8454:8877  function getPrice(address _tokenA, address _tokenB) external view returns (uint256 price) {... */\n    tag_18:\n      tag_89\n      0x04\n      dup1\n      calldatasize\n      sub\n      dup2\n      add\n      swap1\n      tag_90\n      swap2\n      swap1\n      tag_91\n      jump\t// in\n    tag_90:\n      tag_92\n      jump\t// in\n    tag_89:\n      mload(0x40)\n      tag_93\n      swap2\n      swap1\n      tag_33\n      jump\t// in\n    tag_93:\n      mload(0x40)\n      dup1\n      swap2\n      sub\n      swap1\n      return\n        /* \"SimpleSwap.sol\":5792:7052  function removeLiquidity(... */\n    tag_19:\n      tag_94\n      0x04\n      dup1\n      calldatasize\n      sub\n      dup2\n      add\n      swap1\n      tag_95\n      swap2\n      swap1\n      tag_96\n      jump\t// in\n    tag_95:\n      tag_97\n      jump\t// in\n    tag_94:\n      mload(0x40)\n      tag_98\n      swap3\n      swap2\n      swap1\n      tag_41\n      jump\t// in\n    tag_98:\n      mload(0x40)\n      dup1\n      swap2\n      sub\n      swap1\n      return\n        /* \"SimpleSwap.sol\":10235:10357  function getLiquidityShares(address user) external view returns (uint256 shares) {... */\n    tag_20:\n      tag_99\n      0x04\n      dup1\n      calldatasize\n      sub\n      dup2\n      add\n      swap1\n      tag_100\n      swap2\n      swap1\n      tag_79\n      jump\t// in\n    tag_100:\n      tag_101\n      jump\t// in\n    tag_99:\n      mload(0x40)\n      tag_102\n      swap2\n      swap1\n      tag_33\n      jump\t// in\n    tag_102:\n      mload(0x40)\n      dup1\n      swap2\n      sub\n      swap1\n      return\n        /* \"SimpleSwap.sol\":10078:10227  function getSupportedTokens() external view returns (address _tokenA, address _tokenB) {... */\n    tag_21:\n      tag_103\n      tag_104\n      jump\t// in\n    tag_103:\n      mload(0x40)\n      tag_105\n      swap3\n      swap2\n      swap1\n      tag_106\n      jump\t// in\n    tag_105:\n      mload(0x40)\n      dup1\n      swap2\n      sub\n      swap1\n      return\n        /* \"SimpleSwap.sol\":821:844  uint256 public reserveA */\n    tag_22:\n      tag_107\n      tag_108\n      jump\t// in\n    tag_107:\n      mload(0x40)\n      tag_109\n      swap2\n      swap1\n      tag_33\n      jump\t// in\n    tag_109:\n      mload(0x40)\n      dup1\n      swap2\n      sub\n      swap1\n      return\n        /* \"SimpleSwap.sol\":634:698  mapping(address => mapping(address => uint256)) public allowance */\n    tag_23:\n      tag_110\n      0x04\n      dup1\n      calldatasize\n      sub\n      dup2\n      add\n      swap1\n      tag_111\n      swap2\n      swap1\n      tag_91\n      jump\t// in\n    tag_111:\n      tag_112\n      jump\t// in\n    tag_110:\n      mload(0x40)\n      tag_113\n      swap2\n      swap1\n      tag_33\n      jump\t// in\n    tag_113:\n      mload(0x40)\n      dup1\n      swap2\n      sub\n      swap1\n      return\n        /* \"SimpleSwap.sol\":3549:5784  function addLiquidity(... */\n    tag_24:\n      tag_114\n      0x04\n      dup1\n      calldatasize\n      sub\n      dup2\n      add\n      swap1\n      tag_115\n      swap2\n      swap1\n      tag_116\n      jump\t// in\n    tag_115:\n      tag_117\n      jump\t// in\n    tag_114:\n      mload(0x40)\n      tag_118\n      swap4\n      swap3\n      swap2\n      swap1\n      tag_119\n      jump\t// in\n    tag_118:\n      mload(0x40)\n      dup1\n      swap2\n      sub\n      swap1\n      return\n        /* \"SimpleSwap.sol\":8885:9322  function getAmountOut(uint256 amountIn, uint256 reserveIn, uint256 reserveOut) ... */\n    tag_31:\n        /* \"SimpleSwap.sol\":8995:9012  uint256 amountOut */\n      0x00\n        /* \"SimpleSwap.sol\":9044:9045  0 */\n      0x00\n        /* \"SimpleSwap.sol\":9033:9041  amountIn */\n      dup5\n        /* \"SimpleSwap.sol\":9033:9045  amountIn > 0 */\n      gt\n        /* \"SimpleSwap.sol\":9025:9075  require(amountIn > 0, \"Insufficient input amount\") */\n      tag_121\n      jumpi\n      mload(0x40)\n      0x08c379a000000000000000000000000000000000000000000000000000000000\n      dup2\n      mstore\n      0x04\n      add\n      tag_122\n      swap1\n      tag_123\n      jump\t// in\n    tag_122:\n      mload(0x40)\n      dup1\n      swap2\n      sub\n      swap1\n      revert\n    tag_121:\n        /* \"SimpleSwap.sol\":9106:9107  0 */\n      0x00\n        /* \"SimpleSwap.sol\":9094:9103  reserveIn */\n      dup4\n        /* \"SimpleSwap.sol\":9094:9107  reserveIn > 0 */\n      gt\n        /* \"SimpleSwap.sol\":9094:9125  reserveIn > 0 && reserveOut > 0 */\n      dup1\n      iszero\n      tag_124\n      jumpi\n      pop\n        /* \"SimpleSwap.sol\":9124:9125  0 */\n      0x00\n        /* \"SimpleSwap.sol\":9111:9121  reserveOut */\n      dup3\n        /* \"SimpleSwap.sol\":9111:9125  reserveOut > 0 */\n      gt\n        /* \"SimpleSwap.sol\":9094:9125  reserveIn > 0 && reserveOut > 0 */\n    tag_124:\n        /* \"SimpleSwap.sol\":9086:9151  require(reserveIn > 0 && reserveOut > 0, \"Insufficient reserves\") */\n      tag_125\n      jumpi\n      mload(0x40)\n      0x08c379a000000000000000000000000000000000000000000000000000000000\n      dup2\n      mstore\n      0x04\n      add\n      tag_126\n      swap1\n      tag_127\n      jump\t// in\n    tag_126:\n      mload(0x40)\n      dup1\n      swap2\n      sub\n      swap1\n      revert\n    tag_125:\n        /* \"SimpleSwap.sol\":9305:9313  amountIn */\n      dup4\n        /* \"SimpleSwap.sol\":9293:9302  reserveIn */\n      dup4\n        /* \"SimpleSwap.sol\":9293:9313  reserveIn + amountIn */\n      tag_128\n      swap2\n      swap1\n      tag_129\n      jump\t// in\n    tag_128:\n        /* \"SimpleSwap.sol\":9278:9288  reserveOut */\n      dup3\n        /* \"SimpleSwap.sol\":9267:9275  amountIn */\n      dup6\n        /* \"SimpleSwap.sol\":9267:9288  amountIn * reserveOut */\n      tag_130\n      swap2\n      swap1\n      tag_131\n      jump\t// in\n    tag_130:\n        /* \"SimpleSwap.sol\":9266:9314  (amountIn * reserveOut) / (reserveIn + amountIn) */\n      tag_132\n      swap2\n      swap1\n      tag_133\n      jump\t// in\n    tag_132:\n        /* \"SimpleSwap.sol\":9259:9314  return (amountIn * reserveOut) / (reserveIn + amountIn) */\n      swap1\n      pop\n        /* \"SimpleSwap.sol\":8885:9322  function getAmountOut(uint256 amountIn, uint256 reserveIn, uint256 reserveOut) ... */\n      swap4\n      swap3\n      pop\n      pop\n      pop\n      jump\t// out\n        /* \"SimpleSwap.sol\":391:440  string public name = \"SimpleSwap Liquidity Token\" */\n    tag_35:\n      0x00\n      dup1\n      sload\n      tag_134\n      swap1\n      tag_135\n      jump\t// in\n    tag_134:\n      dup1\n      0x1f\n      add\n      0x20\n      dup1\n      swap2\n      div\n      mul\n      0x20\n      add\n      mload(0x40)\n      swap1\n      dup2\n      add\n      0x40\n      mstore\n      dup1\n      swap3\n      swap2\n      swap1\n      dup2\n      dup2\n      mstore\n      0x20\n      add\n      dup3\n      dup1\n      sload\n      tag_136\n      swap1\n      tag_135\n      jump\t// in\n    tag_136:\n      dup1\n      iszero\n      tag_137\n      jumpi\n      dup1\n      0x1f\n      lt\n      tag_138\n      jumpi\n      0x0100\n      dup1\n      dup4\n      sload\n      div\n      mul\n      dup4\n      mstore\n      swap2\n      0x20\n      add\n      swap2\n      jump(tag_137)\n    tag_138:\n      dup3\n      add\n      swap2\n      swap1\n      0x00\n      mstore\n      keccak256(0x00, 0x20)\n      swap1\n    tag_139:\n      dup2\n      sload\n      dup2\n      mstore\n      swap1\n      0x01\n      add\n      swap1\n      0x20\n      add\n      dup1\n      dup4\n      gt\n      tag_139\n      jumpi\n      dup3\n      swap1\n      sub\n      0x1f\n      and\n      dup3\n      add\n      swap2\n    tag_137:\n      pop\n      pop\n      pop\n      pop\n      pop\n      dup2\n      jump\t// out\n        /* \"SimpleSwap.sol\":9916:10070  function getReserves() external view returns (uint256 _reserveA, uint256 _reserveB) {... */\n    tag_39:\n        /* \"SimpleSwap.sol\":9962:9979  uint256 _reserveA */\n      0x00\n        /* \"SimpleSwap.sol\":9981:9998  uint256 _reserveB */\n      0x00\n        /* \"SimpleSwap.sol\":10023:10031  reserveA */\n      sload(0x08)\n        /* \"SimpleSwap.sol\":10011:10031  _reserveA = reserveA */\n      swap2\n      pop\n        /* \"SimpleSwap.sol\":10054:10062  reserveB */\n      sload(0x09)\n        /* \"SimpleSwap.sol\":10042:10062  _reserveB = reserveB */\n      swap1\n      pop\n        /* \"SimpleSwap.sol\":9916:10070  function getReserves() external view returns (uint256 _reserveA, uint256 _reserveB) {... */\n      swap1\n      swap2\n      jump\t// out\n        /* \"SimpleSwap.sol\":2555:2762  function approve(address spender, uint256 amount) external returns (bool) {... */\n    tag_45:\n        /* \"SimpleSwap.sol\":2623:2627  bool */\n      0x00\n        /* \"SimpleSwap.sol\":2673:2679  amount */\n      dup2\n        /* \"SimpleSwap.sol\":2640:2649  allowance */\n      0x05\n        /* \"SimpleSwap.sol\":2640:2661  allowance[msg.sender] */\n      0x00\n        /* \"SimpleSwap.sol\":2650:2660  msg.sender */\n      caller\n        /* \"SimpleSwap.sol\":2640:2661  allowance[msg.sender] */\n      0xffffffffffffffffffffffffffffffffffffffff\n      and\n      0xffffffffffffffffffffffffffffffffffffffff\n      and\n      dup2\n      mstore\n      0x20\n      add\n      swap1\n      dup2\n      mstore\n      0x20\n      add\n      0x00\n      keccak256\n        /* \"SimpleSwap.sol\":2640:2670  allowance[msg.sender][spender] */\n      0x00\n        /* \"SimpleSwap.sol\":2662:2669  spender */\n      dup6\n        /* \"SimpleSwap.sol\":2640:2670  allowance[msg.sender][spender] */\n      0xffffffffffffffffffffffffffffffffffffffff\n      and\n      0xffffffffffffffffffffffffffffffffffffffff\n      and\n      dup2\n      mstore\n      0x20\n      add\n      swap1\n      dup2\n      mstore\n      0x20\n      add\n      0x00\n      keccak256\n        /* \"SimpleSwap.sol\":2640:2679  allowance[msg.sender][spender] = amount */\n      dup2\n      swap1\n      sstore\n      pop\n        /* \"SimpleSwap.sol\":2716:2723  spender */\n      dup3\n        /* \"SimpleSwap.sol\":2695:2732  Approval(msg.sender, spender, amount) */\n      0xffffffffffffffffffffffffffffffffffffffff\n      and\n        /* \"SimpleSwap.sol\":2704:2714  msg.sender */\n      caller\n        /* \"SimpleSwap.sol\":2695:2732  Approval(msg.sender, spender, amount) */\n      0xffffffffffffffffffffffffffffffffffffffff\n      and\n      0x8c5be1e5ebec7d5bd14f71427d1e84f3dd0314c0f7b2291e5b200ac8c7c3b925\n        /* \"SimpleSwap.sol\":2725:2731  amount */\n      dup5\n        /* \"SimpleSwap.sol\":2695:2732  Approval(msg.sender, spender, amount) */\n      mload(0x40)\n      tag_142\n      swap2\n      swap1\n      tag_33\n      jump\t// in\n    tag_142:\n      mload(0x40)\n      dup1\n      swap2\n      sub\n      swap1\n      log3\n        /* \"SimpleSwap.sol\":2750:2754  true */\n      0x01\n        /* \"SimpleSwap.sol\":2743:2754  return true */\n      swap1\n      pop\n        /* \"SimpleSwap.sol\":2555:2762  function approve(address spender, uint256 amount) external returns (bool) {... */\n      swap3\n      swap2\n      pop\n      pop\n      jump\t// out\n        /* \"SimpleSwap.sol\":736:757  address public tokenA */\n    tag_49:\n      0x06\n      0x00\n      swap1\n      sload\n      swap1\n      0x0100\n      exp\n      swap1\n      div\n      0xffffffffffffffffffffffffffffffffffffffff\n      and\n      dup2\n      jump\t// out\n        /* \"SimpleSwap.sol\":516:542  uint256 public totalSupply */\n    tag_53:\n      sload(0x03)\n      dup2\n      jump\t// out\n        /* \"SimpleSwap.sol\":851:874  uint256 public reserveB */\n    tag_56:\n      sload(0x09)\n      dup2\n      jump\t// out\n        /* \"SimpleSwap.sol\":3077:3507  function transferFrom(address from, address to, uint256 amount) external returns (bool) {... */\n    tag_61:\n        /* \"SimpleSwap.sol\":3159:3163  bool */\n      0x00\n        /* \"SimpleSwap.sol\":3203:3209  amount */\n      dup2\n        /* \"SimpleSwap.sol\":3184:3193  balanceOf */\n      0x04\n        /* \"SimpleSwap.sol\":3184:3199  balanceOf[from] */\n      0x00\n        /* \"SimpleSwap.sol\":3194:3198  from */\n      dup7\n        /* \"SimpleSwap.sol\":3184:3199  balanceOf[from] */\n      0xffffffffffffffffffffffffffffffffffffffff\n      and\n      0xffffffffffffffffffffffffffffffffffffffff\n      and\n      dup2\n      mstore\n      0x20\n      add\n      swap1\n      dup2\n      mstore\n      0x20\n      add\n      0x00\n      keccak256\n      sload\n        /* \"SimpleSwap.sol\":3184:3209  balanceOf[from] >= amount */\n      lt\n      iszero\n        /* \"SimpleSwap.sol\":3176:3234  require(balanceOf[from] >= amount, \"Insufficient balance\") */\n      tag_144\n      jumpi\n      mload(0x40)\n      0x08c379a000000000000000000000000000000000000000000000000000000000\n      dup2\n      mstore\n      0x04\n      add\n      tag_145\n      swap1\n      tag_146\n      jump\t// in\n    tag_145:\n      mload(0x40)\n      dup1\n      swap2\n      sub\n      swap1\n      revert\n    tag_144:\n        /* \"SimpleSwap.sol\":3284:3290  amount */\n      dup2\n        /* \"SimpleSwap.sol\":3253:3262  allowance */\n      0x05\n        /* \"SimpleSwap.sol\":3253:3268  allowance[from] */\n      0x00\n        /* \"SimpleSwap.sol\":3263:3267  from */\n      dup7\n        /* \"SimpleSwap.sol\":3253:3268  allowance[from] */\n      0xffffffffffffffffffffffffffffffffffffffff\n      and\n      0xffffffffffffffffffffffffffffffffffffffff\n      and\n      dup2\n      mstore\n      0x20\n      add\n      swap1\n      dup2\n      mstore\n      0x20\n      add\n      0x00\n      keccak256\n        /* \"SimpleSwap.sol\":3253:3280  allowance[from][msg.sender] */\n      0x00\n        /* \"SimpleSwap.sol\":3269:3279  msg.sender */\n      caller\n        /* \"SimpleSwap.sol\":3253:3280  allowance[from][msg.sender] */\n      0xffffffffffffffffffffffffffffffffffffffff\n      and\n      0xffffffffffffffffffffffffffffffffffffffff\n      and\n      dup2\n      mstore\n      0x20\n      add\n      swap1\n      dup2\n      mstore\n      0x20\n      add\n      0x00\n      keccak256\n      sload\n        /* \"SimpleSwap.sol\":3253:3290  allowance[from][msg.sender] >= amount */\n      lt\n      iszero\n        /* \"SimpleSwap.sol\":3245:3317  require(allowance[from][msg.sender] >= amount, \"Insufficient allowance\") */\n      tag_147\n      jumpi\n      mload(0x40)\n      0x08c379a000000000000000000000000000000000000000000000000000000000\n      dup2\n      mstore\n      0x04\n      add\n      tag_148\n      swap1\n      tag_149\n      jump\t// in\n    tag_148:\n      mload(0x40)\n      dup1\n      swap2\n      sub\n      swap1\n      revert\n    tag_147:\n        /* \"SimpleSwap.sol\":3359:3365  amount */\n      dup2\n        /* \"SimpleSwap.sol\":3328:3337  allowance */\n      0x05\n        /* \"SimpleSwap.sol\":3328:3343  allowance[from] */\n      0x00\n        /* \"SimpleSwap.sol\":3338:3342  from */\n      dup7\n        /* \"SimpleSwap.sol\":3328:3343  allowance[from] */\n      0xffffffffffffffffffffffffffffffffffffffff\n      and\n      0xffffffffffffffffffffffffffffffffffffffff\n      and\n      dup2\n      mstore\n      0x20\n      add\n      swap1\n      dup2\n      mstore\n      0x20\n      add\n      0x00\n      keccak256\n        /* \"SimpleSwap.sol\":3328:3355  allowance[from][msg.sender] */\n      0x00\n        /* \"SimpleSwap.sol\":3344:3354  msg.sender */\n      caller\n        /* \"SimpleSwap.sol\":3328:3355  allowance[from][msg.sender] */\n      0xffffffffffffffffffffffffffffffffffffffff\n      and\n      0xffffffffffffffffffffffffffffffffffffffff\n      and\n      dup2\n      mstore\n      0x20\n      add\n      swap1\n      dup2\n      mstore\n      0x20\n      add\n      0x00\n      keccak256\n      0x00\n        /* \"SimpleSwap.sol\":3328:3365  allowance[from][msg.sender] -= amount */\n      dup3\n      dup3\n      sload\n      tag_150\n      swap2\n      swap1\n      tag_151\n      jump\t// in\n    tag_150:\n      swap3\n      pop\n      pop\n      dup2\n      swap1\n      sstore\n      pop\n        /* \"SimpleSwap.sol\":3395:3401  amount */\n      dup2\n        /* \"SimpleSwap.sol\":3376:3385  balanceOf */\n      0x04\n        /* \"SimpleSwap.sol\":3376:3391  balanceOf[from] */\n      0x00\n        /* \"SimpleSwap.sol\":3386:3390  from */\n      dup7\n        /* \"SimpleSwap.sol\":3376:3391  balanceOf[from] */\n      0xffffffffffffffffffffffffffffffffffffffff\n      and\n      0xffffffffffffffffffffffffffffffffffffffff\n      and\n      dup2\n      mstore\n      0x20\n      add\n      swap1\n      dup2\n      mstore\n      0x20\n      add\n      0x00\n      keccak256\n      0x00\n        /* \"SimpleSwap.sol\":3376:3401  balanceOf[from] -= amount */\n      dup3\n      dup3\n      sload\n      tag_152\n      swap2\n      swap1\n      tag_151\n      jump\t// in\n    tag_152:\n      swap3\n      pop\n      pop\n      dup2\n      swap1\n      sstore\n      pop\n        /* \"SimpleSwap.sol\":3429:3435  amount */\n      dup2\n        /* \"SimpleSwap.sol\":3412:3421  balanceOf */\n      0x04\n        /* \"SimpleSwap.sol\":3412:3425  balanceOf[to] */\n      0x00\n        /* \"SimpleSwap.sol\":3422:3424  to */\n      dup6\n        /* \"SimpleSwap.sol\":3412:3425  balanceOf[to] */\n      0xffffffffffffffffffffffffffffffffffffffff\n      and\n      0xffffffffffffffffffffffffffffffffffffffff\n      and\n      dup2\n      mstore\n      0x20\n      add\n      swap1\n      dup2\n      mstore\n      0x20\n      add\n      0x00\n      keccak256\n      0x00\n        /* \"SimpleSwap.sol\":3412:3435  balanceOf[to] += amount */\n      dup3\n      dup3\n      sload\n      tag_153\n      swap2\n      swap1\n      tag_129\n      jump\t// in\n    tag_153:\n      swap3\n      pop\n      pop\n      dup2\n      swap1\n      sstore\n      pop\n        /* \"SimpleSwap.sol\":3466:3468  to */\n      dup3\n        /* \"SimpleSwap.sol\":3451:3477  Transfer(from, to, amount) */\n      0xffffffffffffffffffffffffffffffffffffffff\n      and\n        /* \"SimpleSwap.sol\":3460:3464  from */\n      dup5\n        /* \"SimpleSwap.sol\":3451:3477  Transfer(from, to, amount) */\n      0xffffffffffffffffffffffffffffffffffffffff\n      and\n      0xddf252ad1be2c89b69c2b068fc378daa952ba7f163c4a11628f55a4df523b3ef\n        /* \"SimpleSwap.sol\":3470:3476  amount */\n      dup5\n        /* \"SimpleSwap.sol\":3451:3477  Transfer(from, to, amount) */\n      mload(0x40)\n      tag_154\n      swap2\n      swap1\n      tag_33\n      jump\t// in\n    tag_154:\n      mload(0x40)\n      dup1\n      swap2\n      sub\n      swap1\n      log3\n        /* \"SimpleSwap.sol\":3495:3499  true */\n      0x01\n        /* \"SimpleSwap.sol\":3488:3499  return true */\n      swap1\n      pop\n        /* \"SimpleSwap.sol\":3077:3507  function transferFrom(address from, address to, uint256 amount) external returns (bool) {... */\n      swap4\n      swap3\n      pop\n      pop\n      pop\n      jump\t// out\n        /* \"SimpleSwap.sol\":483:509  uint8 public decimals = 18 */\n    tag_64:\n      0x02\n      0x00\n      swap1\n      sload\n      swap1\n      0x0100\n      exp\n      swap1\n      div\n      0xff\n      and\n      dup2\n      jump\t// out\n        /* \"SimpleSwap.sol\":10365:10469  function getTotalLiquidity() external view returns (uint256 total) {... */\n    tag_68:\n        /* \"SimpleSwap.sol\":10417:10430  uint256 total */\n      0x00\n        /* \"SimpleSwap.sol\":10450:10461  totalSupply */\n      sload(0x03)\n        /* \"SimpleSwap.sol\":10443:10461  return totalSupply */\n      swap1\n      pop\n        /* \"SimpleSwap.sol\":10365:10469  function getTotalLiquidity() external view returns (uint256 total) {... */\n      swap1\n      jump\t// out\n        /* \"SimpleSwap.sol\":7060:8446  function swapExactTokensForTokens(... */\n    tag_73:\n        /* \"SimpleSwap.sol\":7257:7265  deadline */\n      dup1\n        /* \"SimpleSwap.sol\":1983:1998  block.timestamp */\n      timestamp\n        /* \"SimpleSwap.sol\":1971:1979  deadline */\n      dup2\n        /* \"SimpleSwap.sol\":1971:1998  deadline >= block.timestamp */\n      lt\n      iszero\n        /* \"SimpleSwap.sol\":1963:2022  require(deadline >= block.timestamp, \"Transaction expired\") */\n      tag_157\n      jumpi\n      mload(0x40)\n      0x08c379a000000000000000000000000000000000000000000000000000000000\n      dup2\n      mstore\n      0x04\n      add\n      tag_158\n      swap1\n      tag_159\n      jump\t// in\n    tag_158:\n      mload(0x40)\n      dup1\n      swap2\n      sub\n      swap1\n      revert\n    tag_157:\n        /* \"SimpleSwap.sol\":7301:7302  2 */\n      0x02\n        /* \"SimpleSwap.sol\":7286:7290  path */\n      dup6\n      dup6\n        /* \"SimpleSwap.sol\":7286:7297  path.length */\n      swap1\n      pop\n        /* \"SimpleSwap.sol\":7286:7302  path.length == 2 */\n      eq\n        /* \"SimpleSwap.sol\":7278:7319  require(path.length == 2, \"Invalid path\") */\n      tag_161\n      jumpi\n      mload(0x40)\n      0x08c379a000000000000000000000000000000000000000000000000000000000\n      dup2\n      mstore\n      0x04\n      add\n      tag_162\n      swap1\n      tag_163\n      jump\t// in\n    tag_162:\n      mload(0x40)\n      dup1\n      swap2\n      sub\n      swap1\n      revert\n    tag_161:\n        /* \"SimpleSwap.sol\":7352:7353  0 */\n      0x00\n        /* \"SimpleSwap.sol\":7338:7354  to != address(0) */\n      0xffffffffffffffffffffffffffffffffffffffff\n      and\n        /* \"SimpleSwap.sol\":7338:7340  to */\n      dup4\n        /* \"SimpleSwap.sol\":7338:7354  to != address(0) */\n      0xffffffffffffffffffffffffffffffffffffffff\n      and\n      sub\n        /* \"SimpleSwap.sol\":7330:7376  require(to != address(0), \"Invalid recipient\") */\n      tag_164\n      jumpi\n      mload(0x40)\n      0x08c379a000000000000000000000000000000000000000000000000000000000\n      dup2\n      mstore\n      0x04\n      add\n      tag_165\n      swap1\n      tag_166\n      jump\t// in\n    tag_165:\n      mload(0x40)\n      dup1\n      swap2\n      sub\n      swap1\n      revert\n    tag_164:\n        /* \"SimpleSwap.sol\":7395:7430  _isValidTokenPair(path[0], path[1]) */\n      tag_167\n        /* \"SimpleSwap.sol\":7413:7417  path */\n      dup6\n      dup6\n        /* \"SimpleSwap.sol\":7418:7419  0 */\n      0x00\n        /* \"SimpleSwap.sol\":7413:7420  path[0] */\n      dup2\n      dup2\n      lt\n      tag_168\n      jumpi\n      tag_169\n      tag_170\n      jump\t// in\n    tag_169:\n    tag_168:\n      swap1\n      pop\n      0x20\n      mul\n      add\n      0x20\n      dup2\n      add\n      swap1\n      tag_171\n      swap2\n      swap1\n      tag_79\n      jump\t// in\n    tag_171:\n        /* \"SimpleSwap.sol\":7422:7426  path */\n      dup7\n      dup7\n        /* \"SimpleSwap.sol\":7427:7428  1 */\n      0x01\n        /* \"SimpleSwap.sol\":7422:7429  path[1] */\n      dup2\n      dup2\n      lt\n      tag_172\n      jumpi\n      tag_173\n      tag_170\n      jump\t// in\n    tag_173:\n    tag_172:\n      swap1\n      pop\n      0x20\n      mul\n      add\n      0x20\n      dup2\n      add\n      swap1\n      tag_174\n      swap2\n      swap1\n      tag_79\n      jump\t// in\n    tag_174:\n        /* \"SimpleSwap.sol\":7395:7412  _isValidTokenPair */\n      tag_175\n        /* \"SimpleSwap.sol\":7395:7430  _isValidTokenPair(path[0], path[1]) */\n      jump\t// in\n    tag_167:\n        /* \"SimpleSwap.sol\":7387:7453  require(_isValidTokenPair(path[0], path[1]), \"Invalid token pair\") */\n      tag_176\n      jumpi\n      mload(0x40)\n      0x08c379a000000000000000000000000000000000000000000000000000000000\n      dup2\n      mstore\n      0x04\n      add\n      tag_177\n      swap1\n      tag_178\n      jump\t// in\n    tag_177:\n      mload(0x40)\n      dup1\n      swap2\n      sub\n      swap1\n      revert\n    tag_176:\n        /* \"SimpleSwap.sol\":7466:7481  address tokenIn */\n      0x00\n        /* \"SimpleSwap.sol\":7484:7488  path */\n      dup6\n      dup6\n        /* \"SimpleSwap.sol\":7489:7490  0 */\n      0x00\n        /* \"SimpleSwap.sol\":7484:7491  path[0] */\n      dup2\n      dup2\n      lt\n      tag_179\n      jumpi\n      tag_180\n      tag_170\n      jump\t// in\n    tag_180:\n    tag_179:\n      swap1\n      pop\n      0x20\n      mul\n      add\n      0x20\n      dup2\n      add\n      swap1\n      tag_181\n      swap2\n      swap1\n      tag_79\n      jump\t// in\n    tag_181:\n        /* \"SimpleSwap.sol\":7466:7491  address tokenIn = path[0] */\n      swap1\n      pop\n        /* \"SimpleSwap.sol\":7502:7518  address tokenOut */\n      0x00\n        /* \"SimpleSwap.sol\":7521:7525  path */\n      dup7\n      dup7\n        /* \"SimpleSwap.sol\":7526:7527  1 */\n      0x01\n        /* \"SimpleSwap.sol\":7521:7528  path[1] */\n      dup2\n      dup2\n      lt\n      tag_182\n      jumpi\n      tag_183\n      tag_170\n      jump\t// in\n    tag_183:\n    tag_182:\n      swap1\n      pop\n      0x20\n      mul\n      add\n      0x20\n      dup2\n      add\n      swap1\n      tag_184\n      swap2\n      swap1\n      tag_79\n      jump\t// in\n    tag_184:\n        /* \"SimpleSwap.sol\":7502:7528  address tokenOut = path[1] */\n      swap1\n      pop\n        /* \"SimpleSwap.sol\":7572:7589  uint256 reserveIn */\n      0x00\n        /* \"SimpleSwap.sol\":7603:7609  tokenA */\n      0x06\n      0x00\n      swap1\n      sload\n      swap1\n      0x0100\n      exp\n      swap1\n      div\n      0xffffffffffffffffffffffffffffffffffffffff\n      and\n        /* \"SimpleSwap.sol\":7592:7609  tokenIn == tokenA */\n      0xffffffffffffffffffffffffffffffffffffffff\n      and\n        /* \"SimpleSwap.sol\":7592:7599  tokenIn */\n      dup4\n        /* \"SimpleSwap.sol\":7592:7609  tokenIn == tokenA */\n      0xffffffffffffffffffffffffffffffffffffffff\n      and\n      eq\n        /* \"SimpleSwap.sol\":7592:7631  tokenIn == tokenA ? reserveA : reserveB */\n      tag_185\n      jumpi\n        /* \"SimpleSwap.sol\":7623:7631  reserveB */\n      sload(0x09)\n        /* \"SimpleSwap.sol\":7592:7631  tokenIn == tokenA ? reserveA : reserveB */\n      jump(tag_186)\n    tag_185:\n        /* \"SimpleSwap.sol\":7612:7620  reserveA */\n      sload(0x08)\n        /* \"SimpleSwap.sol\":7592:7631  tokenIn == tokenA ? reserveA : reserveB */\n    tag_186:\n        /* \"SimpleSwap.sol\":7572:7631  uint256 reserveIn = tokenIn == tokenA ? reserveA : reserveB */\n      swap1\n      pop\n        /* \"SimpleSwap.sol\":7642:7660  uint256 reserveOut */\n      0x00\n        /* \"SimpleSwap.sol\":7675:7681  tokenA */\n      0x06\n      0x00\n      swap1\n      sload\n      swap1\n      0x0100\n      exp\n      swap1\n      div\n      0xffffffffffffffffffffffffffffffffffffffff\n      and\n        /* \"SimpleSwap.sol\":7663:7681  tokenOut == tokenA */\n      0xffffffffffffffffffffffffffffffffffffffff\n      and\n        /* \"SimpleSwap.sol\":7663:7671  tokenOut */\n      dup4\n        /* \"SimpleSwap.sol\":7663:7681  tokenOut == tokenA */\n      0xffffffffffffffffffffffffffffffffffffffff\n      and\n      eq\n        /* \"SimpleSwap.sol\":7663:7703  tokenOut == tokenA ? reserveA : reserveB */\n      tag_187\n      jumpi\n        /* \"SimpleSwap.sol\":7695:7703  reserveB */\n      sload(0x09)\n        /* \"SimpleSwap.sol\":7663:7703  tokenOut == tokenA ? reserveA : reserveB */\n      jump(tag_188)\n    tag_187:\n        /* \"SimpleSwap.sol\":7684:7692  reserveA */\n      sload(0x08)\n        /* \"SimpleSwap.sol\":7663:7703  tokenOut == tokenA ? reserveA : reserveB */\n    tag_188:\n        /* \"SimpleSwap.sol\":7642:7703  uint256 reserveOut = tokenOut == tokenA ? reserveA : reserveB */\n      swap1\n      pop\n        /* \"SimpleSwap.sol\":7752:7769  uint256 amountOut */\n      0x00\n        /* \"SimpleSwap.sol\":7772:7817  getAmountOut(amountIn, reserveIn, reserveOut) */\n      tag_189\n        /* \"SimpleSwap.sol\":7785:7793  amountIn */\n      dup13\n        /* \"SimpleSwap.sol\":7795:7804  reserveIn */\n      dup5\n        /* \"SimpleSwap.sol\":7806:7816  reserveOut */\n      dup5\n        /* \"SimpleSwap.sol\":7772:7784  getAmountOut */\n      tag_31\n        /* \"SimpleSwap.sol\":7772:7817  getAmountOut(amountIn, reserveIn, reserveOut) */\n      jump\t// in\n    tag_189:\n        /* \"SimpleSwap.sol\":7752:7817  uint256 amountOut = getAmountOut(amountIn, reserveIn, reserveOut) */\n      swap1\n      pop\n        /* \"SimpleSwap.sol\":7849:7861  amountOutMin */\n      dup11\n        /* \"SimpleSwap.sol\":7836:7845  amountOut */\n      dup2\n        /* \"SimpleSwap.sol\":7836:7861  amountOut >= amountOutMin */\n      lt\n      iszero\n        /* \"SimpleSwap.sol\":7828:7892  require(amountOut >= amountOutMin, \"Insufficient output amount\") */\n      tag_190\n      jumpi\n      mload(0x40)\n      0x08c379a000000000000000000000000000000000000000000000000000000000\n      dup2\n      mstore\n      0x04\n      add\n      tag_191\n      swap1\n      tag_192\n      jump\t// in\n    tag_191:\n      mload(0x40)\n      dup1\n      swap2\n      sub\n      swap1\n      revert\n    tag_190:\n        /* \"SimpleSwap.sol\":7950:7957  tokenIn */\n      dup5\n        /* \"SimpleSwap.sol\":7943:7971  IERC20(tokenIn).transferFrom */\n      0xffffffffffffffffffffffffffffffffffffffff\n      and\n      0x23b872dd\n        /* \"SimpleSwap.sol\":7972:7982  msg.sender */\n      caller\n        /* \"SimpleSwap.sol\":7992:7996  this */\n      address\n        /* \"SimpleSwap.sol\":7999:8007  amountIn */\n      dup16\n        /* \"SimpleSwap.sol\":7943:8008  IERC20(tokenIn).transferFrom(msg.sender, address(this), amountIn) */\n      mload(0x40)\n      dup5\n      0xffffffff\n      and\n      0xe0\n      shl\n      dup2\n      mstore\n      0x04\n      add\n      tag_193\n      swap4\n      swap3\n      swap2\n      swap1\n      tag_194\n      jump\t// in\n    tag_193:\n      0x20\n      mload(0x40)\n      dup1\n      dup4\n      sub\n      dup2\n      0x00\n      dup8\n      gas\n      call\n      iszero\n      dup1\n      iszero\n      tag_196\n      jumpi\n      returndatacopy(0x00, 0x00, returndatasize)\n      revert(0x00, returndatasize)\n    tag_196:\n      pop\n      pop\n      pop\n      pop\n      mload(0x40)\n      returndatasize\n      not(0x1f)\n      0x1f\n      dup3\n      add\n      and\n      dup3\n      add\n      dup1\n      0x40\n      mstore\n      pop\n      dup2\n      add\n      swap1\n      tag_197\n      swap2\n      swap1\n      tag_198\n      jump\t// in\n    tag_197:\n        /* \"SimpleSwap.sol\":7935:8034  require(IERC20(tokenIn).transferFrom(msg.sender, address(this), amountIn), \"Input transfer failed\") */\n      tag_199\n      jumpi\n      mload(0x40)\n      0x08c379a000000000000000000000000000000000000000000000000000000000\n      dup2\n      mstore\n      0x04\n      add\n      tag_200\n      swap1\n      tag_201\n      jump\t// in\n    tag_200:\n      mload(0x40)\n      dup1\n      swap2\n      sub\n      swap1\n      revert\n    tag_199:\n        /* \"SimpleSwap.sol\":8060:8068  tokenOut */\n      dup4\n        /* \"SimpleSwap.sol\":8053:8078  IERC20(tokenOut).transfer */\n      0xffffffffffffffffffffffffffffffffffffffff\n      and\n      0xa9059cbb\n        /* \"SimpleSwap.sol\":8079:8081  to */\n      dup10\n        /* \"SimpleSwap.sol\":8083:8092  amountOut */\n      dup4\n        /* \"SimpleSwap.sol\":8053:8093  IERC20(tokenOut).transfer(to, amountOut) */\n      mload(0x40)\n      dup4\n      0xffffffff\n      and\n      0xe0\n      shl\n      dup2\n      mstore\n      0x04\n      add\n      tag_202\n      swap3\n      swap2\n      swap1\n      tag_203\n      jump\t// in\n    tag_202:\n      0x20\n      mload(0x40)\n      dup1\n      dup4\n      sub\n      dup2\n      0x00\n      dup8\n      gas\n      call\n      iszero\n      dup1\n      iszero\n      tag_205\n      jumpi\n      returndatacopy(0x00, 0x00, returndatasize)\n      revert(0x00, returndatasize)\n    tag_205:\n      pop\n      pop\n      pop\n      pop\n      mload(0x40)\n      returndatasize\n      not(0x1f)\n      0x1f\n      dup3\n      add\n      and\n      dup3\n      add\n      dup1\n      0x40\n      mstore\n      pop\n      dup2\n      add\n      swap1\n      tag_206\n      swap2\n      swap1\n      tag_198\n      jump\t// in\n    tag_206:\n        /* \"SimpleSwap.sol\":8045:8120  require(IERC20(tokenOut).transfer(to, amountOut), \"Output transfer failed\") */\n      tag_207\n      jumpi\n      mload(0x40)\n      0x08c379a000000000000000000000000000000000000000000000000000000000\n      dup2\n      mstore\n      0x04\n      add\n      tag_208\n      swap1\n      tag_209\n      jump\t// in\n    tag_208:\n      mload(0x40)\n      dup1\n      swap2\n      sub\n      swap1\n      revert\n    tag_207:\n        /* \"SimpleSwap.sol\":8176:8182  tokenA */\n      0x06\n      0x00\n      swap1\n      sload\n      swap1\n      0x0100\n      exp\n      swap1\n      div\n      0xffffffffffffffffffffffffffffffffffffffff\n      and\n        /* \"SimpleSwap.sol\":8165:8182  tokenIn == tokenA */\n      0xffffffffffffffffffffffffffffffffffffffff\n      and\n        /* \"SimpleSwap.sol\":8165:8172  tokenIn */\n      dup6\n        /* \"SimpleSwap.sol\":8165:8182  tokenIn == tokenA */\n      0xffffffffffffffffffffffffffffffffffffffff\n      and\n      sub\n        /* \"SimpleSwap.sol\":8161:8356  if (tokenIn == tokenA) {... */\n      tag_210\n      jumpi\n        /* \"SimpleSwap.sol\":8211:8219  amountIn */\n      dup12\n        /* \"SimpleSwap.sol\":8199:8207  reserveA */\n      0x08\n      0x00\n        /* \"SimpleSwap.sol\":8199:8219  reserveA += amountIn */\n      dup3\n      dup3\n      sload\n      tag_211\n      swap2\n      swap1\n      tag_129\n      jump\t// in\n    tag_211:\n      swap3\n      pop\n      pop\n      dup2\n      swap1\n      sstore\n      pop\n        /* \"SimpleSwap.sol\":8246:8255  amountOut */\n      dup1\n        /* \"SimpleSwap.sol\":8234:8242  reserveB */\n      0x09\n      0x00\n        /* \"SimpleSwap.sol\":8234:8255  reserveB -= amountOut */\n      dup3\n      dup3\n      sload\n      tag_212\n      swap2\n      swap1\n      tag_151\n      jump\t// in\n    tag_212:\n      swap3\n      pop\n      pop\n      dup2\n      swap1\n      sstore\n      pop\n        /* \"SimpleSwap.sol\":8161:8356  if (tokenIn == tokenA) {... */\n      jump(tag_213)\n    tag_210:\n        /* \"SimpleSwap.sol\":8300:8308  amountIn */\n      dup12\n        /* \"SimpleSwap.sol\":8288:8296  reserveB */\n      0x09\n      0x00\n        /* \"SimpleSwap.sol\":8288:8308  reserveB += amountIn */\n      dup3\n      dup3\n      sload\n      tag_214\n      swap2\n      swap1\n      tag_129\n      jump\t// in\n    tag_214:\n      swap3\n      pop\n      pop\n      dup2\n      swap1\n      sstore\n      pop\n        /* \"SimpleSwap.sol\":8335:8344  amountOut */\n      dup1\n        /* \"SimpleSwap.sol\":8323:8331  reserveA */\n      0x08\n      0x00\n        /* \"SimpleSwap.sol\":8323:8344  reserveA -= amountOut */\n      dup3\n      dup3\n      sload\n      tag_215\n      swap2\n      swap1\n      tag_151\n      jump\t// in\n    tag_215:\n      swap3\n      pop\n      pop\n      dup2\n      swap1\n      sstore\n      pop\n        /* \"SimpleSwap.sol\":8161:8356  if (tokenIn == tokenA) {... */\n    tag_213:\n        /* \"SimpleSwap.sol\":8408:8416  tokenOut */\n      dup4\n        /* \"SimpleSwap.sol\":8373:8438  TokensSwapped(msg.sender, tokenIn, tokenOut, amountIn, amountOut) */\n      0xffffffffffffffffffffffffffffffffffffffff\n      and\n        /* \"SimpleSwap.sol\":8399:8406  tokenIn */\n      dup6\n        /* \"SimpleSwap.sol\":8373:8438  TokensSwapped(msg.sender, tokenIn, tokenOut, amountIn, amountOut) */\n      0xffffffffffffffffffffffffffffffffffffffff\n      and\n        /* \"SimpleSwap.sol\":8387:8397  msg.sender */\n      caller\n        /* \"SimpleSwap.sol\":8373:8438  TokensSwapped(msg.sender, tokenIn, tokenOut, amountIn, amountOut) */\n      0xffffffffffffffffffffffffffffffffffffffff\n      and\n      0xad56699d0f375866eb895ed27203058a36a713382aaded78eb6b67da266d4332\n        /* \"SimpleSwap.sol\":8418:8426  amountIn */\n      dup16\n        /* \"SimpleSwap.sol\":8428:8437  amountOut */\n      dup6\n        /* \"SimpleSwap.sol\":8373:8438  TokensSwapped(msg.sender, tokenIn, tokenOut, amountIn, amountOut) */\n      mload(0x40)\n      tag_216\n      swap3\n      swap2\n      swap1\n      tag_41\n      jump\t// in\n    tag_216:\n      mload(0x40)\n      dup1\n      swap2\n      sub\n      swap1\n      log4\n        /* \"SimpleSwap.sol\":7267:8446  {... */\n      pop\n      pop\n      pop\n      pop\n      pop\n        /* \"SimpleSwap.sol\":7060:8446  function swapExactTokensForTokens(... */\n      pop\n      pop\n      pop\n      pop\n      pop\n      pop\n      pop\n      jump\t// out\n        /* \"SimpleSwap.sol\":764:785  address public tokenB */\n    tag_75:\n      0x07\n      0x00\n      swap1\n      sload\n      swap1\n      0x0100\n      exp\n      swap1\n      div\n      0xffffffffffffffffffffffffffffffffffffffff\n      and\n      dup2\n      jump\t// out\n        /* \"SimpleSwap.sol\":583:627  mapping(address => uint256) public balanceOf */\n    tag_80:\n      mstore(0x20, 0x04)\n      dup1\n      0x00\n      mstore\n      keccak256(0x00, 0x40)\n      0x00\n      swap2\n      pop\n      swap1\n      pop\n      sload\n      dup2\n      jump\t// out\n        /* \"SimpleSwap.sol\":447:476  string public symbol = \"SSLT\" */\n    tag_83:\n      0x01\n      dup1\n      sload\n      tag_217\n      swap1\n      tag_135\n      jump\t// in\n    tag_217:\n      dup1\n      0x1f\n      add\n      0x20\n      dup1\n      swap2\n      div\n      mul\n      0x20\n      add\n      mload(0x40)\n      swap1\n      dup2\n      add\n      0x40\n      mstore\n      dup1\n      swap3\n      swap2\n      swap1\n      dup2\n      dup2\n      mstore\n      0x20\n      add\n      dup3\n      dup1\n      sload\n      tag_218\n      swap1\n      tag_135\n      jump\t// in\n    tag_218:\n      dup1\n      iszero\n      tag_219\n      jumpi\n      dup1\n      0x1f\n      lt\n      tag_220\n      jumpi\n      0x0100\n      dup1\n      dup4\n      sload\n      div\n      mul\n      dup4\n      mstore\n      swap2\n      0x20\n      add\n      swap2\n      jump(tag_219)\n    tag_220:\n      dup3\n      add\n      swap2\n      swap1\n      0x00\n      mstore\n      keccak256(0x00, 0x20)\n      swap1\n    tag_221:\n      dup2\n      sload\n      dup2\n      mstore\n      swap1\n      0x01\n      add\n      swap1\n      0x20\n      add\n      dup1\n      dup4\n      gt\n      tag_221\n      jumpi\n      dup3\n      swap1\n      sub\n      0x1f\n      and\n      dup3\n      add\n      swap2\n    tag_219:\n      pop\n      pop\n      pop\n      pop\n      pop\n      dup2\n      jump\t// out\n        /* \"SimpleSwap.sol\":2770:3069  function transfer(address to, uint256 amount) external returns (bool) {... */\n    tag_87:\n        /* \"SimpleSwap.sol\":2834:2838  bool */\n      0x00\n        /* \"SimpleSwap.sol\":2884:2890  amount */\n      dup2\n        /* \"SimpleSwap.sol\":2859:2868  balanceOf */\n      0x04\n        /* \"SimpleSwap.sol\":2859:2880  balanceOf[msg.sender] */\n      0x00\n        /* \"SimpleSwap.sol\":2869:2879  msg.sender */\n      caller\n        /* \"SimpleSwap.sol\":2859:2880  balanceOf[msg.sender] */\n      0xffffffffffffffffffffffffffffffffffffffff\n      and\n      0xffffffffffffffffffffffffffffffffffffffff\n      and\n      dup2\n      mstore\n      0x20\n      add\n      swap1\n      dup2\n      mstore\n      0x20\n      add\n      0x00\n      keccak256\n      sload\n        /* \"SimpleSwap.sol\":2859:2890  balanceOf[msg.sender] >= amount */\n      lt\n      iszero\n        /* \"SimpleSwap.sol\":2851:2915  require(balanceOf[msg.sender] >= amount, \"Insufficient balance\") */\n      tag_223\n      jumpi\n      mload(0x40)\n      0x08c379a000000000000000000000000000000000000000000000000000000000\n      dup2\n      mstore\n      0x04\n      add\n      tag_224\n      swap1\n      tag_146\n      jump\t// in\n    tag_224:\n      mload(0x40)\n      dup1\n      swap2\n      sub\n      swap1\n      revert\n    tag_223:\n        /* \"SimpleSwap.sol\":2951:2957  amount */\n      dup2\n        /* \"SimpleSwap.sol\":2926:2935  balanceOf */\n      0x04\n        /* \"SimpleSwap.sol\":2926:2947  balanceOf[msg.sender] */\n      0x00\n        /* \"SimpleSwap.sol\":2936:2946  msg.sender */\n      caller\n        /* \"SimpleSwap.sol\":2926:2947  balanceOf[msg.sender] */\n      0xffffffffffffffffffffffffffffffffffffffff\n      and\n      0xffffffffffffffffffffffffffffffffffffffff\n      and\n      dup2\n      mstore\n      0x20\n      add\n      swap1\n      dup2\n      mstore\n      0x20\n      add\n      0x00\n      keccak256\n      0x00\n        /* \"SimpleSwap.sol\":2926:2957  balanceOf[msg.sender] -= amount */\n      dup3\n      dup3\n      sload\n      tag_225\n      swap2\n      swap1\n      tag_151\n      jump\t// in\n    tag_225:\n      swap3\n      pop\n      pop\n      dup2\n      swap1\n      sstore\n      pop\n        /* \"SimpleSwap.sol\":2985:2991  amount */\n      dup2\n        /* \"SimpleSwap.sol\":2968:2977  balanceOf */\n      0x04\n        /* \"SimpleSwap.sol\":2968:2981  balanceOf[to] */\n      0x00\n        /* \"SimpleSwap.sol\":2978:2980  to */\n      dup6\n        /* \"SimpleSwap.sol\":2968:2981  balanceOf[to] */\n      0xffffffffffffffffffffffffffffffffffffffff\n      and\n      0xffffffffffffffffffffffffffffffffffffffff\n      and\n      dup2\n      mstore\n      0x20\n      add\n      swap1\n      dup2\n      mstore\n      0x20\n      add\n      0x00\n      keccak256\n      0x00\n        /* \"SimpleSwap.sol\":2968:2991  balanceOf[to] += amount */\n      dup3\n      dup3\n      sload\n      tag_226\n      swap2\n      swap1\n      tag_129\n      jump\t// in\n    tag_226:\n      swap3\n      pop\n      pop\n      dup2\n      swap1\n      sstore\n      pop\n        /* \"SimpleSwap.sol\":3028:3030  to */\n      dup3\n        /* \"SimpleSwap.sol\":3007:3039  Transfer(msg.sender, to, amount) */\n      0xffffffffffffffffffffffffffffffffffffffff\n      and\n        /* \"SimpleSwap.sol\":3016:3026  msg.sender */\n      caller\n        /* \"SimpleSwap.sol\":3007:3039  Transfer(msg.sender, to, amount) */\n      0xffffffffffffffffffffffffffffffffffffffff\n      and\n      0xddf252ad1be2c89b69c2b068fc378daa952ba7f163c4a11628f55a4df523b3ef\n        /* \"SimpleSwap.sol\":3032:3038  amount */\n      dup5\n        /* \"SimpleSwap.sol\":3007:3039  Transfer(msg.sender, to, amount) */\n      mload(0x40)\n      tag_227\n      swap2\n      swap1\n      tag_33\n      jump\t// in\n    tag_227:\n      mload(0x40)\n      dup1\n      swap2\n      sub\n      swap1\n      log3\n        /* \"SimpleSwap.sol\":3057:3061  true */\n      0x01\n        /* \"SimpleSwap.sol\":3050:3061  return true */\n      swap1\n      pop\n        /* \"SimpleSwap.sol\":2770:3069  function transfer(address to, uint256 amount) external returns (bool) {... */\n      swap3\n      swap2\n      pop\n      pop\n      jump\t// out\n        /* \"SimpleSwap.sol\":8454:8877  function getPrice(address _tokenA, address _tokenB) external view returns (uint256 price) {... */\n    tag_92:\n        /* \"SimpleSwap.sol\":8529:8542  uint256 price */\n      0x00\n        /* \"SimpleSwap.sol\":8563:8598  _isValidTokenPair(_tokenA, _tokenB) */\n      tag_229\n        /* \"SimpleSwap.sol\":8581:8588  _tokenA */\n      dup4\n        /* \"SimpleSwap.sol\":8590:8597  _tokenB */\n      dup4\n        /* \"SimpleSwap.sol\":8563:8580  _isValidTokenPair */\n      tag_175\n        /* \"SimpleSwap.sol\":8563:8598  _isValidTokenPair(_tokenA, _tokenB) */\n      jump\t// in\n    tag_229:\n        /* \"SimpleSwap.sol\":8555:8621  require(_isValidTokenPair(_tokenA, _tokenB), \"Invalid token pair\") */\n      tag_230\n      jumpi\n      mload(0x40)\n      0x08c379a000000000000000000000000000000000000000000000000000000000\n      dup2\n      mstore\n      0x04\n      add\n      tag_231\n      swap1\n      tag_178\n      jump\t// in\n    tag_231:\n      mload(0x40)\n      dup1\n      swap2\n      sub\n      swap1\n      revert\n    tag_230:\n        /* \"SimpleSwap.sol\":8651:8652  0 */\n      0x00\n        /* \"SimpleSwap.sol\":8640:8648  reserveA */\n      sload(0x08)\n        /* \"SimpleSwap.sol\":8640:8652  reserveA > 0 */\n      gt\n        /* \"SimpleSwap.sol\":8640:8668  reserveA > 0 && reserveB > 0 */\n      dup1\n      iszero\n      tag_232\n      jumpi\n      pop\n        /* \"SimpleSwap.sol\":8667:8668  0 */\n      0x00\n        /* \"SimpleSwap.sol\":8656:8664  reserveB */\n      sload(0x09)\n        /* \"SimpleSwap.sol\":8656:8668  reserveB > 0 */\n      gt\n        /* \"SimpleSwap.sol\":8640:8668  reserveA > 0 && reserveB > 0 */\n    tag_232:\n        /* \"SimpleSwap.sol\":8632:8694  require(reserveA > 0 && reserveB > 0, \"Insufficient reserves\") */\n      tag_233\n      jumpi\n      mload(0x40)\n      0x08c379a000000000000000000000000000000000000000000000000000000000\n      dup2\n      mstore\n      0x04\n      add\n      tag_234\n      swap1\n      tag_127\n      jump\t// in\n    tag_234:\n      mload(0x40)\n      dup1\n      swap2\n      sub\n      swap1\n      revert\n    tag_233:\n        /* \"SimpleSwap.sol\":8730:8736  tokenA */\n      0x06\n      0x00\n      swap1\n      sload\n      swap1\n      0x0100\n      exp\n      swap1\n      div\n      0xffffffffffffffffffffffffffffffffffffffff\n      and\n        /* \"SimpleSwap.sol\":8719:8736  _tokenA == tokenA */\n      0xffffffffffffffffffffffffffffffffffffffff\n      and\n        /* \"SimpleSwap.sol\":8719:8726  _tokenA */\n      dup4\n        /* \"SimpleSwap.sol\":8719:8736  _tokenA == tokenA */\n      0xffffffffffffffffffffffffffffffffffffffff\n      and\n      sub\n        /* \"SimpleSwap.sol\":8715:8870  if (_tokenA == tokenA) {... */\n      tag_235\n      jumpi\n        /* \"SimpleSwap.sol\":8781:8789  reserveA */\n      sload(0x08)\n        /* \"SimpleSwap.sol\":8773:8777  1e18 */\n      0x0de0b6b3a7640000\n        /* \"SimpleSwap.sol\":8762:8770  reserveB */\n      sload(0x09)\n        /* \"SimpleSwap.sol\":8762:8777  reserveB * 1e18 */\n      tag_236\n      swap2\n      swap1\n      tag_131\n      jump\t// in\n    tag_236:\n        /* \"SimpleSwap.sol\":8761:8789  (reserveB * 1e18) / reserveA */\n      tag_237\n      swap2\n      swap1\n      tag_133\n      jump\t// in\n    tag_237:\n        /* \"SimpleSwap.sol\":8753:8789  price = (reserveB * 1e18) / reserveA */\n      swap1\n      pop\n        /* \"SimpleSwap.sol\":8715:8870  if (_tokenA == tokenA) {... */\n      jump(tag_238)\n    tag_235:\n        /* \"SimpleSwap.sol\":8850:8858  reserveB */\n      sload(0x09)\n        /* \"SimpleSwap.sol\":8842:8846  1e18 */\n      0x0de0b6b3a7640000\n        /* \"SimpleSwap.sol\":8831:8839  reserveA */\n      sload(0x08)\n        /* \"SimpleSwap.sol\":8831:8846  reserveA * 1e18 */\n      tag_239\n      swap2\n      swap1\n      tag_131\n      jump\t// in\n    tag_239:\n        /* \"SimpleSwap.sol\":8830:8858  (reserveA * 1e18) / reserveB */\n      tag_240\n      swap2\n      swap1\n      tag_133\n      jump\t// in\n    tag_240:\n        /* \"SimpleSwap.sol\":8822:8858  price = (reserveA * 1e18) / reserveB */\n      swap1\n      pop\n        /* \"SimpleSwap.sol\":8715:8870  if (_tokenA == tokenA) {... */\n    tag_238:\n        /* \"SimpleSwap.sol\":8454:8877  function getPrice(address _tokenA, address _tokenB) external view returns (uint256 price) {... */\n      swap3\n      swap2\n      pop\n      pop\n      jump\t// out\n        /* \"SimpleSwap.sol\":5792:7052  function removeLiquidity(... */\n    tag_97:\n        /* \"SimpleSwap.sol\":6045:6060  uint256 amountA */\n      0x00\n        /* \"SimpleSwap.sol\":6062:6077  uint256 amountB */\n      0x00\n        /* \"SimpleSwap.sol\":6026:6034  deadline */\n      dup3\n        /* \"SimpleSwap.sol\":1983:1998  block.timestamp */\n      timestamp\n        /* \"SimpleSwap.sol\":1971:1979  deadline */\n      dup2\n        /* \"SimpleSwap.sol\":1971:1998  deadline >= block.timestamp */\n      lt\n      iszero\n        /* \"SimpleSwap.sol\":1963:2022  require(deadline >= block.timestamp, \"Transaction expired\") */\n      tag_242\n      jumpi\n      mload(0x40)\n      0x08c379a000000000000000000000000000000000000000000000000000000000\n      dup2\n      mstore\n      0x04\n      add\n      tag_243\n      swap1\n      tag_159\n      jump\t// in\n    tag_243:\n      mload(0x40)\n      dup1\n      swap2\n      sub\n      swap1\n      revert\n    tag_242:\n        /* \"SimpleSwap.sol\":6098:6133  _isValidTokenPair(_tokenA, _tokenB) */\n      tag_245\n        /* \"SimpleSwap.sol\":6116:6123  _tokenA */\n      dup11\n        /* \"SimpleSwap.sol\":6125:6132  _tokenB */\n      dup11\n        /* \"SimpleSwap.sol\":6098:6115  _isValidTokenPair */\n      tag_175\n        /* \"SimpleSwap.sol\":6098:6133  _isValidTokenPair(_tokenA, _tokenB) */\n      jump\t// in\n    tag_245:\n        /* \"SimpleSwap.sol\":6090:6156  require(_isValidTokenPair(_tokenA, _tokenB), \"Invalid token pair\") */\n      tag_246\n      jumpi\n      mload(0x40)\n      0x08c379a000000000000000000000000000000000000000000000000000000000\n      dup2\n      mstore\n      0x04\n      add\n      tag_247\n      swap1\n      tag_178\n      jump\t// in\n    tag_247:\n      mload(0x40)\n      dup1\n      swap2\n      sub\n      swap1\n      revert\n    tag_246:\n        /* \"SimpleSwap.sol\":6189:6190  0 */\n      0x00\n        /* \"SimpleSwap.sol\":6175:6191  to != address(0) */\n      0xffffffffffffffffffffffffffffffffffffffff\n      and\n        /* \"SimpleSwap.sol\":6175:6177  to */\n      dup6\n        /* \"SimpleSwap.sol\":6175:6191  to != address(0) */\n      0xffffffffffffffffffffffffffffffffffffffff\n      and\n      sub\n        /* \"SimpleSwap.sol\":6167:6213  require(to != address(0), \"Invalid recipient\") */\n      tag_248\n      jumpi\n      mload(0x40)\n      0x08c379a000000000000000000000000000000000000000000000000000000000\n      dup2\n      mstore\n      0x04\n      add\n      tag_249\n      swap1\n      tag_166\n      jump\t// in\n    tag_249:\n      mload(0x40)\n      dup1\n      swap2\n      sub\n      swap1\n      revert\n    tag_248:\n        /* \"SimpleSwap.sol\":6244:6245  0 */\n      0x00\n        /* \"SimpleSwap.sol\":6232:6241  liquidity */\n      dup9\n        /* \"SimpleSwap.sol\":6232:6245  liquidity > 0 */\n      gt\n        /* \"SimpleSwap.sol\":6224:6264  require(liquidity > 0, \"Zero liquidity\") */\n      tag_250\n      jumpi\n      mload(0x40)\n      0x08c379a000000000000000000000000000000000000000000000000000000000\n      dup2\n      mstore\n      0x04\n      add\n      tag_251\n      swap1\n      tag_252\n      jump\t// in\n    tag_251:\n      mload(0x40)\n      dup1\n      swap2\n      sub\n      swap1\n      revert\n    tag_250:\n        /* \"SimpleSwap.sol\":6308:6317  liquidity */\n      dup8\n        /* \"SimpleSwap.sol\":6283:6292  balanceOf */\n      0x04\n        /* \"SimpleSwap.sol\":6283:6304  balanceOf[msg.sender] */\n      0x00\n        /* \"SimpleSwap.sol\":6293:6303  msg.sender */\n      caller\n        /* \"SimpleSwap.sol\":6283:6304  balanceOf[msg.sender] */\n      0xffffffffffffffffffffffffffffffffffffffff\n      and\n      0xffffffffffffffffffffffffffffffffffffffff\n      and\n      dup2\n      mstore\n      0x20\n      add\n      swap1\n      dup2\n      mstore\n      0x20\n      add\n      0x00\n      keccak256\n      sload\n        /* \"SimpleSwap.sol\":6283:6317  balanceOf[msg.sender] >= liquidity */\n      lt\n      iszero\n        /* \"SimpleSwap.sol\":6275:6352  require(balanceOf[msg.sender] >= liquidity, \"Insufficient liquidity balance\") */\n      tag_253\n      jumpi\n      mload(0x40)\n      0x08c379a000000000000000000000000000000000000000000000000000000000\n      dup2\n      mstore\n      0x04\n      add\n      tag_254\n      swap1\n      tag_255\n      jump\t// in\n    tag_254:\n      mload(0x40)\n      dup1\n      swap2\n      sub\n      swap1\n      revert\n    tag_253:\n        /* \"SimpleSwap.sol\":6441:6452  totalSupply */\n      sload(0x03)\n        /* \"SimpleSwap.sol\":6429:6437  reserveA */\n      sload(0x08)\n        /* \"SimpleSwap.sol\":6417:6426  liquidity */\n      dup10\n        /* \"SimpleSwap.sol\":6417:6437  liquidity * reserveA */\n      tag_256\n      swap2\n      swap1\n      tag_131\n      jump\t// in\n    tag_256:\n        /* \"SimpleSwap.sol\":6416:6452  (liquidity * reserveA) / totalSupply */\n      tag_257\n      swap2\n      swap1\n      tag_133\n      jump\t// in\n    tag_257:\n        /* \"SimpleSwap.sol\":6406:6452  amountA = (liquidity * reserveA) / totalSupply */\n      swap3\n      pop\n        /* \"SimpleSwap.sol\":6498:6509  totalSupply */\n      sload(0x03)\n        /* \"SimpleSwap.sol\":6486:6494  reserveB */\n      sload(0x09)\n        /* \"SimpleSwap.sol\":6474:6483  liquidity */\n      dup10\n        /* \"SimpleSwap.sol\":6474:6494  liquidity * reserveB */\n      tag_258\n      swap2\n      swap1\n      tag_131\n      jump\t// in\n    tag_258:\n        /* \"SimpleSwap.sol\":6473:6509  (liquidity * reserveB) / totalSupply */\n      tag_259\n      swap2\n      swap1\n      tag_133\n      jump\t// in\n    tag_259:\n        /* \"SimpleSwap.sol\":6463:6509  amountB = (liquidity * reserveB) / totalSupply */\n      swap2\n      pop\n        /* \"SimpleSwap.sol\":6541:6551  amountAMin */\n      dup7\n        /* \"SimpleSwap.sol\":6530:6537  amountA */\n      dup4\n        /* \"SimpleSwap.sol\":6530:6551  amountA >= amountAMin */\n      lt\n      iszero\n        /* \"SimpleSwap.sol\":6522:6577  require(amountA >= amountAMin, \"Insufficient A amount\") */\n      tag_260\n      jumpi\n      mload(0x40)\n      0x08c379a000000000000000000000000000000000000000000000000000000000\n      dup2\n      mstore\n      0x04\n      add\n      tag_261\n      swap1\n      tag_262\n      jump\t// in\n    tag_261:\n      mload(0x40)\n      dup1\n      swap2\n      sub\n      swap1\n      revert\n    tag_260:\n        /* \"SimpleSwap.sol\":6607:6617  amountBMin */\n      dup6\n        /* \"SimpleSwap.sol\":6596:6603  amountB */\n      dup3\n        /* \"SimpleSwap.sol\":6596:6617  amountB >= amountBMin */\n      lt\n      iszero\n        /* \"SimpleSwap.sol\":6588:6643  require(amountB >= amountBMin, \"Insufficient B amount\") */\n      tag_263\n      jumpi\n      mload(0x40)\n      0x08c379a000000000000000000000000000000000000000000000000000000000\n      dup2\n      mstore\n      0x04\n      add\n      tag_264\n      swap1\n      tag_265\n      jump\t// in\n    tag_264:\n      mload(0x40)\n      dup1\n      swap2\n      sub\n      swap1\n      revert\n    tag_263:\n        /* \"SimpleSwap.sol\":6703:6731  _burn(msg.sender, liquidity) */\n      tag_266\n        /* \"SimpleSwap.sol\":6709:6719  msg.sender */\n      caller\n        /* \"SimpleSwap.sol\":6721:6730  liquidity */\n      dup10\n        /* \"SimpleSwap.sol\":6703:6708  _burn */\n      tag_267\n        /* \"SimpleSwap.sol\":6703:6731  _burn(msg.sender, liquidity) */\n      jump\t// in\n    tag_266:\n        /* \"SimpleSwap.sol\":6754:6761  amountA */\n      dup3\n        /* \"SimpleSwap.sol\":6742:6750  reserveA */\n      0x08\n      0x00\n        /* \"SimpleSwap.sol\":6742:6761  reserveA -= amountA */\n      dup3\n      dup3\n      sload\n      tag_268\n      swap2\n      swap1\n      tag_151\n      jump\t// in\n    tag_268:\n      swap3\n      pop\n      pop\n      dup2\n      swap1\n      sstore\n      pop\n        /* \"SimpleSwap.sol\":6784:6791  amountB */\n      dup2\n        /* \"SimpleSwap.sol\":6772:6780  reserveB */\n      0x09\n      0x00\n        /* \"SimpleSwap.sol\":6772:6791  reserveB -= amountB */\n      dup3\n      dup3\n      sload\n      tag_269\n      swap2\n      swap1\n      tag_151\n      jump\t// in\n    tag_269:\n      swap3\n      pop\n      pop\n      dup2\n      swap1\n      sstore\n      pop\n        /* \"SimpleSwap.sol\":6847:6854  _tokenA */\n      dup10\n        /* \"SimpleSwap.sol\":6840:6864  IERC20(_tokenA).transfer */\n      0xffffffffffffffffffffffffffffffffffffffff\n      and\n      0xa9059cbb\n        /* \"SimpleSwap.sol\":6865:6867  to */\n      dup7\n        /* \"SimpleSwap.sol\":6869:6876  amountA */\n      dup6\n        /* \"SimpleSwap.sol\":6840:6877  IERC20(_tokenA).transfer(to, amountA) */\n      mload(0x40)\n      dup4\n      0xffffffff\n      and\n      0xe0\n      shl\n      dup2\n      mstore\n      0x04\n      add\n      tag_270\n      swap3\n      swap2\n      swap1\n      tag_203\n      jump\t// in\n    tag_270:\n      0x20\n      mload(0x40)\n      dup1\n      dup4\n      sub\n      dup2\n      0x00\n      dup8\n      gas\n      call\n      iszero\n      dup1\n      iszero\n      tag_272\n      jumpi\n      returndatacopy(0x00, 0x00, returndatasize)\n      revert(0x00, returndatasize)\n    tag_272:\n      pop\n      pop\n      pop\n      pop\n      mload(0x40)\n      returndatasize\n      not(0x1f)\n      0x1f\n      dup3\n      add\n      and\n      dup3\n      add\n      dup1\n      0x40\n      mstore\n      pop\n      dup2\n      add\n      swap1\n      tag_273\n      swap2\n      swap1\n      tag_198\n      jump\t// in\n    tag_273:\n        /* \"SimpleSwap.sol\":6832:6899  require(IERC20(_tokenA).transfer(to, amountA), \"Transfer A failed\") */\n      tag_274\n      jumpi\n      mload(0x40)\n      0x08c379a000000000000000000000000000000000000000000000000000000000\n      dup2\n      mstore\n      0x04\n      add\n      tag_275\n      swap1\n      tag_276\n      jump\t// in\n    tag_275:\n      mload(0x40)\n      dup1\n      swap2\n      sub\n      swap1\n      revert\n    tag_274:\n        /* \"SimpleSwap.sol\":6925:6932  _tokenB */\n      dup9\n        /* \"SimpleSwap.sol\":6918:6942  IERC20(_tokenB).transfer */\n      0xffffffffffffffffffffffffffffffffffffffff\n      and\n      0xa9059cbb\n        /* \"SimpleSwap.sol\":6943:6945  to */\n      dup7\n        /* \"SimpleSwap.sol\":6947:6954  amountB */\n      dup5\n        /* \"SimpleSwap.sol\":6918:6955  IERC20(_tokenB).transfer(to, amountB) */\n      mload(0x40)\n      dup4\n      0xffffffff\n      and\n      0xe0\n      shl\n      dup2\n      mstore\n      0x04\n      add\n      tag_277\n      swap3\n      swap2\n      swap1\n      tag_203\n      jump\t// in\n    tag_277:\n      0x20\n      mload(0x40)\n      dup1\n      dup4\n      sub\n      dup2\n      0x00\n      dup8\n      gas\n      call\n      iszero\n      dup1\n      iszero\n      tag_279\n      jumpi\n      returndatacopy(0x00, 0x00, returndatasize)\n      revert(0x00, returndatasize)\n    tag_279:\n      pop\n      pop\n      pop\n      pop\n      mload(0x40)\n      returndatasize\n      not(0x1f)\n      0x1f\n      dup3\n      add\n      and\n      dup3\n      add\n      dup1\n      0x40\n      mstore\n      pop\n      dup2\n      add\n      swap1\n      tag_280\n      swap2\n      swap1\n      tag_198\n      jump\t// in\n    tag_280:\n        /* \"SimpleSwap.sol\":6910:6977  require(IERC20(_tokenB).transfer(to, amountB), \"Transfer B failed\") */\n      tag_281\n      jumpi\n      mload(0x40)\n      0x08c379a000000000000000000000000000000000000000000000000000000000\n      dup2\n      mstore\n      0x04\n      add\n      tag_282\n      swap1\n      tag_283\n      jump\t// in\n    tag_282:\n      mload(0x40)\n      dup1\n      swap2\n      sub\n      swap1\n      revert\n    tag_281:\n        /* \"SimpleSwap.sol\":7012:7014  to */\n      dup5\n        /* \"SimpleSwap.sol\":6995:7044  LiquidityRemoved(to, amountA, amountB, liquidity) */\n      0xffffffffffffffffffffffffffffffffffffffff\n      and\n      0x1dc8bb69df2b8e91fbdcbfcf93d951b3f0000f085a95fe3f7946d6161439245d\n        /* \"SimpleSwap.sol\":7016:7023  amountA */\n      dup5\n        /* \"SimpleSwap.sol\":7025:7032  amountB */\n      dup5\n        /* \"SimpleSwap.sol\":7034:7043  liquidity */\n      dup12\n        /* \"SimpleSwap.sol\":6995:7044  LiquidityRemoved(to, amountA, amountB, liquidity) */\n      mload(0x40)\n      tag_284\n      swap4\n      swap3\n      swap2\n      swap1\n      tag_119\n      jump\t// in\n    tag_284:\n      mload(0x40)\n      dup1\n      swap2\n      sub\n      swap1\n      log2\n        /* \"SimpleSwap.sol\":5792:7052  function removeLiquidity(... */\n      pop\n      swap8\n      pop\n      swap8\n      swap6\n      pop\n      pop\n      pop\n      pop\n      pop\n      pop\n      jump\t// out\n        /* \"SimpleSwap.sol\":10235:10357  function getLiquidityShares(address user) external view returns (uint256 shares) {... */\n    tag_101:\n        /* \"SimpleSwap.sol\":10300:10314  uint256 shares */\n      0x00\n        /* \"SimpleSwap.sol\":10334:10343  balanceOf */\n      0x04\n        /* \"SimpleSwap.sol\":10334:10349  balanceOf[user] */\n      0x00\n        /* \"SimpleSwap.sol\":10344:10348  user */\n      dup4\n        /* \"SimpleSwap.sol\":10334:10349  balanceOf[user] */\n      0xffffffffffffffffffffffffffffffffffffffff\n      and\n      0xffffffffffffffffffffffffffffffffffffffff\n      and\n      dup2\n      mstore\n      0x20\n      add\n      swap1\n      dup2\n      mstore\n      0x20\n      add\n      0x00\n      keccak256\n      sload\n        /* \"SimpleSwap.sol\":10327:10349  return balanceOf[user] */\n      swap1\n      pop\n        /* \"SimpleSwap.sol\":10235:10357  function getLiquidityShares(address user) external view returns (uint256 shares) {... */\n      swap2\n      swap1\n      pop\n      jump\t// out\n        /* \"SimpleSwap.sol\":10078:10227  function getSupportedTokens() external view returns (address _tokenA, address _tokenB) {... */\n    tag_104:\n        /* \"SimpleSwap.sol\":10131:10146  address _tokenA */\n      0x00\n        /* \"SimpleSwap.sol\":10148:10163  address _tokenB */\n      0x00\n        /* \"SimpleSwap.sol\":10186:10192  tokenA */\n      0x06\n      0x00\n      swap1\n      sload\n      swap1\n      0x0100\n      exp\n      swap1\n      div\n      0xffffffffffffffffffffffffffffffffffffffff\n      and\n        /* \"SimpleSwap.sol\":10176:10192  _tokenA = tokenA */\n      swap2\n      pop\n        /* \"SimpleSwap.sol\":10213:10219  tokenB */\n      0x07\n      0x00\n      swap1\n      sload\n      swap1\n      0x0100\n      exp\n      swap1\n      div\n      0xffffffffffffffffffffffffffffffffffffffff\n      and\n        /* \"SimpleSwap.sol\":10203:10219  _tokenB = tokenB */\n      swap1\n      pop\n        /* \"SimpleSwap.sol\":10078:10227  function getSupportedTokens() external view returns (address _tokenA, address _tokenB) {... */\n      swap1\n      swap2\n      jump\t// out\n        /* \"SimpleSwap.sol\":821:844  uint256 public reserveA */\n    tag_108:\n      sload(0x08)\n      dup2\n      jump\t// out\n        /* \"SimpleSwap.sol\":634:698  mapping(address => mapping(address => uint256)) public allowance */\n    tag_112:\n      mstore(0x20, 0x05)\n      dup2\n      0x00\n      mstore\n      mstore(0x20, keccak256(0x00, 0x40))\n      dup1\n      0x00\n      mstore\n      keccak256(0x00, 0x40)\n      0x00\n      swap2\n      pop\n      swap2\n      pop\n      pop\n      sload\n      dup2\n      jump\t// out\n        /* \"SimpleSwap.sol\":3549:5784  function addLiquidity(... */\n    tag_117:\n        /* \"SimpleSwap.sol\":3837:3852  uint256 amountA */\n      0x00\n        /* \"SimpleSwap.sol\":3854:3869  uint256 amountB */\n      0x00\n        /* \"SimpleSwap.sol\":3871:3888  uint256 liquidity */\n      0x00\n        /* \"SimpleSwap.sol\":3818:3826  deadline */\n      dup4\n        /* \"SimpleSwap.sol\":1983:1998  block.timestamp */\n      timestamp\n        /* \"SimpleSwap.sol\":1971:1979  deadline */\n      dup2\n        /* \"SimpleSwap.sol\":1971:1998  deadline >= block.timestamp */\n      lt\n      iszero\n        /* \"SimpleSwap.sol\":1963:2022  require(deadline >= block.timestamp, \"Transaction expired\") */\n      tag_288\n      jumpi\n      mload(0x40)\n      0x08c379a000000000000000000000000000000000000000000000000000000000\n      dup2\n      mstore\n      0x04\n      add\n      tag_289\n      swap1\n      tag_159\n      jump\t// in\n    tag_289:\n      mload(0x40)\n      dup1\n      swap2\n      sub\n      swap1\n      revert\n    tag_288:\n        /* \"SimpleSwap.sol\":3909:3944  _isValidTokenPair(_tokenA, _tokenB) */\n      tag_291\n        /* \"SimpleSwap.sol\":3927:3934  _tokenA */\n      dup13\n        /* \"SimpleSwap.sol\":3936:3943  _tokenB */\n      dup13\n        /* \"SimpleSwap.sol\":3909:3926  _isValidTokenPair */\n      tag_175\n        /* \"SimpleSwap.sol\":3909:3944  _isValidTokenPair(_tokenA, _tokenB) */\n      jump\t// in\n    tag_291:\n        /* \"SimpleSwap.sol\":3901:3967  require(_isValidTokenPair(_tokenA, _tokenB), \"Invalid token pair\") */\n      tag_292\n      jumpi\n      mload(0x40)\n      0x08c379a000000000000000000000000000000000000000000000000000000000\n      dup2\n      mstore\n      0x04\n      add\n      tag_293\n      swap1\n      tag_178\n      jump\t// in\n    tag_293:\n      mload(0x40)\n      dup1\n      swap2\n      sub\n      swap1\n      revert\n    tag_292:\n        /* \"SimpleSwap.sol\":4000:4001  0 */\n      0x00\n        /* \"SimpleSwap.sol\":3986:4002  to != address(0) */\n      0xffffffffffffffffffffffffffffffffffffffff\n      and\n        /* \"SimpleSwap.sol\":3986:3988  to */\n      dup7\n        /* \"SimpleSwap.sol\":3986:4002  to != address(0) */\n      0xffffffffffffffffffffffffffffffffffffffff\n      and\n      sub\n        /* \"SimpleSwap.sol\":3978:4024  require(to != address(0), \"Invalid recipient\") */\n      tag_294\n      jumpi\n      mload(0x40)\n      0x08c379a000000000000000000000000000000000000000000000000000000000\n      dup2\n      mstore\n      0x04\n      add\n      tag_295\n      swap1\n      tag_166\n      jump\t// in\n    tag_295:\n      mload(0x40)\n      dup1\n      swap2\n      sub\n      swap1\n      revert\n    tag_294:\n        /* \"SimpleSwap.sol\":4053:4054  0 */\n      0x00\n        /* \"SimpleSwap.sol\":4041:4049  reserveA */\n      sload(0x08)\n        /* \"SimpleSwap.sol\":4041:4054  reserveA == 0 */\n      eq\n        /* \"SimpleSwap.sol\":4041:4071  reserveA == 0 && reserveB == 0 */\n      dup1\n      iszero\n      tag_296\n      jumpi\n      pop\n        /* \"SimpleSwap.sol\":4070:4071  0 */\n      0x00\n        /* \"SimpleSwap.sol\":4058:4066  reserveB */\n      sload(0x09)\n        /* \"SimpleSwap.sol\":4058:4071  reserveB == 0 */\n      eq\n        /* \"SimpleSwap.sol\":4041:4071  reserveA == 0 && reserveB == 0 */\n    tag_296:\n        /* \"SimpleSwap.sol\":4037:4885  if (reserveA == 0 && reserveB == 0) {... */\n      iszero\n      tag_297\n      jumpi\n        /* \"SimpleSwap.sol\":4140:4154  amountADesired */\n      dup10\n        /* \"SimpleSwap.sol\":4130:4154  amountA = amountADesired */\n      swap4\n      pop\n        /* \"SimpleSwap.sol\":4179:4193  amountBDesired */\n      dup9\n        /* \"SimpleSwap.sol\":4169:4193  amountB = amountBDesired */\n      swap3\n      pop\n        /* \"SimpleSwap.sol\":4037:4885  if (reserveA == 0 && reserveB == 0) {... */\n      jump(tag_298)\n    tag_297:\n        /* \"SimpleSwap.sol\":4268:4290  uint256 amountBOptimal */\n      0x00\n        /* \"SimpleSwap.sol\":4323:4331  reserveA */\n      sload(0x08)\n        /* \"SimpleSwap.sol\":4311:4319  reserveB */\n      sload(0x09)\n        /* \"SimpleSwap.sol\":4294:4308  amountADesired */\n      dup13\n        /* \"SimpleSwap.sol\":4294:4319  amountADesired * reserveB */\n      tag_299\n      swap2\n      swap1\n      tag_131\n      jump\t// in\n    tag_299:\n        /* \"SimpleSwap.sol\":4293:4331  (amountADesired * reserveB) / reserveA */\n      tag_300\n      swap2\n      swap1\n      tag_133\n      jump\t// in\n    tag_300:\n        /* \"SimpleSwap.sol\":4268:4331  uint256 amountBOptimal = (amountADesired * reserveB) / reserveA */\n      swap1\n      pop\n        /* \"SimpleSwap.sol\":4368:4382  amountBDesired */\n      dup10\n        /* \"SimpleSwap.sol\":4350:4364  amountBOptimal */\n      dup2\n        /* \"SimpleSwap.sol\":4350:4382  amountBOptimal <= amountBDesired */\n      gt\n        /* \"SimpleSwap.sol\":4346:4874  if (amountBOptimal <= amountBDesired) {... */\n      tag_301\n      jumpi\n        /* \"SimpleSwap.sol\":4429:4439  amountBMin */\n      dup8\n        /* \"SimpleSwap.sol\":4411:4425  amountBOptimal */\n      dup2\n        /* \"SimpleSwap.sol\":4411:4439  amountBOptimal >= amountBMin */\n      lt\n      iszero\n        /* \"SimpleSwap.sol\":4403:4465  require(amountBOptimal >= amountBMin, \"Insufficient B amount\") */\n      tag_302\n      jumpi\n      mload(0x40)\n      0x08c379a000000000000000000000000000000000000000000000000000000000\n      dup2\n      mstore\n      0x04\n      add\n      tag_303\n      swap1\n      tag_265\n      jump\t// in\n    tag_303:\n      mload(0x40)\n      dup1\n      swap2\n      sub\n      swap1\n      revert\n    tag_302:\n        /* \"SimpleSwap.sol\":4494:4508  amountADesired */\n      dup11\n        /* \"SimpleSwap.sol\":4484:4508  amountA = amountADesired */\n      swap5\n      pop\n        /* \"SimpleSwap.sol\":4537:4551  amountBOptimal */\n      dup1\n        /* \"SimpleSwap.sol\":4527:4551  amountB = amountBOptimal */\n      swap4\n      pop\n        /* \"SimpleSwap.sol\":4346:4874  if (amountBOptimal <= amountBDesired) {... */\n      jump(tag_304)\n    tag_301:\n        /* \"SimpleSwap.sol\":4592:4614  uint256 amountAOptimal */\n      0x00\n        /* \"SimpleSwap.sol\":4647:4655  reserveB */\n      sload(0x09)\n        /* \"SimpleSwap.sol\":4635:4643  reserveA */\n      sload(0x08)\n        /* \"SimpleSwap.sol\":4618:4632  amountBDesired */\n      dup13\n        /* \"SimpleSwap.sol\":4618:4643  amountBDesired * reserveA */\n      tag_305\n      swap2\n      swap1\n      tag_131\n      jump\t// in\n    tag_305:\n        /* \"SimpleSwap.sol\":4617:4655  (amountBDesired * reserveA) / reserveB */\n      tag_306\n      swap2\n      swap1\n      tag_133\n      jump\t// in\n    tag_306:\n        /* \"SimpleSwap.sol\":4592:4655  uint256 amountAOptimal = (amountBDesired * reserveA) / reserveB */\n      swap1\n      pop\n        /* \"SimpleSwap.sol\":4700:4714  amountADesired */\n      dup12\n        /* \"SimpleSwap.sol\":4682:4696  amountAOptimal */\n      dup2\n        /* \"SimpleSwap.sol\":4682:4714  amountAOptimal <= amountADesired */\n      gt\n      iszero\n        /* \"SimpleSwap.sol\":4682:4746  amountAOptimal <= amountADesired && amountAOptimal >= amountAMin */\n      dup1\n      iszero\n      tag_307\n      jumpi\n      pop\n        /* \"SimpleSwap.sol\":4736:4746  amountAMin */\n      dup10\n        /* \"SimpleSwap.sol\":4718:4732  amountAOptimal */\n      dup2\n        /* \"SimpleSwap.sol\":4718:4746  amountAOptimal >= amountAMin */\n      lt\n      iszero\n        /* \"SimpleSwap.sol\":4682:4746  amountAOptimal <= amountADesired && amountAOptimal >= amountAMin */\n    tag_307:\n        /* \"SimpleSwap.sol\":4674:4772  require(amountAOptimal <= amountADesired && amountAOptimal >= amountAMin, \"Insufficient A amount\") */\n      tag_308\n      jumpi\n      mload(0x40)\n      0x08c379a000000000000000000000000000000000000000000000000000000000\n      dup2\n      mstore\n      0x04\n      add\n      tag_309\n      swap1\n      tag_262\n      jump\t// in\n    tag_309:\n      mload(0x40)\n      dup1\n      swap2\n      sub\n      swap1\n      revert\n    tag_308:\n        /* \"SimpleSwap.sol\":4801:4815  amountAOptimal */\n      dup1\n        /* \"SimpleSwap.sol\":4791:4815  amountA = amountAOptimal */\n      swap6\n      pop\n        /* \"SimpleSwap.sol\":4844:4858  amountBDesired */\n      dup11\n        /* \"SimpleSwap.sol\":4834:4858  amountB = amountBDesired */\n      swap5\n      pop\n        /* \"SimpleSwap.sol\":4573:4874  {... */\n      pop\n        /* \"SimpleSwap.sol\":4346:4874  if (amountBOptimal <= amountBDesired) {... */\n    tag_304:\n        /* \"SimpleSwap.sol\":4211:4885  {... */\n      pop\n        /* \"SimpleSwap.sol\":4037:4885  if (reserveA == 0 && reserveB == 0) {... */\n    tag_298:\n        /* \"SimpleSwap.sol\":4940:4947  _tokenA */\n      dup12\n        /* \"SimpleSwap.sol\":4933:4961  IERC20(_tokenA).transferFrom */\n      0xffffffffffffffffffffffffffffffffffffffff\n      and\n      0x23b872dd\n        /* \"SimpleSwap.sol\":4962:4972  msg.sender */\n      caller\n        /* \"SimpleSwap.sol\":4982:4986  this */\n      address\n        /* \"SimpleSwap.sol\":4989:4996  amountA */\n      dup8\n        /* \"SimpleSwap.sol\":4933:4997  IERC20(_tokenA).transferFrom(msg.sender, address(this), amountA) */\n      mload(0x40)\n      dup5\n      0xffffffff\n      and\n      0xe0\n      shl\n      dup2\n      mstore\n      0x04\n      add\n      tag_310\n      swap4\n      swap3\n      swap2\n      swap1\n      tag_194\n      jump\t// in\n    tag_310:\n      0x20\n      mload(0x40)\n      dup1\n      dup4\n      sub\n      dup2\n      0x00\n      dup8\n      gas\n      call\n      iszero\n      dup1\n      iszero\n      tag_312\n      jumpi\n      returndatacopy(0x00, 0x00, returndatasize)\n      revert(0x00, returndatasize)\n    tag_312:\n      pop\n      pop\n      pop\n      pop\n      mload(0x40)\n      returndatasize\n      not(0x1f)\n      0x1f\n      dup3\n      add\n      and\n      dup3\n      add\n      dup1\n      0x40\n      mstore\n      pop\n      dup2\n      add\n      swap1\n      tag_313\n      swap2\n      swap1\n      tag_198\n      jump\t// in\n    tag_313:\n        /* \"SimpleSwap.sol\":4925:5019  require(IERC20(_tokenA).transferFrom(msg.sender, address(this), amountA), \"Transfer A failed\") */\n      tag_314\n      jumpi\n      mload(0x40)\n      0x08c379a000000000000000000000000000000000000000000000000000000000\n      dup2\n      mstore\n      0x04\n      add\n      tag_315\n      swap1\n      tag_276\n      jump\t// in\n    tag_315:\n      mload(0x40)\n      dup1\n      swap2\n      sub\n      swap1\n      revert\n    tag_314:\n        /* \"SimpleSwap.sol\":5045:5052  _tokenB */\n      dup11\n        /* \"SimpleSwap.sol\":5038:5066  IERC20(_tokenB).transferFrom */\n      0xffffffffffffffffffffffffffffffffffffffff\n      and\n      0x23b872dd\n        /* \"SimpleSwap.sol\":5067:5077  msg.sender */\n      caller\n        /* \"SimpleSwap.sol\":5087:5091  this */\n      address\n        /* \"SimpleSwap.sol\":5094:5101  amountB */\n      dup7\n        /* \"SimpleSwap.sol\":5038:5102  IERC20(_tokenB).transferFrom(msg.sender, address(this), amountB) */\n      mload(0x40)\n      dup5\n      0xffffffff\n      and\n      0xe0\n      shl\n      dup2\n      mstore\n      0x04\n      add\n      tag_316\n      swap4\n      swap3\n      swap2\n      swap1\n      tag_194\n      jump\t// in\n    tag_316:\n      0x20\n      mload(0x40)\n      dup1\n      dup4\n      sub\n      dup2\n      0x00\n      dup8\n      gas\n      call\n      iszero\n      dup1\n      iszero\n      tag_318\n      jumpi\n      returndatacopy(0x00, 0x00, returndatasize)\n      revert(0x00, returndatasize)\n    tag_318:\n      pop\n      pop\n      pop\n      pop\n      mload(0x40)\n      returndatasize\n      not(0x1f)\n      0x1f\n      dup3\n      add\n      and\n      dup3\n      add\n      dup1\n      0x40\n      mstore\n      pop\n      dup2\n      add\n      swap1\n      tag_319\n      swap2\n      swap1\n      tag_198\n      jump\t// in\n    tag_319:\n        /* \"SimpleSwap.sol\":5030:5124  require(IERC20(_tokenB).transferFrom(msg.sender, address(this), amountB), \"Transfer B failed\") */\n      tag_320\n      jumpi\n      mload(0x40)\n      0x08c379a000000000000000000000000000000000000000000000000000000000\n      dup2\n      mstore\n      0x04\n      add\n      tag_321\n      swap1\n      tag_283\n      jump\t// in\n    tag_321:\n      mload(0x40)\n      dup1\n      swap2\n      sub\n      swap1\n      revert\n    tag_320:\n        /* \"SimpleSwap.sol\":946:950  1000 */\n      0x03e8\n        /* \"SimpleSwap.sol\":5173:5184  totalSupply */\n      sload(0x03)\n        /* \"SimpleSwap.sol\":5173:5205  totalSupply == MINIMUM_LIQUIDITY */\n      sub\n        /* \"SimpleSwap.sol\":5169:5504  if (totalSupply == MINIMUM_LIQUIDITY) {... */\n      tag_322\n      jumpi\n        /* \"SimpleSwap.sol\":5234:5258  _sqrt(amountA * amountB) */\n      tag_323\n        /* \"SimpleSwap.sol\":5250:5257  amountB */\n      dup4\n        /* \"SimpleSwap.sol\":5240:5247  amountA */\n      dup6\n        /* \"SimpleSwap.sol\":5240:5257  amountA * amountB */\n      tag_324\n      swap2\n      swap1\n      tag_131\n      jump\t// in\n    tag_324:\n        /* \"SimpleSwap.sol\":5234:5239  _sqrt */\n      tag_325\n        /* \"SimpleSwap.sol\":5234:5258  _sqrt(amountA * amountB) */\n      jump\t// in\n    tag_323:\n        /* \"SimpleSwap.sol\":5222:5258  liquidity = _sqrt(amountA * amountB) */\n      swap2\n      pop\n        /* \"SimpleSwap.sol\":5169:5504  if (totalSupply == MINIMUM_LIQUIDITY) {... */\n      jump(tag_326)\n    tag_322:\n        /* \"SimpleSwap.sol\":5291:5309  uint256 liquidityA */\n      0x00\n        /* \"SimpleSwap.sol\":5338:5346  reserveA */\n      sload(0x08)\n        /* \"SimpleSwap.sol\":5323:5334  totalSupply */\n      sload(0x03)\n        /* \"SimpleSwap.sol\":5313:5320  amountA */\n      dup7\n        /* \"SimpleSwap.sol\":5313:5334  amountA * totalSupply */\n      tag_327\n      swap2\n      swap1\n      tag_131\n      jump\t// in\n    tag_327:\n        /* \"SimpleSwap.sol\":5312:5346  (amountA * totalSupply) / reserveA */\n      tag_328\n      swap2\n      swap1\n      tag_133\n      jump\t// in\n    tag_328:\n        /* \"SimpleSwap.sol\":5291:5346  uint256 liquidityA = (amountA * totalSupply) / reserveA */\n      swap1\n      pop\n        /* \"SimpleSwap.sol\":5361:5379  uint256 liquidityB */\n      0x00\n        /* \"SimpleSwap.sol\":5408:5416  reserveB */\n      sload(0x09)\n        /* \"SimpleSwap.sol\":5393:5404  totalSupply */\n      sload(0x03)\n        /* \"SimpleSwap.sol\":5383:5390  amountB */\n      dup7\n        /* \"SimpleSwap.sol\":5383:5404  amountB * totalSupply */\n      tag_329\n      swap2\n      swap1\n      tag_131\n      jump\t// in\n    tag_329:\n        /* \"SimpleSwap.sol\":5382:5416  (amountB * totalSupply) / reserveB */\n      tag_330\n      swap2\n      swap1\n      tag_133\n      jump\t// in\n    tag_330:\n        /* \"SimpleSwap.sol\":5361:5416  uint256 liquidityB = (amountB * totalSupply) / reserveB */\n      swap1\n      pop\n        /* \"SimpleSwap.sol\":5456:5466  liquidityB */\n      dup1\n        /* \"SimpleSwap.sol\":5443:5453  liquidityA */\n      dup3\n        /* \"SimpleSwap.sol\":5443:5466  liquidityA < liquidityB */\n      lt\n        /* \"SimpleSwap.sol\":5443:5492  liquidityA < liquidityB ? liquidityA : liquidityB */\n      tag_331\n      jumpi\n        /* \"SimpleSwap.sol\":5482:5492  liquidityB */\n      dup1\n        /* \"SimpleSwap.sol\":5443:5492  liquidityA < liquidityB ? liquidityA : liquidityB */\n      jump(tag_332)\n    tag_331:\n        /* \"SimpleSwap.sol\":5469:5479  liquidityA */\n      dup2\n        /* \"SimpleSwap.sol\":5443:5492  liquidityA < liquidityB ? liquidityA : liquidityB */\n    tag_332:\n        /* \"SimpleSwap.sol\":5431:5492  liquidity = liquidityA < liquidityB ? liquidityA : liquidityB */\n      swap4\n      pop\n        /* \"SimpleSwap.sol\":5276:5504  {... */\n      pop\n      pop\n        /* \"SimpleSwap.sol\":5169:5504  if (totalSupply == MINIMUM_LIQUIDITY) {... */\n    tag_326:\n        /* \"SimpleSwap.sol\":5536:5537  0 */\n      0x00\n        /* \"SimpleSwap.sol\":5524:5533  liquidity */\n      dup3\n        /* \"SimpleSwap.sol\":5524:5537  liquidity > 0 */\n      gt\n        /* \"SimpleSwap.sol\":5516:5571  require(liquidity > 0, \"Insufficient liquidity minted\") */\n      tag_333\n      jumpi\n      mload(0x40)\n      0x08c379a000000000000000000000000000000000000000000000000000000000\n      dup2\n      mstore\n      0x04\n      add\n      tag_334\n      swap1\n      tag_335\n      jump\t// in\n    tag_334:\n      mload(0x40)\n      dup1\n      swap2\n      sub\n      swap1\n      revert\n    tag_333:\n        /* \"SimpleSwap.sol\":5643:5650  amountA */\n      dup4\n        /* \"SimpleSwap.sol\":5631:5639  reserveA */\n      0x08\n      0x00\n        /* \"SimpleSwap.sol\":5631:5650  reserveA += amountA */\n      dup3\n      dup3\n      sload\n      tag_336\n      swap2\n      swap1\n      tag_129\n      jump\t// in\n    tag_336:\n      swap3\n      pop\n      pop\n      dup2\n      swap1\n      sstore\n      pop\n        /* \"SimpleSwap.sol\":5673:5680  amountB */\n      dup3\n        /* \"SimpleSwap.sol\":5661:5669  reserveB */\n      0x09\n      0x00\n        /* \"SimpleSwap.sol\":5661:5680  reserveB += amountB */\n      dup3\n      dup3\n      sload\n      tag_337\n      swap2\n      swap1\n      tag_129\n      jump\t// in\n    tag_337:\n      swap3\n      pop\n      pop\n      dup2\n      swap1\n      sstore\n      pop\n        /* \"SimpleSwap.sol\":5691:5711  _mint(to, liquidity) */\n      tag_338\n        /* \"SimpleSwap.sol\":5697:5699  to */\n      dup7\n        /* \"SimpleSwap.sol\":5701:5710  liquidity */\n      dup4\n        /* \"SimpleSwap.sol\":5691:5696  _mint */\n      tag_339\n        /* \"SimpleSwap.sol\":5691:5711  _mint(to, liquidity) */\n      jump\t// in\n    tag_338:\n        /* \"SimpleSwap.sol\":5744:5746  to */\n      dup6\n        /* \"SimpleSwap.sol\":5729:5776  LiquidityAdded(to, amountA, amountB, liquidity) */\n      0xffffffffffffffffffffffffffffffffffffffff\n      and\n      0x64b83944e79c3ce8d4c297411de637c3e102d064677aac0c163976ebdcd6f50e\n        /* \"SimpleSwap.sol\":5748:5755  amountA */\n      dup6\n        /* \"SimpleSwap.sol\":5757:5764  amountB */\n      dup6\n        /* \"SimpleSwap.sol\":5766:5775  liquidity */\n      dup6\n        /* \"SimpleSwap.sol\":5729:5776  LiquidityAdded(to, amountA, amountB, liquidity) */\n      mload(0x40)\n      tag_340\n      swap4\n      swap3\n      swap2\n      swap1\n      tag_119\n      jump\t// in\n    tag_340:\n      mload(0x40)\n      dup1\n      swap2\n      sub\n      swap1\n      log2\n        /* \"SimpleSwap.sol\":3549:5784  function addLiquidity(... */\n      pop\n      swap9\n      pop\n      swap9\n      pop\n      swap9\n      swap6\n      pop\n      pop\n      pop\n      pop\n      pop\n      pop\n      jump\t// out\n        /* \"SimpleSwap.sol\":9364:9564  function _isValidTokenPair(address _tokenA, address _tokenB) internal view returns (bool) {... */\n    tag_175:\n        /* \"SimpleSwap.sol\":9448:9452  bool */\n      0x00\n        /* \"SimpleSwap.sol\":9484:9490  tokenA */\n      0x06\n      0x00\n      swap1\n      sload\n      swap1\n      0x0100\n      exp\n      swap1\n      div\n      0xffffffffffffffffffffffffffffffffffffffff\n      and\n        /* \"SimpleSwap.sol\":9473:9490  _tokenA == tokenA */\n      0xffffffffffffffffffffffffffffffffffffffff\n      and\n        /* \"SimpleSwap.sol\":9473:9480  _tokenA */\n      dup4\n        /* \"SimpleSwap.sol\":9473:9490  _tokenA == tokenA */\n      0xffffffffffffffffffffffffffffffffffffffff\n      and\n      eq\n        /* \"SimpleSwap.sol\":9473:9511  _tokenA == tokenA && _tokenB == tokenB */\n      dup1\n      iszero\n      tag_342\n      jumpi\n      pop\n        /* \"SimpleSwap.sol\":9505:9511  tokenB */\n      0x07\n      0x00\n      swap1\n      sload\n      swap1\n      0x0100\n      exp\n      swap1\n      div\n      0xffffffffffffffffffffffffffffffffffffffff\n      and\n        /* \"SimpleSwap.sol\":9494:9511  _tokenB == tokenB */\n      0xffffffffffffffffffffffffffffffffffffffff\n      and\n        /* \"SimpleSwap.sol\":9494:9501  _tokenB */\n      dup3\n        /* \"SimpleSwap.sol\":9494:9511  _tokenB == tokenB */\n      0xffffffffffffffffffffffffffffffffffffffff\n      and\n      eq\n        /* \"SimpleSwap.sol\":9473:9511  _tokenA == tokenA && _tokenB == tokenB */\n    tag_342:\n        /* \"SimpleSwap.sol\":9472:9556  (_tokenA == tokenA && _tokenB == tokenB) || (_tokenA == tokenB && _tokenB == tokenA) */\n      dup1\n      tag_343\n      jumpi\n      pop\n        /* \"SimpleSwap.sol\":9528:9534  tokenB */\n      0x07\n      0x00\n      swap1\n      sload\n      swap1\n      0x0100\n      exp\n      swap1\n      div\n      0xffffffffffffffffffffffffffffffffffffffff\n      and\n        /* \"SimpleSwap.sol\":9517:9534  _tokenA == tokenB */\n      0xffffffffffffffffffffffffffffffffffffffff\n      and\n        /* \"SimpleSwap.sol\":9517:9524  _tokenA */\n      dup4\n        /* \"SimpleSwap.sol\":9517:9534  _tokenA == tokenB */\n      0xffffffffffffffffffffffffffffffffffffffff\n      and\n      eq\n        /* \"SimpleSwap.sol\":9517:9555  _tokenA == tokenB && _tokenB == tokenA */\n      dup1\n      iszero\n      tag_344\n      jumpi\n      pop\n        /* \"SimpleSwap.sol\":9549:9555  tokenA */\n      0x06\n      0x00\n      swap1\n      sload\n      swap1\n      0x0100\n      exp\n      swap1\n      div\n      0xffffffffffffffffffffffffffffffffffffffff\n      and\n        /* \"SimpleSwap.sol\":9538:9555  _tokenB == tokenA */\n      0xffffffffffffffffffffffffffffffffffffffff\n      and\n        /* \"SimpleSwap.sol\":9538:9545  _tokenB */\n      dup3\n        /* \"SimpleSwap.sol\":9538:9555  _tokenB == tokenA */\n      0xffffffffffffffffffffffffffffffffffffffff\n      and\n      eq\n        /* \"SimpleSwap.sol\":9517:9555  _tokenA == tokenB && _tokenB == tokenA */\n    tag_344:\n        /* \"SimpleSwap.sol\":9472:9556  (_tokenA == tokenA && _tokenB == tokenB) || (_tokenA == tokenB && _tokenB == tokenA) */\n    tag_343:\n        /* \"SimpleSwap.sol\":9465:9556  return (_tokenA == tokenA && _tokenB == tokenB) || (_tokenA == tokenB && _tokenB == tokenA) */\n      swap1\n      pop\n        /* \"SimpleSwap.sol\":9364:9564  function _isValidTokenPair(address _tokenA, address _tokenB) internal view returns (bool) {... */\n      swap3\n      swap2\n      pop\n      pop\n      jump\t// out\n        /* \"SimpleSwap.sol\":2265:2514  function _burn(address from, uint256 amount) internal {... */\n    tag_267:\n        /* \"SimpleSwap.sol\":2357:2363  amount */\n      dup1\n        /* \"SimpleSwap.sol\":2338:2347  balanceOf */\n      0x04\n        /* \"SimpleSwap.sol\":2338:2353  balanceOf[from] */\n      0x00\n        /* \"SimpleSwap.sol\":2348:2352  from */\n      dup5\n        /* \"SimpleSwap.sol\":2338:2353  balanceOf[from] */\n      0xffffffffffffffffffffffffffffffffffffffff\n      and\n      0xffffffffffffffffffffffffffffffffffffffff\n      and\n      dup2\n      mstore\n      0x20\n      add\n      swap1\n      dup2\n      mstore\n      0x20\n      add\n      0x00\n      keccak256\n      sload\n        /* \"SimpleSwap.sol\":2338:2363  balanceOf[from] >= amount */\n      lt\n      iszero\n        /* \"SimpleSwap.sol\":2330:2388  require(balanceOf[from] >= amount, \"Burn exceeds balance\") */\n      tag_346\n      jumpi\n      mload(0x40)\n      0x08c379a000000000000000000000000000000000000000000000000000000000\n      dup2\n      mstore\n      0x04\n      add\n      tag_347\n      swap1\n      tag_348\n      jump\t// in\n    tag_347:\n      mload(0x40)\n      dup1\n      swap2\n      sub\n      swap1\n      revert\n    tag_346:\n        /* \"SimpleSwap.sol\":2418:2424  amount */\n      dup1\n        /* \"SimpleSwap.sol\":2399:2408  balanceOf */\n      0x04\n        /* \"SimpleSwap.sol\":2399:2414  balanceOf[from] */\n      0x00\n        /* \"SimpleSwap.sol\":2409:2413  from */\n      dup5\n        /* \"SimpleSwap.sol\":2399:2414  balanceOf[from] */\n      0xffffffffffffffffffffffffffffffffffffffff\n      and\n      0xffffffffffffffffffffffffffffffffffffffff\n      and\n      dup2\n      mstore\n      0x20\n      add\n      swap1\n      dup2\n      mstore\n      0x20\n      add\n      0x00\n      keccak256\n      0x00\n        /* \"SimpleSwap.sol\":2399:2424  balanceOf[from] -= amount */\n      dup3\n      dup3\n      sload\n      tag_349\n      swap2\n      swap1\n      tag_151\n      jump\t// in\n    tag_349:\n      swap3\n      pop\n      pop\n      dup2\n      swap1\n      sstore\n      pop\n        /* \"SimpleSwap.sol\":2450:2456  amount */\n      dup1\n        /* \"SimpleSwap.sol\":2435:2446  totalSupply */\n      0x03\n      0x00\n        /* \"SimpleSwap.sol\":2435:2456  totalSupply -= amount */\n      dup3\n      dup3\n      sload\n      tag_350\n      swap2\n      swap1\n      tag_151\n      jump\t// in\n    tag_350:\n      swap3\n      pop\n      pop\n      dup2\n      swap1\n      sstore\n      pop\n        /* \"SimpleSwap.sol\":2495:2496  0 */\n      0x00\n        /* \"SimpleSwap.sol\":2472:2506  Transfer(from, address(0), amount) */\n      0xffffffffffffffffffffffffffffffffffffffff\n      and\n        /* \"SimpleSwap.sol\":2481:2485  from */\n      dup3\n        /* \"SimpleSwap.sol\":2472:2506  Transfer(from, address(0), amount) */\n      0xffffffffffffffffffffffffffffffffffffffff\n      and\n      0xddf252ad1be2c89b69c2b068fc378daa952ba7f163c4a11628f55a4df523b3ef\n        /* \"SimpleSwap.sol\":2499:2505  amount */\n      dup4\n        /* \"SimpleSwap.sol\":2472:2506  Transfer(from, address(0), amount) */\n      mload(0x40)\n      tag_351\n      swap2\n      swap1\n      tag_33\n      jump\t// in\n    tag_351:\n      mload(0x40)\n      dup1\n      swap2\n      sub\n      swap1\n      log3\n        /* \"SimpleSwap.sol\":2265:2514  function _burn(address from, uint256 amount) internal {... */\n      pop\n      pop\n      jump\t// out\n        /* \"SimpleSwap.sol\":9572:9885  function _sqrt(uint256 y) internal pure returns (uint256 z) {... */\n    tag_325:\n        /* \"SimpleSwap.sol\":9621:9630  uint256 z */\n      0x00\n        /* \"SimpleSwap.sol\":9651:9652  3 */\n      0x03\n        /* \"SimpleSwap.sol\":9647:9648  y */\n      dup3\n        /* \"SimpleSwap.sol\":9647:9652  y > 3 */\n      gt\n        /* \"SimpleSwap.sol\":9643:9878  if (y > 3) {... */\n      iszero\n      tag_353\n      jumpi\n        /* \"SimpleSwap.sol\":9673:9674  y */\n      dup2\n        /* \"SimpleSwap.sol\":9669:9674  z = y */\n      swap1\n      pop\n        /* \"SimpleSwap.sol\":9689:9698  uint256 x */\n      0x00\n        /* \"SimpleSwap.sol\":9709:9710  1 */\n      0x01\n        /* \"SimpleSwap.sol\":9705:9706  2 */\n      0x02\n        /* \"SimpleSwap.sol\":9701:9702  y */\n      dup5\n        /* \"SimpleSwap.sol\":9701:9706  y / 2 */\n      tag_354\n      swap2\n      swap1\n      tag_133\n      jump\t// in\n    tag_354:\n        /* \"SimpleSwap.sol\":9701:9710  y / 2 + 1 */\n      tag_355\n      swap2\n      swap1\n      tag_129\n      jump\t// in\n    tag_355:\n        /* \"SimpleSwap.sol\":9689:9710  uint256 x = y / 2 + 1 */\n      swap1\n      pop\n        /* \"SimpleSwap.sol\":9725:9817  while (x < z) {... */\n    tag_356:\n        /* \"SimpleSwap.sol\":9736:9737  z */\n      dup2\n        /* \"SimpleSwap.sol\":9732:9733  x */\n      dup2\n        /* \"SimpleSwap.sol\":9732:9737  x < z */\n      lt\n        /* \"SimpleSwap.sol\":9725:9817  while (x < z) {... */\n      iszero\n      tag_357\n      jumpi\n        /* \"SimpleSwap.sol\":9762:9763  x */\n      dup1\n        /* \"SimpleSwap.sol\":9758:9763  z = x */\n      swap2\n      pop\n        /* \"SimpleSwap.sol\":9800:9801  2 */\n      0x02\n        /* \"SimpleSwap.sol\":9795:9796  x */\n      dup2\n        /* \"SimpleSwap.sol\":9791:9792  x */\n      dup3\n        /* \"SimpleSwap.sol\":9787:9788  y */\n      dup6\n        /* \"SimpleSwap.sol\":9787:9792  y / x */\n      tag_358\n      swap2\n      swap1\n      tag_133\n      jump\t// in\n    tag_358:\n        /* \"SimpleSwap.sol\":9787:9796  y / x + x */\n      tag_359\n      swap2\n      swap1\n      tag_129\n      jump\t// in\n    tag_359:\n        /* \"SimpleSwap.sol\":9786:9801  (y / x + x) / 2 */\n      tag_360\n      swap2\n      swap1\n      tag_133\n      jump\t// in\n    tag_360:\n        /* \"SimpleSwap.sol\":9782:9801  x = (y / x + x) / 2 */\n      swap1\n      pop\n        /* \"SimpleSwap.sol\":9725:9817  while (x < z) {... */\n      jump(tag_356)\n    tag_357:\n        /* \"SimpleSwap.sol\":9654:9828  {... */\n      pop\n        /* \"SimpleSwap.sol\":9643:9878  if (y > 3) {... */\n      jump(tag_361)\n    tag_353:\n        /* \"SimpleSwap.sol\":9843:9844  0 */\n      0x00\n        /* \"SimpleSwap.sol\":9838:9839  y */\n      dup3\n        /* \"SimpleSwap.sol\":9838:9844  y != 0 */\n      eq\n        /* \"SimpleSwap.sol\":9834:9878  if (y != 0) {... */\n      tag_362\n      jumpi\n        /* \"SimpleSwap.sol\":9865:9866  1 */\n      0x01\n        /* \"SimpleSwap.sol\":9861:9866  z = 1 */\n      swap1\n      pop\n        /* \"SimpleSwap.sol\":9834:9878  if (y != 0) {... */\n    tag_362:\n        /* \"SimpleSwap.sol\":9643:9878  if (y > 3) {... */\n    tag_361:\n        /* \"SimpleSwap.sol\":9572:9885  function _sqrt(uint256 y) internal pure returns (uint256 z) {... */\n      swap2\n      swap1\n      pop\n      jump\t// out\n        /* \"SimpleSwap.sol\":2083:2257  function _mint(address to, uint256 amount) internal {... */\n    tag_339:\n        /* \"SimpleSwap.sol\":2161:2167  amount */\n      dup1\n        /* \"SimpleSwap.sol\":2146:2157  totalSupply */\n      0x03\n      0x00\n        /* \"SimpleSwap.sol\":2146:2167  totalSupply += amount */\n      dup3\n      dup3\n      sload\n      tag_364\n      swap2\n      swap1\n      tag_129\n      jump\t// in\n    tag_364:\n      swap3\n      pop\n      pop\n      dup2\n      swap1\n      sstore\n      pop\n        /* \"SimpleSwap.sol\":2195:2201  amount */\n      dup1\n        /* \"SimpleSwap.sol\":2178:2187  balanceOf */\n      0x04\n        /* \"SimpleSwap.sol\":2178:2191  balanceOf[to] */\n      0x00\n        /* \"SimpleSwap.sol\":2188:2190  to */\n      dup5\n        /* \"SimpleSwap.sol\":2178:2191  balanceOf[to] */\n      0xffffffffffffffffffffffffffffffffffffffff\n      and\n      0xffffffffffffffffffffffffffffffffffffffff\n      and\n      dup2\n      mstore\n      0x20\n      add\n      swap1\n      dup2\n      mstore\n      0x20\n      add\n      0x00\n      keccak256\n      0x00\n        /* \"SimpleSwap.sol\":2178:2201  balanceOf[to] += amount */\n      dup3\n      dup3\n      sload\n      tag_365\n      swap2\n      swap1\n      tag_129\n      jump\t// in\n    tag_365:\n      swap3\n      pop\n      pop\n      dup2\n      swap1\n      sstore\n      pop\n        /* \"SimpleSwap.sol\":2238:2240  to */\n      dup2\n        /* \"SimpleSwap.sol\":2217:2249  Transfer(address(0), to, amount) */\n      0xffffffffffffffffffffffffffffffffffffffff\n      and\n        /* \"SimpleSwap.sol\":2234:2235  0 */\n      0x00\n        /* \"SimpleSwap.sol\":2217:2249  Transfer(address(0), to, amount) */\n      0xffffffffffffffffffffffffffffffffffffffff\n      and\n      0xddf252ad1be2c89b69c2b068fc378daa952ba7f163c4a11628f55a4df523b3ef\n        /* \"SimpleSwap.sol\":2242:2248  amount */\n      dup4\n        /* \"SimpleSwap.sol\":2217:2249  Transfer(address(0), to, amount) */\n      mload(0x40)\n      tag_366\n      swap2\n      swap1\n      tag_33\n      jump\t// in\n    tag_366:\n      mload(0x40)\n      dup1\n      swap2\n      sub\n      swap1\n      log3\n        /* \"SimpleSwap.sol\":2083:2257  function _mint(address to, uint256 amount) internal {... */\n      pop\n      pop\n      jump\t// out\n        /* \"#utility.yul\":88:205   */\n    tag_368:\n        /* \"#utility.yul\":197:198   */\n      0x00\n        /* \"#utility.yul\":194:195   */\n      0x00\n        /* \"#utility.yul\":187:199   */\n      revert\n        /* \"#utility.yul\":211:328   */\n    tag_369:\n        /* \"#utility.yul\":320:321   */\n      0x00\n        /* \"#utility.yul\":317:318   */\n      0x00\n        /* \"#utility.yul\":310:322   */\n      revert\n        /* \"#utility.yul\":334:411   */\n    tag_370:\n        /* \"#utility.yul\":371:378   */\n      0x00\n        /* \"#utility.yul\":400:405   */\n      dup2\n        /* \"#utility.yul\":389:405   */\n      swap1\n      pop\n        /* \"#utility.yul\":334:411   */\n      swap2\n      swap1\n      pop\n      jump\t// out\n        /* \"#utility.yul\":417:539   */\n    tag_371:\n        /* \"#utility.yul\":490:514   */\n      tag_441\n        /* \"#utility.yul\":508:513   */\n      dup2\n        /* \"#utility.yul\":490:514   */\n      tag_370\n      jump\t// in\n    tag_441:\n        /* \"#utility.yul\":483:488   */\n      dup2\n        /* \"#utility.yul\":480:515   */\n      eq\n        /* \"#utility.yul\":470:533   */\n      tag_442\n      jumpi\n        /* \"#utility.yul\":529:530   */\n      0x00\n        /* \"#utility.yul\":526:527   */\n      0x00\n        /* \"#utility.yul\":519:531   */\n      revert\n        /* \"#utility.yul\":470:533   */\n    tag_442:\n        /* \"#utility.yul\":417:539   */\n      pop\n      jump\t// out\n        /* \"#utility.yul\":545:684   */\n    tag_372:\n        /* \"#utility.yul\":591:596   */\n      0x00\n        /* \"#utility.yul\":629:635   */\n      dup2\n        /* \"#utility.yul\":616:636   */\n      calldataload\n        /* \"#utility.yul\":607:636   */\n      swap1\n      pop\n        /* \"#utility.yul\":645:678   */\n      tag_444\n        /* \"#utility.yul\":672:677   */\n      dup2\n        /* \"#utility.yul\":645:678   */\n      tag_371\n      jump\t// in\n    tag_444:\n        /* \"#utility.yul\":545:684   */\n      swap3\n      swap2\n      pop\n      pop\n      jump\t// out\n        /* \"#utility.yul\":690:1309   */\n    tag_30:\n        /* \"#utility.yul\":767:773   */\n      0x00\n        /* \"#utility.yul\":775:781   */\n      0x00\n        /* \"#utility.yul\":783:789   */\n      0x00\n        /* \"#utility.yul\":832:834   */\n      0x60\n        /* \"#utility.yul\":820:829   */\n      dup5\n        /* \"#utility.yul\":811:818   */\n      dup7\n        /* \"#utility.yul\":807:830   */\n      sub\n        /* \"#utility.yul\":803:835   */\n      slt\n        /* \"#utility.yul\":800:919   */\n      iszero\n      tag_446\n      jumpi\n        /* \"#utility.yul\":838:917   */\n      tag_447\n      tag_368\n      jump\t// in\n    tag_447:\n        /* \"#utility.yul\":800:919   */\n    tag_446:\n        /* \"#utility.yul\":958:959   */\n      0x00\n        /* \"#utility.yul\":983:1036   */\n      tag_448\n        /* \"#utility.yul\":1028:1035   */\n      dup7\n        /* \"#utility.yul\":1019:1025   */\n      dup3\n        /* \"#utility.yul\":1008:1017   */\n      dup8\n        /* \"#utility.yul\":1004:1026   */\n      add\n        /* \"#utility.yul\":983:1036   */\n      tag_372\n      jump\t// in\n    tag_448:\n        /* \"#utility.yul\":973:1036   */\n      swap4\n      pop\n        /* \"#utility.yul\":929:1046   */\n      pop\n        /* \"#utility.yul\":1085:1087   */\n      0x20\n        /* \"#utility.yul\":1111:1164   */\n      tag_449\n        /* \"#utility.yul\":1156:1163   */\n      dup7\n        /* \"#utility.yul\":1147:1153   */\n      dup3\n        /* \"#utility.yul\":1136:1145   */\n      dup8\n        /* \"#utility.yul\":1132:1154   */\n      add\n        /* \"#utility.yul\":1111:1164   */\n      tag_372\n      jump\t// in\n    tag_449:\n        /* \"#utility.yul\":1101:1164   */\n      swap3\n      pop\n        /* \"#utility.yul\":1056:1174   */\n      pop\n        /* \"#utility.yul\":1213:1215   */\n      0x40\n        /* \"#utility.yul\":1239:1292   */\n      tag_450\n        /* \"#utility.yul\":1284:1291   */\n      dup7\n        /* \"#utility.yul\":1275:1281   */\n      dup3\n        /* \"#utility.yul\":1264:1273   */\n      dup8\n        /* \"#utility.yul\":1260:1282   */\n      add\n        /* \"#utility.yul\":1239:1292   */\n      tag_372\n      jump\t// in\n    tag_450:\n        /* \"#utility.yul\":1229:1292   */\n      swap2\n      pop\n        /* \"#utility.yul\":1184:1302   */\n      pop\n        /* \"#utility.yul\":690:1309   */\n      swap3\n      pop\n      swap3\n      pop\n      swap3\n      jump\t// out\n        /* \"#utility.yul\":1315:1433   */\n    tag_373:\n        /* \"#utility.yul\":1402:1426   */\n      tag_452\n        /* \"#utility.yul\":1420:1425   */\n      dup2\n        /* \"#utility.yul\":1402:1426   */\n      tag_370\n      jump\t// in\n    tag_452:\n        /* \"#utility.yul\":1397:1400   */\n      dup3\n        /* \"#utility.yul\":1390:1427   */\n      mstore\n        /* \"#utility.yul\":1315:1433   */\n      pop\n      pop\n      jump\t// out\n        /* \"#utility.yul\":1439:1661   */\n    tag_33:\n        /* \"#utility.yul\":1532:1536   */\n      0x00\n        /* \"#utility.yul\":1570:1572   */\n      0x20\n        /* \"#utility.yul\":1559:1568   */\n      dup3\n        /* \"#utility.yul\":1555:1573   */\n      add\n        /* \"#utility.yul\":1547:1573   */\n      swap1\n      pop\n        /* \"#utility.yul\":1583:1654   */\n      tag_454\n        /* \"#utility.yul\":1651:1652   */\n      0x00\n        /* \"#utility.yul\":1640:1649   */\n      dup4\n        /* \"#utility.yul\":1636:1653   */\n      add\n        /* \"#utility.yul\":1627:1633   */\n      dup5\n        /* \"#utility.yul\":1583:1654   */\n      tag_373\n      jump\t// in\n    tag_454:\n        /* \"#utility.yul\":1439:1661   */\n      swap3\n      swap2\n      pop\n      pop\n      jump\t// out\n        /* \"#utility.yul\":1667:1766   */\n    tag_374:\n        /* \"#utility.yul\":1719:1725   */\n      0x00\n        /* \"#utility.yul\":1753:1758   */\n      dup2\n        /* \"#utility.yul\":1747:1759   */\n      mload\n        /* \"#utility.yul\":1737:1759   */\n      swap1\n      pop\n        /* \"#utility.yul\":1667:1766   */\n      swap2\n      swap1\n      pop\n      jump\t// out\n        /* \"#utility.yul\":1772:1941   */\n    tag_375:\n        /* \"#utility.yul\":1856:1867   */\n      0x00\n        /* \"#utility.yul\":1890:1896   */\n      dup3\n        /* \"#utility.yul\":1885:1888   */\n      dup3\n        /* \"#utility.yul\":1878:1897   */\n      mstore\n        /* \"#utility.yul\":1930:1934   */\n      0x20\n        /* \"#utility.yul\":1925:1928   */\n      dup3\n        /* \"#utility.yul\":1921:1935   */\n      add\n        /* \"#utility.yul\":1906:1935   */\n      swap1\n      pop\n        /* \"#utility.yul\":1772:1941   */\n      swap3\n      swap2\n      pop\n      pop\n      jump\t// out\n        /* \"#utility.yul\":1947:2086   */\n    tag_376:\n        /* \"#utility.yul\":2036:2042   */\n      dup3\n        /* \"#utility.yul\":2031:2034   */\n      dup2\n        /* \"#utility.yul\":2026:2029   */\n      dup4\n        /* \"#utility.yul\":2020:2043   */\n      mcopy\n        /* \"#utility.yul\":2077:2078   */\n      0x00\n        /* \"#utility.yul\":2068:2074   */\n      dup4\n        /* \"#utility.yul\":2063:2066   */\n      dup4\n        /* \"#utility.yul\":2059:2075   */\n      add\n        /* \"#utility.yul\":2052:2079   */\n      mstore\n        /* \"#utility.yul\":1947:2086   */\n      pop\n      pop\n      pop\n      jump\t// out\n        /* \"#utility.yul\":2092:2194   */\n    tag_377:\n        /* \"#utility.yul\":2133:2139   */\n      0x00\n        /* \"#utility.yul\":2184:2186   */\n      0x1f\n        /* \"#utility.yul\":2180:2187   */\n      not\n        /* \"#utility.yul\":2175:2177   */\n      0x1f\n        /* \"#utility.yul\":2168:2173   */\n      dup4\n        /* \"#utility.yul\":2164:2178   */\n      add\n        /* \"#utility.yul\":2160:2188   */\n      and\n        /* \"#utility.yul\":2150:2188   */\n      swap1\n      pop\n        /* \"#utility.yul\":2092:2194   */\n      swap2\n      swap1\n      pop\n      jump\t// out\n        /* \"#utility.yul\":2200:2577   */\n    tag_378:\n        /* \"#utility.yul\":2288:2291   */\n      0x00\n        /* \"#utility.yul\":2316:2355   */\n      tag_460\n        /* \"#utility.yul\":2349:2354   */\n      dup3\n        /* \"#utility.yul\":2316:2355   */\n      tag_374\n      jump\t// in\n    tag_460:\n        /* \"#utility.yul\":2371:2442   */\n      tag_461\n        /* \"#utility.yul\":2435:2441   */\n      dup2\n        /* \"#utility.yul\":2430:2433   */\n      dup6\n        /* \"#utility.yul\":2371:2442   */\n      tag_375\n      jump\t// in\n    tag_461:\n        /* \"#utility.yul\":2364:2442   */\n      swap4\n      pop\n        /* \"#utility.yul\":2451:2516   */\n      tag_462\n        /* \"#utility.yul\":2509:2515   */\n      dup2\n        /* \"#utility.yul\":2504:2507   */\n      dup6\n        /* \"#utility.yul\":2497:2501   */\n      0x20\n        /* \"#utility.yul\":2490:2495   */\n      dup7\n        /* \"#utility.yul\":2486:2502   */\n      add\n        /* \"#utility.yul\":2451:2516   */\n      tag_376\n      jump\t// in\n    tag_462:\n        /* \"#utility.yul\":2541:2570   */\n      tag_463\n        /* \"#utility.yul\":2563:2569   */\n      dup2\n        /* \"#utility.yul\":2541:2570   */\n      tag_377\n      jump\t// in\n    tag_463:\n        /* \"#utility.yul\":2536:2539   */\n      dup5\n        /* \"#utility.yul\":2532:2571   */\n      add\n        /* \"#utility.yul\":2525:2571   */\n      swap2\n      pop\n        /* \"#utility.yul\":2292:2577   */\n      pop\n        /* \"#utility.yul\":2200:2577   */\n      swap3\n      swap2\n      pop\n      pop\n      jump\t// out\n        /* \"#utility.yul\":2583:2896   */\n    tag_37:\n        /* \"#utility.yul\":2696:2700   */\n      0x00\n        /* \"#utility.yul\":2734:2736   */\n      0x20\n        /* \"#utility.yul\":2723:2732   */\n      dup3\n        /* \"#utility.yul\":2719:2737   */\n      add\n        /* \"#utility.yul\":2711:2737   */\n      swap1\n      pop\n        /* \"#utility.yul\":2783:2792   */\n      dup2\n        /* \"#utility.yul\":2777:2781   */\n      dup2\n        /* \"#utility.yul\":2773:2793   */\n      sub\n        /* \"#utility.yul\":2769:2770   */\n      0x00\n        /* \"#utility.yul\":2758:2767   */\n      dup4\n        /* \"#utility.yul\":2754:2771   */\n      add\n        /* \"#utility.yul\":2747:2794   */\n      mstore\n        /* \"#utility.yul\":2811:2889   */\n      tag_465\n        /* \"#utility.yul\":2884:2888   */\n      dup2\n        /* \"#utility.yul\":2875:2881   */\n      dup5\n        /* \"#utility.yul\":2811:2889   */\n      tag_378\n      jump\t// in\n    tag_465:\n        /* \"#utility.yul\":2803:2889   */\n      swap1\n      pop\n        /* \"#utility.yul\":2583:2896   */\n      swap3\n      swap2\n      pop\n      pop\n      jump\t// out\n        /* \"#utility.yul\":2902:3234   */\n    tag_41:\n        /* \"#utility.yul\":3023:3027   */\n      0x00\n        /* \"#utility.yul\":3061:3063   */\n      0x40\n        /* \"#utility.yul\":3050:3059   */\n      dup3\n        /* \"#utility.yul\":3046:3064   */\n      add\n        /* \"#utility.yul\":3038:3064   */\n      swap1\n      pop\n        /* \"#utility.yul\":3074:3145   */\n      tag_467\n        /* \"#utility.yul\":3142:3143   */\n      0x00\n        /* \"#utility.yul\":3131:3140   */\n      dup4\n        /* \"#utility.yul\":3127:3144   */\n      add\n        /* \"#utility.yul\":3118:3124   */\n      dup6\n        /* \"#utility.yul\":3074:3145   */\n      tag_373\n      jump\t// in\n    tag_467:\n        /* \"#utility.yul\":3155:3227   */\n      tag_468\n        /* \"#utility.yul\":3223:3225   */\n      0x20\n        /* \"#utility.yul\":3212:3221   */\n      dup4\n        /* \"#utility.yul\":3208:3226   */\n      add\n        /* \"#utility.yul\":3199:3205   */\n      dup5\n        /* \"#utility.yul\":3155:3227   */\n      tag_373\n      jump\t// in\n    tag_468:\n        /* \"#utility.yul\":2902:3234   */\n      swap4\n      swap3\n      pop\n      pop\n      pop\n      jump\t// out\n        /* \"#utility.yul\":3240:3366   */\n    tag_379:\n        /* \"#utility.yul\":3277:3284   */\n      0x00\n        /* \"#utility.yul\":3317:3359   */\n      0xffffffffffffffffffffffffffffffffffffffff\n        /* \"#utility.yul\":3310:3315   */\n      dup3\n        /* \"#utility.yul\":3306:3360   */\n      and\n        /* \"#utility.yul\":3295:3360   */\n      swap1\n      pop\n        /* \"#utility.yul\":3240:3366   */\n      swap2\n      swap1\n      pop\n      jump\t// out\n        /* \"#utility.yul\":3372:3468   */\n    tag_380:\n        /* \"#utility.yul\":3409:3416   */\n      0x00\n        /* \"#utility.yul\":3438:3462   */\n      tag_471\n        /* \"#utility.yul\":3456:3461   */\n      dup3\n        /* \"#utility.yul\":3438:3462   */\n      tag_379\n      jump\t// in\n    tag_471:\n        /* \"#utility.yul\":3427:3462   */\n      swap1\n      pop\n        /* \"#utility.yul\":3372:3468   */\n      swap2\n      swap1\n      pop\n      jump\t// out\n        /* \"#utility.yul\":3474:3596   */\n    tag_381:\n        /* \"#utility.yul\":3547:3571   */\n      tag_473\n        /* \"#utility.yul\":3565:3570   */\n      dup2\n        /* \"#utility.yul\":3547:3571   */\n      tag_380\n      jump\t// in\n    tag_473:\n        /* \"#utility.yul\":3540:3545   */\n      dup2\n        /* \"#utility.yul\":3537:3572   */\n      eq\n        /* \"#utility.yul\":3527:3590   */\n      tag_474\n      jumpi\n        /* \"#utility.yul\":3586:3587   */\n      0x00\n        /* \"#utility.yul\":3583:3584   */\n      0x00\n        /* \"#utility.yul\":3576:3588   */\n      revert\n        /* \"#utility.yul\":3527:3590   */\n    tag_474:\n        /* \"#utility.yul\":3474:3596   */\n      pop\n      jump\t// out\n        /* \"#utility.yul\":3602:3741   */\n    tag_382:\n        /* \"#utility.yul\":3648:3653   */\n      0x00\n        /* \"#utility.yul\":3686:3692   */\n      dup2\n        /* \"#utility.yul\":3673:3693   */\n      calldataload\n        /* \"#utility.yul\":3664:3693   */\n      swap1\n      pop\n        /* \"#utility.yul\":3702:3735   */\n      tag_476\n        /* \"#utility.yul\":3729:3734   */\n      dup2\n        /* \"#utility.yul\":3702:3735   */\n      tag_381\n      jump\t// in\n    tag_476:\n        /* \"#utility.yul\":3602:3741   */\n      swap3\n      swap2\n      pop\n      pop\n      jump\t// out\n        /* \"#utility.yul\":3747:4221   */\n    tag_44:\n        /* \"#utility.yul\":3815:3821   */\n      0x00\n        /* \"#utility.yul\":3823:3829   */\n      0x00\n        /* \"#utility.yul\":3872:3874   */\n      0x40\n        /* \"#utility.yul\":3860:3869   */\n      dup4\n        /* \"#utility.yul\":3851:3858   */\n      dup6\n        /* \"#utility.yul\":3847:3870   */\n      sub\n        /* \"#utility.yul\":3843:3875   */\n      slt\n        /* \"#utility.yul\":3840:3959   */\n      iszero\n      tag_478\n      jumpi\n        /* \"#utility.yul\":3878:3957   */\n      tag_479\n      tag_368\n      jump\t// in\n    tag_479:\n        /* \"#utility.yul\":3840:3959   */\n    tag_478:\n        /* \"#utility.yul\":3998:3999   */\n      0x00\n        /* \"#utility.yul\":4023:4076   */\n      tag_480\n        /* \"#utility.yul\":4068:4075   */\n      dup6\n        /* \"#utility.yul\":4059:4065   */\n      dup3\n        /* \"#utility.yul\":4048:4057   */\n      dup7\n        /* \"#utility.yul\":4044:4066   */\n      add\n        /* \"#utility.yul\":4023:4076   */\n      tag_382\n      jump\t// in\n    tag_480:\n        /* \"#utility.yul\":4013:4076   */\n      swap3\n      pop\n        /* \"#utility.yul\":3969:4086   */\n      pop\n        /* \"#utility.yul\":4125:4127   */\n      0x20\n        /* \"#utility.yul\":4151:4204   */\n      tag_481\n        /* \"#utility.yul\":4196:4203   */\n      dup6\n        /* \"#utility.yul\":4187:4193   */\n      dup3\n        /* \"#utility.yul\":4176:4185   */\n      dup7\n        /* \"#utility.yul\":4172:4194   */\n      add\n        /* \"#utility.yul\":4151:4204   */\n      tag_372\n      jump\t// in\n    tag_481:\n        /* \"#utility.yul\":4141:4204   */\n      swap2\n      pop\n        /* \"#utility.yul\":4096:4214   */\n      pop\n        /* \"#utility.yul\":3747:4221   */\n      swap3\n      pop\n      swap3\n      swap1\n      pop\n      jump\t// out\n        /* \"#utility.yul\":4227:4317   */\n    tag_383:\n        /* \"#utility.yul\":4261:4268   */\n      0x00\n        /* \"#utility.yul\":4304:4309   */\n      dup2\n        /* \"#utility.yul\":4297:4310   */\n      iszero\n        /* \"#utility.yul\":4290:4311   */\n      iszero\n        /* \"#utility.yul\":4279:4311   */\n      swap1\n      pop\n        /* \"#utility.yul\":4227:4317   */\n      swap2\n      swap1\n      pop\n      jump\t// out\n        /* \"#utility.yul\":4323:4432   */\n    tag_384:\n        /* \"#utility.yul\":4404:4425   */\n      tag_484\n        /* \"#utility.yul\":4419:4424   */\n      dup2\n        /* \"#utility.yul\":4404:4425   */\n      tag_383\n      jump\t// in\n    tag_484:\n        /* \"#utility.yul\":4399:4402   */\n      dup3\n        /* \"#utility.yul\":4392:4426   */\n      mstore\n        /* \"#utility.yul\":4323:4432   */\n      pop\n      pop\n      jump\t// out\n        /* \"#utility.yul\":4438:4648   */\n    tag_47:\n        /* \"#utility.yul\":4525:4529   */\n      0x00\n        /* \"#utility.yul\":4563:4565   */\n      0x20\n        /* \"#utility.yul\":4552:4561   */\n      dup3\n        /* \"#utility.yul\":4548:4566   */\n      add\n        /* \"#utility.yul\":4540:4566   */\n      swap1\n      pop\n        /* \"#utility.yul\":4576:4641   */\n      tag_486\n        /* \"#utility.yul\":4638:4639   */\n      0x00\n        /* \"#utility.yul\":4627:4636   */\n      dup4\n        /* \"#utility.yul\":4623:4640   */\n      add\n        /* \"#utility.yul\":4614:4620   */\n      dup5\n        /* \"#utility.yul\":4576:4641   */\n      tag_384\n      jump\t// in\n    tag_486:\n        /* \"#utility.yul\":4438:4648   */\n      swap3\n      swap2\n      pop\n      pop\n      jump\t// out\n        /* \"#utility.yul\":4654:4772   */\n    tag_385:\n        /* \"#utility.yul\":4741:4765   */\n      tag_488\n        /* \"#utility.yul\":4759:4764   */\n      dup2\n        /* \"#utility.yul\":4741:4765   */\n      tag_380\n      jump\t// in\n    tag_488:\n        /* \"#utility.yul\":4736:4739   */\n      dup3\n        /* \"#utility.yul\":4729:4766   */\n      mstore\n        /* \"#utility.yul\":4654:4772   */\n      pop\n      pop\n      jump\t// out\n        /* \"#utility.yul\":4778:5000   */\n    tag_51:\n        /* \"#utility.yul\":4871:4875   */\n      0x00\n        /* \"#utility.yul\":4909:4911   */\n      0x20\n        /* \"#utility.yul\":4898:4907   */\n      dup3\n        /* \"#utility.yul\":4894:4912   */\n      add\n        /* \"#utility.yul\":4886:4912   */\n      swap1\n      pop\n        /* \"#utility.yul\":4922:4993   */\n      tag_490\n        /* \"#utility.yul\":4990:4991   */\n      0x00\n        /* \"#utility.yul\":4979:4988   */\n      dup4\n        /* \"#utility.yul\":4975:4992   */\n      add\n        /* \"#utility.yul\":4966:4972   */\n      dup5\n        /* \"#utility.yul\":4922:4993   */\n      tag_385\n      jump\t// in\n    tag_490:\n        /* \"#utility.yul\":4778:5000   */\n      swap3\n      swap2\n      pop\n      pop\n      jump\t// out\n        /* \"#utility.yul\":5006:5625   */\n    tag_60:\n        /* \"#utility.yul\":5083:5089   */\n      0x00\n        /* \"#utility.yul\":5091:5097   */\n      0x00\n        /* \"#utility.yul\":5099:5105   */\n      0x00\n        /* \"#utility.yul\":5148:5150   */\n      0x60\n        /* \"#utility.yul\":5136:5145   */\n      dup5\n        /* \"#utility.yul\":5127:5134   */\n      dup7\n        /* \"#utility.yul\":5123:5146   */\n      sub\n        /* \"#utility.yul\":5119:5151   */\n      slt\n        /* \"#utility.yul\":5116:5235   */\n      iszero\n      tag_492\n      jumpi\n        /* \"#utility.yul\":5154:5233   */\n      tag_493\n      tag_368\n      jump\t// in\n    tag_493:\n        /* \"#utility.yul\":5116:5235   */\n    tag_492:\n        /* \"#utility.yul\":5274:5275   */\n      0x00\n        /* \"#utility.yul\":5299:5352   */\n      tag_494\n        /* \"#utility.yul\":5344:5351   */\n      dup7\n        /* \"#utility.yul\":5335:5341   */\n      dup3\n        /* \"#utility.yul\":5324:5333   */\n      dup8\n        /* \"#utility.yul\":5320:5342   */\n      add\n        /* \"#utility.yul\":5299:5352   */\n      tag_382\n      jump\t// in\n    tag_494:\n        /* \"#utility.yul\":5289:5352   */\n      swap4\n      pop\n        /* \"#utility.yul\":5245:5362   */\n      pop\n        /* \"#utility.yul\":5401:5403   */\n      0x20\n        /* \"#utility.yul\":5427:5480   */\n      tag_495\n        /* \"#utility.yul\":5472:5479   */\n      dup7\n        /* \"#utility.yul\":5463:5469   */\n      dup3\n        /* \"#utility.yul\":5452:5461   */\n      dup8\n        /* \"#utility.yul\":5448:5470   */\n      add\n        /* \"#utility.yul\":5427:5480   */\n      tag_382\n      jump\t// in\n    tag_495:\n        /* \"#utility.yul\":5417:5480   */\n      swap3\n      pop\n        /* \"#utility.yul\":5372:5490   */\n      pop\n        /* \"#utility.yul\":5529:5531   */\n      0x40\n        /* \"#utility.yul\":5555:5608   */\n      tag_496\n        /* \"#utility.yul\":5600:5607   */\n      dup7\n        /* \"#utility.yul\":5591:5597   */\n      dup3\n        /* \"#utility.yul\":5580:5589   */\n      dup8\n        /* \"#utility.yul\":5576:5598   */\n      add\n        /* \"#utility.yul\":5555:5608   */\n      tag_372\n      jump\t// in\n    tag_496:\n        /* \"#utility.yul\":5545:5608   */\n      swap2\n      pop\n        /* \"#utility.yul\":5500:5618   */\n      pop\n        /* \"#utility.yul\":5006:5625   */\n      swap3\n      pop\n      swap3\n      pop\n      swap3\n      jump\t// out\n        /* \"#utility.yul\":5631:5717   */\n    tag_386:\n        /* \"#utility.yul\":5666:5673   */\n      0x00\n        /* \"#utility.yul\":5706:5710   */\n      0xff\n        /* \"#utility.yul\":5699:5704   */\n      dup3\n        /* \"#utility.yul\":5695:5711   */\n      and\n        /* \"#utility.yul\":5684:5711   */\n      swap1\n      pop\n        /* \"#utility.yul\":5631:5717   */\n      swap2\n      swap1\n      pop\n      jump\t// out\n        /* \"#utility.yul\":5723:5835   */\n    tag_387:\n        /* \"#utility.yul\":5806:5828   */\n      tag_499\n        /* \"#utility.yul\":5822:5827   */\n      dup2\n        /* \"#utility.yul\":5806:5828   */\n      tag_386\n      jump\t// in\n    tag_499:\n        /* \"#utility.yul\":5801:5804   */\n      dup3\n        /* \"#utility.yul\":5794:5829   */\n      mstore\n        /* \"#utility.yul\":5723:5835   */\n      pop\n      pop\n      jump\t// out\n        /* \"#utility.yul\":5841:6055   */\n    tag_66:\n        /* \"#utility.yul\":5930:5934   */\n      0x00\n        /* \"#utility.yul\":5968:5970   */\n      0x20\n        /* \"#utility.yul\":5957:5966   */\n      dup3\n        /* \"#utility.yul\":5953:5971   */\n      add\n        /* \"#utility.yul\":5945:5971   */\n      swap1\n      pop\n        /* \"#utility.yul\":5981:6048   */\n      tag_501\n        /* \"#utility.yul\":6045:6046   */\n      0x00\n        /* \"#utility.yul\":6034:6043   */\n      dup4\n        /* \"#utility.yul\":6030:6047   */\n      add\n        /* \"#utility.yul\":6021:6027   */\n      dup5\n        /* \"#utility.yul\":5981:6048   */\n      tag_387\n      jump\t// in\n    tag_501:\n        /* \"#utility.yul\":5841:6055   */\n      swap3\n      swap2\n      pop\n      pop\n      jump\t// out\n        /* \"#utility.yul\":6061:6178   */\n    tag_388:\n        /* \"#utility.yul\":6170:6171   */\n      0x00\n        /* \"#utility.yul\":6167:6168   */\n      0x00\n        /* \"#utility.yul\":6160:6172   */\n      revert\n        /* \"#utility.yul\":6184:6301   */\n    tag_389:\n        /* \"#utility.yul\":6293:6294   */\n      0x00\n        /* \"#utility.yul\":6290:6291   */\n      0x00\n        /* \"#utility.yul\":6283:6295   */\n      revert\n        /* \"#utility.yul\":6307:6424   */\n    tag_390:\n        /* \"#utility.yul\":6416:6417   */\n      0x00\n        /* \"#utility.yul\":6413:6414   */\n      0x00\n        /* \"#utility.yul\":6406:6418   */\n      revert\n        /* \"#utility.yul\":6447:7015   */\n    tag_391:\n        /* \"#utility.yul\":6520:6528   */\n      0x00\n        /* \"#utility.yul\":6530:6536   */\n      0x00\n        /* \"#utility.yul\":6580:6583   */\n      dup4\n        /* \"#utility.yul\":6573:6577   */\n      0x1f\n        /* \"#utility.yul\":6565:6571   */\n      dup5\n        /* \"#utility.yul\":6561:6578   */\n      add\n        /* \"#utility.yul\":6557:6584   */\n      slt\n        /* \"#utility.yul\":6547:6669   */\n      tag_506\n      jumpi\n        /* \"#utility.yul\":6588:6667   */\n      tag_507\n      tag_388\n      jump\t// in\n    tag_507:\n        /* \"#utility.yul\":6547:6669   */\n    tag_506:\n        /* \"#utility.yul\":6701:6707   */\n      dup3\n        /* \"#utility.yul\":6688:6708   */\n      calldataload\n        /* \"#utility.yul\":6678:6708   */\n      swap1\n      pop\n        /* \"#utility.yul\":6731:6749   */\n      0xffffffffffffffff\n        /* \"#utility.yul\":6723:6729   */\n      dup2\n        /* \"#utility.yul\":6720:6750   */\n      gt\n        /* \"#utility.yul\":6717:6834   */\n      iszero\n      tag_508\n      jumpi\n        /* \"#utility.yul\":6753:6832   */\n      tag_509\n      tag_389\n      jump\t// in\n    tag_509:\n        /* \"#utility.yul\":6717:6834   */\n    tag_508:\n        /* \"#utility.yul\":6867:6871   */\n      0x20\n        /* \"#utility.yul\":6859:6865   */\n      dup4\n        /* \"#utility.yul\":6855:6872   */\n      add\n        /* \"#utility.yul\":6843:6872   */\n      swap2\n      pop\n        /* \"#utility.yul\":6921:6924   */\n      dup4\n        /* \"#utility.yul\":6913:6917   */\n      0x20\n        /* \"#utility.yul\":6905:6911   */\n      dup3\n        /* \"#utility.yul\":6901:6918   */\n      mul\n        /* \"#utility.yul\":6891:6899   */\n      dup4\n        /* \"#utility.yul\":6887:6919   */\n      add\n        /* \"#utility.yul\":6884:6925   */\n      gt\n        /* \"#utility.yul\":6881:7009   */\n      iszero\n      tag_510\n      jumpi\n        /* \"#utility.yul\":6928:7007   */\n      tag_511\n      tag_390\n      jump\t// in\n    tag_511:\n        /* \"#utility.yul\":6881:7009   */\n    tag_510:\n        /* \"#utility.yul\":6447:7015   */\n      swap3\n      pop\n      swap3\n      swap1\n      pop\n      jump\t// out\n        /* \"#utility.yul\":7021:8162   */\n    tag_72:\n        /* \"#utility.yul\":7143:7149   */\n      0x00\n        /* \"#utility.yul\":7151:7157   */\n      0x00\n        /* \"#utility.yul\":7159:7165   */\n      0x00\n        /* \"#utility.yul\":7167:7173   */\n      0x00\n        /* \"#utility.yul\":7175:7181   */\n      0x00\n        /* \"#utility.yul\":7183:7189   */\n      0x00\n        /* \"#utility.yul\":7232:7235   */\n      0xa0\n        /* \"#utility.yul\":7220:7229   */\n      dup8\n        /* \"#utility.yul\":7211:7218   */\n      dup10\n        /* \"#utility.yul\":7207:7230   */\n      sub\n        /* \"#utility.yul\":7203:7236   */\n      slt\n        /* \"#utility.yul\":7200:7320   */\n      iszero\n      tag_513\n      jumpi\n        /* \"#utility.yul\":7239:7318   */\n      tag_514\n      tag_368\n      jump\t// in\n    tag_514:\n        /* \"#utility.yul\":7200:7320   */\n    tag_513:\n        /* \"#utility.yul\":7359:7360   */\n      0x00\n        /* \"#utility.yul\":7384:7437   */\n      tag_515\n        /* \"#utility.yul\":7429:7436   */\n      dup10\n        /* \"#utility.yul\":7420:7426   */\n      dup3\n        /* \"#utility.yul\":7409:7418   */\n      dup11\n        /* \"#utility.yul\":7405:7427   */\n      add\n        /* \"#utility.yul\":7384:7437   */\n      tag_372\n      jump\t// in\n    tag_515:\n        /* \"#utility.yul\":7374:7437   */\n      swap7\n      pop\n        /* \"#utility.yul\":7330:7447   */\n      pop\n        /* \"#utility.yul\":7486:7488   */\n      0x20\n        /* \"#utility.yul\":7512:7565   */\n      tag_516\n        /* \"#utility.yul\":7557:7564   */\n      dup10\n        /* \"#utility.yul\":7548:7554   */\n      dup3\n        /* \"#utility.yul\":7537:7546   */\n      dup11\n        /* \"#utility.yul\":7533:7555   */\n      add\n        /* \"#utility.yul\":7512:7565   */\n      tag_372\n      jump\t// in\n    tag_516:\n        /* \"#utility.yul\":7502:7565   */\n      swap6\n      pop\n        /* \"#utility.yul\":7457:7575   */\n      pop\n        /* \"#utility.yul\":7642:7644   */\n      0x40\n        /* \"#utility.yul\":7631:7640   */\n      dup8\n        /* \"#utility.yul\":7627:7645   */\n      add\n        /* \"#utility.yul\":7614:7646   */\n      calldataload\n        /* \"#utility.yul\":7673:7691   */\n      0xffffffffffffffff\n        /* \"#utility.yul\":7665:7671   */\n      dup2\n        /* \"#utility.yul\":7662:7692   */\n      gt\n        /* \"#utility.yul\":7659:7776   */\n      iszero\n      tag_517\n      jumpi\n        /* \"#utility.yul\":7695:7774   */\n      tag_518\n      tag_369\n      jump\t// in\n    tag_518:\n        /* \"#utility.yul\":7659:7776   */\n    tag_517:\n        /* \"#utility.yul\":7808:7888   */\n      tag_519\n        /* \"#utility.yul\":7880:7887   */\n      dup10\n        /* \"#utility.yul\":7871:7877   */\n      dup3\n        /* \"#utility.yul\":7860:7869   */\n      dup11\n        /* \"#utility.yul\":7856:7878   */\n      add\n        /* \"#utility.yul\":7808:7888   */\n      tag_391\n      jump\t// in\n    tag_519:\n        /* \"#utility.yul\":7790:7888   */\n      swap5\n      pop\n      swap5\n      pop\n        /* \"#utility.yul\":7585:7898   */\n      pop\n        /* \"#utility.yul\":7937:7939   */\n      0x60\n        /* \"#utility.yul\":7963:8016   */\n      tag_520\n        /* \"#utility.yul\":8008:8015   */\n      dup10\n        /* \"#utility.yul\":7999:8005   */\n      dup3\n        /* \"#utility.yul\":7988:7997   */\n      dup11\n        /* \"#utility.yul\":7984:8006   */\n      add\n        /* \"#utility.yul\":7963:8016   */\n      tag_382\n      jump\t// in\n    tag_520:\n        /* \"#utility.yul\":7953:8016   */\n      swap3\n      pop\n        /* \"#utility.yul\":7908:8026   */\n      pop\n        /* \"#utility.yul\":8065:8068   */\n      0x80\n        /* \"#utility.yul\":8092:8145   */\n      tag_521\n        /* \"#utility.yul\":8137:8144   */\n      dup10\n        /* \"#utility.yul\":8128:8134   */\n      dup3\n        /* \"#utility.yul\":8117:8126   */\n      dup11\n        /* \"#utility.yul\":8113:8135   */\n      add\n        /* \"#utility.yul\":8092:8145   */\n      tag_372\n      jump\t// in\n    tag_521:\n        /* \"#utility.yul\":8082:8145   */\n      swap2\n      pop\n        /* \"#utility.yul\":8036:8155   */\n      pop\n        /* \"#utility.yul\":7021:8162   */\n      swap3\n      swap6\n      pop\n      swap3\n      swap6\n      pop\n      swap3\n      swap6\n      jump\t// out\n        /* \"#utility.yul\":8168:8497   */\n    tag_79:\n        /* \"#utility.yul\":8227:8233   */\n      0x00\n        /* \"#utility.yul\":8276:8278   */\n      0x20\n        /* \"#utility.yul\":8264:8273   */\n      dup3\n        /* \"#utility.yul\":8255:8262   */\n      dup5\n        /* \"#utility.yul\":8251:8274   */\n      sub\n        /* \"#utility.yul\":8247:8279   */\n      slt\n        /* \"#utility.yul\":8244:8363   */\n      iszero\n      tag_523\n      jumpi\n        /* \"#utility.yul\":8282:8361   */\n      tag_524\n      tag_368\n      jump\t// in\n    tag_524:\n        /* \"#utility.yul\":8244:8363   */\n    tag_523:\n        /* \"#utility.yul\":8402:8403   */\n      0x00\n        /* \"#utility.yul\":8427:8480   */\n      tag_525\n        /* \"#utility.yul\":8472:8479   */\n      dup5\n        /* \"#utility.yul\":8463:8469   */\n      dup3\n        /* \"#utility.yul\":8452:8461   */\n      dup6\n        /* \"#utility.yul\":8448:8470   */\n      add\n        /* \"#utility.yul\":8427:8480   */\n      tag_382\n      jump\t// in\n    tag_525:\n        /* \"#utility.yul\":8417:8480   */\n      swap2\n      pop\n        /* \"#utility.yul\":8373:8490   */\n      pop\n        /* \"#utility.yul\":8168:8497   */\n      swap3\n      swap2\n      pop\n      pop\n      jump\t// out\n        /* \"#utility.yul\":8503:8977   */\n    tag_91:\n        /* \"#utility.yul\":8571:8577   */\n      0x00\n        /* \"#utility.yul\":8579:8585   */\n      0x00\n        /* \"#utility.yul\":8628:8630   */\n      0x40\n        /* \"#utility.yul\":8616:8625   */\n      dup4\n        /* \"#utility.yul\":8607:8614   */\n      dup6\n        /* \"#utility.yul\":8603:8626   */\n      sub\n        /* \"#utility.yul\":8599:8631   */\n      slt\n        /* \"#utility.yul\":8596:8715   */\n      iszero\n      tag_527\n      jumpi\n        /* \"#utility.yul\":8634:8713   */\n      tag_528\n      tag_368\n      jump\t// in\n    tag_528:\n        /* \"#utility.yul\":8596:8715   */\n    tag_527:\n        /* \"#utility.yul\":8754:8755   */\n      0x00\n        /* \"#utility.yul\":8779:8832   */\n      tag_529\n        /* \"#utility.yul\":8824:8831   */\n      dup6\n        /* \"#utility.yul\":8815:8821   */\n      dup3\n        /* \"#utility.yul\":8804:8813   */\n      dup7\n        /* \"#utility.yul\":8800:8822   */\n      add\n        /* \"#utility.yul\":8779:8832   */\n      tag_382\n      jump\t// in\n    tag_529:\n        /* \"#utility.yul\":8769:8832   */\n      swap3\n      pop\n        /* \"#utility.yul\":8725:8842   */\n      pop\n        /* \"#utility.yul\":8881:8883   */\n      0x20\n        /* \"#utility.yul\":8907:8960   */\n      tag_530\n        /* \"#utility.yul\":8952:8959   */\n      dup6\n        /* \"#utility.yul\":8943:8949   */\n      dup3\n        /* \"#utility.yul\":8932:8941   */\n      dup7\n        /* \"#utility.yul\":8928:8950   */\n      add\n        /* \"#utility.yul\":8907:8960   */\n      tag_382\n      jump\t// in\n    tag_530:\n        /* \"#utility.yul\":8897:8960   */\n      swap2\n      pop\n        /* \"#utility.yul\":8852:8970   */\n      pop\n        /* \"#utility.yul\":8503:8977   */\n      swap3\n      pop\n      swap3\n      swap1\n      pop\n      jump\t// out\n        /* \"#utility.yul\":8983:10186   */\n    tag_96:\n        /* \"#utility.yul\":9096:9102   */\n      0x00\n        /* \"#utility.yul\":9104:9110   */\n      0x00\n        /* \"#utility.yul\":9112:9118   */\n      0x00\n        /* \"#utility.yul\":9120:9126   */\n      0x00\n        /* \"#utility.yul\":9128:9134   */\n      0x00\n        /* \"#utility.yul\":9136:9142   */\n      0x00\n        /* \"#utility.yul\":9144:9150   */\n      0x00\n        /* \"#utility.yul\":9193:9196   */\n      0xe0\n        /* \"#utility.yul\":9181:9190   */\n      dup9\n        /* \"#utility.yul\":9172:9179   */\n      dup11\n        /* \"#utility.yul\":9168:9191   */\n      sub\n        /* \"#utility.yul\":9164:9197   */\n      slt\n        /* \"#utility.yul\":9161:9281   */\n      iszero\n      tag_532\n      jumpi\n        /* \"#utility.yul\":9200:9279   */\n      tag_533\n      tag_368\n      jump\t// in\n    tag_533:\n        /* \"#utility.yul\":9161:9281   */\n    tag_532:\n        /* \"#utility.yul\":9320:9321   */\n      0x00\n        /* \"#utility.yul\":9345:9398   */\n      tag_534\n        /* \"#utility.yul\":9390:9397   */\n      dup11\n        /* \"#utility.yul\":9381:9387   */\n      dup3\n        /* \"#utility.yul\":9370:9379   */\n      dup12\n        /* \"#utility.yul\":9366:9388   */\n      add\n        /* \"#utility.yul\":9345:9398   */\n      tag_382\n      jump\t// in\n    tag_534:\n        /* \"#utility.yul\":9335:9398   */\n      swap8\n      pop\n        /* \"#utility.yul\":9291:9408   */\n      pop\n        /* \"#utility.yul\":9447:9449   */\n      0x20\n        /* \"#utility.yul\":9473:9526   */\n      tag_535\n        /* \"#utility.yul\":9518:9525   */\n      dup11\n        /* \"#utility.yul\":9509:9515   */\n      dup3\n        /* \"#utility.yul\":9498:9507   */\n      dup12\n        /* \"#utility.yul\":9494:9516   */\n      add\n        /* \"#utility.yul\":9473:9526   */\n      tag_382\n      jump\t// in\n    tag_535:\n        /* \"#utility.yul\":9463:9526   */\n      swap7\n      pop\n        /* \"#utility.yul\":9418:9536   */\n      pop\n        /* \"#utility.yul\":9575:9577   */\n      0x40\n        /* \"#utility.yul\":9601:9654   */\n      tag_536\n        /* \"#utility.yul\":9646:9653   */\n      dup11\n        /* \"#utility.yul\":9637:9643   */\n      dup3\n        /* \"#utility.yul\":9626:9635   */\n      dup12\n        /* \"#utility.yul\":9622:9644   */\n      add\n        /* \"#utility.yul\":9601:9654   */\n      tag_372\n      jump\t// in\n    tag_536:\n        /* \"#utility.yul\":9591:9654   */\n      swap6\n      pop\n        /* \"#utility.yul\":9546:9664   */\n      pop\n        /* \"#utility.yul\":9703:9705   */\n      0x60\n        /* \"#utility.yul\":9729:9782   */\n      tag_537\n        /* \"#utility.yul\":9774:9781   */\n      dup11\n        /* \"#utility.yul\":9765:9771   */\n      dup3\n        /* \"#utility.yul\":9754:9763   */\n      dup12\n        /* \"#utility.yul\":9750:9772   */\n      add\n        /* \"#utility.yul\":9729:9782   */\n      tag_372\n      jump\t// in\n    tag_537:\n        /* \"#utility.yul\":9719:9782   */\n      swap5\n      pop\n        /* \"#utility.yul\":9674:9792   */\n      pop\n        /* \"#utility.yul\":9831:9834   */\n      0x80\n        /* \"#utility.yul\":9858:9911   */\n      tag_538\n        /* \"#utility.yul\":9903:9910   */\n      dup11\n        /* \"#utility.yul\":9894:9900   */\n      dup3\n        /* \"#utility.yul\":9883:9892   */\n      dup12\n        /* \"#utility.yul\":9879:9901   */\n      add\n        /* \"#utility.yul\":9858:9911   */\n      tag_372\n      jump\t// in\n    tag_538:\n        /* \"#utility.yul\":9848:9911   */\n      swap4\n      pop\n        /* \"#utility.yul\":9802:9921   */\n      pop\n        /* \"#utility.yul\":9960:9963   */\n      0xa0\n        /* \"#utility.yul\":9987:10040   */\n      tag_539\n        /* \"#utility.yul\":10032:10039   */\n      dup11\n        /* \"#utility.yul\":10023:10029   */\n      dup3\n        /* \"#utility.yul\":10012:10021   */\n      dup12\n        /* \"#utility.yul\":10008:10030   */\n      add\n        /* \"#utility.yul\":9987:10040   */\n      tag_382\n      jump\t// in\n    tag_539:\n        /* \"#utility.yul\":9977:10040   */\n      swap3\n      pop\n        /* \"#utility.yul\":9931:10050   */\n      pop\n        /* \"#utility.yul\":10089:10092   */\n      0xc0\n        /* \"#utility.yul\":10116:10169   */\n      tag_540\n        /* \"#utility.yul\":10161:10168   */\n      dup11\n        /* \"#utility.yul\":10152:10158   */\n      dup3\n        /* \"#utility.yul\":10141:10150   */\n      dup12\n        /* \"#utility.yul\":10137:10159   */\n      add\n        /* \"#utility.yul\":10116:10169   */\n      tag_372\n      jump\t// in\n    tag_540:\n        /* \"#utility.yul\":10106:10169   */\n      swap2\n      pop\n        /* \"#utility.yul\":10060:10179   */\n      pop\n        /* \"#utility.yul\":8983:10186   */\n      swap3\n      swap6\n      swap9\n      swap2\n      swap5\n      swap8\n      pop\n      swap3\n      swap6\n      pop\n      jump\t// out\n        /* \"#utility.yul\":10192:10524   */\n    tag_106:\n        /* \"#utility.yul\":10313:10317   */\n      0x00\n        /* \"#utility.yul\":10351:10353   */\n      0x40\n        /* \"#utility.yul\":10340:10349   */\n      dup3\n        /* \"#utility.yul\":10336:10354   */\n      add\n        /* \"#utility.yul\":10328:10354   */\n      swap1\n      pop\n        /* \"#utility.yul\":10364:10435   */\n      tag_542\n        /* \"#utility.yul\":10432:10433   */\n      0x00\n        /* \"#utility.yul\":10421:10430   */\n      dup4\n        /* \"#utility.yul\":10417:10434   */\n      add\n        /* \"#utility.yul\":10408:10414   */\n      dup6\n        /* \"#utility.yul\":10364:10435   */\n      tag_385\n      jump\t// in\n    tag_542:\n        /* \"#utility.yul\":10445:10517   */\n      tag_543\n        /* \"#utility.yul\":10513:10515   */\n      0x20\n        /* \"#utility.yul\":10502:10511   */\n      dup4\n        /* \"#utility.yul\":10498:10516   */\n      add\n        /* \"#utility.yul\":10489:10495   */\n      dup5\n        /* \"#utility.yul\":10445:10517   */\n      tag_385\n      jump\t// in\n    tag_543:\n        /* \"#utility.yul\":10192:10524   */\n      swap4\n      swap3\n      pop\n      pop\n      pop\n      jump\t// out\n        /* \"#utility.yul\":10530:11879   */\n    tag_116:\n        /* \"#utility.yul\":10652:10658   */\n      0x00\n        /* \"#utility.yul\":10660:10666   */\n      0x00\n        /* \"#utility.yul\":10668:10674   */\n      0x00\n        /* \"#utility.yul\":10676:10682   */\n      0x00\n        /* \"#utility.yul\":10684:10690   */\n      0x00\n        /* \"#utility.yul\":10692:10698   */\n      0x00\n        /* \"#utility.yul\":10700:10706   */\n      0x00\n        /* \"#utility.yul\":10708:10714   */\n      0x00\n        /* \"#utility.yul\":10757:10760   */\n      0x0100\n        /* \"#utility.yul\":10745:10754   */\n      dup10\n        /* \"#utility.yul\":10736:10743   */\n      dup12\n        /* \"#utility.yul\":10732:10755   */\n      sub\n        /* \"#utility.yul\":10728:10761   */\n      slt\n        /* \"#utility.yul\":10725:10845   */\n      iszero\n      tag_545\n      jumpi\n        /* \"#utility.yul\":10764:10843   */\n      tag_546\n      tag_368\n      jump\t// in\n    tag_546:\n        /* \"#utility.yul\":10725:10845   */\n    tag_545:\n        /* \"#utility.yul\":10884:10885   */\n      0x00\n        /* \"#utility.yul\":10909:10962   */\n      tag_547\n        /* \"#utility.yul\":10954:10961   */\n      dup12\n        /* \"#utility.yul\":10945:10951   */\n      dup3\n        /* \"#utility.yul\":10934:10943   */\n      dup13\n        /* \"#utility.yul\":10930:10952   */\n      add\n        /* \"#utility.yul\":10909:10962   */\n      tag_382\n      jump\t// in\n    tag_547:\n        /* \"#utility.yul\":10899:10962   */\n      swap9\n      pop\n        /* \"#utility.yul\":10855:10972   */\n      pop\n        /* \"#utility.yul\":11011:11013   */\n      0x20\n        /* \"#utility.yul\":11037:11090   */\n      tag_548\n        /* \"#utility.yul\":11082:11089   */\n      dup12\n        /* \"#utility.yul\":11073:11079   */\n      dup3\n        /* \"#utility.yul\":11062:11071   */\n      dup13\n        /* \"#utility.yul\":11058:11080   */\n      add\n        /* \"#utility.yul\":11037:11090   */\n      tag_382\n      jump\t// in\n    tag_548:\n        /* \"#utility.yul\":11027:11090   */\n      swap8\n      pop\n        /* \"#utility.yul\":10982:11100   */\n      pop\n        /* \"#utility.yul\":11139:11141   */\n      0x40\n        /* \"#utility.yul\":11165:11218   */\n      tag_549\n        /* \"#utility.yul\":11210:11217   */\n      dup12\n        /* \"#utility.yul\":11201:11207   */\n      dup3\n        /* \"#utility.yul\":11190:11199   */\n      dup13\n        /* \"#utility.yul\":11186:11208   */\n      add\n        /* \"#utility.yul\":11165:11218   */\n      tag_372\n      jump\t// in\n    tag_549:\n        /* \"#utility.yul\":11155:11218   */\n      swap7\n      pop\n        /* \"#utility.yul\":11110:11228   */\n      pop\n        /* \"#utility.yul\":11267:11269   */\n      0x60\n        /* \"#utility.yul\":11293:11346   */\n      tag_550\n        /* \"#utility.yul\":11338:11345   */\n      dup12\n        /* \"#utility.yul\":11329:11335   */\n      dup3\n        /* \"#utility.yul\":11318:11327   */\n      dup13\n        /* \"#utility.yul\":11314:11336   */\n      add\n        /* \"#utility.yul\":11293:11346   */\n      tag_372\n      jump\t// in\n    tag_550:\n        /* \"#utility.yul\":11283:11346   */\n      swap6\n      pop\n        /* \"#utility.yul\":11238:11356   */\n      pop\n        /* \"#utility.yul\":11395:11398   */\n      0x80\n        /* \"#utility.yul\":11422:11475   */\n      tag_551\n        /* \"#utility.yul\":11467:11474   */\n      dup12\n        /* \"#utility.yul\":11458:11464   */\n      dup3\n        /* \"#utility.yul\":11447:11456   */\n      dup13\n        /* \"#utility.yul\":11443:11465   */\n      add\n        /* \"#utility.yul\":11422:11475   */\n      tag_372\n      jump\t// in\n    tag_551:\n        /* \"#utility.yul\":11412:11475   */\n      swap5\n      pop\n        /* \"#utility.yul\":11366:11485   */\n      pop\n        /* \"#utility.yul\":11524:11527   */\n      0xa0\n        /* \"#utility.yul\":11551:11604   */\n      tag_552\n        /* \"#utility.yul\":11596:11603   */\n      dup12\n        /* \"#utility.yul\":11587:11593   */\n      dup3\n        /* \"#utility.yul\":11576:11585   */\n      dup13\n        /* \"#utility.yul\":11572:11594   */\n      add\n        /* \"#utility.yul\":11551:11604   */\n      tag_372\n      jump\t// in\n    tag_552:\n        /* \"#utility.yul\":11541:11604   */\n      swap4\n      pop\n        /* \"#utility.yul\":11495:11614   */\n      pop\n        /* \"#utility.yul\":11653:11656   */\n      0xc0\n        /* \"#utility.yul\":11680:11733   */\n      tag_553\n        /* \"#utility.yul\":11725:11732   */\n      dup12\n        /* \"#utility.yul\":11716:11722   */\n      dup3\n        /* \"#utility.yul\":11705:11714   */\n      dup13\n        /* \"#utility.yul\":11701:11723   */\n      add\n        /* \"#utility.yul\":11680:11733   */\n      tag_382\n      jump\t// in\n    tag_553:\n        /* \"#utility.yul\":11670:11733   */\n      swap3\n      pop\n        /* \"#utility.yul\":11624:11743   */\n      pop\n        /* \"#utility.yul\":11782:11785   */\n      0xe0\n        /* \"#utility.yul\":11809:11862   */\n      tag_554\n        /* \"#utility.yul\":11854:11861   */\n      dup12\n        /* \"#utility.yul\":11845:11851   */\n      dup3\n        /* \"#utility.yul\":11834:11843   */\n      dup13\n        /* \"#utility.yul\":11830:11852   */\n      add\n        /* \"#utility.yul\":11809:11862   */\n      tag_372\n      jump\t// in\n    tag_554:\n        /* \"#utility.yul\":11799:11862   */\n      swap2\n      pop\n        /* \"#utility.yul\":11753:11872   */\n      pop\n        /* \"#utility.yul\":10530:11879   */\n      swap3\n      swap6\n      swap9\n      pop\n      swap3\n      swap6\n      swap9\n      swap1\n      swap4\n      swap7\n      pop\n      jump\t// out\n        /* \"#utility.yul\":11885:12327   */\n    tag_119:\n        /* \"#utility.yul\":12034:12038   */\n      0x00\n        /* \"#utility.yul\":12072:12074   */\n      0x60\n        /* \"#utility.yul\":12061:12070   */\n      dup3\n        /* \"#utility.yul\":12057:12075   */\n      add\n        /* \"#utility.yul\":12049:12075   */\n      swap1\n      pop\n        /* \"#utility.yul\":12085:12156   */\n      tag_556\n        /* \"#utility.yul\":12153:12154   */\n      0x00\n        /* \"#utility.yul\":12142:12151   */\n      dup4\n        /* \"#utility.yul\":12138:12155   */\n      add\n        /* \"#utility.yul\":12129:12135   */\n      dup7\n        /* \"#utility.yul\":12085:12156   */\n      tag_373\n      jump\t// in\n    tag_556:\n        /* \"#utility.yul\":12166:12238   */\n      tag_557\n        /* \"#utility.yul\":12234:12236   */\n      0x20\n        /* \"#utility.yul\":12223:12232   */\n      dup4\n        /* \"#utility.yul\":12219:12237   */\n      add\n        /* \"#utility.yul\":12210:12216   */\n      dup6\n        /* \"#utility.yul\":12166:12238   */\n      tag_373\n      jump\t// in\n    tag_557:\n        /* \"#utility.yul\":12248:12320   */\n      tag_558\n        /* \"#utility.yul\":12316:12318   */\n      0x40\n        /* \"#utility.yul\":12305:12314   */\n      dup4\n        /* \"#utility.yul\":12301:12319   */\n      add\n        /* \"#utility.yul\":12292:12298   */\n      dup5\n        /* \"#utility.yul\":12248:12320   */\n      tag_373\n      jump\t// in\n    tag_558:\n        /* \"#utility.yul\":11885:12327   */\n      swap5\n      swap4\n      pop\n      pop\n      pop\n      pop\n      jump\t// out\n        /* \"#utility.yul\":12333:12508   */\n    tag_392:\n        /* \"#utility.yul\":12473:12500   */\n      0x496e73756666696369656e7420696e70757420616d6f756e7400000000000000\n        /* \"#utility.yul\":12469:12470   */\n      0x00\n        /* \"#utility.yul\":12461:12467   */\n      dup3\n        /* \"#utility.yul\":12457:12471   */\n      add\n        /* \"#utility.yul\":12450:12501   */\n      mstore\n        /* \"#utility.yul\":12333:12508   */\n      pop\n      jump\t// out\n        /* \"#utility.yul\":12514:12880   */\n    tag_393:\n        /* \"#utility.yul\":12656:12659   */\n      0x00\n        /* \"#utility.yul\":12677:12744   */\n      tag_561\n        /* \"#utility.yul\":12741:12743   */\n      0x19\n        /* \"#utility.yul\":12736:12739   */\n      dup4\n        /* \"#utility.yul\":12677:12744   */\n      tag_375\n      jump\t// in\n    tag_561:\n        /* \"#utility.yul\":12670:12744   */\n      swap2\n      pop\n        /* \"#utility.yul\":12753:12846   */\n      tag_562\n        /* \"#utility.yul\":12842:12845   */\n      dup3\n        /* \"#utility.yul\":12753:12846   */\n      tag_392\n      jump\t// in\n    tag_562:\n        /* \"#utility.yul\":12871:12873   */\n      0x20\n        /* \"#utility.yul\":12866:12869   */\n      dup3\n        /* \"#utility.yul\":12862:12874   */\n      add\n        /* \"#utility.yul\":12855:12874   */\n      swap1\n      pop\n        /* \"#utility.yul\":12514:12880   */\n      swap2\n      swap1\n      pop\n      jump\t// out\n        /* \"#utility.yul\":12886:13305   */\n    tag_123:\n        /* \"#utility.yul\":13052:13056   */\n      0x00\n        /* \"#utility.yul\":13090:13092   */\n      0x20\n        /* \"#utility.yul\":13079:13088   */\n      dup3\n        /* \"#utility.yul\":13075:13093   */\n      add\n        /* \"#utility.yul\":13067:13093   */\n      swap1\n      pop\n        /* \"#utility.yul\":13139:13148   */\n      dup2\n        /* \"#utility.yul\":13133:13137   */\n      dup2\n        /* \"#utility.yul\":13129:13149   */\n      sub\n        /* \"#utility.yul\":13125:13126   */\n      0x00\n        /* \"#utility.yul\":13114:13123   */\n      dup4\n        /* \"#utility.yul\":13110:13127   */\n      add\n        /* \"#utility.yul\":13103:13150   */\n      mstore\n        /* \"#utility.yul\":13167:13298   */\n      tag_564\n        /* \"#utility.yul\":13293:13297   */\n      dup2\n        /* \"#utility.yul\":13167:13298   */\n      tag_393\n      jump\t// in\n    tag_564:\n        /* \"#utility.yul\":13159:13298   */\n      swap1\n      pop\n        /* \"#utility.yul\":12886:13305   */\n      swap2\n      swap1\n      pop\n      jump\t// out\n        /* \"#utility.yul\":13311:13482   */\n    tag_394:\n        /* \"#utility.yul\":13451:13474   */\n      0x496e73756666696369656e742072657365727665730000000000000000000000\n        /* \"#utility.yul\":13447:13448   */\n      0x00\n        /* \"#utility.yul\":13439:13445   */\n      dup3\n        /* \"#utility.yul\":13435:13449   */\n      add\n        /* \"#utility.yul\":13428:13475   */\n      mstore\n        /* \"#utility.yul\":13311:13482   */\n      pop\n      jump\t// out\n        /* \"#utility.yul\":13488:13854   */\n    tag_395:\n        /* \"#utility.yul\":13630:13633   */\n      0x00\n        /* \"#utility.yul\":13651:13718   */\n      tag_567\n        /* \"#utility.yul\":13715:13717   */\n      0x15\n        /* \"#utility.yul\":13710:13713   */\n      dup4\n        /* \"#utility.yul\":13651:13718   */\n      tag_375\n      jump\t// in\n    tag_567:\n        /* \"#utility.yul\":13644:13718   */\n      swap2\n      pop\n        /* \"#utility.yul\":13727:13820   */\n      tag_568\n        /* \"#utility.yul\":13816:13819   */\n      dup3\n        /* \"#utility.yul\":13727:13820   */\n      tag_394\n      jump\t// in\n    tag_568:\n        /* \"#utility.yul\":13845:13847   */\n      0x20\n        /* \"#utility.yul\":13840:13843   */\n      dup3\n        /* \"#utility.yul\":13836:13848   */\n      add\n        /* \"#utility.yul\":13829:13848   */\n      swap1\n      pop\n        /* \"#utility.yul\":13488:13854   */\n      swap2\n      swap1\n      pop\n      jump\t// out\n        /* \"#utility.yul\":13860:14279   */\n    tag_127:\n        /* \"#utility.yul\":14026:14030   */\n      0x00\n        /* \"#utility.yul\":14064:14066   */\n      0x20\n        /* \"#utility.yul\":14053:14062   */\n      dup3\n        /* \"#utility.yul\":14049:14067   */\n      add\n        /* \"#utility.yul\":14041:14067   */\n      swap1\n      pop\n        /* \"#utility.yul\":14113:14122   */\n      dup2\n        /* \"#utility.yul\":14107:14111   */\n      dup2\n        /* \"#utility.yul\":14103:14123   */\n      sub\n        /* \"#utility.yul\":14099:14100   */\n      0x00\n        /* \"#utility.yul\":14088:14097   */\n      dup4\n        /* \"#utility.yul\":14084:14101   */\n      add\n        /* \"#utility.yul\":14077:14124   */\n      mstore\n        /* \"#utility.yul\":14141:14272   */\n      tag_570\n        /* \"#utility.yul\":14267:14271   */\n      dup2\n        /* \"#utility.yul\":14141:14272   */\n      tag_395\n      jump\t// in\n    tag_570:\n        /* \"#utility.yul\":14133:14272   */\n      swap1\n      pop\n        /* \"#utility.yul\":13860:14279   */\n      swap2\n      swap1\n      pop\n      jump\t// out\n        /* \"#utility.yul\":14285:14465   */\n    tag_396:\n        /* \"#utility.yul\":14333:14410   */\n      0x4e487b7100000000000000000000000000000000000000000000000000000000\n        /* \"#utility.yul\":14330:14331   */\n      0x00\n        /* \"#utility.yul\":14323:14411   */\n      mstore\n        /* \"#utility.yul\":14430:14434   */\n      0x11\n        /* \"#utility.yul\":14427:14428   */\n      0x04\n        /* \"#utility.yul\":14420:14435   */\n      mstore\n        /* \"#utility.yul\":14454:14458   */\n      0x24\n        /* \"#utility.yul\":14451:14452   */\n      0x00\n        /* \"#utility.yul\":14444:14459   */\n      revert\n        /* \"#utility.yul\":14471:14662   */\n    tag_129:\n        /* \"#utility.yul\":14511:14514   */\n      0x00\n        /* \"#utility.yul\":14530:14550   */\n      tag_573\n        /* \"#utility.yul\":14548:14549   */\n      dup3\n        /* \"#utility.yul\":14530:14550   */\n      tag_370\n      jump\t// in\n    tag_573:\n        /* \"#utility.yul\":14525:14550   */\n      swap2\n      pop\n        /* \"#utility.yul\":14564:14584   */\n      tag_574\n        /* \"#utility.yul\":14582:14583   */\n      dup4\n        /* \"#utility.yul\":14564:14584   */\n      tag_370\n      jump\t// in\n    tag_574:\n        /* \"#utility.yul\":14559:14584   */\n      swap3\n      pop\n        /* \"#utility.yul\":14607:14608   */\n      dup3\n        /* \"#utility.yul\":14604:14605   */\n      dup3\n        /* \"#utility.yul\":14600:14609   */\n      add\n        /* \"#utility.yul\":14593:14609   */\n      swap1\n      pop\n        /* \"#utility.yul\":14628:14631   */\n      dup1\n        /* \"#utility.yul\":14625:14626   */\n      dup3\n        /* \"#utility.yul\":14622:14632   */\n      gt\n        /* \"#utility.yul\":14619:14655   */\n      iszero\n      tag_575\n      jumpi\n        /* \"#utility.yul\":14635:14653   */\n      tag_576\n      tag_396\n      jump\t// in\n    tag_576:\n        /* \"#utility.yul\":14619:14655   */\n    tag_575:\n        /* \"#utility.yul\":14471:14662   */\n      swap3\n      swap2\n      pop\n      pop\n      jump\t// out\n        /* \"#utility.yul\":14668:15078   */\n    tag_131:\n        /* \"#utility.yul\":14708:14715   */\n      0x00\n        /* \"#utility.yul\":14731:14751   */\n      tag_578\n        /* \"#utility.yul\":14749:14750   */\n      dup3\n        /* \"#utility.yul\":14731:14751   */\n      tag_370\n      jump\t// in\n    tag_578:\n        /* \"#utility.yul\":14726:14751   */\n      swap2\n      pop\n        /* \"#utility.yul\":14765:14785   */\n      tag_579\n        /* \"#utility.yul\":14783:14784   */\n      dup4\n        /* \"#utility.yul\":14765:14785   */\n      tag_370\n      jump\t// in\n    tag_579:\n        /* \"#utility.yul\":14760:14785   */\n      swap3\n      pop\n        /* \"#utility.yul\":14820:14821   */\n      dup3\n        /* \"#utility.yul\":14817:14818   */\n      dup3\n        /* \"#utility.yul\":14813:14822   */\n      mul\n        /* \"#utility.yul\":14842:14872   */\n      tag_580\n        /* \"#utility.yul\":14860:14871   */\n      dup2\n        /* \"#utility.yul\":14842:14872   */\n      tag_370\n      jump\t// in\n    tag_580:\n        /* \"#utility.yul\":14831:14872   */\n      swap2\n      pop\n        /* \"#utility.yul\":15021:15022   */\n      dup3\n        /* \"#utility.yul\":15012:15019   */\n      dup3\n        /* \"#utility.yul\":15008:15023   */\n      div\n        /* \"#utility.yul\":15005:15006   */\n      dup5\n        /* \"#utility.yul\":15002:15024   */\n      eq\n        /* \"#utility.yul\":14982:14983   */\n      dup4\n        /* \"#utility.yul\":14975:14984   */\n      iszero\n        /* \"#utility.yul\":14955:15038   */\n      or\n        /* \"#utility.yul\":14932:15071   */\n      tag_581\n      jumpi\n        /* \"#utility.yul\":15051:15069   */\n      tag_582\n      tag_396\n      jump\t// in\n    tag_582:\n        /* \"#utility.yul\":14932:15071   */\n    tag_581:\n        /* \"#utility.yul\":14716:15078   */\n      pop\n        /* \"#utility.yul\":14668:15078   */\n      swap3\n      swap2\n      pop\n      pop\n      jump\t// out\n        /* \"#utility.yul\":15084:15264   */\n    tag_397:\n        /* \"#utility.yul\":15132:15209   */\n      0x4e487b7100000000000000000000000000000000000000000000000000000000\n        /* \"#utility.yul\":15129:15130   */\n      0x00\n        /* \"#utility.yul\":15122:15210   */\n      mstore\n        /* \"#utility.yul\":15229:15233   */\n      0x12\n        /* \"#utility.yul\":15226:15227   */\n      0x04\n        /* \"#utility.yul\":15219:15234   */\n      mstore\n        /* \"#utility.yul\":15253:15257   */\n      0x24\n        /* \"#utility.yul\":15250:15251   */\n      0x00\n        /* \"#utility.yul\":15243:15258   */\n      revert\n        /* \"#utility.yul\":15270:15455   */\n    tag_133:\n        /* \"#utility.yul\":15310:15311   */\n      0x00\n        /* \"#utility.yul\":15327:15347   */\n      tag_585\n        /* \"#utility.yul\":15345:15346   */\n      dup3\n        /* \"#utility.yul\":15327:15347   */\n      tag_370\n      jump\t// in\n    tag_585:\n        /* \"#utility.yul\":15322:15347   */\n      swap2\n      pop\n        /* \"#utility.yul\":15361:15381   */\n      tag_586\n        /* \"#utility.yul\":15379:15380   */\n      dup4\n        /* \"#utility.yul\":15361:15381   */\n      tag_370\n      jump\t// in\n    tag_586:\n        /* \"#utility.yul\":15356:15381   */\n      swap3\n      pop\n        /* \"#utility.yul\":15400:15401   */\n      dup3\n        /* \"#utility.yul\":15390:15425   */\n      tag_587\n      jumpi\n        /* \"#utility.yul\":15405:15423   */\n      tag_588\n      tag_397\n      jump\t// in\n    tag_588:\n        /* \"#utility.yul\":15390:15425   */\n    tag_587:\n        /* \"#utility.yul\":15447:15448   */\n      dup3\n        /* \"#utility.yul\":15444:15445   */\n      dup3\n        /* \"#utility.yul\":15440:15449   */\n      div\n        /* \"#utility.yul\":15435:15449   */\n      swap1\n      pop\n        /* \"#utility.yul\":15270:15455   */\n      swap3\n      swap2\n      pop\n      pop\n      jump\t// out\n        /* \"#utility.yul\":15461:15641   */\n    tag_398:\n        /* \"#utility.yul\":15509:15586   */\n      0x4e487b7100000000000000000000000000000000000000000000000000000000\n        /* \"#utility.yul\":15506:15507   */\n      0x00\n        /* \"#utility.yul\":15499:15587   */\n      mstore\n        /* \"#utility.yul\":15606:15610   */\n      0x22\n        /* \"#utility.yul\":15603:15604   */\n      0x04\n        /* \"#utility.yul\":15596:15611   */\n      mstore\n        /* \"#utility.yul\":15630:15634   */\n      0x24\n        /* \"#utility.yul\":15627:15628   */\n      0x00\n        /* \"#utility.yul\":15620:15635   */\n      revert\n        /* \"#utility.yul\":15647:15967   */\n    tag_135:\n        /* \"#utility.yul\":15691:15697   */\n      0x00\n        /* \"#utility.yul\":15728:15729   */\n      0x02\n        /* \"#utility.yul\":15722:15726   */\n      dup3\n        /* \"#utility.yul\":15718:15730   */\n      div\n        /* \"#utility.yul\":15708:15730   */\n      swap1\n      pop\n        /* \"#utility.yul\":15775:15776   */\n      0x01\n        /* \"#utility.yul\":15769:15773   */\n      dup3\n        /* \"#utility.yul\":15765:15777   */\n      and\n        /* \"#utility.yul\":15796:15814   */\n      dup1\n        /* \"#utility.yul\":15786:15867   */\n      tag_591\n      jumpi\n        /* \"#utility.yul\":15852:15856   */\n      0x7f\n        /* \"#utility.yul\":15844:15850   */\n      dup3\n        /* \"#utility.yul\":15840:15857   */\n      and\n        /* \"#utility.yul\":15830:15857   */\n      swap2\n      pop\n        /* \"#utility.yul\":15786:15867   */\n    tag_591:\n        /* \"#utility.yul\":15914:15916   */\n      0x20\n        /* \"#utility.yul\":15906:15912   */\n      dup3\n        /* \"#utility.yul\":15903:15917   */\n      lt\n        /* \"#utility.yul\":15883:15901   */\n      dup2\n        /* \"#utility.yul\":15880:15918   */\n      sub\n        /* \"#utility.yul\":15877:15961   */\n      tag_592\n      jumpi\n        /* \"#utility.yul\":15933:15951   */\n      tag_593\n      tag_398\n      jump\t// in\n    tag_593:\n        /* \"#utility.yul\":15877:15961   */\n    tag_592:\n        /* \"#utility.yul\":15698:15967   */\n      pop\n        /* \"#utility.yul\":15647:15967   */\n      swap2\n      swap1\n      pop\n      jump\t// out\n        /* \"#utility.yul\":15973:16143   */\n    tag_399:\n        /* \"#utility.yul\":16113:16135   */\n      0x496e73756666696369656e742062616c616e6365000000000000000000000000\n        /* \"#utility.yul\":16109:16110   */\n      0x00\n        /* \"#utility.yul\":16101:16107   */\n      dup3\n        /* \"#utility.yul\":16097:16111   */\n      add\n        /* \"#utility.yul\":16090:16136   */\n      mstore\n        /* \"#utility.yul\":15973:16143   */\n      pop\n      jump\t// out\n        /* \"#utility.yul\":16149:16515   */\n    tag_400:\n        /* \"#utility.yul\":16291:16294   */\n      0x00\n        /* \"#utility.yul\":16312:16379   */\n      tag_596\n        /* \"#utility.yul\":16376:16378   */\n      0x14\n        /* \"#utility.yul\":16371:16374   */\n      dup4\n        /* \"#utility.yul\":16312:16379   */\n      tag_375\n      jump\t// in\n    tag_596:\n        /* \"#utility.yul\":16305:16379   */\n      swap2\n      pop\n        /* \"#utility.yul\":16388:16481   */\n      tag_597\n        /* \"#utility.yul\":16477:16480   */\n      dup3\n        /* \"#utility.yul\":16388:16481   */\n      tag_399\n      jump\t// in\n    tag_597:\n        /* \"#utility.yul\":16506:16508   */\n      0x20\n        /* \"#utility.yul\":16501:16504   */\n      dup3\n        /* \"#utility.yul\":16497:16509   */\n      add\n        /* \"#utility.yul\":16490:16509   */\n      swap1\n      pop\n        /* \"#utility.yul\":16149:16515   */\n      swap2\n      swap1\n      pop\n      jump\t// out\n        /* \"#utility.yul\":16521:16940   */\n    tag_146:\n        /* \"#utility.yul\":16687:16691   */\n      0x00\n        /* \"#utility.yul\":16725:16727   */\n      0x20\n        /* \"#utility.yul\":16714:16723   */\n      dup3\n        /* \"#utility.yul\":16710:16728   */\n      add\n        /* \"#utility.yul\":16702:16728   */\n      swap1\n      pop\n        /* \"#utility.yul\":16774:16783   */\n      dup2\n        /* \"#utility.yul\":16768:16772   */\n      dup2\n        /* \"#utility.yul\":16764:16784   */\n      sub\n        /* \"#utility.yul\":16760:16761   */\n      0x00\n        /* \"#utility.yul\":16749:16758   */\n      dup4\n        /* \"#utility.yul\":16745:16762   */\n      add\n        /* \"#utility.yul\":16738:16785   */\n      mstore\n        /* \"#utility.yul\":16802:16933   */\n      tag_599\n        /* \"#utility.yul\":16928:16932   */\n      dup2\n        /* \"#utility.yul\":16802:16933   */\n      tag_400\n      jump\t// in\n    tag_599:\n        /* \"#utility.yul\":16794:16933   */\n      swap1\n      pop\n        /* \"#utility.yul\":16521:16940   */\n      swap2\n      swap1\n      pop\n      jump\t// out\n        /* \"#utility.yul\":16946:17118   */\n    tag_401:\n        /* \"#utility.yul\":17086:17110   */\n      0x496e73756666696369656e7420616c6c6f77616e636500000000000000000000\n        /* \"#utility.yul\":17082:17083   */\n      0x00\n        /* \"#utility.yul\":17074:17080   */\n      dup3\n        /* \"#utility.yul\":17070:17084   */\n      add\n        /* \"#utility.yul\":17063:17111   */\n      mstore\n        /* \"#utility.yul\":16946:17118   */\n      pop\n      jump\t// out\n        /* \"#utility.yul\":17124:17490   */\n    tag_402:\n        /* \"#utility.yul\":17266:17269   */\n      0x00\n        /* \"#utility.yul\":17287:17354   */\n      tag_602\n        /* \"#utility.yul\":17351:17353   */\n      0x16\n        /* \"#utility.yul\":17346:17349   */\n      dup4\n        /* \"#utility.yul\":17287:17354   */\n      tag_375\n      jump\t// in\n    tag_602:\n        /* \"#utility.yul\":17280:17354   */\n      swap2\n      pop\n        /* \"#utility.yul\":17363:17456   */\n      tag_603\n        /* \"#utility.yul\":17452:17455   */\n      dup3\n        /* \"#utility.yul\":17363:17456   */\n      tag_401\n      jump\t// in\n    tag_603:\n        /* \"#utility.yul\":17481:17483   */\n      0x20\n        /* \"#utility.yul\":17476:17479   */\n      dup3\n        /* \"#utility.yul\":17472:17484   */\n      add\n        /* \"#utility.yul\":17465:17484   */\n      swap1\n      pop\n        /* \"#utility.yul\":17124:17490   */\n      swap2\n      swap1\n      pop\n      jump\t// out\n        /* \"#utility.yul\":17496:17915   */\n    tag_149:\n        /* \"#utility.yul\":17662:17666   */\n      0x00\n        /* \"#utility.yul\":17700:17702   */\n      0x20\n        /* \"#utility.yul\":17689:17698   */\n      dup3\n        /* \"#utility.yul\":17685:17703   */\n      add\n        /* \"#utility.yul\":17677:17703   */\n      swap1\n      pop\n        /* \"#utility.yul\":17749:17758   */\n      dup2\n        /* \"#utility.yul\":17743:17747   */\n      dup2\n        /* \"#utility.yul\":17739:17759   */\n      sub\n        /* \"#utility.yul\":17735:17736   */\n      0x00\n        /* \"#utility.yul\":17724:17733   */\n      dup4\n        /* \"#utility.yul\":17720:17737   */\n      add\n        /* \"#utility.yul\":17713:17760   */\n      mstore\n        /* \"#utility.yul\":17777:17908   */\n      tag_605\n        /* \"#utility.yul\":17903:17907   */\n      dup2\n        /* \"#utility.yul\":17777:17908   */\n      tag_402\n      jump\t// in\n    tag_605:\n        /* \"#utility.yul\":17769:17908   */\n      swap1\n      pop\n        /* \"#utility.yul\":17496:17915   */\n      swap2\n      swap1\n      pop\n      jump\t// out\n        /* \"#utility.yul\":17921:18115   */\n    tag_151:\n        /* \"#utility.yul\":17961:17965   */\n      0x00\n        /* \"#utility.yul\":17981:18001   */\n      tag_607\n        /* \"#utility.yul\":17999:18000   */\n      dup3\n        /* \"#utility.yul\":17981:18001   */\n      tag_370\n      jump\t// in\n    tag_607:\n        /* \"#utility.yul\":17976:18001   */\n      swap2\n      pop\n        /* \"#utility.yul\":18015:18035   */\n      tag_608\n        /* \"#utility.yul\":18033:18034   */\n      dup4\n        /* \"#utility.yul\":18015:18035   */\n      tag_370\n      jump\t// in\n    tag_608:\n        /* \"#utility.yul\":18010:18035   */\n      swap3\n      pop\n        /* \"#utility.yul\":18059:18060   */\n      dup3\n        /* \"#utility.yul\":18056:18057   */\n      dup3\n        /* \"#utility.yul\":18052:18061   */\n      sub\n        /* \"#utility.yul\":18044:18061   */\n      swap1\n      pop\n        /* \"#utility.yul\":18083:18084   */\n      dup2\n        /* \"#utility.yul\":18077:18081   */\n      dup2\n        /* \"#utility.yul\":18074:18085   */\n      gt\n        /* \"#utility.yul\":18071:18108   */\n      iszero\n      tag_609\n      jumpi\n        /* \"#utility.yul\":18088:18106   */\n      tag_610\n      tag_396\n      jump\t// in\n    tag_610:\n        /* \"#utility.yul\":18071:18108   */\n    tag_609:\n        /* \"#utility.yul\":17921:18115   */\n      swap3\n      swap2\n      pop\n      pop\n      jump\t// out\n        /* \"#utility.yul\":18121:18290   */\n    tag_403:\n        /* \"#utility.yul\":18261:18282   */\n      0x5472616e73616374696f6e206578706972656400000000000000000000000000\n        /* \"#utility.yul\":18257:18258   */\n      0x00\n        /* \"#utility.yul\":18249:18255   */\n      dup3\n        /* \"#utility.yul\":18245:18259   */\n      add\n        /* \"#utility.yul\":18238:18283   */\n      mstore\n        /* \"#utility.yul\":18121:18290   */\n      pop\n      jump\t// out\n        /* \"#utility.yul\":18296:18662   */\n    tag_404:\n        /* \"#utility.yul\":18438:18441   */\n      0x00\n        /* \"#utility.yul\":18459:18526   */\n      tag_613\n        /* \"#utility.yul\":18523:18525   */\n      0x13\n        /* \"#utility.yul\":18518:18521   */\n      dup4\n        /* \"#utility.yul\":18459:18526   */\n      tag_375\n      jump\t// in\n    tag_613:\n        /* \"#utility.yul\":18452:18526   */\n      swap2\n      pop\n        /* \"#utility.yul\":18535:18628   */\n      tag_614\n        /* \"#utility.yul\":18624:18627   */\n      dup3\n        /* \"#utility.yul\":18535:18628   */\n      tag_403\n      jump\t// in\n    tag_614:\n        /* \"#utility.yul\":18653:18655   */\n      0x20\n        /* \"#utility.yul\":18648:18651   */\n      dup3\n        /* \"#utility.yul\":18644:18656   */\n      add\n        /* \"#utility.yul\":18637:18656   */\n      swap1\n      pop\n        /* \"#utility.yul\":18296:18662   */\n      swap2\n      swap1\n      pop\n      jump\t// out\n        /* \"#utility.yul\":18668:19087   */\n    tag_159:\n        /* \"#utility.yul\":18834:18838   */\n      0x00\n        /* \"#utility.yul\":18872:18874   */\n      0x20\n        /* \"#utility.yul\":18861:18870   */\n      dup3\n        /* \"#utility.yul\":18857:18875   */\n      add\n        /* \"#utility.yul\":18849:18875   */\n      swap1\n      pop\n        /* \"#utility.yul\":18921:18930   */\n      dup2\n        /* \"#utility.yul\":18915:18919   */\n      dup2\n        /* \"#utility.yul\":18911:18931   */\n      sub\n        /* \"#utility.yul\":18907:18908   */\n      0x00\n        /* \"#utility.yul\":18896:18905   */\n      dup4\n        /* \"#utility.yul\":18892:18909   */\n      add\n        /* \"#utility.yul\":18885:18932   */\n      mstore\n        /* \"#utility.yul\":18949:19080   */\n      tag_616\n        /* \"#utility.yul\":19075:19079   */\n      dup2\n        /* \"#utility.yul\":18949:19080   */\n      tag_404\n      jump\t// in\n    tag_616:\n        /* \"#utility.yul\":18941:19080   */\n      swap1\n      pop\n        /* \"#utility.yul\":18668:19087   */\n      swap2\n      swap1\n      pop\n      jump\t// out\n        /* \"#utility.yul\":19093:19255   */\n    tag_405:\n        /* \"#utility.yul\":19233:19247   */\n      0x496e76616c696420706174680000000000000000000000000000000000000000\n        /* \"#utility.yul\":19229:19230   */\n      0x00\n        /* \"#utility.yul\":19221:19227   */\n      dup3\n        /* \"#utility.yul\":19217:19231   */\n      add\n        /* \"#utility.yul\":19210:19248   */\n      mstore\n        /* \"#utility.yul\":19093:19255   */\n      pop\n      jump\t// out\n        /* \"#utility.yul\":19261:19627   */\n    tag_406:\n        /* \"#utility.yul\":19403:19406   */\n      0x00\n        /* \"#utility.yul\":19424:19491   */\n      tag_619\n        /* \"#utility.yul\":19488:19490   */\n      0x0c\n        /* \"#utility.yul\":19483:19486   */\n      dup4\n        /* \"#utility.yul\":19424:19491   */\n      tag_375\n      jump\t// in\n    tag_619:\n        /* \"#utility.yul\":19417:19491   */\n      swap2\n      pop\n        /* \"#utility.yul\":19500:19593   */\n      tag_620\n        /* \"#utility.yul\":19589:19592   */\n      dup3\n        /* \"#utility.yul\":19500:19593   */\n      tag_405\n      jump\t// in\n    tag_620:\n        /* \"#utility.yul\":19618:19620   */\n      0x20\n        /* \"#utility.yul\":19613:19616   */\n      dup3\n        /* \"#utility.yul\":19609:19621   */\n      add\n        /* \"#utility.yul\":19602:19621   */\n      swap1\n      pop\n        /* \"#utility.yul\":19261:19627   */\n      swap2\n      swap1\n      pop\n      jump\t// out\n        /* \"#utility.yul\":19633:20052   */\n    tag_163:\n        /* \"#utility.yul\":19799:19803   */\n      0x00\n        /* \"#utility.yul\":19837:19839   */\n      0x20\n        /* \"#utility.yul\":19826:19835   */\n      dup3\n        /* \"#utility.yul\":19822:19840   */\n      add\n        /* \"#utility.yul\":19814:19840   */\n      swap1\n      pop\n        /* \"#utility.yul\":19886:19895   */\n      dup2\n        /* \"#utility.yul\":19880:19884   */\n      dup2\n        /* \"#utility.yul\":19876:19896   */\n      sub\n        /* \"#utility.yul\":19872:19873   */\n      0x00\n        /* \"#utility.yul\":19861:19870   */\n      dup4\n        /* \"#utility.yul\":19857:19874   */\n      add\n        /* \"#utility.yul\":19850:19897   */\n      mstore\n        /* \"#utility.yul\":19914:20045   */\n      tag_622\n        /* \"#utility.yul\":20040:20044   */\n      dup2\n        /* \"#utility.yul\":19914:20045   */\n      tag_406\n      jump\t// in\n    tag_622:\n        /* \"#utility.yul\":19906:20045   */\n      swap1\n      pop\n        /* \"#utility.yul\":19633:20052   */\n      swap2\n      swap1\n      pop\n      jump\t// out\n        /* \"#utility.yul\":20058:20225   */\n    tag_407:\n        /* \"#utility.yul\":20198:20217   */\n      0x496e76616c696420726563697069656e74000000000000000000000000000000\n        /* \"#utility.yul\":20194:20195   */\n      0x00\n        /* \"#utility.yul\":20186:20192   */\n      dup3\n        /* \"#utility.yul\":20182:20196   */\n      add\n        /* \"#utility.yul\":20175:20218   */\n      mstore\n        /* \"#utility.yul\":20058:20225   */\n      pop\n      jump\t// out\n        /* \"#utility.yul\":20231:20597   */\n    tag_408:\n        /* \"#utility.yul\":20373:20376   */\n      0x00\n        /* \"#utility.yul\":20394:20461   */\n      tag_625\n        /* \"#utility.yul\":20458:20460   */\n      0x11\n        /* \"#utility.yul\":20453:20456   */\n      dup4\n        /* \"#utility.yul\":20394:20461   */\n      tag_375\n      jump\t// in\n    tag_625:\n        /* \"#utility.yul\":20387:20461   */\n      swap2\n      pop\n        /* \"#utility.yul\":20470:20563   */\n      tag_626\n        /* \"#utility.yul\":20559:20562   */\n      dup3\n        /* \"#utility.yul\":20470:20563   */\n      tag_407\n      jump\t// in\n    tag_626:\n        /* \"#utility.yul\":20588:20590   */\n      0x20\n        /* \"#utility.yul\":20583:20586   */\n      dup3\n        /* \"#utility.yul\":20579:20591   */\n      add\n        /* \"#utility.yul\":20572:20591   */\n      swap1\n      pop\n        /* \"#utility.yul\":20231:20597   */\n      swap2\n      swap1\n      pop\n      jump\t// out\n        /* \"#utility.yul\":20603:21022   */\n    tag_166:\n        /* \"#utility.yul\":20769:20773   */\n      0x00\n        /* \"#utility.yul\":20807:20809   */\n      0x20\n        /* \"#utility.yul\":20796:20805   */\n      dup3\n        /* \"#utility.yul\":20792:20810   */\n      add\n        /* \"#utility.yul\":20784:20810   */\n      swap1\n      pop\n        /* \"#utility.yul\":20856:20865   */\n      dup2\n        /* \"#utility.yul\":20850:20854   */\n      dup2\n        /* \"#utility.yul\":20846:20866   */\n      sub\n        /* \"#utility.yul\":20842:20843   */\n      0x00\n        /* \"#utility.yul\":20831:20840   */\n      dup4\n        /* \"#utility.yul\":20827:20844   */\n      add\n        /* \"#utility.yul\":20820:20867   */\n      mstore\n        /* \"#utility.yul\":20884:21015   */\n      tag_628\n        /* \"#utility.yul\":21010:21014   */\n      dup2\n        /* \"#utility.yul\":20884:21015   */\n      tag_408\n      jump\t// in\n    tag_628:\n        /* \"#utility.yul\":20876:21015   */\n      swap1\n      pop\n        /* \"#utility.yul\":20603:21022   */\n      swap2\n      swap1\n      pop\n      jump\t// out\n        /* \"#utility.yul\":21028:21208   */\n    tag_170:\n        /* \"#utility.yul\":21076:21153   */\n      0x4e487b7100000000000000000000000000000000000000000000000000000000\n        /* \"#utility.yul\":21073:21074   */\n      0x00\n        /* \"#utility.yul\":21066:21154   */\n      mstore\n        /* \"#utility.yul\":21173:21177   */\n      0x32\n        /* \"#utility.yul\":21170:21171   */\n      0x04\n        /* \"#utility.yul\":21163:21178   */\n      mstore\n        /* \"#utility.yul\":21197:21201   */\n      0x24\n        /* \"#utility.yul\":21194:21195   */\n      0x00\n        /* \"#utility.yul\":21187:21202   */\n      revert\n        /* \"#utility.yul\":21214:21382   */\n    tag_409:\n        /* \"#utility.yul\":21354:21374   */\n      0x496e76616c696420746f6b656e20706169720000000000000000000000000000\n        /* \"#utility.yul\":21350:21351   */\n      0x00\n        /* \"#utility.yul\":21342:21348   */\n      dup3\n        /* \"#utility.yul\":21338:21352   */\n      add\n        /* \"#utility.yul\":21331:21375   */\n      mstore\n        /* \"#utility.yul\":21214:21382   */\n      pop\n      jump\t// out\n        /* \"#utility.yul\":21388:21754   */\n    tag_410:\n        /* \"#utility.yul\":21530:21533   */\n      0x00\n        /* \"#utility.yul\":21551:21618   */\n      tag_632\n        /* \"#utility.yul\":21615:21617   */\n      0x12\n        /* \"#utility.yul\":21610:21613   */\n      dup4\n        /* \"#utility.yul\":21551:21618   */\n      tag_375\n      jump\t// in\n    tag_632:\n        /* \"#utility.yul\":21544:21618   */\n      swap2\n      pop\n        /* \"#utility.yul\":21627:21720   */\n      tag_633\n        /* \"#utility.yul\":21716:21719   */\n      dup3\n        /* \"#utility.yul\":21627:21720   */\n      tag_409\n      jump\t// in\n    tag_633:\n        /* \"#utility.yul\":21745:21747   */\n      0x20\n        /* \"#utility.yul\":21740:21743   */\n      dup3\n        /* \"#utility.yul\":21736:21748   */\n      add\n        /* \"#utility.yul\":21729:21748   */\n      swap1\n      pop\n        /* \"#utility.yul\":21388:21754   */\n      swap2\n      swap1\n      pop\n      jump\t// out\n        /* \"#utility.yul\":21760:22179   */\n    tag_178:\n        /* \"#utility.yul\":21926:21930   */\n      0x00\n        /* \"#utility.yul\":21964:21966   */\n      0x20\n        /* \"#utility.yul\":21953:21962   */\n      dup3\n        /* \"#utility.yul\":21949:21967   */\n      add\n        /* \"#utility.yul\":21941:21967   */\n      swap1\n      pop\n        /* \"#utility.yul\":22013:22022   */\n      dup2\n        /* \"#utility.yul\":22007:22011   */\n      dup2\n        /* \"#utility.yul\":22003:22023   */\n      sub\n        /* \"#utility.yul\":21999:22000   */\n      0x00\n        /* \"#utility.yul\":21988:21997   */\n      dup4\n        /* \"#utility.yul\":21984:22001   */\n      add\n        /* \"#utility.yul\":21977:22024   */\n      mstore\n        /* \"#utility.yul\":22041:22172   */\n      tag_635\n        /* \"#utility.yul\":22167:22171   */\n      dup2\n        /* \"#utility.yul\":22041:22172   */\n      tag_410\n      jump\t// in\n    tag_635:\n        /* \"#utility.yul\":22033:22172   */\n      swap1\n      pop\n        /* \"#utility.yul\":21760:22179   */\n      swap2\n      swap1\n      pop\n      jump\t// out\n        /* \"#utility.yul\":22185:22361   */\n    tag_411:\n        /* \"#utility.yul\":22325:22353   */\n      0x496e73756666696369656e74206f757470757420616d6f756e74000000000000\n        /* \"#utility.yul\":22321:22322   */\n      0x00\n        /* \"#utility.yul\":22313:22319   */\n      dup3\n        /* \"#utility.yul\":22309:22323   */\n      add\n        /* \"#utility.yul\":22302:22354   */\n      mstore\n        /* \"#utility.yul\":22185:22361   */\n      pop\n      jump\t// out\n        /* \"#utility.yul\":22367:22733   */\n    tag_412:\n        /* \"#utility.yul\":22509:22512   */\n      0x00\n        /* \"#utility.yul\":22530:22597   */\n      tag_638\n        /* \"#utility.yul\":22594:22596   */\n      0x1a\n        /* \"#utility.yul\":22589:22592   */\n      dup4\n        /* \"#utility.yul\":22530:22597   */\n      tag_375\n      jump\t// in\n    tag_638:\n        /* \"#utility.yul\":22523:22597   */\n      swap2\n      pop\n        /* \"#utility.yul\":22606:22699   */\n      tag_639\n        /* \"#utility.yul\":22695:22698   */\n      dup3\n        /* \"#utility.yul\":22606:22699   */\n      tag_411\n      jump\t// in\n    tag_639:\n        /* \"#utility.yul\":22724:22726   */\n      0x20\n        /* \"#utility.yul\":22719:22722   */\n      dup3\n        /* \"#utility.yul\":22715:22727   */\n      add\n        /* \"#utility.yul\":22708:22727   */\n      swap1\n      pop\n        /* \"#utility.yul\":22367:22733   */\n      swap2\n      swap1\n      pop\n      jump\t// out\n        /* \"#utility.yul\":22739:23158   */\n    tag_192:\n        /* \"#utility.yul\":22905:22909   */\n      0x00\n        /* \"#utility.yul\":22943:22945   */\n      0x20\n        /* \"#utility.yul\":22932:22941   */\n      dup3\n        /* \"#utility.yul\":22928:22946   */\n      add\n        /* \"#utility.yul\":22920:22946   */\n      swap1\n      pop\n        /* \"#utility.yul\":22992:23001   */\n      dup2\n        /* \"#utility.yul\":22986:22990   */\n      dup2\n        /* \"#utility.yul\":22982:23002   */\n      sub\n        /* \"#utility.yul\":22978:22979   */\n      0x00\n        /* \"#utility.yul\":22967:22976   */\n      dup4\n        /* \"#utility.yul\":22963:22980   */\n      add\n        /* \"#utility.yul\":22956:23003   */\n      mstore\n        /* \"#utility.yul\":23020:23151   */\n      tag_641\n        /* \"#utility.yul\":23146:23150   */\n      dup2\n        /* \"#utility.yul\":23020:23151   */\n      tag_412\n      jump\t// in\n    tag_641:\n        /* \"#utility.yul\":23012:23151   */\n      swap1\n      pop\n        /* \"#utility.yul\":22739:23158   */\n      swap2\n      swap1\n      pop\n      jump\t// out\n        /* \"#utility.yul\":23164:23606   */\n    tag_194:\n        /* \"#utility.yul\":23313:23317   */\n      0x00\n        /* \"#utility.yul\":23351:23353   */\n      0x60\n        /* \"#utility.yul\":23340:23349   */\n      dup3\n        /* \"#utility.yul\":23336:23354   */\n      add\n        /* \"#utility.yul\":23328:23354   */\n      swap1\n      pop\n        /* \"#utility.yul\":23364:23435   */\n      tag_643\n        /* \"#utility.yul\":23432:23433   */\n      0x00\n        /* \"#utility.yul\":23421:23430   */\n      dup4\n        /* \"#utility.yul\":23417:23434   */\n      add\n        /* \"#utility.yul\":23408:23414   */\n      dup7\n        /* \"#utility.yul\":23364:23435   */\n      tag_385\n      jump\t// in\n    tag_643:\n        /* \"#utility.yul\":23445:23517   */\n      tag_644\n        /* \"#utility.yul\":23513:23515   */\n      0x20\n        /* \"#utility.yul\":23502:23511   */\n      dup4\n        /* \"#utility.yul\":23498:23516   */\n      add\n        /* \"#utility.yul\":23489:23495   */\n      dup6\n        /* \"#utility.yul\":23445:23517   */\n      tag_385\n      jump\t// in\n    tag_644:\n        /* \"#utility.yul\":23527:23599   */\n      tag_645\n        /* \"#utility.yul\":23595:23597   */\n      0x40\n        /* \"#utility.yul\":23584:23593   */\n      dup4\n        /* \"#utility.yul\":23580:23598   */\n      add\n        /* \"#utility.yul\":23571:23577   */\n      dup5\n        /* \"#utility.yul\":23527:23599   */\n      tag_373\n      jump\t// in\n    tag_645:\n        /* \"#utility.yul\":23164:23606   */\n      swap5\n      swap4\n      pop\n      pop\n      pop\n      pop\n      jump\t// out\n        /* \"#utility.yul\":23612:23728   */\n    tag_413:\n        /* \"#utility.yul\":23682:23703   */\n      tag_647\n        /* \"#utility.yul\":23697:23702   */\n      dup2\n        /* \"#utility.yul\":23682:23703   */\n      tag_383\n      jump\t// in\n    tag_647:\n        /* \"#utility.yul\":23675:23680   */\n      dup2\n        /* \"#utility.yul\":23672:23704   */\n      eq\n        /* \"#utility.yul\":23662:23722   */\n      tag_648\n      jumpi\n        /* \"#utility.yul\":23718:23719   */\n      0x00\n        /* \"#utility.yul\":23715:23716   */\n      0x00\n        /* \"#utility.yul\":23708:23720   */\n      revert\n        /* \"#utility.yul\":23662:23722   */\n    tag_648:\n        /* \"#utility.yul\":23612:23728   */\n      pop\n      jump\t// out\n        /* \"#utility.yul\":23734:23871   */\n    tag_414:\n        /* \"#utility.yul\":23788:23793   */\n      0x00\n        /* \"#utility.yul\":23819:23825   */\n      dup2\n        /* \"#utility.yul\":23813:23826   */\n      mload\n        /* \"#utility.yul\":23804:23826   */\n      swap1\n      pop\n        /* \"#utility.yul\":23835:23865   */\n      tag_650\n        /* \"#utility.yul\":23859:23864   */\n      dup2\n        /* \"#utility.yul\":23835:23865   */\n      tag_413\n      jump\t// in\n    tag_650:\n        /* \"#utility.yul\":23734:23871   */\n      swap3\n      swap2\n      pop\n      pop\n      jump\t// out\n        /* \"#utility.yul\":23877:24222   */\n    tag_198:\n        /* \"#utility.yul\":23944:23950   */\n      0x00\n        /* \"#utility.yul\":23993:23995   */\n      0x20\n        /* \"#utility.yul\":23981:23990   */\n      dup3\n        /* \"#utility.yul\":23972:23979   */\n      dup5\n        /* \"#utility.yul\":23968:23991   */\n      sub\n        /* \"#utility.yul\":23964:23996   */\n      slt\n        /* \"#utility.yul\":23961:24080   */\n      iszero\n      tag_652\n      jumpi\n        /* \"#utility.yul\":23999:24078   */\n      tag_653\n      tag_368\n      jump\t// in\n    tag_653:\n        /* \"#utility.yul\":23961:24080   */\n    tag_652:\n        /* \"#utility.yul\":24119:24120   */\n      0x00\n        /* \"#utility.yul\":24144:24205   */\n      tag_654\n        /* \"#utility.yul\":24197:24204   */\n      dup5\n        /* \"#utility.yul\":24188:24194   */\n      dup3\n        /* \"#utility.yul\":24177:24186   */\n      dup6\n        /* \"#utility.yul\":24173:24195   */\n      add\n        /* \"#utility.yul\":24144:24205   */\n      tag_414\n      jump\t// in\n    tag_654:\n        /* \"#utility.yul\":24134:24205   */\n      swap2\n      pop\n        /* \"#utility.yul\":24090:24215   */\n      pop\n        /* \"#utility.yul\":23877:24222   */\n      swap3\n      swap2\n      pop\n      pop\n      jump\t// out\n        /* \"#utility.yul\":24228:24399   */\n    tag_415:\n        /* \"#utility.yul\":24368:24391   */\n      0x496e707574207472616e73666572206661696c65640000000000000000000000\n        /* \"#utility.yul\":24364:24365   */\n      0x00\n        /* \"#utility.yul\":24356:24362   */\n      dup3\n        /* \"#utility.yul\":24352:24366   */\n      add\n        /* \"#utility.yul\":24345:24392   */\n      mstore\n        /* \"#utility.yul\":24228:24399   */\n      pop\n      jump\t// out\n        /* \"#utility.yul\":24405:24771   */\n    tag_416:\n        /* \"#utility.yul\":24547:24550   */\n      0x00\n        /* \"#utility.yul\":24568:24635   */\n      tag_657\n        /* \"#utility.yul\":24632:24634   */\n      0x15\n        /* \"#utility.yul\":24627:24630   */\n      dup4\n        /* \"#utility.yul\":24568:24635   */\n      tag_375\n      jump\t// in\n    tag_657:\n        /* \"#utility.yul\":24561:24635   */\n      swap2\n      pop\n        /* \"#utility.yul\":24644:24737   */\n      tag_658\n        /* \"#utility.yul\":24733:24736   */\n      dup3\n        /* \"#utility.yul\":24644:24737   */\n      tag_415\n      jump\t// in\n    tag_658:\n        /* \"#utility.yul\":24762:24764   */\n      0x20\n        /* \"#utility.yul\":24757:24760   */\n      dup3\n        /* \"#utility.yul\":24753:24765   */\n      add\n        /* \"#utility.yul\":24746:24765   */\n      swap1\n      pop\n        /* \"#utility.yul\":24405:24771   */\n      swap2\n      swap1\n      pop\n      jump\t// out\n        /* \"#utility.yul\":24777:25196   */\n    tag_201:\n        /* \"#utility.yul\":24943:24947   */\n      0x00\n        /* \"#utility.yul\":24981:24983   */\n      0x20\n        /* \"#utility.yul\":24970:24979   */\n      dup3\n        /* \"#utility.yul\":24966:24984   */\n      add\n        /* \"#utility.yul\":24958:24984   */\n      swap1\n      pop\n        /* \"#utility.yul\":25030:25039   */\n      dup2\n        /* \"#utility.yul\":25024:25028   */\n      dup2\n        /* \"#utility.yul\":25020:25040   */\n      sub\n        /* \"#utility.yul\":25016:25017   */\n      0x00\n        /* \"#utility.yul\":25005:25014   */\n      dup4\n        /* \"#utility.yul\":25001:25018   */\n      add\n        /* \"#utility.yul\":24994:25041   */\n      mstore\n        /* \"#utility.yul\":25058:25189   */\n      tag_660\n        /* \"#utility.yul\":25184:25188   */\n      dup2\n        /* \"#utility.yul\":25058:25189   */\n      tag_416\n      jump\t// in\n    tag_660:\n        /* \"#utility.yul\":25050:25189   */\n      swap1\n      pop\n        /* \"#utility.yul\":24777:25196   */\n      swap2\n      swap1\n      pop\n      jump\t// out\n        /* \"#utility.yul\":25202:25534   */\n    tag_203:\n        /* \"#utility.yul\":25323:25327   */\n      0x00\n        /* \"#utility.yul\":25361:25363   */\n      0x40\n        /* \"#utility.yul\":25350:25359   */\n      dup3\n        /* \"#utility.yul\":25346:25364   */\n      add\n        /* \"#utility.yul\":25338:25364   */\n      swap1\n      pop\n        /* \"#utility.yul\":25374:25445   */\n      tag_662\n        /* \"#utility.yul\":25442:25443   */\n      0x00\n        /* \"#utility.yul\":25431:25440   */\n      dup4\n        /* \"#utility.yul\":25427:25444   */\n      add\n        /* \"#utility.yul\":25418:25424   */\n      dup6\n        /* \"#utility.yul\":25374:25445   */\n      tag_385\n      jump\t// in\n    tag_662:\n        /* \"#utility.yul\":25455:25527   */\n      tag_663\n        /* \"#utility.yul\":25523:25525   */\n      0x20\n        /* \"#utility.yul\":25512:25521   */\n      dup4\n        /* \"#utility.yul\":25508:25526   */\n      add\n        /* \"#utility.yul\":25499:25505   */\n      dup5\n        /* \"#utility.yul\":25455:25527   */\n      tag_373\n      jump\t// in\n    tag_663:\n        /* \"#utility.yul\":25202:25534   */\n      swap4\n      swap3\n      pop\n      pop\n      pop\n      jump\t// out\n        /* \"#utility.yul\":25540:25712   */\n    tag_417:\n        /* \"#utility.yul\":25680:25704   */\n      0x4f7574707574207472616e73666572206661696c656400000000000000000000\n        /* \"#utility.yul\":25676:25677   */\n      0x00\n        /* \"#utility.yul\":25668:25674   */\n      dup3\n        /* \"#utility.yul\":25664:25678   */\n      add\n        /* \"#utility.yul\":25657:25705   */\n      mstore\n        /* \"#utility.yul\":25540:25712   */\n      pop\n      jump\t// out\n        /* \"#utility.yul\":25718:26084   */\n    tag_418:\n        /* \"#utility.yul\":25860:25863   */\n      0x00\n        /* \"#utility.yul\":25881:25948   */\n      tag_666\n        /* \"#utility.yul\":25945:25947   */\n      0x16\n        /* \"#utility.yul\":25940:25943   */\n      dup4\n        /* \"#utility.yul\":25881:25948   */\n      tag_375\n      jump\t// in\n    tag_666:\n        /* \"#utility.yul\":25874:25948   */\n      swap2\n      pop\n        /* \"#utility.yul\":25957:26050   */\n      tag_667\n        /* \"#utility.yul\":26046:26049   */\n      dup3\n        /* \"#utility.yul\":25957:26050   */\n      tag_417\n      jump\t// in\n    tag_667:\n        /* \"#utility.yul\":26075:26077   */\n      0x20\n        /* \"#utility.yul\":26070:26073   */\n      dup3\n        /* \"#utility.yul\":26066:26078   */\n      add\n        /* \"#utility.yul\":26059:26078   */\n      swap1\n      pop\n        /* \"#utility.yul\":25718:26084   */\n      swap2\n      swap1\n      pop\n      jump\t// out\n        /* \"#utility.yul\":26090:26509   */\n    tag_209:\n        /* \"#utility.yul\":26256:26260   */\n      0x00\n        /* \"#utility.yul\":26294:26296   */\n      0x20\n        /* \"#utility.yul\":26283:26292   */\n      dup3\n        /* \"#utility.yul\":26279:26297   */\n      add\n        /* \"#utility.yul\":26271:26297   */\n      swap1\n      pop\n        /* \"#utility.yul\":26343:26352   */\n      dup2\n        /* \"#utility.yul\":26337:26341   */\n      dup2\n        /* \"#utility.yul\":26333:26353   */\n      sub\n        /* \"#utility.yul\":26329:26330   */\n      0x00\n        /* \"#utility.yul\":26318:26327   */\n      dup4\n        /* \"#utility.yul\":26314:26331   */\n      add\n        /* \"#utility.yul\":26307:26354   */\n      mstore\n        /* \"#utility.yul\":26371:26502   */\n      tag_669\n        /* \"#utility.yul\":26497:26501   */\n      dup2\n        /* \"#utility.yul\":26371:26502   */\n      tag_418\n      jump\t// in\n    tag_669:\n        /* \"#utility.yul\":26363:26502   */\n      swap1\n      pop\n        /* \"#utility.yul\":26090:26509   */\n      swap2\n      swap1\n      pop\n      jump\t// out\n        /* \"#utility.yul\":26515:26679   */\n    tag_419:\n        /* \"#utility.yul\":26655:26671   */\n      0x5a65726f206c6971756964697479000000000000000000000000000000000000\n        /* \"#utility.yul\":26651:26652   */\n      0x00\n        /* \"#utility.yul\":26643:26649   */\n      dup3\n        /* \"#utility.yul\":26639:26653   */\n      add\n        /* \"#utility.yul\":26632:26672   */\n      mstore\n        /* \"#utility.yul\":26515:26679   */\n      pop\n      jump\t// out\n        /* \"#utility.yul\":26685:27051   */\n    tag_420:\n        /* \"#utility.yul\":26827:26830   */\n      0x00\n        /* \"#utility.yul\":26848:26915   */\n      tag_672\n        /* \"#utility.yul\":26912:26914   */\n      0x0e\n        /* \"#utility.yul\":26907:26910   */\n      dup4\n        /* \"#utility.yul\":26848:26915   */\n      tag_375\n      jump\t// in\n    tag_672:\n        /* \"#utility.yul\":26841:26915   */\n      swap2\n      pop\n        /* \"#utility.yul\":26924:27017   */\n      tag_673\n        /* \"#utility.yul\":27013:27016   */\n      dup3\n        /* \"#utility.yul\":26924:27017   */\n      tag_419\n      jump\t// in\n    tag_673:\n        /* \"#utility.yul\":27042:27044   */\n      0x20\n        /* \"#utility.yul\":27037:27040   */\n      dup3\n        /* \"#utility.yul\":27033:27045   */\n      add\n        /* \"#utility.yul\":27026:27045   */\n      swap1\n      pop\n        /* \"#utility.yul\":26685:27051   */\n      swap2\n      swap1\n      pop\n      jump\t// out\n        /* \"#utility.yul\":27057:27476   */\n    tag_252:\n        /* \"#utility.yul\":27223:27227   */\n      0x00\n        /* \"#utility.yul\":27261:27263   */\n      0x20\n        /* \"#utility.yul\":27250:27259   */\n      dup3\n        /* \"#utility.yul\":27246:27264   */\n      add\n        /* \"#utility.yul\":27238:27264   */\n      swap1\n      pop\n        /* \"#utility.yul\":27310:27319   */\n      dup2\n        /* \"#utility.yul\":27304:27308   */\n      dup2\n        /* \"#utility.yul\":27300:27320   */\n      sub\n        /* \"#utility.yul\":27296:27297   */\n      0x00\n        /* \"#utility.yul\":27285:27294   */\n      dup4\n        /* \"#utility.yul\":27281:27298   */\n      add\n        /* \"#utility.yul\":27274:27321   */\n      mstore\n        /* \"#utility.yul\":27338:27469   */\n      tag_675\n        /* \"#utility.yul\":27464:27468   */\n      dup2\n        /* \"#utility.yul\":27338:27469   */\n      tag_420\n      jump\t// in\n    tag_675:\n        /* \"#utility.yul\":27330:27469   */\n      swap1\n      pop\n        /* \"#utility.yul\":27057:27476   */\n      swap2\n      swap1\n      pop\n      jump\t// out\n        /* \"#utility.yul\":27482:27662   */\n    tag_421:\n        /* \"#utility.yul\":27622:27654   */\n      0x496e73756666696369656e74206c69717569646974792062616c616e63650000\n        /* \"#utility.yul\":27618:27619   */\n      0x00\n        /* \"#utility.yul\":27610:27616   */\n      dup3\n        /* \"#utility.yul\":27606:27620   */\n      add\n        /* \"#utility.yul\":27599:27655   */\n      mstore\n        /* \"#utility.yul\":27482:27662   */\n      pop\n      jump\t// out\n        /* \"#utility.yul\":27668:28034   */\n    tag_422:\n        /* \"#utility.yul\":27810:27813   */\n      0x00\n        /* \"#utility.yul\":27831:27898   */\n      tag_678\n        /* \"#utility.yul\":27895:27897   */\n      0x1e\n        /* \"#utility.yul\":27890:27893   */\n      dup4\n        /* \"#utility.yul\":27831:27898   */\n      tag_375\n      jump\t// in\n    tag_678:\n        /* \"#utility.yul\":27824:27898   */\n      swap2\n      pop\n        /* \"#utility.yul\":27907:28000   */\n      tag_679\n        /* \"#utility.yul\":27996:27999   */\n      dup3\n        /* \"#utility.yul\":27907:28000   */\n      tag_421\n      jump\t// in\n    tag_679:\n        /* \"#utility.yul\":28025:28027   */\n      0x20\n        /* \"#utility.yul\":28020:28023   */\n      dup3\n        /* \"#utility.yul\":28016:28028   */\n      add\n        /* \"#utility.yul\":28009:28028   */\n      swap1\n      pop\n        /* \"#utility.yul\":27668:28034   */\n      swap2\n      swap1\n      pop\n      jump\t// out\n        /* \"#utility.yul\":28040:28459   */\n    tag_255:\n        /* \"#utility.yul\":28206:28210   */\n      0x00\n        /* \"#utility.yul\":28244:28246   */\n      0x20\n        /* \"#utility.yul\":28233:28242   */\n      dup3\n        /* \"#utility.yul\":28229:28247   */\n      add\n        /* \"#utility.yul\":28221:28247   */\n      swap1\n      pop\n        /* \"#utility.yul\":28293:28302   */\n      dup2\n        /* \"#utility.yul\":28287:28291   */\n      dup2\n        /* \"#utility.yul\":28283:28303   */\n      sub\n        /* \"#utility.yul\":28279:28280   */\n      0x00\n        /* \"#utility.yul\":28268:28277   */\n      dup4\n        /* \"#utility.yul\":28264:28281   */\n      add\n        /* \"#utility.yul\":28257:28304   */\n      mstore\n        /* \"#utility.yul\":28321:28452   */\n      tag_681\n        /* \"#utility.yul\":28447:28451   */\n      dup2\n        /* \"#utility.yul\":28321:28452   */\n      tag_422\n      jump\t// in\n    tag_681:\n        /* \"#utility.yul\":28313:28452   */\n      swap1\n      pop\n        /* \"#utility.yul\":28040:28459   */\n      swap2\n      swap1\n      pop\n      jump\t// out\n        /* \"#utility.yul\":28465:28636   */\n    tag_423:\n        /* \"#utility.yul\":28605:28628   */\n      0x496e73756666696369656e74204120616d6f756e740000000000000000000000\n        /* \"#utility.yul\":28601:28602   */\n      0x00\n        /* \"#utility.yul\":28593:28599   */\n      dup3\n        /* \"#utility.yul\":28589:28603   */\n      add\n        /* \"#utility.yul\":28582:28629   */\n      mstore\n        /* \"#utility.yul\":28465:28636   */\n      pop\n      jump\t// out\n        /* \"#utility.yul\":28642:29008   */\n    tag_424:\n        /* \"#utility.yul\":28784:28787   */\n      0x00\n        /* \"#utility.yul\":28805:28872   */\n      tag_684\n        /* \"#utility.yul\":28869:28871   */\n      0x15\n        /* \"#utility.yul\":28864:28867   */\n      dup4\n        /* \"#utility.yul\":28805:28872   */\n      tag_375\n      jump\t// in\n    tag_684:\n        /* \"#utility.yul\":28798:28872   */\n      swap2\n      pop\n        /* \"#utility.yul\":28881:28974   */\n      tag_685\n        /* \"#utility.yul\":28970:28973   */\n      dup3\n        /* \"#utility.yul\":28881:28974   */\n      tag_423\n      jump\t// in\n    tag_685:\n        /* \"#utility.yul\":28999:29001   */\n      0x20\n        /* \"#utility.yul\":28994:28997   */\n      dup3\n        /* \"#utility.yul\":28990:29002   */\n      add\n        /* \"#utility.yul\":28983:29002   */\n      swap1\n      pop\n        /* \"#utility.yul\":28642:29008   */\n      swap2\n      swap1\n      pop\n      jump\t// out\n        /* \"#utility.yul\":29014:29433   */\n    tag_262:\n        /* \"#utility.yul\":29180:29184   */\n      0x00\n        /* \"#utility.yul\":29218:29220   */\n      0x20\n        /* \"#utility.yul\":29207:29216   */\n      dup3\n        /* \"#utility.yul\":29203:29221   */\n      add\n        /* \"#utility.yul\":29195:29221   */\n      swap1\n      pop\n        /* \"#utility.yul\":29267:29276   */\n      dup2\n        /* \"#utility.yul\":29261:29265   */\n      dup2\n        /* \"#utility.yul\":29257:29277   */\n      sub\n        /* \"#utility.yul\":29253:29254   */\n      0x00\n        /* \"#utility.yul\":29242:29251   */\n      dup4\n        /* \"#utility.yul\":29238:29255   */\n      add\n        /* \"#utility.yul\":29231:29278   */\n      mstore\n        /* \"#utility.yul\":29295:29426   */\n      tag_687\n        /* \"#utility.yul\":29421:29425   */\n      dup2\n        /* \"#utility.yul\":29295:29426   */\n      tag_424\n      jump\t// in\n    tag_687:\n        /* \"#utility.yul\":29287:29426   */\n      swap1\n      pop\n        /* \"#utility.yul\":29014:29433   */\n      swap2\n      swap1\n      pop\n      jump\t// out\n        /* \"#utility.yul\":29439:29610   */\n    tag_425:\n        /* \"#utility.yul\":29579:29602   */\n      0x496e73756666696369656e74204220616d6f756e740000000000000000000000\n        /* \"#utility.yul\":29575:29576   */\n      0x00\n        /* \"#utility.yul\":29567:29573   */\n      dup3\n        /* \"#utility.yul\":29563:29577   */\n      add\n        /* \"#utility.yul\":29556:29603   */\n      mstore\n        /* \"#utility.yul\":29439:29610   */\n      pop\n      jump\t// out\n        /* \"#utility.yul\":29616:29982   */\n    tag_426:\n        /* \"#utility.yul\":29758:29761   */\n      0x00\n        /* \"#utility.yul\":29779:29846   */\n      tag_690\n        /* \"#utility.yul\":29843:29845   */\n      0x15\n        /* \"#utility.yul\":29838:29841   */\n      dup4\n        /* \"#utility.yul\":29779:29846   */\n      tag_375\n      jump\t// in\n    tag_690:\n        /* \"#utility.yul\":29772:29846   */\n      swap2\n      pop\n        /* \"#utility.yul\":29855:29948   */\n      tag_691\n        /* \"#utility.yul\":29944:29947   */\n      dup3\n        /* \"#utility.yul\":29855:29948   */\n      tag_425\n      jump\t// in\n    tag_691:\n        /* \"#utility.yul\":29973:29975   */\n      0x20\n        /* \"#utility.yul\":29968:29971   */\n      dup3\n        /* \"#utility.yul\":29964:29976   */\n      add\n        /* \"#utility.yul\":29957:29976   */\n      swap1\n      pop\n        /* \"#utility.yul\":29616:29982   */\n      swap2\n      swap1\n      pop\n      jump\t// out\n        /* \"#utility.yul\":29988:30407   */\n    tag_265:\n        /* \"#utility.yul\":30154:30158   */\n      0x00\n        /* \"#utility.yul\":30192:30194   */\n      0x20\n        /* \"#utility.yul\":30181:30190   */\n      dup3\n        /* \"#utility.yul\":30177:30195   */\n      add\n        /* \"#utility.yul\":30169:30195   */\n      swap1\n      pop\n        /* \"#utility.yul\":30241:30250   */\n      dup2\n        /* \"#utility.yul\":30235:30239   */\n      dup2\n        /* \"#utility.yul\":30231:30251   */\n      sub\n        /* \"#utility.yul\":30227:30228   */\n      0x00\n        /* \"#utility.yul\":30216:30225   */\n      dup4\n        /* \"#utility.yul\":30212:30229   */\n      add\n        /* \"#utility.yul\":30205:30252   */\n      mstore\n        /* \"#utility.yul\":30269:30400   */\n      tag_693\n        /* \"#utility.yul\":30395:30399   */\n      dup2\n        /* \"#utility.yul\":30269:30400   */\n      tag_426\n      jump\t// in\n    tag_693:\n        /* \"#utility.yul\":30261:30400   */\n      swap1\n      pop\n        /* \"#utility.yul\":29988:30407   */\n      swap2\n      swap1\n      pop\n      jump\t// out\n        /* \"#utility.yul\":30413:30580   */\n    tag_427:\n        /* \"#utility.yul\":30553:30572   */\n      0x5472616e736665722041206661696c6564000000000000000000000000000000\n        /* \"#utility.yul\":30549:30550   */\n      0x00\n        /* \"#utility.yul\":30541:30547   */\n      dup3\n        /* \"#utility.yul\":30537:30551   */\n      add\n        /* \"#utility.yul\":30530:30573   */\n      mstore\n        /* \"#utility.yul\":30413:30580   */\n      pop\n      jump\t// out\n        /* \"#utility.yul\":30586:30952   */\n    tag_428:\n        /* \"#utility.yul\":30728:30731   */\n      0x00\n        /* \"#utility.yul\":30749:30816   */\n      tag_696\n        /* \"#utility.yul\":30813:30815   */\n      0x11\n        /* \"#utility.yul\":30808:30811   */\n      dup4\n        /* \"#utility.yul\":30749:30816   */\n      tag_375\n      jump\t// in\n    tag_696:\n        /* \"#utility.yul\":30742:30816   */\n      swap2\n      pop\n        /* \"#utility.yul\":30825:30918   */\n      tag_697\n        /* \"#utility.yul\":30914:30917   */\n      dup3\n        /* \"#utility.yul\":30825:30918   */\n      tag_427\n      jump\t// in\n    tag_697:\n        /* \"#utility.yul\":30943:30945   */\n      0x20\n        /* \"#utility.yul\":30938:30941   */\n      dup3\n        /* \"#utility.yul\":30934:30946   */\n      add\n        /* \"#utility.yul\":30927:30946   */\n      swap1\n      pop\n        /* \"#utility.yul\":30586:30952   */\n      swap2\n      swap1\n      pop\n      jump\t// out\n        /* \"#utility.yul\":30958:31377   */\n    tag_276:\n        /* \"#utility.yul\":31124:31128   */\n      0x00\n        /* \"#utility.yul\":31162:31164   */\n      0x20\n        /* \"#utility.yul\":31151:31160   */\n      dup3\n        /* \"#utility.yul\":31147:31165   */\n      add\n        /* \"#utility.yul\":31139:31165   */\n      swap1\n      pop\n        /* \"#utility.yul\":31211:31220   */\n      dup2\n        /* \"#utility.yul\":31205:31209   */\n      dup2\n        /* \"#utility.yul\":31201:31221   */\n      sub\n        /* \"#utility.yul\":31197:31198   */\n      0x00\n        /* \"#utility.yul\":31186:31195   */\n      dup4\n        /* \"#utility.yul\":31182:31199   */\n      add\n        /* \"#utility.yul\":31175:31222   */\n      mstore\n        /* \"#utility.yul\":31239:31370   */\n      tag_699\n        /* \"#utility.yul\":31365:31369   */\n      dup2\n        /* \"#utility.yul\":31239:31370   */\n      tag_428\n      jump\t// in\n    tag_699:\n        /* \"#utility.yul\":31231:31370   */\n      swap1\n      pop\n        /* \"#utility.yul\":30958:31377   */\n      swap2\n      swap1\n      pop\n      jump\t// out\n        /* \"#utility.yul\":31383:31550   */\n    tag_429:\n        /* \"#utility.yul\":31523:31542   */\n      0x5472616e736665722042206661696c6564000000000000000000000000000000\n        /* \"#utility.yul\":31519:31520   */\n      0x00\n        /* \"#utility.yul\":31511:31517   */\n      dup3\n        /* \"#utility.yul\":31507:31521   */\n      add\n        /* \"#utility.yul\":31500:31543   */\n      mstore\n        /* \"#utility.yul\":31383:31550   */\n      pop\n      jump\t// out\n        /* \"#utility.yul\":31556:31922   */\n    tag_430:\n        /* \"#utility.yul\":31698:31701   */\n      0x00\n        /* \"#utility.yul\":31719:31786   */\n      tag_702\n        /* \"#utility.yul\":31783:31785   */\n      0x11\n        /* \"#utility.yul\":31778:31781   */\n      dup4\n        /* \"#utility.yul\":31719:31786   */\n      tag_375\n      jump\t// in\n    tag_702:\n        /* \"#utility.yul\":31712:31786   */\n      swap2\n      pop\n        /* \"#utility.yul\":31795:31888   */\n      tag_703\n        /* \"#utility.yul\":31884:31887   */\n      dup3\n        /* \"#utility.yul\":31795:31888   */\n      tag_429\n      jump\t// in\n    tag_703:\n        /* \"#utility.yul\":31913:31915   */\n      0x20\n        /* \"#utility.yul\":31908:31911   */\n      dup3\n        /* \"#utility.yul\":31904:31916   */\n      add\n        /* \"#utility.yul\":31897:31916   */\n      swap1\n      pop\n        /* \"#utility.yul\":31556:31922   */\n      swap2\n      swap1\n      pop\n      jump\t// out\n        /* \"#utility.yul\":31928:32347   */\n    tag_283:\n        /* \"#utility.yul\":32094:32098   */\n      0x00\n        /* \"#utility.yul\":32132:32134   */\n      0x20\n        /* \"#utility.yul\":32121:32130   */\n      dup3\n        /* \"#utility.yul\":32117:32135   */\n      add\n        /* \"#utility.yul\":32109:32135   */\n      swap1\n      pop\n        /* \"#utility.yul\":32181:32190   */\n      dup2\n        /* \"#utility.yul\":32175:32179   */\n      dup2\n        /* \"#utility.yul\":32171:32191   */\n      sub\n        /* \"#utility.yul\":32167:32168   */\n      0x00\n        /* \"#utility.yul\":32156:32165   */\n      dup4\n        /* \"#utility.yul\":32152:32169   */\n      add\n        /* \"#utility.yul\":32145:32192   */\n      mstore\n        /* \"#utility.yul\":32209:32340   */\n      tag_705\n        /* \"#utility.yul\":32335:32339   */\n      dup2\n        /* \"#utility.yul\":32209:32340   */\n      tag_430\n      jump\t// in\n    tag_705:\n        /* \"#utility.yul\":32201:32340   */\n      swap1\n      pop\n        /* \"#utility.yul\":31928:32347   */\n      swap2\n      swap1\n      pop\n      jump\t// out\n        /* \"#utility.yul\":32353:32532   */\n    tag_431:\n        /* \"#utility.yul\":32493:32524   */\n      0x496e73756666696369656e74206c6971756964697479206d696e746564000000\n        /* \"#utility.yul\":32489:32490   */\n      0x00\n        /* \"#utility.yul\":32481:32487   */\n      dup3\n        /* \"#utility.yul\":32477:32491   */\n      add\n        /* \"#utility.yul\":32470:32525   */\n      mstore\n        /* \"#utility.yul\":32353:32532   */\n      pop\n      jump\t// out\n        /* \"#utility.yul\":32538:32904   */\n    tag_432:\n        /* \"#utility.yul\":32680:32683   */\n      0x00\n        /* \"#utility.yul\":32701:32768   */\n      tag_708\n        /* \"#utility.yul\":32765:32767   */\n      0x1d\n        /* \"#utility.yul\":32760:32763   */\n      dup4\n        /* \"#utility.yul\":32701:32768   */\n      tag_375\n      jump\t// in\n    tag_708:\n        /* \"#utility.yul\":32694:32768   */\n      swap2\n      pop\n        /* \"#utility.yul\":32777:32870   */\n      tag_709\n        /* \"#utility.yul\":32866:32869   */\n      dup3\n        /* \"#utility.yul\":32777:32870   */\n      tag_431\n      jump\t// in\n    tag_709:\n        /* \"#utility.yul\":32895:32897   */\n      0x20\n        /* \"#utility.yul\":32890:32893   */\n      dup3\n        /* \"#utility.yul\":32886:32898   */\n      add\n        /* \"#utility.yul\":32879:32898   */\n      swap1\n      pop\n        /* \"#utility.yul\":32538:32904   */\n      swap2\n      swap1\n      pop\n      jump\t// out\n        /* \"#utility.yul\":32910:33329   */\n    tag_335:\n        /* \"#utility.yul\":33076:33080   */\n      0x00\n        /* \"#utility.yul\":33114:33116   */\n      0x20\n        /* \"#utility.yul\":33103:33112   */\n      dup3\n        /* \"#utility.yul\":33099:33117   */\n      add\n        /* \"#utility.yul\":33091:33117   */\n      swap1\n      pop\n        /* \"#utility.yul\":33163:33172   */\n      dup2\n        /* \"#utility.yul\":33157:33161   */\n      dup2\n        /* \"#utility.yul\":33153:33173   */\n      sub\n        /* \"#utility.yul\":33149:33150   */\n      0x00\n        /* \"#utility.yul\":33138:33147   */\n      dup4\n        /* \"#utility.yul\":33134:33151   */\n      add\n        /* \"#utility.yul\":33127:33174   */\n      mstore\n        /* \"#utility.yul\":33191:33322   */\n      tag_711\n        /* \"#utility.yul\":33317:33321   */\n      dup2\n        /* \"#utility.yul\":33191:33322   */\n      tag_432\n      jump\t// in\n    tag_711:\n        /* \"#utility.yul\":33183:33322   */\n      swap1\n      pop\n        /* \"#utility.yul\":32910:33329   */\n      swap2\n      swap1\n      pop\n      jump\t// out\n        /* \"#utility.yul\":33335:33505   */\n    tag_433:\n        /* \"#utility.yul\":33475:33497   */\n      0x4275726e20657863656564732062616c616e6365000000000000000000000000\n        /* \"#utility.yul\":33471:33472   */\n      0x00\n        /* \"#utility.yul\":33463:33469   */\n      dup3\n        /* \"#utility.yul\":33459:33473   */\n      add\n        /* \"#utility.yul\":33452:33498   */\n      mstore\n        /* \"#utility.yul\":33335:33505   */\n      pop\n      jump\t// out\n        /* \"#utility.yul\":33511:33877   */\n    tag_434:\n        /* \"#utility.yul\":33653:33656   */\n      0x00\n        /* \"#utility.yul\":33674:33741   */\n      tag_714\n        /* \"#utility.yul\":33738:33740   */\n      0x14\n        /* \"#utility.yul\":33733:33736   */\n      dup4\n        /* \"#utility.yul\":33674:33741   */\n      tag_375\n      jump\t// in\n    tag_714:\n        /* \"#utility.yul\":33667:33741   */\n      swap2\n      pop\n        /* \"#utility.yul\":33750:33843   */\n      tag_715\n        /* \"#utility.yul\":33839:33842   */\n      dup3\n        /* \"#utility.yul\":33750:33843   */\n      tag_433\n      jump\t// in\n    tag_715:\n        /* \"#utility.yul\":33868:33870   */\n      0x20\n        /* \"#utility.yul\":33863:33866   */\n      dup3\n        /* \"#utility.yul\":33859:33871   */\n      add\n        /* \"#utility.yul\":33852:33871   */\n      swap1\n      pop\n        /* \"#utility.yul\":33511:33877   */\n      swap2\n      swap1\n      pop\n      jump\t// out\n        /* \"#utility.yul\":33883:34302   */\n    tag_348:\n        /* \"#utility.yul\":34049:34053   */\n      0x00\n        /* \"#utility.yul\":34087:34089   */\n      0x20\n        /* \"#utility.yul\":34076:34085   */\n      dup3\n        /* \"#utility.yul\":34072:34090   */\n      add\n        /* \"#utility.yul\":34064:34090   */\n      swap1\n      pop\n        /* \"#utility.yul\":34136:34145   */\n      dup2\n        /* \"#utility.yul\":34130:34134   */\n      dup2\n        /* \"#utility.yul\":34126:34146   */\n      sub\n        /* \"#utility.yul\":34122:34123   */\n      0x00\n        /* \"#utility.yul\":34111:34120   */\n      dup4\n        /* \"#utility.yul\":34107:34124   */\n      add\n        /* \"#utility.yul\":34100:34147   */\n      mstore\n        /* \"#utility.yul\":34164:34295   */\n      tag_717\n        /* \"#utility.yul\":34290:34294   */\n      dup2\n        /* \"#utility.yul\":34164:34295   */\n      tag_434\n      jump\t// in\n    tag_717:\n        /* \"#utility.yul\":34156:34295   */\n      swap1\n      pop\n        /* \"#utility.yul\":33883:34302   */\n      swap2\n      swap1\n      pop\n      jump\t// out\n\n    auxdata: 0xa2646970667358221220c7e4486c500f4367a3bde4e6002538a31f380bfbce2d684b4cd9c16805fd891864736f6c634300081e0033\n}\n",
				"bytecode": {
					"linkReferences": {},
					"object": "60806040526040518060400160405280601a81526020017f53696d706c6553776170204c697175696469747920546f6b656e0000000000008152505f90816100479190610594565b506040518060400160405280600481526020017f53534c54000000000000000000000000000000000000000000000000000000008152506001908161008c9190610594565b50601260025f6101000a81548160ff021916908360ff1602179055503480156100b3575f5ffd5b50604051613a2c380380613a2c83398181016040528101906100d591906106c1565b5f73ffffffffffffffffffffffffffffffffffffffff168273ffffffffffffffffffffffffffffffffffffffff161415801561013d57505f73ffffffffffffffffffffffffffffffffffffffff168173ffffffffffffffffffffffffffffffffffffffff1614155b61017c576040517f08c379a000000000000000000000000000000000000000000000000000000000815260040161017390610759565b60405180910390fd5b8073ffffffffffffffffffffffffffffffffffffffff168273ffffffffffffffffffffffffffffffffffffffff16036101ea576040517f08c379a00000000000000000000000000000000000000000000000000000000081526004016101e1906107c1565b60405180910390fd5b8160065f6101000a81548173ffffffffffffffffffffffffffffffffffffffff021916908373ffffffffffffffffffffffffffffffffffffffff1602179055508060075f6101000a81548173ffffffffffffffffffffffffffffffffffffffff021916908373ffffffffffffffffffffffffffffffffffffffff16021790555061027c306103e861028360201b60201c565b5050610867565b8060035f828254610294919061080c565b925050819055508060045f8473ffffffffffffffffffffffffffffffffffffffff1673ffffffffffffffffffffffffffffffffffffffff1681526020019081526020015f205f8282546102e7919061080c565b925050819055508173ffffffffffffffffffffffffffffffffffffffff165f73ffffffffffffffffffffffffffffffffffffffff167fddf252ad1be2c89b69c2b068fc378daa952ba7f163c4a11628f55a4df523b3ef8360405161034b919061084e565b60405180910390a35050565b5f81519050919050565b7f4e487b71000000000000000000000000000000000000000000000000000000005f52604160045260245ffd5b7f4e487b71000000000000000000000000000000000000000000000000000000005f52602260045260245ffd5b5f60028204905060018216806103d257607f821691505b6020821081036103e5576103e461038e565b5b50919050565b5f819050815f5260205f209050919050565b5f6020601f8301049050919050565b5f82821b905092915050565b5f600883026104477fffffffffffffffffffffffffffffffffffffffffffffffffffffffffffffffff8261040c565b610451868361040c565b95508019841693508086168417925050509392505050565b5f819050919050565b5f819050919050565b5f61049561049061048b84610469565b610472565b610469565b9050919050565b5f819050919050565b6104ae8361047b565b6104c26104ba8261049c565b848454610418565b825550505050565b5f5f905090565b6104d96104ca565b6104e48184846104a5565b505050565b5b81811015610507576104fc5f826104d1565b6001810190506104ea565b5050565b601f82111561054c5761051d816103eb565b610526846103fd565b81016020851015610535578190505b610549610541856103fd565b8301826104e9565b50505b505050565b5f82821c905092915050565b5f61056c5f1984600802610551565b1980831691505092915050565b5f610584838361055d565b9150826002028217905092915050565b61059d82610357565b67ffffffffffffffff8111156105b6576105b5610361565b5b6105c082546103bb565b6105cb82828561050b565b5f60209050601f8311600181146105fc575f84156105ea578287015190505b6105f48582610579565b86555061065b565b601f19841661060a866103eb565b5f5b828110156106315784890151825560018201915060208501945060208101905061060c565b8683101561064e578489015161064a601f89168261055d565b8355505b6001600288020188555050505b505050505050565b5f5ffd5b5f73ffffffffffffffffffffffffffffffffffffffff82169050919050565b5f61069082610667565b9050919050565b6106a081610686565b81146106aa575f5ffd5b50565b5f815190506106bb81610697565b92915050565b5f5f604083850312156106d7576106d6610663565b5b5f6106e4858286016106ad565b92505060206106f5858286016106ad565b9150509250929050565b5f82825260208201905092915050565b7f496e76616c696420746f6b656e206164647265737365730000000000000000005f82015250565b5f6107436017836106ff565b915061074e8261070f565b602082019050919050565b5f6020820190508181035f83015261077081610737565b9050919050565b7f4964656e746963616c20746f6b656e73000000000000000000000000000000005f82015250565b5f6107ab6010836106ff565b91506107b682610777565b602082019050919050565b5f6020820190508181035f8301526107d88161079f565b9050919050565b7f4e487b71000000000000000000000000000000000000000000000000000000005f52601160045260245ffd5b5f61081682610469565b915061082183610469565b9250828201905080821115610839576108386107df565b5b92915050565b61084881610469565b82525050565b5f6020820190506108615f83018461083f565b92915050565b6131b8806108745f395ff3fe608060405234801561000f575f5ffd5b5060043610610140575f3560e01c80635f64b55b116100b6578063baa2abde1161007a578063baa2abde1461038f578063c8c0526e146103c0578063d3c7c2c7146103f0578063dc5fa6c51461040f578063dd62ed3e1461042d578063e8e337001461045d57610140565b80635f64b55b146102c357806370a08231146102e157806395d89b4114610311578063a9059cbb1461032f578063ac41865a1461035f57610140565b806318160ddd1161010857806318160ddd146101ff57806319e36f3b1461021d57806323b872dd1461023b578063313ce5671461026b57806335c7e9251461028957806338ed1739146102a757610140565b8063054d50d41461014457806306fdde03146101745780630902f1ac14610192578063095ea7b3146101b15780630fc63d10146101e1575b5f5ffd5b61015e600480360381019061015991906121ae565b61048f565b60405161016b919061220d565b60405180910390f35b61017c61054a565b6040516101899190612296565b60405180910390f35b61019a6105d5565b6040516101a89291906122b6565b60405180910390f35b6101cb60048036038101906101c69190612337565b6105e5565b6040516101d8919061238f565b60405180910390f35b6101e96106d2565b6040516101f691906123b7565b60405180910390f35b6102076106f7565b604051610214919061220d565b60405180910390f35b6102256106fd565b604051610232919061220d565b60405180910390f35b610255600480360381019061025091906123d0565b610703565b604051610262919061238f565b60405180910390f35b6102736109e3565b604051610280919061243b565b60405180910390f35b6102916109f5565b60405161029e919061220d565b60405180910390f35b6102c160048036038101906102bc91906124b5565b6109fe565b005b6102cb610fb8565b6040516102d891906123b7565b60405180910390f35b6102fb60048036038101906102f6919061254b565b610fdd565b604051610308919061220d565b60405180910390f35b610319610ff2565b6040516103269190612296565b60405180910390f35b61034960048036038101906103449190612337565b61107e565b604051610356919061238f565b60405180910390f35b61037960048036038101906103749190612576565b611214565b604051610386919061220d565b60405180910390f35b6103a960048036038101906103a491906125b4565b611359565b6040516103b79291906122b6565b60405180910390f35b6103da60048036038101906103d5919061254b565b6117e5565b6040516103e7919061220d565b60405180910390f35b6103f861182b565b604051610406929190612651565b60405180910390f35b610417611879565b604051610424919061220d565b60405180910390f35b61044760048036038101906104429190612576565b61187f565b604051610454919061220d565b60405180910390f35b61047760048036038101906104729190612678565b61189f565b60405161048693929190612729565b60405180910390f35b5f5f84116104d2576040517f08c379a00000000000000000000000000000000000000000000000000000000081526004016104c9906127a8565b60405180910390fd5b5f831180156104e057505f82115b61051f576040517f08c379a000000000000000000000000000000000000000000000000000000000815260040161051690612810565b60405180910390fd5b838361052b919061285b565b8285610537919061288e565b61054191906128fc565b90509392505050565b5f805461055690612959565b80601f016020809104026020016040519081016040528092919081815260200182805461058290612959565b80156105cd5780601f106105a4576101008083540402835291602001916105cd565b820191905f5260205f20905b8154815290600101906020018083116105b057829003601f168201915b505050505081565b5f5f600854915060095490509091565b5f8160055f3373ffffffffffffffffffffffffffffffffffffffff1673ffffffffffffffffffffffffffffffffffffffff1681526020019081526020015f205f8573ffffffffffffffffffffffffffffffffffffffff1673ffffffffffffffffffffffffffffffffffffffff1681526020019081526020015f20819055508273ffffffffffffffffffffffffffffffffffffffff163373ffffffffffffffffffffffffffffffffffffffff167f8c5be1e5ebec7d5bd14f71427d1e84f3dd0314c0f7b2291e5b200ac8c7c3b925846040516106c0919061220d565b60405180910390a36001905092915050565b60065f9054906101000a900473ffffffffffffffffffffffffffffffffffffffff1681565b60035481565b60095481565b5f8160045f8673ffffffffffffffffffffffffffffffffffffffff1673ffffffffffffffffffffffffffffffffffffffff1681526020019081526020015f20541015610784576040517f08c379a000000000000000000000000000000000000000000000000000000000815260040161077b906129d3565b60405180910390fd5b8160055f8673ffffffffffffffffffffffffffffffffffffffff1673ffffffffffffffffffffffffffffffffffffffff1681526020019081526020015f205f3373ffffffffffffffffffffffffffffffffffffffff1673ffffffffffffffffffffffffffffffffffffffff1681526020019081526020015f2054101561083f576040517f08c379a000000000000000000000000000000000000000000000000000000000815260040161083690612a3b565b60405180910390fd5b8160055f8673ffffffffffffffffffffffffffffffffffffffff1673ffffffffffffffffffffffffffffffffffffffff1681526020019081526020015f205f3373ffffffffffffffffffffffffffffffffffffffff1673ffffffffffffffffffffffffffffffffffffffff1681526020019081526020015f205f8282546108c69190612a59565b925050819055508160045f8673ffffffffffffffffffffffffffffffffffffffff1673ffffffffffffffffffffffffffffffffffffffff1681526020019081526020015f205f8282546109199190612a59565b925050819055508160045f8573ffffffffffffffffffffffffffffffffffffffff1673ffffffffffffffffffffffffffffffffffffffff1681526020019081526020015f205f82825461096c919061285b565b925050819055508273ffffffffffffffffffffffffffffffffffffffff168473ffffffffffffffffffffffffffffffffffffffff167fddf252ad1be2c89b69c2b068fc378daa952ba7f163c4a11628f55a4df523b3ef846040516109d0919061220d565b60405180910390a3600190509392505050565b60025f9054906101000a900460ff1681565b5f600354905090565b8042811015610a42576040517f08c379a0000000000000000000000000000000000000000000000000000000008152600401610a3990612ad6565b60405180910390fd5b60028585905014610a88576040517f08c379a0000000000000000000000000000000000000000000000000000000008152600401610a7f90612b3e565b60405180910390fd5b5f73ffffffffffffffffffffffffffffffffffffffff168373ffffffffffffffffffffffffffffffffffffffff1603610af6576040517f08c379a0000000000000000000000000000000000000000000000000000000008152600401610aed90612ba6565b60405180910390fd5b610b4f85855f818110610b0c57610b0b612bc4565b5b9050602002016020810190610b21919061254b565b86866001818110610b3557610b34612bc4565b5b9050602002016020810190610b4a919061254b565b611d74565b610b8e576040517f08c379a0000000000000000000000000000000000000000000000000000000008152600401610b8590612c3b565b60405180910390fd5b5f85855f818110610ba257610ba1612bc4565b5b9050602002016020810190610bb7919061254b565b90505f86866001818110610bce57610bcd612bc4565b5b9050602002016020810190610be3919061254b565b90505f60065f9054906101000a900473ffffffffffffffffffffffffffffffffffffffff1673ffffffffffffffffffffffffffffffffffffffff168373ffffffffffffffffffffffffffffffffffffffff1614610c4257600954610c46565b6008545b90505f60065f9054906101000a900473ffffffffffffffffffffffffffffffffffffffff1673ffffffffffffffffffffffffffffffffffffffff168373ffffffffffffffffffffffffffffffffffffffff1614610ca557600954610ca9565b6008545b90505f610cb78c848461048f565b90508a811015610cfc576040517f08c379a0000000000000000000000000000000000000000000000000000000008152600401610cf390612ca3565b60405180910390fd5b8473ffffffffffffffffffffffffffffffffffffffff166323b872dd33308f6040518463ffffffff1660e01b8152600401610d3993929190612cc1565b6020604051808303815f875af1158015610d55573d5f5f3e3d5ffd5b505050506040513d601f19601f82011682018060405250810190610d799190612d20565b610db8576040517f08c379a0000000000000000000000000000000000000000000000000000000008152600401610daf90612d95565b60405180910390fd5b8373ffffffffffffffffffffffffffffffffffffffff1663a9059cbb89836040518363ffffffff1660e01b8152600401610df3929190612db3565b6020604051808303815f875af1158015610e0f573d5f5f3e3d5ffd5b505050506040513d601f19601f82011682018060405250810190610e339190612d20565b610e72576040517f08c379a0000000000000000000000000000000000000000000000000000000008152600401610e6990612e24565b60405180910390fd5b60065f9054906101000a900473ffffffffffffffffffffffffffffffffffffffff1673ffffffffffffffffffffffffffffffffffffffff168573ffffffffffffffffffffffffffffffffffffffff1603610efb578b60085f828254610ed7919061285b565b925050819055508060095f828254610eef9190612a59565b92505081905550610f2c565b8b60095f828254610f0c919061285b565b925050819055508060085f828254610f249190612a59565b925050819055505b8373ffffffffffffffffffffffffffffffffffffffff168573ffffffffffffffffffffffffffffffffffffffff163373ffffffffffffffffffffffffffffffffffffffff167fad56699d0f375866eb895ed27203058a36a713382aaded78eb6b67da266d43328f85604051610fa29291906122b6565b60405180910390a4505050505050505050505050565b60075f9054906101000a900473ffffffffffffffffffffffffffffffffffffffff1681565b6004602052805f5260405f205f915090505481565b60018054610fff90612959565b80601f016020809104026020016040519081016040528092919081815260200182805461102b90612959565b80156110765780601f1061104d57610100808354040283529160200191611076565b820191905f5260205f20905b81548152906001019060200180831161105957829003601f168201915b505050505081565b5f8160045f3373ffffffffffffffffffffffffffffffffffffffff1673ffffffffffffffffffffffffffffffffffffffff1681526020019081526020015f205410156110ff576040517f08c379a00000000000000000000000000000000000000000000000000000000081526004016110f6906129d3565b60405180910390fd5b8160045f3373ffffffffffffffffffffffffffffffffffffffff1673ffffffffffffffffffffffffffffffffffffffff1681526020019081526020015f205f82825461114b9190612a59565b925050819055508160045f8573ffffffffffffffffffffffffffffffffffffffff1673ffffffffffffffffffffffffffffffffffffffff1681526020019081526020015f205f82825461119e919061285b565b925050819055508273ffffffffffffffffffffffffffffffffffffffff163373ffffffffffffffffffffffffffffffffffffffff167fddf252ad1be2c89b69c2b068fc378daa952ba7f163c4a11628f55a4df523b3ef84604051611202919061220d565b60405180910390a36001905092915050565b5f61121f8383611d74565b61125e576040517f08c379a000000000000000000000000000000000000000000000000000000000815260040161125590612c3b565b60405180910390fd5b5f60085411801561127057505f600954115b6112af576040517f08c379a00000000000000000000000000000000000000000000000000000000081526004016112a690612810565b60405180910390fd5b60065f9054906101000a900473ffffffffffffffffffffffffffffffffffffffff1673ffffffffffffffffffffffffffffffffffffffff168373ffffffffffffffffffffffffffffffffffffffff160361132d57600854670de0b6b3a764000060095461131c919061288e565b61132691906128fc565b9050611353565b600954670de0b6b3a7640000600854611346919061288e565b61135091906128fc565b90505b92915050565b5f5f824281101561139f576040517f08c379a000000000000000000000000000000000000000000000000000000000815260040161139690612ad6565b60405180910390fd5b6113a98a8a611d74565b6113e8576040517f08c379a00000000000000000000000000000000000000000000000000000000081526004016113df90612c3b565b60405180910390fd5b5f73ffffffffffffffffffffffffffffffffffffffff168573ffffffffffffffffffffffffffffffffffffffff1603611456576040517f08c379a000000000000000000000000000000000000000000000000000000000815260040161144d90612ba6565b60405180910390fd5b5f8811611498576040517f08c379a000000000000000000000000000000000000000000000000000000000815260040161148f90612e8c565b60405180910390fd5b8760045f3373ffffffffffffffffffffffffffffffffffffffff1673ffffffffffffffffffffffffffffffffffffffff1681526020019081526020015f20541015611518576040517f08c379a000000000000000000000000000000000000000000000000000000000815260040161150f90612ef4565b60405180910390fd5b60035460085489611529919061288e565b61153391906128fc565b925060035460095489611546919061288e565b61155091906128fc565b915086831015611595576040517f08c379a000000000000000000000000000000000000000000000000000000000815260040161158c90612f5c565b60405180910390fd5b858210156115d8576040517f08c379a00000000000000000000000000000000000000000000000000000000081526004016115cf90612fc4565b60405180910390fd5b6115e23389611ed4565b8260085f8282546115f39190612a59565b925050819055508160095f82825461160b9190612a59565b925050819055508973ffffffffffffffffffffffffffffffffffffffff1663a9059cbb86856040518363ffffffff1660e01b815260040161164d929190612db3565b6020604051808303815f875af1158015611669573d5f5f3e3d5ffd5b505050506040513d601f19601f8201168201806040525081019061168d9190612d20565b6116cc576040517f08c379a00000000000000000000000000000000000000000000000000000000081526004016116c39061302c565b60405180910390fd5b8873ffffffffffffffffffffffffffffffffffffffff1663a9059cbb86846040518363ffffffff1660e01b8152600401611707929190612db3565b6020604051808303815f875af1158015611723573d5f5f3e3d5ffd5b505050506040513d601f19601f820116820180604052508101906117479190612d20565b611786576040517f08c379a000000000000000000000000000000000000000000000000000000000815260040161177d90613094565b60405180910390fd5b8473ffffffffffffffffffffffffffffffffffffffff167f1dc8bb69df2b8e91fbdcbfcf93d951b3f0000f085a95fe3f7946d6161439245d84848b6040516117d093929190612729565b60405180910390a25097509795505050505050565b5f60045f8373ffffffffffffffffffffffffffffffffffffffff1673ffffffffffffffffffffffffffffffffffffffff1681526020019081526020015f20549050919050565b5f5f60065f9054906101000a900473ffffffffffffffffffffffffffffffffffffffff16915060075f9054906101000a900473ffffffffffffffffffffffffffffffffffffffff1690509091565b60085481565b6005602052815f5260405f20602052805f5260405f205f91509150505481565b5f5f5f83428110156118e6576040517f08c379a00000000000000000000000000000000000000000000000000000000081526004016118dd90612ad6565b60405180910390fd5b6118f08c8c611d74565b61192f576040517f08c379a000000000000000000000000000000000000000000000000000000000815260040161192690612c3b565b60405180910390fd5b5f73ffffffffffffffffffffffffffffffffffffffff168673ffffffffffffffffffffffffffffffffffffffff160361199d576040517f08c379a000000000000000000000000000000000000000000000000000000000815260040161199490612ba6565b60405180910390fd5b5f6008541480156119af57505f600954145b156119bf57899350889250611aa9565b5f6008546009548c6119d1919061288e565b6119db91906128fc565b9050898111611a325787811015611a27576040517f08c379a0000000000000000000000000000000000000000000000000000000008152600401611a1e90612fc4565b60405180910390fd5b8a9450809350611aa7565b5f6009546008548c611a44919061288e565b611a4e91906128fc565b90508b8111158015611a605750898110155b611a9f576040517f08c379a0000000000000000000000000000000000000000000000000000000008152600401611a9690612f5c565b60405180910390fd5b8095508a9450505b505b8b73ffffffffffffffffffffffffffffffffffffffff166323b872dd3330876040518463ffffffff1660e01b8152600401611ae693929190612cc1565b6020604051808303815f875af1158015611b02573d5f5f3e3d5ffd5b505050506040513d601f19601f82011682018060405250810190611b269190612d20565b611b65576040517f08c379a0000000000000000000000000000000000000000000000000000000008152600401611b5c9061302c565b60405180910390fd5b8a73ffffffffffffffffffffffffffffffffffffffff166323b872dd3330866040518463ffffffff1660e01b8152600401611ba293929190612cc1565b6020604051808303815f875af1158015611bbe573d5f5f3e3d5ffd5b505050506040513d601f19601f82011682018060405250810190611be29190612d20565b611c21576040517f08c379a0000000000000000000000000000000000000000000000000000000008152600401611c1890613094565b60405180910390fd5b6103e860035403611c4757611c408385611c3b919061288e565b612028565b9150611c97565b5f60085460035486611c59919061288e565b611c6391906128fc565b90505f60095460035486611c77919061288e565b611c8191906128fc565b9050808210611c905780611c92565b815b935050505b5f8211611cd9576040517f08c379a0000000000000000000000000000000000000000000000000000000008152600401611cd0906130fc565b60405180910390fd5b8360085f828254611cea919061285b565b925050819055508260095f828254611d02919061285b565b92505081905550611d13868361209f565b8573ffffffffffffffffffffffffffffffffffffffff167f64b83944e79c3ce8d4c297411de637c3e102d064677aac0c163976ebdcd6f50e858585604051611d5d93929190612729565b60405180910390a250985098509895505050505050565b5f60065f9054906101000a900473ffffffffffffffffffffffffffffffffffffffff1673ffffffffffffffffffffffffffffffffffffffff168373ffffffffffffffffffffffffffffffffffffffff16148015611e1d575060075f9054906101000a900473ffffffffffffffffffffffffffffffffffffffff1673ffffffffffffffffffffffffffffffffffffffff168273ffffffffffffffffffffffffffffffffffffffff16145b80611ecc575060075f9054906101000a900473ffffffffffffffffffffffffffffffffffffffff1673ffffffffffffffffffffffffffffffffffffffff168373ffffffffffffffffffffffffffffffffffffffff16148015611ecb575060065f9054906101000a900473ffffffffffffffffffffffffffffffffffffffff1673ffffffffffffffffffffffffffffffffffffffff168273ffffffffffffffffffffffffffffffffffffffff16145b5b905092915050565b8060045f8473ffffffffffffffffffffffffffffffffffffffff1673ffffffffffffffffffffffffffffffffffffffff1681526020019081526020015f20541015611f54576040517f08c379a0000000000000000000000000000000000000000000000000000000008152600401611f4b90613164565b60405180910390fd5b8060045f8473ffffffffffffffffffffffffffffffffffffffff1673ffffffffffffffffffffffffffffffffffffffff1681526020019081526020015f205f828254611fa09190612a59565b925050819055508060035f828254611fb89190612a59565b925050819055505f73ffffffffffffffffffffffffffffffffffffffff168273ffffffffffffffffffffffffffffffffffffffff167fddf252ad1be2c89b69c2b068fc378daa952ba7f163c4a11628f55a4df523b3ef8360405161201c919061220d565b60405180910390a35050565b5f600382111561208d578190505f600160028461204591906128fc565b61204f919061285b565b90505b8181101561208757809150600281828561206c91906128fc565b612076919061285b565b61208091906128fc565b9050612052565b5061209a565b5f821461209957600190505b5b919050565b8060035f8282546120b0919061285b565b925050819055508060045f8473ffffffffffffffffffffffffffffffffffffffff1673ffffffffffffffffffffffffffffffffffffffff1681526020019081526020015f205f828254612103919061285b565b925050819055508173ffffffffffffffffffffffffffffffffffffffff165f73ffffffffffffffffffffffffffffffffffffffff167fddf252ad1be2c89b69c2b068fc378daa952ba7f163c4a11628f55a4df523b3ef83604051612167919061220d565b60405180910390a35050565b5f5ffd5b5f5ffd5b5f819050919050565b61218d8161217b565b8114612197575f5ffd5b50565b5f813590506121a881612184565b92915050565b5f5f5f606084860312156121c5576121c4612173565b5b5f6121d28682870161219a565b93505060206121e38682870161219a565b92505060406121f48682870161219a565b9150509250925092565b6122078161217b565b82525050565b5f6020820190506122205f8301846121fe565b92915050565b5f81519050919050565b5f82825260208201905092915050565b8281835e5f83830152505050565b5f601f19601f8301169050919050565b5f61226882612226565b6122728185612230565b9350612282818560208601612240565b61228b8161224e565b840191505092915050565b5f6020820190508181035f8301526122ae818461225e565b905092915050565b5f6040820190506122c95f8301856121fe565b6122d660208301846121fe565b9392505050565b5f73ffffffffffffffffffffffffffffffffffffffff82169050919050565b5f612306826122dd565b9050919050565b612316816122fc565b8114612320575f5ffd5b50565b5f813590506123318161230d565b92915050565b5f5f6040838503121561234d5761234c612173565b5b5f61235a85828601612323565b925050602061236b8582860161219a565b9150509250929050565b5f8115159050919050565b61238981612375565b82525050565b5f6020820190506123a25f830184612380565b92915050565b6123b1816122fc565b82525050565b5f6020820190506123ca5f8301846123a8565b92915050565b5f5f5f606084860312156123e7576123e6612173565b5b5f6123f486828701612323565b935050602061240586828701612323565b92505060406124168682870161219a565b9150509250925092565b5f60ff82169050919050565b61243581612420565b82525050565b5f60208201905061244e5f83018461242c565b92915050565b5f5ffd5b5f5ffd5b5f5ffd5b5f5f83601f84011261247557612474612454565b5b8235905067ffffffffffffffff81111561249257612491612458565b5b6020830191508360208202830111156124ae576124ad61245c565b5b9250929050565b5f5f5f5f5f5f60a087890312156124cf576124ce612173565b5b5f6124dc89828a0161219a565b96505060206124ed89828a0161219a565b955050604087013567ffffffffffffffff81111561250e5761250d612177565b5b61251a89828a01612460565b9450945050606061252d89828a01612323565b925050608061253e89828a0161219a565b9150509295509295509295565b5f602082840312156125605761255f612173565b5b5f61256d84828501612323565b91505092915050565b5f5f6040838503121561258c5761258b612173565b5b5f61259985828601612323565b92505060206125aa85828601612323565b9150509250929050565b5f5f5f5f5f5f5f60e0888a0312156125cf576125ce612173565b5b5f6125dc8a828b01612323565b97505060206125ed8a828b01612323565b96505060406125fe8a828b0161219a565b955050606061260f8a828b0161219a565b94505060806126208a828b0161219a565b93505060a06126318a828b01612323565b92505060c06126428a828b0161219a565b91505092959891949750929550565b5f6040820190506126645f8301856123a8565b61267160208301846123a8565b9392505050565b5f5f5f5f5f5f5f5f610100898b03121561269557612694612173565b5b5f6126a28b828c01612323565b98505060206126b38b828c01612323565b97505060406126c48b828c0161219a565b96505060606126d58b828c0161219a565b95505060806126e68b828c0161219a565b94505060a06126f78b828c0161219a565b93505060c06127088b828c01612323565b92505060e06127198b828c0161219a565b9150509295985092959890939650565b5f60608201905061273c5f8301866121fe565b61274960208301856121fe565b61275660408301846121fe565b949350505050565b7f496e73756666696369656e7420696e70757420616d6f756e74000000000000005f82015250565b5f612792601983612230565b915061279d8261275e565b602082019050919050565b5f6020820190508181035f8301526127bf81612786565b9050919050565b7f496e73756666696369656e7420726573657276657300000000000000000000005f82015250565b5f6127fa601583612230565b9150612805826127c6565b602082019050919050565b5f6020820190508181035f830152612827816127ee565b9050919050565b7f4e487b71000000000000000000000000000000000000000000000000000000005f52601160045260245ffd5b5f6128658261217b565b91506128708361217b565b92508282019050808211156128885761288761282e565b5b92915050565b5f6128988261217b565b91506128a38361217b565b92508282026128b18161217b565b915082820484148315176128c8576128c761282e565b5b5092915050565b7f4e487b71000000000000000000000000000000000000000000000000000000005f52601260045260245ffd5b5f6129068261217b565b91506129118361217b565b925082612921576129206128cf565b5b828204905092915050565b7f4e487b71000000000000000000000000000000000000000000000000000000005f52602260045260245ffd5b5f600282049050600182168061297057607f821691505b6020821081036129835761298261292c565b5b50919050565b7f496e73756666696369656e742062616c616e63650000000000000000000000005f82015250565b5f6129bd601483612230565b91506129c882612989565b602082019050919050565b5f6020820190508181035f8301526129ea816129b1565b9050919050565b7f496e73756666696369656e7420616c6c6f77616e6365000000000000000000005f82015250565b5f612a25601683612230565b9150612a30826129f1565b602082019050919050565b5f6020820190508181035f830152612a5281612a19565b9050919050565b5f612a638261217b565b9150612a6e8361217b565b9250828203905081811115612a8657612a8561282e565b5b92915050565b7f5472616e73616374696f6e2065787069726564000000000000000000000000005f82015250565b5f612ac0601383612230565b9150612acb82612a8c565b602082019050919050565b5f6020820190508181035f830152612aed81612ab4565b9050919050565b7f496e76616c6964207061746800000000000000000000000000000000000000005f82015250565b5f612b28600c83612230565b9150612b3382612af4565b602082019050919050565b5f6020820190508181035f830152612b5581612b1c565b9050919050565b7f496e76616c696420726563697069656e740000000000000000000000000000005f82015250565b5f612b90601183612230565b9150612b9b82612b5c565b602082019050919050565b5f6020820190508181035f830152612bbd81612b84565b9050919050565b7f4e487b71000000000000000000000000000000000000000000000000000000005f52603260045260245ffd5b7f496e76616c696420746f6b656e207061697200000000000000000000000000005f82015250565b5f612c25601283612230565b9150612c3082612bf1565b602082019050919050565b5f6020820190508181035f830152612c5281612c19565b9050919050565b7f496e73756666696369656e74206f757470757420616d6f756e740000000000005f82015250565b5f612c8d601a83612230565b9150612c9882612c59565b602082019050919050565b5f6020820190508181035f830152612cba81612c81565b9050919050565b5f606082019050612cd45f8301866123a8565b612ce160208301856123a8565b612cee60408301846121fe565b949350505050565b612cff81612375565b8114612d09575f5ffd5b50565b5f81519050612d1a81612cf6565b92915050565b5f60208284031215612d3557612d34612173565b5b5f612d4284828501612d0c565b91505092915050565b7f496e707574207472616e73666572206661696c656400000000000000000000005f82015250565b5f612d7f601583612230565b9150612d8a82612d4b565b602082019050919050565b5f6020820190508181035f830152612dac81612d73565b9050919050565b5f604082019050612dc65f8301856123a8565b612dd360208301846121fe565b9392505050565b7f4f7574707574207472616e73666572206661696c6564000000000000000000005f82015250565b5f612e0e601683612230565b9150612e1982612dda565b602082019050919050565b5f6020820190508181035f830152612e3b81612e02565b9050919050565b7f5a65726f206c69717569646974790000000000000000000000000000000000005f82015250565b5f612e76600e83612230565b9150612e8182612e42565b602082019050919050565b5f6020820190508181035f830152612ea381612e6a565b9050919050565b7f496e73756666696369656e74206c69717569646974792062616c616e636500005f82015250565b5f612ede601e83612230565b9150612ee982612eaa565b602082019050919050565b5f6020820190508181035f830152612f0b81612ed2565b9050919050565b7f496e73756666696369656e74204120616d6f756e7400000000000000000000005f82015250565b5f612f46601583612230565b9150612f5182612f12565b602082019050919050565b5f6020820190508181035f830152612f7381612f3a565b9050919050565b7f496e73756666696369656e74204220616d6f756e7400000000000000000000005f82015250565b5f612fae601583612230565b9150612fb982612f7a565b602082019050919050565b5f6020820190508181035f830152612fdb81612fa2565b9050919050565b7f5472616e736665722041206661696c65640000000000000000000000000000005f82015250565b5f613016601183612230565b915061302182612fe2565b602082019050919050565b5f6020820190508181035f8301526130438161300a565b9050919050565b7f5472616e736665722042206661696c65640000000000000000000000000000005f82015250565b5f61307e601183612230565b91506130898261304a565b602082019050919050565b5f6020820190508181035f8301526130ab81613072565b9050919050565b7f496e73756666696369656e74206c6971756964697479206d696e7465640000005f82015250565b5f6130e6601d83612230565b91506130f1826130b2565b602082019050919050565b5f6020820190508181035f830152613113816130da565b9050919050565b7f4275726e20657863656564732062616c616e63650000000000000000000000005f82015250565b5f61314e601483612230565b91506131598261311a565b602082019050919050565b5f6020820190508181035f83015261317b81613142565b905091905056fea2646970667358221220c7e4486c500f4367a3bde4e6002538a31f380bfbce2d684b4cd9c16805fd891864736f6c634300081e0033",
					"opcodes": "PUSH1 0x80 PUSH1 0x40 MSTORE PUSH1 0x40 MLOAD DUP1 PUSH1 0x40 ADD PUSH1 0x40 MSTORE DUP1 PUSH1 0x1A DUP2 MSTORE PUSH1 0x20 ADD PUSH32 0x53696D706C6553776170204C697175696469747920546F6B656E000000000000 DUP2 MSTORE POP PUSH0 SWAP1 DUP2 PUSH2 0x47 SWAP2 SWAP1 PUSH2 0x594 JUMP JUMPDEST POP PUSH1 0x40 MLOAD DUP1 PUSH1 0x40 ADD PUSH1 0x40 MSTORE DUP1 PUSH1 0x4 DUP2 MSTORE PUSH1 0x20 ADD PUSH32 0x53534C5400000000000000000000000000000000000000000000000000000000 DUP2 MSTORE POP PUSH1 0x1 SWAP1 DUP2 PUSH2 0x8C SWAP2 SWAP1 PUSH2 0x594 JUMP JUMPDEST POP PUSH1 0x12 PUSH1 0x2 PUSH0 PUSH2 0x100 EXP DUP2 SLOAD DUP2 PUSH1 0xFF MUL NOT AND SWAP1 DUP4 PUSH1 0xFF AND MUL OR SWAP1 SSTORE POP CALLVALUE DUP1 ISZERO PUSH2 0xB3 JUMPI PUSH0 PUSH0 REVERT JUMPDEST POP PUSH1 0x40 MLOAD PUSH2 0x3A2C CODESIZE SUB DUP1 PUSH2 0x3A2C DUP4 CODECOPY DUP2 DUP2 ADD PUSH1 0x40 MSTORE DUP2 ADD SWAP1 PUSH2 0xD5 SWAP2 SWAP1 PUSH2 0x6C1 JUMP JUMPDEST PUSH0 PUSH20 0xFFFFFFFFFFFFFFFFFFFFFFFFFFFFFFFFFFFFFFFF AND DUP3 PUSH20 0xFFFFFFFFFFFFFFFFFFFFFFFFFFFFFFFFFFFFFFFF AND EQ ISZERO DUP1 ISZERO PUSH2 0x13D JUMPI POP PUSH0 PUSH20 0xFFFFFFFFFFFFFFFFFFFFFFFFFFFFFFFFFFFFFFFF AND DUP2 PUSH20 0xFFFFFFFFFFFFFFFFFFFFFFFFFFFFFFFFFFFFFFFF AND EQ ISZERO JUMPDEST PUSH2 0x17C JUMPI PUSH1 0x40 MLOAD PUSH32 0x8C379A000000000000000000000000000000000000000000000000000000000 DUP2 MSTORE PUSH1 0x4 ADD PUSH2 0x173 SWAP1 PUSH2 0x759 JUMP JUMPDEST PUSH1 0x40 MLOAD DUP1 SWAP2 SUB SWAP1 REVERT JUMPDEST DUP1 PUSH20 0xFFFFFFFFFFFFFFFFFFFFFFFFFFFFFFFFFFFFFFFF AND DUP3 PUSH20 0xFFFFFFFFFFFFFFFFFFFFFFFFFFFFFFFFFFFFFFFF AND SUB PUSH2 0x1EA JUMPI PUSH1 0x40 MLOAD PUSH32 0x8C379A000000000000000000000000000000000000000000000000000000000 DUP2 MSTORE PUSH1 0x4 ADD PUSH2 0x1E1 SWAP1 PUSH2 0x7C1 JUMP JUMPDEST PUSH1 0x40 MLOAD DUP1 SWAP2 SUB SWAP1 REVERT JUMPDEST DUP2 PUSH1 0x6 PUSH0 PUSH2 0x100 EXP DUP2 SLOAD DUP2 PUSH20 0xFFFFFFFFFFFFFFFFFFFFFFFFFFFFFFFFFFFFFFFF MUL NOT AND SWAP1 DUP4 PUSH20 0xFFFFFFFFFFFFFFFFFFFFFFFFFFFFFFFFFFFFFFFF AND MUL OR SWAP1 SSTORE POP DUP1 PUSH1 0x7 PUSH0 PUSH2 0x100 EXP DUP2 SLOAD DUP2 PUSH20 0xFFFFFFFFFFFFFFFFFFFFFFFFFFFFFFFFFFFFFFFF MUL NOT AND SWAP1 DUP4 PUSH20 0xFFFFFFFFFFFFFFFFFFFFFFFFFFFFFFFFFFFFFFFF AND MUL OR SWAP1 SSTORE POP PUSH2 0x27C ADDRESS PUSH2 0x3E8 PUSH2 0x283 PUSH1 0x20 SHL PUSH1 0x20 SHR JUMP JUMPDEST POP POP PUSH2 0x867 JUMP JUMPDEST DUP1 PUSH1 0x3 PUSH0 DUP3 DUP3 SLOAD PUSH2 0x294 SWAP2 SWAP1 PUSH2 0x80C JUMP JUMPDEST SWAP3 POP POP DUP2 SWAP1 SSTORE POP DUP1 PUSH1 0x4 PUSH0 DUP5 PUSH20 0xFFFFFFFFFFFFFFFFFFFFFFFFFFFFFFFFFFFFFFFF AND PUSH20 0xFFFFFFFFFFFFFFFFFFFFFFFFFFFFFFFFFFFFFFFF AND DUP2 MSTORE PUSH1 0x20 ADD SWAP1 DUP2 MSTORE PUSH1 0x20 ADD PUSH0 KECCAK256 PUSH0 DUP3 DUP3 SLOAD PUSH2 0x2E7 SWAP2 SWAP1 PUSH2 0x80C JUMP JUMPDEST SWAP3 POP POP DUP2 SWAP1 SSTORE POP DUP2 PUSH20 0xFFFFFFFFFFFFFFFFFFFFFFFFFFFFFFFFFFFFFFFF AND PUSH0 PUSH20 0xFFFFFFFFFFFFFFFFFFFFFFFFFFFFFFFFFFFFFFFF AND PUSH32 0xDDF252AD1BE2C89B69C2B068FC378DAA952BA7F163C4A11628F55A4DF523B3EF DUP4 PUSH1 0x40 MLOAD PUSH2 0x34B SWAP2 SWAP1 PUSH2 0x84E JUMP JUMPDEST PUSH1 0x40 MLOAD DUP1 SWAP2 SUB SWAP1 LOG3 POP POP JUMP JUMPDEST PUSH0 DUP2 MLOAD SWAP1 POP SWAP2 SWAP1 POP JUMP JUMPDEST PUSH32 0x4E487B7100000000000000000000000000000000000000000000000000000000 PUSH0 MSTORE PUSH1 0x41 PUSH1 0x4 MSTORE PUSH1 0x24 PUSH0 REVERT JUMPDEST PUSH32 0x4E487B7100000000000000000000000000000000000000000000000000000000 PUSH0 MSTORE PUSH1 0x22 PUSH1 0x4 MSTORE PUSH1 0x24 PUSH0 REVERT JUMPDEST PUSH0 PUSH1 0x2 DUP3 DIV SWAP1 POP PUSH1 0x1 DUP3 AND DUP1 PUSH2 0x3D2 JUMPI PUSH1 0x7F DUP3 AND SWAP2 POP JUMPDEST PUSH1 0x20 DUP3 LT DUP2 SUB PUSH2 0x3E5 JUMPI PUSH2 0x3E4 PUSH2 0x38E JUMP JUMPDEST JUMPDEST POP SWAP2 SWAP1 POP JUMP JUMPDEST PUSH0 DUP2 SWAP1 POP DUP2 PUSH0 MSTORE PUSH1 0x20 PUSH0 KECCAK256 SWAP1 POP SWAP2 SWAP1 POP JUMP JUMPDEST PUSH0 PUSH1 0x20 PUSH1 0x1F DUP4 ADD DIV SWAP1 POP SWAP2 SWAP1 POP JUMP JUMPDEST PUSH0 DUP3 DUP3 SHL SWAP1 POP SWAP3 SWAP2 POP POP JUMP JUMPDEST PUSH0 PUSH1 0x8 DUP4 MUL PUSH2 0x447 PUSH32 0xFFFFFFFFFFFFFFFFFFFFFFFFFFFFFFFFFFFFFFFFFFFFFFFFFFFFFFFFFFFFFFFF DUP3 PUSH2 0x40C JUMP JUMPDEST PUSH2 0x451 DUP7 DUP4 PUSH2 0x40C JUMP JUMPDEST SWAP6 POP DUP1 NOT DUP5 AND SWAP4 POP DUP1 DUP7 AND DUP5 OR SWAP3 POP POP POP SWAP4 SWAP3 POP POP POP JUMP JUMPDEST PUSH0 DUP2 SWAP1 POP SWAP2 SWAP1 POP JUMP JUMPDEST PUSH0 DUP2 SWAP1 POP SWAP2 SWAP1 POP JUMP JUMPDEST PUSH0 PUSH2 0x495 PUSH2 0x490 PUSH2 0x48B DUP5 PUSH2 0x469 JUMP JUMPDEST PUSH2 0x472 JUMP JUMPDEST PUSH2 0x469 JUMP JUMPDEST SWAP1 POP SWAP2 SWAP1 POP JUMP JUMPDEST PUSH0 DUP2 SWAP1 POP SWAP2 SWAP1 POP JUMP JUMPDEST PUSH2 0x4AE DUP4 PUSH2 0x47B JUMP JUMPDEST PUSH2 0x4C2 PUSH2 0x4BA DUP3 PUSH2 0x49C JUMP JUMPDEST DUP5 DUP5 SLOAD PUSH2 0x418 JUMP JUMPDEST DUP3 SSTORE POP POP POP POP JUMP JUMPDEST PUSH0 PUSH0 SWAP1 POP SWAP1 JUMP JUMPDEST PUSH2 0x4D9 PUSH2 0x4CA JUMP JUMPDEST PUSH2 0x4E4 DUP2 DUP5 DUP5 PUSH2 0x4A5 JUMP JUMPDEST POP POP POP JUMP JUMPDEST JUMPDEST DUP2 DUP2 LT ISZERO PUSH2 0x507 JUMPI PUSH2 0x4FC PUSH0 DUP3 PUSH2 0x4D1 JUMP JUMPDEST PUSH1 0x1 DUP2 ADD SWAP1 POP PUSH2 0x4EA JUMP JUMPDEST POP POP JUMP JUMPDEST PUSH1 0x1F DUP3 GT ISZERO PUSH2 0x54C JUMPI PUSH2 0x51D DUP2 PUSH2 0x3EB JUMP JUMPDEST PUSH2 0x526 DUP5 PUSH2 0x3FD JUMP JUMPDEST DUP2 ADD PUSH1 0x20 DUP6 LT ISZERO PUSH2 0x535 JUMPI DUP2 SWAP1 POP JUMPDEST PUSH2 0x549 PUSH2 0x541 DUP6 PUSH2 0x3FD JUMP JUMPDEST DUP4 ADD DUP3 PUSH2 0x4E9 JUMP JUMPDEST POP POP JUMPDEST POP POP POP JUMP JUMPDEST PUSH0 DUP3 DUP3 SHR SWAP1 POP SWAP3 SWAP2 POP POP JUMP JUMPDEST PUSH0 PUSH2 0x56C PUSH0 NOT DUP5 PUSH1 0x8 MUL PUSH2 0x551 JUMP JUMPDEST NOT DUP1 DUP4 AND SWAP2 POP POP SWAP3 SWAP2 POP POP JUMP JUMPDEST PUSH0 PUSH2 0x584 DUP4 DUP4 PUSH2 0x55D JUMP JUMPDEST SWAP2 POP DUP3 PUSH1 0x2 MUL DUP3 OR SWAP1 POP SWAP3 SWAP2 POP POP JUMP JUMPDEST PUSH2 0x59D DUP3 PUSH2 0x357 JUMP JUMPDEST PUSH8 0xFFFFFFFFFFFFFFFF DUP2 GT ISZERO PUSH2 0x5B6 JUMPI PUSH2 0x5B5 PUSH2 0x361 JUMP JUMPDEST JUMPDEST PUSH2 0x5C0 DUP3 SLOAD PUSH2 0x3BB JUMP JUMPDEST PUSH2 0x5CB DUP3 DUP3 DUP6 PUSH2 0x50B JUMP JUMPDEST PUSH0 PUSH1 0x20 SWAP1 POP PUSH1 0x1F DUP4 GT PUSH1 0x1 DUP2 EQ PUSH2 0x5FC JUMPI PUSH0 DUP5 ISZERO PUSH2 0x5EA JUMPI DUP3 DUP8 ADD MLOAD SWAP1 POP JUMPDEST PUSH2 0x5F4 DUP6 DUP3 PUSH2 0x579 JUMP JUMPDEST DUP7 SSTORE POP PUSH2 0x65B JUMP JUMPDEST PUSH1 0x1F NOT DUP5 AND PUSH2 0x60A DUP7 PUSH2 0x3EB JUMP JUMPDEST PUSH0 JUMPDEST DUP3 DUP2 LT ISZERO PUSH2 0x631 JUMPI DUP5 DUP10 ADD MLOAD DUP3 SSTORE PUSH1 0x1 DUP3 ADD SWAP2 POP PUSH1 0x20 DUP6 ADD SWAP5 POP PUSH1 0x20 DUP2 ADD SWAP1 POP PUSH2 0x60C JUMP JUMPDEST DUP7 DUP4 LT ISZERO PUSH2 0x64E JUMPI DUP5 DUP10 ADD MLOAD PUSH2 0x64A PUSH1 0x1F DUP10 AND DUP3 PUSH2 0x55D JUMP JUMPDEST DUP4 SSTORE POP JUMPDEST PUSH1 0x1 PUSH1 0x2 DUP9 MUL ADD DUP9 SSTORE POP POP POP JUMPDEST POP POP POP POP POP POP JUMP JUMPDEST PUSH0 PUSH0 REVERT JUMPDEST PUSH0 PUSH20 0xFFFFFFFFFFFFFFFFFFFFFFFFFFFFFFFFFFFFFFFF DUP3 AND SWAP1 POP SWAP2 SWAP1 POP JUMP JUMPDEST PUSH0 PUSH2 0x690 DUP3 PUSH2 0x667 JUMP JUMPDEST SWAP1 POP SWAP2 SWAP1 POP JUMP JUMPDEST PUSH2 0x6A0 DUP2 PUSH2 0x686 JUMP JUMPDEST DUP2 EQ PUSH2 0x6AA JUMPI PUSH0 PUSH0 REVERT JUMPDEST POP JUMP JUMPDEST PUSH0 DUP2 MLOAD SWAP1 POP PUSH2 0x6BB DUP2 PUSH2 0x697 JUMP JUMPDEST SWAP3 SWAP2 POP POP JUMP JUMPDEST PUSH0 PUSH0 PUSH1 0x40 DUP4 DUP6 SUB SLT ISZERO PUSH2 0x6D7 JUMPI PUSH2 0x6D6 PUSH2 0x663 JUMP JUMPDEST JUMPDEST PUSH0 PUSH2 0x6E4 DUP6 DUP3 DUP7 ADD PUSH2 0x6AD JUMP JUMPDEST SWAP3 POP POP PUSH1 0x20 PUSH2 0x6F5 DUP6 DUP3 DUP7 ADD PUSH2 0x6AD JUMP JUMPDEST SWAP2 POP POP SWAP3 POP SWAP3 SWAP1 POP JUMP JUMPDEST PUSH0 DUP3 DUP3 MSTORE PUSH1 0x20 DUP3 ADD SWAP1 POP SWAP3 SWAP2 POP POP JUMP JUMPDEST PUSH32 0x496E76616C696420746F6B656E20616464726573736573000000000000000000 PUSH0 DUP3 ADD MSTORE POP JUMP JUMPDEST PUSH0 PUSH2 0x743 PUSH1 0x17 DUP4 PUSH2 0x6FF JUMP JUMPDEST SWAP2 POP PUSH2 0x74E DUP3 PUSH2 0x70F JUMP JUMPDEST PUSH1 0x20 DUP3 ADD SWAP1 POP SWAP2 SWAP1 POP JUMP JUMPDEST PUSH0 PUSH1 0x20 DUP3 ADD SWAP1 POP DUP2 DUP2 SUB PUSH0 DUP4 ADD MSTORE PUSH2 0x770 DUP2 PUSH2 0x737 JUMP JUMPDEST SWAP1 POP SWAP2 SWAP1 POP JUMP JUMPDEST PUSH32 0x4964656E746963616C20746F6B656E7300000000000000000000000000000000 PUSH0 DUP3 ADD MSTORE POP JUMP JUMPDEST PUSH0 PUSH2 0x7AB PUSH1 0x10 DUP4 PUSH2 0x6FF JUMP JUMPDEST SWAP2 POP PUSH2 0x7B6 DUP3 PUSH2 0x777 JUMP JUMPDEST PUSH1 0x20 DUP3 ADD SWAP1 POP SWAP2 SWAP1 POP JUMP JUMPDEST PUSH0 PUSH1 0x20 DUP3 ADD SWAP1 POP DUP2 DUP2 SUB PUSH0 DUP4 ADD MSTORE PUSH2 0x7D8 DUP2 PUSH2 0x79F JUMP JUMPDEST SWAP1 POP SWAP2 SWAP1 POP JUMP JUMPDEST PUSH32 0x4E487B7100000000000000000000000000000000000000000000000000000000 PUSH0 MSTORE PUSH1 0x11 PUSH1 0x4 MSTORE PUSH1 0x24 PUSH0 REVERT JUMPDEST PUSH0 PUSH2 0x816 DUP3 PUSH2 0x469 JUMP JUMPDEST SWAP2 POP PUSH2 0x821 DUP4 PUSH2 0x469 JUMP JUMPDEST SWAP3 POP DUP3 DUP3 ADD SWAP1 POP DUP1 DUP3 GT ISZERO PUSH2 0x839 JUMPI PUSH2 0x838 PUSH2 0x7DF JUMP JUMPDEST JUMPDEST SWAP3 SWAP2 POP POP JUMP JUMPDEST PUSH2 0x848 DUP2 PUSH2 0x469 JUMP JUMPDEST DUP3 MSTORE POP POP JUMP JUMPDEST PUSH0 PUSH1 0x20 DUP3 ADD SWAP1 POP PUSH2 0x861 PUSH0 DUP4 ADD DUP5 PUSH2 0x83F JUMP JUMPDEST SWAP3 SWAP2 POP POP JUMP JUMPDEST PUSH2 0x31B8 DUP1 PUSH2 0x874 PUSH0 CODECOPY PUSH0 RETURN INVALID PUSH1 0x80 PUSH1 0x40 MSTORE CALLVALUE DUP1 ISZERO PUSH2 0xF JUMPI PUSH0 PUSH0 REVERT JUMPDEST POP PUSH1 0x4 CALLDATASIZE LT PUSH2 0x140 JUMPI PUSH0 CALLDATALOAD PUSH1 0xE0 SHR DUP1 PUSH4 0x5F64B55B GT PUSH2 0xB6 JUMPI DUP1 PUSH4 0xBAA2ABDE GT PUSH2 0x7A JUMPI DUP1 PUSH4 0xBAA2ABDE EQ PUSH2 0x38F JUMPI DUP1 PUSH4 0xC8C0526E EQ PUSH2 0x3C0 JUMPI DUP1 PUSH4 0xD3C7C2C7 EQ PUSH2 0x3F0 JUMPI DUP1 PUSH4 0xDC5FA6C5 EQ PUSH2 0x40F JUMPI DUP1 PUSH4 0xDD62ED3E EQ PUSH2 0x42D JUMPI DUP1 PUSH4 0xE8E33700 EQ PUSH2 0x45D JUMPI PUSH2 0x140 JUMP JUMPDEST DUP1 PUSH4 0x5F64B55B EQ PUSH2 0x2C3 JUMPI DUP1 PUSH4 0x70A08231 EQ PUSH2 0x2E1 JUMPI DUP1 PUSH4 0x95D89B41 EQ PUSH2 0x311 JUMPI DUP1 PUSH4 0xA9059CBB EQ PUSH2 0x32F JUMPI DUP1 PUSH4 0xAC41865A EQ PUSH2 0x35F JUMPI PUSH2 0x140 JUMP JUMPDEST DUP1 PUSH4 0x18160DDD GT PUSH2 0x108 JUMPI DUP1 PUSH4 0x18160DDD EQ PUSH2 0x1FF JUMPI DUP1 PUSH4 0x19E36F3B EQ PUSH2 0x21D JUMPI DUP1 PUSH4 0x23B872DD EQ PUSH2 0x23B JUMPI DUP1 PUSH4 0x313CE567 EQ PUSH2 0x26B JUMPI DUP1 PUSH4 0x35C7E925 EQ PUSH2 0x289 JUMPI DUP1 PUSH4 0x38ED1739 EQ PUSH2 0x2A7 JUMPI PUSH2 0x140 JUMP JUMPDEST DUP1 PUSH4 0x54D50D4 EQ PUSH2 0x144 JUMPI DUP1 PUSH4 0x6FDDE03 EQ PUSH2 0x174 JUMPI DUP1 PUSH4 0x902F1AC EQ PUSH2 0x192 JUMPI DUP1 PUSH4 0x95EA7B3 EQ PUSH2 0x1B1 JUMPI DUP1 PUSH4 0xFC63D10 EQ PUSH2 0x1E1 JUMPI JUMPDEST PUSH0 PUSH0 REVERT JUMPDEST PUSH2 0x15E PUSH1 0x4 DUP1 CALLDATASIZE SUB DUP2 ADD SWAP1 PUSH2 0x159 SWAP2 SWAP1 PUSH2 0x21AE JUMP JUMPDEST PUSH2 0x48F JUMP JUMPDEST PUSH1 0x40 MLOAD PUSH2 0x16B SWAP2 SWAP1 PUSH2 0x220D JUMP JUMPDEST PUSH1 0x40 MLOAD DUP1 SWAP2 SUB SWAP1 RETURN JUMPDEST PUSH2 0x17C PUSH2 0x54A JUMP JUMPDEST PUSH1 0x40 MLOAD PUSH2 0x189 SWAP2 SWAP1 PUSH2 0x2296 JUMP JUMPDEST PUSH1 0x40 MLOAD DUP1 SWAP2 SUB SWAP1 RETURN JUMPDEST PUSH2 0x19A PUSH2 0x5D5 JUMP JUMPDEST PUSH1 0x40 MLOAD PUSH2 0x1A8 SWAP3 SWAP2 SWAP1 PUSH2 0x22B6 JUMP JUMPDEST PUSH1 0x40 MLOAD DUP1 SWAP2 SUB SWAP1 RETURN JUMPDEST PUSH2 0x1CB PUSH1 0x4 DUP1 CALLDATASIZE SUB DUP2 ADD SWAP1 PUSH2 0x1C6 SWAP2 SWAP1 PUSH2 0x2337 JUMP JUMPDEST PUSH2 0x5E5 JUMP JUMPDEST PUSH1 0x40 MLOAD PUSH2 0x1D8 SWAP2 SWAP1 PUSH2 0x238F JUMP JUMPDEST PUSH1 0x40 MLOAD DUP1 SWAP2 SUB SWAP1 RETURN JUMPDEST PUSH2 0x1E9 PUSH2 0x6D2 JUMP JUMPDEST PUSH1 0x40 MLOAD PUSH2 0x1F6 SWAP2 SWAP1 PUSH2 0x23B7 JUMP JUMPDEST PUSH1 0x40 MLOAD DUP1 SWAP2 SUB SWAP1 RETURN JUMPDEST PUSH2 0x207 PUSH2 0x6F7 JUMP JUMPDEST PUSH1 0x40 MLOAD PUSH2 0x214 SWAP2 SWAP1 PUSH2 0x220D JUMP JUMPDEST PUSH1 0x40 MLOAD DUP1 SWAP2 SUB SWAP1 RETURN JUMPDEST PUSH2 0x225 PUSH2 0x6FD JUMP JUMPDEST PUSH1 0x40 MLOAD PUSH2 0x232 SWAP2 SWAP1 PUSH2 0x220D JUMP JUMPDEST PUSH1 0x40 MLOAD DUP1 SWAP2 SUB SWAP1 RETURN JUMPDEST PUSH2 0x255 PUSH1 0x4 DUP1 CALLDATASIZE SUB DUP2 ADD SWAP1 PUSH2 0x250 SWAP2 SWAP1 PUSH2 0x23D0 JUMP JUMPDEST PUSH2 0x703 JUMP JUMPDEST PUSH1 0x40 MLOAD PUSH2 0x262 SWAP2 SWAP1 PUSH2 0x238F JUMP JUMPDEST PUSH1 0x40 MLOAD DUP1 SWAP2 SUB SWAP1 RETURN JUMPDEST PUSH2 0x273 PUSH2 0x9E3 JUMP JUMPDEST PUSH1 0x40 MLOAD PUSH2 0x280 SWAP2 SWAP1 PUSH2 0x243B JUMP JUMPDEST PUSH1 0x40 MLOAD DUP1 SWAP2 SUB SWAP1 RETURN JUMPDEST PUSH2 0x291 PUSH2 0x9F5 JUMP JUMPDEST PUSH1 0x40 MLOAD PUSH2 0x29E SWAP2 SWAP1 PUSH2 0x220D JUMP JUMPDEST PUSH1 0x40 MLOAD DUP1 SWAP2 SUB SWAP1 RETURN JUMPDEST PUSH2 0x2C1 PUSH1 0x4 DUP1 CALLDATASIZE SUB DUP2 ADD SWAP1 PUSH2 0x2BC SWAP2 SWAP1 PUSH2 0x24B5 JUMP JUMPDEST PUSH2 0x9FE JUMP JUMPDEST STOP JUMPDEST PUSH2 0x2CB PUSH2 0xFB8 JUMP JUMPDEST PUSH1 0x40 MLOAD PUSH2 0x2D8 SWAP2 SWAP1 PUSH2 0x23B7 JUMP JUMPDEST PUSH1 0x40 MLOAD DUP1 SWAP2 SUB SWAP1 RETURN JUMPDEST PUSH2 0x2FB PUSH1 0x4 DUP1 CALLDATASIZE SUB DUP2 ADD SWAP1 PUSH2 0x2F6 SWAP2 SWAP1 PUSH2 0x254B JUMP JUMPDEST PUSH2 0xFDD JUMP JUMPDEST PUSH1 0x40 MLOAD PUSH2 0x308 SWAP2 SWAP1 PUSH2 0x220D JUMP JUMPDEST PUSH1 0x40 MLOAD DUP1 SWAP2 SUB SWAP1 RETURN JUMPDEST PUSH2 0x319 PUSH2 0xFF2 JUMP JUMPDEST PUSH1 0x40 MLOAD PUSH2 0x326 SWAP2 SWAP1 PUSH2 0x2296 JUMP JUMPDEST PUSH1 0x40 MLOAD DUP1 SWAP2 SUB SWAP1 RETURN JUMPDEST PUSH2 0x349 PUSH1 0x4 DUP1 CALLDATASIZE SUB DUP2 ADD SWAP1 PUSH2 0x344 SWAP2 SWAP1 PUSH2 0x2337 JUMP JUMPDEST PUSH2 0x107E JUMP JUMPDEST PUSH1 0x40 MLOAD PUSH2 0x356 SWAP2 SWAP1 PUSH2 0x238F JUMP JUMPDEST PUSH1 0x40 MLOAD DUP1 SWAP2 SUB SWAP1 RETURN JUMPDEST PUSH2 0x379 PUSH1 0x4 DUP1 CALLDATASIZE SUB DUP2 ADD SWAP1 PUSH2 0x374 SWAP2 SWAP1 PUSH2 0x2576 JUMP JUMPDEST PUSH2 0x1214 JUMP JUMPDEST PUSH1 0x40 MLOAD PUSH2 0x386 SWAP2 SWAP1 PUSH2 0x220D JUMP JUMPDEST PUSH1 0x40 MLOAD DUP1 SWAP2 SUB SWAP1 RETURN JUMPDEST PUSH2 0x3A9 PUSH1 0x4 DUP1 CALLDATASIZE SUB DUP2 ADD SWAP1 PUSH2 0x3A4 SWAP2 SWAP1 PUSH2 0x25B4 JUMP JUMPDEST PUSH2 0x1359 JUMP JUMPDEST PUSH1 0x40 MLOAD PUSH2 0x3B7 SWAP3 SWAP2 SWAP1 PUSH2 0x22B6 JUMP JUMPDEST PUSH1 0x40 MLOAD DUP1 SWAP2 SUB SWAP1 RETURN JUMPDEST PUSH2 0x3DA PUSH1 0x4 DUP1 CALLDATASIZE SUB DUP2 ADD SWAP1 PUSH2 0x3D5 SWAP2 SWAP1 PUSH2 0x254B JUMP JUMPDEST PUSH2 0x17E5 JUMP JUMPDEST PUSH1 0x40 MLOAD PUSH2 0x3E7 SWAP2 SWAP1 PUSH2 0x220D JUMP JUMPDEST PUSH1 0x40 MLOAD DUP1 SWAP2 SUB SWAP1 RETURN JUMPDEST PUSH2 0x3F8 PUSH2 0x182B JUMP JUMPDEST PUSH1 0x40 MLOAD PUSH2 0x406 SWAP3 SWAP2 SWAP1 PUSH2 0x2651 JUMP JUMPDEST PUSH1 0x40 MLOAD DUP1 SWAP2 SUB SWAP1 RETURN JUMPDEST PUSH2 0x417 PUSH2 0x1879 JUMP JUMPDEST PUSH1 0x40 MLOAD PUSH2 0x424 SWAP2 SWAP1 PUSH2 0x220D JUMP JUMPDEST PUSH1 0x40 MLOAD DUP1 SWAP2 SUB SWAP1 RETURN JUMPDEST PUSH2 0x447 PUSH1 0x4 DUP1 CALLDATASIZE SUB DUP2 ADD SWAP1 PUSH2 0x442 SWAP2 SWAP1 PUSH2 0x2576 JUMP JUMPDEST PUSH2 0x187F JUMP JUMPDEST PUSH1 0x40 MLOAD PUSH2 0x454 SWAP2 SWAP1 PUSH2 0x220D JUMP JUMPDEST PUSH1 0x40 MLOAD DUP1 SWAP2 SUB SWAP1 RETURN JUMPDEST PUSH2 0x477 PUSH1 0x4 DUP1 CALLDATASIZE SUB DUP2 ADD SWAP1 PUSH2 0x472 SWAP2 SWAP1 PUSH2 0x2678 JUMP JUMPDEST PUSH2 0x189F JUMP JUMPDEST PUSH1 0x40 MLOAD PUSH2 0x486 SWAP4 SWAP3 SWAP2 SWAP1 PUSH2 0x2729 JUMP JUMPDEST PUSH1 0x40 MLOAD DUP1 SWAP2 SUB SWAP1 RETURN JUMPDEST PUSH0 PUSH0 DUP5 GT PUSH2 0x4D2 JUMPI PUSH1 0x40 MLOAD PUSH32 0x8C379A000000000000000000000000000000000000000000000000000000000 DUP2 MSTORE PUSH1 0x4 ADD PUSH2 0x4C9 SWAP1 PUSH2 0x27A8 JUMP JUMPDEST PUSH1 0x40 MLOAD DUP1 SWAP2 SUB SWAP1 REVERT JUMPDEST PUSH0 DUP4 GT DUP1 ISZERO PUSH2 0x4E0 JUMPI POP PUSH0 DUP3 GT JUMPDEST PUSH2 0x51F JUMPI PUSH1 0x40 MLOAD PUSH32 0x8C379A000000000000000000000000000000000000000000000000000000000 DUP2 MSTORE PUSH1 0x4 ADD PUSH2 0x516 SWAP1 PUSH2 0x2810 JUMP JUMPDEST PUSH1 0x40 MLOAD DUP1 SWAP2 SUB SWAP1 REVERT JUMPDEST DUP4 DUP4 PUSH2 0x52B SWAP2 SWAP1 PUSH2 0x285B JUMP JUMPDEST DUP3 DUP6 PUSH2 0x537 SWAP2 SWAP1 PUSH2 0x288E JUMP JUMPDEST PUSH2 0x541 SWAP2 SWAP1 PUSH2 0x28FC JUMP JUMPDEST SWAP1 POP SWAP4 SWAP3 POP POP POP JUMP JUMPDEST PUSH0 DUP1 SLOAD PUSH2 0x556 SWAP1 PUSH2 0x2959 JUMP JUMPDEST DUP1 PUSH1 0x1F ADD PUSH1 0x20 DUP1 SWAP2 DIV MUL PUSH1 0x20 ADD PUSH1 0x40 MLOAD SWAP1 DUP2 ADD PUSH1 0x40 MSTORE DUP1 SWAP3 SWAP2 SWAP1 DUP2 DUP2 MSTORE PUSH1 0x20 ADD DUP3 DUP1 SLOAD PUSH2 0x582 SWAP1 PUSH2 0x2959 JUMP JUMPDEST DUP1 ISZERO PUSH2 0x5CD JUMPI DUP1 PUSH1 0x1F LT PUSH2 0x5A4 JUMPI PUSH2 0x100 DUP1 DUP4 SLOAD DIV MUL DUP4 MSTORE SWAP2 PUSH1 0x20 ADD SWAP2 PUSH2 0x5CD JUMP JUMPDEST DUP3 ADD SWAP2 SWAP1 PUSH0 MSTORE PUSH1 0x20 PUSH0 KECCAK256 SWAP1 JUMPDEST DUP2 SLOAD DUP2 MSTORE SWAP1 PUSH1 0x1 ADD SWAP1 PUSH1 0x20 ADD DUP1 DUP4 GT PUSH2 0x5B0 JUMPI DUP3 SWAP1 SUB PUSH1 0x1F AND DUP3 ADD SWAP2 JUMPDEST POP POP POP POP POP DUP2 JUMP JUMPDEST PUSH0 PUSH0 PUSH1 0x8 SLOAD SWAP2 POP PUSH1 0x9 SLOAD SWAP1 POP SWAP1 SWAP2 JUMP JUMPDEST PUSH0 DUP2 PUSH1 0x5 PUSH0 CALLER PUSH20 0xFFFFFFFFFFFFFFFFFFFFFFFFFFFFFFFFFFFFFFFF AND PUSH20 0xFFFFFFFFFFFFFFFFFFFFFFFFFFFFFFFFFFFFFFFF AND DUP2 MSTORE PUSH1 0x20 ADD SWAP1 DUP2 MSTORE PUSH1 0x20 ADD PUSH0 KECCAK256 PUSH0 DUP6 PUSH20 0xFFFFFFFFFFFFFFFFFFFFFFFFFFFFFFFFFFFFFFFF AND PUSH20 0xFFFFFFFFFFFFFFFFFFFFFFFFFFFFFFFFFFFFFFFF AND DUP2 MSTORE PUSH1 0x20 ADD SWAP1 DUP2 MSTORE PUSH1 0x20 ADD PUSH0 KECCAK256 DUP2 SWAP1 SSTORE POP DUP3 PUSH20 0xFFFFFFFFFFFFFFFFFFFFFFFFFFFFFFFFFFFFFFFF AND CALLER PUSH20 0xFFFFFFFFFFFFFFFFFFFFFFFFFFFFFFFFFFFFFFFF AND PUSH32 0x8C5BE1E5EBEC7D5BD14F71427D1E84F3DD0314C0F7B2291E5B200AC8C7C3B925 DUP5 PUSH1 0x40 MLOAD PUSH2 0x6C0 SWAP2 SWAP1 PUSH2 0x220D JUMP JUMPDEST PUSH1 0x40 MLOAD DUP1 SWAP2 SUB SWAP1 LOG3 PUSH1 0x1 SWAP1 POP SWAP3 SWAP2 POP POP JUMP JUMPDEST PUSH1 0x6 PUSH0 SWAP1 SLOAD SWAP1 PUSH2 0x100 EXP SWAP1 DIV PUSH20 0xFFFFFFFFFFFFFFFFFFFFFFFFFFFFFFFFFFFFFFFF AND DUP2 JUMP JUMPDEST PUSH1 0x3 SLOAD DUP2 JUMP JUMPDEST PUSH1 0x9 SLOAD DUP2 JUMP JUMPDEST PUSH0 DUP2 PUSH1 0x4 PUSH0 DUP7 PUSH20 0xFFFFFFFFFFFFFFFFFFFFFFFFFFFFFFFFFFFFFFFF AND PUSH20 0xFFFFFFFFFFFFFFFFFFFFFFFFFFFFFFFFFFFFFFFF AND DUP2 MSTORE PUSH1 0x20 ADD SWAP1 DUP2 MSTORE PUSH1 0x20 ADD PUSH0 KECCAK256 SLOAD LT ISZERO PUSH2 0x784 JUMPI PUSH1 0x40 MLOAD PUSH32 0x8C379A000000000000000000000000000000000000000000000000000000000 DUP2 MSTORE PUSH1 0x4 ADD PUSH2 0x77B SWAP1 PUSH2 0x29D3 JUMP JUMPDEST PUSH1 0x40 MLOAD DUP1 SWAP2 SUB SWAP1 REVERT JUMPDEST DUP2 PUSH1 0x5 PUSH0 DUP7 PUSH20 0xFFFFFFFFFFFFFFFFFFFFFFFFFFFFFFFFFFFFFFFF AND PUSH20 0xFFFFFFFFFFFFFFFFFFFFFFFFFFFFFFFFFFFFFFFF AND DUP2 MSTORE PUSH1 0x20 ADD SWAP1 DUP2 MSTORE PUSH1 0x20 ADD PUSH0 KECCAK256 PUSH0 CALLER PUSH20 0xFFFFFFFFFFFFFFFFFFFFFFFFFFFFFFFFFFFFFFFF AND PUSH20 0xFFFFFFFFFFFFFFFFFFFFFFFFFFFFFFFFFFFFFFFF AND DUP2 MSTORE PUSH1 0x20 ADD SWAP1 DUP2 MSTORE PUSH1 0x20 ADD PUSH0 KECCAK256 SLOAD LT ISZERO PUSH2 0x83F JUMPI PUSH1 0x40 MLOAD PUSH32 0x8C379A000000000000000000000000000000000000000000000000000000000 DUP2 MSTORE PUSH1 0x4 ADD PUSH2 0x836 SWAP1 PUSH2 0x2A3B JUMP JUMPDEST PUSH1 0x40 MLOAD DUP1 SWAP2 SUB SWAP1 REVERT JUMPDEST DUP2 PUSH1 0x5 PUSH0 DUP7 PUSH20 0xFFFFFFFFFFFFFFFFFFFFFFFFFFFFFFFFFFFFFFFF AND PUSH20 0xFFFFFFFFFFFFFFFFFFFFFFFFFFFFFFFFFFFFFFFF AND DUP2 MSTORE PUSH1 0x20 ADD SWAP1 DUP2 MSTORE PUSH1 0x20 ADD PUSH0 KECCAK256 PUSH0 CALLER PUSH20 0xFFFFFFFFFFFFFFFFFFFFFFFFFFFFFFFFFFFFFFFF AND PUSH20 0xFFFFFFFFFFFFFFFFFFFFFFFFFFFFFFFFFFFFFFFF AND DUP2 MSTORE PUSH1 0x20 ADD SWAP1 DUP2 MSTORE PUSH1 0x20 ADD PUSH0 KECCAK256 PUSH0 DUP3 DUP3 SLOAD PUSH2 0x8C6 SWAP2 SWAP1 PUSH2 0x2A59 JUMP JUMPDEST SWAP3 POP POP DUP2 SWAP1 SSTORE POP DUP2 PUSH1 0x4 PUSH0 DUP7 PUSH20 0xFFFFFFFFFFFFFFFFFFFFFFFFFFFFFFFFFFFFFFFF AND PUSH20 0xFFFFFFFFFFFFFFFFFFFFFFFFFFFFFFFFFFFFFFFF AND DUP2 MSTORE PUSH1 0x20 ADD SWAP1 DUP2 MSTORE PUSH1 0x20 ADD PUSH0 KECCAK256 PUSH0 DUP3 DUP3 SLOAD PUSH2 0x919 SWAP2 SWAP1 PUSH2 0x2A59 JUMP JUMPDEST SWAP3 POP POP DUP2 SWAP1 SSTORE POP DUP2 PUSH1 0x4 PUSH0 DUP6 PUSH20 0xFFFFFFFFFFFFFFFFFFFFFFFFFFFFFFFFFFFFFFFF AND PUSH20 0xFFFFFFFFFFFFFFFFFFFFFFFFFFFFFFFFFFFFFFFF AND DUP2 MSTORE PUSH1 0x20 ADD SWAP1 DUP2 MSTORE PUSH1 0x20 ADD PUSH0 KECCAK256 PUSH0 DUP3 DUP3 SLOAD PUSH2 0x96C SWAP2 SWAP1 PUSH2 0x285B JUMP JUMPDEST SWAP3 POP POP DUP2 SWAP1 SSTORE POP DUP3 PUSH20 0xFFFFFFFFFFFFFFFFFFFFFFFFFFFFFFFFFFFFFFFF AND DUP5 PUSH20 0xFFFFFFFFFFFFFFFFFFFFFFFFFFFFFFFFFFFFFFFF AND PUSH32 0xDDF252AD1BE2C89B69C2B068FC378DAA952BA7F163C4A11628F55A4DF523B3EF DUP5 PUSH1 0x40 MLOAD PUSH2 0x9D0 SWAP2 SWAP1 PUSH2 0x220D JUMP JUMPDEST PUSH1 0x40 MLOAD DUP1 SWAP2 SUB SWAP1 LOG3 PUSH1 0x1 SWAP1 POP SWAP4 SWAP3 POP POP POP JUMP JUMPDEST PUSH1 0x2 PUSH0 SWAP1 SLOAD SWAP1 PUSH2 0x100 EXP SWAP1 DIV PUSH1 0xFF AND DUP2 JUMP JUMPDEST PUSH0 PUSH1 0x3 SLOAD SWAP1 POP SWAP1 JUMP JUMPDEST DUP1 TIMESTAMP DUP2 LT ISZERO PUSH2 0xA42 JUMPI PUSH1 0x40 MLOAD PUSH32 0x8C379A000000000000000000000000000000000000000000000000000000000 DUP2 MSTORE PUSH1 0x4 ADD PUSH2 0xA39 SWAP1 PUSH2 0x2AD6 JUMP JUMPDEST PUSH1 0x40 MLOAD DUP1 SWAP2 SUB SWAP1 REVERT JUMPDEST PUSH1 0x2 DUP6 DUP6 SWAP1 POP EQ PUSH2 0xA88 JUMPI PUSH1 0x40 MLOAD PUSH32 0x8C379A000000000000000000000000000000000000000000000000000000000 DUP2 MSTORE PUSH1 0x4 ADD PUSH2 0xA7F SWAP1 PUSH2 0x2B3E JUMP JUMPDEST PUSH1 0x40 MLOAD DUP1 SWAP2 SUB SWAP1 REVERT JUMPDEST PUSH0 PUSH20 0xFFFFFFFFFFFFFFFFFFFFFFFFFFFFFFFFFFFFFFFF AND DUP4 PUSH20 0xFFFFFFFFFFFFFFFFFFFFFFFFFFFFFFFFFFFFFFFF AND SUB PUSH2 0xAF6 JUMPI PUSH1 0x40 MLOAD PUSH32 0x8C379A000000000000000000000000000000000000000000000000000000000 DUP2 MSTORE PUSH1 0x4 ADD PUSH2 0xAED SWAP1 PUSH2 0x2BA6 JUMP JUMPDEST PUSH1 0x40 MLOAD DUP1 SWAP2 SUB SWAP1 REVERT JUMPDEST PUSH2 0xB4F DUP6 DUP6 PUSH0 DUP2 DUP2 LT PUSH2 0xB0C JUMPI PUSH2 0xB0B PUSH2 0x2BC4 JUMP JUMPDEST JUMPDEST SWAP1 POP PUSH1 0x20 MUL ADD PUSH1 0x20 DUP2 ADD SWAP1 PUSH2 0xB21 SWAP2 SWAP1 PUSH2 0x254B JUMP JUMPDEST DUP7 DUP7 PUSH1 0x1 DUP2 DUP2 LT PUSH2 0xB35 JUMPI PUSH2 0xB34 PUSH2 0x2BC4 JUMP JUMPDEST JUMPDEST SWAP1 POP PUSH1 0x20 MUL ADD PUSH1 0x20 DUP2 ADD SWAP1 PUSH2 0xB4A SWAP2 SWAP1 PUSH2 0x254B JUMP JUMPDEST PUSH2 0x1D74 JUMP JUMPDEST PUSH2 0xB8E JUMPI PUSH1 0x40 MLOAD PUSH32 0x8C379A000000000000000000000000000000000000000000000000000000000 DUP2 MSTORE PUSH1 0x4 ADD PUSH2 0xB85 SWAP1 PUSH2 0x2C3B JUMP JUMPDEST PUSH1 0x40 MLOAD DUP1 SWAP2 SUB SWAP1 REVERT JUMPDEST PUSH0 DUP6 DUP6 PUSH0 DUP2 DUP2 LT PUSH2 0xBA2 JUMPI PUSH2 0xBA1 PUSH2 0x2BC4 JUMP JUMPDEST JUMPDEST SWAP1 POP PUSH1 0x20 MUL ADD PUSH1 0x20 DUP2 ADD SWAP1 PUSH2 0xBB7 SWAP2 SWAP1 PUSH2 0x254B JUMP JUMPDEST SWAP1 POP PUSH0 DUP7 DUP7 PUSH1 0x1 DUP2 DUP2 LT PUSH2 0xBCE JUMPI PUSH2 0xBCD PUSH2 0x2BC4 JUMP JUMPDEST JUMPDEST SWAP1 POP PUSH1 0x20 MUL ADD PUSH1 0x20 DUP2 ADD SWAP1 PUSH2 0xBE3 SWAP2 SWAP1 PUSH2 0x254B JUMP JUMPDEST SWAP1 POP PUSH0 PUSH1 0x6 PUSH0 SWAP1 SLOAD SWAP1 PUSH2 0x100 EXP SWAP1 DIV PUSH20 0xFFFFFFFFFFFFFFFFFFFFFFFFFFFFFFFFFFFFFFFF AND PUSH20 0xFFFFFFFFFFFFFFFFFFFFFFFFFFFFFFFFFFFFFFFF AND DUP4 PUSH20 0xFFFFFFFFFFFFFFFFFFFFFFFFFFFFFFFFFFFFFFFF AND EQ PUSH2 0xC42 JUMPI PUSH1 0x9 SLOAD PUSH2 0xC46 JUMP JUMPDEST PUSH1 0x8 SLOAD JUMPDEST SWAP1 POP PUSH0 PUSH1 0x6 PUSH0 SWAP1 SLOAD SWAP1 PUSH2 0x100 EXP SWAP1 DIV PUSH20 0xFFFFFFFFFFFFFFFFFFFFFFFFFFFFFFFFFFFFFFFF AND PUSH20 0xFFFFFFFFFFFFFFFFFFFFFFFFFFFFFFFFFFFFFFFF AND DUP4 PUSH20 0xFFFFFFFFFFFFFFFFFFFFFFFFFFFFFFFFFFFFFFFF AND EQ PUSH2 0xCA5 JUMPI PUSH1 0x9 SLOAD PUSH2 0xCA9 JUMP JUMPDEST PUSH1 0x8 SLOAD JUMPDEST SWAP1 POP PUSH0 PUSH2 0xCB7 DUP13 DUP5 DUP5 PUSH2 0x48F JUMP JUMPDEST SWAP1 POP DUP11 DUP2 LT ISZERO PUSH2 0xCFC JUMPI PUSH1 0x40 MLOAD PUSH32 0x8C379A000000000000000000000000000000000000000000000000000000000 DUP2 MSTORE PUSH1 0x4 ADD PUSH2 0xCF3 SWAP1 PUSH2 0x2CA3 JUMP JUMPDEST PUSH1 0x40 MLOAD DUP1 SWAP2 SUB SWAP1 REVERT JUMPDEST DUP5 PUSH20 0xFFFFFFFFFFFFFFFFFFFFFFFFFFFFFFFFFFFFFFFF AND PUSH4 0x23B872DD CALLER ADDRESS DUP16 PUSH1 0x40 MLOAD DUP5 PUSH4 0xFFFFFFFF AND PUSH1 0xE0 SHL DUP2 MSTORE PUSH1 0x4 ADD PUSH2 0xD39 SWAP4 SWAP3 SWAP2 SWAP1 PUSH2 0x2CC1 JUMP JUMPDEST PUSH1 0x20 PUSH1 0x40 MLOAD DUP1 DUP4 SUB DUP2 PUSH0 DUP8 GAS CALL ISZERO DUP1 ISZERO PUSH2 0xD55 JUMPI RETURNDATASIZE PUSH0 PUSH0 RETURNDATACOPY RETURNDATASIZE PUSH0 REVERT JUMPDEST POP POP POP POP PUSH1 0x40 MLOAD RETURNDATASIZE PUSH1 0x1F NOT PUSH1 0x1F DUP3 ADD AND DUP3 ADD DUP1 PUSH1 0x40 MSTORE POP DUP2 ADD SWAP1 PUSH2 0xD79 SWAP2 SWAP1 PUSH2 0x2D20 JUMP JUMPDEST PUSH2 0xDB8 JUMPI PUSH1 0x40 MLOAD PUSH32 0x8C379A000000000000000000000000000000000000000000000000000000000 DUP2 MSTORE PUSH1 0x4 ADD PUSH2 0xDAF SWAP1 PUSH2 0x2D95 JUMP JUMPDEST PUSH1 0x40 MLOAD DUP1 SWAP2 SUB SWAP1 REVERT JUMPDEST DUP4 PUSH20 0xFFFFFFFFFFFFFFFFFFFFFFFFFFFFFFFFFFFFFFFF AND PUSH4 0xA9059CBB DUP10 DUP4 PUSH1 0x40 MLOAD DUP4 PUSH4 0xFFFFFFFF AND PUSH1 0xE0 SHL DUP2 MSTORE PUSH1 0x4 ADD PUSH2 0xDF3 SWAP3 SWAP2 SWAP1 PUSH2 0x2DB3 JUMP JUMPDEST PUSH1 0x20 PUSH1 0x40 MLOAD DUP1 DUP4 SUB DUP2 PUSH0 DUP8 GAS CALL ISZERO DUP1 ISZERO PUSH2 0xE0F JUMPI RETURNDATASIZE PUSH0 PUSH0 RETURNDATACOPY RETURNDATASIZE PUSH0 REVERT JUMPDEST POP POP POP POP PUSH1 0x40 MLOAD RETURNDATASIZE PUSH1 0x1F NOT PUSH1 0x1F DUP3 ADD AND DUP3 ADD DUP1 PUSH1 0x40 MSTORE POP DUP2 ADD SWAP1 PUSH2 0xE33 SWAP2 SWAP1 PUSH2 0x2D20 JUMP JUMPDEST PUSH2 0xE72 JUMPI PUSH1 0x40 MLOAD PUSH32 0x8C379A000000000000000000000000000000000000000000000000000000000 DUP2 MSTORE PUSH1 0x4 ADD PUSH2 0xE69 SWAP1 PUSH2 0x2E24 JUMP JUMPDEST PUSH1 0x40 MLOAD DUP1 SWAP2 SUB SWAP1 REVERT JUMPDEST PUSH1 0x6 PUSH0 SWAP1 SLOAD SWAP1 PUSH2 0x100 EXP SWAP1 DIV PUSH20 0xFFFFFFFFFFFFFFFFFFFFFFFFFFFFFFFFFFFFFFFF AND PUSH20 0xFFFFFFFFFFFFFFFFFFFFFFFFFFFFFFFFFFFFFFFF AND DUP6 PUSH20 0xFFFFFFFFFFFFFFFFFFFFFFFFFFFFFFFFFFFFFFFF AND SUB PUSH2 0xEFB JUMPI DUP12 PUSH1 0x8 PUSH0 DUP3 DUP3 SLOAD PUSH2 0xED7 SWAP2 SWAP1 PUSH2 0x285B JUMP JUMPDEST SWAP3 POP POP DUP2 SWAP1 SSTORE POP DUP1 PUSH1 0x9 PUSH0 DUP3 DUP3 SLOAD PUSH2 0xEEF SWAP2 SWAP1 PUSH2 0x2A59 JUMP JUMPDEST SWAP3 POP POP DUP2 SWAP1 SSTORE POP PUSH2 0xF2C JUMP JUMPDEST DUP12 PUSH1 0x9 PUSH0 DUP3 DUP3 SLOAD PUSH2 0xF0C SWAP2 SWAP1 PUSH2 0x285B JUMP JUMPDEST SWAP3 POP POP DUP2 SWAP1 SSTORE POP DUP1 PUSH1 0x8 PUSH0 DUP3 DUP3 SLOAD PUSH2 0xF24 SWAP2 SWAP1 PUSH2 0x2A59 JUMP JUMPDEST SWAP3 POP POP DUP2 SWAP1 SSTORE POP JUMPDEST DUP4 PUSH20 0xFFFFFFFFFFFFFFFFFFFFFFFFFFFFFFFFFFFFFFFF AND DUP6 PUSH20 0xFFFFFFFFFFFFFFFFFFFFFFFFFFFFFFFFFFFFFFFF AND CALLER PUSH20 0xFFFFFFFFFFFFFFFFFFFFFFFFFFFFFFFFFFFFFFFF AND PUSH32 0xAD56699D0F375866EB895ED27203058A36A713382AADED78EB6B67DA266D4332 DUP16 DUP6 PUSH1 0x40 MLOAD PUSH2 0xFA2 SWAP3 SWAP2 SWAP1 PUSH2 0x22B6 JUMP JUMPDEST PUSH1 0x40 MLOAD DUP1 SWAP2 SUB SWAP1 LOG4 POP POP POP POP POP POP POP POP POP POP POP POP JUMP JUMPDEST PUSH1 0x7 PUSH0 SWAP1 SLOAD SWAP1 PUSH2 0x100 EXP SWAP1 DIV PUSH20 0xFFFFFFFFFFFFFFFFFFFFFFFFFFFFFFFFFFFFFFFF AND DUP2 JUMP JUMPDEST PUSH1 0x4 PUSH1 0x20 MSTORE DUP1 PUSH0 MSTORE PUSH1 0x40 PUSH0 KECCAK256 PUSH0 SWAP2 POP SWAP1 POP SLOAD DUP2 JUMP JUMPDEST PUSH1 0x1 DUP1 SLOAD PUSH2 0xFFF SWAP1 PUSH2 0x2959 JUMP JUMPDEST DUP1 PUSH1 0x1F ADD PUSH1 0x20 DUP1 SWAP2 DIV MUL PUSH1 0x20 ADD PUSH1 0x40 MLOAD SWAP1 DUP2 ADD PUSH1 0x40 MSTORE DUP1 SWAP3 SWAP2 SWAP1 DUP2 DUP2 MSTORE PUSH1 0x20 ADD DUP3 DUP1 SLOAD PUSH2 0x102B SWAP1 PUSH2 0x2959 JUMP JUMPDEST DUP1 ISZERO PUSH2 0x1076 JUMPI DUP1 PUSH1 0x1F LT PUSH2 0x104D JUMPI PUSH2 0x100 DUP1 DUP4 SLOAD DIV MUL DUP4 MSTORE SWAP2 PUSH1 0x20 ADD SWAP2 PUSH2 0x1076 JUMP JUMPDEST DUP3 ADD SWAP2 SWAP1 PUSH0 MSTORE PUSH1 0x20 PUSH0 KECCAK256 SWAP1 JUMPDEST DUP2 SLOAD DUP2 MSTORE SWAP1 PUSH1 0x1 ADD SWAP1 PUSH1 0x20 ADD DUP1 DUP4 GT PUSH2 0x1059 JUMPI DUP3 SWAP1 SUB PUSH1 0x1F AND DUP3 ADD SWAP2 JUMPDEST POP POP POP POP POP DUP2 JUMP JUMPDEST PUSH0 DUP2 PUSH1 0x4 PUSH0 CALLER PUSH20 0xFFFFFFFFFFFFFFFFFFFFFFFFFFFFFFFFFFFFFFFF AND PUSH20 0xFFFFFFFFFFFFFFFFFFFFFFFFFFFFFFFFFFFFFFFF AND DUP2 MSTORE PUSH1 0x20 ADD SWAP1 DUP2 MSTORE PUSH1 0x20 ADD PUSH0 KECCAK256 SLOAD LT ISZERO PUSH2 0x10FF JUMPI PUSH1 0x40 MLOAD PUSH32 0x8C379A000000000000000000000000000000000000000000000000000000000 DUP2 MSTORE PUSH1 0x4 ADD PUSH2 0x10F6 SWAP1 PUSH2 0x29D3 JUMP JUMPDEST PUSH1 0x40 MLOAD DUP1 SWAP2 SUB SWAP1 REVERT JUMPDEST DUP2 PUSH1 0x4 PUSH0 CALLER PUSH20 0xFFFFFFFFFFFFFFFFFFFFFFFFFFFFFFFFFFFFFFFF AND PUSH20 0xFFFFFFFFFFFFFFFFFFFFFFFFFFFFFFFFFFFFFFFF AND DUP2 MSTORE PUSH1 0x20 ADD SWAP1 DUP2 MSTORE PUSH1 0x20 ADD PUSH0 KECCAK256 PUSH0 DUP3 DUP3 SLOAD PUSH2 0x114B SWAP2 SWAP1 PUSH2 0x2A59 JUMP JUMPDEST SWAP3 POP POP DUP2 SWAP1 SSTORE POP DUP2 PUSH1 0x4 PUSH0 DUP6 PUSH20 0xFFFFFFFFFFFFFFFFFFFFFFFFFFFFFFFFFFFFFFFF AND PUSH20 0xFFFFFFFFFFFFFFFFFFFFFFFFFFFFFFFFFFFFFFFF AND DUP2 MSTORE PUSH1 0x20 ADD SWAP1 DUP2 MSTORE PUSH1 0x20 ADD PUSH0 KECCAK256 PUSH0 DUP3 DUP3 SLOAD PUSH2 0x119E SWAP2 SWAP1 PUSH2 0x285B JUMP JUMPDEST SWAP3 POP POP DUP2 SWAP1 SSTORE POP DUP3 PUSH20 0xFFFFFFFFFFFFFFFFFFFFFFFFFFFFFFFFFFFFFFFF AND CALLER PUSH20 0xFFFFFFFFFFFFFFFFFFFFFFFFFFFFFFFFFFFFFFFF AND PUSH32 0xDDF252AD1BE2C89B69C2B068FC378DAA952BA7F163C4A11628F55A4DF523B3EF DUP5 PUSH1 0x40 MLOAD PUSH2 0x1202 SWAP2 SWAP1 PUSH2 0x220D JUMP JUMPDEST PUSH1 0x40 MLOAD DUP1 SWAP2 SUB SWAP1 LOG3 PUSH1 0x1 SWAP1 POP SWAP3 SWAP2 POP POP JUMP JUMPDEST PUSH0 PUSH2 0x121F DUP4 DUP4 PUSH2 0x1D74 JUMP JUMPDEST PUSH2 0x125E JUMPI PUSH1 0x40 MLOAD PUSH32 0x8C379A000000000000000000000000000000000000000000000000000000000 DUP2 MSTORE PUSH1 0x4 ADD PUSH2 0x1255 SWAP1 PUSH2 0x2C3B JUMP JUMPDEST PUSH1 0x40 MLOAD DUP1 SWAP2 SUB SWAP1 REVERT JUMPDEST PUSH0 PUSH1 0x8 SLOAD GT DUP1 ISZERO PUSH2 0x1270 JUMPI POP PUSH0 PUSH1 0x9 SLOAD GT JUMPDEST PUSH2 0x12AF JUMPI PUSH1 0x40 MLOAD PUSH32 0x8C379A000000000000000000000000000000000000000000000000000000000 DUP2 MSTORE PUSH1 0x4 ADD PUSH2 0x12A6 SWAP1 PUSH2 0x2810 JUMP JUMPDEST PUSH1 0x40 MLOAD DUP1 SWAP2 SUB SWAP1 REVERT JUMPDEST PUSH1 0x6 PUSH0 SWAP1 SLOAD SWAP1 PUSH2 0x100 EXP SWAP1 DIV PUSH20 0xFFFFFFFFFFFFFFFFFFFFFFFFFFFFFFFFFFFFFFFF AND PUSH20 0xFFFFFFFFFFFFFFFFFFFFFFFFFFFFFFFFFFFFFFFF AND DUP4 PUSH20 0xFFFFFFFFFFFFFFFFFFFFFFFFFFFFFFFFFFFFFFFF AND SUB PUSH2 0x132D JUMPI PUSH1 0x8 SLOAD PUSH8 0xDE0B6B3A7640000 PUSH1 0x9 SLOAD PUSH2 0x131C SWAP2 SWAP1 PUSH2 0x288E JUMP JUMPDEST PUSH2 0x1326 SWAP2 SWAP1 PUSH2 0x28FC JUMP JUMPDEST SWAP1 POP PUSH2 0x1353 JUMP JUMPDEST PUSH1 0x9 SLOAD PUSH8 0xDE0B6B3A7640000 PUSH1 0x8 SLOAD PUSH2 0x1346 SWAP2 SWAP1 PUSH2 0x288E JUMP JUMPDEST PUSH2 0x1350 SWAP2 SWAP1 PUSH2 0x28FC JUMP JUMPDEST SWAP1 POP JUMPDEST SWAP3 SWAP2 POP POP JUMP JUMPDEST PUSH0 PUSH0 DUP3 TIMESTAMP DUP2 LT ISZERO PUSH2 0x139F JUMPI PUSH1 0x40 MLOAD PUSH32 0x8C379A000000000000000000000000000000000000000000000000000000000 DUP2 MSTORE PUSH1 0x4 ADD PUSH2 0x1396 SWAP1 PUSH2 0x2AD6 JUMP JUMPDEST PUSH1 0x40 MLOAD DUP1 SWAP2 SUB SWAP1 REVERT JUMPDEST PUSH2 0x13A9 DUP11 DUP11 PUSH2 0x1D74 JUMP JUMPDEST PUSH2 0x13E8 JUMPI PUSH1 0x40 MLOAD PUSH32 0x8C379A000000000000000000000000000000000000000000000000000000000 DUP2 MSTORE PUSH1 0x4 ADD PUSH2 0x13DF SWAP1 PUSH2 0x2C3B JUMP JUMPDEST PUSH1 0x40 MLOAD DUP1 SWAP2 SUB SWAP1 REVERT JUMPDEST PUSH0 PUSH20 0xFFFFFFFFFFFFFFFFFFFFFFFFFFFFFFFFFFFFFFFF AND DUP6 PUSH20 0xFFFFFFFFFFFFFFFFFFFFFFFFFFFFFFFFFFFFFFFF AND SUB PUSH2 0x1456 JUMPI PUSH1 0x40 MLOAD PUSH32 0x8C379A000000000000000000000000000000000000000000000000000000000 DUP2 MSTORE PUSH1 0x4 ADD PUSH2 0x144D SWAP1 PUSH2 0x2BA6 JUMP JUMPDEST PUSH1 0x40 MLOAD DUP1 SWAP2 SUB SWAP1 REVERT JUMPDEST PUSH0 DUP9 GT PUSH2 0x1498 JUMPI PUSH1 0x40 MLOAD PUSH32 0x8C379A000000000000000000000000000000000000000000000000000000000 DUP2 MSTORE PUSH1 0x4 ADD PUSH2 0x148F SWAP1 PUSH2 0x2E8C JUMP JUMPDEST PUSH1 0x40 MLOAD DUP1 SWAP2 SUB SWAP1 REVERT JUMPDEST DUP8 PUSH1 0x4 PUSH0 CALLER PUSH20 0xFFFFFFFFFFFFFFFFFFFFFFFFFFFFFFFFFFFFFFFF AND PUSH20 0xFFFFFFFFFFFFFFFFFFFFFFFFFFFFFFFFFFFFFFFF AND DUP2 MSTORE PUSH1 0x20 ADD SWAP1 DUP2 MSTORE PUSH1 0x20 ADD PUSH0 KECCAK256 SLOAD LT ISZERO PUSH2 0x1518 JUMPI PUSH1 0x40 MLOAD PUSH32 0x8C379A000000000000000000000000000000000000000000000000000000000 DUP2 MSTORE PUSH1 0x4 ADD PUSH2 0x150F SWAP1 PUSH2 0x2EF4 JUMP JUMPDEST PUSH1 0x40 MLOAD DUP1 SWAP2 SUB SWAP1 REVERT JUMPDEST PUSH1 0x3 SLOAD PUSH1 0x8 SLOAD DUP10 PUSH2 0x1529 SWAP2 SWAP1 PUSH2 0x288E JUMP JUMPDEST PUSH2 0x1533 SWAP2 SWAP1 PUSH2 0x28FC JUMP JUMPDEST SWAP3 POP PUSH1 0x3 SLOAD PUSH1 0x9 SLOAD DUP10 PUSH2 0x1546 SWAP2 SWAP1 PUSH2 0x288E JUMP JUMPDEST PUSH2 0x1550 SWAP2 SWAP1 PUSH2 0x28FC JUMP JUMPDEST SWAP2 POP DUP7 DUP4 LT ISZERO PUSH2 0x1595 JUMPI PUSH1 0x40 MLOAD PUSH32 0x8C379A000000000000000000000000000000000000000000000000000000000 DUP2 MSTORE PUSH1 0x4 ADD PUSH2 0x158C SWAP1 PUSH2 0x2F5C JUMP JUMPDEST PUSH1 0x40 MLOAD DUP1 SWAP2 SUB SWAP1 REVERT JUMPDEST DUP6 DUP3 LT ISZERO PUSH2 0x15D8 JUMPI PUSH1 0x40 MLOAD PUSH32 0x8C379A000000000000000000000000000000000000000000000000000000000 DUP2 MSTORE PUSH1 0x4 ADD PUSH2 0x15CF SWAP1 PUSH2 0x2FC4 JUMP JUMPDEST PUSH1 0x40 MLOAD DUP1 SWAP2 SUB SWAP1 REVERT JUMPDEST PUSH2 0x15E2 CALLER DUP10 PUSH2 0x1ED4 JUMP JUMPDEST DUP3 PUSH1 0x8 PUSH0 DUP3 DUP3 SLOAD PUSH2 0x15F3 SWAP2 SWAP1 PUSH2 0x2A59 JUMP JUMPDEST SWAP3 POP POP DUP2 SWAP1 SSTORE POP DUP2 PUSH1 0x9 PUSH0 DUP3 DUP3 SLOAD PUSH2 0x160B SWAP2 SWAP1 PUSH2 0x2A59 JUMP JUMPDEST SWAP3 POP POP DUP2 SWAP1 SSTORE POP DUP10 PUSH20 0xFFFFFFFFFFFFFFFFFFFFFFFFFFFFFFFFFFFFFFFF AND PUSH4 0xA9059CBB DUP7 DUP6 PUSH1 0x40 MLOAD DUP4 PUSH4 0xFFFFFFFF AND PUSH1 0xE0 SHL DUP2 MSTORE PUSH1 0x4 ADD PUSH2 0x164D SWAP3 SWAP2 SWAP1 PUSH2 0x2DB3 JUMP JUMPDEST PUSH1 0x20 PUSH1 0x40 MLOAD DUP1 DUP4 SUB DUP2 PUSH0 DUP8 GAS CALL ISZERO DUP1 ISZERO PUSH2 0x1669 JUMPI RETURNDATASIZE PUSH0 PUSH0 RETURNDATACOPY RETURNDATASIZE PUSH0 REVERT JUMPDEST POP POP POP POP PUSH1 0x40 MLOAD RETURNDATASIZE PUSH1 0x1F NOT PUSH1 0x1F DUP3 ADD AND DUP3 ADD DUP1 PUSH1 0x40 MSTORE POP DUP2 ADD SWAP1 PUSH2 0x168D SWAP2 SWAP1 PUSH2 0x2D20 JUMP JUMPDEST PUSH2 0x16CC JUMPI PUSH1 0x40 MLOAD PUSH32 0x8C379A000000000000000000000000000000000000000000000000000000000 DUP2 MSTORE PUSH1 0x4 ADD PUSH2 0x16C3 SWAP1 PUSH2 0x302C JUMP JUMPDEST PUSH1 0x40 MLOAD DUP1 SWAP2 SUB SWAP1 REVERT JUMPDEST DUP9 PUSH20 0xFFFFFFFFFFFFFFFFFFFFFFFFFFFFFFFFFFFFFFFF AND PUSH4 0xA9059CBB DUP7 DUP5 PUSH1 0x40 MLOAD DUP4 PUSH4 0xFFFFFFFF AND PUSH1 0xE0 SHL DUP2 MSTORE PUSH1 0x4 ADD PUSH2 0x1707 SWAP3 SWAP2 SWAP1 PUSH2 0x2DB3 JUMP JUMPDEST PUSH1 0x20 PUSH1 0x40 MLOAD DUP1 DUP4 SUB DUP2 PUSH0 DUP8 GAS CALL ISZERO DUP1 ISZERO PUSH2 0x1723 JUMPI RETURNDATASIZE PUSH0 PUSH0 RETURNDATACOPY RETURNDATASIZE PUSH0 REVERT JUMPDEST POP POP POP POP PUSH1 0x40 MLOAD RETURNDATASIZE PUSH1 0x1F NOT PUSH1 0x1F DUP3 ADD AND DUP3 ADD DUP1 PUSH1 0x40 MSTORE POP DUP2 ADD SWAP1 PUSH2 0x1747 SWAP2 SWAP1 PUSH2 0x2D20 JUMP JUMPDEST PUSH2 0x1786 JUMPI PUSH1 0x40 MLOAD PUSH32 0x8C379A000000000000000000000000000000000000000000000000000000000 DUP2 MSTORE PUSH1 0x4 ADD PUSH2 0x177D SWAP1 PUSH2 0x3094 JUMP JUMPDEST PUSH1 0x40 MLOAD DUP1 SWAP2 SUB SWAP1 REVERT JUMPDEST DUP5 PUSH20 0xFFFFFFFFFFFFFFFFFFFFFFFFFFFFFFFFFFFFFFFF AND PUSH32 0x1DC8BB69DF2B8E91FBDCBFCF93D951B3F0000F085A95FE3F7946D6161439245D DUP5 DUP5 DUP12 PUSH1 0x40 MLOAD PUSH2 0x17D0 SWAP4 SWAP3 SWAP2 SWAP1 PUSH2 0x2729 JUMP JUMPDEST PUSH1 0x40 MLOAD DUP1 SWAP2 SUB SWAP1 LOG2 POP SWAP8 POP SWAP8 SWAP6 POP POP POP POP POP POP JUMP JUMPDEST PUSH0 PUSH1 0x4 PUSH0 DUP4 PUSH20 0xFFFFFFFFFFFFFFFFFFFFFFFFFFFFFFFFFFFFFFFF AND PUSH20 0xFFFFFFFFFFFFFFFFFFFFFFFFFFFFFFFFFFFFFFFF AND DUP2 MSTORE PUSH1 0x20 ADD SWAP1 DUP2 MSTORE PUSH1 0x20 ADD PUSH0 KECCAK256 SLOAD SWAP1 POP SWAP2 SWAP1 POP JUMP JUMPDEST PUSH0 PUSH0 PUSH1 0x6 PUSH0 SWAP1 SLOAD SWAP1 PUSH2 0x100 EXP SWAP1 DIV PUSH20 0xFFFFFFFFFFFFFFFFFFFFFFFFFFFFFFFFFFFFFFFF AND SWAP2 POP PUSH1 0x7 PUSH0 SWAP1 SLOAD SWAP1 PUSH2 0x100 EXP SWAP1 DIV PUSH20 0xFFFFFFFFFFFFFFFFFFFFFFFFFFFFFFFFFFFFFFFF AND SWAP1 POP SWAP1 SWAP2 JUMP JUMPDEST PUSH1 0x8 SLOAD DUP2 JUMP JUMPDEST PUSH1 0x5 PUSH1 0x20 MSTORE DUP2 PUSH0 MSTORE PUSH1 0x40 PUSH0 KECCAK256 PUSH1 0x20 MSTORE DUP1 PUSH0 MSTORE PUSH1 0x40 PUSH0 KECCAK256 PUSH0 SWAP2 POP SWAP2 POP POP SLOAD DUP2 JUMP JUMPDEST PUSH0 PUSH0 PUSH0 DUP4 TIMESTAMP DUP2 LT ISZERO PUSH2 0x18E6 JUMPI PUSH1 0x40 MLOAD PUSH32 0x8C379A000000000000000000000000000000000000000000000000000000000 DUP2 MSTORE PUSH1 0x4 ADD PUSH2 0x18DD SWAP1 PUSH2 0x2AD6 JUMP JUMPDEST PUSH1 0x40 MLOAD DUP1 SWAP2 SUB SWAP1 REVERT JUMPDEST PUSH2 0x18F0 DUP13 DUP13 PUSH2 0x1D74 JUMP JUMPDEST PUSH2 0x192F JUMPI PUSH1 0x40 MLOAD PUSH32 0x8C379A000000000000000000000000000000000000000000000000000000000 DUP2 MSTORE PUSH1 0x4 ADD PUSH2 0x1926 SWAP1 PUSH2 0x2C3B JUMP JUMPDEST PUSH1 0x40 MLOAD DUP1 SWAP2 SUB SWAP1 REVERT JUMPDEST PUSH0 PUSH20 0xFFFFFFFFFFFFFFFFFFFFFFFFFFFFFFFFFFFFFFFF AND DUP7 PUSH20 0xFFFFFFFFFFFFFFFFFFFFFFFFFFFFFFFFFFFFFFFF AND SUB PUSH2 0x199D JUMPI PUSH1 0x40 MLOAD PUSH32 0x8C379A000000000000000000000000000000000000000000000000000000000 DUP2 MSTORE PUSH1 0x4 ADD PUSH2 0x1994 SWAP1 PUSH2 0x2BA6 JUMP JUMPDEST PUSH1 0x40 MLOAD DUP1 SWAP2 SUB SWAP1 REVERT JUMPDEST PUSH0 PUSH1 0x8 SLOAD EQ DUP1 ISZERO PUSH2 0x19AF JUMPI POP PUSH0 PUSH1 0x9 SLOAD EQ JUMPDEST ISZERO PUSH2 0x19BF JUMPI DUP10 SWAP4 POP DUP9 SWAP3 POP PUSH2 0x1AA9 JUMP JUMPDEST PUSH0 PUSH1 0x8 SLOAD PUSH1 0x9 SLOAD DUP13 PUSH2 0x19D1 SWAP2 SWAP1 PUSH2 0x288E JUMP JUMPDEST PUSH2 0x19DB SWAP2 SWAP1 PUSH2 0x28FC JUMP JUMPDEST SWAP1 POP DUP10 DUP2 GT PUSH2 0x1A32 JUMPI DUP8 DUP2 LT ISZERO PUSH2 0x1A27 JUMPI PUSH1 0x40 MLOAD PUSH32 0x8C379A000000000000000000000000000000000000000000000000000000000 DUP2 MSTORE PUSH1 0x4 ADD PUSH2 0x1A1E SWAP1 PUSH2 0x2FC4 JUMP JUMPDEST PUSH1 0x40 MLOAD DUP1 SWAP2 SUB SWAP1 REVERT JUMPDEST DUP11 SWAP5 POP DUP1 SWAP4 POP PUSH2 0x1AA7 JUMP JUMPDEST PUSH0 PUSH1 0x9 SLOAD PUSH1 0x8 SLOAD DUP13 PUSH2 0x1A44 SWAP2 SWAP1 PUSH2 0x288E JUMP JUMPDEST PUSH2 0x1A4E SWAP2 SWAP1 PUSH2 0x28FC JUMP JUMPDEST SWAP1 POP DUP12 DUP2 GT ISZERO DUP1 ISZERO PUSH2 0x1A60 JUMPI POP DUP10 DUP2 LT ISZERO JUMPDEST PUSH2 0x1A9F JUMPI PUSH1 0x40 MLOAD PUSH32 0x8C379A000000000000000000000000000000000000000000000000000000000 DUP2 MSTORE PUSH1 0x4 ADD PUSH2 0x1A96 SWAP1 PUSH2 0x2F5C JUMP JUMPDEST PUSH1 0x40 MLOAD DUP1 SWAP2 SUB SWAP1 REVERT JUMPDEST DUP1 SWAP6 POP DUP11 SWAP5 POP POP JUMPDEST POP JUMPDEST DUP12 PUSH20 0xFFFFFFFFFFFFFFFFFFFFFFFFFFFFFFFFFFFFFFFF AND PUSH4 0x23B872DD CALLER ADDRESS DUP8 PUSH1 0x40 MLOAD DUP5 PUSH4 0xFFFFFFFF AND PUSH1 0xE0 SHL DUP2 MSTORE PUSH1 0x4 ADD PUSH2 0x1AE6 SWAP4 SWAP3 SWAP2 SWAP1 PUSH2 0x2CC1 JUMP JUMPDEST PUSH1 0x20 PUSH1 0x40 MLOAD DUP1 DUP4 SUB DUP2 PUSH0 DUP8 GAS CALL ISZERO DUP1 ISZERO PUSH2 0x1B02 JUMPI RETURNDATASIZE PUSH0 PUSH0 RETURNDATACOPY RETURNDATASIZE PUSH0 REVERT JUMPDEST POP POP POP POP PUSH1 0x40 MLOAD RETURNDATASIZE PUSH1 0x1F NOT PUSH1 0x1F DUP3 ADD AND DUP3 ADD DUP1 PUSH1 0x40 MSTORE POP DUP2 ADD SWAP1 PUSH2 0x1B26 SWAP2 SWAP1 PUSH2 0x2D20 JUMP JUMPDEST PUSH2 0x1B65 JUMPI PUSH1 0x40 MLOAD PUSH32 0x8C379A000000000000000000000000000000000000000000000000000000000 DUP2 MSTORE PUSH1 0x4 ADD PUSH2 0x1B5C SWAP1 PUSH2 0x302C JUMP JUMPDEST PUSH1 0x40 MLOAD DUP1 SWAP2 SUB SWAP1 REVERT JUMPDEST DUP11 PUSH20 0xFFFFFFFFFFFFFFFFFFFFFFFFFFFFFFFFFFFFFFFF AND PUSH4 0x23B872DD CALLER ADDRESS DUP7 PUSH1 0x40 MLOAD DUP5 PUSH4 0xFFFFFFFF AND PUSH1 0xE0 SHL DUP2 MSTORE PUSH1 0x4 ADD PUSH2 0x1BA2 SWAP4 SWAP3 SWAP2 SWAP1 PUSH2 0x2CC1 JUMP JUMPDEST PUSH1 0x20 PUSH1 0x40 MLOAD DUP1 DUP4 SUB DUP2 PUSH0 DUP8 GAS CALL ISZERO DUP1 ISZERO PUSH2 0x1BBE JUMPI RETURNDATASIZE PUSH0 PUSH0 RETURNDATACOPY RETURNDATASIZE PUSH0 REVERT JUMPDEST POP POP POP POP PUSH1 0x40 MLOAD RETURNDATASIZE PUSH1 0x1F NOT PUSH1 0x1F DUP3 ADD AND DUP3 ADD DUP1 PUSH1 0x40 MSTORE POP DUP2 ADD SWAP1 PUSH2 0x1BE2 SWAP2 SWAP1 PUSH2 0x2D20 JUMP JUMPDEST PUSH2 0x1C21 JUMPI PUSH1 0x40 MLOAD PUSH32 0x8C379A000000000000000000000000000000000000000000000000000000000 DUP2 MSTORE PUSH1 0x4 ADD PUSH2 0x1C18 SWAP1 PUSH2 0x3094 JUMP JUMPDEST PUSH1 0x40 MLOAD DUP1 SWAP2 SUB SWAP1 REVERT JUMPDEST PUSH2 0x3E8 PUSH1 0x3 SLOAD SUB PUSH2 0x1C47 JUMPI PUSH2 0x1C40 DUP4 DUP6 PUSH2 0x1C3B SWAP2 SWAP1 PUSH2 0x288E JUMP JUMPDEST PUSH2 0x2028 JUMP JUMPDEST SWAP2 POP PUSH2 0x1C97 JUMP JUMPDEST PUSH0 PUSH1 0x8 SLOAD PUSH1 0x3 SLOAD DUP7 PUSH2 0x1C59 SWAP2 SWAP1 PUSH2 0x288E JUMP JUMPDEST PUSH2 0x1C63 SWAP2 SWAP1 PUSH2 0x28FC JUMP JUMPDEST SWAP1 POP PUSH0 PUSH1 0x9 SLOAD PUSH1 0x3 SLOAD DUP7 PUSH2 0x1C77 SWAP2 SWAP1 PUSH2 0x288E JUMP JUMPDEST PUSH2 0x1C81 SWAP2 SWAP1 PUSH2 0x28FC JUMP JUMPDEST SWAP1 POP DUP1 DUP3 LT PUSH2 0x1C90 JUMPI DUP1 PUSH2 0x1C92 JUMP JUMPDEST DUP2 JUMPDEST SWAP4 POP POP POP JUMPDEST PUSH0 DUP3 GT PUSH2 0x1CD9 JUMPI PUSH1 0x40 MLOAD PUSH32 0x8C379A000000000000000000000000000000000000000000000000000000000 DUP2 MSTORE PUSH1 0x4 ADD PUSH2 0x1CD0 SWAP1 PUSH2 0x30FC JUMP JUMPDEST PUSH1 0x40 MLOAD DUP1 SWAP2 SUB SWAP1 REVERT JUMPDEST DUP4 PUSH1 0x8 PUSH0 DUP3 DUP3 SLOAD PUSH2 0x1CEA SWAP2 SWAP1 PUSH2 0x285B JUMP JUMPDEST SWAP3 POP POP DUP2 SWAP1 SSTORE POP DUP3 PUSH1 0x9 PUSH0 DUP3 DUP3 SLOAD PUSH2 0x1D02 SWAP2 SWAP1 PUSH2 0x285B JUMP JUMPDEST SWAP3 POP POP DUP2 SWAP1 SSTORE POP PUSH2 0x1D13 DUP7 DUP4 PUSH2 0x209F JUMP JUMPDEST DUP6 PUSH20 0xFFFFFFFFFFFFFFFFFFFFFFFFFFFFFFFFFFFFFFFF AND PUSH32 0x64B83944E79C3CE8D4C297411DE637C3E102D064677AAC0C163976EBDCD6F50E DUP6 DUP6 DUP6 PUSH1 0x40 MLOAD PUSH2 0x1D5D SWAP4 SWAP3 SWAP2 SWAP1 PUSH2 0x2729 JUMP JUMPDEST PUSH1 0x40 MLOAD DUP1 SWAP2 SUB SWAP1 LOG2 POP SWAP9 POP SWAP9 POP SWAP9 SWAP6 POP POP POP POP POP POP JUMP JUMPDEST PUSH0 PUSH1 0x6 PUSH0 SWAP1 SLOAD SWAP1 PUSH2 0x100 EXP SWAP1 DIV PUSH20 0xFFFFFFFFFFFFFFFFFFFFFFFFFFFFFFFFFFFFFFFF AND PUSH20 0xFFFFFFFFFFFFFFFFFFFFFFFFFFFFFFFFFFFFFFFF AND DUP4 PUSH20 0xFFFFFFFFFFFFFFFFFFFFFFFFFFFFFFFFFFFFFFFF AND EQ DUP1 ISZERO PUSH2 0x1E1D JUMPI POP PUSH1 0x7 PUSH0 SWAP1 SLOAD SWAP1 PUSH2 0x100 EXP SWAP1 DIV PUSH20 0xFFFFFFFFFFFFFFFFFFFFFFFFFFFFFFFFFFFFFFFF AND PUSH20 0xFFFFFFFFFFFFFFFFFFFFFFFFFFFFFFFFFFFFFFFF AND DUP3 PUSH20 0xFFFFFFFFFFFFFFFFFFFFFFFFFFFFFFFFFFFFFFFF AND EQ JUMPDEST DUP1 PUSH2 0x1ECC JUMPI POP PUSH1 0x7 PUSH0 SWAP1 SLOAD SWAP1 PUSH2 0x100 EXP SWAP1 DIV PUSH20 0xFFFFFFFFFFFFFFFFFFFFFFFFFFFFFFFFFFFFFFFF AND PUSH20 0xFFFFFFFFFFFFFFFFFFFFFFFFFFFFFFFFFFFFFFFF AND DUP4 PUSH20 0xFFFFFFFFFFFFFFFFFFFFFFFFFFFFFFFFFFFFFFFF AND EQ DUP1 ISZERO PUSH2 0x1ECB JUMPI POP PUSH1 0x6 PUSH0 SWAP1 SLOAD SWAP1 PUSH2 0x100 EXP SWAP1 DIV PUSH20 0xFFFFFFFFFFFFFFFFFFFFFFFFFFFFFFFFFFFFFFFF AND PUSH20 0xFFFFFFFFFFFFFFFFFFFFFFFFFFFFFFFFFFFFFFFF AND DUP3 PUSH20 0xFFFFFFFFFFFFFFFFFFFFFFFFFFFFFFFFFFFFFFFF AND EQ JUMPDEST JUMPDEST SWAP1 POP SWAP3 SWAP2 POP POP JUMP JUMPDEST DUP1 PUSH1 0x4 PUSH0 DUP5 PUSH20 0xFFFFFFFFFFFFFFFFFFFFFFFFFFFFFFFFFFFFFFFF AND PUSH20 0xFFFFFFFFFFFFFFFFFFFFFFFFFFFFFFFFFFFFFFFF AND DUP2 MSTORE PUSH1 0x20 ADD SWAP1 DUP2 MSTORE PUSH1 0x20 ADD PUSH0 KECCAK256 SLOAD LT ISZERO PUSH2 0x1F54 JUMPI PUSH1 0x40 MLOAD PUSH32 0x8C379A000000000000000000000000000000000000000000000000000000000 DUP2 MSTORE PUSH1 0x4 ADD PUSH2 0x1F4B SWAP1 PUSH2 0x3164 JUMP JUMPDEST PUSH1 0x40 MLOAD DUP1 SWAP2 SUB SWAP1 REVERT JUMPDEST DUP1 PUSH1 0x4 PUSH0 DUP5 PUSH20 0xFFFFFFFFFFFFFFFFFFFFFFFFFFFFFFFFFFFFFFFF AND PUSH20 0xFFFFFFFFFFFFFFFFFFFFFFFFFFFFFFFFFFFFFFFF AND DUP2 MSTORE PUSH1 0x20 ADD SWAP1 DUP2 MSTORE PUSH1 0x20 ADD PUSH0 KECCAK256 PUSH0 DUP3 DUP3 SLOAD PUSH2 0x1FA0 SWAP2 SWAP1 PUSH2 0x2A59 JUMP JUMPDEST SWAP3 POP POP DUP2 SWAP1 SSTORE POP DUP1 PUSH1 0x3 PUSH0 DUP3 DUP3 SLOAD PUSH2 0x1FB8 SWAP2 SWAP1 PUSH2 0x2A59 JUMP JUMPDEST SWAP3 POP POP DUP2 SWAP1 SSTORE POP PUSH0 PUSH20 0xFFFFFFFFFFFFFFFFFFFFFFFFFFFFFFFFFFFFFFFF AND DUP3 PUSH20 0xFFFFFFFFFFFFFFFFFFFFFFFFFFFFFFFFFFFFFFFF AND PUSH32 0xDDF252AD1BE2C89B69C2B068FC378DAA952BA7F163C4A11628F55A4DF523B3EF DUP4 PUSH1 0x40 MLOAD PUSH2 0x201C SWAP2 SWAP1 PUSH2 0x220D JUMP JUMPDEST PUSH1 0x40 MLOAD DUP1 SWAP2 SUB SWAP1 LOG3 POP POP JUMP JUMPDEST PUSH0 PUSH1 0x3 DUP3 GT ISZERO PUSH2 0x208D JUMPI DUP2 SWAP1 POP PUSH0 PUSH1 0x1 PUSH1 0x2 DUP5 PUSH2 0x2045 SWAP2 SWAP1 PUSH2 0x28FC JUMP JUMPDEST PUSH2 0x204F SWAP2 SWAP1 PUSH2 0x285B JUMP JUMPDEST SWAP1 POP JUMPDEST DUP2 DUP2 LT ISZERO PUSH2 0x2087 JUMPI DUP1 SWAP2 POP PUSH1 0x2 DUP2 DUP3 DUP6 PUSH2 0x206C SWAP2 SWAP1 PUSH2 0x28FC JUMP JUMPDEST PUSH2 0x2076 SWAP2 SWAP1 PUSH2 0x285B JUMP JUMPDEST PUSH2 0x2080 SWAP2 SWAP1 PUSH2 0x28FC JUMP JUMPDEST SWAP1 POP PUSH2 0x2052 JUMP JUMPDEST POP PUSH2 0x209A JUMP JUMPDEST PUSH0 DUP3 EQ PUSH2 0x2099 JUMPI PUSH1 0x1 SWAP1 POP JUMPDEST JUMPDEST SWAP2 SWAP1 POP JUMP JUMPDEST DUP1 PUSH1 0x3 PUSH0 DUP3 DUP3 SLOAD PUSH2 0x20B0 SWAP2 SWAP1 PUSH2 0x285B JUMP JUMPDEST SWAP3 POP POP DUP2 SWAP1 SSTORE POP DUP1 PUSH1 0x4 PUSH0 DUP5 PUSH20 0xFFFFFFFFFFFFFFFFFFFFFFFFFFFFFFFFFFFFFFFF AND PUSH20 0xFFFFFFFFFFFFFFFFFFFFFFFFFFFFFFFFFFFFFFFF AND DUP2 MSTORE PUSH1 0x20 ADD SWAP1 DUP2 MSTORE PUSH1 0x20 ADD PUSH0 KECCAK256 PUSH0 DUP3 DUP3 SLOAD PUSH2 0x2103 SWAP2 SWAP1 PUSH2 0x285B JUMP JUMPDEST SWAP3 POP POP DUP2 SWAP1 SSTORE POP DUP2 PUSH20 0xFFFFFFFFFFFFFFFFFFFFFFFFFFFFFFFFFFFFFFFF AND PUSH0 PUSH20 0xFFFFFFFFFFFFFFFFFFFFFFFFFFFFFFFFFFFFFFFF AND PUSH32 0xDDF252AD1BE2C89B69C2B068FC378DAA952BA7F163C4A11628F55A4DF523B3EF DUP4 PUSH1 0x40 MLOAD PUSH2 0x2167 SWAP2 SWAP1 PUSH2 0x220D JUMP JUMPDEST PUSH1 0x40 MLOAD DUP1 SWAP2 SUB SWAP1 LOG3 POP POP JUMP JUMPDEST PUSH0 PUSH0 REVERT JUMPDEST PUSH0 PUSH0 REVERT JUMPDEST PUSH0 DUP2 SWAP1 POP SWAP2 SWAP1 POP JUMP JUMPDEST PUSH2 0x218D DUP2 PUSH2 0x217B JUMP JUMPDEST DUP2 EQ PUSH2 0x2197 JUMPI PUSH0 PUSH0 REVERT JUMPDEST POP JUMP JUMPDEST PUSH0 DUP2 CALLDATALOAD SWAP1 POP PUSH2 0x21A8 DUP2 PUSH2 0x2184 JUMP JUMPDEST SWAP3 SWAP2 POP POP JUMP JUMPDEST PUSH0 PUSH0 PUSH0 PUSH1 0x60 DUP5 DUP7 SUB SLT ISZERO PUSH2 0x21C5 JUMPI PUSH2 0x21C4 PUSH2 0x2173 JUMP JUMPDEST JUMPDEST PUSH0 PUSH2 0x21D2 DUP7 DUP3 DUP8 ADD PUSH2 0x219A JUMP JUMPDEST SWAP4 POP POP PUSH1 0x20 PUSH2 0x21E3 DUP7 DUP3 DUP8 ADD PUSH2 0x219A JUMP JUMPDEST SWAP3 POP POP PUSH1 0x40 PUSH2 0x21F4 DUP7 DUP3 DUP8 ADD PUSH2 0x219A JUMP JUMPDEST SWAP2 POP POP SWAP3 POP SWAP3 POP SWAP3 JUMP JUMPDEST PUSH2 0x2207 DUP2 PUSH2 0x217B JUMP JUMPDEST DUP3 MSTORE POP POP JUMP JUMPDEST PUSH0 PUSH1 0x20 DUP3 ADD SWAP1 POP PUSH2 0x2220 PUSH0 DUP4 ADD DUP5 PUSH2 0x21FE JUMP JUMPDEST SWAP3 SWAP2 POP POP JUMP JUMPDEST PUSH0 DUP2 MLOAD SWAP1 POP SWAP2 SWAP1 POP JUMP JUMPDEST PUSH0 DUP3 DUP3 MSTORE PUSH1 0x20 DUP3 ADD SWAP1 POP SWAP3 SWAP2 POP POP JUMP JUMPDEST DUP3 DUP2 DUP4 MCOPY PUSH0 DUP4 DUP4 ADD MSTORE POP POP POP JUMP JUMPDEST PUSH0 PUSH1 0x1F NOT PUSH1 0x1F DUP4 ADD AND SWAP1 POP SWAP2 SWAP1 POP JUMP JUMPDEST PUSH0 PUSH2 0x2268 DUP3 PUSH2 0x2226 JUMP JUMPDEST PUSH2 0x2272 DUP2 DUP6 PUSH2 0x2230 JUMP JUMPDEST SWAP4 POP PUSH2 0x2282 DUP2 DUP6 PUSH1 0x20 DUP7 ADD PUSH2 0x2240 JUMP JUMPDEST PUSH2 0x228B DUP2 PUSH2 0x224E JUMP JUMPDEST DUP5 ADD SWAP2 POP POP SWAP3 SWAP2 POP POP JUMP JUMPDEST PUSH0 PUSH1 0x20 DUP3 ADD SWAP1 POP DUP2 DUP2 SUB PUSH0 DUP4 ADD MSTORE PUSH2 0x22AE DUP2 DUP5 PUSH2 0x225E JUMP JUMPDEST SWAP1 POP SWAP3 SWAP2 POP POP JUMP JUMPDEST PUSH0 PUSH1 0x40 DUP3 ADD SWAP1 POP PUSH2 0x22C9 PUSH0 DUP4 ADD DUP6 PUSH2 0x21FE JUMP JUMPDEST PUSH2 0x22D6 PUSH1 0x20 DUP4 ADD DUP5 PUSH2 0x21FE JUMP JUMPDEST SWAP4 SWAP3 POP POP POP JUMP JUMPDEST PUSH0 PUSH20 0xFFFFFFFFFFFFFFFFFFFFFFFFFFFFFFFFFFFFFFFF DUP3 AND SWAP1 POP SWAP2 SWAP1 POP JUMP JUMPDEST PUSH0 PUSH2 0x2306 DUP3 PUSH2 0x22DD JUMP JUMPDEST SWAP1 POP SWAP2 SWAP1 POP JUMP JUMPDEST PUSH2 0x2316 DUP2 PUSH2 0x22FC JUMP JUMPDEST DUP2 EQ PUSH2 0x2320 JUMPI PUSH0 PUSH0 REVERT JUMPDEST POP JUMP JUMPDEST PUSH0 DUP2 CALLDATALOAD SWAP1 POP PUSH2 0x2331 DUP2 PUSH2 0x230D JUMP JUMPDEST SWAP3 SWAP2 POP POP JUMP JUMPDEST PUSH0 PUSH0 PUSH1 0x40 DUP4 DUP6 SUB SLT ISZERO PUSH2 0x234D JUMPI PUSH2 0x234C PUSH2 0x2173 JUMP JUMPDEST JUMPDEST PUSH0 PUSH2 0x235A DUP6 DUP3 DUP7 ADD PUSH2 0x2323 JUMP JUMPDEST SWAP3 POP POP PUSH1 0x20 PUSH2 0x236B DUP6 DUP3 DUP7 ADD PUSH2 0x219A JUMP JUMPDEST SWAP2 POP POP SWAP3 POP SWAP3 SWAP1 POP JUMP JUMPDEST PUSH0 DUP2 ISZERO ISZERO SWAP1 POP SWAP2 SWAP1 POP JUMP JUMPDEST PUSH2 0x2389 DUP2 PUSH2 0x2375 JUMP JUMPDEST DUP3 MSTORE POP POP JUMP JUMPDEST PUSH0 PUSH1 0x20 DUP3 ADD SWAP1 POP PUSH2 0x23A2 PUSH0 DUP4 ADD DUP5 PUSH2 0x2380 JUMP JUMPDEST SWAP3 SWAP2 POP POP JUMP JUMPDEST PUSH2 0x23B1 DUP2 PUSH2 0x22FC JUMP JUMPDEST DUP3 MSTORE POP POP JUMP JUMPDEST PUSH0 PUSH1 0x20 DUP3 ADD SWAP1 POP PUSH2 0x23CA PUSH0 DUP4 ADD DUP5 PUSH2 0x23A8 JUMP JUMPDEST SWAP3 SWAP2 POP POP JUMP JUMPDEST PUSH0 PUSH0 PUSH0 PUSH1 0x60 DUP5 DUP7 SUB SLT ISZERO PUSH2 0x23E7 JUMPI PUSH2 0x23E6 PUSH2 0x2173 JUMP JUMPDEST JUMPDEST PUSH0 PUSH2 0x23F4 DUP7 DUP3 DUP8 ADD PUSH2 0x2323 JUMP JUMPDEST SWAP4 POP POP PUSH1 0x20 PUSH2 0x2405 DUP7 DUP3 DUP8 ADD PUSH2 0x2323 JUMP JUMPDEST SWAP3 POP POP PUSH1 0x40 PUSH2 0x2416 DUP7 DUP3 DUP8 ADD PUSH2 0x219A JUMP JUMPDEST SWAP2 POP POP SWAP3 POP SWAP3 POP SWAP3 JUMP JUMPDEST PUSH0 PUSH1 0xFF DUP3 AND SWAP1 POP SWAP2 SWAP1 POP JUMP JUMPDEST PUSH2 0x2435 DUP2 PUSH2 0x2420 JUMP JUMPDEST DUP3 MSTORE POP POP JUMP JUMPDEST PUSH0 PUSH1 0x20 DUP3 ADD SWAP1 POP PUSH2 0x244E PUSH0 DUP4 ADD DUP5 PUSH2 0x242C JUMP JUMPDEST SWAP3 SWAP2 POP POP JUMP JUMPDEST PUSH0 PUSH0 REVERT JUMPDEST PUSH0 PUSH0 REVERT JUMPDEST PUSH0 PUSH0 REVERT JUMPDEST PUSH0 PUSH0 DUP4 PUSH1 0x1F DUP5 ADD SLT PUSH2 0x2475 JUMPI PUSH2 0x2474 PUSH2 0x2454 JUMP JUMPDEST JUMPDEST DUP3 CALLDATALOAD SWAP1 POP PUSH8 0xFFFFFFFFFFFFFFFF DUP2 GT ISZERO PUSH2 0x2492 JUMPI PUSH2 0x2491 PUSH2 0x2458 JUMP JUMPDEST JUMPDEST PUSH1 0x20 DUP4 ADD SWAP2 POP DUP4 PUSH1 0x20 DUP3 MUL DUP4 ADD GT ISZERO PUSH2 0x24AE JUMPI PUSH2 0x24AD PUSH2 0x245C JUMP JUMPDEST JUMPDEST SWAP3 POP SWAP3 SWAP1 POP JUMP JUMPDEST PUSH0 PUSH0 PUSH0 PUSH0 PUSH0 PUSH0 PUSH1 0xA0 DUP8 DUP10 SUB SLT ISZERO PUSH2 0x24CF JUMPI PUSH2 0x24CE PUSH2 0x2173 JUMP JUMPDEST JUMPDEST PUSH0 PUSH2 0x24DC DUP10 DUP3 DUP11 ADD PUSH2 0x219A JUMP JUMPDEST SWAP7 POP POP PUSH1 0x20 PUSH2 0x24ED DUP10 DUP3 DUP11 ADD PUSH2 0x219A JUMP JUMPDEST SWAP6 POP POP PUSH1 0x40 DUP8 ADD CALLDATALOAD PUSH8 0xFFFFFFFFFFFFFFFF DUP2 GT ISZERO PUSH2 0x250E JUMPI PUSH2 0x250D PUSH2 0x2177 JUMP JUMPDEST JUMPDEST PUSH2 0x251A DUP10 DUP3 DUP11 ADD PUSH2 0x2460 JUMP JUMPDEST SWAP5 POP SWAP5 POP POP PUSH1 0x60 PUSH2 0x252D DUP10 DUP3 DUP11 ADD PUSH2 0x2323 JUMP JUMPDEST SWAP3 POP POP PUSH1 0x80 PUSH2 0x253E DUP10 DUP3 DUP11 ADD PUSH2 0x219A JUMP JUMPDEST SWAP2 POP POP SWAP3 SWAP6 POP SWAP3 SWAP6 POP SWAP3 SWAP6 JUMP JUMPDEST PUSH0 PUSH1 0x20 DUP3 DUP5 SUB SLT ISZERO PUSH2 0x2560 JUMPI PUSH2 0x255F PUSH2 0x2173 JUMP JUMPDEST JUMPDEST PUSH0 PUSH2 0x256D DUP5 DUP3 DUP6 ADD PUSH2 0x2323 JUMP JUMPDEST SWAP2 POP POP SWAP3 SWAP2 POP POP JUMP JUMPDEST PUSH0 PUSH0 PUSH1 0x40 DUP4 DUP6 SUB SLT ISZERO PUSH2 0x258C JUMPI PUSH2 0x258B PUSH2 0x2173 JUMP JUMPDEST JUMPDEST PUSH0 PUSH2 0x2599 DUP6 DUP3 DUP7 ADD PUSH2 0x2323 JUMP JUMPDEST SWAP3 POP POP PUSH1 0x20 PUSH2 0x25AA DUP6 DUP3 DUP7 ADD PUSH2 0x2323 JUMP JUMPDEST SWAP2 POP POP SWAP3 POP SWAP3 SWAP1 POP JUMP JUMPDEST PUSH0 PUSH0 PUSH0 PUSH0 PUSH0 PUSH0 PUSH0 PUSH1 0xE0 DUP9 DUP11 SUB SLT ISZERO PUSH2 0x25CF JUMPI PUSH2 0x25CE PUSH2 0x2173 JUMP JUMPDEST JUMPDEST PUSH0 PUSH2 0x25DC DUP11 DUP3 DUP12 ADD PUSH2 0x2323 JUMP JUMPDEST SWAP8 POP POP PUSH1 0x20 PUSH2 0x25ED DUP11 DUP3 DUP12 ADD PUSH2 0x2323 JUMP JUMPDEST SWAP7 POP POP PUSH1 0x40 PUSH2 0x25FE DUP11 DUP3 DUP12 ADD PUSH2 0x219A JUMP JUMPDEST SWAP6 POP POP PUSH1 0x60 PUSH2 0x260F DUP11 DUP3 DUP12 ADD PUSH2 0x219A JUMP JUMPDEST SWAP5 POP POP PUSH1 0x80 PUSH2 0x2620 DUP11 DUP3 DUP12 ADD PUSH2 0x219A JUMP JUMPDEST SWAP4 POP POP PUSH1 0xA0 PUSH2 0x2631 DUP11 DUP3 DUP12 ADD PUSH2 0x2323 JUMP JUMPDEST SWAP3 POP POP PUSH1 0xC0 PUSH2 0x2642 DUP11 DUP3 DUP12 ADD PUSH2 0x219A JUMP JUMPDEST SWAP2 POP POP SWAP3 SWAP6 SWAP9 SWAP2 SWAP5 SWAP8 POP SWAP3 SWAP6 POP JUMP JUMPDEST PUSH0 PUSH1 0x40 DUP3 ADD SWAP1 POP PUSH2 0x2664 PUSH0 DUP4 ADD DUP6 PUSH2 0x23A8 JUMP JUMPDEST PUSH2 0x2671 PUSH1 0x20 DUP4 ADD DUP5 PUSH2 0x23A8 JUMP JUMPDEST SWAP4 SWAP3 POP POP POP JUMP JUMPDEST PUSH0 PUSH0 PUSH0 PUSH0 PUSH0 PUSH0 PUSH0 PUSH0 PUSH2 0x100 DUP10 DUP12 SUB SLT ISZERO PUSH2 0x2695 JUMPI PUSH2 0x2694 PUSH2 0x2173 JUMP JUMPDEST JUMPDEST PUSH0 PUSH2 0x26A2 DUP12 DUP3 DUP13 ADD PUSH2 0x2323 JUMP JUMPDEST SWAP9 POP POP PUSH1 0x20 PUSH2 0x26B3 DUP12 DUP3 DUP13 ADD PUSH2 0x2323 JUMP JUMPDEST SWAP8 POP POP PUSH1 0x40 PUSH2 0x26C4 DUP12 DUP3 DUP13 ADD PUSH2 0x219A JUMP JUMPDEST SWAP7 POP POP PUSH1 0x60 PUSH2 0x26D5 DUP12 DUP3 DUP13 ADD PUSH2 0x219A JUMP JUMPDEST SWAP6 POP POP PUSH1 0x80 PUSH2 0x26E6 DUP12 DUP3 DUP13 ADD PUSH2 0x219A JUMP JUMPDEST SWAP5 POP POP PUSH1 0xA0 PUSH2 0x26F7 DUP12 DUP3 DUP13 ADD PUSH2 0x219A JUMP JUMPDEST SWAP4 POP POP PUSH1 0xC0 PUSH2 0x2708 DUP12 DUP3 DUP13 ADD PUSH2 0x2323 JUMP JUMPDEST SWAP3 POP POP PUSH1 0xE0 PUSH2 0x2719 DUP12 DUP3 DUP13 ADD PUSH2 0x219A JUMP JUMPDEST SWAP2 POP POP SWAP3 SWAP6 SWAP9 POP SWAP3 SWAP6 SWAP9 SWAP1 SWAP4 SWAP7 POP JUMP JUMPDEST PUSH0 PUSH1 0x60 DUP3 ADD SWAP1 POP PUSH2 0x273C PUSH0 DUP4 ADD DUP7 PUSH2 0x21FE JUMP JUMPDEST PUSH2 0x2749 PUSH1 0x20 DUP4 ADD DUP6 PUSH2 0x21FE JUMP JUMPDEST PUSH2 0x2756 PUSH1 0x40 DUP4 ADD DUP5 PUSH2 0x21FE JUMP JUMPDEST SWAP5 SWAP4 POP POP POP POP JUMP JUMPDEST PUSH32 0x496E73756666696369656E7420696E70757420616D6F756E7400000000000000 PUSH0 DUP3 ADD MSTORE POP JUMP JUMPDEST PUSH0 PUSH2 0x2792 PUSH1 0x19 DUP4 PUSH2 0x2230 JUMP JUMPDEST SWAP2 POP PUSH2 0x279D DUP3 PUSH2 0x275E JUMP JUMPDEST PUSH1 0x20 DUP3 ADD SWAP1 POP SWAP2 SWAP1 POP JUMP JUMPDEST PUSH0 PUSH1 0x20 DUP3 ADD SWAP1 POP DUP2 DUP2 SUB PUSH0 DUP4 ADD MSTORE PUSH2 0x27BF DUP2 PUSH2 0x2786 JUMP JUMPDEST SWAP1 POP SWAP2 SWAP1 POP JUMP JUMPDEST PUSH32 0x496E73756666696369656E742072657365727665730000000000000000000000 PUSH0 DUP3 ADD MSTORE POP JUMP JUMPDEST PUSH0 PUSH2 0x27FA PUSH1 0x15 DUP4 PUSH2 0x2230 JUMP JUMPDEST SWAP2 POP PUSH2 0x2805 DUP3 PUSH2 0x27C6 JUMP JUMPDEST PUSH1 0x20 DUP3 ADD SWAP1 POP SWAP2 SWAP1 POP JUMP JUMPDEST PUSH0 PUSH1 0x20 DUP3 ADD SWAP1 POP DUP2 DUP2 SUB PUSH0 DUP4 ADD MSTORE PUSH2 0x2827 DUP2 PUSH2 0x27EE JUMP JUMPDEST SWAP1 POP SWAP2 SWAP1 POP JUMP JUMPDEST PUSH32 0x4E487B7100000000000000000000000000000000000000000000000000000000 PUSH0 MSTORE PUSH1 0x11 PUSH1 0x4 MSTORE PUSH1 0x24 PUSH0 REVERT JUMPDEST PUSH0 PUSH2 0x2865 DUP3 PUSH2 0x217B JUMP JUMPDEST SWAP2 POP PUSH2 0x2870 DUP4 PUSH2 0x217B JUMP JUMPDEST SWAP3 POP DUP3 DUP3 ADD SWAP1 POP DUP1 DUP3 GT ISZERO PUSH2 0x2888 JUMPI PUSH2 0x2887 PUSH2 0x282E JUMP JUMPDEST JUMPDEST SWAP3 SWAP2 POP POP JUMP JUMPDEST PUSH0 PUSH2 0x2898 DUP3 PUSH2 0x217B JUMP JUMPDEST SWAP2 POP PUSH2 0x28A3 DUP4 PUSH2 0x217B JUMP JUMPDEST SWAP3 POP DUP3 DUP3 MUL PUSH2 0x28B1 DUP2 PUSH2 0x217B JUMP JUMPDEST SWAP2 POP DUP3 DUP3 DIV DUP5 EQ DUP4 ISZERO OR PUSH2 0x28C8 JUMPI PUSH2 0x28C7 PUSH2 0x282E JUMP JUMPDEST JUMPDEST POP SWAP3 SWAP2 POP POP JUMP JUMPDEST PUSH32 0x4E487B7100000000000000000000000000000000000000000000000000000000 PUSH0 MSTORE PUSH1 0x12 PUSH1 0x4 MSTORE PUSH1 0x24 PUSH0 REVERT JUMPDEST PUSH0 PUSH2 0x2906 DUP3 PUSH2 0x217B JUMP JUMPDEST SWAP2 POP PUSH2 0x2911 DUP4 PUSH2 0x217B JUMP JUMPDEST SWAP3 POP DUP3 PUSH2 0x2921 JUMPI PUSH2 0x2920 PUSH2 0x28CF JUMP JUMPDEST JUMPDEST DUP3 DUP3 DIV SWAP1 POP SWAP3 SWAP2 POP POP JUMP JUMPDEST PUSH32 0x4E487B7100000000000000000000000000000000000000000000000000000000 PUSH0 MSTORE PUSH1 0x22 PUSH1 0x4 MSTORE PUSH1 0x24 PUSH0 REVERT JUMPDEST PUSH0 PUSH1 0x2 DUP3 DIV SWAP1 POP PUSH1 0x1 DUP3 AND DUP1 PUSH2 0x2970 JUMPI PUSH1 0x7F DUP3 AND SWAP2 POP JUMPDEST PUSH1 0x20 DUP3 LT DUP2 SUB PUSH2 0x2983 JUMPI PUSH2 0x2982 PUSH2 0x292C JUMP JUMPDEST JUMPDEST POP SWAP2 SWAP1 POP JUMP JUMPDEST PUSH32 0x496E73756666696369656E742062616C616E6365000000000000000000000000 PUSH0 DUP3 ADD MSTORE POP JUMP JUMPDEST PUSH0 PUSH2 0x29BD PUSH1 0x14 DUP4 PUSH2 0x2230 JUMP JUMPDEST SWAP2 POP PUSH2 0x29C8 DUP3 PUSH2 0x2989 JUMP JUMPDEST PUSH1 0x20 DUP3 ADD SWAP1 POP SWAP2 SWAP1 POP JUMP JUMPDEST PUSH0 PUSH1 0x20 DUP3 ADD SWAP1 POP DUP2 DUP2 SUB PUSH0 DUP4 ADD MSTORE PUSH2 0x29EA DUP2 PUSH2 0x29B1 JUMP JUMPDEST SWAP1 POP SWAP2 SWAP1 POP JUMP JUMPDEST PUSH32 0x496E73756666696369656E7420616C6C6F77616E636500000000000000000000 PUSH0 DUP3 ADD MSTORE POP JUMP JUMPDEST PUSH0 PUSH2 0x2A25 PUSH1 0x16 DUP4 PUSH2 0x2230 JUMP JUMPDEST SWAP2 POP PUSH2 0x2A30 DUP3 PUSH2 0x29F1 JUMP JUMPDEST PUSH1 0x20 DUP3 ADD SWAP1 POP SWAP2 SWAP1 POP JUMP JUMPDEST PUSH0 PUSH1 0x20 DUP3 ADD SWAP1 POP DUP2 DUP2 SUB PUSH0 DUP4 ADD MSTORE PUSH2 0x2A52 DUP2 PUSH2 0x2A19 JUMP JUMPDEST SWAP1 POP SWAP2 SWAP1 POP JUMP JUMPDEST PUSH0 PUSH2 0x2A63 DUP3 PUSH2 0x217B JUMP JUMPDEST SWAP2 POP PUSH2 0x2A6E DUP4 PUSH2 0x217B JUMP JUMPDEST SWAP3 POP DUP3 DUP3 SUB SWAP1 POP DUP2 DUP2 GT ISZERO PUSH2 0x2A86 JUMPI PUSH2 0x2A85 PUSH2 0x282E JUMP JUMPDEST JUMPDEST SWAP3 SWAP2 POP POP JUMP JUMPDEST PUSH32 0x5472616E73616374696F6E206578706972656400000000000000000000000000 PUSH0 DUP3 ADD MSTORE POP JUMP JUMPDEST PUSH0 PUSH2 0x2AC0 PUSH1 0x13 DUP4 PUSH2 0x2230 JUMP JUMPDEST SWAP2 POP PUSH2 0x2ACB DUP3 PUSH2 0x2A8C JUMP JUMPDEST PUSH1 0x20 DUP3 ADD SWAP1 POP SWAP2 SWAP1 POP JUMP JUMPDEST PUSH0 PUSH1 0x20 DUP3 ADD SWAP1 POP DUP2 DUP2 SUB PUSH0 DUP4 ADD MSTORE PUSH2 0x2AED DUP2 PUSH2 0x2AB4 JUMP JUMPDEST SWAP1 POP SWAP2 SWAP1 POP JUMP JUMPDEST PUSH32 0x496E76616C696420706174680000000000000000000000000000000000000000 PUSH0 DUP3 ADD MSTORE POP JUMP JUMPDEST PUSH0 PUSH2 0x2B28 PUSH1 0xC DUP4 PUSH2 0x2230 JUMP JUMPDEST SWAP2 POP PUSH2 0x2B33 DUP3 PUSH2 0x2AF4 JUMP JUMPDEST PUSH1 0x20 DUP3 ADD SWAP1 POP SWAP2 SWAP1 POP JUMP JUMPDEST PUSH0 PUSH1 0x20 DUP3 ADD SWAP1 POP DUP2 DUP2 SUB PUSH0 DUP4 ADD MSTORE PUSH2 0x2B55 DUP2 PUSH2 0x2B1C JUMP JUMPDEST SWAP1 POP SWAP2 SWAP1 POP JUMP JUMPDEST PUSH32 0x496E76616C696420726563697069656E74000000000000000000000000000000 PUSH0 DUP3 ADD MSTORE POP JUMP JUMPDEST PUSH0 PUSH2 0x2B90 PUSH1 0x11 DUP4 PUSH2 0x2230 JUMP JUMPDEST SWAP2 POP PUSH2 0x2B9B DUP3 PUSH2 0x2B5C JUMP JUMPDEST PUSH1 0x20 DUP3 ADD SWAP1 POP SWAP2 SWAP1 POP JUMP JUMPDEST PUSH0 PUSH1 0x20 DUP3 ADD SWAP1 POP DUP2 DUP2 SUB PUSH0 DUP4 ADD MSTORE PUSH2 0x2BBD DUP2 PUSH2 0x2B84 JUMP JUMPDEST SWAP1 POP SWAP2 SWAP1 POP JUMP JUMPDEST PUSH32 0x4E487B7100000000000000000000000000000000000000000000000000000000 PUSH0 MSTORE PUSH1 0x32 PUSH1 0x4 MSTORE PUSH1 0x24 PUSH0 REVERT JUMPDEST PUSH32 0x496E76616C696420746F6B656E20706169720000000000000000000000000000 PUSH0 DUP3 ADD MSTORE POP JUMP JUMPDEST PUSH0 PUSH2 0x2C25 PUSH1 0x12 DUP4 PUSH2 0x2230 JUMP JUMPDEST SWAP2 POP PUSH2 0x2C30 DUP3 PUSH2 0x2BF1 JUMP JUMPDEST PUSH1 0x20 DUP3 ADD SWAP1 POP SWAP2 SWAP1 POP JUMP JUMPDEST PUSH0 PUSH1 0x20 DUP3 ADD SWAP1 POP DUP2 DUP2 SUB PUSH0 DUP4 ADD MSTORE PUSH2 0x2C52 DUP2 PUSH2 0x2C19 JUMP JUMPDEST SWAP1 POP SWAP2 SWAP1 POP JUMP JUMPDEST PUSH32 0x496E73756666696369656E74206F757470757420616D6F756E74000000000000 PUSH0 DUP3 ADD MSTORE POP JUMP JUMPDEST PUSH0 PUSH2 0x2C8D PUSH1 0x1A DUP4 PUSH2 0x2230 JUMP JUMPDEST SWAP2 POP PUSH2 0x2C98 DUP3 PUSH2 0x2C59 JUMP JUMPDEST PUSH1 0x20 DUP3 ADD SWAP1 POP SWAP2 SWAP1 POP JUMP JUMPDEST PUSH0 PUSH1 0x20 DUP3 ADD SWAP1 POP DUP2 DUP2 SUB PUSH0 DUP4 ADD MSTORE PUSH2 0x2CBA DUP2 PUSH2 0x2C81 JUMP JUMPDEST SWAP1 POP SWAP2 SWAP1 POP JUMP JUMPDEST PUSH0 PUSH1 0x60 DUP3 ADD SWAP1 POP PUSH2 0x2CD4 PUSH0 DUP4 ADD DUP7 PUSH2 0x23A8 JUMP JUMPDEST PUSH2 0x2CE1 PUSH1 0x20 DUP4 ADD DUP6 PUSH2 0x23A8 JUMP JUMPDEST PUSH2 0x2CEE PUSH1 0x40 DUP4 ADD DUP5 PUSH2 0x21FE JUMP JUMPDEST SWAP5 SWAP4 POP POP POP POP JUMP JUMPDEST PUSH2 0x2CFF DUP2 PUSH2 0x2375 JUMP JUMPDEST DUP2 EQ PUSH2 0x2D09 JUMPI PUSH0 PUSH0 REVERT JUMPDEST POP JUMP JUMPDEST PUSH0 DUP2 MLOAD SWAP1 POP PUSH2 0x2D1A DUP2 PUSH2 0x2CF6 JUMP JUMPDEST SWAP3 SWAP2 POP POP JUMP JUMPDEST PUSH0 PUSH1 0x20 DUP3 DUP5 SUB SLT ISZERO PUSH2 0x2D35 JUMPI PUSH2 0x2D34 PUSH2 0x2173 JUMP JUMPDEST JUMPDEST PUSH0 PUSH2 0x2D42 DUP5 DUP3 DUP6 ADD PUSH2 0x2D0C JUMP JUMPDEST SWAP2 POP POP SWAP3 SWAP2 POP POP JUMP JUMPDEST PUSH32 0x496E707574207472616E73666572206661696C65640000000000000000000000 PUSH0 DUP3 ADD MSTORE POP JUMP JUMPDEST PUSH0 PUSH2 0x2D7F PUSH1 0x15 DUP4 PUSH2 0x2230 JUMP JUMPDEST SWAP2 POP PUSH2 0x2D8A DUP3 PUSH2 0x2D4B JUMP JUMPDEST PUSH1 0x20 DUP3 ADD SWAP1 POP SWAP2 SWAP1 POP JUMP JUMPDEST PUSH0 PUSH1 0x20 DUP3 ADD SWAP1 POP DUP2 DUP2 SUB PUSH0 DUP4 ADD MSTORE PUSH2 0x2DAC DUP2 PUSH2 0x2D73 JUMP JUMPDEST SWAP1 POP SWAP2 SWAP1 POP JUMP JUMPDEST PUSH0 PUSH1 0x40 DUP3 ADD SWAP1 POP PUSH2 0x2DC6 PUSH0 DUP4 ADD DUP6 PUSH2 0x23A8 JUMP JUMPDEST PUSH2 0x2DD3 PUSH1 0x20 DUP4 ADD DUP5 PUSH2 0x21FE JUMP JUMPDEST SWAP4 SWAP3 POP POP POP JUMP JUMPDEST PUSH32 0x4F7574707574207472616E73666572206661696C656400000000000000000000 PUSH0 DUP3 ADD MSTORE POP JUMP JUMPDEST PUSH0 PUSH2 0x2E0E PUSH1 0x16 DUP4 PUSH2 0x2230 JUMP JUMPDEST SWAP2 POP PUSH2 0x2E19 DUP3 PUSH2 0x2DDA JUMP JUMPDEST PUSH1 0x20 DUP3 ADD SWAP1 POP SWAP2 SWAP1 POP JUMP JUMPDEST PUSH0 PUSH1 0x20 DUP3 ADD SWAP1 POP DUP2 DUP2 SUB PUSH0 DUP4 ADD MSTORE PUSH2 0x2E3B DUP2 PUSH2 0x2E02 JUMP JUMPDEST SWAP1 POP SWAP2 SWAP1 POP JUMP JUMPDEST PUSH32 0x5A65726F206C6971756964697479000000000000000000000000000000000000 PUSH0 DUP3 ADD MSTORE POP JUMP JUMPDEST PUSH0 PUSH2 0x2E76 PUSH1 0xE DUP4 PUSH2 0x2230 JUMP JUMPDEST SWAP2 POP PUSH2 0x2E81 DUP3 PUSH2 0x2E42 JUMP JUMPDEST PUSH1 0x20 DUP3 ADD SWAP1 POP SWAP2 SWAP1 POP JUMP JUMPDEST PUSH0 PUSH1 0x20 DUP3 ADD SWAP1 POP DUP2 DUP2 SUB PUSH0 DUP4 ADD MSTORE PUSH2 0x2EA3 DUP2 PUSH2 0x2E6A JUMP JUMPDEST SWAP1 POP SWAP2 SWAP1 POP JUMP JUMPDEST PUSH32 0x496E73756666696369656E74206C69717569646974792062616C616E63650000 PUSH0 DUP3 ADD MSTORE POP JUMP JUMPDEST PUSH0 PUSH2 0x2EDE PUSH1 0x1E DUP4 PUSH2 0x2230 JUMP JUMPDEST SWAP2 POP PUSH2 0x2EE9 DUP3 PUSH2 0x2EAA JUMP JUMPDEST PUSH1 0x20 DUP3 ADD SWAP1 POP SWAP2 SWAP1 POP JUMP JUMPDEST PUSH0 PUSH1 0x20 DUP3 ADD SWAP1 POP DUP2 DUP2 SUB PUSH0 DUP4 ADD MSTORE PUSH2 0x2F0B DUP2 PUSH2 0x2ED2 JUMP JUMPDEST SWAP1 POP SWAP2 SWAP1 POP JUMP JUMPDEST PUSH32 0x496E73756666696369656E74204120616D6F756E740000000000000000000000 PUSH0 DUP3 ADD MSTORE POP JUMP JUMPDEST PUSH0 PUSH2 0x2F46 PUSH1 0x15 DUP4 PUSH2 0x2230 JUMP JUMPDEST SWAP2 POP PUSH2 0x2F51 DUP3 PUSH2 0x2F12 JUMP JUMPDEST PUSH1 0x20 DUP3 ADD SWAP1 POP SWAP2 SWAP1 POP JUMP JUMPDEST PUSH0 PUSH1 0x20 DUP3 ADD SWAP1 POP DUP2 DUP2 SUB PUSH0 DUP4 ADD MSTORE PUSH2 0x2F73 DUP2 PUSH2 0x2F3A JUMP JUMPDEST SWAP1 POP SWAP2 SWAP1 POP JUMP JUMPDEST PUSH32 0x496E73756666696369656E74204220616D6F756E740000000000000000000000 PUSH0 DUP3 ADD MSTORE POP JUMP JUMPDEST PUSH0 PUSH2 0x2FAE PUSH1 0x15 DUP4 PUSH2 0x2230 JUMP JUMPDEST SWAP2 POP PUSH2 0x2FB9 DUP3 PUSH2 0x2F7A JUMP JUMPDEST PUSH1 0x20 DUP3 ADD SWAP1 POP SWAP2 SWAP1 POP JUMP JUMPDEST PUSH0 PUSH1 0x20 DUP3 ADD SWAP1 POP DUP2 DUP2 SUB PUSH0 DUP4 ADD MSTORE PUSH2 0x2FDB DUP2 PUSH2 0x2FA2 JUMP JUMPDEST SWAP1 POP SWAP2 SWAP1 POP JUMP JUMPDEST PUSH32 0x5472616E736665722041206661696C6564000000000000000000000000000000 PUSH0 DUP3 ADD MSTORE POP JUMP JUMPDEST PUSH0 PUSH2 0x3016 PUSH1 0x11 DUP4 PUSH2 0x2230 JUMP JUMPDEST SWAP2 POP PUSH2 0x3021 DUP3 PUSH2 0x2FE2 JUMP JUMPDEST PUSH1 0x20 DUP3 ADD SWAP1 POP SWAP2 SWAP1 POP JUMP JUMPDEST PUSH0 PUSH1 0x20 DUP3 ADD SWAP1 POP DUP2 DUP2 SUB PUSH0 DUP4 ADD MSTORE PUSH2 0x3043 DUP2 PUSH2 0x300A JUMP JUMPDEST SWAP1 POP SWAP2 SWAP1 POP JUMP JUMPDEST PUSH32 0x5472616E736665722042206661696C6564000000000000000000000000000000 PUSH0 DUP3 ADD MSTORE POP JUMP JUMPDEST PUSH0 PUSH2 0x307E PUSH1 0x11 DUP4 PUSH2 0x2230 JUMP JUMPDEST SWAP2 POP PUSH2 0x3089 DUP3 PUSH2 0x304A JUMP JUMPDEST PUSH1 0x20 DUP3 ADD SWAP1 POP SWAP2 SWAP1 POP JUMP JUMPDEST PUSH0 PUSH1 0x20 DUP3 ADD SWAP1 POP DUP2 DUP2 SUB PUSH0 DUP4 ADD MSTORE PUSH2 0x30AB DUP2 PUSH2 0x3072 JUMP JUMPDEST SWAP1 POP SWAP2 SWAP1 POP JUMP JUMPDEST PUSH32 0x496E73756666696369656E74206C6971756964697479206D696E746564000000 PUSH0 DUP3 ADD MSTORE POP JUMP JUMPDEST PUSH0 PUSH2 0x30E6 PUSH1 0x1D DUP4 PUSH2 0x2230 JUMP JUMPDEST SWAP2 POP PUSH2 0x30F1 DUP3 PUSH2 0x30B2 JUMP JUMPDEST PUSH1 0x20 DUP3 ADD SWAP1 POP SWAP2 SWAP1 POP JUMP JUMPDEST PUSH0 PUSH1 0x20 DUP3 ADD SWAP1 POP DUP2 DUP2 SUB PUSH0 DUP4 ADD MSTORE PUSH2 0x3113 DUP2 PUSH2 0x30DA JUMP JUMPDEST SWAP1 POP SWAP2 SWAP1 POP JUMP JUMPDEST PUSH32 0x4275726E20657863656564732062616C616E6365000000000000000000000000 PUSH0 DUP3 ADD MSTORE POP JUMP JUMPDEST PUSH0 PUSH2 0x314E PUSH1 0x14 DUP4 PUSH2 0x2230 JUMP JUMPDEST SWAP2 POP PUSH2 0x3159 DUP3 PUSH2 0x311A JUMP JUMPDEST PUSH1 0x20 DUP3 ADD SWAP1 POP SWAP2 SWAP1 POP JUMP JUMPDEST PUSH0 PUSH1 0x20 DUP3 ADD SWAP1 POP DUP2 DUP2 SUB PUSH0 DUP4 ADD MSTORE PUSH2 0x317B DUP2 PUSH2 0x3142 JUMP JUMPDEST SWAP1 POP SWAP2 SWAP1 POP JUMP INVALID LOG2 PUSH5 0x6970667358 0x22 SLT KECCAK256 0xC7 RETF BASEFEE PUSH13 0x500F4367A3BDE4E6002538A31F CODESIZE SIGNEXTEND EXTSTATICCALL 0xCE 0x2D PUSH9 0x4B4CD9C16805FD8918 PUSH5 0x736F6C6343 STOP ADDMOD 0x1E STOP CALLER "
				},
				"gasEstimates": {
					"creation": {
						"codeDepositCost": "2545600",
						"executionCost": "infinite",
						"totalCost": "infinite"
					},
					"external": {
						"addLiquidity(address,address,uint256,uint256,uint256,uint256,address,uint256)": "infinite",
						"allowance(address,address)": "infinite",
						"approve(address,uint256)": "infinite",
						"balanceOf(address)": "2847",
						"decimals()": "2555",
						"getAmountOut(uint256,uint256,uint256)": "infinite",
						"getLiquidityShares(address)": "2873",
						"getPrice(address,address)": "infinite",
						"getReserves()": "infinite",
						"getSupportedTokens()": "infinite",
						"getTotalLiquidity()": "2543",
						"name()": "infinite",
						"removeLiquidity(address,address,uint256,uint256,uint256,address,uint256)": "infinite",
						"reserveA()": "2513",
						"reserveB()": "2470",
						"swapExactTokensForTokens(uint256,uint256,address[],address,uint256)": "infinite",
						"symbol()": "infinite",
						"tokenA()": "2620",
						"tokenB()": "2531",
						"totalSupply()": "2448",
						"transfer(address,uint256)": "infinite",
						"transferFrom(address,address,uint256)": "infinite"
					},
					"internal": {
						"_burn(address,uint256)": "infinite",
						"_isValidTokenPair(address,address)": "8713",
						"_mint(address,uint256)": "infinite",
						"_sqrt(uint256)": "infinite"
					}
				},
				"methodIdentifiers": {
					"addLiquidity(address,address,uint256,uint256,uint256,uint256,address,uint256)": "e8e33700",
					"allowance(address,address)": "dd62ed3e",
					"approve(address,uint256)": "095ea7b3",
					"balanceOf(address)": "70a08231",
					"decimals()": "313ce567",
					"getAmountOut(uint256,uint256,uint256)": "054d50d4",
					"getLiquidityShares(address)": "c8c0526e",
					"getPrice(address,address)": "ac41865a",
					"getReserves()": "0902f1ac",
					"getSupportedTokens()": "d3c7c2c7",
					"getTotalLiquidity()": "35c7e925",
					"name()": "06fdde03",
					"removeLiquidity(address,address,uint256,uint256,uint256,address,uint256)": "baa2abde",
					"reserveA()": "dc5fa6c5",
					"reserveB()": "19e36f3b",
					"swapExactTokensForTokens(uint256,uint256,address[],address,uint256)": "38ed1739",
					"symbol()": "95d89b41",
					"tokenA()": "0fc63d10",
					"tokenB()": "5f64b55b",
					"totalSupply()": "18160ddd",
					"transfer(address,uint256)": "a9059cbb",
					"transferFrom(address,address,uint256)": "23b872dd"
				}
			},
			"storageLayout": {
				"storage": [
					{
						"astId": 32,
						"contract": "SimpleSwap.sol:SimpleSwap",
						"label": "name",
						"offset": 0,
						"slot": "0",
						"type": "t_string_storage"
					},
					{
						"astId": 35,
						"contract": "SimpleSwap.sol:SimpleSwap",
						"label": "symbol",
						"offset": 0,
						"slot": "1",
						"type": "t_string_storage"
					},
					{
						"astId": 38,
						"contract": "SimpleSwap.sol:SimpleSwap",
						"label": "decimals",
						"offset": 0,
						"slot": "2",
						"type": "t_uint8"
					},
					{
						"astId": 40,
						"contract": "SimpleSwap.sol:SimpleSwap",
						"label": "totalSupply",
						"offset": 0,
						"slot": "3",
						"type": "t_uint256"
					},
					{
						"astId": 44,
						"contract": "SimpleSwap.sol:SimpleSwap",
						"label": "balanceOf",
						"offset": 0,
						"slot": "4",
						"type": "t_mapping(t_address,t_uint256)"
					},
					{
						"astId": 50,
						"contract": "SimpleSwap.sol:SimpleSwap",
						"label": "allowance",
						"offset": 0,
						"slot": "5",
						"type": "t_mapping(t_address,t_mapping(t_address,t_uint256))"
					},
					{
						"astId": 52,
						"contract": "SimpleSwap.sol:SimpleSwap",
						"label": "tokenA",
						"offset": 0,
						"slot": "6",
						"type": "t_address"
					},
					{
						"astId": 54,
						"contract": "SimpleSwap.sol:SimpleSwap",
						"label": "tokenB",
						"offset": 0,
						"slot": "7",
						"type": "t_address"
					},
					{
						"astId": 56,
						"contract": "SimpleSwap.sol:SimpleSwap",
						"label": "reserveA",
						"offset": 0,
						"slot": "8",
						"type": "t_uint256"
					},
					{
						"astId": 58,
						"contract": "SimpleSwap.sol:SimpleSwap",
						"label": "reserveB",
						"offset": 0,
						"slot": "9",
						"type": "t_uint256"
					}
				],
				"types": {
					"t_address": {
						"encoding": "inplace",
						"label": "address",
						"numberOfBytes": "20"
					},
					"t_mapping(t_address,t_mapping(t_address,t_uint256))": {
						"encoding": "mapping",
						"key": "t_address",
						"label": "mapping(address => mapping(address => uint256))",
						"numberOfBytes": "32",
						"value": "t_mapping(t_address,t_uint256)"
					},
					"t_mapping(t_address,t_uint256)": {
						"encoding": "mapping",
						"key": "t_address",
						"label": "mapping(address => uint256)",
						"numberOfBytes": "32",
						"value": "t_uint256"
					},
					"t_string_storage": {
						"encoding": "bytes",
						"label": "string",
						"numberOfBytes": "32"
					},
					"t_uint256": {
						"encoding": "inplace",
						"label": "uint256",
						"numberOfBytes": "32"
					},
					"t_uint8": {
						"encoding": "inplace",
						"label": "uint8",
						"numberOfBytes": "1"
					}
				}
			},
			"userdoc": {
				"kind": "user",
				"methods": {},
				"version": 1
			}
		}
	}
}