{
	"SimpleSwap.sol": {
		"SimpleSwap": {
			"abi": [
				{
					"inputs": [
						{
							"internalType": "address",
							"name": "_tokenEKA",
							"type": "address"
						},
						{
							"internalType": "address",
							"name": "_tokenEKB",
							"type": "address"
						}
					],
					"stateMutability": "nonpayable",
					"type": "constructor"
				},
				{
					"anonymous": false,
					"inputs": [
						{
							"indexed": true,
							"internalType": "address",
							"name": "provider",
							"type": "address"
						},
						{
							"indexed": false,
							"internalType": "uint256",
							"name": "amountA",
							"type": "uint256"
						},
						{
							"indexed": false,
							"internalType": "uint256",
							"name": "amountB",
							"type": "uint256"
						},
						{
							"indexed": false,
							"internalType": "uint256",
							"name": "liquidity",
							"type": "uint256"
						}
					],
					"name": "LiquidityAdded",
					"type": "event"
				},
				{
					"anonymous": false,
					"inputs": [
						{
							"indexed": true,
							"internalType": "address",
							"name": "provider",
							"type": "address"
						},
						{
							"indexed": false,
							"internalType": "uint256",
							"name": "amountA",
							"type": "uint256"
						},
						{
							"indexed": false,
							"internalType": "uint256",
							"name": "amountB",
							"type": "uint256"
						},
						{
							"indexed": false,
							"internalType": "uint256",
							"name": "liquidity",
							"type": "uint256"
						}
					],
					"name": "LiquidityRemoved",
					"type": "event"
				},
				{
					"anonymous": false,
					"inputs": [
						{
							"indexed": true,
							"internalType": "address",
							"name": "user",
							"type": "address"
						},
						{
							"indexed": true,
							"internalType": "address",
							"name": "tokenIn",
							"type": "address"
						},
						{
							"indexed": true,
							"internalType": "address",
							"name": "tokenOut",
							"type": "address"
						},
						{
							"indexed": false,
							"internalType": "uint256",
							"name": "amountIn",
							"type": "uint256"
						},
						{
							"indexed": false,
							"internalType": "uint256",
							"name": "amountOut",
							"type": "uint256"
						}
					],
					"name": "TokensSwapped",
					"type": "event"
				},
				{
					"inputs": [
						{
							"internalType": "address",
							"name": "tokenA",
							"type": "address"
						},
						{
							"internalType": "address",
							"name": "tokenB",
							"type": "address"
						},
						{
							"internalType": "uint256",
							"name": "amountADesired",
							"type": "uint256"
						},
						{
							"internalType": "uint256",
							"name": "amountBDesired",
							"type": "uint256"
						},
						{
							"internalType": "uint256",
							"name": "amountAMin",
							"type": "uint256"
						},
						{
							"internalType": "uint256",
							"name": "amountBMin",
							"type": "uint256"
						},
						{
							"internalType": "address",
							"name": "to",
							"type": "address"
						},
						{
							"internalType": "uint256",
							"name": "deadline",
							"type": "uint256"
						}
					],
					"name": "addLiquidity",
					"outputs": [
						{
							"internalType": "uint256",
							"name": "amountA",
							"type": "uint256"
						},
						{
							"internalType": "uint256",
							"name": "amountB",
							"type": "uint256"
						},
						{
							"internalType": "uint256",
							"name": "liquidity",
							"type": "uint256"
						}
					],
					"stateMutability": "nonpayable",
					"type": "function"
				},
				{
					"inputs": [
						{
							"internalType": "uint256",
							"name": "amountIn",
							"type": "uint256"
						},
						{
							"internalType": "uint256",
							"name": "reserveIn",
							"type": "uint256"
						},
						{
							"internalType": "uint256",
							"name": "reserveOut",
							"type": "uint256"
						}
					],
					"name": "getAmountOut",
					"outputs": [
						{
							"internalType": "uint256",
							"name": "amountOut",
							"type": "uint256"
						}
					],
					"stateMutability": "pure",
					"type": "function"
				},
				{
					"inputs": [
						{
							"internalType": "address",
							"name": "user",
							"type": "address"
						}
					],
					"name": "getLiquidityShares",
					"outputs": [
						{
							"internalType": "uint256",
							"name": "shares",
							"type": "uint256"
						}
					],
					"stateMutability": "view",
					"type": "function"
				},
				{
					"inputs": [
						{
							"internalType": "address",
							"name": "tokenA",
							"type": "address"
						},
						{
							"internalType": "address",
							"name": "tokenB",
							"type": "address"
						}
					],
					"name": "getPrice",
					"outputs": [
						{
							"internalType": "uint256",
							"name": "price",
							"type": "uint256"
						}
					],
					"stateMutability": "view",
					"type": "function"
				},
				{
					"inputs": [],
					"name": "getReserves",
					"outputs": [
						{
							"internalType": "uint256",
							"name": "_reserveEKA",
							"type": "uint256"
						},
						{
							"internalType": "uint256",
							"name": "_reserveEKB",
							"type": "uint256"
						}
					],
					"stateMutability": "view",
					"type": "function"
				},
				{
					"inputs": [],
					"name": "getTokenPair",
					"outputs": [
						{
							"internalType": "address",
							"name": "_tokenEKA",
							"type": "address"
						},
						{
							"internalType": "address",
							"name": "_tokenEKB",
							"type": "address"
						}
					],
					"stateMutability": "view",
					"type": "function"
				},
				{
					"inputs": [],
					"name": "getTotalLiquidity",
					"outputs": [
						{
							"internalType": "uint256",
							"name": "total",
							"type": "uint256"
						}
					],
					"stateMutability": "view",
					"type": "function"
				},
				{
					"inputs": [
						{
							"internalType": "address",
							"name": "",
							"type": "address"
						}
					],
					"name": "liquidityShares",
					"outputs": [
						{
							"internalType": "uint256",
							"name": "",
							"type": "uint256"
						}
					],
					"stateMutability": "view",
					"type": "function"
				},
				{
					"inputs": [
						{
							"internalType": "address",
							"name": "tokenA",
							"type": "address"
						},
						{
							"internalType": "address",
							"name": "tokenB",
							"type": "address"
						},
						{
							"internalType": "uint256",
							"name": "liquidity",
							"type": "uint256"
						},
						{
							"internalType": "uint256",
							"name": "amountAMin",
							"type": "uint256"
						},
						{
							"internalType": "uint256",
							"name": "amountBMin",
							"type": "uint256"
						},
						{
							"internalType": "address",
							"name": "to",
							"type": "address"
						},
						{
							"internalType": "uint256",
							"name": "deadline",
							"type": "uint256"
						}
					],
					"name": "removeLiquidity",
					"outputs": [
						{
							"internalType": "uint256",
							"name": "amountA",
							"type": "uint256"
						},
						{
							"internalType": "uint256",
							"name": "amountB",
							"type": "uint256"
						}
					],
					"stateMutability": "nonpayable",
					"type": "function"
				},
				{
					"inputs": [],
					"name": "reserveEKA",
					"outputs": [
						{
							"internalType": "uint256",
							"name": "",
							"type": "uint256"
						}
					],
					"stateMutability": "view",
					"type": "function"
				},
				{
					"inputs": [],
					"name": "reserveEKB",
					"outputs": [
						{
							"internalType": "uint256",
							"name": "",
							"type": "uint256"
						}
					],
					"stateMutability": "view",
					"type": "function"
				},
				{
					"inputs": [
						{
							"internalType": "uint256",
							"name": "amountIn",
							"type": "uint256"
						},
						{
							"internalType": "uint256",
							"name": "amountOutMin",
							"type": "uint256"
						},
						{
							"internalType": "address[]",
							"name": "path",
							"type": "address[]"
						},
						{
							"internalType": "address",
							"name": "to",
							"type": "address"
						},
						{
							"internalType": "uint256",
							"name": "deadline",
							"type": "uint256"
						}
					],
					"name": "swapExactTokensForTokens",
					"outputs": [
						{
							"internalType": "uint256[]",
							"name": "amounts",
							"type": "uint256[]"
						}
					],
					"stateMutability": "nonpayable",
					"type": "function"
				},
				{
					"inputs": [],
					"name": "tokenEKA",
					"outputs": [
						{
							"internalType": "address",
							"name": "",
							"type": "address"
						}
					],
					"stateMutability": "view",
					"type": "function"
				},
				{
					"inputs": [],
					"name": "tokenEKB",
					"outputs": [
						{
							"internalType": "address",
							"name": "",
							"type": "address"
						}
					],
					"stateMutability": "view",
					"type": "function"
				},
				{
					"inputs": [],
					"name": "totalLiquidity",
					"outputs": [
						{
							"internalType": "uint256",
							"name": "",
							"type": "uint256"
						}
					],
					"stateMutability": "view",
					"type": "function"
				}
			],
			"devdoc": {
				"kind": "dev",
				"methods": {
					"addLiquidity(address,address,uint256,uint256,uint256,uint256,address,uint256)": {
						"details": "Add liquidity to the ERC-20 token pair pool",
						"params": {
							"amountADesired": "Desired amount of tokenA to add",
							"amountAMin": "Minimum amount of tokenA to add (slippage protection)",
							"amountBDesired": "Desired amount of tokenB to add",
							"amountBMin": "Minimum amount of tokenB to add (slippage protection)",
							"deadline": "Transaction deadline timestamp",
							"to": "Address to receive the liquidity tokens",
							"tokenA": "Address of the first token",
							"tokenB": "Address of the second token"
						},
						"returns": {
							"amountA": "Actual amount of tokenA added",
							"amountB": "Actual amount of tokenB added",
							"liquidity": "Amount of liquidity tokens minted"
						}
					},
					"constructor": {
						"details": "Constructor to initialize the contract with EKA and EKB token addresses",
						"params": {
							"_tokenEKA": "Address of the EKA token",
							"_tokenEKB": "Address of the EKB token"
						}
					},
					"getAmountOut(uint256,uint256,uint256)": {
						"details": "Calculate the amount of output tokens for a given input amount",
						"params": {
							"amountIn": "Amount of input tokens",
							"reserveIn": "Reserve of input token in the pool",
							"reserveOut": "Reserve of output token in the pool"
						},
						"returns": {
							"amountOut": "Amount of output tokens to be received"
						}
					},
					"getLiquidityShares(address)": {
						"details": "Get liquidity shares of a specific address",
						"params": {
							"user": "Address to check"
						},
						"returns": {
							"shares": "Amount of liquidity shares owned by the user"
						}
					},
					"getPrice(address,address)": {
						"details": "Get the price of tokenA in terms of tokenB",
						"params": {
							"tokenA": "Address of the first token",
							"tokenB": "Address of the second token"
						},
						"returns": {
							"price": "Price of tokenA in terms of tokenB (with 18 decimals precision)"
						}
					},
					"getReserves()": {
						"details": "Get the current reserves of EKA and EKB tokens",
						"returns": {
							"_reserveEKA": "Current reserve of EKA token",
							"_reserveEKB": "Current reserve of EKB token"
						}
					},
					"getTokenPair()": {
						"details": "Get the addresses of the supported token pair",
						"returns": {
							"_tokenEKA": "Address of EKA token",
							"_tokenEKB": "Address of EKB token"
						}
					},
					"getTotalLiquidity()": {
						"details": "Get total liquidity in the pool",
						"returns": {
							"total": "Total amount of liquidity shares issued"
						}
					},
					"removeLiquidity(address,address,uint256,uint256,uint256,address,uint256)": {
						"details": "Remove liquidity from the ERC-20 token pair pool",
						"params": {
							"amountAMin": "Minimum amount of tokenA to receive (slippage protection)",
							"amountBMin": "Minimum amount of tokenB to receive (slippage protection)",
							"deadline": "Transaction deadline timestamp",
							"liquidity": "Amount of liquidity tokens to burn",
							"to": "Address to receive the tokens",
							"tokenA": "Address of the first token",
							"tokenB": "Address of the second token"
						},
						"returns": {
							"amountA": "Amount of tokenA received",
							"amountB": "Amount of tokenB received"
						}
					},
					"swapExactTokensForTokens(uint256,uint256,address[],address,uint256)": {
						"details": "Swap exact amount of input tokens for output tokens",
						"params": {
							"amountIn": "Amount of input tokens to swap",
							"amountOutMin": "Minimum amount of output tokens to receive (slippage protection)",
							"deadline": "Transaction deadline timestamp",
							"path": "Array of token addresses [tokenIn, tokenOut]",
							"to": "Address to receive the output tokens"
						},
						"returns": {
							"amounts": "Array containing [amountIn, amountOut]"
						}
					}
				},
				"version": 1
			},
			"evm": {
				"assembly": "    /* \"SimpleSwap.sol\":955:15908  contract SimpleSwap {... */\n  mstore(0x40, 0xc0)\n    /* \"SimpleSwap.sol\":2264:2551  constructor(address _tokenEKA, address _tokenEKB) {... */\n  callvalue\n  dup1\n  iszero\n  tag_1\n  jumpi\n  revert(0x00, 0x00)\ntag_1:\n  pop\n  mload(0x40)\n  sub(codesize, bytecodeSize)\n  dup1\n  bytecodeSize\n  dup4\n  codecopy\n  dup2\n  dup2\n  add\n  0x40\n  mstore\n  dup2\n  add\n  swap1\n  tag_2\n  swap2\n  swap1\n  tag_3\n  jump\t// in\ntag_2:\n    /* \"SimpleSwap.sol\":2354:2355  0 */\n  0x00\n    /* \"SimpleSwap.sol\":2333:2356  _tokenEKA != address(0) */\n  0xffffffffffffffffffffffffffffffffffffffff\n  and\n    /* \"SimpleSwap.sol\":2333:2342  _tokenEKA */\n  dup3\n    /* \"SimpleSwap.sol\":2333:2356  _tokenEKA != address(0) */\n  0xffffffffffffffffffffffffffffffffffffffff\n  and\n  eq\n  iszero\n    /* \"SimpleSwap.sol\":2333:2383  _tokenEKA != address(0) && _tokenEKB != address(0) */\n  dup1\n  iszero\n  tag_6\n  jumpi\n  pop\n    /* \"SimpleSwap.sol\":2381:2382  0 */\n  0x00\n    /* \"SimpleSwap.sol\":2360:2383  _tokenEKB != address(0) */\n  0xffffffffffffffffffffffffffffffffffffffff\n  and\n    /* \"SimpleSwap.sol\":2360:2369  _tokenEKB */\n  dup2\n    /* \"SimpleSwap.sol\":2360:2383  _tokenEKB != address(0) */\n  0xffffffffffffffffffffffffffffffffffffffff\n  and\n  eq\n  iszero\n    /* \"SimpleSwap.sol\":2333:2383  _tokenEKA != address(0) && _tokenEKB != address(0) */\ntag_6:\n    /* \"SimpleSwap.sol\":2325:2411  require(_tokenEKA != address(0) && _tokenEKB != address(0), \"Invalid token addresses\") */\n  tag_7\n  jumpi\n  mload(0x40)\n  0x08c379a000000000000000000000000000000000000000000000000000000000\n  dup2\n  mstore\n  0x04\n  add\n  tag_8\n  swap1\n  tag_9\n  jump\t// in\ntag_8:\n  mload(0x40)\n  dup1\n  swap2\n  sub\n  swap1\n  revert\ntag_7:\n    /* \"SimpleSwap.sol\":2443:2452  _tokenEKB */\n  dup1\n    /* \"SimpleSwap.sol\":2430:2452  _tokenEKA != _tokenEKB */\n  0xffffffffffffffffffffffffffffffffffffffff\n  and\n    /* \"SimpleSwap.sol\":2430:2439  _tokenEKA */\n  dup3\n    /* \"SimpleSwap.sol\":2430:2452  _tokenEKA != _tokenEKB */\n  0xffffffffffffffffffffffffffffffffffffffff\n  and\n  sub\n    /* \"SimpleSwap.sol\":2422:2481  require(_tokenEKA != _tokenEKB, \"Tokens must be different\") */\n  tag_10\n  jumpi\n  mload(0x40)\n  0x08c379a000000000000000000000000000000000000000000000000000000000\n  dup2\n  mstore\n  0x04\n  add\n  tag_11\n  swap1\n  tag_12\n  jump\t// in\ntag_11:\n  mload(0x40)\n  dup1\n  swap2\n  sub\n  swap1\n  revert\ntag_10:\n    /* \"SimpleSwap.sol\":2503:2512  _tokenEKA */\n  dup2\n    /* \"SimpleSwap.sol\":2492:2512  tokenEKA = _tokenEKA */\n  0xffffffffffffffffffffffffffffffffffffffff\n  and\n  0x80\n  dup2\n  0xffffffffffffffffffffffffffffffffffffffff\n  and\n  dup2\n  mstore\n  pop\n  pop\n    /* \"SimpleSwap.sol\":2534:2543  _tokenEKB */\n  dup1\n    /* \"SimpleSwap.sol\":2523:2543  tokenEKB = _tokenEKB */\n  0xffffffffffffffffffffffffffffffffffffffff\n  and\n  0xa0\n  dup2\n  0xffffffffffffffffffffffffffffffffffffffff\n  and\n  dup2\n  mstore\n  pop\n  pop\n    /* \"SimpleSwap.sol\":2264:2551  constructor(address _tokenEKA, address _tokenEKB) {... */\n  pop\n  pop\n    /* \"SimpleSwap.sol\":955:15908  contract SimpleSwap {... */\n  jump(tag_13)\n    /* \"#utility.yul\":88:205   */\ntag_15:\n    /* \"#utility.yul\":197:198   */\n  0x00\n    /* \"#utility.yul\":194:195   */\n  0x00\n    /* \"#utility.yul\":187:199   */\n  revert\n    /* \"#utility.yul\":334:460   */\ntag_17:\n    /* \"#utility.yul\":371:378   */\n  0x00\n    /* \"#utility.yul\":411:453   */\n  0xffffffffffffffffffffffffffffffffffffffff\n    /* \"#utility.yul\":404:409   */\n  dup3\n    /* \"#utility.yul\":400:454   */\n  and\n    /* \"#utility.yul\":389:454   */\n  swap1\n  pop\n    /* \"#utility.yul\":334:460   */\n  swap2\n  swap1\n  pop\n  jump\t// out\n    /* \"#utility.yul\":466:562   */\ntag_18:\n    /* \"#utility.yul\":503:510   */\n  0x00\n    /* \"#utility.yul\":532:556   */\n  tag_32\n    /* \"#utility.yul\":550:555   */\n  dup3\n    /* \"#utility.yul\":532:556   */\n  tag_17\n  jump\t// in\ntag_32:\n    /* \"#utility.yul\":521:556   */\n  swap1\n  pop\n    /* \"#utility.yul\":466:562   */\n  swap2\n  swap1\n  pop\n  jump\t// out\n    /* \"#utility.yul\":568:690   */\ntag_19:\n    /* \"#utility.yul\":641:665   */\n  tag_34\n    /* \"#utility.yul\":659:664   */\n  dup2\n    /* \"#utility.yul\":641:665   */\n  tag_18\n  jump\t// in\ntag_34:\n    /* \"#utility.yul\":634:639   */\n  dup2\n    /* \"#utility.yul\":631:666   */\n  eq\n    /* \"#utility.yul\":621:684   */\n  tag_35\n  jumpi\n    /* \"#utility.yul\":680:681   */\n  0x00\n    /* \"#utility.yul\":677:678   */\n  0x00\n    /* \"#utility.yul\":670:682   */\n  revert\n    /* \"#utility.yul\":621:684   */\ntag_35:\n    /* \"#utility.yul\":568:690   */\n  pop\n  jump\t// out\n    /* \"#utility.yul\":696:839   */\ntag_20:\n    /* \"#utility.yul\":753:758   */\n  0x00\n    /* \"#utility.yul\":784:790   */\n  dup2\n    /* \"#utility.yul\":778:791   */\n  mload\n    /* \"#utility.yul\":769:791   */\n  swap1\n  pop\n    /* \"#utility.yul\":800:833   */\n  tag_37\n    /* \"#utility.yul\":827:832   */\n  dup2\n    /* \"#utility.yul\":800:833   */\n  tag_19\n  jump\t// in\ntag_37:\n    /* \"#utility.yul\":696:839   */\n  swap3\n  swap2\n  pop\n  pop\n  jump\t// out\n    /* \"#utility.yul\":845:1352   */\ntag_3:\n    /* \"#utility.yul\":924:930   */\n  0x00\n    /* \"#utility.yul\":932:938   */\n  0x00\n    /* \"#utility.yul\":981:983   */\n  0x40\n    /* \"#utility.yul\":969:978   */\n  dup4\n    /* \"#utility.yul\":960:967   */\n  dup6\n    /* \"#utility.yul\":956:979   */\n  sub\n    /* \"#utility.yul\":952:984   */\n  slt\n    /* \"#utility.yul\":949:1068   */\n  iszero\n  tag_39\n  jumpi\n    /* \"#utility.yul\":987:1066   */\n  tag_40\n  tag_15\n  jump\t// in\ntag_40:\n    /* \"#utility.yul\":949:1068   */\ntag_39:\n    /* \"#utility.yul\":1107:1108   */\n  0x00\n    /* \"#utility.yul\":1132:1196   */\n  tag_41\n    /* \"#utility.yul\":1188:1195   */\n  dup6\n    /* \"#utility.yul\":1179:1185   */\n  dup3\n    /* \"#utility.yul\":1168:1177   */\n  dup7\n    /* \"#utility.yul\":1164:1186   */\n  add\n    /* \"#utility.yul\":1132:1196   */\n  tag_20\n  jump\t// in\ntag_41:\n    /* \"#utility.yul\":1122:1196   */\n  swap3\n  pop\n    /* \"#utility.yul\":1078:1206   */\n  pop\n    /* \"#utility.yul\":1245:1247   */\n  0x20\n    /* \"#utility.yul\":1271:1335   */\n  tag_42\n    /* \"#utility.yul\":1327:1334   */\n  dup6\n    /* \"#utility.yul\":1318:1324   */\n  dup3\n    /* \"#utility.yul\":1307:1316   */\n  dup7\n    /* \"#utility.yul\":1303:1325   */\n  add\n    /* \"#utility.yul\":1271:1335   */\n  tag_20\n  jump\t// in\ntag_42:\n    /* \"#utility.yul\":1261:1335   */\n  swap2\n  pop\n    /* \"#utility.yul\":1216:1345   */\n  pop\n    /* \"#utility.yul\":845:1352   */\n  swap3\n  pop\n  swap3\n  swap1\n  pop\n  jump\t// out\n    /* \"#utility.yul\":1358:1527   */\ntag_21:\n    /* \"#utility.yul\":1442:1453   */\n  0x00\n    /* \"#utility.yul\":1476:1482   */\n  dup3\n    /* \"#utility.yul\":1471:1474   */\n  dup3\n    /* \"#utility.yul\":1464:1483   */\n  mstore\n    /* \"#utility.yul\":1516:1520   */\n  0x20\n    /* \"#utility.yul\":1511:1514   */\n  dup3\n    /* \"#utility.yul\":1507:1521   */\n  add\n    /* \"#utility.yul\":1492:1521   */\n  swap1\n  pop\n    /* \"#utility.yul\":1358:1527   */\n  swap3\n  swap2\n  pop\n  pop\n  jump\t// out\n    /* \"#utility.yul\":1533:1706   */\ntag_22:\n    /* \"#utility.yul\":1673:1698   */\n  0x496e76616c696420746f6b656e20616464726573736573000000000000000000\n    /* \"#utility.yul\":1669:1670   */\n  0x00\n    /* \"#utility.yul\":1661:1667   */\n  dup3\n    /* \"#utility.yul\":1657:1671   */\n  add\n    /* \"#utility.yul\":1650:1699   */\n  mstore\n    /* \"#utility.yul\":1533:1706   */\n  pop\n  jump\t// out\n    /* \"#utility.yul\":1712:2078   */\ntag_23:\n    /* \"#utility.yul\":1854:1857   */\n  0x00\n    /* \"#utility.yul\":1875:1942   */\n  tag_46\n    /* \"#utility.yul\":1939:1941   */\n  0x17\n    /* \"#utility.yul\":1934:1937   */\n  dup4\n    /* \"#utility.yul\":1875:1942   */\n  tag_21\n  jump\t// in\ntag_46:\n    /* \"#utility.yul\":1868:1942   */\n  swap2\n  pop\n    /* \"#utility.yul\":1951:2044   */\n  tag_47\n    /* \"#utility.yul\":2040:2043   */\n  dup3\n    /* \"#utility.yul\":1951:2044   */\n  tag_22\n  jump\t// in\ntag_47:\n    /* \"#utility.yul\":2069:2071   */\n  0x20\n    /* \"#utility.yul\":2064:2067   */\n  dup3\n    /* \"#utility.yul\":2060:2072   */\n  add\n    /* \"#utility.yul\":2053:2072   */\n  swap1\n  pop\n    /* \"#utility.yul\":1712:2078   */\n  swap2\n  swap1\n  pop\n  jump\t// out\n    /* \"#utility.yul\":2084:2503   */\ntag_9:\n    /* \"#utility.yul\":2250:2254   */\n  0x00\n    /* \"#utility.yul\":2288:2290   */\n  0x20\n    /* \"#utility.yul\":2277:2286   */\n  dup3\n    /* \"#utility.yul\":2273:2291   */\n  add\n    /* \"#utility.yul\":2265:2291   */\n  swap1\n  pop\n    /* \"#utility.yul\":2337:2346   */\n  dup2\n    /* \"#utility.yul\":2331:2335   */\n  dup2\n    /* \"#utility.yul\":2327:2347   */\n  sub\n    /* \"#utility.yul\":2323:2324   */\n  0x00\n    /* \"#utility.yul\":2312:2321   */\n  dup4\n    /* \"#utility.yul\":2308:2325   */\n  add\n    /* \"#utility.yul\":2301:2348   */\n  mstore\n    /* \"#utility.yul\":2365:2496   */\n  tag_49\n    /* \"#utility.yul\":2491:2495   */\n  dup2\n    /* \"#utility.yul\":2365:2496   */\n  tag_23\n  jump\t// in\ntag_49:\n    /* \"#utility.yul\":2357:2496   */\n  swap1\n  pop\n    /* \"#utility.yul\":2084:2503   */\n  swap2\n  swap1\n  pop\n  jump\t// out\n    /* \"#utility.yul\":2509:2683   */\ntag_24:\n    /* \"#utility.yul\":2649:2675   */\n  0x546f6b656e73206d75737420626520646966666572656e740000000000000000\n    /* \"#utility.yul\":2645:2646   */\n  0x00\n    /* \"#utility.yul\":2637:2643   */\n  dup3\n    /* \"#utility.yul\":2633:2647   */\n  add\n    /* \"#utility.yul\":2626:2676   */\n  mstore\n    /* \"#utility.yul\":2509:2683   */\n  pop\n  jump\t// out\n    /* \"#utility.yul\":2689:3055   */\ntag_25:\n    /* \"#utility.yul\":2831:2834   */\n  0x00\n    /* \"#utility.yul\":2852:2919   */\n  tag_52\n    /* \"#utility.yul\":2916:2918   */\n  0x18\n    /* \"#utility.yul\":2911:2914   */\n  dup4\n    /* \"#utility.yul\":2852:2919   */\n  tag_21\n  jump\t// in\ntag_52:\n    /* \"#utility.yul\":2845:2919   */\n  swap2\n  pop\n    /* \"#utility.yul\":2928:3021   */\n  tag_53\n    /* \"#utility.yul\":3017:3020   */\n  dup3\n    /* \"#utility.yul\":2928:3021   */\n  tag_24\n  jump\t// in\ntag_53:\n    /* \"#utility.yul\":3046:3048   */\n  0x20\n    /* \"#utility.yul\":3041:3044   */\n  dup3\n    /* \"#utility.yul\":3037:3049   */\n  add\n    /* \"#utility.yul\":3030:3049   */\n  swap1\n  pop\n    /* \"#utility.yul\":2689:3055   */\n  swap2\n  swap1\n  pop\n  jump\t// out\n    /* \"#utility.yul\":3061:3480   */\ntag_12:\n    /* \"#utility.yul\":3227:3231   */\n  0x00\n    /* \"#utility.yul\":3265:3267   */\n  0x20\n    /* \"#utility.yul\":3254:3263   */\n  dup3\n    /* \"#utility.yul\":3250:3268   */\n  add\n    /* \"#utility.yul\":3242:3268   */\n  swap1\n  pop\n    /* \"#utility.yul\":3314:3323   */\n  dup2\n    /* \"#utility.yul\":3308:3312   */\n  dup2\n    /* \"#utility.yul\":3304:3324   */\n  sub\n    /* \"#utility.yul\":3300:3301   */\n  0x00\n    /* \"#utility.yul\":3289:3298   */\n  dup4\n    /* \"#utility.yul\":3285:3302   */\n  add\n    /* \"#utility.yul\":3278:3325   */\n  mstore\n    /* \"#utility.yul\":3342:3473   */\n  tag_55\n    /* \"#utility.yul\":3468:3472   */\n  dup2\n    /* \"#utility.yul\":3342:3473   */\n  tag_25\n  jump\t// in\ntag_55:\n    /* \"#utility.yul\":3334:3473   */\n  swap1\n  pop\n    /* \"#utility.yul\":3061:3480   */\n  swap2\n  swap1\n  pop\n  jump\t// out\n    /* \"SimpleSwap.sol\":955:15908  contract SimpleSwap {... */\ntag_13:\n  mload(0x80)\n  mload(0xa0)\n  codecopy(0x00, dataOffset(sub_0), dataSize(sub_0))\n  0x00\n  assignImmutable(\"0xb2219b801710730437d0358146c829b62297a059eceaa0b40b27aea2daecf595\")\n  0x00\n  assignImmutable(\"0x2cc0d3dcb20652cd8f106aee76b6a7391771a130885634c0eb2bbe3cde796691\")\n  return(0x00, dataSize(sub_0))\nstop\n\nsub_0: assembly {\n        /* \"SimpleSwap.sol\":955:15908  contract SimpleSwap {... */\n      mstore(0x40, 0x80)\n      callvalue\n      dup1\n      iszero\n      tag_1\n      jumpi\n      revert(0x00, 0x00)\n    tag_1:\n      pop\n      jumpi(tag_2, lt(calldatasize, 0x04))\n      shr(0xe0, calldataload(0x00))\n      dup1\n      0x9db4aa04\n      gt\n      tag_18\n      jumpi\n      dup1\n      0xc8c0526e\n      gt\n      tag_19\n      jumpi\n      dup1\n      0xc8c0526e\n      eq\n      tag_14\n      jumpi\n      dup1\n      0xcbbc94cf\n      eq\n      tag_15\n      jumpi\n      dup1\n      0xe8e33700\n      eq\n      tag_16\n      jumpi\n      dup1\n      0xef1b1591\n      eq\n      tag_17\n      jumpi\n      jump(tag_2)\n    tag_19:\n      dup1\n      0x9db4aa04\n      eq\n      tag_10\n      jumpi\n      dup1\n      0xa1fc22b1\n      eq\n      tag_11\n      jumpi\n      dup1\n      0xac41865a\n      eq\n      tag_12\n      jumpi\n      dup1\n      0xbaa2abde\n      eq\n      tag_13\n      jumpi\n      jump(tag_2)\n    tag_18:\n      dup1\n      0x25b5e468\n      gt\n      tag_20\n      jumpi\n      dup1\n      0x25b5e468\n      eq\n      tag_6\n      jumpi\n      dup1\n      0x35c7e925\n      eq\n      tag_7\n      jumpi\n      dup1\n      0x38ed1739\n      eq\n      tag_8\n      jumpi\n      dup1\n      0x4c82ab63\n      eq\n      tag_9\n      jumpi\n      jump(tag_2)\n    tag_20:\n      dup1\n      0x054d50d4\n      eq\n      tag_3\n      jumpi\n      dup1\n      0x0902f1ac\n      eq\n      tag_4\n      jumpi\n      dup1\n      0x15770f92\n      eq\n      tag_5\n      jumpi\n    tag_2:\n      revert(0x00, 0x00)\n        /* \"SimpleSwap.sol\":13386:14144  function getAmountOut(... */\n    tag_3:\n      tag_21\n      0x04\n      dup1\n      calldatasize\n      sub\n      dup2\n      add\n      swap1\n      tag_22\n      swap2\n      swap1\n      tag_23\n      jump\t// in\n    tag_22:\n      tag_24\n      jump\t// in\n    tag_21:\n      mload(0x40)\n      tag_25\n      swap2\n      swap1\n      tag_26\n      jump\t// in\n    tag_25:\n      mload(0x40)\n      dup1\n      swap2\n      sub\n      swap1\n      return\n        /* \"SimpleSwap.sol\":14835:15001  function getReserves() external view returns (uint256 _reserveEKA, uint256 _reserveEKB) {... */\n    tag_4:\n      tag_27\n      tag_28\n      jump\t// in\n    tag_27:\n      mload(0x40)\n      tag_29\n      swap3\n      swap2\n      swap1\n      tag_30\n      jump\t// in\n    tag_29:\n      mload(0x40)\n      dup1\n      swap2\n      sub\n      swap1\n      return\n        /* \"SimpleSwap.sol\":1351:1380  uint256 public totalLiquidity */\n    tag_5:\n      tag_31\n      tag_32\n      jump\t// in\n    tag_31:\n      mload(0x40)\n      tag_33\n      swap2\n      swap1\n      tag_26\n      jump\t// in\n    tag_33:\n      mload(0x40)\n      dup1\n      swap2\n      sub\n      swap1\n      return\n        /* \"SimpleSwap.sol\":1236:1261  uint256 public reserveEKB */\n    tag_6:\n      tag_34\n      tag_35\n      jump\t// in\n    tag_34:\n      mload(0x40)\n      tag_36\n      swap2\n      swap1\n      tag_26\n      jump\t// in\n    tag_36:\n      mload(0x40)\n      dup1\n      swap2\n      sub\n      swap1\n      return\n        /* \"SimpleSwap.sol\":15459:15567  function getTotalLiquidity() external view returns (uint256 total) {... */\n    tag_7:\n      tag_37\n      tag_38\n      jump\t// in\n    tag_37:\n      mload(0x40)\n      tag_39\n      swap2\n      swap1\n      tag_26\n      jump\t// in\n    tag_39:\n      mload(0x40)\n      dup1\n      swap2\n      sub\n      swap1\n      return\n        /* \"SimpleSwap.sol\":9908:12038  function swapExactTokensForTokens(... */\n    tag_8:\n      tag_40\n      0x04\n      dup1\n      calldatasize\n      sub\n      dup2\n      add\n      swap1\n      tag_41\n      swap2\n      swap1\n      tag_42\n      jump\t// in\n    tag_41:\n      tag_43\n      jump\t// in\n    tag_40:\n      mload(0x40)\n      tag_44\n      swap2\n      swap1\n      tag_45\n      jump\t// in\n    tag_44:\n      mload(0x40)\n      dup1\n      swap2\n      sub\n      swap1\n      return\n        /* \"SimpleSwap.sol\":1062:1095  address public immutable tokenEKB */\n    tag_9:\n      tag_46\n      tag_47\n      jump\t// in\n    tag_46:\n      mload(0x40)\n      tag_48\n      swap2\n      swap1\n      tag_49\n      jump\t// in\n    tag_48:\n      mload(0x40)\n      dup1\n      swap2\n      sub\n      swap1\n      return\n        /* \"SimpleSwap.sol\":1420:1470  mapping(address => uint256) public liquidityShares */\n    tag_10:\n      tag_50\n      0x04\n      dup1\n      calldatasize\n      sub\n      dup2\n      add\n      swap1\n      tag_51\n      swap2\n      swap1\n      tag_52\n      jump\t// in\n    tag_51:\n      tag_53\n      jump\t// in\n    tag_50:\n      mload(0x40)\n      tag_54\n      swap2\n      swap1\n      tag_26\n      jump\t// in\n    tag_54:\n      mload(0x40)\n      dup1\n      swap2\n      sub\n      swap1\n      return\n        /* \"SimpleSwap.sol\":1161:1186  uint256 public reserveEKA */\n    tag_11:\n      tag_55\n      tag_56\n      jump\t// in\n    tag_55:\n      mload(0x40)\n      tag_57\n      swap2\n      swap1\n      tag_26\n      jump\t// in\n    tag_57:\n      mload(0x40)\n      dup1\n      swap2\n      sub\n      swap1\n      return\n        /* \"SimpleSwap.sol\":12309:13046  function getPrice(address tokenA, address tokenB) external view returns (uint256 price) {... */\n    tag_12:\n      tag_58\n      0x04\n      dup1\n      calldatasize\n      sub\n      dup2\n      add\n      swap1\n      tag_59\n      swap2\n      swap1\n      tag_60\n      jump\t// in\n    tag_59:\n      tag_61\n      jump\t// in\n    tag_58:\n      mload(0x40)\n      tag_62\n      swap2\n      swap1\n      tag_26\n      jump\t// in\n    tag_62:\n      mload(0x40)\n      dup1\n      swap2\n      sub\n      swap1\n      return\n        /* \"SimpleSwap.sol\":7327:9427  function removeLiquidity(... */\n    tag_13:\n      tag_63\n      0x04\n      dup1\n      calldatasize\n      sub\n      dup2\n      add\n      swap1\n      tag_64\n      swap2\n      swap1\n      tag_65\n      jump\t// in\n    tag_64:\n      tag_66\n      jump\t// in\n    tag_63:\n      mload(0x40)\n      tag_67\n      swap3\n      swap2\n      swap1\n      tag_30\n      jump\t// in\n    tag_67:\n      mload(0x40)\n      dup1\n      swap2\n      sub\n      swap1\n      return\n        /* \"SimpleSwap.sol\":15192:15322  function getLiquidityShares(address user) external view returns (uint256 shares) {... */\n    tag_14:\n      tag_68\n      0x04\n      dup1\n      calldatasize\n      sub\n      dup2\n      add\n      swap1\n      tag_69\n      swap2\n      swap1\n      tag_52\n      jump\t// in\n    tag_69:\n      tag_70\n      jump\t// in\n    tag_68:\n      mload(0x40)\n      tag_71\n      swap2\n      swap1\n      tag_26\n      jump\t// in\n    tag_71:\n      mload(0x40)\n      dup1\n      swap2\n      sub\n      swap1\n      return\n        /* \"SimpleSwap.sol\":15750:15905  function getTokenPair() external view returns (address _tokenEKA, address _tokenEKB) {... */\n    tag_15:\n      tag_72\n      tag_73\n      jump\t// in\n    tag_72:\n      mload(0x40)\n      tag_74\n      swap3\n      swap2\n      swap1\n      tag_75\n      jump\t// in\n    tag_74:\n      mload(0x40)\n      dup1\n      swap2\n      sub\n      swap1\n      return\n        /* \"SimpleSwap.sol\":3569:6705  function addLiquidity(... */\n    tag_16:\n      tag_76\n      0x04\n      dup1\n      calldatasize\n      sub\n      dup2\n      add\n      swap1\n      tag_77\n      swap2\n      swap1\n      tag_78\n      jump\t// in\n    tag_77:\n      tag_79\n      jump\t// in\n    tag_76:\n      mload(0x40)\n      tag_80\n      swap4\n      swap3\n      swap2\n      swap1\n      tag_81\n      jump\t// in\n    tag_80:\n      mload(0x40)\n      dup1\n      swap2\n      sub\n      swap1\n      return\n        /* \"SimpleSwap.sol\":1022:1055  address public immutable tokenEKA */\n    tag_17:\n      tag_82\n      tag_83\n      jump\t// in\n    tag_82:\n      mload(0x40)\n      tag_84\n      swap2\n      swap1\n      tag_49\n      jump\t// in\n    tag_84:\n      mload(0x40)\n      dup1\n      swap2\n      sub\n      swap1\n      return\n        /* \"SimpleSwap.sol\":13386:14144  function getAmountOut(... */\n    tag_24:\n        /* \"SimpleSwap.sol\":13522:13539  uint256 amountOut */\n      0x00\n        /* \"SimpleSwap.sol\":13571:13572  0 */\n      0x00\n        /* \"SimpleSwap.sol\":13560:13568  amountIn */\n      dup5\n        /* \"SimpleSwap.sol\":13560:13572  amountIn > 0 */\n      gt\n        /* \"SimpleSwap.sol\":13552:13602  require(amountIn > 0, \"Insufficient input amount\") */\n      tag_86\n      jumpi\n      mload(0x40)\n      0x08c379a000000000000000000000000000000000000000000000000000000000\n      dup2\n      mstore\n      0x04\n      add\n      tag_87\n      swap1\n      tag_88\n      jump\t// in\n    tag_87:\n      mload(0x40)\n      dup1\n      swap2\n      sub\n      swap1\n      revert\n    tag_86:\n        /* \"SimpleSwap.sol\":13633:13634  0 */\n      0x00\n        /* \"SimpleSwap.sol\":13621:13630  reserveIn */\n      dup4\n        /* \"SimpleSwap.sol\":13621:13634  reserveIn > 0 */\n      gt\n        /* \"SimpleSwap.sol\":13621:13652  reserveIn > 0 && reserveOut > 0 */\n      dup1\n      iszero\n      tag_89\n      jumpi\n      pop\n        /* \"SimpleSwap.sol\":13651:13652  0 */\n      0x00\n        /* \"SimpleSwap.sol\":13638:13648  reserveOut */\n      dup3\n        /* \"SimpleSwap.sol\":13638:13652  reserveOut > 0 */\n      gt\n        /* \"SimpleSwap.sol\":13621:13652  reserveIn > 0 && reserveOut > 0 */\n    tag_89:\n        /* \"SimpleSwap.sol\":13613:13679  require(reserveIn > 0 && reserveOut > 0, \"Insufficient liquidity\") */\n      tag_90\n      jumpi\n      mload(0x40)\n      0x08c379a000000000000000000000000000000000000000000000000000000000\n      dup2\n      mstore\n      0x04\n      add\n      tag_91\n      swap1\n      tag_92\n      jump\t// in\n    tag_91:\n      mload(0x40)\n      dup1\n      swap2\n      sub\n      swap1\n      revert\n    tag_90:\n        /* \"SimpleSwap.sol\":13912:13935  uint256 amountInWithFee */\n      0x00\n        /* \"SimpleSwap.sol\":13949:13952  997 */\n      0x03e5\n        /* \"SimpleSwap.sol\":13938:13946  amountIn */\n      dup6\n        /* \"SimpleSwap.sol\":13938:13952  amountIn * 997 */\n      tag_93\n      swap2\n      swap1\n      tag_94\n      jump\t// in\n    tag_93:\n        /* \"SimpleSwap.sol\":13912:13952  uint256 amountInWithFee = amountIn * 997 */\n      swap1\n      pop\n        /* \"SimpleSwap.sol\":13963:13980  uint256 numerator */\n      0x00\n        /* \"SimpleSwap.sol\":14001:14011  reserveOut */\n      dup4\n        /* \"SimpleSwap.sol\":13983:13998  amountInWithFee */\n      dup3\n        /* \"SimpleSwap.sol\":13983:14011  amountInWithFee * reserveOut */\n      tag_95\n      swap2\n      swap1\n      tag_94\n      jump\t// in\n    tag_95:\n        /* \"SimpleSwap.sol\":13963:14011  uint256 numerator = amountInWithFee * reserveOut */\n      swap1\n      pop\n        /* \"SimpleSwap.sol\":14022:14041  uint256 denominator */\n      0x00\n        /* \"SimpleSwap.sol\":14065:14080  amountInWithFee */\n      dup3\n        /* \"SimpleSwap.sol\":14057:14061  1000 */\n      0x03e8\n        /* \"SimpleSwap.sol\":14045:14054  reserveIn */\n      dup8\n        /* \"SimpleSwap.sol\":14045:14061  reserveIn * 1000 */\n      tag_96\n      swap2\n      swap1\n      tag_94\n      jump\t// in\n    tag_96:\n        /* \"SimpleSwap.sol\":14044:14080  (reserveIn * 1000) + amountInWithFee */\n      tag_97\n      swap2\n      swap1\n      tag_98\n      jump\t// in\n    tag_97:\n        /* \"SimpleSwap.sol\":14022:14080  uint256 denominator = (reserveIn * 1000) + amountInWithFee */\n      swap1\n      pop\n        /* \"SimpleSwap.sol\":14125:14136  denominator */\n      dup1\n        /* \"SimpleSwap.sol\":14113:14122  numerator */\n      dup3\n        /* \"SimpleSwap.sol\":14113:14136  numerator / denominator */\n      tag_99\n      swap2\n      swap1\n      tag_100\n      jump\t// in\n    tag_99:\n        /* \"SimpleSwap.sol\":14101:14136  amountOut = numerator / denominator */\n      swap4\n      pop\n        /* \"SimpleSwap.sol\":13541:14144  {... */\n      pop\n      pop\n      pop\n        /* \"SimpleSwap.sol\":13386:14144  function getAmountOut(... */\n      swap4\n      swap3\n      pop\n      pop\n      pop\n      jump\t// out\n        /* \"SimpleSwap.sol\":14835:15001  function getReserves() external view returns (uint256 _reserveEKA, uint256 _reserveEKB) {... */\n    tag_28:\n        /* \"SimpleSwap.sol\":14881:14900  uint256 _reserveEKA */\n      0x00\n        /* \"SimpleSwap.sol\":14902:14921  uint256 _reserveEKB */\n      0x00\n        /* \"SimpleSwap.sol\":14948:14958  reserveEKA */\n      sload(0x00)\n        /* \"SimpleSwap.sol\":14934:14958  _reserveEKA = reserveEKA */\n      swap2\n      pop\n        /* \"SimpleSwap.sol\":14983:14993  reserveEKB */\n      sload(0x01)\n        /* \"SimpleSwap.sol\":14969:14993  _reserveEKB = reserveEKB */\n      swap1\n      pop\n        /* \"SimpleSwap.sol\":14835:15001  function getReserves() external view returns (uint256 _reserveEKA, uint256 _reserveEKB) {... */\n      swap1\n      swap2\n      jump\t// out\n        /* \"SimpleSwap.sol\":1351:1380  uint256 public totalLiquidity */\n    tag_32:\n      sload(0x02)\n      dup2\n      jump\t// out\n        /* \"SimpleSwap.sol\":1236:1261  uint256 public reserveEKB */\n    tag_35:\n      sload(0x01)\n      dup2\n      jump\t// out\n        /* \"SimpleSwap.sol\":15459:15567  function getTotalLiquidity() external view returns (uint256 total) {... */\n    tag_38:\n        /* \"SimpleSwap.sol\":15511:15524  uint256 total */\n      0x00\n        /* \"SimpleSwap.sol\":15545:15559  totalLiquidity */\n      sload(0x02)\n        /* \"SimpleSwap.sol\":15537:15559  total = totalLiquidity */\n      swap1\n      pop\n        /* \"SimpleSwap.sol\":15459:15567  function getTotalLiquidity() external view returns (uint256 total) {... */\n      swap1\n      jump\t// out\n        /* \"SimpleSwap.sol\":9908:12038  function swapExactTokensForTokens(... */\n    tag_43:\n        /* \"SimpleSwap.sol\":10124:10148  uint256[] memory amounts */\n      0x60\n        /* \"SimpleSwap.sol\":10105:10113  deadline */\n      dup2\n        /* \"SimpleSwap.sol\":2759:2774  block.timestamp */\n      timestamp\n        /* \"SimpleSwap.sol\":2747:2755  deadline */\n      dup2\n        /* \"SimpleSwap.sol\":2747:2774  deadline >= block.timestamp */\n      lt\n      iszero\n        /* \"SimpleSwap.sol\":2739:2798  require(deadline >= block.timestamp, \"Transaction expired\") */\n      tag_104\n      jumpi\n      mload(0x40)\n      0x08c379a000000000000000000000000000000000000000000000000000000000\n      dup2\n      mstore\n      0x04\n      add\n      tag_105\n      swap1\n      tag_106\n      jump\t// in\n    tag_105:\n      mload(0x40)\n      dup1\n      swap2\n      sub\n      swap1\n      revert\n    tag_104:\n        /* \"SimpleSwap.sol\":10180:10181  0 */\n      0x00\n        /* \"SimpleSwap.sol\":10169:10177  amountIn */\n      dup9\n        /* \"SimpleSwap.sol\":10169:10181  amountIn > 0 */\n      gt\n        /* \"SimpleSwap.sol\":10161:10218  require(amountIn > 0, \"Amount must be greater than zero\") */\n      tag_108\n      jumpi\n      mload(0x40)\n      0x08c379a000000000000000000000000000000000000000000000000000000000\n      dup2\n      mstore\n      0x04\n      add\n      tag_109\n      swap1\n      tag_110\n      jump\t// in\n    tag_109:\n      mload(0x40)\n      dup1\n      swap2\n      sub\n      swap1\n      revert\n    tag_108:\n        /* \"SimpleSwap.sol\":10252:10253  2 */\n      0x02\n        /* \"SimpleSwap.sol\":10237:10241  path */\n      dup7\n      dup7\n        /* \"SimpleSwap.sol\":10237:10248  path.length */\n      swap1\n      pop\n        /* \"SimpleSwap.sol\":10237:10253  path.length == 2 */\n      eq\n        /* \"SimpleSwap.sol\":10229:10277  require(path.length == 2, \"Invalid path length\") */\n      tag_111\n      jumpi\n      mload(0x40)\n      0x08c379a000000000000000000000000000000000000000000000000000000000\n      dup2\n      mstore\n      0x04\n      add\n      tag_112\n      swap1\n      tag_113\n      jump\t// in\n    tag_112:\n      mload(0x40)\n      dup1\n      swap2\n      sub\n      swap1\n      revert\n    tag_111:\n        /* \"SimpleSwap.sol\":10310:10311  0 */\n      0x00\n        /* \"SimpleSwap.sol\":10296:10312  to != address(0) */\n      0xffffffffffffffffffffffffffffffffffffffff\n      and\n        /* \"SimpleSwap.sol\":10296:10298  to */\n      dup5\n        /* \"SimpleSwap.sol\":10296:10312  to != address(0) */\n      0xffffffffffffffffffffffffffffffffffffffff\n      and\n      sub\n        /* \"SimpleSwap.sol\":10288:10342  require(to != address(0), \"Invalid recipient address\") */\n      tag_114\n      jumpi\n      mload(0x40)\n      0x08c379a000000000000000000000000000000000000000000000000000000000\n      dup2\n      mstore\n      0x04\n      add\n      tag_115\n      swap1\n      tag_116\n      jump\t// in\n    tag_115:\n      mload(0x40)\n      dup1\n      swap2\n      sub\n      swap1\n      revert\n    tag_114:\n        /* \"SimpleSwap.sol\":10363:10378  address tokenIn */\n      0x00\n        /* \"SimpleSwap.sol\":10381:10385  path */\n      dup7\n      dup7\n        /* \"SimpleSwap.sol\":10386:10387  0 */\n      0x00\n        /* \"SimpleSwap.sol\":10381:10388  path[0] */\n      dup2\n      dup2\n      lt\n      tag_117\n      jumpi\n      tag_118\n      tag_119\n      jump\t// in\n    tag_118:\n    tag_117:\n      swap1\n      pop\n      0x20\n      mul\n      add\n      0x20\n      dup2\n      add\n      swap1\n      tag_120\n      swap2\n      swap1\n      tag_52\n      jump\t// in\n    tag_120:\n        /* \"SimpleSwap.sol\":10363:10388  address tokenIn = path[0] */\n      swap1\n      pop\n        /* \"SimpleSwap.sol\":10399:10415  address tokenOut */\n      0x00\n        /* \"SimpleSwap.sol\":10418:10422  path */\n      dup8\n      dup8\n        /* \"SimpleSwap.sol\":10423:10424  1 */\n      0x01\n        /* \"SimpleSwap.sol\":10418:10425  path[1] */\n      dup2\n      dup2\n      lt\n      tag_121\n      jumpi\n      tag_122\n      tag_119\n      jump\t// in\n    tag_122:\n    tag_121:\n      swap1\n      pop\n      0x20\n      mul\n      add\n      0x20\n      dup2\n      add\n      swap1\n      tag_123\n      swap2\n      swap1\n      tag_52\n      jump\t// in\n    tag_123:\n        /* \"SimpleSwap.sol\":10399:10425  address tokenOut = path[1] */\n      swap1\n      pop\n        /* \"SimpleSwap.sol\":10534:10542  tokenEKA */\n      immutable(\"0x2cc0d3dcb20652cd8f106aee76b6a7391771a130885634c0eb2bbe3cde796691\")\n        /* \"SimpleSwap.sol\":10523:10542  tokenIn == tokenEKA */\n      0xffffffffffffffffffffffffffffffffffffffff\n      and\n        /* \"SimpleSwap.sol\":10523:10530  tokenIn */\n      dup3\n        /* \"SimpleSwap.sol\":10523:10542  tokenIn == tokenEKA */\n      0xffffffffffffffffffffffffffffffffffffffff\n      and\n      eq\n        /* \"SimpleSwap.sol\":10523:10566  tokenIn == tokenEKA && tokenOut == tokenEKB */\n      dup1\n      iszero\n      tag_124\n      jumpi\n      pop\n        /* \"SimpleSwap.sol\":10558:10566  tokenEKB */\n      immutable(\"0xb2219b801710730437d0358146c829b62297a059eceaa0b40b27aea2daecf595\")\n        /* \"SimpleSwap.sol\":10546:10566  tokenOut == tokenEKB */\n      0xffffffffffffffffffffffffffffffffffffffff\n      and\n        /* \"SimpleSwap.sol\":10546:10554  tokenOut */\n      dup2\n        /* \"SimpleSwap.sol\":10546:10566  tokenOut == tokenEKB */\n      0xffffffffffffffffffffffffffffffffffffffff\n      and\n      eq\n        /* \"SimpleSwap.sol\":10523:10566  tokenIn == tokenEKA && tokenOut == tokenEKB */\n    tag_124:\n        /* \"SimpleSwap.sol\":10522:10630  (tokenIn == tokenEKA && tokenOut == tokenEKB) || ... */\n      dup1\n      tag_125\n      jumpi\n      pop\n        /* \"SimpleSwap.sol\":10597:10605  tokenEKB */\n      immutable(\"0xb2219b801710730437d0358146c829b62297a059eceaa0b40b27aea2daecf595\")\n        /* \"SimpleSwap.sol\":10586:10605  tokenIn == tokenEKB */\n      0xffffffffffffffffffffffffffffffffffffffff\n      and\n        /* \"SimpleSwap.sol\":10586:10593  tokenIn */\n      dup3\n        /* \"SimpleSwap.sol\":10586:10605  tokenIn == tokenEKB */\n      0xffffffffffffffffffffffffffffffffffffffff\n      and\n      eq\n        /* \"SimpleSwap.sol\":10586:10629  tokenIn == tokenEKB && tokenOut == tokenEKA */\n      dup1\n      iszero\n      tag_126\n      jumpi\n      pop\n        /* \"SimpleSwap.sol\":10621:10629  tokenEKA */\n      immutable(\"0x2cc0d3dcb20652cd8f106aee76b6a7391771a130885634c0eb2bbe3cde796691\")\n        /* \"SimpleSwap.sol\":10609:10629  tokenOut == tokenEKA */\n      0xffffffffffffffffffffffffffffffffffffffff\n      and\n        /* \"SimpleSwap.sol\":10609:10617  tokenOut */\n      dup2\n        /* \"SimpleSwap.sol\":10609:10629  tokenOut == tokenEKA */\n      0xffffffffffffffffffffffffffffffffffffffff\n      and\n      eq\n        /* \"SimpleSwap.sol\":10586:10629  tokenIn == tokenEKB && tokenOut == tokenEKA */\n    tag_126:\n        /* \"SimpleSwap.sol\":10522:10630  (tokenIn == tokenEKA && tokenOut == tokenEKB) || ... */\n    tag_125:\n        /* \"SimpleSwap.sol\":10500:10677  require(... */\n      tag_127\n      jumpi\n      mload(0x40)\n      0x08c379a000000000000000000000000000000000000000000000000000000000\n      dup2\n      mstore\n      0x04\n      add\n      tag_128\n      swap1\n      tag_129\n      jump\t// in\n    tag_128:\n      mload(0x40)\n      dup1\n      swap2\n      sub\n      swap1\n      revert\n    tag_127:\n        /* \"SimpleSwap.sol\":10709:10710  0 */\n      0x00\n        /* \"SimpleSwap.sol\":10696:10706  reserveEKA */\n      sload(0x00)\n        /* \"SimpleSwap.sol\":10696:10710  reserveEKA > 0 */\n      gt\n        /* \"SimpleSwap.sol\":10696:10728  reserveEKA > 0 && reserveEKB > 0 */\n      dup1\n      iszero\n      tag_130\n      jumpi\n      pop\n        /* \"SimpleSwap.sol\":10727:10728  0 */\n      0x00\n        /* \"SimpleSwap.sol\":10714:10724  reserveEKB */\n      sload(0x01)\n        /* \"SimpleSwap.sol\":10714:10728  reserveEKB > 0 */\n      gt\n        /* \"SimpleSwap.sol\":10696:10728  reserveEKA > 0 && reserveEKB > 0 */\n    tag_130:\n        /* \"SimpleSwap.sol\":10688:10755  require(reserveEKA > 0 && reserveEKB > 0, \"Insufficient liquidity\") */\n      tag_131\n      jumpi\n      mload(0x40)\n      0x08c379a000000000000000000000000000000000000000000000000000000000\n      dup2\n      mstore\n      0x04\n      add\n      tag_132\n      swap1\n      tag_92\n      jump\t// in\n    tag_132:\n      mload(0x40)\n      dup1\n      swap2\n      sub\n      swap1\n      revert\n    tag_131:\n        /* \"SimpleSwap.sol\":10812:10829  uint256 reserveIn */\n      0x00\n        /* \"SimpleSwap.sol\":10843:10851  tokenEKA */\n      immutable(\"0x2cc0d3dcb20652cd8f106aee76b6a7391771a130885634c0eb2bbe3cde796691\")\n        /* \"SimpleSwap.sol\":10832:10851  tokenIn == tokenEKA */\n      0xffffffffffffffffffffffffffffffffffffffff\n      and\n        /* \"SimpleSwap.sol\":10832:10839  tokenIn */\n      dup4\n        /* \"SimpleSwap.sol\":10832:10851  tokenIn == tokenEKA */\n      0xffffffffffffffffffffffffffffffffffffffff\n      and\n      eq\n        /* \"SimpleSwap.sol\":10832:10877  tokenIn == tokenEKA ? reserveEKA : reserveEKB */\n      tag_133\n      jumpi\n        /* \"SimpleSwap.sol\":10867:10877  reserveEKB */\n      sload(0x01)\n        /* \"SimpleSwap.sol\":10832:10877  tokenIn == tokenEKA ? reserveEKA : reserveEKB */\n      jump(tag_134)\n    tag_133:\n        /* \"SimpleSwap.sol\":10854:10864  reserveEKA */\n      sload(0x00)\n        /* \"SimpleSwap.sol\":10832:10877  tokenIn == tokenEKA ? reserveEKA : reserveEKB */\n    tag_134:\n        /* \"SimpleSwap.sol\":10812:10877  uint256 reserveIn = tokenIn == tokenEKA ? reserveEKA : reserveEKB */\n      swap1\n      pop\n        /* \"SimpleSwap.sol\":10888:10906  uint256 reserveOut */\n      0x00\n        /* \"SimpleSwap.sol\":10920:10928  tokenEKA */\n      immutable(\"0x2cc0d3dcb20652cd8f106aee76b6a7391771a130885634c0eb2bbe3cde796691\")\n        /* \"SimpleSwap.sol\":10909:10928  tokenIn == tokenEKA */\n      0xffffffffffffffffffffffffffffffffffffffff\n      and\n        /* \"SimpleSwap.sol\":10909:10916  tokenIn */\n      dup5\n        /* \"SimpleSwap.sol\":10909:10928  tokenIn == tokenEKA */\n      0xffffffffffffffffffffffffffffffffffffffff\n      and\n      eq\n        /* \"SimpleSwap.sol\":10909:10954  tokenIn == tokenEKA ? reserveEKB : reserveEKA */\n      tag_135\n      jumpi\n        /* \"SimpleSwap.sol\":10944:10954  reserveEKA */\n      sload(0x00)\n        /* \"SimpleSwap.sol\":10909:10954  tokenIn == tokenEKA ? reserveEKB : reserveEKA */\n      jump(tag_136)\n    tag_135:\n        /* \"SimpleSwap.sol\":10931:10941  reserveEKB */\n      sload(0x01)\n        /* \"SimpleSwap.sol\":10909:10954  tokenIn == tokenEKA ? reserveEKB : reserveEKA */\n    tag_136:\n        /* \"SimpleSwap.sol\":10888:10954  uint256 reserveOut = tokenIn == tokenEKA ? reserveEKB : reserveEKA */\n      swap1\n      pop\n        /* \"SimpleSwap.sol\":10965:10982  uint256 amountOut */\n      0x00\n        /* \"SimpleSwap.sol\":10985:11030  getAmountOut(amountIn, reserveIn, reserveOut) */\n      tag_137\n        /* \"SimpleSwap.sol\":10998:11006  amountIn */\n      dup14\n        /* \"SimpleSwap.sol\":11008:11017  reserveIn */\n      dup5\n        /* \"SimpleSwap.sol\":11019:11029  reserveOut */\n      dup5\n        /* \"SimpleSwap.sol\":10985:10997  getAmountOut */\n      tag_24\n        /* \"SimpleSwap.sol\":10985:11030  getAmountOut(amountIn, reserveIn, reserveOut) */\n      jump\t// in\n    tag_137:\n        /* \"SimpleSwap.sol\":10965:11030  uint256 amountOut = getAmountOut(amountIn, reserveIn, reserveOut) */\n      swap1\n      pop\n        /* \"SimpleSwap.sol\":11072:11084  amountOutMin */\n      dup12\n        /* \"SimpleSwap.sol\":11059:11068  amountOut */\n      dup2\n        /* \"SimpleSwap.sol\":11059:11084  amountOut >= amountOutMin */\n      lt\n      iszero\n        /* \"SimpleSwap.sol\":11051:11115  require(amountOut >= amountOutMin, \"Insufficient output amount\") */\n      tag_138\n      jumpi\n      mload(0x40)\n      0x08c379a000000000000000000000000000000000000000000000000000000000\n      dup2\n      mstore\n      0x04\n      add\n      tag_139\n      swap1\n      tag_140\n      jump\t// in\n    tag_139:\n      mload(0x40)\n      dup1\n      swap2\n      sub\n      swap1\n      revert\n    tag_138:\n        /* \"SimpleSwap.sol\":11146:11156  reserveOut */\n      dup2\n        /* \"SimpleSwap.sol\":11134:11143  amountOut */\n      dup2\n        /* \"SimpleSwap.sol\":11134:11156  amountOut < reserveOut */\n      lt\n        /* \"SimpleSwap.sol\":11126:11181  require(amountOut < reserveOut, \"Insufficient reserve\") */\n      tag_141\n      jumpi\n      mload(0x40)\n      0x08c379a000000000000000000000000000000000000000000000000000000000\n      dup2\n      mstore\n      0x04\n      add\n      tag_142\n      swap1\n      tag_143\n      jump\t// in\n    tag_142:\n      mload(0x40)\n      dup1\n      swap2\n      sub\n      swap1\n      revert\n    tag_141:\n        /* \"SimpleSwap.sol\":11716:11724  tokenOut */\n      dup4\n        /* \"SimpleSwap.sol\":11709:11734  IERC20(tokenOut).transfer */\n      0xffffffffffffffffffffffffffffffffffffffff\n      and\n      0xa9059cbb\n        /* \"SimpleSwap.sol\":11735:11737  to */\n      dup11\n        /* \"SimpleSwap.sol\":11739:11748  amountOut */\n      dup4\n        /* \"SimpleSwap.sol\":11709:11749  IERC20(tokenOut).transfer(to, amountOut) */\n      mload(0x40)\n      dup4\n      0xffffffff\n      and\n      0xe0\n      shl\n      dup2\n      mstore\n      0x04\n      add\n      tag_144\n      swap3\n      swap2\n      swap1\n      tag_145\n      jump\t// in\n    tag_144:\n      0x20\n      mload(0x40)\n      dup1\n      dup4\n      sub\n      dup2\n      0x00\n      dup8\n      gas\n      call\n      iszero\n      dup1\n      iszero\n      tag_147\n      jumpi\n      returndatacopy(0x00, 0x00, returndatasize)\n      revert(0x00, returndatasize)\n    tag_147:\n      pop\n      pop\n      pop\n      pop\n      mload(0x40)\n      returndatasize\n      not(0x1f)\n      0x1f\n      dup3\n      add\n      and\n      dup3\n      add\n      dup1\n      0x40\n      mstore\n      pop\n      dup2\n      add\n      swap1\n      tag_148\n      swap2\n      swap1\n      tag_149\n      jump\t// in\n    tag_148:\n        /* \"SimpleSwap.sol\":11701:11782  require(IERC20(tokenOut).transfer(to, amountOut), \"Output token transfer failed\") */\n      tag_150\n      jumpi\n      mload(0x40)\n      0x08c379a000000000000000000000000000000000000000000000000000000000\n      dup2\n      mstore\n      0x04\n      add\n      tag_151\n      swap1\n      tag_152\n      jump\t// in\n    tag_151:\n      mload(0x40)\n      dup1\n      swap2\n      sub\n      swap1\n      revert\n    tag_150:\n        /* \"SimpleSwap.sol\":11860:11861  2 */\n      0x02\n        /* \"SimpleSwap.sol\":11846:11862  new uint256[](2) */\n      0xffffffffffffffff\n      dup2\n      gt\n      iszero\n      tag_153\n      jumpi\n      tag_154\n      tag_155\n      jump\t// in\n    tag_154:\n    tag_153:\n      mload(0x40)\n      swap1\n      dup1\n      dup3\n      mstore\n      dup1\n      0x20\n      mul\n      0x20\n      add\n      dup3\n      add\n      0x40\n      mstore\n      dup1\n      iszero\n      tag_156\n      jumpi\n      dup2\n      0x20\n      add\n      0x20\n      dup3\n      mul\n      dup1\n      calldatasize\n      dup4\n      calldatacopy\n      dup1\n      dup3\n      add\n      swap2\n      pop\n      pop\n      swap1\n      pop\n    tag_156:\n      pop\n        /* \"SimpleSwap.sol\":11836:11862  amounts = new uint256[](2) */\n      swap7\n      pop\n        /* \"SimpleSwap.sol\":11886:11894  amountIn */\n      dup13\n        /* \"SimpleSwap.sol\":11873:11880  amounts */\n      dup8\n        /* \"SimpleSwap.sol\":11881:11882  0 */\n      0x00\n        /* \"SimpleSwap.sol\":11873:11883  amounts[0] */\n      dup2\n      mload\n      dup2\n      lt\n      tag_157\n      jumpi\n      tag_158\n      tag_119\n      jump\t// in\n    tag_158:\n    tag_157:\n      0x20\n      mul\n      0x20\n      add\n      add\n        /* \"SimpleSwap.sol\":11873:11894  amounts[0] = amountIn */\n      dup2\n      dup2\n      mstore\n      pop\n      pop\n        /* \"SimpleSwap.sol\":11918:11927  amountOut */\n      dup1\n        /* \"SimpleSwap.sol\":11905:11912  amounts */\n      dup8\n        /* \"SimpleSwap.sol\":11913:11914  1 */\n      0x01\n        /* \"SimpleSwap.sol\":11905:11915  amounts[1] */\n      dup2\n      mload\n      dup2\n      lt\n      tag_159\n      jumpi\n      tag_160\n      tag_119\n      jump\t// in\n    tag_160:\n    tag_159:\n      0x20\n      mul\n      0x20\n      add\n      add\n        /* \"SimpleSwap.sol\":11905:11927  amounts[1] = amountOut */\n      dup2\n      dup2\n      mstore\n      pop\n      pop\n        /* \"SimpleSwap.sol\":10150:12038  {... */\n      pop\n      pop\n      pop\n      pop\n      pop\n        /* \"SimpleSwap.sol\":9908:12038  function swapExactTokensForTokens(... */\n      pop\n      swap7\n      swap6\n      pop\n      pop\n      pop\n      pop\n      pop\n      pop\n      jump\t// out\n        /* \"SimpleSwap.sol\":1062:1095  address public immutable tokenEKB */\n    tag_47:\n      immutable(\"0xb2219b801710730437d0358146c829b62297a059eceaa0b40b27aea2daecf595\")\n      dup2\n      jump\t// out\n        /* \"SimpleSwap.sol\":1420:1470  mapping(address => uint256) public liquidityShares */\n    tag_53:\n      mstore(0x20, 0x03)\n      dup1\n      0x00\n      mstore\n      keccak256(0x00, 0x40)\n      0x00\n      swap2\n      pop\n      swap1\n      pop\n      sload\n      dup2\n      jump\t// out\n        /* \"SimpleSwap.sol\":1161:1186  uint256 public reserveEKA */\n    tag_56:\n      sload(0x00)\n      dup2\n      jump\t// out\n        /* \"SimpleSwap.sol\":12309:13046  function getPrice(address tokenA, address tokenB) external view returns (uint256 price) {... */\n    tag_61:\n        /* \"SimpleSwap.sol\":12382:12395  uint256 price */\n      0x00\n        /* \"SimpleSwap.sol\":12495:12503  tokenEKA */\n      immutable(\"0x2cc0d3dcb20652cd8f106aee76b6a7391771a130885634c0eb2bbe3cde796691\")\n        /* \"SimpleSwap.sol\":12485:12503  tokenA == tokenEKA */\n      0xffffffffffffffffffffffffffffffffffffffff\n      and\n        /* \"SimpleSwap.sol\":12485:12491  tokenA */\n      dup4\n        /* \"SimpleSwap.sol\":12485:12503  tokenA == tokenEKA */\n      0xffffffffffffffffffffffffffffffffffffffff\n      and\n      eq\n        /* \"SimpleSwap.sol\":12485:12525  tokenA == tokenEKA && tokenB == tokenEKB */\n      dup1\n      iszero\n      tag_162\n      jumpi\n      pop\n        /* \"SimpleSwap.sol\":12517:12525  tokenEKB */\n      immutable(\"0xb2219b801710730437d0358146c829b62297a059eceaa0b40b27aea2daecf595\")\n        /* \"SimpleSwap.sol\":12507:12525  tokenB == tokenEKB */\n      0xffffffffffffffffffffffffffffffffffffffff\n      and\n        /* \"SimpleSwap.sol\":12507:12513  tokenB */\n      dup3\n        /* \"SimpleSwap.sol\":12507:12525  tokenB == tokenEKB */\n      0xffffffffffffffffffffffffffffffffffffffff\n      and\n      eq\n        /* \"SimpleSwap.sol\":12485:12525  tokenA == tokenEKA && tokenB == tokenEKB */\n    tag_162:\n        /* \"SimpleSwap.sol\":12484:12586  (tokenA == tokenEKA && tokenB == tokenEKB) || ... */\n      dup1\n      tag_163\n      jumpi\n      pop\n        /* \"SimpleSwap.sol\":12555:12563  tokenEKB */\n      immutable(\"0xb2219b801710730437d0358146c829b62297a059eceaa0b40b27aea2daecf595\")\n        /* \"SimpleSwap.sol\":12545:12563  tokenA == tokenEKB */\n      0xffffffffffffffffffffffffffffffffffffffff\n      and\n        /* \"SimpleSwap.sol\":12545:12551  tokenA */\n      dup4\n        /* \"SimpleSwap.sol\":12545:12563  tokenA == tokenEKB */\n      0xffffffffffffffffffffffffffffffffffffffff\n      and\n      eq\n        /* \"SimpleSwap.sol\":12545:12585  tokenA == tokenEKB && tokenB == tokenEKA */\n      dup1\n      iszero\n      tag_164\n      jumpi\n      pop\n        /* \"SimpleSwap.sol\":12577:12585  tokenEKA */\n      immutable(\"0x2cc0d3dcb20652cd8f106aee76b6a7391771a130885634c0eb2bbe3cde796691\")\n        /* \"SimpleSwap.sol\":12567:12585  tokenB == tokenEKA */\n      0xffffffffffffffffffffffffffffffffffffffff\n      and\n        /* \"SimpleSwap.sol\":12567:12573  tokenB */\n      dup3\n        /* \"SimpleSwap.sol\":12567:12585  tokenB == tokenEKA */\n      0xffffffffffffffffffffffffffffffffffffffff\n      and\n      eq\n        /* \"SimpleSwap.sol\":12545:12585  tokenA == tokenEKB && tokenB == tokenEKA */\n    tag_164:\n        /* \"SimpleSwap.sol\":12484:12586  (tokenA == tokenEKA && tokenB == tokenEKB) || ... */\n    tag_163:\n        /* \"SimpleSwap.sol\":12462:12633  require(... */\n      tag_165\n      jumpi\n      mload(0x40)\n      0x08c379a000000000000000000000000000000000000000000000000000000000\n      dup2\n      mstore\n      0x04\n      add\n      tag_166\n      swap1\n      tag_129\n      jump\t// in\n    tag_166:\n      mload(0x40)\n      dup1\n      swap2\n      sub\n      swap1\n      revert\n    tag_165:\n        /* \"SimpleSwap.sol\":12654:12670  uint256 reserveA */\n      0x00\n        /* \"SimpleSwap.sol\":12683:12691  tokenEKA */\n      immutable(\"0x2cc0d3dcb20652cd8f106aee76b6a7391771a130885634c0eb2bbe3cde796691\")\n        /* \"SimpleSwap.sol\":12673:12691  tokenA == tokenEKA */\n      0xffffffffffffffffffffffffffffffffffffffff\n      and\n        /* \"SimpleSwap.sol\":12673:12679  tokenA */\n      dup5\n        /* \"SimpleSwap.sol\":12673:12691  tokenA == tokenEKA */\n      0xffffffffffffffffffffffffffffffffffffffff\n      and\n      eq\n        /* \"SimpleSwap.sol\":12673:12717  tokenA == tokenEKA ? reserveEKA : reserveEKB */\n      tag_167\n      jumpi\n        /* \"SimpleSwap.sol\":12707:12717  reserveEKB */\n      sload(0x01)\n        /* \"SimpleSwap.sol\":12673:12717  tokenA == tokenEKA ? reserveEKA : reserveEKB */\n      jump(tag_168)\n    tag_167:\n        /* \"SimpleSwap.sol\":12694:12704  reserveEKA */\n      sload(0x00)\n        /* \"SimpleSwap.sol\":12673:12717  tokenA == tokenEKA ? reserveEKA : reserveEKB */\n    tag_168:\n        /* \"SimpleSwap.sol\":12654:12717  uint256 reserveA = tokenA == tokenEKA ? reserveEKA : reserveEKB */\n      swap1\n      pop\n        /* \"SimpleSwap.sol\":12728:12744  uint256 reserveB */\n      0x00\n        /* \"SimpleSwap.sol\":12757:12765  tokenEKA */\n      immutable(\"0x2cc0d3dcb20652cd8f106aee76b6a7391771a130885634c0eb2bbe3cde796691\")\n        /* \"SimpleSwap.sol\":12747:12765  tokenA == tokenEKA */\n      0xffffffffffffffffffffffffffffffffffffffff\n      and\n        /* \"SimpleSwap.sol\":12747:12753  tokenA */\n      dup6\n        /* \"SimpleSwap.sol\":12747:12765  tokenA == tokenEKA */\n      0xffffffffffffffffffffffffffffffffffffffff\n      and\n      eq\n        /* \"SimpleSwap.sol\":12747:12791  tokenA == tokenEKA ? reserveEKB : reserveEKA */\n      tag_169\n      jumpi\n        /* \"SimpleSwap.sol\":12781:12791  reserveEKA */\n      sload(0x00)\n        /* \"SimpleSwap.sol\":12747:12791  tokenA == tokenEKA ? reserveEKB : reserveEKA */\n      jump(tag_170)\n    tag_169:\n        /* \"SimpleSwap.sol\":12768:12778  reserveEKB */\n      sload(0x01)\n        /* \"SimpleSwap.sol\":12747:12791  tokenA == tokenEKA ? reserveEKB : reserveEKA */\n    tag_170:\n        /* \"SimpleSwap.sol\":12728:12791  uint256 reserveB = tokenA == tokenEKA ? reserveEKB : reserveEKA */\n      swap1\n      pop\n        /* \"SimpleSwap.sol\":12831:12832  0 */\n      0x00\n        /* \"SimpleSwap.sol\":12820:12828  reserveA */\n      dup3\n        /* \"SimpleSwap.sol\":12820:12832  reserveA > 0 */\n      gt\n        /* \"SimpleSwap.sol\":12812:12860  require(reserveA > 0, \"No liquidity for tokenA\") */\n      tag_171\n      jumpi\n      mload(0x40)\n      0x08c379a000000000000000000000000000000000000000000000000000000000\n      dup2\n      mstore\n      0x04\n      add\n      tag_172\n      swap1\n      tag_173\n      jump\t// in\n    tag_172:\n      mload(0x40)\n      dup1\n      swap2\n      sub\n      swap1\n      revert\n    tag_171:\n        /* \"SimpleSwap.sol\":13030:13038  reserveA */\n      dup2\n        /* \"SimpleSwap.sol\":13022:13026  1e18 */\n      0x0de0b6b3a7640000\n        /* \"SimpleSwap.sol\":13011:13019  reserveB */\n      dup3\n        /* \"SimpleSwap.sol\":13011:13026  reserveB * 1e18 */\n      tag_174\n      swap2\n      swap1\n      tag_94\n      jump\t// in\n    tag_174:\n        /* \"SimpleSwap.sol\":13010:13038  (reserveB * 1e18) / reserveA */\n      tag_175\n      swap2\n      swap1\n      tag_100\n      jump\t// in\n    tag_175:\n        /* \"SimpleSwap.sol\":13002:13038  price = (reserveB * 1e18) / reserveA */\n      swap3\n      pop\n        /* \"SimpleSwap.sol\":12397:13046  {... */\n      pop\n      pop\n        /* \"SimpleSwap.sol\":12309:13046  function getPrice(address tokenA, address tokenB) external view returns (uint256 price) {... */\n      swap3\n      swap2\n      pop\n      pop\n      jump\t// out\n        /* \"SimpleSwap.sol\":7327:9427  function removeLiquidity(... */\n    tag_66:\n        /* \"SimpleSwap.sol\":7578:7593  uint256 amountA */\n      0x00\n        /* \"SimpleSwap.sol\":7595:7610  uint256 amountB */\n      0x00\n        /* \"SimpleSwap.sol\":7559:7567  deadline */\n      dup3\n        /* \"SimpleSwap.sol\":2759:2774  block.timestamp */\n      timestamp\n        /* \"SimpleSwap.sol\":2747:2755  deadline */\n      dup2\n        /* \"SimpleSwap.sol\":2747:2774  deadline >= block.timestamp */\n      lt\n      iszero\n        /* \"SimpleSwap.sol\":2739:2798  require(deadline >= block.timestamp, \"Transaction expired\") */\n      tag_177\n      jumpi\n      mload(0x40)\n      0x08c379a000000000000000000000000000000000000000000000000000000000\n      dup2\n      mstore\n      0x04\n      add\n      tag_178\n      swap1\n      tag_106\n      jump\t// in\n    tag_178:\n      mload(0x40)\n      dup1\n      swap2\n      sub\n      swap1\n      revert\n    tag_177:\n        /* \"SimpleSwap.sol\":7718:7726  tokenEKA */\n      immutable(\"0x2cc0d3dcb20652cd8f106aee76b6a7391771a130885634c0eb2bbe3cde796691\")\n        /* \"SimpleSwap.sol\":7708:7726  tokenA == tokenEKA */\n      0xffffffffffffffffffffffffffffffffffffffff\n      and\n        /* \"SimpleSwap.sol\":7708:7714  tokenA */\n      dup11\n        /* \"SimpleSwap.sol\":7708:7726  tokenA == tokenEKA */\n      0xffffffffffffffffffffffffffffffffffffffff\n      and\n      eq\n        /* \"SimpleSwap.sol\":7708:7748  tokenA == tokenEKA && tokenB == tokenEKB */\n      dup1\n      iszero\n      tag_180\n      jumpi\n      pop\n        /* \"SimpleSwap.sol\":7740:7748  tokenEKB */\n      immutable(\"0xb2219b801710730437d0358146c829b62297a059eceaa0b40b27aea2daecf595\")\n        /* \"SimpleSwap.sol\":7730:7748  tokenB == tokenEKB */\n      0xffffffffffffffffffffffffffffffffffffffff\n      and\n        /* \"SimpleSwap.sol\":7730:7736  tokenB */\n      dup10\n        /* \"SimpleSwap.sol\":7730:7748  tokenB == tokenEKB */\n      0xffffffffffffffffffffffffffffffffffffffff\n      and\n      eq\n        /* \"SimpleSwap.sol\":7708:7748  tokenA == tokenEKA && tokenB == tokenEKB */\n    tag_180:\n        /* \"SimpleSwap.sol\":7707:7809  (tokenA == tokenEKA && tokenB == tokenEKB) || ... */\n      dup1\n      tag_181\n      jumpi\n      pop\n        /* \"SimpleSwap.sol\":7778:7786  tokenEKB */\n      immutable(\"0xb2219b801710730437d0358146c829b62297a059eceaa0b40b27aea2daecf595\")\n        /* \"SimpleSwap.sol\":7768:7786  tokenA == tokenEKB */\n      0xffffffffffffffffffffffffffffffffffffffff\n      and\n        /* \"SimpleSwap.sol\":7768:7774  tokenA */\n      dup11\n        /* \"SimpleSwap.sol\":7768:7786  tokenA == tokenEKB */\n      0xffffffffffffffffffffffffffffffffffffffff\n      and\n      eq\n        /* \"SimpleSwap.sol\":7768:7808  tokenA == tokenEKB && tokenB == tokenEKA */\n      dup1\n      iszero\n      tag_182\n      jumpi\n      pop\n        /* \"SimpleSwap.sol\":7800:7808  tokenEKA */\n      immutable(\"0x2cc0d3dcb20652cd8f106aee76b6a7391771a130885634c0eb2bbe3cde796691\")\n        /* \"SimpleSwap.sol\":7790:7808  tokenB == tokenEKA */\n      0xffffffffffffffffffffffffffffffffffffffff\n      and\n        /* \"SimpleSwap.sol\":7790:7796  tokenB */\n      dup10\n        /* \"SimpleSwap.sol\":7790:7808  tokenB == tokenEKA */\n      0xffffffffffffffffffffffffffffffffffffffff\n      and\n      eq\n        /* \"SimpleSwap.sol\":7768:7808  tokenA == tokenEKB && tokenB == tokenEKA */\n    tag_182:\n        /* \"SimpleSwap.sol\":7707:7809  (tokenA == tokenEKA && tokenB == tokenEKB) || ... */\n    tag_181:\n        /* \"SimpleSwap.sol\":7685:7856  require(... */\n      tag_183\n      jumpi\n      mload(0x40)\n      0x08c379a000000000000000000000000000000000000000000000000000000000\n      dup2\n      mstore\n      0x04\n      add\n      tag_184\n      swap1\n      tag_129\n      jump\t// in\n    tag_184:\n      mload(0x40)\n      dup1\n      swap2\n      sub\n      swap1\n      revert\n    tag_183:\n        /* \"SimpleSwap.sol\":7889:7890  0 */\n      0x00\n        /* \"SimpleSwap.sol\":7875:7891  to != address(0) */\n      0xffffffffffffffffffffffffffffffffffffffff\n      and\n        /* \"SimpleSwap.sol\":7875:7877  to */\n      dup6\n        /* \"SimpleSwap.sol\":7875:7891  to != address(0) */\n      0xffffffffffffffffffffffffffffffffffffffff\n      and\n      sub\n        /* \"SimpleSwap.sol\":7867:7921  require(to != address(0), \"Invalid recipient address\") */\n      tag_185\n      jumpi\n      mload(0x40)\n      0x08c379a000000000000000000000000000000000000000000000000000000000\n      dup2\n      mstore\n      0x04\n      add\n      tag_186\n      swap1\n      tag_116\n      jump\t// in\n    tag_186:\n      mload(0x40)\n      dup1\n      swap2\n      sub\n      swap1\n      revert\n    tag_185:\n        /* \"SimpleSwap.sol\":7952:7953  0 */\n      0x00\n        /* \"SimpleSwap.sol\":7940:7949  liquidity */\n      dup9\n        /* \"SimpleSwap.sol\":7940:7953  liquidity > 0 */\n      gt\n        /* \"SimpleSwap.sol\":7932:7993  require(liquidity > 0, \"Liquidity must be greater than zero\") */\n      tag_187\n      jumpi\n      mload(0x40)\n      0x08c379a000000000000000000000000000000000000000000000000000000000\n      dup2\n      mstore\n      0x04\n      add\n      tag_188\n      swap1\n      tag_189\n      jump\t// in\n    tag_188:\n      mload(0x40)\n      dup1\n      swap2\n      sub\n      swap1\n      revert\n    tag_187:\n        /* \"SimpleSwap.sol\":8043:8052  liquidity */\n      dup8\n        /* \"SimpleSwap.sol\":8012:8027  liquidityShares */\n      0x03\n        /* \"SimpleSwap.sol\":8012:8039  liquidityShares[msg.sender] */\n      0x00\n        /* \"SimpleSwap.sol\":8028:8038  msg.sender */\n      caller\n        /* \"SimpleSwap.sol\":8012:8039  liquidityShares[msg.sender] */\n      0xffffffffffffffffffffffffffffffffffffffff\n      and\n      0xffffffffffffffffffffffffffffffffffffffff\n      and\n      dup2\n      mstore\n      0x20\n      add\n      swap1\n      dup2\n      mstore\n      0x20\n      add\n      0x00\n      keccak256\n      sload\n        /* \"SimpleSwap.sol\":8012:8052  liquidityShares[msg.sender] >= liquidity */\n      lt\n      iszero\n        /* \"SimpleSwap.sol\":8004:8086  require(liquidityShares[msg.sender] >= liquidity, \"Insufficient liquidity shares\") */\n      tag_190\n      jumpi\n      mload(0x40)\n      0x08c379a000000000000000000000000000000000000000000000000000000000\n      dup2\n      mstore\n      0x04\n      add\n      tag_191\n      swap1\n      tag_192\n      jump\t// in\n    tag_191:\n      mload(0x40)\n      dup1\n      swap2\n      sub\n      swap1\n      revert\n    tag_190:\n        /* \"SimpleSwap.sol\":8122:8123  0 */\n      0x00\n        /* \"SimpleSwap.sol\":8105:8119  totalLiquidity */\n      sload(0x02)\n        /* \"SimpleSwap.sol\":8105:8123  totalLiquidity > 0 */\n      gt\n        /* \"SimpleSwap.sol\":8097:8148  require(totalLiquidity > 0, \"No liquidity in pool\") */\n      tag_193\n      jumpi\n      mload(0x40)\n      0x08c379a000000000000000000000000000000000000000000000000000000000\n      dup2\n      mstore\n      0x04\n      add\n      tag_194\n      swap1\n      tag_195\n      jump\t// in\n    tag_194:\n      mload(0x40)\n      dup1\n      swap2\n      sub\n      swap1\n      revert\n    tag_193:\n        /* \"SimpleSwap.sol\":8203:8218  bool isEKAFirst */\n      0x00\n        /* \"SimpleSwap.sol\":8231:8239  tokenEKA */\n      immutable(\"0x2cc0d3dcb20652cd8f106aee76b6a7391771a130885634c0eb2bbe3cde796691\")\n        /* \"SimpleSwap.sol\":8221:8239  tokenA == tokenEKA */\n      0xffffffffffffffffffffffffffffffffffffffff\n      and\n        /* \"SimpleSwap.sol\":8221:8227  tokenA */\n      dup12\n        /* \"SimpleSwap.sol\":8221:8239  tokenA == tokenEKA */\n      0xffffffffffffffffffffffffffffffffffffffff\n      and\n      eq\n        /* \"SimpleSwap.sol\":8203:8239  bool isEKAFirst = tokenA == tokenEKA */\n      swap1\n      pop\n        /* \"SimpleSwap.sol\":8250:8266  uint256 reserveA */\n      0x00\n        /* \"SimpleSwap.sol\":8269:8279  isEKAFirst */\n      dup2\n        /* \"SimpleSwap.sol\":8269:8305  isEKAFirst ? reserveEKA : reserveEKB */\n      tag_196\n      jumpi\n        /* \"SimpleSwap.sol\":8295:8305  reserveEKB */\n      sload(0x01)\n        /* \"SimpleSwap.sol\":8269:8305  isEKAFirst ? reserveEKA : reserveEKB */\n      jump(tag_197)\n    tag_196:\n        /* \"SimpleSwap.sol\":8282:8292  reserveEKA */\n      sload(0x00)\n        /* \"SimpleSwap.sol\":8269:8305  isEKAFirst ? reserveEKA : reserveEKB */\n    tag_197:\n        /* \"SimpleSwap.sol\":8250:8305  uint256 reserveA = isEKAFirst ? reserveEKA : reserveEKB */\n      swap1\n      pop\n        /* \"SimpleSwap.sol\":8316:8332  uint256 reserveB */\n      0x00\n        /* \"SimpleSwap.sol\":8335:8345  isEKAFirst */\n      dup3\n        /* \"SimpleSwap.sol\":8335:8371  isEKAFirst ? reserveEKB : reserveEKA */\n      tag_198\n      jumpi\n        /* \"SimpleSwap.sol\":8361:8371  reserveEKA */\n      sload(0x00)\n        /* \"SimpleSwap.sol\":8335:8371  isEKAFirst ? reserveEKB : reserveEKA */\n      jump(tag_199)\n    tag_198:\n        /* \"SimpleSwap.sol\":8348:8358  reserveEKB */\n      sload(0x01)\n        /* \"SimpleSwap.sol\":8335:8371  isEKAFirst ? reserveEKB : reserveEKA */\n    tag_199:\n        /* \"SimpleSwap.sol\":8316:8371  uint256 reserveB = isEKAFirst ? reserveEKB : reserveEKA */\n      swap1\n      pop\n        /* \"SimpleSwap.sol\":8480:8494  totalLiquidity */\n      sload(0x02)\n        /* \"SimpleSwap.sol\":8468:8476  reserveA */\n      dup3\n        /* \"SimpleSwap.sol\":8456:8465  liquidity */\n      dup13\n        /* \"SimpleSwap.sol\":8456:8476  liquidity * reserveA */\n      tag_200\n      swap2\n      swap1\n      tag_94\n      jump\t// in\n    tag_200:\n        /* \"SimpleSwap.sol\":8455:8494  (liquidity * reserveA) / totalLiquidity */\n      tag_201\n      swap2\n      swap1\n      tag_100\n      jump\t// in\n    tag_201:\n        /* \"SimpleSwap.sol\":8445:8494  amountA = (liquidity * reserveA) / totalLiquidity */\n      swap6\n      pop\n        /* \"SimpleSwap.sol\":8540:8554  totalLiquidity */\n      sload(0x02)\n        /* \"SimpleSwap.sol\":8528:8536  reserveB */\n      dup2\n        /* \"SimpleSwap.sol\":8516:8525  liquidity */\n      dup13\n        /* \"SimpleSwap.sol\":8516:8536  liquidity * reserveB */\n      tag_202\n      swap2\n      swap1\n      tag_94\n      jump\t// in\n    tag_202:\n        /* \"SimpleSwap.sol\":8515:8554  (liquidity * reserveB) / totalLiquidity */\n      tag_203\n      swap2\n      swap1\n      tag_100\n      jump\t// in\n    tag_203:\n        /* \"SimpleSwap.sol\":8505:8554  amountB = (liquidity * reserveB) / totalLiquidity */\n      swap5\n      pop\n        /* \"SimpleSwap.sol\":8652:8662  amountAMin */\n      dup10\n        /* \"SimpleSwap.sol\":8641:8648  amountA */\n      dup7\n        /* \"SimpleSwap.sol\":8641:8662  amountA >= amountAMin */\n      lt\n      iszero\n        /* \"SimpleSwap.sol\":8633:8688  require(amountA >= amountAMin, \"Insufficient A amount\") */\n      tag_204\n      jumpi\n      mload(0x40)\n      0x08c379a000000000000000000000000000000000000000000000000000000000\n      dup2\n      mstore\n      0x04\n      add\n      tag_205\n      swap1\n      tag_206\n      jump\t// in\n    tag_205:\n      mload(0x40)\n      dup1\n      swap2\n      sub\n      swap1\n      revert\n    tag_204:\n        /* \"SimpleSwap.sol\":8718:8728  amountBMin */\n      dup9\n        /* \"SimpleSwap.sol\":8707:8714  amountB */\n      dup6\n        /* \"SimpleSwap.sol\":8707:8728  amountB >= amountBMin */\n      lt\n      iszero\n        /* \"SimpleSwap.sol\":8699:8754  require(amountB >= amountBMin, \"Insufficient B amount\") */\n      tag_207\n      jumpi\n      mload(0x40)\n      0x08c379a000000000000000000000000000000000000000000000000000000000\n      dup2\n      mstore\n      0x04\n      add\n      tag_208\n      swap1\n      tag_209\n      jump\t// in\n    tag_208:\n      mload(0x40)\n      dup1\n      swap2\n      sub\n      swap1\n      revert\n    tag_207:\n        /* \"SimpleSwap.sol\":8807:8817  isEKAFirst */\n      dup3\n        /* \"SimpleSwap.sol\":8803:8993  if (isEKAFirst) {... */\n      iszero\n      tag_210\n      jumpi\n        /* \"SimpleSwap.sol\":8848:8855  amountA */\n      dup6\n        /* \"SimpleSwap.sol\":8834:8844  reserveEKA */\n      0x00\n      0x00\n        /* \"SimpleSwap.sol\":8834:8855  reserveEKA -= amountA */\n      dup3\n      dup3\n      sload\n      tag_211\n      swap2\n      swap1\n      tag_212\n      jump\t// in\n    tag_211:\n      swap3\n      pop\n      pop\n      dup2\n      swap1\n      sstore\n      pop\n        /* \"SimpleSwap.sol\":8884:8891  amountB */\n      dup5\n        /* \"SimpleSwap.sol\":8870:8880  reserveEKB */\n      0x01\n      0x00\n        /* \"SimpleSwap.sol\":8870:8891  reserveEKB -= amountB */\n      dup3\n      dup3\n      sload\n      tag_213\n      swap2\n      swap1\n      tag_212\n      jump\t// in\n    tag_213:\n      swap3\n      pop\n      pop\n      dup2\n      swap1\n      sstore\n      pop\n        /* \"SimpleSwap.sol\":8803:8993  if (isEKAFirst) {... */\n      jump(tag_214)\n    tag_210:\n        /* \"SimpleSwap.sol\":8938:8945  amountA */\n      dup6\n        /* \"SimpleSwap.sol\":8924:8934  reserveEKB */\n      0x01\n      0x00\n        /* \"SimpleSwap.sol\":8924:8945  reserveEKB -= amountA */\n      dup3\n      dup3\n      sload\n      tag_215\n      swap2\n      swap1\n      tag_212\n      jump\t// in\n    tag_215:\n      swap3\n      pop\n      pop\n      dup2\n      swap1\n      sstore\n      pop\n        /* \"SimpleSwap.sol\":8974:8981  amountB */\n      dup5\n        /* \"SimpleSwap.sol\":8960:8970  reserveEKA */\n      0x00\n      0x00\n        /* \"SimpleSwap.sol\":8960:8981  reserveEKA -= amountB */\n      dup3\n      dup3\n      sload\n      tag_216\n      swap2\n      swap1\n      tag_212\n      jump\t// in\n    tag_216:\n      swap3\n      pop\n      pop\n      dup2\n      swap1\n      sstore\n      pop\n        /* \"SimpleSwap.sol\":8803:8993  if (isEKAFirst) {... */\n    tag_214:\n        /* \"SimpleSwap.sol\":9069:9078  liquidity */\n      dup11\n        /* \"SimpleSwap.sol\":9051:9065  totalLiquidity */\n      0x02\n      0x00\n        /* \"SimpleSwap.sol\":9051:9078  totalLiquidity -= liquidity */\n      dup3\n      dup3\n      sload\n      tag_217\n      swap2\n      swap1\n      tag_212\n      jump\t// in\n    tag_217:\n      swap3\n      pop\n      pop\n      dup2\n      swap1\n      sstore\n      pop\n        /* \"SimpleSwap.sol\":9120:9129  liquidity */\n      dup11\n        /* \"SimpleSwap.sol\":9089:9104  liquidityShares */\n      0x03\n        /* \"SimpleSwap.sol\":9089:9116  liquidityShares[msg.sender] */\n      0x00\n        /* \"SimpleSwap.sol\":9105:9115  msg.sender */\n      caller\n        /* \"SimpleSwap.sol\":9089:9116  liquidityShares[msg.sender] */\n      0xffffffffffffffffffffffffffffffffffffffff\n      and\n      0xffffffffffffffffffffffffffffffffffffffff\n      and\n      dup2\n      mstore\n      0x20\n      add\n      swap1\n      dup2\n      mstore\n      0x20\n      add\n      0x00\n      keccak256\n      0x00\n        /* \"SimpleSwap.sol\":9089:9129  liquidityShares[msg.sender] -= liquidity */\n      dup3\n      dup3\n      sload\n      tag_218\n      swap2\n      swap1\n      tag_212\n      jump\t// in\n    tag_218:\n      swap3\n      pop\n      pop\n      dup2\n      swap1\n      sstore\n      pop\n        /* \"SimpleSwap.sol\":9206:9212  tokenA */\n      dup13\n        /* \"SimpleSwap.sol\":9199:9222  IERC20(tokenA).transfer */\n      0xffffffffffffffffffffffffffffffffffffffff\n      and\n      0xa9059cbb\n        /* \"SimpleSwap.sol\":9223:9225  to */\n      dup10\n        /* \"SimpleSwap.sol\":9227:9234  amountA */\n      dup9\n        /* \"SimpleSwap.sol\":9199:9235  IERC20(tokenA).transfer(to, amountA) */\n      mload(0x40)\n      dup4\n      0xffffffff\n      and\n      0xe0\n      shl\n      dup2\n      mstore\n      0x04\n      add\n      tag_219\n      swap3\n      swap2\n      swap1\n      tag_145\n      jump\t// in\n    tag_219:\n      0x20\n      mload(0x40)\n      dup1\n      dup4\n      sub\n      dup2\n      0x00\n      dup8\n      gas\n      call\n      iszero\n      dup1\n      iszero\n      tag_221\n      jumpi\n      returndatacopy(0x00, 0x00, returndatasize)\n      revert(0x00, returndatasize)\n    tag_221:\n      pop\n      pop\n      pop\n      pop\n      mload(0x40)\n      returndatasize\n      not(0x1f)\n      0x1f\n      dup3\n      add\n      and\n      dup3\n      add\n      dup1\n      0x40\n      mstore\n      pop\n      dup2\n      add\n      swap1\n      tag_222\n      swap2\n      swap1\n      tag_149\n      jump\t// in\n    tag_222:\n        /* \"SimpleSwap.sol\":9191:9262  require(IERC20(tokenA).transfer(to, amountA), \"TokenA transfer failed\") */\n      tag_223\n      jumpi\n      mload(0x40)\n      0x08c379a000000000000000000000000000000000000000000000000000000000\n      dup2\n      mstore\n      0x04\n      add\n      tag_224\n      swap1\n      tag_225\n      jump\t// in\n    tag_224:\n      mload(0x40)\n      dup1\n      swap2\n      sub\n      swap1\n      revert\n    tag_223:\n        /* \"SimpleSwap.sol\":9288:9294  tokenB */\n      dup12\n        /* \"SimpleSwap.sol\":9281:9304  IERC20(tokenB).transfer */\n      0xffffffffffffffffffffffffffffffffffffffff\n      and\n      0xa9059cbb\n        /* \"SimpleSwap.sol\":9305:9307  to */\n      dup10\n        /* \"SimpleSwap.sol\":9309:9316  amountB */\n      dup8\n        /* \"SimpleSwap.sol\":9281:9317  IERC20(tokenB).transfer(to, amountB) */\n      mload(0x40)\n      dup4\n      0xffffffff\n      and\n      0xe0\n      shl\n      dup2\n      mstore\n      0x04\n      add\n      tag_226\n      swap3\n      swap2\n      swap1\n      tag_145\n      jump\t// in\n    tag_226:\n      0x20\n      mload(0x40)\n      dup1\n      dup4\n      sub\n      dup2\n      0x00\n      dup8\n      gas\n      call\n      iszero\n      dup1\n      iszero\n      tag_228\n      jumpi\n      returndatacopy(0x00, 0x00, returndatasize)\n      revert(0x00, returndatasize)\n    tag_228:\n      pop\n      pop\n      pop\n      pop\n      mload(0x40)\n      returndatasize\n      not(0x1f)\n      0x1f\n      dup3\n      add\n      and\n      dup3\n      add\n      dup1\n      0x40\n      mstore\n      pop\n      dup2\n      add\n      swap1\n      tag_229\n      swap2\n      swap1\n      tag_149\n      jump\t// in\n    tag_229:\n        /* \"SimpleSwap.sol\":9273:9344  require(IERC20(tokenB).transfer(to, amountB), \"TokenB transfer failed\") */\n      tag_230\n      jumpi\n      mload(0x40)\n      0x08c379a000000000000000000000000000000000000000000000000000000000\n      dup2\n      mstore\n      0x04\n      add\n      tag_231\n      swap1\n      tag_232\n      jump\t// in\n    tag_231:\n      mload(0x40)\n      dup1\n      swap2\n      sub\n      swap1\n      revert\n    tag_230:\n        /* \"SimpleSwap.sol\":9387:9389  to */\n      dup8\n        /* \"SimpleSwap.sol\":9370:9419  LiquidityRemoved(to, amountA, amountB, liquidity) */\n      0xffffffffffffffffffffffffffffffffffffffff\n      and\n      0x1dc8bb69df2b8e91fbdcbfcf93d951b3f0000f085a95fe3f7946d6161439245d\n        /* \"SimpleSwap.sol\":9391:9398  amountA */\n      dup8\n        /* \"SimpleSwap.sol\":9400:9407  amountB */\n      dup8\n        /* \"SimpleSwap.sol\":9409:9418  liquidity */\n      dup15\n        /* \"SimpleSwap.sol\":9370:9419  LiquidityRemoved(to, amountA, amountB, liquidity) */\n      mload(0x40)\n      tag_233\n      swap4\n      swap3\n      swap2\n      swap1\n      tag_81\n      jump\t// in\n    tag_233:\n      mload(0x40)\n      dup1\n      swap2\n      sub\n      swap1\n      log2\n        /* \"SimpleSwap.sol\":7612:9427  {... */\n      pop\n      pop\n      pop\n        /* \"SimpleSwap.sol\":7327:9427  function removeLiquidity(... */\n      pop\n      swap8\n      pop\n      swap8\n      swap6\n      pop\n      pop\n      pop\n      pop\n      pop\n      pop\n      jump\t// out\n        /* \"SimpleSwap.sol\":15192:15322  function getLiquidityShares(address user) external view returns (uint256 shares) {... */\n    tag_70:\n        /* \"SimpleSwap.sol\":15257:15271  uint256 shares */\n      0x00\n        /* \"SimpleSwap.sol\":15293:15308  liquidityShares */\n      0x03\n        /* \"SimpleSwap.sol\":15293:15314  liquidityShares[user] */\n      0x00\n        /* \"SimpleSwap.sol\":15309:15313  user */\n      dup4\n        /* \"SimpleSwap.sol\":15293:15314  liquidityShares[user] */\n      0xffffffffffffffffffffffffffffffffffffffff\n      and\n      0xffffffffffffffffffffffffffffffffffffffff\n      and\n      dup2\n      mstore\n      0x20\n      add\n      swap1\n      dup2\n      mstore\n      0x20\n      add\n      0x00\n      keccak256\n      sload\n        /* \"SimpleSwap.sol\":15284:15314  shares = liquidityShares[user] */\n      swap1\n      pop\n        /* \"SimpleSwap.sol\":15192:15322  function getLiquidityShares(address user) external view returns (uint256 shares) {... */\n      swap2\n      swap1\n      pop\n      jump\t// out\n        /* \"SimpleSwap.sol\":15750:15905  function getTokenPair() external view returns (address _tokenEKA, address _tokenEKB) {... */\n    tag_73:\n        /* \"SimpleSwap.sol\":15797:15814  address _tokenEKA */\n      0x00\n        /* \"SimpleSwap.sol\":15816:15833  address _tokenEKB */\n      0x00\n        /* \"SimpleSwap.sol\":15858:15866  tokenEKA */\n      immutable(\"0x2cc0d3dcb20652cd8f106aee76b6a7391771a130885634c0eb2bbe3cde796691\")\n        /* \"SimpleSwap.sol\":15846:15866  _tokenEKA = tokenEKA */\n      swap2\n      pop\n        /* \"SimpleSwap.sol\":15889:15897  tokenEKB */\n      immutable(\"0xb2219b801710730437d0358146c829b62297a059eceaa0b40b27aea2daecf595\")\n        /* \"SimpleSwap.sol\":15877:15897  _tokenEKB = tokenEKB */\n      swap1\n      pop\n        /* \"SimpleSwap.sol\":15750:15905  function getTokenPair() external view returns (address _tokenEKA, address _tokenEKB) {... */\n      swap1\n      swap2\n      jump\t// out\n        /* \"SimpleSwap.sol\":3569:6705  function addLiquidity(... */\n    tag_79:\n        /* \"SimpleSwap.sol\":3855:3870  uint256 amountA */\n      0x00\n        /* \"SimpleSwap.sol\":3872:3887  uint256 amountB */\n      0x00\n        /* \"SimpleSwap.sol\":3889:3906  uint256 liquidity */\n      0x00\n        /* \"SimpleSwap.sol\":3836:3844  deadline */\n      dup4\n        /* \"SimpleSwap.sol\":2759:2774  block.timestamp */\n      timestamp\n        /* \"SimpleSwap.sol\":2747:2755  deadline */\n      dup2\n        /* \"SimpleSwap.sol\":2747:2774  deadline >= block.timestamp */\n      lt\n      iszero\n        /* \"SimpleSwap.sol\":2739:2798  require(deadline >= block.timestamp, \"Transaction expired\") */\n      tag_237\n      jumpi\n      mload(0x40)\n      0x08c379a000000000000000000000000000000000000000000000000000000000\n      dup2\n      mstore\n      0x04\n      add\n      tag_238\n      swap1\n      tag_106\n      jump\t// in\n    tag_238:\n      mload(0x40)\n      dup1\n      swap2\n      sub\n      swap1\n      revert\n    tag_237:\n        /* \"SimpleSwap.sol\":4014:4022  tokenEKA */\n      immutable(\"0x2cc0d3dcb20652cd8f106aee76b6a7391771a130885634c0eb2bbe3cde796691\")\n        /* \"SimpleSwap.sol\":4004:4022  tokenA == tokenEKA */\n      0xffffffffffffffffffffffffffffffffffffffff\n      and\n        /* \"SimpleSwap.sol\":4004:4010  tokenA */\n      dup13\n        /* \"SimpleSwap.sol\":4004:4022  tokenA == tokenEKA */\n      0xffffffffffffffffffffffffffffffffffffffff\n      and\n      eq\n        /* \"SimpleSwap.sol\":4004:4044  tokenA == tokenEKA && tokenB == tokenEKB */\n      dup1\n      iszero\n      tag_240\n      jumpi\n      pop\n        /* \"SimpleSwap.sol\":4036:4044  tokenEKB */\n      immutable(\"0xb2219b801710730437d0358146c829b62297a059eceaa0b40b27aea2daecf595\")\n        /* \"SimpleSwap.sol\":4026:4044  tokenB == tokenEKB */\n      0xffffffffffffffffffffffffffffffffffffffff\n      and\n        /* \"SimpleSwap.sol\":4026:4032  tokenB */\n      dup12\n        /* \"SimpleSwap.sol\":4026:4044  tokenB == tokenEKB */\n      0xffffffffffffffffffffffffffffffffffffffff\n      and\n      eq\n        /* \"SimpleSwap.sol\":4004:4044  tokenA == tokenEKA && tokenB == tokenEKB */\n    tag_240:\n        /* \"SimpleSwap.sol\":4003:4105  (tokenA == tokenEKA && tokenB == tokenEKB) || ... */\n      dup1\n      tag_241\n      jumpi\n      pop\n        /* \"SimpleSwap.sol\":4074:4082  tokenEKB */\n      immutable(\"0xb2219b801710730437d0358146c829b62297a059eceaa0b40b27aea2daecf595\")\n        /* \"SimpleSwap.sol\":4064:4082  tokenA == tokenEKB */\n      0xffffffffffffffffffffffffffffffffffffffff\n      and\n        /* \"SimpleSwap.sol\":4064:4070  tokenA */\n      dup13\n        /* \"SimpleSwap.sol\":4064:4082  tokenA == tokenEKB */\n      0xffffffffffffffffffffffffffffffffffffffff\n      and\n      eq\n        /* \"SimpleSwap.sol\":4064:4104  tokenA == tokenEKB && tokenB == tokenEKA */\n      dup1\n      iszero\n      tag_242\n      jumpi\n      pop\n        /* \"SimpleSwap.sol\":4096:4104  tokenEKA */\n      immutable(\"0x2cc0d3dcb20652cd8f106aee76b6a7391771a130885634c0eb2bbe3cde796691\")\n        /* \"SimpleSwap.sol\":4086:4104  tokenB == tokenEKA */\n      0xffffffffffffffffffffffffffffffffffffffff\n      and\n        /* \"SimpleSwap.sol\":4086:4092  tokenB */\n      dup12\n        /* \"SimpleSwap.sol\":4086:4104  tokenB == tokenEKA */\n      0xffffffffffffffffffffffffffffffffffffffff\n      and\n      eq\n        /* \"SimpleSwap.sol\":4064:4104  tokenA == tokenEKB && tokenB == tokenEKA */\n    tag_242:\n        /* \"SimpleSwap.sol\":4003:4105  (tokenA == tokenEKA && tokenB == tokenEKB) || ... */\n    tag_241:\n        /* \"SimpleSwap.sol\":3981:4152  require(... */\n      tag_243\n      jumpi\n      mload(0x40)\n      0x08c379a000000000000000000000000000000000000000000000000000000000\n      dup2\n      mstore\n      0x04\n      add\n      tag_244\n      swap1\n      tag_129\n      jump\t// in\n    tag_244:\n      mload(0x40)\n      dup1\n      swap2\n      sub\n      swap1\n      revert\n    tag_243:\n        /* \"SimpleSwap.sol\":4185:4186  0 */\n      0x00\n        /* \"SimpleSwap.sol\":4171:4187  to != address(0) */\n      0xffffffffffffffffffffffffffffffffffffffff\n      and\n        /* \"SimpleSwap.sol\":4171:4173  to */\n      dup7\n        /* \"SimpleSwap.sol\":4171:4187  to != address(0) */\n      0xffffffffffffffffffffffffffffffffffffffff\n      and\n      sub\n        /* \"SimpleSwap.sol\":4163:4217  require(to != address(0), \"Invalid recipient address\") */\n      tag_245\n      jumpi\n      mload(0x40)\n      0x08c379a000000000000000000000000000000000000000000000000000000000\n      dup2\n      mstore\n      0x04\n      add\n      tag_246\n      swap1\n      tag_116\n      jump\t// in\n    tag_246:\n      mload(0x40)\n      dup1\n      swap2\n      sub\n      swap1\n      revert\n    tag_245:\n        /* \"SimpleSwap.sol\":4307:4322  bool isEKAFirst */\n      0x00\n        /* \"SimpleSwap.sol\":4335:4343  tokenEKA */\n      immutable(\"0x2cc0d3dcb20652cd8f106aee76b6a7391771a130885634c0eb2bbe3cde796691\")\n        /* \"SimpleSwap.sol\":4325:4343  tokenA == tokenEKA */\n      0xffffffffffffffffffffffffffffffffffffffff\n      and\n        /* \"SimpleSwap.sol\":4325:4331  tokenA */\n      dup14\n        /* \"SimpleSwap.sol\":4325:4343  tokenA == tokenEKA */\n      0xffffffffffffffffffffffffffffffffffffffff\n      and\n      eq\n        /* \"SimpleSwap.sol\":4307:4343  bool isEKAFirst = tokenA == tokenEKA */\n      swap1\n      pop\n        /* \"SimpleSwap.sol\":4450:4451  0 */\n      0x00\n        /* \"SimpleSwap.sol\":4432:4446  totalLiquidity */\n      sload(0x02)\n        /* \"SimpleSwap.sol\":4432:4451  totalLiquidity == 0 */\n      sub\n        /* \"SimpleSwap.sol\":4428:5467  if (totalLiquidity == 0) {... */\n      tag_247\n      jumpi\n        /* \"SimpleSwap.sol\":4542:4556  amountADesired */\n      dup11\n        /* \"SimpleSwap.sol\":4532:4556  amountA = amountADesired */\n      swap5\n      pop\n        /* \"SimpleSwap.sol\":4581:4595  amountBDesired */\n      dup10\n        /* \"SimpleSwap.sol\":4571:4595  amountB = amountBDesired */\n      swap4\n      pop\n        /* \"SimpleSwap.sol\":4428:5467  if (totalLiquidity == 0) {... */\n      jump(tag_248)\n    tag_247:\n        /* \"SimpleSwap.sol\":4696:4712  uint256 reserveA */\n      0x00\n        /* \"SimpleSwap.sol\":4715:4725  isEKAFirst */\n      dup2\n        /* \"SimpleSwap.sol\":4715:4751  isEKAFirst ? reserveEKA : reserveEKB */\n      tag_249\n      jumpi\n        /* \"SimpleSwap.sol\":4741:4751  reserveEKB */\n      sload(0x01)\n        /* \"SimpleSwap.sol\":4715:4751  isEKAFirst ? reserveEKA : reserveEKB */\n      jump(tag_250)\n    tag_249:\n        /* \"SimpleSwap.sol\":4728:4738  reserveEKA */\n      sload(0x00)\n        /* \"SimpleSwap.sol\":4715:4751  isEKAFirst ? reserveEKA : reserveEKB */\n    tag_250:\n        /* \"SimpleSwap.sol\":4696:4751  uint256 reserveA = isEKAFirst ? reserveEKA : reserveEKB */\n      swap1\n      pop\n        /* \"SimpleSwap.sol\":4766:4782  uint256 reserveB */\n      0x00\n        /* \"SimpleSwap.sol\":4785:4795  isEKAFirst */\n      dup3\n        /* \"SimpleSwap.sol\":4785:4821  isEKAFirst ? reserveEKB : reserveEKA */\n      tag_251\n      jumpi\n        /* \"SimpleSwap.sol\":4811:4821  reserveEKA */\n      sload(0x00)\n        /* \"SimpleSwap.sol\":4785:4821  isEKAFirst ? reserveEKB : reserveEKA */\n      jump(tag_252)\n    tag_251:\n        /* \"SimpleSwap.sol\":4798:4808  reserveEKB */\n      sload(0x01)\n        /* \"SimpleSwap.sol\":4785:4821  isEKAFirst ? reserveEKB : reserveEKA */\n    tag_252:\n        /* \"SimpleSwap.sol\":4766:4821  uint256 reserveB = isEKAFirst ? reserveEKB : reserveEKA */\n      swap1\n      pop\n        /* \"SimpleSwap.sol\":4850:4872  uint256 amountBOptimal */\n      0x00\n        /* \"SimpleSwap.sol\":4905:4913  reserveA */\n      dup3\n        /* \"SimpleSwap.sol\":4893:4901  reserveB */\n      dup3\n        /* \"SimpleSwap.sol\":4876:4890  amountADesired */\n      dup16\n        /* \"SimpleSwap.sol\":4876:4901  amountADesired * reserveB */\n      tag_253\n      swap2\n      swap1\n      tag_94\n      jump\t// in\n    tag_253:\n        /* \"SimpleSwap.sol\":4875:4913  (amountADesired * reserveB) / reserveA */\n      tag_254\n      swap2\n      swap1\n      tag_100\n      jump\t// in\n    tag_254:\n        /* \"SimpleSwap.sol\":4850:4913  uint256 amountBOptimal = (amountADesired * reserveB) / reserveA */\n      swap1\n      pop\n        /* \"SimpleSwap.sol\":4950:4964  amountBDesired */\n      dup13\n        /* \"SimpleSwap.sol\":4932:4946  amountBOptimal */\n      dup2\n        /* \"SimpleSwap.sol\":4932:4964  amountBOptimal <= amountBDesired */\n      gt\n        /* \"SimpleSwap.sol\":4928:5456  if (amountBOptimal <= amountBDesired) {... */\n      tag_255\n      jumpi\n        /* \"SimpleSwap.sol\":5011:5021  amountBMin */\n      dup11\n        /* \"SimpleSwap.sol\":4993:5007  amountBOptimal */\n      dup2\n        /* \"SimpleSwap.sol\":4993:5021  amountBOptimal >= amountBMin */\n      lt\n      iszero\n        /* \"SimpleSwap.sol\":4985:5047  require(amountBOptimal >= amountBMin, \"Insufficient B amount\") */\n      tag_256\n      jumpi\n      mload(0x40)\n      0x08c379a000000000000000000000000000000000000000000000000000000000\n      dup2\n      mstore\n      0x04\n      add\n      tag_257\n      swap1\n      tag_209\n      jump\t// in\n    tag_257:\n      mload(0x40)\n      dup1\n      swap2\n      sub\n      swap1\n      revert\n    tag_256:\n        /* \"SimpleSwap.sol\":5076:5090  amountADesired */\n      dup14\n        /* \"SimpleSwap.sol\":5066:5090  amountA = amountADesired */\n      swap8\n      pop\n        /* \"SimpleSwap.sol\":5119:5133  amountBOptimal */\n      dup1\n        /* \"SimpleSwap.sol\":5109:5133  amountB = amountBOptimal */\n      swap7\n      pop\n        /* \"SimpleSwap.sol\":4928:5456  if (amountBOptimal <= amountBDesired) {... */\n      jump(tag_258)\n    tag_255:\n        /* \"SimpleSwap.sol\":5174:5196  uint256 amountAOptimal */\n      0x00\n        /* \"SimpleSwap.sol\":5229:5237  reserveB */\n      dup3\n        /* \"SimpleSwap.sol\":5217:5225  reserveA */\n      dup5\n        /* \"SimpleSwap.sol\":5200:5214  amountBDesired */\n      dup16\n        /* \"SimpleSwap.sol\":5200:5225  amountBDesired * reserveA */\n      tag_259\n      swap2\n      swap1\n      tag_94\n      jump\t// in\n    tag_259:\n        /* \"SimpleSwap.sol\":5199:5237  (amountBDesired * reserveA) / reserveB */\n      tag_260\n      swap2\n      swap1\n      tag_100\n      jump\t// in\n    tag_260:\n        /* \"SimpleSwap.sol\":5174:5237  uint256 amountAOptimal = (amountBDesired * reserveA) / reserveB */\n      swap1\n      pop\n        /* \"SimpleSwap.sol\":5282:5296  amountADesired */\n      dup15\n        /* \"SimpleSwap.sol\":5264:5278  amountAOptimal */\n      dup2\n        /* \"SimpleSwap.sol\":5264:5296  amountAOptimal <= amountADesired */\n      gt\n      iszero\n        /* \"SimpleSwap.sol\":5264:5328  amountAOptimal <= amountADesired && amountAOptimal >= amountAMin */\n      dup1\n      iszero\n      tag_261\n      jumpi\n      pop\n        /* \"SimpleSwap.sol\":5318:5328  amountAMin */\n      dup13\n        /* \"SimpleSwap.sol\":5300:5314  amountAOptimal */\n      dup2\n        /* \"SimpleSwap.sol\":5300:5328  amountAOptimal >= amountAMin */\n      lt\n      iszero\n        /* \"SimpleSwap.sol\":5264:5328  amountAOptimal <= amountADesired && amountAOptimal >= amountAMin */\n    tag_261:\n        /* \"SimpleSwap.sol\":5256:5354  require(amountAOptimal <= amountADesired && amountAOptimal >= amountAMin, \"Insufficient A amount\") */\n      tag_262\n      jumpi\n      mload(0x40)\n      0x08c379a000000000000000000000000000000000000000000000000000000000\n      dup2\n      mstore\n      0x04\n      add\n      tag_263\n      swap1\n      tag_206\n      jump\t// in\n    tag_263:\n      mload(0x40)\n      dup1\n      swap2\n      sub\n      swap1\n      revert\n    tag_262:\n        /* \"SimpleSwap.sol\":5383:5397  amountAOptimal */\n      dup1\n        /* \"SimpleSwap.sol\":5373:5397  amountA = amountAOptimal */\n      swap9\n      pop\n        /* \"SimpleSwap.sol\":5426:5440  amountBDesired */\n      dup14\n        /* \"SimpleSwap.sol\":5416:5440  amountB = amountBDesired */\n      swap8\n      pop\n        /* \"SimpleSwap.sol\":5155:5456  {... */\n      pop\n        /* \"SimpleSwap.sol\":4928:5456  if (amountBOptimal <= amountBDesired) {... */\n    tag_258:\n        /* \"SimpleSwap.sol\":4613:5467  {... */\n      pop\n      pop\n      pop\n        /* \"SimpleSwap.sol\":4428:5467  if (totalLiquidity == 0) {... */\n    tag_248:\n        /* \"SimpleSwap.sol\":5552:5558  tokenA */\n      dup13\n        /* \"SimpleSwap.sol\":5545:5572  IERC20(tokenA).transferFrom */\n      0xffffffffffffffffffffffffffffffffffffffff\n      and\n      0x23b872dd\n        /* \"SimpleSwap.sol\":5573:5583  msg.sender */\n      caller\n        /* \"SimpleSwap.sol\":5593:5597  this */\n      address\n        /* \"SimpleSwap.sol\":5600:5607  amountA */\n      dup9\n        /* \"SimpleSwap.sol\":5545:5608  IERC20(tokenA).transferFrom(msg.sender, address(this), amountA) */\n      mload(0x40)\n      dup5\n      0xffffffff\n      and\n      0xe0\n      shl\n      dup2\n      mstore\n      0x04\n      add\n      tag_264\n      swap4\n      swap3\n      swap2\n      swap1\n      tag_265\n      jump\t// in\n    tag_264:\n      0x20\n      mload(0x40)\n      dup1\n      dup4\n      sub\n      dup2\n      0x00\n      dup8\n      gas\n      call\n      iszero\n      dup1\n      iszero\n      tag_267\n      jumpi\n      returndatacopy(0x00, 0x00, returndatasize)\n      revert(0x00, returndatasize)\n    tag_267:\n      pop\n      pop\n      pop\n      pop\n      mload(0x40)\n      returndatasize\n      not(0x1f)\n      0x1f\n      dup3\n      add\n      and\n      dup3\n      add\n      dup1\n      0x40\n      mstore\n      pop\n      dup2\n      add\n      swap1\n      tag_268\n      swap2\n      swap1\n      tag_149\n      jump\t// in\n    tag_268:\n        /* \"SimpleSwap.sol\":5537:5635  require(IERC20(tokenA).transferFrom(msg.sender, address(this), amountA), \"TokenA transfer failed\") */\n      tag_269\n      jumpi\n      mload(0x40)\n      0x08c379a000000000000000000000000000000000000000000000000000000000\n      dup2\n      mstore\n      0x04\n      add\n      tag_270\n      swap1\n      tag_225\n      jump\t// in\n    tag_270:\n      mload(0x40)\n      dup1\n      swap2\n      sub\n      swap1\n      revert\n    tag_269:\n        /* \"SimpleSwap.sol\":5661:5667  tokenB */\n      dup12\n        /* \"SimpleSwap.sol\":5654:5681  IERC20(tokenB).transferFrom */\n      0xffffffffffffffffffffffffffffffffffffffff\n      and\n      0x23b872dd\n        /* \"SimpleSwap.sol\":5682:5692  msg.sender */\n      caller\n        /* \"SimpleSwap.sol\":5702:5706  this */\n      address\n        /* \"SimpleSwap.sol\":5709:5716  amountB */\n      dup8\n        /* \"SimpleSwap.sol\":5654:5717  IERC20(tokenB).transferFrom(msg.sender, address(this), amountB) */\n      mload(0x40)\n      dup5\n      0xffffffff\n      and\n      0xe0\n      shl\n      dup2\n      mstore\n      0x04\n      add\n      tag_271\n      swap4\n      swap3\n      swap2\n      swap1\n      tag_265\n      jump\t// in\n    tag_271:\n      0x20\n      mload(0x40)\n      dup1\n      dup4\n      sub\n      dup2\n      0x00\n      dup8\n      gas\n      call\n      iszero\n      dup1\n      iszero\n      tag_273\n      jumpi\n      returndatacopy(0x00, 0x00, returndatasize)\n      revert(0x00, returndatasize)\n    tag_273:\n      pop\n      pop\n      pop\n      pop\n      mload(0x40)\n      returndatasize\n      not(0x1f)\n      0x1f\n      dup3\n      add\n      and\n      dup3\n      add\n      dup1\n      0x40\n      mstore\n      pop\n      dup2\n      add\n      swap1\n      tag_274\n      swap2\n      swap1\n      tag_149\n      jump\t// in\n    tag_274:\n        /* \"SimpleSwap.sol\":5646:5744  require(IERC20(tokenB).transferFrom(msg.sender, address(this), amountB), \"TokenB transfer failed\") */\n      tag_275\n      jumpi\n      mload(0x40)\n      0x08c379a000000000000000000000000000000000000000000000000000000000\n      dup2\n      mstore\n      0x04\n      add\n      tag_276\n      swap1\n      tag_232\n      jump\t// in\n    tag_276:\n      mload(0x40)\n      dup1\n      swap2\n      sub\n      swap1\n      revert\n    tag_275:\n        /* \"SimpleSwap.sol\":5834:5835  0 */\n      0x00\n        /* \"SimpleSwap.sol\":5816:5830  totalLiquidity */\n      sload(0x02)\n        /* \"SimpleSwap.sol\":5816:5835  totalLiquidity == 0 */\n      sub\n        /* \"SimpleSwap.sol\":5812:6182  if (totalLiquidity == 0) {... */\n      tag_277\n      jumpi\n        /* \"SimpleSwap.sol\":5927:5950  sqrt(amountA * amountB) */\n      tag_278\n        /* \"SimpleSwap.sol\":5942:5949  amountB */\n      dup5\n        /* \"SimpleSwap.sol\":5932:5939  amountA */\n      dup7\n        /* \"SimpleSwap.sol\":5932:5949  amountA * amountB */\n      tag_279\n      swap2\n      swap1\n      tag_94\n      jump\t// in\n    tag_279:\n        /* \"SimpleSwap.sol\":5927:5931  sqrt */\n      tag_280\n        /* \"SimpleSwap.sol\":5927:5950  sqrt(amountA * amountB) */\n      jump\t// in\n    tag_278:\n        /* \"SimpleSwap.sol\":5915:5950  liquidity = sqrt(amountA * amountB) */\n      swap3\n      pop\n        /* \"SimpleSwap.sol\":5812:6182  if (totalLiquidity == 0) {... */\n      jump(tag_281)\n    tag_277:\n        /* \"SimpleSwap.sol\":6051:6067  uint256 reserveA */\n      0x00\n        /* \"SimpleSwap.sol\":6070:6080  isEKAFirst */\n      dup2\n        /* \"SimpleSwap.sol\":6070:6106  isEKAFirst ? reserveEKA : reserveEKB */\n      tag_282\n      jumpi\n        /* \"SimpleSwap.sol\":6096:6106  reserveEKB */\n      sload(0x01)\n        /* \"SimpleSwap.sol\":6070:6106  isEKAFirst ? reserveEKA : reserveEKB */\n      jump(tag_283)\n    tag_282:\n        /* \"SimpleSwap.sol\":6083:6093  reserveEKA */\n      sload(0x00)\n        /* \"SimpleSwap.sol\":6070:6106  isEKAFirst ? reserveEKA : reserveEKB */\n    tag_283:\n        /* \"SimpleSwap.sol\":6051:6106  uint256 reserveA = isEKAFirst ? reserveEKA : reserveEKB */\n      swap1\n      pop\n        /* \"SimpleSwap.sol\":6162:6170  reserveA */\n      dup1\n        /* \"SimpleSwap.sol\":6144:6158  totalLiquidity */\n      sload(0x02)\n        /* \"SimpleSwap.sol\":6134:6141  amountA */\n      dup8\n        /* \"SimpleSwap.sol\":6134:6158  amountA * totalLiquidity */\n      tag_284\n      swap2\n      swap1\n      tag_94\n      jump\t// in\n    tag_284:\n        /* \"SimpleSwap.sol\":6133:6170  (amountA * totalLiquidity) / reserveA */\n      tag_285\n      swap2\n      swap1\n      tag_100\n      jump\t// in\n    tag_285:\n        /* \"SimpleSwap.sol\":6121:6170  liquidity = (amountA * totalLiquidity) / reserveA */\n      swap4\n      pop\n        /* \"SimpleSwap.sol\":5968:6182  {... */\n      pop\n        /* \"SimpleSwap.sol\":5812:6182  if (totalLiquidity == 0) {... */\n    tag_281:\n        /* \"SimpleSwap.sol\":6222:6223  0 */\n      0x00\n        /* \"SimpleSwap.sol\":6210:6219  liquidity */\n      dup4\n        /* \"SimpleSwap.sol\":6210:6223  liquidity > 0 */\n      gt\n        /* \"SimpleSwap.sol\":6202:6257  require(liquidity > 0, \"Insufficient liquidity minted\") */\n      tag_286\n      jumpi\n      mload(0x40)\n      0x08c379a000000000000000000000000000000000000000000000000000000000\n      dup2\n      mstore\n      0x04\n      add\n      tag_287\n      swap1\n      tag_288\n      jump\t// in\n    tag_287:\n      mload(0x40)\n      dup1\n      swap2\n      sub\n      swap1\n      revert\n    tag_286:\n        /* \"SimpleSwap.sol\":6310:6320  isEKAFirst */\n      dup1\n        /* \"SimpleSwap.sol\":6306:6496  if (isEKAFirst) {... */\n      iszero\n      tag_289\n      jumpi\n        /* \"SimpleSwap.sol\":6351:6358  amountA */\n      dup5\n        /* \"SimpleSwap.sol\":6337:6347  reserveEKA */\n      0x00\n      0x00\n        /* \"SimpleSwap.sol\":6337:6358  reserveEKA += amountA */\n      dup3\n      dup3\n      sload\n      tag_290\n      swap2\n      swap1\n      tag_98\n      jump\t// in\n    tag_290:\n      swap3\n      pop\n      pop\n      dup2\n      swap1\n      sstore\n      pop\n        /* \"SimpleSwap.sol\":6387:6394  amountB */\n      dup4\n        /* \"SimpleSwap.sol\":6373:6383  reserveEKB */\n      0x01\n      0x00\n        /* \"SimpleSwap.sol\":6373:6394  reserveEKB += amountB */\n      dup3\n      dup3\n      sload\n      tag_291\n      swap2\n      swap1\n      tag_98\n      jump\t// in\n    tag_291:\n      swap3\n      pop\n      pop\n      dup2\n      swap1\n      sstore\n      pop\n        /* \"SimpleSwap.sol\":6306:6496  if (isEKAFirst) {... */\n      jump(tag_292)\n    tag_289:\n        /* \"SimpleSwap.sol\":6441:6448  amountA */\n      dup5\n        /* \"SimpleSwap.sol\":6427:6437  reserveEKB */\n      0x01\n      0x00\n        /* \"SimpleSwap.sol\":6427:6448  reserveEKB += amountA */\n      dup3\n      dup3\n      sload\n      tag_293\n      swap2\n      swap1\n      tag_98\n      jump\t// in\n    tag_293:\n      swap3\n      pop\n      pop\n      dup2\n      swap1\n      sstore\n      pop\n        /* \"SimpleSwap.sol\":6477:6484  amountB */\n      dup4\n        /* \"SimpleSwap.sol\":6463:6473  reserveEKA */\n      0x00\n      0x00\n        /* \"SimpleSwap.sol\":6463:6484  reserveEKA += amountB */\n      dup3\n      dup3\n      sload\n      tag_294\n      swap2\n      swap1\n      tag_98\n      jump\t// in\n    tag_294:\n      swap3\n      pop\n      pop\n      dup2\n      swap1\n      sstore\n      pop\n        /* \"SimpleSwap.sol\":6306:6496  if (isEKAFirst) {... */\n    tag_292:\n        /* \"SimpleSwap.sol\":6572:6581  liquidity */\n      dup3\n        /* \"SimpleSwap.sol\":6554:6568  totalLiquidity */\n      0x02\n      0x00\n        /* \"SimpleSwap.sol\":6554:6581  totalLiquidity += liquidity */\n      dup3\n      dup3\n      sload\n      tag_295\n      swap2\n      swap1\n      tag_98\n      jump\t// in\n    tag_295:\n      swap3\n      pop\n      pop\n      dup2\n      swap1\n      sstore\n      pop\n        /* \"SimpleSwap.sol\":6615:6624  liquidity */\n      dup3\n        /* \"SimpleSwap.sol\":6592:6607  liquidityShares */\n      0x03\n        /* \"SimpleSwap.sol\":6592:6611  liquidityShares[to] */\n      0x00\n        /* \"SimpleSwap.sol\":6608:6610  to */\n      dup10\n        /* \"SimpleSwap.sol\":6592:6611  liquidityShares[to] */\n      0xffffffffffffffffffffffffffffffffffffffff\n      and\n      0xffffffffffffffffffffffffffffffffffffffff\n      and\n      dup2\n      mstore\n      0x20\n      add\n      swap1\n      dup2\n      mstore\n      0x20\n      add\n      0x00\n      keccak256\n      0x00\n        /* \"SimpleSwap.sol\":6592:6624  liquidityShares[to] += liquidity */\n      dup3\n      dup3\n      sload\n      tag_296\n      swap2\n      swap1\n      tag_98\n      jump\t// in\n    tag_296:\n      swap3\n      pop\n      pop\n      dup2\n      swap1\n      sstore\n      pop\n        /* \"SimpleSwap.sol\":6665:6667  to */\n      dup7\n        /* \"SimpleSwap.sol\":6650:6697  LiquidityAdded(to, amountA, amountB, liquidity) */\n      0xffffffffffffffffffffffffffffffffffffffff\n      and\n      0x64b83944e79c3ce8d4c297411de637c3e102d064677aac0c163976ebdcd6f50e\n        /* \"SimpleSwap.sol\":6669:6676  amountA */\n      dup7\n        /* \"SimpleSwap.sol\":6678:6685  amountB */\n      dup7\n        /* \"SimpleSwap.sol\":6687:6696  liquidity */\n      dup7\n        /* \"SimpleSwap.sol\":6650:6697  LiquidityAdded(to, amountA, amountB, liquidity) */\n      mload(0x40)\n      tag_297\n      swap4\n      swap3\n      swap2\n      swap1\n      tag_81\n      jump\t// in\n    tag_297:\n      mload(0x40)\n      dup1\n      swap2\n      sub\n      swap1\n      log2\n        /* \"SimpleSwap.sol\":3908:6705  {... */\n      pop\n        /* \"SimpleSwap.sol\":3569:6705  function addLiquidity(... */\n      pop\n      swap9\n      pop\n      swap9\n      pop\n      swap9\n      swap6\n      pop\n      pop\n      pop\n      pop\n      pop\n      pop\n      jump\t// out\n        /* \"SimpleSwap.sol\":1022:1055  address public immutable tokenEKA */\n    tag_83:\n      immutable(\"0x2cc0d3dcb20652cd8f106aee76b6a7391771a130885634c0eb2bbe3cde796691\")\n      dup2\n      jump\t// out\n        /* \"SimpleSwap.sol\":14337:14575  function sqrt(uint256 x) internal pure returns (uint256 y) {... */\n    tag_280:\n        /* \"SimpleSwap.sol\":14385:14394  uint256 y */\n      0x00\n        /* \"SimpleSwap.sol\":14416:14417  0 */\n      0x00\n        /* \"SimpleSwap.sol\":14411:14412  x */\n      dup3\n        /* \"SimpleSwap.sol\":14411:14417  x == 0 */\n      sub\n        /* \"SimpleSwap.sol\":14407:14427  if (x == 0) return 0 */\n      tag_299\n      jumpi\n        /* \"SimpleSwap.sol\":14426:14427  0 */\n      0x00\n        /* \"SimpleSwap.sol\":14419:14427  return 0 */\n      swap1\n      pop\n      jump(tag_298)\n        /* \"SimpleSwap.sol\":14407:14427  if (x == 0) return 0 */\n    tag_299:\n        /* \"SimpleSwap.sol\":14438:14447  uint256 z */\n      0x00\n        /* \"SimpleSwap.sol\":14460:14461  2 */\n      0x02\n        /* \"SimpleSwap.sol\":14455:14456  1 */\n      0x01\n        /* \"SimpleSwap.sol\":14451:14452  x */\n      dup5\n        /* \"SimpleSwap.sol\":14451:14456  x + 1 */\n      tag_300\n      swap2\n      swap1\n      tag_98\n      jump\t// in\n    tag_300:\n        /* \"SimpleSwap.sol\":14450:14461  (x + 1) / 2 */\n      tag_301\n      swap2\n      swap1\n      tag_100\n      jump\t// in\n    tag_301:\n        /* \"SimpleSwap.sol\":14438:14461  uint256 z = (x + 1) / 2 */\n      swap1\n      pop\n        /* \"SimpleSwap.sol\":14476:14477  x */\n      dup3\n        /* \"SimpleSwap.sol\":14472:14477  y = x */\n      swap2\n      pop\n        /* \"SimpleSwap.sol\":14488:14568  while (z < y) {... */\n    tag_302:\n        /* \"SimpleSwap.sol\":14499:14500  y */\n      dup2\n        /* \"SimpleSwap.sol\":14495:14496  z */\n      dup2\n        /* \"SimpleSwap.sol\":14495:14500  z < y */\n      lt\n        /* \"SimpleSwap.sol\":14488:14568  while (z < y) {... */\n      iszero\n      tag_303\n      jumpi\n        /* \"SimpleSwap.sol\":14521:14522  z */\n      dup1\n        /* \"SimpleSwap.sol\":14517:14522  y = z */\n      swap2\n      pop\n        /* \"SimpleSwap.sol\":14555:14556  2 */\n      0x02\n        /* \"SimpleSwap.sol\":14550:14551  z */\n      dup2\n        /* \"SimpleSwap.sol\":14546:14547  z */\n      dup3\n        /* \"SimpleSwap.sol\":14542:14543  x */\n      dup6\n        /* \"SimpleSwap.sol\":14542:14547  x / z */\n      tag_304\n      swap2\n      swap1\n      tag_100\n      jump\t// in\n    tag_304:\n        /* \"SimpleSwap.sol\":14542:14551  x / z + z */\n      tag_305\n      swap2\n      swap1\n      tag_98\n      jump\t// in\n    tag_305:\n        /* \"SimpleSwap.sol\":14541:14556  (x / z + z) / 2 */\n      tag_306\n      swap2\n      swap1\n      tag_100\n      jump\t// in\n    tag_306:\n        /* \"SimpleSwap.sol\":14537:14556  z = (x / z + z) / 2 */\n      swap1\n      pop\n        /* \"SimpleSwap.sol\":14488:14568  while (z < y) {... */\n      jump(tag_302)\n    tag_303:\n        /* \"SimpleSwap.sol\":14396:14575  {... */\n      pop\n        /* \"SimpleSwap.sol\":14337:14575  function sqrt(uint256 x) internal pure returns (uint256 y) {... */\n    tag_298:\n      swap2\n      swap1\n      pop\n      jump\t// out\n        /* \"#utility.yul\":88:205   */\n    tag_308:\n        /* \"#utility.yul\":197:198   */\n      0x00\n        /* \"#utility.yul\":194:195   */\n      0x00\n        /* \"#utility.yul\":187:199   */\n      revert\n        /* \"#utility.yul\":211:328   */\n    tag_309:\n        /* \"#utility.yul\":320:321   */\n      0x00\n        /* \"#utility.yul\":317:318   */\n      0x00\n        /* \"#utility.yul\":310:322   */\n      revert\n        /* \"#utility.yul\":334:411   */\n    tag_310:\n        /* \"#utility.yul\":371:378   */\n      0x00\n        /* \"#utility.yul\":400:405   */\n      dup2\n        /* \"#utility.yul\":389:405   */\n      swap1\n      pop\n        /* \"#utility.yul\":334:411   */\n      swap2\n      swap1\n      pop\n      jump\t// out\n        /* \"#utility.yul\":417:539   */\n    tag_311:\n        /* \"#utility.yul\":490:514   */\n      tag_380\n        /* \"#utility.yul\":508:513   */\n      dup2\n        /* \"#utility.yul\":490:514   */\n      tag_310\n      jump\t// in\n    tag_380:\n        /* \"#utility.yul\":483:488   */\n      dup2\n        /* \"#utility.yul\":480:515   */\n      eq\n        /* \"#utility.yul\":470:533   */\n      tag_381\n      jumpi\n        /* \"#utility.yul\":529:530   */\n      0x00\n        /* \"#utility.yul\":526:527   */\n      0x00\n        /* \"#utility.yul\":519:531   */\n      revert\n        /* \"#utility.yul\":470:533   */\n    tag_381:\n        /* \"#utility.yul\":417:539   */\n      pop\n      jump\t// out\n        /* \"#utility.yul\":545:684   */\n    tag_312:\n        /* \"#utility.yul\":591:596   */\n      0x00\n        /* \"#utility.yul\":629:635   */\n      dup2\n        /* \"#utility.yul\":616:636   */\n      calldataload\n        /* \"#utility.yul\":607:636   */\n      swap1\n      pop\n        /* \"#utility.yul\":645:678   */\n      tag_383\n        /* \"#utility.yul\":672:677   */\n      dup2\n        /* \"#utility.yul\":645:678   */\n      tag_311\n      jump\t// in\n    tag_383:\n        /* \"#utility.yul\":545:684   */\n      swap3\n      swap2\n      pop\n      pop\n      jump\t// out\n        /* \"#utility.yul\":690:1309   */\n    tag_23:\n        /* \"#utility.yul\":767:773   */\n      0x00\n        /* \"#utility.yul\":775:781   */\n      0x00\n        /* \"#utility.yul\":783:789   */\n      0x00\n        /* \"#utility.yul\":832:834   */\n      0x60\n        /* \"#utility.yul\":820:829   */\n      dup5\n        /* \"#utility.yul\":811:818   */\n      dup7\n        /* \"#utility.yul\":807:830   */\n      sub\n        /* \"#utility.yul\":803:835   */\n      slt\n        /* \"#utility.yul\":800:919   */\n      iszero\n      tag_385\n      jumpi\n        /* \"#utility.yul\":838:917   */\n      tag_386\n      tag_308\n      jump\t// in\n    tag_386:\n        /* \"#utility.yul\":800:919   */\n    tag_385:\n        /* \"#utility.yul\":958:959   */\n      0x00\n        /* \"#utility.yul\":983:1036   */\n      tag_387\n        /* \"#utility.yul\":1028:1035   */\n      dup7\n        /* \"#utility.yul\":1019:1025   */\n      dup3\n        /* \"#utility.yul\":1008:1017   */\n      dup8\n        /* \"#utility.yul\":1004:1026   */\n      add\n        /* \"#utility.yul\":983:1036   */\n      tag_312\n      jump\t// in\n    tag_387:\n        /* \"#utility.yul\":973:1036   */\n      swap4\n      pop\n        /* \"#utility.yul\":929:1046   */\n      pop\n        /* \"#utility.yul\":1085:1087   */\n      0x20\n        /* \"#utility.yul\":1111:1164   */\n      tag_388\n        /* \"#utility.yul\":1156:1163   */\n      dup7\n        /* \"#utility.yul\":1147:1153   */\n      dup3\n        /* \"#utility.yul\":1136:1145   */\n      dup8\n        /* \"#utility.yul\":1132:1154   */\n      add\n        /* \"#utility.yul\":1111:1164   */\n      tag_312\n      jump\t// in\n    tag_388:\n        /* \"#utility.yul\":1101:1164   */\n      swap3\n      pop\n        /* \"#utility.yul\":1056:1174   */\n      pop\n        /* \"#utility.yul\":1213:1215   */\n      0x40\n        /* \"#utility.yul\":1239:1292   */\n      tag_389\n        /* \"#utility.yul\":1284:1291   */\n      dup7\n        /* \"#utility.yul\":1275:1281   */\n      dup3\n        /* \"#utility.yul\":1264:1273   */\n      dup8\n        /* \"#utility.yul\":1260:1282   */\n      add\n        /* \"#utility.yul\":1239:1292   */\n      tag_312\n      jump\t// in\n    tag_389:\n        /* \"#utility.yul\":1229:1292   */\n      swap2\n      pop\n        /* \"#utility.yul\":1184:1302   */\n      pop\n        /* \"#utility.yul\":690:1309   */\n      swap3\n      pop\n      swap3\n      pop\n      swap3\n      jump\t// out\n        /* \"#utility.yul\":1315:1433   */\n    tag_313:\n        /* \"#utility.yul\":1402:1426   */\n      tag_391\n        /* \"#utility.yul\":1420:1425   */\n      dup2\n        /* \"#utility.yul\":1402:1426   */\n      tag_310\n      jump\t// in\n    tag_391:\n        /* \"#utility.yul\":1397:1400   */\n      dup3\n        /* \"#utility.yul\":1390:1427   */\n      mstore\n        /* \"#utility.yul\":1315:1433   */\n      pop\n      pop\n      jump\t// out\n        /* \"#utility.yul\":1439:1661   */\n    tag_26:\n        /* \"#utility.yul\":1532:1536   */\n      0x00\n        /* \"#utility.yul\":1570:1572   */\n      0x20\n        /* \"#utility.yul\":1559:1568   */\n      dup3\n        /* \"#utility.yul\":1555:1573   */\n      add\n        /* \"#utility.yul\":1547:1573   */\n      swap1\n      pop\n        /* \"#utility.yul\":1583:1654   */\n      tag_393\n        /* \"#utility.yul\":1651:1652   */\n      0x00\n        /* \"#utility.yul\":1640:1649   */\n      dup4\n        /* \"#utility.yul\":1636:1653   */\n      add\n        /* \"#utility.yul\":1627:1633   */\n      dup5\n        /* \"#utility.yul\":1583:1654   */\n      tag_313\n      jump\t// in\n    tag_393:\n        /* \"#utility.yul\":1439:1661   */\n      swap3\n      swap2\n      pop\n      pop\n      jump\t// out\n        /* \"#utility.yul\":1667:1999   */\n    tag_30:\n        /* \"#utility.yul\":1788:1792   */\n      0x00\n        /* \"#utility.yul\":1826:1828   */\n      0x40\n        /* \"#utility.yul\":1815:1824   */\n      dup3\n        /* \"#utility.yul\":1811:1829   */\n      add\n        /* \"#utility.yul\":1803:1829   */\n      swap1\n      pop\n        /* \"#utility.yul\":1839:1910   */\n      tag_395\n        /* \"#utility.yul\":1907:1908   */\n      0x00\n        /* \"#utility.yul\":1896:1905   */\n      dup4\n        /* \"#utility.yul\":1892:1909   */\n      add\n        /* \"#utility.yul\":1883:1889   */\n      dup6\n        /* \"#utility.yul\":1839:1910   */\n      tag_313\n      jump\t// in\n    tag_395:\n        /* \"#utility.yul\":1920:1992   */\n      tag_396\n        /* \"#utility.yul\":1988:1990   */\n      0x20\n        /* \"#utility.yul\":1977:1986   */\n      dup4\n        /* \"#utility.yul\":1973:1991   */\n      add\n        /* \"#utility.yul\":1964:1970   */\n      dup5\n        /* \"#utility.yul\":1920:1992   */\n      tag_313\n      jump\t// in\n    tag_396:\n        /* \"#utility.yul\":1667:1999   */\n      swap4\n      swap3\n      pop\n      pop\n      pop\n      jump\t// out\n        /* \"#utility.yul\":2005:2122   */\n    tag_314:\n        /* \"#utility.yul\":2114:2115   */\n      0x00\n        /* \"#utility.yul\":2111:2112   */\n      0x00\n        /* \"#utility.yul\":2104:2116   */\n      revert\n        /* \"#utility.yul\":2128:2245   */\n    tag_315:\n        /* \"#utility.yul\":2237:2238   */\n      0x00\n        /* \"#utility.yul\":2234:2235   */\n      0x00\n        /* \"#utility.yul\":2227:2239   */\n      revert\n        /* \"#utility.yul\":2251:2368   */\n    tag_316:\n        /* \"#utility.yul\":2360:2361   */\n      0x00\n        /* \"#utility.yul\":2357:2358   */\n      0x00\n        /* \"#utility.yul\":2350:2362   */\n      revert\n        /* \"#utility.yul\":2391:2959   */\n    tag_317:\n        /* \"#utility.yul\":2464:2472   */\n      0x00\n        /* \"#utility.yul\":2474:2480   */\n      0x00\n        /* \"#utility.yul\":2524:2527   */\n      dup4\n        /* \"#utility.yul\":2517:2521   */\n      0x1f\n        /* \"#utility.yul\":2509:2515   */\n      dup5\n        /* \"#utility.yul\":2505:2522   */\n      add\n        /* \"#utility.yul\":2501:2528   */\n      slt\n        /* \"#utility.yul\":2491:2613   */\n      tag_401\n      jumpi\n        /* \"#utility.yul\":2532:2611   */\n      tag_402\n      tag_314\n      jump\t// in\n    tag_402:\n        /* \"#utility.yul\":2491:2613   */\n    tag_401:\n        /* \"#utility.yul\":2645:2651   */\n      dup3\n        /* \"#utility.yul\":2632:2652   */\n      calldataload\n        /* \"#utility.yul\":2622:2652   */\n      swap1\n      pop\n        /* \"#utility.yul\":2675:2693   */\n      0xffffffffffffffff\n        /* \"#utility.yul\":2667:2673   */\n      dup2\n        /* \"#utility.yul\":2664:2694   */\n      gt\n        /* \"#utility.yul\":2661:2778   */\n      iszero\n      tag_403\n      jumpi\n        /* \"#utility.yul\":2697:2776   */\n      tag_404\n      tag_315\n      jump\t// in\n    tag_404:\n        /* \"#utility.yul\":2661:2778   */\n    tag_403:\n        /* \"#utility.yul\":2811:2815   */\n      0x20\n        /* \"#utility.yul\":2803:2809   */\n      dup4\n        /* \"#utility.yul\":2799:2816   */\n      add\n        /* \"#utility.yul\":2787:2816   */\n      swap2\n      pop\n        /* \"#utility.yul\":2865:2868   */\n      dup4\n        /* \"#utility.yul\":2857:2861   */\n      0x20\n        /* \"#utility.yul\":2849:2855   */\n      dup3\n        /* \"#utility.yul\":2845:2862   */\n      mul\n        /* \"#utility.yul\":2835:2843   */\n      dup4\n        /* \"#utility.yul\":2831:2863   */\n      add\n        /* \"#utility.yul\":2828:2869   */\n      gt\n        /* \"#utility.yul\":2825:2953   */\n      iszero\n      tag_405\n      jumpi\n        /* \"#utility.yul\":2872:2951   */\n      tag_406\n      tag_316\n      jump\t// in\n    tag_406:\n        /* \"#utility.yul\":2825:2953   */\n    tag_405:\n        /* \"#utility.yul\":2391:2959   */\n      swap3\n      pop\n      swap3\n      swap1\n      pop\n      jump\t// out\n        /* \"#utility.yul\":2965:3091   */\n    tag_318:\n        /* \"#utility.yul\":3002:3009   */\n      0x00\n        /* \"#utility.yul\":3042:3084   */\n      0xffffffffffffffffffffffffffffffffffffffff\n        /* \"#utility.yul\":3035:3040   */\n      dup3\n        /* \"#utility.yul\":3031:3085   */\n      and\n        /* \"#utility.yul\":3020:3085   */\n      swap1\n      pop\n        /* \"#utility.yul\":2965:3091   */\n      swap2\n      swap1\n      pop\n      jump\t// out\n        /* \"#utility.yul\":3097:3193   */\n    tag_319:\n        /* \"#utility.yul\":3134:3141   */\n      0x00\n        /* \"#utility.yul\":3163:3187   */\n      tag_409\n        /* \"#utility.yul\":3181:3186   */\n      dup3\n        /* \"#utility.yul\":3163:3187   */\n      tag_318\n      jump\t// in\n    tag_409:\n        /* \"#utility.yul\":3152:3187   */\n      swap1\n      pop\n        /* \"#utility.yul\":3097:3193   */\n      swap2\n      swap1\n      pop\n      jump\t// out\n        /* \"#utility.yul\":3199:3321   */\n    tag_320:\n        /* \"#utility.yul\":3272:3296   */\n      tag_411\n        /* \"#utility.yul\":3290:3295   */\n      dup2\n        /* \"#utility.yul\":3272:3296   */\n      tag_319\n      jump\t// in\n    tag_411:\n        /* \"#utility.yul\":3265:3270   */\n      dup2\n        /* \"#utility.yul\":3262:3297   */\n      eq\n        /* \"#utility.yul\":3252:3315   */\n      tag_412\n      jumpi\n        /* \"#utility.yul\":3311:3312   */\n      0x00\n        /* \"#utility.yul\":3308:3309   */\n      0x00\n        /* \"#utility.yul\":3301:3313   */\n      revert\n        /* \"#utility.yul\":3252:3315   */\n    tag_412:\n        /* \"#utility.yul\":3199:3321   */\n      pop\n      jump\t// out\n        /* \"#utility.yul\":3327:3466   */\n    tag_321:\n        /* \"#utility.yul\":3373:3378   */\n      0x00\n        /* \"#utility.yul\":3411:3417   */\n      dup2\n        /* \"#utility.yul\":3398:3418   */\n      calldataload\n        /* \"#utility.yul\":3389:3418   */\n      swap1\n      pop\n        /* \"#utility.yul\":3427:3460   */\n      tag_414\n        /* \"#utility.yul\":3454:3459   */\n      dup2\n        /* \"#utility.yul\":3427:3460   */\n      tag_320\n      jump\t// in\n    tag_414:\n        /* \"#utility.yul\":3327:3466   */\n      swap3\n      swap2\n      pop\n      pop\n      jump\t// out\n        /* \"#utility.yul\":3472:4613   */\n    tag_42:\n        /* \"#utility.yul\":3594:3600   */\n      0x00\n        /* \"#utility.yul\":3602:3608   */\n      0x00\n        /* \"#utility.yul\":3610:3616   */\n      0x00\n        /* \"#utility.yul\":3618:3624   */\n      0x00\n        /* \"#utility.yul\":3626:3632   */\n      0x00\n        /* \"#utility.yul\":3634:3640   */\n      0x00\n        /* \"#utility.yul\":3683:3686   */\n      0xa0\n        /* \"#utility.yul\":3671:3680   */\n      dup8\n        /* \"#utility.yul\":3662:3669   */\n      dup10\n        /* \"#utility.yul\":3658:3681   */\n      sub\n        /* \"#utility.yul\":3654:3687   */\n      slt\n        /* \"#utility.yul\":3651:3771   */\n      iszero\n      tag_416\n      jumpi\n        /* \"#utility.yul\":3690:3769   */\n      tag_417\n      tag_308\n      jump\t// in\n    tag_417:\n        /* \"#utility.yul\":3651:3771   */\n    tag_416:\n        /* \"#utility.yul\":3810:3811   */\n      0x00\n        /* \"#utility.yul\":3835:3888   */\n      tag_418\n        /* \"#utility.yul\":3880:3887   */\n      dup10\n        /* \"#utility.yul\":3871:3877   */\n      dup3\n        /* \"#utility.yul\":3860:3869   */\n      dup11\n        /* \"#utility.yul\":3856:3878   */\n      add\n        /* \"#utility.yul\":3835:3888   */\n      tag_312\n      jump\t// in\n    tag_418:\n        /* \"#utility.yul\":3825:3888   */\n      swap7\n      pop\n        /* \"#utility.yul\":3781:3898   */\n      pop\n        /* \"#utility.yul\":3937:3939   */\n      0x20\n        /* \"#utility.yul\":3963:4016   */\n      tag_419\n        /* \"#utility.yul\":4008:4015   */\n      dup10\n        /* \"#utility.yul\":3999:4005   */\n      dup3\n        /* \"#utility.yul\":3988:3997   */\n      dup11\n        /* \"#utility.yul\":3984:4006   */\n      add\n        /* \"#utility.yul\":3963:4016   */\n      tag_312\n      jump\t// in\n    tag_419:\n        /* \"#utility.yul\":3953:4016   */\n      swap6\n      pop\n        /* \"#utility.yul\":3908:4026   */\n      pop\n        /* \"#utility.yul\":4093:4095   */\n      0x40\n        /* \"#utility.yul\":4082:4091   */\n      dup8\n        /* \"#utility.yul\":4078:4096   */\n      add\n        /* \"#utility.yul\":4065:4097   */\n      calldataload\n        /* \"#utility.yul\":4124:4142   */\n      0xffffffffffffffff\n        /* \"#utility.yul\":4116:4122   */\n      dup2\n        /* \"#utility.yul\":4113:4143   */\n      gt\n        /* \"#utility.yul\":4110:4227   */\n      iszero\n      tag_420\n      jumpi\n        /* \"#utility.yul\":4146:4225   */\n      tag_421\n      tag_309\n      jump\t// in\n    tag_421:\n        /* \"#utility.yul\":4110:4227   */\n    tag_420:\n        /* \"#utility.yul\":4259:4339   */\n      tag_422\n        /* \"#utility.yul\":4331:4338   */\n      dup10\n        /* \"#utility.yul\":4322:4328   */\n      dup3\n        /* \"#utility.yul\":4311:4320   */\n      dup11\n        /* \"#utility.yul\":4307:4329   */\n      add\n        /* \"#utility.yul\":4259:4339   */\n      tag_317\n      jump\t// in\n    tag_422:\n        /* \"#utility.yul\":4241:4339   */\n      swap5\n      pop\n      swap5\n      pop\n        /* \"#utility.yul\":4036:4349   */\n      pop\n        /* \"#utility.yul\":4388:4390   */\n      0x60\n        /* \"#utility.yul\":4414:4467   */\n      tag_423\n        /* \"#utility.yul\":4459:4466   */\n      dup10\n        /* \"#utility.yul\":4450:4456   */\n      dup3\n        /* \"#utility.yul\":4439:4448   */\n      dup11\n        /* \"#utility.yul\":4435:4457   */\n      add\n        /* \"#utility.yul\":4414:4467   */\n      tag_321\n      jump\t// in\n    tag_423:\n        /* \"#utility.yul\":4404:4467   */\n      swap3\n      pop\n        /* \"#utility.yul\":4359:4477   */\n      pop\n        /* \"#utility.yul\":4516:4519   */\n      0x80\n        /* \"#utility.yul\":4543:4596   */\n      tag_424\n        /* \"#utility.yul\":4588:4595   */\n      dup10\n        /* \"#utility.yul\":4579:4585   */\n      dup3\n        /* \"#utility.yul\":4568:4577   */\n      dup11\n        /* \"#utility.yul\":4564:4586   */\n      add\n        /* \"#utility.yul\":4543:4596   */\n      tag_312\n      jump\t// in\n    tag_424:\n        /* \"#utility.yul\":4533:4596   */\n      swap2\n      pop\n        /* \"#utility.yul\":4487:4606   */\n      pop\n        /* \"#utility.yul\":3472:4613   */\n      swap3\n      swap6\n      pop\n      swap3\n      swap6\n      pop\n      swap3\n      swap6\n      jump\t// out\n        /* \"#utility.yul\":4619:4733   */\n    tag_322:\n        /* \"#utility.yul\":4686:4692   */\n      0x00\n        /* \"#utility.yul\":4720:4725   */\n      dup2\n        /* \"#utility.yul\":4714:4726   */\n      mload\n        /* \"#utility.yul\":4704:4726   */\n      swap1\n      pop\n        /* \"#utility.yul\":4619:4733   */\n      swap2\n      swap1\n      pop\n      jump\t// out\n        /* \"#utility.yul\":4739:4923   */\n    tag_323:\n        /* \"#utility.yul\":4838:4849   */\n      0x00\n        /* \"#utility.yul\":4872:4878   */\n      dup3\n        /* \"#utility.yul\":4867:4870   */\n      dup3\n        /* \"#utility.yul\":4860:4879   */\n      mstore\n        /* \"#utility.yul\":4912:4916   */\n      0x20\n        /* \"#utility.yul\":4907:4910   */\n      dup3\n        /* \"#utility.yul\":4903:4917   */\n      add\n        /* \"#utility.yul\":4888:4917   */\n      swap1\n      pop\n        /* \"#utility.yul\":4739:4923   */\n      swap3\n      swap2\n      pop\n      pop\n      jump\t// out\n        /* \"#utility.yul\":4929:5061   */\n    tag_324:\n        /* \"#utility.yul\":4996:5000   */\n      0x00\n        /* \"#utility.yul\":5019:5022   */\n      dup2\n        /* \"#utility.yul\":5011:5022   */\n      swap1\n      pop\n        /* \"#utility.yul\":5049:5053   */\n      0x20\n        /* \"#utility.yul\":5044:5047   */\n      dup3\n        /* \"#utility.yul\":5040:5054   */\n      add\n        /* \"#utility.yul\":5032:5054   */\n      swap1\n      pop\n        /* \"#utility.yul\":4929:5061   */\n      swap2\n      swap1\n      pop\n      jump\t// out\n        /* \"#utility.yul\":5067:5175   */\n    tag_325:\n        /* \"#utility.yul\":5144:5168   */\n      tag_429\n        /* \"#utility.yul\":5162:5167   */\n      dup2\n        /* \"#utility.yul\":5144:5168   */\n      tag_310\n      jump\t// in\n    tag_429:\n        /* \"#utility.yul\":5139:5142   */\n      dup3\n        /* \"#utility.yul\":5132:5169   */\n      mstore\n        /* \"#utility.yul\":5067:5175   */\n      pop\n      pop\n      jump\t// out\n        /* \"#utility.yul\":5181:5360   */\n    tag_326:\n        /* \"#utility.yul\":5250:5260   */\n      0x00\n        /* \"#utility.yul\":5271:5317   */\n      tag_431\n        /* \"#utility.yul\":5313:5316   */\n      dup4\n        /* \"#utility.yul\":5305:5311   */\n      dup4\n        /* \"#utility.yul\":5271:5317   */\n      tag_325\n      jump\t// in\n    tag_431:\n        /* \"#utility.yul\":5349:5353   */\n      0x20\n        /* \"#utility.yul\":5344:5347   */\n      dup4\n        /* \"#utility.yul\":5340:5354   */\n      add\n        /* \"#utility.yul\":5326:5354   */\n      swap1\n      pop\n        /* \"#utility.yul\":5181:5360   */\n      swap3\n      swap2\n      pop\n      pop\n      jump\t// out\n        /* \"#utility.yul\":5366:5479   */\n    tag_327:\n        /* \"#utility.yul\":5436:5440   */\n      0x00\n        /* \"#utility.yul\":5468:5472   */\n      0x20\n        /* \"#utility.yul\":5463:5466   */\n      dup3\n        /* \"#utility.yul\":5459:5473   */\n      add\n        /* \"#utility.yul\":5451:5473   */\n      swap1\n      pop\n        /* \"#utility.yul\":5366:5479   */\n      swap2\n      swap1\n      pop\n      jump\t// out\n        /* \"#utility.yul\":5515:6247   */\n    tag_328:\n        /* \"#utility.yul\":5634:5637   */\n      0x00\n        /* \"#utility.yul\":5663:5717   */\n      tag_434\n        /* \"#utility.yul\":5711:5716   */\n      dup3\n        /* \"#utility.yul\":5663:5717   */\n      tag_322\n      jump\t// in\n    tag_434:\n        /* \"#utility.yul\":5733:5819   */\n      tag_435\n        /* \"#utility.yul\":5812:5818   */\n      dup2\n        /* \"#utility.yul\":5807:5810   */\n      dup6\n        /* \"#utility.yul\":5733:5819   */\n      tag_323\n      jump\t// in\n    tag_435:\n        /* \"#utility.yul\":5726:5819   */\n      swap4\n      pop\n        /* \"#utility.yul\":5843:5899   */\n      tag_436\n        /* \"#utility.yul\":5893:5898   */\n      dup4\n        /* \"#utility.yul\":5843:5899   */\n      tag_324\n      jump\t// in\n    tag_436:\n        /* \"#utility.yul\":5922:5929   */\n      dup1\n        /* \"#utility.yul\":5953:5954   */\n      0x00\n        /* \"#utility.yul\":5938:6222   */\n    tag_437:\n        /* \"#utility.yul\":5963:5969   */\n      dup4\n        /* \"#utility.yul\":5960:5961   */\n      dup2\n        /* \"#utility.yul\":5957:5970   */\n      lt\n        /* \"#utility.yul\":5938:6222   */\n      iszero\n      tag_439\n      jumpi\n        /* \"#utility.yul\":6039:6045   */\n      dup2\n        /* \"#utility.yul\":6033:6046   */\n      mload\n        /* \"#utility.yul\":6066:6129   */\n      tag_440\n        /* \"#utility.yul\":6125:6128   */\n      dup9\n        /* \"#utility.yul\":6110:6123   */\n      dup3\n        /* \"#utility.yul\":6066:6129   */\n      tag_326\n      jump\t// in\n    tag_440:\n        /* \"#utility.yul\":6059:6129   */\n      swap8\n      pop\n        /* \"#utility.yul\":6152:6212   */\n      tag_441\n        /* \"#utility.yul\":6205:6211   */\n      dup4\n        /* \"#utility.yul\":6152:6212   */\n      tag_327\n      jump\t// in\n    tag_441:\n        /* \"#utility.yul\":6142:6212   */\n      swap3\n      pop\n        /* \"#utility.yul\":5998:6222   */\n      pop\n        /* \"#utility.yul\":5985:5986   */\n      0x01\n        /* \"#utility.yul\":5982:5983   */\n      dup2\n        /* \"#utility.yul\":5978:5987   */\n      add\n        /* \"#utility.yul\":5973:5987   */\n      swap1\n      pop\n        /* \"#utility.yul\":5938:6222   */\n      jump(tag_437)\n    tag_439:\n        /* \"#utility.yul\":5942:5956   */\n      pop\n        /* \"#utility.yul\":6238:6241   */\n      dup6\n        /* \"#utility.yul\":6231:6241   */\n      swap4\n      pop\n        /* \"#utility.yul\":5639:6247   */\n      pop\n      pop\n      pop\n        /* \"#utility.yul\":5515:6247   */\n      swap3\n      swap2\n      pop\n      pop\n      jump\t// out\n        /* \"#utility.yul\":6253:6626   */\n    tag_45:\n        /* \"#utility.yul\":6396:6400   */\n      0x00\n        /* \"#utility.yul\":6434:6436   */\n      0x20\n        /* \"#utility.yul\":6423:6432   */\n      dup3\n        /* \"#utility.yul\":6419:6437   */\n      add\n        /* \"#utility.yul\":6411:6437   */\n      swap1\n      pop\n        /* \"#utility.yul\":6483:6492   */\n      dup2\n        /* \"#utility.yul\":6477:6481   */\n      dup2\n        /* \"#utility.yul\":6473:6493   */\n      sub\n        /* \"#utility.yul\":6469:6470   */\n      0x00\n        /* \"#utility.yul\":6458:6467   */\n      dup4\n        /* \"#utility.yul\":6454:6471   */\n      add\n        /* \"#utility.yul\":6447:6494   */\n      mstore\n        /* \"#utility.yul\":6511:6619   */\n      tag_443\n        /* \"#utility.yul\":6614:6618   */\n      dup2\n        /* \"#utility.yul\":6605:6611   */\n      dup5\n        /* \"#utility.yul\":6511:6619   */\n      tag_328\n      jump\t// in\n    tag_443:\n        /* \"#utility.yul\":6503:6619   */\n      swap1\n      pop\n        /* \"#utility.yul\":6253:6626   */\n      swap3\n      swap2\n      pop\n      pop\n      jump\t// out\n        /* \"#utility.yul\":6632:6750   */\n    tag_329:\n        /* \"#utility.yul\":6719:6743   */\n      tag_445\n        /* \"#utility.yul\":6737:6742   */\n      dup2\n        /* \"#utility.yul\":6719:6743   */\n      tag_319\n      jump\t// in\n    tag_445:\n        /* \"#utility.yul\":6714:6717   */\n      dup3\n        /* \"#utility.yul\":6707:6744   */\n      mstore\n        /* \"#utility.yul\":6632:6750   */\n      pop\n      pop\n      jump\t// out\n        /* \"#utility.yul\":6756:6978   */\n    tag_49:\n        /* \"#utility.yul\":6849:6853   */\n      0x00\n        /* \"#utility.yul\":6887:6889   */\n      0x20\n        /* \"#utility.yul\":6876:6885   */\n      dup3\n        /* \"#utility.yul\":6872:6890   */\n      add\n        /* \"#utility.yul\":6864:6890   */\n      swap1\n      pop\n        /* \"#utility.yul\":6900:6971   */\n      tag_447\n        /* \"#utility.yul\":6968:6969   */\n      0x00\n        /* \"#utility.yul\":6957:6966   */\n      dup4\n        /* \"#utility.yul\":6953:6970   */\n      add\n        /* \"#utility.yul\":6944:6950   */\n      dup5\n        /* \"#utility.yul\":6900:6971   */\n      tag_329\n      jump\t// in\n    tag_447:\n        /* \"#utility.yul\":6756:6978   */\n      swap3\n      swap2\n      pop\n      pop\n      jump\t// out\n        /* \"#utility.yul\":6984:7313   */\n    tag_52:\n        /* \"#utility.yul\":7043:7049   */\n      0x00\n        /* \"#utility.yul\":7092:7094   */\n      0x20\n        /* \"#utility.yul\":7080:7089   */\n      dup3\n        /* \"#utility.yul\":7071:7078   */\n      dup5\n        /* \"#utility.yul\":7067:7090   */\n      sub\n        /* \"#utility.yul\":7063:7095   */\n      slt\n        /* \"#utility.yul\":7060:7179   */\n      iszero\n      tag_449\n      jumpi\n        /* \"#utility.yul\":7098:7177   */\n      tag_450\n      tag_308\n      jump\t// in\n    tag_450:\n        /* \"#utility.yul\":7060:7179   */\n    tag_449:\n        /* \"#utility.yul\":7218:7219   */\n      0x00\n        /* \"#utility.yul\":7243:7296   */\n      tag_451\n        /* \"#utility.yul\":7288:7295   */\n      dup5\n        /* \"#utility.yul\":7279:7285   */\n      dup3\n        /* \"#utility.yul\":7268:7277   */\n      dup6\n        /* \"#utility.yul\":7264:7286   */\n      add\n        /* \"#utility.yul\":7243:7296   */\n      tag_321\n      jump\t// in\n    tag_451:\n        /* \"#utility.yul\":7233:7296   */\n      swap2\n      pop\n        /* \"#utility.yul\":7189:7306   */\n      pop\n        /* \"#utility.yul\":6984:7313   */\n      swap3\n      swap2\n      pop\n      pop\n      jump\t// out\n        /* \"#utility.yul\":7319:7793   */\n    tag_60:\n        /* \"#utility.yul\":7387:7393   */\n      0x00\n        /* \"#utility.yul\":7395:7401   */\n      0x00\n        /* \"#utility.yul\":7444:7446   */\n      0x40\n        /* \"#utility.yul\":7432:7441   */\n      dup4\n        /* \"#utility.yul\":7423:7430   */\n      dup6\n        /* \"#utility.yul\":7419:7442   */\n      sub\n        /* \"#utility.yul\":7415:7447   */\n      slt\n        /* \"#utility.yul\":7412:7531   */\n      iszero\n      tag_453\n      jumpi\n        /* \"#utility.yul\":7450:7529   */\n      tag_454\n      tag_308\n      jump\t// in\n    tag_454:\n        /* \"#utility.yul\":7412:7531   */\n    tag_453:\n        /* \"#utility.yul\":7570:7571   */\n      0x00\n        /* \"#utility.yul\":7595:7648   */\n      tag_455\n        /* \"#utility.yul\":7640:7647   */\n      dup6\n        /* \"#utility.yul\":7631:7637   */\n      dup3\n        /* \"#utility.yul\":7620:7629   */\n      dup7\n        /* \"#utility.yul\":7616:7638   */\n      add\n        /* \"#utility.yul\":7595:7648   */\n      tag_321\n      jump\t// in\n    tag_455:\n        /* \"#utility.yul\":7585:7648   */\n      swap3\n      pop\n        /* \"#utility.yul\":7541:7658   */\n      pop\n        /* \"#utility.yul\":7697:7699   */\n      0x20\n        /* \"#utility.yul\":7723:7776   */\n      tag_456\n        /* \"#utility.yul\":7768:7775   */\n      dup6\n        /* \"#utility.yul\":7759:7765   */\n      dup3\n        /* \"#utility.yul\":7748:7757   */\n      dup7\n        /* \"#utility.yul\":7744:7766   */\n      add\n        /* \"#utility.yul\":7723:7776   */\n      tag_321\n      jump\t// in\n    tag_456:\n        /* \"#utility.yul\":7713:7776   */\n      swap2\n      pop\n        /* \"#utility.yul\":7668:7786   */\n      pop\n        /* \"#utility.yul\":7319:7793   */\n      swap3\n      pop\n      swap3\n      swap1\n      pop\n      jump\t// out\n        /* \"#utility.yul\":7799:9002   */\n    tag_65:\n        /* \"#utility.yul\":7912:7918   */\n      0x00\n        /* \"#utility.yul\":7920:7926   */\n      0x00\n        /* \"#utility.yul\":7928:7934   */\n      0x00\n        /* \"#utility.yul\":7936:7942   */\n      0x00\n        /* \"#utility.yul\":7944:7950   */\n      0x00\n        /* \"#utility.yul\":7952:7958   */\n      0x00\n        /* \"#utility.yul\":7960:7966   */\n      0x00\n        /* \"#utility.yul\":8009:8012   */\n      0xe0\n        /* \"#utility.yul\":7997:8006   */\n      dup9\n        /* \"#utility.yul\":7988:7995   */\n      dup11\n        /* \"#utility.yul\":7984:8007   */\n      sub\n        /* \"#utility.yul\":7980:8013   */\n      slt\n        /* \"#utility.yul\":7977:8097   */\n      iszero\n      tag_458\n      jumpi\n        /* \"#utility.yul\":8016:8095   */\n      tag_459\n      tag_308\n      jump\t// in\n    tag_459:\n        /* \"#utility.yul\":7977:8097   */\n    tag_458:\n        /* \"#utility.yul\":8136:8137   */\n      0x00\n        /* \"#utility.yul\":8161:8214   */\n      tag_460\n        /* \"#utility.yul\":8206:8213   */\n      dup11\n        /* \"#utility.yul\":8197:8203   */\n      dup3\n        /* \"#utility.yul\":8186:8195   */\n      dup12\n        /* \"#utility.yul\":8182:8204   */\n      add\n        /* \"#utility.yul\":8161:8214   */\n      tag_321\n      jump\t// in\n    tag_460:\n        /* \"#utility.yul\":8151:8214   */\n      swap8\n      pop\n        /* \"#utility.yul\":8107:8224   */\n      pop\n        /* \"#utility.yul\":8263:8265   */\n      0x20\n        /* \"#utility.yul\":8289:8342   */\n      tag_461\n        /* \"#utility.yul\":8334:8341   */\n      dup11\n        /* \"#utility.yul\":8325:8331   */\n      dup3\n        /* \"#utility.yul\":8314:8323   */\n      dup12\n        /* \"#utility.yul\":8310:8332   */\n      add\n        /* \"#utility.yul\":8289:8342   */\n      tag_321\n      jump\t// in\n    tag_461:\n        /* \"#utility.yul\":8279:8342   */\n      swap7\n      pop\n        /* \"#utility.yul\":8234:8352   */\n      pop\n        /* \"#utility.yul\":8391:8393   */\n      0x40\n        /* \"#utility.yul\":8417:8470   */\n      tag_462\n        /* \"#utility.yul\":8462:8469   */\n      dup11\n        /* \"#utility.yul\":8453:8459   */\n      dup3\n        /* \"#utility.yul\":8442:8451   */\n      dup12\n        /* \"#utility.yul\":8438:8460   */\n      add\n        /* \"#utility.yul\":8417:8470   */\n      tag_312\n      jump\t// in\n    tag_462:\n        /* \"#utility.yul\":8407:8470   */\n      swap6\n      pop\n        /* \"#utility.yul\":8362:8480   */\n      pop\n        /* \"#utility.yul\":8519:8521   */\n      0x60\n        /* \"#utility.yul\":8545:8598   */\n      tag_463\n        /* \"#utility.yul\":8590:8597   */\n      dup11\n        /* \"#utility.yul\":8581:8587   */\n      dup3\n        /* \"#utility.yul\":8570:8579   */\n      dup12\n        /* \"#utility.yul\":8566:8588   */\n      add\n        /* \"#utility.yul\":8545:8598   */\n      tag_312\n      jump\t// in\n    tag_463:\n        /* \"#utility.yul\":8535:8598   */\n      swap5\n      pop\n        /* \"#utility.yul\":8490:8608   */\n      pop\n        /* \"#utility.yul\":8647:8650   */\n      0x80\n        /* \"#utility.yul\":8674:8727   */\n      tag_464\n        /* \"#utility.yul\":8719:8726   */\n      dup11\n        /* \"#utility.yul\":8710:8716   */\n      dup3\n        /* \"#utility.yul\":8699:8708   */\n      dup12\n        /* \"#utility.yul\":8695:8717   */\n      add\n        /* \"#utility.yul\":8674:8727   */\n      tag_312\n      jump\t// in\n    tag_464:\n        /* \"#utility.yul\":8664:8727   */\n      swap4\n      pop\n        /* \"#utility.yul\":8618:8737   */\n      pop\n        /* \"#utility.yul\":8776:8779   */\n      0xa0\n        /* \"#utility.yul\":8803:8856   */\n      tag_465\n        /* \"#utility.yul\":8848:8855   */\n      dup11\n        /* \"#utility.yul\":8839:8845   */\n      dup3\n        /* \"#utility.yul\":8828:8837   */\n      dup12\n        /* \"#utility.yul\":8824:8846   */\n      add\n        /* \"#utility.yul\":8803:8856   */\n      tag_321\n      jump\t// in\n    tag_465:\n        /* \"#utility.yul\":8793:8856   */\n      swap3\n      pop\n        /* \"#utility.yul\":8747:8866   */\n      pop\n        /* \"#utility.yul\":8905:8908   */\n      0xc0\n        /* \"#utility.yul\":8932:8985   */\n      tag_466\n        /* \"#utility.yul\":8977:8984   */\n      dup11\n        /* \"#utility.yul\":8968:8974   */\n      dup3\n        /* \"#utility.yul\":8957:8966   */\n      dup12\n        /* \"#utility.yul\":8953:8975   */\n      add\n        /* \"#utility.yul\":8932:8985   */\n      tag_312\n      jump\t// in\n    tag_466:\n        /* \"#utility.yul\":8922:8985   */\n      swap2\n      pop\n        /* \"#utility.yul\":8876:8995   */\n      pop\n        /* \"#utility.yul\":7799:9002   */\n      swap3\n      swap6\n      swap9\n      swap2\n      swap5\n      swap8\n      pop\n      swap3\n      swap6\n      pop\n      jump\t// out\n        /* \"#utility.yul\":9008:9340   */\n    tag_75:\n        /* \"#utility.yul\":9129:9133   */\n      0x00\n        /* \"#utility.yul\":9167:9169   */\n      0x40\n        /* \"#utility.yul\":9156:9165   */\n      dup3\n        /* \"#utility.yul\":9152:9170   */\n      add\n        /* \"#utility.yul\":9144:9170   */\n      swap1\n      pop\n        /* \"#utility.yul\":9180:9251   */\n      tag_468\n        /* \"#utility.yul\":9248:9249   */\n      0x00\n        /* \"#utility.yul\":9237:9246   */\n      dup4\n        /* \"#utility.yul\":9233:9250   */\n      add\n        /* \"#utility.yul\":9224:9230   */\n      dup6\n        /* \"#utility.yul\":9180:9251   */\n      tag_329\n      jump\t// in\n    tag_468:\n        /* \"#utility.yul\":9261:9333   */\n      tag_469\n        /* \"#utility.yul\":9329:9331   */\n      0x20\n        /* \"#utility.yul\":9318:9327   */\n      dup4\n        /* \"#utility.yul\":9314:9332   */\n      add\n        /* \"#utility.yul\":9305:9311   */\n      dup5\n        /* \"#utility.yul\":9261:9333   */\n      tag_329\n      jump\t// in\n    tag_469:\n        /* \"#utility.yul\":9008:9340   */\n      swap4\n      swap3\n      pop\n      pop\n      pop\n      jump\t// out\n        /* \"#utility.yul\":9346:10695   */\n    tag_78:\n        /* \"#utility.yul\":9468:9474   */\n      0x00\n        /* \"#utility.yul\":9476:9482   */\n      0x00\n        /* \"#utility.yul\":9484:9490   */\n      0x00\n        /* \"#utility.yul\":9492:9498   */\n      0x00\n        /* \"#utility.yul\":9500:9506   */\n      0x00\n        /* \"#utility.yul\":9508:9514   */\n      0x00\n        /* \"#utility.yul\":9516:9522   */\n      0x00\n        /* \"#utility.yul\":9524:9530   */\n      0x00\n        /* \"#utility.yul\":9573:9576   */\n      0x0100\n        /* \"#utility.yul\":9561:9570   */\n      dup10\n        /* \"#utility.yul\":9552:9559   */\n      dup12\n        /* \"#utility.yul\":9548:9571   */\n      sub\n        /* \"#utility.yul\":9544:9577   */\n      slt\n        /* \"#utility.yul\":9541:9661   */\n      iszero\n      tag_471\n      jumpi\n        /* \"#utility.yul\":9580:9659   */\n      tag_472\n      tag_308\n      jump\t// in\n    tag_472:\n        /* \"#utility.yul\":9541:9661   */\n    tag_471:\n        /* \"#utility.yul\":9700:9701   */\n      0x00\n        /* \"#utility.yul\":9725:9778   */\n      tag_473\n        /* \"#utility.yul\":9770:9777   */\n      dup12\n        /* \"#utility.yul\":9761:9767   */\n      dup3\n        /* \"#utility.yul\":9750:9759   */\n      dup13\n        /* \"#utility.yul\":9746:9768   */\n      add\n        /* \"#utility.yul\":9725:9778   */\n      tag_321\n      jump\t// in\n    tag_473:\n        /* \"#utility.yul\":9715:9778   */\n      swap9\n      pop\n        /* \"#utility.yul\":9671:9788   */\n      pop\n        /* \"#utility.yul\":9827:9829   */\n      0x20\n        /* \"#utility.yul\":9853:9906   */\n      tag_474\n        /* \"#utility.yul\":9898:9905   */\n      dup12\n        /* \"#utility.yul\":9889:9895   */\n      dup3\n        /* \"#utility.yul\":9878:9887   */\n      dup13\n        /* \"#utility.yul\":9874:9896   */\n      add\n        /* \"#utility.yul\":9853:9906   */\n      tag_321\n      jump\t// in\n    tag_474:\n        /* \"#utility.yul\":9843:9906   */\n      swap8\n      pop\n        /* \"#utility.yul\":9798:9916   */\n      pop\n        /* \"#utility.yul\":9955:9957   */\n      0x40\n        /* \"#utility.yul\":9981:10034   */\n      tag_475\n        /* \"#utility.yul\":10026:10033   */\n      dup12\n        /* \"#utility.yul\":10017:10023   */\n      dup3\n        /* \"#utility.yul\":10006:10015   */\n      dup13\n        /* \"#utility.yul\":10002:10024   */\n      add\n        /* \"#utility.yul\":9981:10034   */\n      tag_312\n      jump\t// in\n    tag_475:\n        /* \"#utility.yul\":9971:10034   */\n      swap7\n      pop\n        /* \"#utility.yul\":9926:10044   */\n      pop\n        /* \"#utility.yul\":10083:10085   */\n      0x60\n        /* \"#utility.yul\":10109:10162   */\n      tag_476\n        /* \"#utility.yul\":10154:10161   */\n      dup12\n        /* \"#utility.yul\":10145:10151   */\n      dup3\n        /* \"#utility.yul\":10134:10143   */\n      dup13\n        /* \"#utility.yul\":10130:10152   */\n      add\n        /* \"#utility.yul\":10109:10162   */\n      tag_312\n      jump\t// in\n    tag_476:\n        /* \"#utility.yul\":10099:10162   */\n      swap6\n      pop\n        /* \"#utility.yul\":10054:10172   */\n      pop\n        /* \"#utility.yul\":10211:10214   */\n      0x80\n        /* \"#utility.yul\":10238:10291   */\n      tag_477\n        /* \"#utility.yul\":10283:10290   */\n      dup12\n        /* \"#utility.yul\":10274:10280   */\n      dup3\n        /* \"#utility.yul\":10263:10272   */\n      dup13\n        /* \"#utility.yul\":10259:10281   */\n      add\n        /* \"#utility.yul\":10238:10291   */\n      tag_312\n      jump\t// in\n    tag_477:\n        /* \"#utility.yul\":10228:10291   */\n      swap5\n      pop\n        /* \"#utility.yul\":10182:10301   */\n      pop\n        /* \"#utility.yul\":10340:10343   */\n      0xa0\n        /* \"#utility.yul\":10367:10420   */\n      tag_478\n        /* \"#utility.yul\":10412:10419   */\n      dup12\n        /* \"#utility.yul\":10403:10409   */\n      dup3\n        /* \"#utility.yul\":10392:10401   */\n      dup13\n        /* \"#utility.yul\":10388:10410   */\n      add\n        /* \"#utility.yul\":10367:10420   */\n      tag_312\n      jump\t// in\n    tag_478:\n        /* \"#utility.yul\":10357:10420   */\n      swap4\n      pop\n        /* \"#utility.yul\":10311:10430   */\n      pop\n        /* \"#utility.yul\":10469:10472   */\n      0xc0\n        /* \"#utility.yul\":10496:10549   */\n      tag_479\n        /* \"#utility.yul\":10541:10548   */\n      dup12\n        /* \"#utility.yul\":10532:10538   */\n      dup3\n        /* \"#utility.yul\":10521:10530   */\n      dup13\n        /* \"#utility.yul\":10517:10539   */\n      add\n        /* \"#utility.yul\":10496:10549   */\n      tag_321\n      jump\t// in\n    tag_479:\n        /* \"#utility.yul\":10486:10549   */\n      swap3\n      pop\n        /* \"#utility.yul\":10440:10559   */\n      pop\n        /* \"#utility.yul\":10598:10601   */\n      0xe0\n        /* \"#utility.yul\":10625:10678   */\n      tag_480\n        /* \"#utility.yul\":10670:10677   */\n      dup12\n        /* \"#utility.yul\":10661:10667   */\n      dup3\n        /* \"#utility.yul\":10650:10659   */\n      dup13\n        /* \"#utility.yul\":10646:10668   */\n      add\n        /* \"#utility.yul\":10625:10678   */\n      tag_312\n      jump\t// in\n    tag_480:\n        /* \"#utility.yul\":10615:10678   */\n      swap2\n      pop\n        /* \"#utility.yul\":10569:10688   */\n      pop\n        /* \"#utility.yul\":9346:10695   */\n      swap3\n      swap6\n      swap9\n      pop\n      swap3\n      swap6\n      swap9\n      swap1\n      swap4\n      swap7\n      pop\n      jump\t// out\n        /* \"#utility.yul\":10701:11143   */\n    tag_81:\n        /* \"#utility.yul\":10850:10854   */\n      0x00\n        /* \"#utility.yul\":10888:10890   */\n      0x60\n        /* \"#utility.yul\":10877:10886   */\n      dup3\n        /* \"#utility.yul\":10873:10891   */\n      add\n        /* \"#utility.yul\":10865:10891   */\n      swap1\n      pop\n        /* \"#utility.yul\":10901:10972   */\n      tag_482\n        /* \"#utility.yul\":10969:10970   */\n      0x00\n        /* \"#utility.yul\":10958:10967   */\n      dup4\n        /* \"#utility.yul\":10954:10971   */\n      add\n        /* \"#utility.yul\":10945:10951   */\n      dup7\n        /* \"#utility.yul\":10901:10972   */\n      tag_313\n      jump\t// in\n    tag_482:\n        /* \"#utility.yul\":10982:11054   */\n      tag_483\n        /* \"#utility.yul\":11050:11052   */\n      0x20\n        /* \"#utility.yul\":11039:11048   */\n      dup4\n        /* \"#utility.yul\":11035:11053   */\n      add\n        /* \"#utility.yul\":11026:11032   */\n      dup6\n        /* \"#utility.yul\":10982:11054   */\n      tag_313\n      jump\t// in\n    tag_483:\n        /* \"#utility.yul\":11064:11136   */\n      tag_484\n        /* \"#utility.yul\":11132:11134   */\n      0x40\n        /* \"#utility.yul\":11121:11130   */\n      dup4\n        /* \"#utility.yul\":11117:11135   */\n      add\n        /* \"#utility.yul\":11108:11114   */\n      dup5\n        /* \"#utility.yul\":11064:11136   */\n      tag_313\n      jump\t// in\n    tag_484:\n        /* \"#utility.yul\":10701:11143   */\n      swap5\n      swap4\n      pop\n      pop\n      pop\n      pop\n      jump\t// out\n        /* \"#utility.yul\":11149:11318   */\n    tag_330:\n        /* \"#utility.yul\":11233:11244   */\n      0x00\n        /* \"#utility.yul\":11267:11273   */\n      dup3\n        /* \"#utility.yul\":11262:11265   */\n      dup3\n        /* \"#utility.yul\":11255:11274   */\n      mstore\n        /* \"#utility.yul\":11307:11311   */\n      0x20\n        /* \"#utility.yul\":11302:11305   */\n      dup3\n        /* \"#utility.yul\":11298:11312   */\n      add\n        /* \"#utility.yul\":11283:11312   */\n      swap1\n      pop\n        /* \"#utility.yul\":11149:11318   */\n      swap3\n      swap2\n      pop\n      pop\n      jump\t// out\n        /* \"#utility.yul\":11324:11499   */\n    tag_331:\n        /* \"#utility.yul\":11464:11491   */\n      0x496e73756666696369656e7420696e70757420616d6f756e7400000000000000\n        /* \"#utility.yul\":11460:11461   */\n      0x00\n        /* \"#utility.yul\":11452:11458   */\n      dup3\n        /* \"#utility.yul\":11448:11462   */\n      add\n        /* \"#utility.yul\":11441:11492   */\n      mstore\n        /* \"#utility.yul\":11324:11499   */\n      pop\n      jump\t// out\n        /* \"#utility.yul\":11505:11871   */\n    tag_332:\n        /* \"#utility.yul\":11647:11650   */\n      0x00\n        /* \"#utility.yul\":11668:11735   */\n      tag_488\n        /* \"#utility.yul\":11732:11734   */\n      0x19\n        /* \"#utility.yul\":11727:11730   */\n      dup4\n        /* \"#utility.yul\":11668:11735   */\n      tag_330\n      jump\t// in\n    tag_488:\n        /* \"#utility.yul\":11661:11735   */\n      swap2\n      pop\n        /* \"#utility.yul\":11744:11837   */\n      tag_489\n        /* \"#utility.yul\":11833:11836   */\n      dup3\n        /* \"#utility.yul\":11744:11837   */\n      tag_331\n      jump\t// in\n    tag_489:\n        /* \"#utility.yul\":11862:11864   */\n      0x20\n        /* \"#utility.yul\":11857:11860   */\n      dup3\n        /* \"#utility.yul\":11853:11865   */\n      add\n        /* \"#utility.yul\":11846:11865   */\n      swap1\n      pop\n        /* \"#utility.yul\":11505:11871   */\n      swap2\n      swap1\n      pop\n      jump\t// out\n        /* \"#utility.yul\":11877:12296   */\n    tag_88:\n        /* \"#utility.yul\":12043:12047   */\n      0x00\n        /* \"#utility.yul\":12081:12083   */\n      0x20\n        /* \"#utility.yul\":12070:12079   */\n      dup3\n        /* \"#utility.yul\":12066:12084   */\n      add\n        /* \"#utility.yul\":12058:12084   */\n      swap1\n      pop\n        /* \"#utility.yul\":12130:12139   */\n      dup2\n        /* \"#utility.yul\":12124:12128   */\n      dup2\n        /* \"#utility.yul\":12120:12140   */\n      sub\n        /* \"#utility.yul\":12116:12117   */\n      0x00\n        /* \"#utility.yul\":12105:12114   */\n      dup4\n        /* \"#utility.yul\":12101:12118   */\n      add\n        /* \"#utility.yul\":12094:12141   */\n      mstore\n        /* \"#utility.yul\":12158:12289   */\n      tag_491\n        /* \"#utility.yul\":12284:12288   */\n      dup2\n        /* \"#utility.yul\":12158:12289   */\n      tag_332\n      jump\t// in\n    tag_491:\n        /* \"#utility.yul\":12150:12289   */\n      swap1\n      pop\n        /* \"#utility.yul\":11877:12296   */\n      swap2\n      swap1\n      pop\n      jump\t// out\n        /* \"#utility.yul\":12302:12474   */\n    tag_333:\n        /* \"#utility.yul\":12442:12466   */\n      0x496e73756666696369656e74206c697175696469747900000000000000000000\n        /* \"#utility.yul\":12438:12439   */\n      0x00\n        /* \"#utility.yul\":12430:12436   */\n      dup3\n        /* \"#utility.yul\":12426:12440   */\n      add\n        /* \"#utility.yul\":12419:12467   */\n      mstore\n        /* \"#utility.yul\":12302:12474   */\n      pop\n      jump\t// out\n        /* \"#utility.yul\":12480:12846   */\n    tag_334:\n        /* \"#utility.yul\":12622:12625   */\n      0x00\n        /* \"#utility.yul\":12643:12710   */\n      tag_494\n        /* \"#utility.yul\":12707:12709   */\n      0x16\n        /* \"#utility.yul\":12702:12705   */\n      dup4\n        /* \"#utility.yul\":12643:12710   */\n      tag_330\n      jump\t// in\n    tag_494:\n        /* \"#utility.yul\":12636:12710   */\n      swap2\n      pop\n        /* \"#utility.yul\":12719:12812   */\n      tag_495\n        /* \"#utility.yul\":12808:12811   */\n      dup3\n        /* \"#utility.yul\":12719:12812   */\n      tag_333\n      jump\t// in\n    tag_495:\n        /* \"#utility.yul\":12837:12839   */\n      0x20\n        /* \"#utility.yul\":12832:12835   */\n      dup3\n        /* \"#utility.yul\":12828:12840   */\n      add\n        /* \"#utility.yul\":12821:12840   */\n      swap1\n      pop\n        /* \"#utility.yul\":12480:12846   */\n      swap2\n      swap1\n      pop\n      jump\t// out\n        /* \"#utility.yul\":12852:13271   */\n    tag_92:\n        /* \"#utility.yul\":13018:13022   */\n      0x00\n        /* \"#utility.yul\":13056:13058   */\n      0x20\n        /* \"#utility.yul\":13045:13054   */\n      dup3\n        /* \"#utility.yul\":13041:13059   */\n      add\n        /* \"#utility.yul\":13033:13059   */\n      swap1\n      pop\n        /* \"#utility.yul\":13105:13114   */\n      dup2\n        /* \"#utility.yul\":13099:13103   */\n      dup2\n        /* \"#utility.yul\":13095:13115   */\n      sub\n        /* \"#utility.yul\":13091:13092   */\n      0x00\n        /* \"#utility.yul\":13080:13089   */\n      dup4\n        /* \"#utility.yul\":13076:13093   */\n      add\n        /* \"#utility.yul\":13069:13116   */\n      mstore\n        /* \"#utility.yul\":13133:13264   */\n      tag_497\n        /* \"#utility.yul\":13259:13263   */\n      dup2\n        /* \"#utility.yul\":13133:13264   */\n      tag_334\n      jump\t// in\n    tag_497:\n        /* \"#utility.yul\":13125:13264   */\n      swap1\n      pop\n        /* \"#utility.yul\":12852:13271   */\n      swap2\n      swap1\n      pop\n      jump\t// out\n        /* \"#utility.yul\":13277:13457   */\n    tag_335:\n        /* \"#utility.yul\":13325:13402   */\n      0x4e487b7100000000000000000000000000000000000000000000000000000000\n        /* \"#utility.yul\":13322:13323   */\n      0x00\n        /* \"#utility.yul\":13315:13403   */\n      mstore\n        /* \"#utility.yul\":13422:13426   */\n      0x11\n        /* \"#utility.yul\":13419:13420   */\n      0x04\n        /* \"#utility.yul\":13412:13427   */\n      mstore\n        /* \"#utility.yul\":13446:13450   */\n      0x24\n        /* \"#utility.yul\":13443:13444   */\n      0x00\n        /* \"#utility.yul\":13436:13451   */\n      revert\n        /* \"#utility.yul\":13463:13873   */\n    tag_94:\n        /* \"#utility.yul\":13503:13510   */\n      0x00\n        /* \"#utility.yul\":13526:13546   */\n      tag_500\n        /* \"#utility.yul\":13544:13545   */\n      dup3\n        /* \"#utility.yul\":13526:13546   */\n      tag_310\n      jump\t// in\n    tag_500:\n        /* \"#utility.yul\":13521:13546   */\n      swap2\n      pop\n        /* \"#utility.yul\":13560:13580   */\n      tag_501\n        /* \"#utility.yul\":13578:13579   */\n      dup4\n        /* \"#utility.yul\":13560:13580   */\n      tag_310\n      jump\t// in\n    tag_501:\n        /* \"#utility.yul\":13555:13580   */\n      swap3\n      pop\n        /* \"#utility.yul\":13615:13616   */\n      dup3\n        /* \"#utility.yul\":13612:13613   */\n      dup3\n        /* \"#utility.yul\":13608:13617   */\n      mul\n        /* \"#utility.yul\":13637:13667   */\n      tag_502\n        /* \"#utility.yul\":13655:13666   */\n      dup2\n        /* \"#utility.yul\":13637:13667   */\n      tag_310\n      jump\t// in\n    tag_502:\n        /* \"#utility.yul\":13626:13667   */\n      swap2\n      pop\n        /* \"#utility.yul\":13816:13817   */\n      dup3\n        /* \"#utility.yul\":13807:13814   */\n      dup3\n        /* \"#utility.yul\":13803:13818   */\n      div\n        /* \"#utility.yul\":13800:13801   */\n      dup5\n        /* \"#utility.yul\":13797:13819   */\n      eq\n        /* \"#utility.yul\":13777:13778   */\n      dup4\n        /* \"#utility.yul\":13770:13779   */\n      iszero\n        /* \"#utility.yul\":13750:13833   */\n      or\n        /* \"#utility.yul\":13727:13866   */\n      tag_503\n      jumpi\n        /* \"#utility.yul\":13846:13864   */\n      tag_504\n      tag_335\n      jump\t// in\n    tag_504:\n        /* \"#utility.yul\":13727:13866   */\n    tag_503:\n        /* \"#utility.yul\":13511:13873   */\n      pop\n        /* \"#utility.yul\":13463:13873   */\n      swap3\n      swap2\n      pop\n      pop\n      jump\t// out\n        /* \"#utility.yul\":13879:14070   */\n    tag_98:\n        /* \"#utility.yul\":13919:13922   */\n      0x00\n        /* \"#utility.yul\":13938:13958   */\n      tag_506\n        /* \"#utility.yul\":13956:13957   */\n      dup3\n        /* \"#utility.yul\":13938:13958   */\n      tag_310\n      jump\t// in\n    tag_506:\n        /* \"#utility.yul\":13933:13958   */\n      swap2\n      pop\n        /* \"#utility.yul\":13972:13992   */\n      tag_507\n        /* \"#utility.yul\":13990:13991   */\n      dup4\n        /* \"#utility.yul\":13972:13992   */\n      tag_310\n      jump\t// in\n    tag_507:\n        /* \"#utility.yul\":13967:13992   */\n      swap3\n      pop\n        /* \"#utility.yul\":14015:14016   */\n      dup3\n        /* \"#utility.yul\":14012:14013   */\n      dup3\n        /* \"#utility.yul\":14008:14017   */\n      add\n        /* \"#utility.yul\":14001:14017   */\n      swap1\n      pop\n        /* \"#utility.yul\":14036:14039   */\n      dup1\n        /* \"#utility.yul\":14033:14034   */\n      dup3\n        /* \"#utility.yul\":14030:14040   */\n      gt\n        /* \"#utility.yul\":14027:14063   */\n      iszero\n      tag_508\n      jumpi\n        /* \"#utility.yul\":14043:14061   */\n      tag_509\n      tag_335\n      jump\t// in\n    tag_509:\n        /* \"#utility.yul\":14027:14063   */\n    tag_508:\n        /* \"#utility.yul\":13879:14070   */\n      swap3\n      swap2\n      pop\n      pop\n      jump\t// out\n        /* \"#utility.yul\":14076:14256   */\n    tag_336:\n        /* \"#utility.yul\":14124:14201   */\n      0x4e487b7100000000000000000000000000000000000000000000000000000000\n        /* \"#utility.yul\":14121:14122   */\n      0x00\n        /* \"#utility.yul\":14114:14202   */\n      mstore\n        /* \"#utility.yul\":14221:14225   */\n      0x12\n        /* \"#utility.yul\":14218:14219   */\n      0x04\n        /* \"#utility.yul\":14211:14226   */\n      mstore\n        /* \"#utility.yul\":14245:14249   */\n      0x24\n        /* \"#utility.yul\":14242:14243   */\n      0x00\n        /* \"#utility.yul\":14235:14250   */\n      revert\n        /* \"#utility.yul\":14262:14447   */\n    tag_100:\n        /* \"#utility.yul\":14302:14303   */\n      0x00\n        /* \"#utility.yul\":14319:14339   */\n      tag_512\n        /* \"#utility.yul\":14337:14338   */\n      dup3\n        /* \"#utility.yul\":14319:14339   */\n      tag_310\n      jump\t// in\n    tag_512:\n        /* \"#utility.yul\":14314:14339   */\n      swap2\n      pop\n        /* \"#utility.yul\":14353:14373   */\n      tag_513\n        /* \"#utility.yul\":14371:14372   */\n      dup4\n        /* \"#utility.yul\":14353:14373   */\n      tag_310\n      jump\t// in\n    tag_513:\n        /* \"#utility.yul\":14348:14373   */\n      swap3\n      pop\n        /* \"#utility.yul\":14392:14393   */\n      dup3\n        /* \"#utility.yul\":14382:14417   */\n      tag_514\n      jumpi\n        /* \"#utility.yul\":14397:14415   */\n      tag_515\n      tag_336\n      jump\t// in\n    tag_515:\n        /* \"#utility.yul\":14382:14417   */\n    tag_514:\n        /* \"#utility.yul\":14439:14440   */\n      dup3\n        /* \"#utility.yul\":14436:14437   */\n      dup3\n        /* \"#utility.yul\":14432:14441   */\n      div\n        /* \"#utility.yul\":14427:14441   */\n      swap1\n      pop\n        /* \"#utility.yul\":14262:14447   */\n      swap3\n      swap2\n      pop\n      pop\n      jump\t// out\n        /* \"#utility.yul\":14453:14622   */\n    tag_337:\n        /* \"#utility.yul\":14593:14614   */\n      0x5472616e73616374696f6e206578706972656400000000000000000000000000\n        /* \"#utility.yul\":14589:14590   */\n      0x00\n        /* \"#utility.yul\":14581:14587   */\n      dup3\n        /* \"#utility.yul\":14577:14591   */\n      add\n        /* \"#utility.yul\":14570:14615   */\n      mstore\n        /* \"#utility.yul\":14453:14622   */\n      pop\n      jump\t// out\n        /* \"#utility.yul\":14628:14994   */\n    tag_338:\n        /* \"#utility.yul\":14770:14773   */\n      0x00\n        /* \"#utility.yul\":14791:14858   */\n      tag_518\n        /* \"#utility.yul\":14855:14857   */\n      0x13\n        /* \"#utility.yul\":14850:14853   */\n      dup4\n        /* \"#utility.yul\":14791:14858   */\n      tag_330\n      jump\t// in\n    tag_518:\n        /* \"#utility.yul\":14784:14858   */\n      swap2\n      pop\n        /* \"#utility.yul\":14867:14960   */\n      tag_519\n        /* \"#utility.yul\":14956:14959   */\n      dup3\n        /* \"#utility.yul\":14867:14960   */\n      tag_337\n      jump\t// in\n    tag_519:\n        /* \"#utility.yul\":14985:14987   */\n      0x20\n        /* \"#utility.yul\":14980:14983   */\n      dup3\n        /* \"#utility.yul\":14976:14988   */\n      add\n        /* \"#utility.yul\":14969:14988   */\n      swap1\n      pop\n        /* \"#utility.yul\":14628:14994   */\n      swap2\n      swap1\n      pop\n      jump\t// out\n        /* \"#utility.yul\":15000:15419   */\n    tag_106:\n        /* \"#utility.yul\":15166:15170   */\n      0x00\n        /* \"#utility.yul\":15204:15206   */\n      0x20\n        /* \"#utility.yul\":15193:15202   */\n      dup3\n        /* \"#utility.yul\":15189:15207   */\n      add\n        /* \"#utility.yul\":15181:15207   */\n      swap1\n      pop\n        /* \"#utility.yul\":15253:15262   */\n      dup2\n        /* \"#utility.yul\":15247:15251   */\n      dup2\n        /* \"#utility.yul\":15243:15263   */\n      sub\n        /* \"#utility.yul\":15239:15240   */\n      0x00\n        /* \"#utility.yul\":15228:15237   */\n      dup4\n        /* \"#utility.yul\":15224:15241   */\n      add\n        /* \"#utility.yul\":15217:15264   */\n      mstore\n        /* \"#utility.yul\":15281:15412   */\n      tag_521\n        /* \"#utility.yul\":15407:15411   */\n      dup2\n        /* \"#utility.yul\":15281:15412   */\n      tag_338\n      jump\t// in\n    tag_521:\n        /* \"#utility.yul\":15273:15412   */\n      swap1\n      pop\n        /* \"#utility.yul\":15000:15419   */\n      swap2\n      swap1\n      pop\n      jump\t// out\n        /* \"#utility.yul\":15425:15607   */\n    tag_339:\n        /* \"#utility.yul\":15565:15599   */\n      0x416d6f756e74206d7573742062652067726561746572207468616e207a65726f\n        /* \"#utility.yul\":15561:15562   */\n      0x00\n        /* \"#utility.yul\":15553:15559   */\n      dup3\n        /* \"#utility.yul\":15549:15563   */\n      add\n        /* \"#utility.yul\":15542:15600   */\n      mstore\n        /* \"#utility.yul\":15425:15607   */\n      pop\n      jump\t// out\n        /* \"#utility.yul\":15613:15979   */\n    tag_340:\n        /* \"#utility.yul\":15755:15758   */\n      0x00\n        /* \"#utility.yul\":15776:15843   */\n      tag_524\n        /* \"#utility.yul\":15840:15842   */\n      0x20\n        /* \"#utility.yul\":15835:15838   */\n      dup4\n        /* \"#utility.yul\":15776:15843   */\n      tag_330\n      jump\t// in\n    tag_524:\n        /* \"#utility.yul\":15769:15843   */\n      swap2\n      pop\n        /* \"#utility.yul\":15852:15945   */\n      tag_525\n        /* \"#utility.yul\":15941:15944   */\n      dup3\n        /* \"#utility.yul\":15852:15945   */\n      tag_339\n      jump\t// in\n    tag_525:\n        /* \"#utility.yul\":15970:15972   */\n      0x20\n        /* \"#utility.yul\":15965:15968   */\n      dup3\n        /* \"#utility.yul\":15961:15973   */\n      add\n        /* \"#utility.yul\":15954:15973   */\n      swap1\n      pop\n        /* \"#utility.yul\":15613:15979   */\n      swap2\n      swap1\n      pop\n      jump\t// out\n        /* \"#utility.yul\":15985:16404   */\n    tag_110:\n        /* \"#utility.yul\":16151:16155   */\n      0x00\n        /* \"#utility.yul\":16189:16191   */\n      0x20\n        /* \"#utility.yul\":16178:16187   */\n      dup3\n        /* \"#utility.yul\":16174:16192   */\n      add\n        /* \"#utility.yul\":16166:16192   */\n      swap1\n      pop\n        /* \"#utility.yul\":16238:16247   */\n      dup2\n        /* \"#utility.yul\":16232:16236   */\n      dup2\n        /* \"#utility.yul\":16228:16248   */\n      sub\n        /* \"#utility.yul\":16224:16225   */\n      0x00\n        /* \"#utility.yul\":16213:16222   */\n      dup4\n        /* \"#utility.yul\":16209:16226   */\n      add\n        /* \"#utility.yul\":16202:16249   */\n      mstore\n        /* \"#utility.yul\":16266:16397   */\n      tag_527\n        /* \"#utility.yul\":16392:16396   */\n      dup2\n        /* \"#utility.yul\":16266:16397   */\n      tag_340\n      jump\t// in\n    tag_527:\n        /* \"#utility.yul\":16258:16397   */\n      swap1\n      pop\n        /* \"#utility.yul\":15985:16404   */\n      swap2\n      swap1\n      pop\n      jump\t// out\n        /* \"#utility.yul\":16410:16579   */\n    tag_341:\n        /* \"#utility.yul\":16550:16571   */\n      0x496e76616c69642070617468206c656e67746800000000000000000000000000\n        /* \"#utility.yul\":16546:16547   */\n      0x00\n        /* \"#utility.yul\":16538:16544   */\n      dup3\n        /* \"#utility.yul\":16534:16548   */\n      add\n        /* \"#utility.yul\":16527:16572   */\n      mstore\n        /* \"#utility.yul\":16410:16579   */\n      pop\n      jump\t// out\n        /* \"#utility.yul\":16585:16951   */\n    tag_342:\n        /* \"#utility.yul\":16727:16730   */\n      0x00\n        /* \"#utility.yul\":16748:16815   */\n      tag_530\n        /* \"#utility.yul\":16812:16814   */\n      0x13\n        /* \"#utility.yul\":16807:16810   */\n      dup4\n        /* \"#utility.yul\":16748:16815   */\n      tag_330\n      jump\t// in\n    tag_530:\n        /* \"#utility.yul\":16741:16815   */\n      swap2\n      pop\n        /* \"#utility.yul\":16824:16917   */\n      tag_531\n        /* \"#utility.yul\":16913:16916   */\n      dup3\n        /* \"#utility.yul\":16824:16917   */\n      tag_341\n      jump\t// in\n    tag_531:\n        /* \"#utility.yul\":16942:16944   */\n      0x20\n        /* \"#utility.yul\":16937:16940   */\n      dup3\n        /* \"#utility.yul\":16933:16945   */\n      add\n        /* \"#utility.yul\":16926:16945   */\n      swap1\n      pop\n        /* \"#utility.yul\":16585:16951   */\n      swap2\n      swap1\n      pop\n      jump\t// out\n        /* \"#utility.yul\":16957:17376   */\n    tag_113:\n        /* \"#utility.yul\":17123:17127   */\n      0x00\n        /* \"#utility.yul\":17161:17163   */\n      0x20\n        /* \"#utility.yul\":17150:17159   */\n      dup3\n        /* \"#utility.yul\":17146:17164   */\n      add\n        /* \"#utility.yul\":17138:17164   */\n      swap1\n      pop\n        /* \"#utility.yul\":17210:17219   */\n      dup2\n        /* \"#utility.yul\":17204:17208   */\n      dup2\n        /* \"#utility.yul\":17200:17220   */\n      sub\n        /* \"#utility.yul\":17196:17197   */\n      0x00\n        /* \"#utility.yul\":17185:17194   */\n      dup4\n        /* \"#utility.yul\":17181:17198   */\n      add\n        /* \"#utility.yul\":17174:17221   */\n      mstore\n        /* \"#utility.yul\":17238:17369   */\n      tag_533\n        /* \"#utility.yul\":17364:17368   */\n      dup2\n        /* \"#utility.yul\":17238:17369   */\n      tag_342\n      jump\t// in\n    tag_533:\n        /* \"#utility.yul\":17230:17369   */\n      swap1\n      pop\n        /* \"#utility.yul\":16957:17376   */\n      swap2\n      swap1\n      pop\n      jump\t// out\n        /* \"#utility.yul\":17382:17557   */\n    tag_343:\n        /* \"#utility.yul\":17522:17549   */\n      0x496e76616c696420726563697069656e74206164647265737300000000000000\n        /* \"#utility.yul\":17518:17519   */\n      0x00\n        /* \"#utility.yul\":17510:17516   */\n      dup3\n        /* \"#utility.yul\":17506:17520   */\n      add\n        /* \"#utility.yul\":17499:17550   */\n      mstore\n        /* \"#utility.yul\":17382:17557   */\n      pop\n      jump\t// out\n        /* \"#utility.yul\":17563:17929   */\n    tag_344:\n        /* \"#utility.yul\":17705:17708   */\n      0x00\n        /* \"#utility.yul\":17726:17793   */\n      tag_536\n        /* \"#utility.yul\":17790:17792   */\n      0x19\n        /* \"#utility.yul\":17785:17788   */\n      dup4\n        /* \"#utility.yul\":17726:17793   */\n      tag_330\n      jump\t// in\n    tag_536:\n        /* \"#utility.yul\":17719:17793   */\n      swap2\n      pop\n        /* \"#utility.yul\":17802:17895   */\n      tag_537\n        /* \"#utility.yul\":17891:17894   */\n      dup3\n        /* \"#utility.yul\":17802:17895   */\n      tag_343\n      jump\t// in\n    tag_537:\n        /* \"#utility.yul\":17920:17922   */\n      0x20\n        /* \"#utility.yul\":17915:17918   */\n      dup3\n        /* \"#utility.yul\":17911:17923   */\n      add\n        /* \"#utility.yul\":17904:17923   */\n      swap1\n      pop\n        /* \"#utility.yul\":17563:17929   */\n      swap2\n      swap1\n      pop\n      jump\t// out\n        /* \"#utility.yul\":17935:18354   */\n    tag_116:\n        /* \"#utility.yul\":18101:18105   */\n      0x00\n        /* \"#utility.yul\":18139:18141   */\n      0x20\n        /* \"#utility.yul\":18128:18137   */\n      dup3\n        /* \"#utility.yul\":18124:18142   */\n      add\n        /* \"#utility.yul\":18116:18142   */\n      swap1\n      pop\n        /* \"#utility.yul\":18188:18197   */\n      dup2\n        /* \"#utility.yul\":18182:18186   */\n      dup2\n        /* \"#utility.yul\":18178:18198   */\n      sub\n        /* \"#utility.yul\":18174:18175   */\n      0x00\n        /* \"#utility.yul\":18163:18172   */\n      dup4\n        /* \"#utility.yul\":18159:18176   */\n      add\n        /* \"#utility.yul\":18152:18199   */\n      mstore\n        /* \"#utility.yul\":18216:18347   */\n      tag_539\n        /* \"#utility.yul\":18342:18346   */\n      dup2\n        /* \"#utility.yul\":18216:18347   */\n      tag_344\n      jump\t// in\n    tag_539:\n        /* \"#utility.yul\":18208:18347   */\n      swap1\n      pop\n        /* \"#utility.yul\":17935:18354   */\n      swap2\n      swap1\n      pop\n      jump\t// out\n        /* \"#utility.yul\":18360:18540   */\n    tag_119:\n        /* \"#utility.yul\":18408:18485   */\n      0x4e487b7100000000000000000000000000000000000000000000000000000000\n        /* \"#utility.yul\":18405:18406   */\n      0x00\n        /* \"#utility.yul\":18398:18486   */\n      mstore\n        /* \"#utility.yul\":18505:18509   */\n      0x32\n        /* \"#utility.yul\":18502:18503   */\n      0x04\n        /* \"#utility.yul\":18495:18510   */\n      mstore\n        /* \"#utility.yul\":18529:18533   */\n      0x24\n        /* \"#utility.yul\":18526:18527   */\n      0x00\n        /* \"#utility.yul\":18519:18534   */\n      revert\n        /* \"#utility.yul\":18546:18714   */\n    tag_345:\n        /* \"#utility.yul\":18686:18706   */\n      0x496e76616c696420746f6b656e20706169720000000000000000000000000000\n        /* \"#utility.yul\":18682:18683   */\n      0x00\n        /* \"#utility.yul\":18674:18680   */\n      dup3\n        /* \"#utility.yul\":18670:18684   */\n      add\n        /* \"#utility.yul\":18663:18707   */\n      mstore\n        /* \"#utility.yul\":18546:18714   */\n      pop\n      jump\t// out\n        /* \"#utility.yul\":18720:19086   */\n    tag_346:\n        /* \"#utility.yul\":18862:18865   */\n      0x00\n        /* \"#utility.yul\":18883:18950   */\n      tag_543\n        /* \"#utility.yul\":18947:18949   */\n      0x12\n        /* \"#utility.yul\":18942:18945   */\n      dup4\n        /* \"#utility.yul\":18883:18950   */\n      tag_330\n      jump\t// in\n    tag_543:\n        /* \"#utility.yul\":18876:18950   */\n      swap2\n      pop\n        /* \"#utility.yul\":18959:19052   */\n      tag_544\n        /* \"#utility.yul\":19048:19051   */\n      dup3\n        /* \"#utility.yul\":18959:19052   */\n      tag_345\n      jump\t// in\n    tag_544:\n        /* \"#utility.yul\":19077:19079   */\n      0x20\n        /* \"#utility.yul\":19072:19075   */\n      dup3\n        /* \"#utility.yul\":19068:19080   */\n      add\n        /* \"#utility.yul\":19061:19080   */\n      swap1\n      pop\n        /* \"#utility.yul\":18720:19086   */\n      swap2\n      swap1\n      pop\n      jump\t// out\n        /* \"#utility.yul\":19092:19511   */\n    tag_129:\n        /* \"#utility.yul\":19258:19262   */\n      0x00\n        /* \"#utility.yul\":19296:19298   */\n      0x20\n        /* \"#utility.yul\":19285:19294   */\n      dup3\n        /* \"#utility.yul\":19281:19299   */\n      add\n        /* \"#utility.yul\":19273:19299   */\n      swap1\n      pop\n        /* \"#utility.yul\":19345:19354   */\n      dup2\n        /* \"#utility.yul\":19339:19343   */\n      dup2\n        /* \"#utility.yul\":19335:19355   */\n      sub\n        /* \"#utility.yul\":19331:19332   */\n      0x00\n        /* \"#utility.yul\":19320:19329   */\n      dup4\n        /* \"#utility.yul\":19316:19333   */\n      add\n        /* \"#utility.yul\":19309:19356   */\n      mstore\n        /* \"#utility.yul\":19373:19504   */\n      tag_546\n        /* \"#utility.yul\":19499:19503   */\n      dup2\n        /* \"#utility.yul\":19373:19504   */\n      tag_346\n      jump\t// in\n    tag_546:\n        /* \"#utility.yul\":19365:19504   */\n      swap1\n      pop\n        /* \"#utility.yul\":19092:19511   */\n      swap2\n      swap1\n      pop\n      jump\t// out\n        /* \"#utility.yul\":19517:19693   */\n    tag_347:\n        /* \"#utility.yul\":19657:19685   */\n      0x496e73756666696369656e74206f757470757420616d6f756e74000000000000\n        /* \"#utility.yul\":19653:19654   */\n      0x00\n        /* \"#utility.yul\":19645:19651   */\n      dup3\n        /* \"#utility.yul\":19641:19655   */\n      add\n        /* \"#utility.yul\":19634:19686   */\n      mstore\n        /* \"#utility.yul\":19517:19693   */\n      pop\n      jump\t// out\n        /* \"#utility.yul\":19699:20065   */\n    tag_348:\n        /* \"#utility.yul\":19841:19844   */\n      0x00\n        /* \"#utility.yul\":19862:19929   */\n      tag_549\n        /* \"#utility.yul\":19926:19928   */\n      0x1a\n        /* \"#utility.yul\":19921:19924   */\n      dup4\n        /* \"#utility.yul\":19862:19929   */\n      tag_330\n      jump\t// in\n    tag_549:\n        /* \"#utility.yul\":19855:19929   */\n      swap2\n      pop\n        /* \"#utility.yul\":19938:20031   */\n      tag_550\n        /* \"#utility.yul\":20027:20030   */\n      dup3\n        /* \"#utility.yul\":19938:20031   */\n      tag_347\n      jump\t// in\n    tag_550:\n        /* \"#utility.yul\":20056:20058   */\n      0x20\n        /* \"#utility.yul\":20051:20054   */\n      dup3\n        /* \"#utility.yul\":20047:20059   */\n      add\n        /* \"#utility.yul\":20040:20059   */\n      swap1\n      pop\n        /* \"#utility.yul\":19699:20065   */\n      swap2\n      swap1\n      pop\n      jump\t// out\n        /* \"#utility.yul\":20071:20490   */\n    tag_140:\n        /* \"#utility.yul\":20237:20241   */\n      0x00\n        /* \"#utility.yul\":20275:20277   */\n      0x20\n        /* \"#utility.yul\":20264:20273   */\n      dup3\n        /* \"#utility.yul\":20260:20278   */\n      add\n        /* \"#utility.yul\":20252:20278   */\n      swap1\n      pop\n        /* \"#utility.yul\":20324:20333   */\n      dup2\n        /* \"#utility.yul\":20318:20322   */\n      dup2\n        /* \"#utility.yul\":20314:20334   */\n      sub\n        /* \"#utility.yul\":20310:20311   */\n      0x00\n        /* \"#utility.yul\":20299:20308   */\n      dup4\n        /* \"#utility.yul\":20295:20312   */\n      add\n        /* \"#utility.yul\":20288:20335   */\n      mstore\n        /* \"#utility.yul\":20352:20483   */\n      tag_552\n        /* \"#utility.yul\":20478:20482   */\n      dup2\n        /* \"#utility.yul\":20352:20483   */\n      tag_348\n      jump\t// in\n    tag_552:\n        /* \"#utility.yul\":20344:20483   */\n      swap1\n      pop\n        /* \"#utility.yul\":20071:20490   */\n      swap2\n      swap1\n      pop\n      jump\t// out\n        /* \"#utility.yul\":20496:20666   */\n    tag_349:\n        /* \"#utility.yul\":20636:20658   */\n      0x496e73756666696369656e742072657365727665000000000000000000000000\n        /* \"#utility.yul\":20632:20633   */\n      0x00\n        /* \"#utility.yul\":20624:20630   */\n      dup3\n        /* \"#utility.yul\":20620:20634   */\n      add\n        /* \"#utility.yul\":20613:20659   */\n      mstore\n        /* \"#utility.yul\":20496:20666   */\n      pop\n      jump\t// out\n        /* \"#utility.yul\":20672:21038   */\n    tag_350:\n        /* \"#utility.yul\":20814:20817   */\n      0x00\n        /* \"#utility.yul\":20835:20902   */\n      tag_555\n        /* \"#utility.yul\":20899:20901   */\n      0x14\n        /* \"#utility.yul\":20894:20897   */\n      dup4\n        /* \"#utility.yul\":20835:20902   */\n      tag_330\n      jump\t// in\n    tag_555:\n        /* \"#utility.yul\":20828:20902   */\n      swap2\n      pop\n        /* \"#utility.yul\":20911:21004   */\n      tag_556\n        /* \"#utility.yul\":21000:21003   */\n      dup3\n        /* \"#utility.yul\":20911:21004   */\n      tag_349\n      jump\t// in\n    tag_556:\n        /* \"#utility.yul\":21029:21031   */\n      0x20\n        /* \"#utility.yul\":21024:21027   */\n      dup3\n        /* \"#utility.yul\":21020:21032   */\n      add\n        /* \"#utility.yul\":21013:21032   */\n      swap1\n      pop\n        /* \"#utility.yul\":20672:21038   */\n      swap2\n      swap1\n      pop\n      jump\t// out\n        /* \"#utility.yul\":21044:21463   */\n    tag_143:\n        /* \"#utility.yul\":21210:21214   */\n      0x00\n        /* \"#utility.yul\":21248:21250   */\n      0x20\n        /* \"#utility.yul\":21237:21246   */\n      dup3\n        /* \"#utility.yul\":21233:21251   */\n      add\n        /* \"#utility.yul\":21225:21251   */\n      swap1\n      pop\n        /* \"#utility.yul\":21297:21306   */\n      dup2\n        /* \"#utility.yul\":21291:21295   */\n      dup2\n        /* \"#utility.yul\":21287:21307   */\n      sub\n        /* \"#utility.yul\":21283:21284   */\n      0x00\n        /* \"#utility.yul\":21272:21281   */\n      dup4\n        /* \"#utility.yul\":21268:21285   */\n      add\n        /* \"#utility.yul\":21261:21308   */\n      mstore\n        /* \"#utility.yul\":21325:21456   */\n      tag_558\n        /* \"#utility.yul\":21451:21455   */\n      dup2\n        /* \"#utility.yul\":21325:21456   */\n      tag_350\n      jump\t// in\n    tag_558:\n        /* \"#utility.yul\":21317:21456   */\n      swap1\n      pop\n        /* \"#utility.yul\":21044:21463   */\n      swap2\n      swap1\n      pop\n      jump\t// out\n        /* \"#utility.yul\":21469:21801   */\n    tag_145:\n        /* \"#utility.yul\":21590:21594   */\n      0x00\n        /* \"#utility.yul\":21628:21630   */\n      0x40\n        /* \"#utility.yul\":21617:21626   */\n      dup3\n        /* \"#utility.yul\":21613:21631   */\n      add\n        /* \"#utility.yul\":21605:21631   */\n      swap1\n      pop\n        /* \"#utility.yul\":21641:21712   */\n      tag_560\n        /* \"#utility.yul\":21709:21710   */\n      0x00\n        /* \"#utility.yul\":21698:21707   */\n      dup4\n        /* \"#utility.yul\":21694:21711   */\n      add\n        /* \"#utility.yul\":21685:21691   */\n      dup6\n        /* \"#utility.yul\":21641:21712   */\n      tag_329\n      jump\t// in\n    tag_560:\n        /* \"#utility.yul\":21722:21794   */\n      tag_561\n        /* \"#utility.yul\":21790:21792   */\n      0x20\n        /* \"#utility.yul\":21779:21788   */\n      dup4\n        /* \"#utility.yul\":21775:21793   */\n      add\n        /* \"#utility.yul\":21766:21772   */\n      dup5\n        /* \"#utility.yul\":21722:21794   */\n      tag_313\n      jump\t// in\n    tag_561:\n        /* \"#utility.yul\":21469:21801   */\n      swap4\n      swap3\n      pop\n      pop\n      pop\n      jump\t// out\n        /* \"#utility.yul\":21807:21897   */\n    tag_351:\n        /* \"#utility.yul\":21841:21848   */\n      0x00\n        /* \"#utility.yul\":21884:21889   */\n      dup2\n        /* \"#utility.yul\":21877:21890   */\n      iszero\n        /* \"#utility.yul\":21870:21891   */\n      iszero\n        /* \"#utility.yul\":21859:21891   */\n      swap1\n      pop\n        /* \"#utility.yul\":21807:21897   */\n      swap2\n      swap1\n      pop\n      jump\t// out\n        /* \"#utility.yul\":21903:22019   */\n    tag_352:\n        /* \"#utility.yul\":21973:21994   */\n      tag_564\n        /* \"#utility.yul\":21988:21993   */\n      dup2\n        /* \"#utility.yul\":21973:21994   */\n      tag_351\n      jump\t// in\n    tag_564:\n        /* \"#utility.yul\":21966:21971   */\n      dup2\n        /* \"#utility.yul\":21963:21995   */\n      eq\n        /* \"#utility.yul\":21953:22013   */\n      tag_565\n      jumpi\n        /* \"#utility.yul\":22009:22010   */\n      0x00\n        /* \"#utility.yul\":22006:22007   */\n      0x00\n        /* \"#utility.yul\":21999:22011   */\n      revert\n        /* \"#utility.yul\":21953:22013   */\n    tag_565:\n        /* \"#utility.yul\":21903:22019   */\n      pop\n      jump\t// out\n        /* \"#utility.yul\":22025:22162   */\n    tag_353:\n        /* \"#utility.yul\":22079:22084   */\n      0x00\n        /* \"#utility.yul\":22110:22116   */\n      dup2\n        /* \"#utility.yul\":22104:22117   */\n      mload\n        /* \"#utility.yul\":22095:22117   */\n      swap1\n      pop\n        /* \"#utility.yul\":22126:22156   */\n      tag_567\n        /* \"#utility.yul\":22150:22155   */\n      dup2\n        /* \"#utility.yul\":22126:22156   */\n      tag_352\n      jump\t// in\n    tag_567:\n        /* \"#utility.yul\":22025:22162   */\n      swap3\n      swap2\n      pop\n      pop\n      jump\t// out\n        /* \"#utility.yul\":22168:22513   */\n    tag_149:\n        /* \"#utility.yul\":22235:22241   */\n      0x00\n        /* \"#utility.yul\":22284:22286   */\n      0x20\n        /* \"#utility.yul\":22272:22281   */\n      dup3\n        /* \"#utility.yul\":22263:22270   */\n      dup5\n        /* \"#utility.yul\":22259:22282   */\n      sub\n        /* \"#utility.yul\":22255:22287   */\n      slt\n        /* \"#utility.yul\":22252:22371   */\n      iszero\n      tag_569\n      jumpi\n        /* \"#utility.yul\":22290:22369   */\n      tag_570\n      tag_308\n      jump\t// in\n    tag_570:\n        /* \"#utility.yul\":22252:22371   */\n    tag_569:\n        /* \"#utility.yul\":22410:22411   */\n      0x00\n        /* \"#utility.yul\":22435:22496   */\n      tag_571\n        /* \"#utility.yul\":22488:22495   */\n      dup5\n        /* \"#utility.yul\":22479:22485   */\n      dup3\n        /* \"#utility.yul\":22468:22477   */\n      dup6\n        /* \"#utility.yul\":22464:22486   */\n      add\n        /* \"#utility.yul\":22435:22496   */\n      tag_353\n      jump\t// in\n    tag_571:\n        /* \"#utility.yul\":22425:22496   */\n      swap2\n      pop\n        /* \"#utility.yul\":22381:22506   */\n      pop\n        /* \"#utility.yul\":22168:22513   */\n      swap3\n      swap2\n      pop\n      pop\n      jump\t// out\n        /* \"#utility.yul\":22519:22697   */\n    tag_354:\n        /* \"#utility.yul\":22659:22689   */\n      0x4f757470757420746f6b656e207472616e73666572206661696c656400000000\n        /* \"#utility.yul\":22655:22656   */\n      0x00\n        /* \"#utility.yul\":22647:22653   */\n      dup3\n        /* \"#utility.yul\":22643:22657   */\n      add\n        /* \"#utility.yul\":22636:22690   */\n      mstore\n        /* \"#utility.yul\":22519:22697   */\n      pop\n      jump\t// out\n        /* \"#utility.yul\":22703:23069   */\n    tag_355:\n        /* \"#utility.yul\":22845:22848   */\n      0x00\n        /* \"#utility.yul\":22866:22933   */\n      tag_574\n        /* \"#utility.yul\":22930:22932   */\n      0x1c\n        /* \"#utility.yul\":22925:22928   */\n      dup4\n        /* \"#utility.yul\":22866:22933   */\n      tag_330\n      jump\t// in\n    tag_574:\n        /* \"#utility.yul\":22859:22933   */\n      swap2\n      pop\n        /* \"#utility.yul\":22942:23035   */\n      tag_575\n        /* \"#utility.yul\":23031:23034   */\n      dup3\n        /* \"#utility.yul\":22942:23035   */\n      tag_354\n      jump\t// in\n    tag_575:\n        /* \"#utility.yul\":23060:23062   */\n      0x20\n        /* \"#utility.yul\":23055:23058   */\n      dup3\n        /* \"#utility.yul\":23051:23063   */\n      add\n        /* \"#utility.yul\":23044:23063   */\n      swap1\n      pop\n        /* \"#utility.yul\":22703:23069   */\n      swap2\n      swap1\n      pop\n      jump\t// out\n        /* \"#utility.yul\":23075:23494   */\n    tag_152:\n        /* \"#utility.yul\":23241:23245   */\n      0x00\n        /* \"#utility.yul\":23279:23281   */\n      0x20\n        /* \"#utility.yul\":23268:23277   */\n      dup3\n        /* \"#utility.yul\":23264:23282   */\n      add\n        /* \"#utility.yul\":23256:23282   */\n      swap1\n      pop\n        /* \"#utility.yul\":23328:23337   */\n      dup2\n        /* \"#utility.yul\":23322:23326   */\n      dup2\n        /* \"#utility.yul\":23318:23338   */\n      sub\n        /* \"#utility.yul\":23314:23315   */\n      0x00\n        /* \"#utility.yul\":23303:23312   */\n      dup4\n        /* \"#utility.yul\":23299:23316   */\n      add\n        /* \"#utility.yul\":23292:23339   */\n      mstore\n        /* \"#utility.yul\":23356:23487   */\n      tag_577\n        /* \"#utility.yul\":23482:23486   */\n      dup2\n        /* \"#utility.yul\":23356:23487   */\n      tag_355\n      jump\t// in\n    tag_577:\n        /* \"#utility.yul\":23348:23487   */\n      swap1\n      pop\n        /* \"#utility.yul\":23075:23494   */\n      swap2\n      swap1\n      pop\n      jump\t// out\n        /* \"#utility.yul\":23500:23680   */\n    tag_155:\n        /* \"#utility.yul\":23548:23625   */\n      0x4e487b7100000000000000000000000000000000000000000000000000000000\n        /* \"#utility.yul\":23545:23546   */\n      0x00\n        /* \"#utility.yul\":23538:23626   */\n      mstore\n        /* \"#utility.yul\":23645:23649   */\n      0x41\n        /* \"#utility.yul\":23642:23643   */\n      0x04\n        /* \"#utility.yul\":23635:23650   */\n      mstore\n        /* \"#utility.yul\":23669:23673   */\n      0x24\n        /* \"#utility.yul\":23666:23667   */\n      0x00\n        /* \"#utility.yul\":23659:23674   */\n      revert\n        /* \"#utility.yul\":23686:23859   */\n    tag_356:\n        /* \"#utility.yul\":23826:23851   */\n      0x4e6f206c697175696469747920666f7220746f6b656e41000000000000000000\n        /* \"#utility.yul\":23822:23823   */\n      0x00\n        /* \"#utility.yul\":23814:23820   */\n      dup3\n        /* \"#utility.yul\":23810:23824   */\n      add\n        /* \"#utility.yul\":23803:23852   */\n      mstore\n        /* \"#utility.yul\":23686:23859   */\n      pop\n      jump\t// out\n        /* \"#utility.yul\":23865:24231   */\n    tag_357:\n        /* \"#utility.yul\":24007:24010   */\n      0x00\n        /* \"#utility.yul\":24028:24095   */\n      tag_581\n        /* \"#utility.yul\":24092:24094   */\n      0x17\n        /* \"#utility.yul\":24087:24090   */\n      dup4\n        /* \"#utility.yul\":24028:24095   */\n      tag_330\n      jump\t// in\n    tag_581:\n        /* \"#utility.yul\":24021:24095   */\n      swap2\n      pop\n        /* \"#utility.yul\":24104:24197   */\n      tag_582\n        /* \"#utility.yul\":24193:24196   */\n      dup3\n        /* \"#utility.yul\":24104:24197   */\n      tag_356\n      jump\t// in\n    tag_582:\n        /* \"#utility.yul\":24222:24224   */\n      0x20\n        /* \"#utility.yul\":24217:24220   */\n      dup3\n        /* \"#utility.yul\":24213:24225   */\n      add\n        /* \"#utility.yul\":24206:24225   */\n      swap1\n      pop\n        /* \"#utility.yul\":23865:24231   */\n      swap2\n      swap1\n      pop\n      jump\t// out\n        /* \"#utility.yul\":24237:24656   */\n    tag_173:\n        /* \"#utility.yul\":24403:24407   */\n      0x00\n        /* \"#utility.yul\":24441:24443   */\n      0x20\n        /* \"#utility.yul\":24430:24439   */\n      dup3\n        /* \"#utility.yul\":24426:24444   */\n      add\n        /* \"#utility.yul\":24418:24444   */\n      swap1\n      pop\n        /* \"#utility.yul\":24490:24499   */\n      dup2\n        /* \"#utility.yul\":24484:24488   */\n      dup2\n        /* \"#utility.yul\":24480:24500   */\n      sub\n        /* \"#utility.yul\":24476:24477   */\n      0x00\n        /* \"#utility.yul\":24465:24474   */\n      dup4\n        /* \"#utility.yul\":24461:24478   */\n      add\n        /* \"#utility.yul\":24454:24501   */\n      mstore\n        /* \"#utility.yul\":24518:24649   */\n      tag_584\n        /* \"#utility.yul\":24644:24648   */\n      dup2\n        /* \"#utility.yul\":24518:24649   */\n      tag_357\n      jump\t// in\n    tag_584:\n        /* \"#utility.yul\":24510:24649   */\n      swap1\n      pop\n        /* \"#utility.yul\":24237:24656   */\n      swap2\n      swap1\n      pop\n      jump\t// out\n        /* \"#utility.yul\":24662:24884   */\n    tag_358:\n        /* \"#utility.yul\":24802:24836   */\n      0x4c6971756964697479206d7573742062652067726561746572207468616e207a\n        /* \"#utility.yul\":24798:24799   */\n      0x00\n        /* \"#utility.yul\":24790:24796   */\n      dup3\n        /* \"#utility.yul\":24786:24800   */\n      add\n        /* \"#utility.yul\":24779:24837   */\n      mstore\n        /* \"#utility.yul\":24871:24876   */\n      0x65726f0000000000000000000000000000000000000000000000000000000000\n        /* \"#utility.yul\":24866:24868   */\n      0x20\n        /* \"#utility.yul\":24858:24864   */\n      dup3\n        /* \"#utility.yul\":24854:24869   */\n      add\n        /* \"#utility.yul\":24847:24877   */\n      mstore\n        /* \"#utility.yul\":24662:24884   */\n      pop\n      jump\t// out\n        /* \"#utility.yul\":24890:25256   */\n    tag_359:\n        /* \"#utility.yul\":25032:25035   */\n      0x00\n        /* \"#utility.yul\":25053:25120   */\n      tag_587\n        /* \"#utility.yul\":25117:25119   */\n      0x23\n        /* \"#utility.yul\":25112:25115   */\n      dup4\n        /* \"#utility.yul\":25053:25120   */\n      tag_330\n      jump\t// in\n    tag_587:\n        /* \"#utility.yul\":25046:25120   */\n      swap2\n      pop\n        /* \"#utility.yul\":25129:25222   */\n      tag_588\n        /* \"#utility.yul\":25218:25221   */\n      dup3\n        /* \"#utility.yul\":25129:25222   */\n      tag_358\n      jump\t// in\n    tag_588:\n        /* \"#utility.yul\":25247:25249   */\n      0x40\n        /* \"#utility.yul\":25242:25245   */\n      dup3\n        /* \"#utility.yul\":25238:25250   */\n      add\n        /* \"#utility.yul\":25231:25250   */\n      swap1\n      pop\n        /* \"#utility.yul\":24890:25256   */\n      swap2\n      swap1\n      pop\n      jump\t// out\n        /* \"#utility.yul\":25262:25681   */\n    tag_189:\n        /* \"#utility.yul\":25428:25432   */\n      0x00\n        /* \"#utility.yul\":25466:25468   */\n      0x20\n        /* \"#utility.yul\":25455:25464   */\n      dup3\n        /* \"#utility.yul\":25451:25469   */\n      add\n        /* \"#utility.yul\":25443:25469   */\n      swap1\n      pop\n        /* \"#utility.yul\":25515:25524   */\n      dup2\n        /* \"#utility.yul\":25509:25513   */\n      dup2\n        /* \"#utility.yul\":25505:25525   */\n      sub\n        /* \"#utility.yul\":25501:25502   */\n      0x00\n        /* \"#utility.yul\":25490:25499   */\n      dup4\n        /* \"#utility.yul\":25486:25503   */\n      add\n        /* \"#utility.yul\":25479:25526   */\n      mstore\n        /* \"#utility.yul\":25543:25674   */\n      tag_590\n        /* \"#utility.yul\":25669:25673   */\n      dup2\n        /* \"#utility.yul\":25543:25674   */\n      tag_359\n      jump\t// in\n    tag_590:\n        /* \"#utility.yul\":25535:25674   */\n      swap1\n      pop\n        /* \"#utility.yul\":25262:25681   */\n      swap2\n      swap1\n      pop\n      jump\t// out\n        /* \"#utility.yul\":25687:25866   */\n    tag_360:\n        /* \"#utility.yul\":25827:25858   */\n      0x496e73756666696369656e74206c697175696469747920736861726573000000\n        /* \"#utility.yul\":25823:25824   */\n      0x00\n        /* \"#utility.yul\":25815:25821   */\n      dup3\n        /* \"#utility.yul\":25811:25825   */\n      add\n        /* \"#utility.yul\":25804:25859   */\n      mstore\n        /* \"#utility.yul\":25687:25866   */\n      pop\n      jump\t// out\n        /* \"#utility.yul\":25872:26238   */\n    tag_361:\n        /* \"#utility.yul\":26014:26017   */\n      0x00\n        /* \"#utility.yul\":26035:26102   */\n      tag_593\n        /* \"#utility.yul\":26099:26101   */\n      0x1d\n        /* \"#utility.yul\":26094:26097   */\n      dup4\n        /* \"#utility.yul\":26035:26102   */\n      tag_330\n      jump\t// in\n    tag_593:\n        /* \"#utility.yul\":26028:26102   */\n      swap2\n      pop\n        /* \"#utility.yul\":26111:26204   */\n      tag_594\n        /* \"#utility.yul\":26200:26203   */\n      dup3\n        /* \"#utility.yul\":26111:26204   */\n      tag_360\n      jump\t// in\n    tag_594:\n        /* \"#utility.yul\":26229:26231   */\n      0x20\n        /* \"#utility.yul\":26224:26227   */\n      dup3\n        /* \"#utility.yul\":26220:26232   */\n      add\n        /* \"#utility.yul\":26213:26232   */\n      swap1\n      pop\n        /* \"#utility.yul\":25872:26238   */\n      swap2\n      swap1\n      pop\n      jump\t// out\n        /* \"#utility.yul\":26244:26663   */\n    tag_192:\n        /* \"#utility.yul\":26410:26414   */\n      0x00\n        /* \"#utility.yul\":26448:26450   */\n      0x20\n        /* \"#utility.yul\":26437:26446   */\n      dup3\n        /* \"#utility.yul\":26433:26451   */\n      add\n        /* \"#utility.yul\":26425:26451   */\n      swap1\n      pop\n        /* \"#utility.yul\":26497:26506   */\n      dup2\n        /* \"#utility.yul\":26491:26495   */\n      dup2\n        /* \"#utility.yul\":26487:26507   */\n      sub\n        /* \"#utility.yul\":26483:26484   */\n      0x00\n        /* \"#utility.yul\":26472:26481   */\n      dup4\n        /* \"#utility.yul\":26468:26485   */\n      add\n        /* \"#utility.yul\":26461:26508   */\n      mstore\n        /* \"#utility.yul\":26525:26656   */\n      tag_596\n        /* \"#utility.yul\":26651:26655   */\n      dup2\n        /* \"#utility.yul\":26525:26656   */\n      tag_361\n      jump\t// in\n    tag_596:\n        /* \"#utility.yul\":26517:26656   */\n      swap1\n      pop\n        /* \"#utility.yul\":26244:26663   */\n      swap2\n      swap1\n      pop\n      jump\t// out\n        /* \"#utility.yul\":26669:26839   */\n    tag_362:\n        /* \"#utility.yul\":26809:26831   */\n      0x4e6f206c697175696469747920696e20706f6f6c000000000000000000000000\n        /* \"#utility.yul\":26805:26806   */\n      0x00\n        /* \"#utility.yul\":26797:26803   */\n      dup3\n        /* \"#utility.yul\":26793:26807   */\n      add\n        /* \"#utility.yul\":26786:26832   */\n      mstore\n        /* \"#utility.yul\":26669:26839   */\n      pop\n      jump\t// out\n        /* \"#utility.yul\":26845:27211   */\n    tag_363:\n        /* \"#utility.yul\":26987:26990   */\n      0x00\n        /* \"#utility.yul\":27008:27075   */\n      tag_599\n        /* \"#utility.yul\":27072:27074   */\n      0x14\n        /* \"#utility.yul\":27067:27070   */\n      dup4\n        /* \"#utility.yul\":27008:27075   */\n      tag_330\n      jump\t// in\n    tag_599:\n        /* \"#utility.yul\":27001:27075   */\n      swap2\n      pop\n        /* \"#utility.yul\":27084:27177   */\n      tag_600\n        /* \"#utility.yul\":27173:27176   */\n      dup3\n        /* \"#utility.yul\":27084:27177   */\n      tag_362\n      jump\t// in\n    tag_600:\n        /* \"#utility.yul\":27202:27204   */\n      0x20\n        /* \"#utility.yul\":27197:27200   */\n      dup3\n        /* \"#utility.yul\":27193:27205   */\n      add\n        /* \"#utility.yul\":27186:27205   */\n      swap1\n      pop\n        /* \"#utility.yul\":26845:27211   */\n      swap2\n      swap1\n      pop\n      jump\t// out\n        /* \"#utility.yul\":27217:27636   */\n    tag_195:\n        /* \"#utility.yul\":27383:27387   */\n      0x00\n        /* \"#utility.yul\":27421:27423   */\n      0x20\n        /* \"#utility.yul\":27410:27419   */\n      dup3\n        /* \"#utility.yul\":27406:27424   */\n      add\n        /* \"#utility.yul\":27398:27424   */\n      swap1\n      pop\n        /* \"#utility.yul\":27470:27479   */\n      dup2\n        /* \"#utility.yul\":27464:27468   */\n      dup2\n        /* \"#utility.yul\":27460:27480   */\n      sub\n        /* \"#utility.yul\":27456:27457   */\n      0x00\n        /* \"#utility.yul\":27445:27454   */\n      dup4\n        /* \"#utility.yul\":27441:27458   */\n      add\n        /* \"#utility.yul\":27434:27481   */\n      mstore\n        /* \"#utility.yul\":27498:27629   */\n      tag_602\n        /* \"#utility.yul\":27624:27628   */\n      dup2\n        /* \"#utility.yul\":27498:27629   */\n      tag_363\n      jump\t// in\n    tag_602:\n        /* \"#utility.yul\":27490:27629   */\n      swap1\n      pop\n        /* \"#utility.yul\":27217:27636   */\n      swap2\n      swap1\n      pop\n      jump\t// out\n        /* \"#utility.yul\":27642:27813   */\n    tag_364:\n        /* \"#utility.yul\":27782:27805   */\n      0x496e73756666696369656e74204120616d6f756e740000000000000000000000\n        /* \"#utility.yul\":27778:27779   */\n      0x00\n        /* \"#utility.yul\":27770:27776   */\n      dup3\n        /* \"#utility.yul\":27766:27780   */\n      add\n        /* \"#utility.yul\":27759:27806   */\n      mstore\n        /* \"#utility.yul\":27642:27813   */\n      pop\n      jump\t// out\n        /* \"#utility.yul\":27819:28185   */\n    tag_365:\n        /* \"#utility.yul\":27961:27964   */\n      0x00\n        /* \"#utility.yul\":27982:28049   */\n      tag_605\n        /* \"#utility.yul\":28046:28048   */\n      0x15\n        /* \"#utility.yul\":28041:28044   */\n      dup4\n        /* \"#utility.yul\":27982:28049   */\n      tag_330\n      jump\t// in\n    tag_605:\n        /* \"#utility.yul\":27975:28049   */\n      swap2\n      pop\n        /* \"#utility.yul\":28058:28151   */\n      tag_606\n        /* \"#utility.yul\":28147:28150   */\n      dup3\n        /* \"#utility.yul\":28058:28151   */\n      tag_364\n      jump\t// in\n    tag_606:\n        /* \"#utility.yul\":28176:28178   */\n      0x20\n        /* \"#utility.yul\":28171:28174   */\n      dup3\n        /* \"#utility.yul\":28167:28179   */\n      add\n        /* \"#utility.yul\":28160:28179   */\n      swap1\n      pop\n        /* \"#utility.yul\":27819:28185   */\n      swap2\n      swap1\n      pop\n      jump\t// out\n        /* \"#utility.yul\":28191:28610   */\n    tag_206:\n        /* \"#utility.yul\":28357:28361   */\n      0x00\n        /* \"#utility.yul\":28395:28397   */\n      0x20\n        /* \"#utility.yul\":28384:28393   */\n      dup3\n        /* \"#utility.yul\":28380:28398   */\n      add\n        /* \"#utility.yul\":28372:28398   */\n      swap1\n      pop\n        /* \"#utility.yul\":28444:28453   */\n      dup2\n        /* \"#utility.yul\":28438:28442   */\n      dup2\n        /* \"#utility.yul\":28434:28454   */\n      sub\n        /* \"#utility.yul\":28430:28431   */\n      0x00\n        /* \"#utility.yul\":28419:28428   */\n      dup4\n        /* \"#utility.yul\":28415:28432   */\n      add\n        /* \"#utility.yul\":28408:28455   */\n      mstore\n        /* \"#utility.yul\":28472:28603   */\n      tag_608\n        /* \"#utility.yul\":28598:28602   */\n      dup2\n        /* \"#utility.yul\":28472:28603   */\n      tag_365\n      jump\t// in\n    tag_608:\n        /* \"#utility.yul\":28464:28603   */\n      swap1\n      pop\n        /* \"#utility.yul\":28191:28610   */\n      swap2\n      swap1\n      pop\n      jump\t// out\n        /* \"#utility.yul\":28616:28787   */\n    tag_366:\n        /* \"#utility.yul\":28756:28779   */\n      0x496e73756666696369656e74204220616d6f756e740000000000000000000000\n        /* \"#utility.yul\":28752:28753   */\n      0x00\n        /* \"#utility.yul\":28744:28750   */\n      dup3\n        /* \"#utility.yul\":28740:28754   */\n      add\n        /* \"#utility.yul\":28733:28780   */\n      mstore\n        /* \"#utility.yul\":28616:28787   */\n      pop\n      jump\t// out\n        /* \"#utility.yul\":28793:29159   */\n    tag_367:\n        /* \"#utility.yul\":28935:28938   */\n      0x00\n        /* \"#utility.yul\":28956:29023   */\n      tag_611\n        /* \"#utility.yul\":29020:29022   */\n      0x15\n        /* \"#utility.yul\":29015:29018   */\n      dup4\n        /* \"#utility.yul\":28956:29023   */\n      tag_330\n      jump\t// in\n    tag_611:\n        /* \"#utility.yul\":28949:29023   */\n      swap2\n      pop\n        /* \"#utility.yul\":29032:29125   */\n      tag_612\n        /* \"#utility.yul\":29121:29124   */\n      dup3\n        /* \"#utility.yul\":29032:29125   */\n      tag_366\n      jump\t// in\n    tag_612:\n        /* \"#utility.yul\":29150:29152   */\n      0x20\n        /* \"#utility.yul\":29145:29148   */\n      dup3\n        /* \"#utility.yul\":29141:29153   */\n      add\n        /* \"#utility.yul\":29134:29153   */\n      swap1\n      pop\n        /* \"#utility.yul\":28793:29159   */\n      swap2\n      swap1\n      pop\n      jump\t// out\n        /* \"#utility.yul\":29165:29584   */\n    tag_209:\n        /* \"#utility.yul\":29331:29335   */\n      0x00\n        /* \"#utility.yul\":29369:29371   */\n      0x20\n        /* \"#utility.yul\":29358:29367   */\n      dup3\n        /* \"#utility.yul\":29354:29372   */\n      add\n        /* \"#utility.yul\":29346:29372   */\n      swap1\n      pop\n        /* \"#utility.yul\":29418:29427   */\n      dup2\n        /* \"#utility.yul\":29412:29416   */\n      dup2\n        /* \"#utility.yul\":29408:29428   */\n      sub\n        /* \"#utility.yul\":29404:29405   */\n      0x00\n        /* \"#utility.yul\":29393:29402   */\n      dup4\n        /* \"#utility.yul\":29389:29406   */\n      add\n        /* \"#utility.yul\":29382:29429   */\n      mstore\n        /* \"#utility.yul\":29446:29577   */\n      tag_614\n        /* \"#utility.yul\":29572:29576   */\n      dup2\n        /* \"#utility.yul\":29446:29577   */\n      tag_367\n      jump\t// in\n    tag_614:\n        /* \"#utility.yul\":29438:29577   */\n      swap1\n      pop\n        /* \"#utility.yul\":29165:29584   */\n      swap2\n      swap1\n      pop\n      jump\t// out\n        /* \"#utility.yul\":29590:29784   */\n    tag_212:\n        /* \"#utility.yul\":29630:29634   */\n      0x00\n        /* \"#utility.yul\":29650:29670   */\n      tag_616\n        /* \"#utility.yul\":29668:29669   */\n      dup3\n        /* \"#utility.yul\":29650:29670   */\n      tag_310\n      jump\t// in\n    tag_616:\n        /* \"#utility.yul\":29645:29670   */\n      swap2\n      pop\n        /* \"#utility.yul\":29684:29704   */\n      tag_617\n        /* \"#utility.yul\":29702:29703   */\n      dup4\n        /* \"#utility.yul\":29684:29704   */\n      tag_310\n      jump\t// in\n    tag_617:\n        /* \"#utility.yul\":29679:29704   */\n      swap3\n      pop\n        /* \"#utility.yul\":29728:29729   */\n      dup3\n        /* \"#utility.yul\":29725:29726   */\n      dup3\n        /* \"#utility.yul\":29721:29730   */\n      sub\n        /* \"#utility.yul\":29713:29730   */\n      swap1\n      pop\n        /* \"#utility.yul\":29752:29753   */\n      dup2\n        /* \"#utility.yul\":29746:29750   */\n      dup2\n        /* \"#utility.yul\":29743:29754   */\n      gt\n        /* \"#utility.yul\":29740:29777   */\n      iszero\n      tag_618\n      jumpi\n        /* \"#utility.yul\":29757:29775   */\n      tag_619\n      tag_335\n      jump\t// in\n    tag_619:\n        /* \"#utility.yul\":29740:29777   */\n    tag_618:\n        /* \"#utility.yul\":29590:29784   */\n      swap3\n      swap2\n      pop\n      pop\n      jump\t// out\n        /* \"#utility.yul\":29790:29962   */\n    tag_368:\n        /* \"#utility.yul\":29930:29954   */\n      0x546f6b656e41207472616e73666572206661696c656400000000000000000000\n        /* \"#utility.yul\":29926:29927   */\n      0x00\n        /* \"#utility.yul\":29918:29924   */\n      dup3\n        /* \"#utility.yul\":29914:29928   */\n      add\n        /* \"#utility.yul\":29907:29955   */\n      mstore\n        /* \"#utility.yul\":29790:29962   */\n      pop\n      jump\t// out\n        /* \"#utility.yul\":29968:30334   */\n    tag_369:\n        /* \"#utility.yul\":30110:30113   */\n      0x00\n        /* \"#utility.yul\":30131:30198   */\n      tag_622\n        /* \"#utility.yul\":30195:30197   */\n      0x16\n        /* \"#utility.yul\":30190:30193   */\n      dup4\n        /* \"#utility.yul\":30131:30198   */\n      tag_330\n      jump\t// in\n    tag_622:\n        /* \"#utility.yul\":30124:30198   */\n      swap2\n      pop\n        /* \"#utility.yul\":30207:30300   */\n      tag_623\n        /* \"#utility.yul\":30296:30299   */\n      dup3\n        /* \"#utility.yul\":30207:30300   */\n      tag_368\n      jump\t// in\n    tag_623:\n        /* \"#utility.yul\":30325:30327   */\n      0x20\n        /* \"#utility.yul\":30320:30323   */\n      dup3\n        /* \"#utility.yul\":30316:30328   */\n      add\n        /* \"#utility.yul\":30309:30328   */\n      swap1\n      pop\n        /* \"#utility.yul\":29968:30334   */\n      swap2\n      swap1\n      pop\n      jump\t// out\n        /* \"#utility.yul\":30340:30759   */\n    tag_225:\n        /* \"#utility.yul\":30506:30510   */\n      0x00\n        /* \"#utility.yul\":30544:30546   */\n      0x20\n        /* \"#utility.yul\":30533:30542   */\n      dup3\n        /* \"#utility.yul\":30529:30547   */\n      add\n        /* \"#utility.yul\":30521:30547   */\n      swap1\n      pop\n        /* \"#utility.yul\":30593:30602   */\n      dup2\n        /* \"#utility.yul\":30587:30591   */\n      dup2\n        /* \"#utility.yul\":30583:30603   */\n      sub\n        /* \"#utility.yul\":30579:30580   */\n      0x00\n        /* \"#utility.yul\":30568:30577   */\n      dup4\n        /* \"#utility.yul\":30564:30581   */\n      add\n        /* \"#utility.yul\":30557:30604   */\n      mstore\n        /* \"#utility.yul\":30621:30752   */\n      tag_625\n        /* \"#utility.yul\":30747:30751   */\n      dup2\n        /* \"#utility.yul\":30621:30752   */\n      tag_369\n      jump\t// in\n    tag_625:\n        /* \"#utility.yul\":30613:30752   */\n      swap1\n      pop\n        /* \"#utility.yul\":30340:30759   */\n      swap2\n      swap1\n      pop\n      jump\t// out\n        /* \"#utility.yul\":30765:30937   */\n    tag_370:\n        /* \"#utility.yul\":30905:30929   */\n      0x546f6b656e42207472616e73666572206661696c656400000000000000000000\n        /* \"#utility.yul\":30901:30902   */\n      0x00\n        /* \"#utility.yul\":30893:30899   */\n      dup3\n        /* \"#utility.yul\":30889:30903   */\n      add\n        /* \"#utility.yul\":30882:30930   */\n      mstore\n        /* \"#utility.yul\":30765:30937   */\n      pop\n      jump\t// out\n        /* \"#utility.yul\":30943:31309   */\n    tag_371:\n        /* \"#utility.yul\":31085:31088   */\n      0x00\n        /* \"#utility.yul\":31106:31173   */\n      tag_628\n        /* \"#utility.yul\":31170:31172   */\n      0x16\n        /* \"#utility.yul\":31165:31168   */\n      dup4\n        /* \"#utility.yul\":31106:31173   */\n      tag_330\n      jump\t// in\n    tag_628:\n        /* \"#utility.yul\":31099:31173   */\n      swap2\n      pop\n        /* \"#utility.yul\":31182:31275   */\n      tag_629\n        /* \"#utility.yul\":31271:31274   */\n      dup3\n        /* \"#utility.yul\":31182:31275   */\n      tag_370\n      jump\t// in\n    tag_629:\n        /* \"#utility.yul\":31300:31302   */\n      0x20\n        /* \"#utility.yul\":31295:31298   */\n      dup3\n        /* \"#utility.yul\":31291:31303   */\n      add\n        /* \"#utility.yul\":31284:31303   */\n      swap1\n      pop\n        /* \"#utility.yul\":30943:31309   */\n      swap2\n      swap1\n      pop\n      jump\t// out\n        /* \"#utility.yul\":31315:31734   */\n    tag_232:\n        /* \"#utility.yul\":31481:31485   */\n      0x00\n        /* \"#utility.yul\":31519:31521   */\n      0x20\n        /* \"#utility.yul\":31508:31517   */\n      dup3\n        /* \"#utility.yul\":31504:31522   */\n      add\n        /* \"#utility.yul\":31496:31522   */\n      swap1\n      pop\n        /* \"#utility.yul\":31568:31577   */\n      dup2\n        /* \"#utility.yul\":31562:31566   */\n      dup2\n        /* \"#utility.yul\":31558:31578   */\n      sub\n        /* \"#utility.yul\":31554:31555   */\n      0x00\n        /* \"#utility.yul\":31543:31552   */\n      dup4\n        /* \"#utility.yul\":31539:31556   */\n      add\n        /* \"#utility.yul\":31532:31579   */\n      mstore\n        /* \"#utility.yul\":31596:31727   */\n      tag_631\n        /* \"#utility.yul\":31722:31726   */\n      dup2\n        /* \"#utility.yul\":31596:31727   */\n      tag_371\n      jump\t// in\n    tag_631:\n        /* \"#utility.yul\":31588:31727   */\n      swap1\n      pop\n        /* \"#utility.yul\":31315:31734   */\n      swap2\n      swap1\n      pop\n      jump\t// out\n        /* \"#utility.yul\":31740:32182   */\n    tag_265:\n        /* \"#utility.yul\":31889:31893   */\n      0x00\n        /* \"#utility.yul\":31927:31929   */\n      0x60\n        /* \"#utility.yul\":31916:31925   */\n      dup3\n        /* \"#utility.yul\":31912:31930   */\n      add\n        /* \"#utility.yul\":31904:31930   */\n      swap1\n      pop\n        /* \"#utility.yul\":31940:32011   */\n      tag_633\n        /* \"#utility.yul\":32008:32009   */\n      0x00\n        /* \"#utility.yul\":31997:32006   */\n      dup4\n        /* \"#utility.yul\":31993:32010   */\n      add\n        /* \"#utility.yul\":31984:31990   */\n      dup7\n        /* \"#utility.yul\":31940:32011   */\n      tag_329\n      jump\t// in\n    tag_633:\n        /* \"#utility.yul\":32021:32093   */\n      tag_634\n        /* \"#utility.yul\":32089:32091   */\n      0x20\n        /* \"#utility.yul\":32078:32087   */\n      dup4\n        /* \"#utility.yul\":32074:32092   */\n      add\n        /* \"#utility.yul\":32065:32071   */\n      dup6\n        /* \"#utility.yul\":32021:32093   */\n      tag_329\n      jump\t// in\n    tag_634:\n        /* \"#utility.yul\":32103:32175   */\n      tag_635\n        /* \"#utility.yul\":32171:32173   */\n      0x40\n        /* \"#utility.yul\":32160:32169   */\n      dup4\n        /* \"#utility.yul\":32156:32174   */\n      add\n        /* \"#utility.yul\":32147:32153   */\n      dup5\n        /* \"#utility.yul\":32103:32175   */\n      tag_313\n      jump\t// in\n    tag_635:\n        /* \"#utility.yul\":31740:32182   */\n      swap5\n      swap4\n      pop\n      pop\n      pop\n      pop\n      jump\t// out\n        /* \"#utility.yul\":32188:32367   */\n    tag_372:\n        /* \"#utility.yul\":32328:32359   */\n      0x496e73756666696369656e74206c6971756964697479206d696e746564000000\n        /* \"#utility.yul\":32324:32325   */\n      0x00\n        /* \"#utility.yul\":32316:32322   */\n      dup3\n        /* \"#utility.yul\":32312:32326   */\n      add\n        /* \"#utility.yul\":32305:32360   */\n      mstore\n        /* \"#utility.yul\":32188:32367   */\n      pop\n      jump\t// out\n        /* \"#utility.yul\":32373:32739   */\n    tag_373:\n        /* \"#utility.yul\":32515:32518   */\n      0x00\n        /* \"#utility.yul\":32536:32603   */\n      tag_638\n        /* \"#utility.yul\":32600:32602   */\n      0x1d\n        /* \"#utility.yul\":32595:32598   */\n      dup4\n        /* \"#utility.yul\":32536:32603   */\n      tag_330\n      jump\t// in\n    tag_638:\n        /* \"#utility.yul\":32529:32603   */\n      swap2\n      pop\n        /* \"#utility.yul\":32612:32705   */\n      tag_639\n        /* \"#utility.yul\":32701:32704   */\n      dup3\n        /* \"#utility.yul\":32612:32705   */\n      tag_372\n      jump\t// in\n    tag_639:\n        /* \"#utility.yul\":32730:32732   */\n      0x20\n        /* \"#utility.yul\":32725:32728   */\n      dup3\n        /* \"#utility.yul\":32721:32733   */\n      add\n        /* \"#utility.yul\":32714:32733   */\n      swap1\n      pop\n        /* \"#utility.yul\":32373:32739   */\n      swap2\n      swap1\n      pop\n      jump\t// out\n        /* \"#utility.yul\":32745:33164   */\n    tag_288:\n        /* \"#utility.yul\":32911:32915   */\n      0x00\n        /* \"#utility.yul\":32949:32951   */\n      0x20\n        /* \"#utility.yul\":32938:32947   */\n      dup3\n        /* \"#utility.yul\":32934:32952   */\n      add\n        /* \"#utility.yul\":32926:32952   */\n      swap1\n      pop\n        /* \"#utility.yul\":32998:33007   */\n      dup2\n        /* \"#utility.yul\":32992:32996   */\n      dup2\n        /* \"#utility.yul\":32988:33008   */\n      sub\n        /* \"#utility.yul\":32984:32985   */\n      0x00\n        /* \"#utility.yul\":32973:32982   */\n      dup4\n        /* \"#utility.yul\":32969:32986   */\n      add\n        /* \"#utility.yul\":32962:33009   */\n      mstore\n        /* \"#utility.yul\":33026:33157   */\n      tag_641\n        /* \"#utility.yul\":33152:33156   */\n      dup2\n        /* \"#utility.yul\":33026:33157   */\n      tag_373\n      jump\t// in\n    tag_641:\n        /* \"#utility.yul\":33018:33157   */\n      swap1\n      pop\n        /* \"#utility.yul\":32745:33164   */\n      swap2\n      swap1\n      pop\n      jump\t// out\n\n    auxdata: 0xa2646970667358221220e63971b086e01b6206e1c82ea345cbf6041bffb6bf426c0c7e0ae389717592f964736f6c634300081e0033\n}\n",
				"bytecode": {
					"linkReferences": {},
					"object": "60c060405234801561000f575f5ffd5b5060405161304e38038061304e83398181016040528101906100319190610213565b5f73ffffffffffffffffffffffffffffffffffffffff168273ffffffffffffffffffffffffffffffffffffffff161415801561009957505f73ffffffffffffffffffffffffffffffffffffffff168173ffffffffffffffffffffffffffffffffffffffff1614155b6100d8576040517f08c379a00000000000000000000000000000000000000000000000000000000081526004016100cf906102ab565b60405180910390fd5b8073ffffffffffffffffffffffffffffffffffffffff168273ffffffffffffffffffffffffffffffffffffffff1603610146576040517f08c379a000000000000000000000000000000000000000000000000000000000815260040161013d90610313565b60405180910390fd5b8173ffffffffffffffffffffffffffffffffffffffff1660808173ffffffffffffffffffffffffffffffffffffffff16815250508073ffffffffffffffffffffffffffffffffffffffff1660a08173ffffffffffffffffffffffffffffffffffffffff16815250505050610331565b5f5ffd5b5f73ffffffffffffffffffffffffffffffffffffffff82169050919050565b5f6101e2826101b9565b9050919050565b6101f2816101d8565b81146101fc575f5ffd5b50565b5f8151905061020d816101e9565b92915050565b5f5f60408385031215610229576102286101b5565b5b5f610236858286016101ff565b9250506020610247858286016101ff565b9150509250929050565b5f82825260208201905092915050565b7f496e76616c696420746f6b656e206164647265737365730000000000000000005f82015250565b5f610295601783610251565b91506102a082610261565b602082019050919050565b5f6020820190508181035f8301526102c281610289565b9050919050565b7f546f6b656e73206d75737420626520646966666572656e7400000000000000005f82015250565b5f6102fd601883610251565b9150610308826102c9565b602082019050919050565b5f6020820190508181035f83015261032a816102f1565b9050919050565b60805160a051612c546103fa5f395f818161062f0152818161068501528181610a6701528181610afc01528181610b5201528181610e0101528181610e57015281816114fb015281816115bf015261161501525f81816105d9015281816106db015281816107bc0152818161081d01528181610aa601528181610ba801528181610c3901528181610c9a01528181610dab01528181610ead015281816110b2015281816114d8015281816115690152818161166b0152818161176a0152611c1e0152612c545ff3fe608060405234801561000f575f5ffd5b50600436106100f3575f3560e01c80639db4aa0411610095578063c8c0526e11610064578063c8c0526e1461029d578063cbbc94cf146102cd578063e8e33700146102ec578063ef1b15911461031e576100f3565b80639db4aa04146101ee578063a1fc22b11461021e578063ac41865a1461023c578063baa2abde1461026c576100f3565b806325b5e468116100d157806325b5e4681461016457806335c7e9251461018257806338ed1739146101a05780634c82ab63146101d0576100f3565b8063054d50d4146100f75780630902f1ac1461012757806315770f9214610146575b5f5ffd5b610111600480360381019061010c9190611ce7565b61033c565b60405161011e9190611d46565b60405180910390f35b61012f610420565b60405161013d929190611d5f565b60405180910390f35b61014e61042f565b60405161015b9190611d46565b60405180910390f35b61016c610435565b6040516101799190611d46565b60405180910390f35b61018a61043b565b6040516101979190611d46565b60405180910390f35b6101ba60048036038101906101b59190611e41565b610444565b6040516101c79190611f8e565b60405180910390f35b6101d8610a65565b6040516101e59190611fbd565b60405180910390f35b61020860048036038101906102039190611fd6565b610a89565b6040516102159190611d46565b60405180910390f35b610226610a9e565b6040516102339190611d46565b60405180910390f35b61025660048036038101906102519190612001565b610aa3565b6040516102639190611d46565b60405180910390f35b6102866004803603810190610281919061203f565b610d63565b604051610294929190611d5f565b60405180910390f35b6102b760048036038101906102b29190611fd6565b61148e565b6040516102c49190611d46565b60405180910390f35b6102d56114d4565b6040516102e39291906120dc565b60405180910390f35b61030660048036038101906103019190612103565b611520565b604051610315939291906121b4565b60405180910390f35b610326611c1c565b6040516103339190611fbd565b60405180910390f35b5f5f841161037f576040517f08c379a000000000000000000000000000000000000000000000000000000000815260040161037690612243565b60405180910390fd5b5f8311801561038d57505f82115b6103cc576040517f08c379a00000000000000000000000000000000000000000000000000000000081526004016103c3906122ab565b60405180910390fd5b5f6103e5856103db91906122f6565b90505f83826103ea91906122f6565b90505f826103e8876103fc91906122f6565b6104069190612337565b905080826104149190612397565b93505050509392505050565b5f5f5f54915060015490509091565b60025481565b60015481565b5f600254905090565b6060814281101561048a576040517f08c379a000000000000000000000000000000000000000000000000000000000815260040161048190612411565b60405180910390fd5b5f88116104cc576040517f08c379a00000000000000000000000000000000000000000000000000000000081526004016104c390612479565b60405180910390fd5b60028686905014610512576040517f08c379a0000000000000000000000000000000000000000000000000000000008152600401610509906124e1565b60405180910390fd5b5f73ffffffffffffffffffffffffffffffffffffffff168473ffffffffffffffffffffffffffffffffffffffff1603610580576040517f08c379a000000000000000000000000000000000000000000000000000000000815260040161057790612549565b60405180910390fd5b5f86865f81811061059457610593612567565b5b90506020020160208101906105a99190611fd6565b90505f878760018181106105c0576105bf612567565b5b90506020020160208101906105d59190611fd6565b90507f000000000000000000000000000000000000000000000000000000000000000073ffffffffffffffffffffffffffffffffffffffff168273ffffffffffffffffffffffffffffffffffffffff1614801561067d57507f000000000000000000000000000000000000000000000000000000000000000073ffffffffffffffffffffffffffffffffffffffff168173ffffffffffffffffffffffffffffffffffffffff16145b8061072a57507f000000000000000000000000000000000000000000000000000000000000000073ffffffffffffffffffffffffffffffffffffffff168273ffffffffffffffffffffffffffffffffffffffff1614801561072957507f000000000000000000000000000000000000000000000000000000000000000073ffffffffffffffffffffffffffffffffffffffff168173ffffffffffffffffffffffffffffffffffffffff16145b5b610769576040517f08c379a0000000000000000000000000000000000000000000000000000000008152600401610760906125de565b60405180910390fd5b5f5f5411801561077a57505f600154115b6107b9576040517f08c379a00000000000000000000000000000000000000000000000000000000081526004016107b0906122ab565b60405180910390fd5b5f7f000000000000000000000000000000000000000000000000000000000000000073ffffffffffffffffffffffffffffffffffffffff168373ffffffffffffffffffffffffffffffffffffffff161461081557600154610818565b5f545b90505f7f000000000000000000000000000000000000000000000000000000000000000073ffffffffffffffffffffffffffffffffffffffff168473ffffffffffffffffffffffffffffffffffffffff1614610875575f54610879565b6001545b90505f6108878d848461033c565b90508b8110156108cc576040517f08c379a00000000000000000000000000000000000000000000000000000000081526004016108c390612646565b60405180910390fd5b81811061090e576040517f08c379a0000000000000000000000000000000000000000000000000000000008152600401610905906126ae565b60405180910390fd5b8373ffffffffffffffffffffffffffffffffffffffff1663a9059cbb8a836040518363ffffffff1660e01b81526004016109499291906126cc565b6020604051808303815f875af1158015610965573d5f5f3e3d5ffd5b505050506040513d601f19601f820116820180604052508101906109899190612728565b6109c8576040517f08c379a00000000000000000000000000000000000000000000000000000000081526004016109bf9061279d565b60405180910390fd5b600267ffffffffffffffff8111156109e3576109e26127bb565b5b604051908082528060200260200182016040528015610a115781602001602082028036833780820191505090505b5096508c875f81518110610a2857610a27612567565b5b6020026020010181815250508087600181518110610a4957610a48612567565b5b6020026020010181815250505050505050509695505050505050565b7f000000000000000000000000000000000000000000000000000000000000000081565b6003602052805f5260405f205f915090505481565b5f5481565b5f7f000000000000000000000000000000000000000000000000000000000000000073ffffffffffffffffffffffffffffffffffffffff168373ffffffffffffffffffffffffffffffffffffffff16148015610b4a57507f000000000000000000000000000000000000000000000000000000000000000073ffffffffffffffffffffffffffffffffffffffff168273ffffffffffffffffffffffffffffffffffffffff16145b80610bf757507f000000000000000000000000000000000000000000000000000000000000000073ffffffffffffffffffffffffffffffffffffffff168373ffffffffffffffffffffffffffffffffffffffff16148015610bf657507f000000000000000000000000000000000000000000000000000000000000000073ffffffffffffffffffffffffffffffffffffffff168273ffffffffffffffffffffffffffffffffffffffff16145b5b610c36576040517f08c379a0000000000000000000000000000000000000000000000000000000008152600401610c2d906125de565b60405180910390fd5b5f7f000000000000000000000000000000000000000000000000000000000000000073ffffffffffffffffffffffffffffffffffffffff168473ffffffffffffffffffffffffffffffffffffffff1614610c9257600154610c95565b5f545b90505f7f000000000000000000000000000000000000000000000000000000000000000073ffffffffffffffffffffffffffffffffffffffff168573ffffffffffffffffffffffffffffffffffffffff1614610cf2575f54610cf6565b6001545b90505f8211610d3a576040517f08c379a0000000000000000000000000000000000000000000000000000000008152600401610d3190612832565b60405180910390fd5b81670de0b6b3a764000082610d4f91906122f6565b610d599190612397565b9250505092915050565b5f5f8242811015610da9576040517f08c379a0000000000000000000000000000000000000000000000000000000008152600401610da090612411565b60405180910390fd5b7f000000000000000000000000000000000000000000000000000000000000000073ffffffffffffffffffffffffffffffffffffffff168a73ffffffffffffffffffffffffffffffffffffffff16148015610e4f57507f000000000000000000000000000000000000000000000000000000000000000073ffffffffffffffffffffffffffffffffffffffff168973ffffffffffffffffffffffffffffffffffffffff16145b80610efc57507f000000000000000000000000000000000000000000000000000000000000000073ffffffffffffffffffffffffffffffffffffffff168a73ffffffffffffffffffffffffffffffffffffffff16148015610efb57507f000000000000000000000000000000000000000000000000000000000000000073ffffffffffffffffffffffffffffffffffffffff168973ffffffffffffffffffffffffffffffffffffffff16145b5b610f3b576040517f08c379a0000000000000000000000000000000000000000000000000000000008152600401610f32906125de565b60405180910390fd5b5f73ffffffffffffffffffffffffffffffffffffffff168573ffffffffffffffffffffffffffffffffffffffff1603610fa9576040517f08c379a0000000000000000000000000000000000000000000000000000000008152600401610fa090612549565b60405180910390fd5b5f8811610feb576040517f08c379a0000000000000000000000000000000000000000000000000000000008152600401610fe2906128c0565b60405180910390fd5b8760035f3373ffffffffffffffffffffffffffffffffffffffff1673ffffffffffffffffffffffffffffffffffffffff1681526020019081526020015f2054101561106b576040517f08c379a000000000000000000000000000000000000000000000000000000000815260040161106290612928565b60405180910390fd5b5f600254116110af576040517f08c379a00000000000000000000000000000000000000000000000000000000081526004016110a690612990565b60405180910390fd5b5f7f000000000000000000000000000000000000000000000000000000000000000073ffffffffffffffffffffffffffffffffffffffff168b73ffffffffffffffffffffffffffffffffffffffff161490505f8161110f57600154611112565b5f545b90505f82611121575f54611125565b6001545b9050600254828c61113691906122f6565b6111409190612397565b9550600254818c61115191906122f6565b61115b9190612397565b9450898610156111a0576040517f08c379a0000000000000000000000000000000000000000000000000000000008152600401611197906129f8565b60405180910390fd5b888510156111e3576040517f08c379a00000000000000000000000000000000000000000000000000000000081526004016111da90612a60565b60405180910390fd5b821561121d57855f5f8282546111f99190612a7e565b925050819055508460015f8282546112119190612a7e565b9250508190555061124d565b8560015f82825461122e9190612a7e565b92505081905550845f5f8282546112459190612a7e565b925050819055505b8a60025f82825461125e9190612a7e565b925050819055508a60035f3373ffffffffffffffffffffffffffffffffffffffff1673ffffffffffffffffffffffffffffffffffffffff1681526020019081526020015f205f8282546112b19190612a7e565b925050819055508c73ffffffffffffffffffffffffffffffffffffffff1663a9059cbb89886040518363ffffffff1660e01b81526004016112f39291906126cc565b6020604051808303815f875af115801561130f573d5f5f3e3d5ffd5b505050506040513d601f19601f820116820180604052508101906113339190612728565b611372576040517f08c379a000000000000000000000000000000000000000000000000000000000815260040161136990612afb565b60405180910390fd5b8b73ffffffffffffffffffffffffffffffffffffffff1663a9059cbb89876040518363ffffffff1660e01b81526004016113ad9291906126cc565b6020604051808303815f875af11580156113c9573d5f5f3e3d5ffd5b505050506040513d601f19601f820116820180604052508101906113ed9190612728565b61142c576040517f08c379a000000000000000000000000000000000000000000000000000000000815260040161142390612b63565b60405180910390fd5b8773ffffffffffffffffffffffffffffffffffffffff167f1dc8bb69df2b8e91fbdcbfcf93d951b3f0000f085a95fe3f7946d6161439245d87878e604051611476939291906121b4565b60405180910390a25050505097509795505050505050565b5f60035f8373ffffffffffffffffffffffffffffffffffffffff1673ffffffffffffffffffffffffffffffffffffffff1681526020019081526020015f20549050919050565b5f5f7f000000000000000000000000000000000000000000000000000000000000000091507f000000000000000000000000000000000000000000000000000000000000000090509091565b5f5f5f8342811015611567576040517f08c379a000000000000000000000000000000000000000000000000000000000815260040161155e90612411565b60405180910390fd5b7f000000000000000000000000000000000000000000000000000000000000000073ffffffffffffffffffffffffffffffffffffffff168c73ffffffffffffffffffffffffffffffffffffffff1614801561160d57507f000000000000000000000000000000000000000000000000000000000000000073ffffffffffffffffffffffffffffffffffffffff168b73ffffffffffffffffffffffffffffffffffffffff16145b806116ba57507f000000000000000000000000000000000000000000000000000000000000000073ffffffffffffffffffffffffffffffffffffffff168c73ffffffffffffffffffffffffffffffffffffffff161480156116b957507f000000000000000000000000000000000000000000000000000000000000000073ffffffffffffffffffffffffffffffffffffffff168b73ffffffffffffffffffffffffffffffffffffffff16145b5b6116f9576040517f08c379a00000000000000000000000000000000000000000000000000000000081526004016116f0906125de565b60405180910390fd5b5f73ffffffffffffffffffffffffffffffffffffffff168673ffffffffffffffffffffffffffffffffffffffff1603611767576040517f08c379a000000000000000000000000000000000000000000000000000000000815260040161175e90612549565b60405180910390fd5b5f7f000000000000000000000000000000000000000000000000000000000000000073ffffffffffffffffffffffffffffffffffffffff168d73ffffffffffffffffffffffffffffffffffffffff161490505f600254036117cd578a94508993506118d7565b5f816117db576001546117de565b5f545b90505f826117ed575f546117f1565b6001545b90505f82828f61180191906122f6565b61180b9190612397565b90508c8111611862578a811015611857576040517f08c379a000000000000000000000000000000000000000000000000000000000815260040161184e90612a60565b60405180910390fd5b8d97508096506118d3565b5f82848f61187091906122f6565b61187a9190612397565b90508e811115801561188c57508c8110155b6118cb576040517f08c379a00000000000000000000000000000000000000000000000000000000081526004016118c2906129f8565b60405180910390fd5b8098508d9750505b5050505b8c73ffffffffffffffffffffffffffffffffffffffff166323b872dd3330886040518463ffffffff1660e01b815260040161191493929190612b81565b6020604051808303815f875af1158015611930573d5f5f3e3d5ffd5b505050506040513d601f19601f820116820180604052508101906119549190612728565b611993576040517f08c379a000000000000000000000000000000000000000000000000000000000815260040161198a90612afb565b60405180910390fd5b8b73ffffffffffffffffffffffffffffffffffffffff166323b872dd3330876040518463ffffffff1660e01b81526004016119d093929190612b81565b6020604051808303815f875af11580156119ec573d5f5f3e3d5ffd5b505050506040513d601f19601f82011682018060405250810190611a109190612728565b611a4f576040517f08c379a0000000000000000000000000000000000000000000000000000000008152600401611a4690612b63565b60405180910390fd5b5f60025403611a7357611a6c8486611a6791906122f6565b611c40565b9250611aa3565b5f81611a8157600154611a84565b5f545b90508060025487611a9591906122f6565b611a9f9190612397565b9350505b5f8311611ae5576040517f08c379a0000000000000000000000000000000000000000000000000000000008152600401611adc90612c00565b60405180910390fd5b8015611b1f57845f5f828254611afb9190612337565b925050819055508360015f828254611b139190612337565b92505081905550611b4f565b8460015f828254611b309190612337565b92505081905550835f5f828254611b479190612337565b925050819055505b8260025f828254611b609190612337565b925050819055508260035f8973ffffffffffffffffffffffffffffffffffffffff1673ffffffffffffffffffffffffffffffffffffffff1681526020019081526020015f205f828254611bb39190612337565b925050819055508673ffffffffffffffffffffffffffffffffffffffff167f64b83944e79c3ce8d4c297411de637c3e102d064677aac0c163976ebdcd6f50e868686604051611c04939291906121b4565b60405180910390a25050985098509895505050505050565b7f000000000000000000000000000000000000000000000000000000000000000081565b5f5f8203611c50575f9050611ca7565b5f6002600184611c609190612337565b611c6a9190612397565b90508291505b81811015611ca5578091506002818285611c8a9190612397565b611c949190612337565b611c9e9190612397565b9050611c70565b505b919050565b5f5ffd5b5f5ffd5b5f819050919050565b611cc681611cb4565b8114611cd0575f5ffd5b50565b5f81359050611ce181611cbd565b92915050565b5f5f5f60608486031215611cfe57611cfd611cac565b5b5f611d0b86828701611cd3565b9350506020611d1c86828701611cd3565b9250506040611d2d86828701611cd3565b9150509250925092565b611d4081611cb4565b82525050565b5f602082019050611d595f830184611d37565b92915050565b5f604082019050611d725f830185611d37565b611d7f6020830184611d37565b9392505050565b5f5ffd5b5f5ffd5b5f5ffd5b5f5f83601f840112611da757611da6611d86565b5b8235905067ffffffffffffffff811115611dc457611dc3611d8a565b5b602083019150836020820283011115611de057611ddf611d8e565b5b9250929050565b5f73ffffffffffffffffffffffffffffffffffffffff82169050919050565b5f611e1082611de7565b9050919050565b611e2081611e06565b8114611e2a575f5ffd5b50565b5f81359050611e3b81611e17565b92915050565b5f5f5f5f5f5f60a08789031215611e5b57611e5a611cac565b5b5f611e6889828a01611cd3565b9650506020611e7989828a01611cd3565b955050604087013567ffffffffffffffff811115611e9a57611e99611cb0565b5b611ea689828a01611d92565b94509450506060611eb989828a01611e2d565b9250506080611eca89828a01611cd3565b9150509295509295509295565b5f81519050919050565b5f82825260208201905092915050565b5f819050602082019050919050565b611f0981611cb4565b82525050565b5f611f1a8383611f00565b60208301905092915050565b5f602082019050919050565b5f611f3c82611ed7565b611f468185611ee1565b9350611f5183611ef1565b805f5b83811015611f81578151611f688882611f0f565b9750611f7383611f26565b925050600181019050611f54565b5085935050505092915050565b5f6020820190508181035f830152611fa68184611f32565b905092915050565b611fb781611e06565b82525050565b5f602082019050611fd05f830184611fae565b92915050565b5f60208284031215611feb57611fea611cac565b5b5f611ff884828501611e2d565b91505092915050565b5f5f6040838503121561201757612016611cac565b5b5f61202485828601611e2d565b925050602061203585828601611e2d565b9150509250929050565b5f5f5f5f5f5f5f60e0888a03121561205a57612059611cac565b5b5f6120678a828b01611e2d565b97505060206120788a828b01611e2d565b96505060406120898a828b01611cd3565b955050606061209a8a828b01611cd3565b94505060806120ab8a828b01611cd3565b93505060a06120bc8a828b01611e2d565b92505060c06120cd8a828b01611cd3565b91505092959891949750929550565b5f6040820190506120ef5f830185611fae565b6120fc6020830184611fae565b9392505050565b5f5f5f5f5f5f5f5f610100898b0312156121205761211f611cac565b5b5f61212d8b828c01611e2d565b985050602061213e8b828c01611e2d565b975050604061214f8b828c01611cd3565b96505060606121608b828c01611cd3565b95505060806121718b828c01611cd3565b94505060a06121828b828c01611cd3565b93505060c06121938b828c01611e2d565b92505060e06121a48b828c01611cd3565b9150509295985092959890939650565b5f6060820190506121c75f830186611d37565b6121d46020830185611d37565b6121e16040830184611d37565b949350505050565b5f82825260208201905092915050565b7f496e73756666696369656e7420696e70757420616d6f756e74000000000000005f82015250565b5f61222d6019836121e9565b9150612238826121f9565b602082019050919050565b5f6020820190508181035f83015261225a81612221565b9050919050565b7f496e73756666696369656e74206c6971756964697479000000000000000000005f82015250565b5f6122956016836121e9565b91506122a082612261565b602082019050919050565b5f6020820190508181035f8301526122c281612289565b9050919050565b7f4e487b71000000000000000000000000000000000000000000000000000000005f52601160045260245ffd5b5f61230082611cb4565b915061230b83611cb4565b925082820261231981611cb4565b915082820484148315176123305761232f6122c9565b5b5092915050565b5f61234182611cb4565b915061234c83611cb4565b9250828201905080821115612364576123636122c9565b5b92915050565b7f4e487b71000000000000000000000000000000000000000000000000000000005f52601260045260245ffd5b5f6123a182611cb4565b91506123ac83611cb4565b9250826123bc576123bb61236a565b5b828204905092915050565b7f5472616e73616374696f6e2065787069726564000000000000000000000000005f82015250565b5f6123fb6013836121e9565b9150612406826123c7565b602082019050919050565b5f6020820190508181035f830152612428816123ef565b9050919050565b7f416d6f756e74206d7573742062652067726561746572207468616e207a65726f5f82015250565b5f6124636020836121e9565b915061246e8261242f565b602082019050919050565b5f6020820190508181035f83015261249081612457565b9050919050565b7f496e76616c69642070617468206c656e677468000000000000000000000000005f82015250565b5f6124cb6013836121e9565b91506124d682612497565b602082019050919050565b5f6020820190508181035f8301526124f8816124bf565b9050919050565b7f496e76616c696420726563697069656e742061646472657373000000000000005f82015250565b5f6125336019836121e9565b915061253e826124ff565b602082019050919050565b5f6020820190508181035f83015261256081612527565b9050919050565b7f4e487b71000000000000000000000000000000000000000000000000000000005f52603260045260245ffd5b7f496e76616c696420746f6b656e207061697200000000000000000000000000005f82015250565b5f6125c86012836121e9565b91506125d382612594565b602082019050919050565b5f6020820190508181035f8301526125f5816125bc565b9050919050565b7f496e73756666696369656e74206f757470757420616d6f756e740000000000005f82015250565b5f612630601a836121e9565b915061263b826125fc565b602082019050919050565b5f6020820190508181035f83015261265d81612624565b9050919050565b7f496e73756666696369656e7420726573657276650000000000000000000000005f82015250565b5f6126986014836121e9565b91506126a382612664565b602082019050919050565b5f6020820190508181035f8301526126c58161268c565b9050919050565b5f6040820190506126df5f830185611fae565b6126ec6020830184611d37565b9392505050565b5f8115159050919050565b612707816126f3565b8114612711575f5ffd5b50565b5f81519050612722816126fe565b92915050565b5f6020828403121561273d5761273c611cac565b5b5f61274a84828501612714565b91505092915050565b7f4f757470757420746f6b656e207472616e73666572206661696c6564000000005f82015250565b5f612787601c836121e9565b915061279282612753565b602082019050919050565b5f6020820190508181035f8301526127b48161277b565b9050919050565b7f4e487b71000000000000000000000000000000000000000000000000000000005f52604160045260245ffd5b7f4e6f206c697175696469747920666f7220746f6b656e410000000000000000005f82015250565b5f61281c6017836121e9565b9150612827826127e8565b602082019050919050565b5f6020820190508181035f83015261284981612810565b9050919050565b7f4c6971756964697479206d7573742062652067726561746572207468616e207a5f8201527f65726f0000000000000000000000000000000000000000000000000000000000602082015250565b5f6128aa6023836121e9565b91506128b582612850565b604082019050919050565b5f6020820190508181035f8301526128d78161289e565b9050919050565b7f496e73756666696369656e74206c6971756964697479207368617265730000005f82015250565b5f612912601d836121e9565b915061291d826128de565b602082019050919050565b5f6020820190508181035f83015261293f81612906565b9050919050565b7f4e6f206c697175696469747920696e20706f6f6c0000000000000000000000005f82015250565b5f61297a6014836121e9565b915061298582612946565b602082019050919050565b5f6020820190508181035f8301526129a78161296e565b9050919050565b7f496e73756666696369656e74204120616d6f756e7400000000000000000000005f82015250565b5f6129e26015836121e9565b91506129ed826129ae565b602082019050919050565b5f6020820190508181035f830152612a0f816129d6565b9050919050565b7f496e73756666696369656e74204220616d6f756e7400000000000000000000005f82015250565b5f612a4a6015836121e9565b9150612a5582612a16565b602082019050919050565b5f6020820190508181035f830152612a7781612a3e565b9050919050565b5f612a8882611cb4565b9150612a9383611cb4565b9250828203905081811115612aab57612aaa6122c9565b5b92915050565b7f546f6b656e41207472616e73666572206661696c6564000000000000000000005f82015250565b5f612ae56016836121e9565b9150612af082612ab1565b602082019050919050565b5f6020820190508181035f830152612b1281612ad9565b9050919050565b7f546f6b656e42207472616e73666572206661696c6564000000000000000000005f82015250565b5f612b4d6016836121e9565b9150612b5882612b19565b602082019050919050565b5f6020820190508181035f830152612b7a81612b41565b9050919050565b5f606082019050612b945f830186611fae565b612ba16020830185611fae565b612bae6040830184611d37565b949350505050565b7f496e73756666696369656e74206c6971756964697479206d696e7465640000005f82015250565b5f612bea601d836121e9565b9150612bf582612bb6565b602082019050919050565b5f6020820190508181035f830152612c1781612bde565b905091905056fea2646970667358221220e63971b086e01b6206e1c82ea345cbf6041bffb6bf426c0c7e0ae389717592f964736f6c634300081e0033",
					"opcodes": "PUSH1 0xC0 PUSH1 0x40 MSTORE CALLVALUE DUP1 ISZERO PUSH2 0xF JUMPI PUSH0 PUSH0 REVERT JUMPDEST POP PUSH1 0x40 MLOAD PUSH2 0x304E CODESIZE SUB DUP1 PUSH2 0x304E DUP4 CODECOPY DUP2 DUP2 ADD PUSH1 0x40 MSTORE DUP2 ADD SWAP1 PUSH2 0x31 SWAP2 SWAP1 PUSH2 0x213 JUMP JUMPDEST PUSH0 PUSH20 0xFFFFFFFFFFFFFFFFFFFFFFFFFFFFFFFFFFFFFFFF AND DUP3 PUSH20 0xFFFFFFFFFFFFFFFFFFFFFFFFFFFFFFFFFFFFFFFF AND EQ ISZERO DUP1 ISZERO PUSH2 0x99 JUMPI POP PUSH0 PUSH20 0xFFFFFFFFFFFFFFFFFFFFFFFFFFFFFFFFFFFFFFFF AND DUP2 PUSH20 0xFFFFFFFFFFFFFFFFFFFFFFFFFFFFFFFFFFFFFFFF AND EQ ISZERO JUMPDEST PUSH2 0xD8 JUMPI PUSH1 0x40 MLOAD PUSH32 0x8C379A000000000000000000000000000000000000000000000000000000000 DUP2 MSTORE PUSH1 0x4 ADD PUSH2 0xCF SWAP1 PUSH2 0x2AB JUMP JUMPDEST PUSH1 0x40 MLOAD DUP1 SWAP2 SUB SWAP1 REVERT JUMPDEST DUP1 PUSH20 0xFFFFFFFFFFFFFFFFFFFFFFFFFFFFFFFFFFFFFFFF AND DUP3 PUSH20 0xFFFFFFFFFFFFFFFFFFFFFFFFFFFFFFFFFFFFFFFF AND SUB PUSH2 0x146 JUMPI PUSH1 0x40 MLOAD PUSH32 0x8C379A000000000000000000000000000000000000000000000000000000000 DUP2 MSTORE PUSH1 0x4 ADD PUSH2 0x13D SWAP1 PUSH2 0x313 JUMP JUMPDEST PUSH1 0x40 MLOAD DUP1 SWAP2 SUB SWAP1 REVERT JUMPDEST DUP2 PUSH20 0xFFFFFFFFFFFFFFFFFFFFFFFFFFFFFFFFFFFFFFFF AND PUSH1 0x80 DUP2 PUSH20 0xFFFFFFFFFFFFFFFFFFFFFFFFFFFFFFFFFFFFFFFF AND DUP2 MSTORE POP POP DUP1 PUSH20 0xFFFFFFFFFFFFFFFFFFFFFFFFFFFFFFFFFFFFFFFF AND PUSH1 0xA0 DUP2 PUSH20 0xFFFFFFFFFFFFFFFFFFFFFFFFFFFFFFFFFFFFFFFF AND DUP2 MSTORE POP POP POP POP PUSH2 0x331 JUMP JUMPDEST PUSH0 PUSH0 REVERT JUMPDEST PUSH0 PUSH20 0xFFFFFFFFFFFFFFFFFFFFFFFFFFFFFFFFFFFFFFFF DUP3 AND SWAP1 POP SWAP2 SWAP1 POP JUMP JUMPDEST PUSH0 PUSH2 0x1E2 DUP3 PUSH2 0x1B9 JUMP JUMPDEST SWAP1 POP SWAP2 SWAP1 POP JUMP JUMPDEST PUSH2 0x1F2 DUP2 PUSH2 0x1D8 JUMP JUMPDEST DUP2 EQ PUSH2 0x1FC JUMPI PUSH0 PUSH0 REVERT JUMPDEST POP JUMP JUMPDEST PUSH0 DUP2 MLOAD SWAP1 POP PUSH2 0x20D DUP2 PUSH2 0x1E9 JUMP JUMPDEST SWAP3 SWAP2 POP POP JUMP JUMPDEST PUSH0 PUSH0 PUSH1 0x40 DUP4 DUP6 SUB SLT ISZERO PUSH2 0x229 JUMPI PUSH2 0x228 PUSH2 0x1B5 JUMP JUMPDEST JUMPDEST PUSH0 PUSH2 0x236 DUP6 DUP3 DUP7 ADD PUSH2 0x1FF JUMP JUMPDEST SWAP3 POP POP PUSH1 0x20 PUSH2 0x247 DUP6 DUP3 DUP7 ADD PUSH2 0x1FF JUMP JUMPDEST SWAP2 POP POP SWAP3 POP SWAP3 SWAP1 POP JUMP JUMPDEST PUSH0 DUP3 DUP3 MSTORE PUSH1 0x20 DUP3 ADD SWAP1 POP SWAP3 SWAP2 POP POP JUMP JUMPDEST PUSH32 0x496E76616C696420746F6B656E20616464726573736573000000000000000000 PUSH0 DUP3 ADD MSTORE POP JUMP JUMPDEST PUSH0 PUSH2 0x295 PUSH1 0x17 DUP4 PUSH2 0x251 JUMP JUMPDEST SWAP2 POP PUSH2 0x2A0 DUP3 PUSH2 0x261 JUMP JUMPDEST PUSH1 0x20 DUP3 ADD SWAP1 POP SWAP2 SWAP1 POP JUMP JUMPDEST PUSH0 PUSH1 0x20 DUP3 ADD SWAP1 POP DUP2 DUP2 SUB PUSH0 DUP4 ADD MSTORE PUSH2 0x2C2 DUP2 PUSH2 0x289 JUMP JUMPDEST SWAP1 POP SWAP2 SWAP1 POP JUMP JUMPDEST PUSH32 0x546F6B656E73206D75737420626520646966666572656E740000000000000000 PUSH0 DUP3 ADD MSTORE POP JUMP JUMPDEST PUSH0 PUSH2 0x2FD PUSH1 0x18 DUP4 PUSH2 0x251 JUMP JUMPDEST SWAP2 POP PUSH2 0x308 DUP3 PUSH2 0x2C9 JUMP JUMPDEST PUSH1 0x20 DUP3 ADD SWAP1 POP SWAP2 SWAP1 POP JUMP JUMPDEST PUSH0 PUSH1 0x20 DUP3 ADD SWAP1 POP DUP2 DUP2 SUB PUSH0 DUP4 ADD MSTORE PUSH2 0x32A DUP2 PUSH2 0x2F1 JUMP JUMPDEST SWAP1 POP SWAP2 SWAP1 POP JUMP JUMPDEST PUSH1 0x80 MLOAD PUSH1 0xA0 MLOAD PUSH2 0x2C54 PUSH2 0x3FA PUSH0 CODECOPY PUSH0 DUP2 DUP2 PUSH2 0x62F ADD MSTORE DUP2 DUP2 PUSH2 0x685 ADD MSTORE DUP2 DUP2 PUSH2 0xA67 ADD MSTORE DUP2 DUP2 PUSH2 0xAFC ADD MSTORE DUP2 DUP2 PUSH2 0xB52 ADD MSTORE DUP2 DUP2 PUSH2 0xE01 ADD MSTORE DUP2 DUP2 PUSH2 0xE57 ADD MSTORE DUP2 DUP2 PUSH2 0x14FB ADD MSTORE DUP2 DUP2 PUSH2 0x15BF ADD MSTORE PUSH2 0x1615 ADD MSTORE PUSH0 DUP2 DUP2 PUSH2 0x5D9 ADD MSTORE DUP2 DUP2 PUSH2 0x6DB ADD MSTORE DUP2 DUP2 PUSH2 0x7BC ADD MSTORE DUP2 DUP2 PUSH2 0x81D ADD MSTORE DUP2 DUP2 PUSH2 0xAA6 ADD MSTORE DUP2 DUP2 PUSH2 0xBA8 ADD MSTORE DUP2 DUP2 PUSH2 0xC39 ADD MSTORE DUP2 DUP2 PUSH2 0xC9A ADD MSTORE DUP2 DUP2 PUSH2 0xDAB ADD MSTORE DUP2 DUP2 PUSH2 0xEAD ADD MSTORE DUP2 DUP2 PUSH2 0x10B2 ADD MSTORE DUP2 DUP2 PUSH2 0x14D8 ADD MSTORE DUP2 DUP2 PUSH2 0x1569 ADD MSTORE DUP2 DUP2 PUSH2 0x166B ADD MSTORE DUP2 DUP2 PUSH2 0x176A ADD MSTORE PUSH2 0x1C1E ADD MSTORE PUSH2 0x2C54 PUSH0 RETURN INVALID PUSH1 0x80 PUSH1 0x40 MSTORE CALLVALUE DUP1 ISZERO PUSH2 0xF JUMPI PUSH0 PUSH0 REVERT JUMPDEST POP PUSH1 0x4 CALLDATASIZE LT PUSH2 0xF3 JUMPI PUSH0 CALLDATALOAD PUSH1 0xE0 SHR DUP1 PUSH4 0x9DB4AA04 GT PUSH2 0x95 JUMPI DUP1 PUSH4 0xC8C0526E GT PUSH2 0x64 JUMPI DUP1 PUSH4 0xC8C0526E EQ PUSH2 0x29D JUMPI DUP1 PUSH4 0xCBBC94CF EQ PUSH2 0x2CD JUMPI DUP1 PUSH4 0xE8E33700 EQ PUSH2 0x2EC JUMPI DUP1 PUSH4 0xEF1B1591 EQ PUSH2 0x31E JUMPI PUSH2 0xF3 JUMP JUMPDEST DUP1 PUSH4 0x9DB4AA04 EQ PUSH2 0x1EE JUMPI DUP1 PUSH4 0xA1FC22B1 EQ PUSH2 0x21E JUMPI DUP1 PUSH4 0xAC41865A EQ PUSH2 0x23C JUMPI DUP1 PUSH4 0xBAA2ABDE EQ PUSH2 0x26C JUMPI PUSH2 0xF3 JUMP JUMPDEST DUP1 PUSH4 0x25B5E468 GT PUSH2 0xD1 JUMPI DUP1 PUSH4 0x25B5E468 EQ PUSH2 0x164 JUMPI DUP1 PUSH4 0x35C7E925 EQ PUSH2 0x182 JUMPI DUP1 PUSH4 0x38ED1739 EQ PUSH2 0x1A0 JUMPI DUP1 PUSH4 0x4C82AB63 EQ PUSH2 0x1D0 JUMPI PUSH2 0xF3 JUMP JUMPDEST DUP1 PUSH4 0x54D50D4 EQ PUSH2 0xF7 JUMPI DUP1 PUSH4 0x902F1AC EQ PUSH2 0x127 JUMPI DUP1 PUSH4 0x15770F92 EQ PUSH2 0x146 JUMPI JUMPDEST PUSH0 PUSH0 REVERT JUMPDEST PUSH2 0x111 PUSH1 0x4 DUP1 CALLDATASIZE SUB DUP2 ADD SWAP1 PUSH2 0x10C SWAP2 SWAP1 PUSH2 0x1CE7 JUMP JUMPDEST PUSH2 0x33C JUMP JUMPDEST PUSH1 0x40 MLOAD PUSH2 0x11E SWAP2 SWAP1 PUSH2 0x1D46 JUMP JUMPDEST PUSH1 0x40 MLOAD DUP1 SWAP2 SUB SWAP1 RETURN JUMPDEST PUSH2 0x12F PUSH2 0x420 JUMP JUMPDEST PUSH1 0x40 MLOAD PUSH2 0x13D SWAP3 SWAP2 SWAP1 PUSH2 0x1D5F JUMP JUMPDEST PUSH1 0x40 MLOAD DUP1 SWAP2 SUB SWAP1 RETURN JUMPDEST PUSH2 0x14E PUSH2 0x42F JUMP JUMPDEST PUSH1 0x40 MLOAD PUSH2 0x15B SWAP2 SWAP1 PUSH2 0x1D46 JUMP JUMPDEST PUSH1 0x40 MLOAD DUP1 SWAP2 SUB SWAP1 RETURN JUMPDEST PUSH2 0x16C PUSH2 0x435 JUMP JUMPDEST PUSH1 0x40 MLOAD PUSH2 0x179 SWAP2 SWAP1 PUSH2 0x1D46 JUMP JUMPDEST PUSH1 0x40 MLOAD DUP1 SWAP2 SUB SWAP1 RETURN JUMPDEST PUSH2 0x18A PUSH2 0x43B JUMP JUMPDEST PUSH1 0x40 MLOAD PUSH2 0x197 SWAP2 SWAP1 PUSH2 0x1D46 JUMP JUMPDEST PUSH1 0x40 MLOAD DUP1 SWAP2 SUB SWAP1 RETURN JUMPDEST PUSH2 0x1BA PUSH1 0x4 DUP1 CALLDATASIZE SUB DUP2 ADD SWAP1 PUSH2 0x1B5 SWAP2 SWAP1 PUSH2 0x1E41 JUMP JUMPDEST PUSH2 0x444 JUMP JUMPDEST PUSH1 0x40 MLOAD PUSH2 0x1C7 SWAP2 SWAP1 PUSH2 0x1F8E JUMP JUMPDEST PUSH1 0x40 MLOAD DUP1 SWAP2 SUB SWAP1 RETURN JUMPDEST PUSH2 0x1D8 PUSH2 0xA65 JUMP JUMPDEST PUSH1 0x40 MLOAD PUSH2 0x1E5 SWAP2 SWAP1 PUSH2 0x1FBD JUMP JUMPDEST PUSH1 0x40 MLOAD DUP1 SWAP2 SUB SWAP1 RETURN JUMPDEST PUSH2 0x208 PUSH1 0x4 DUP1 CALLDATASIZE SUB DUP2 ADD SWAP1 PUSH2 0x203 SWAP2 SWAP1 PUSH2 0x1FD6 JUMP JUMPDEST PUSH2 0xA89 JUMP JUMPDEST PUSH1 0x40 MLOAD PUSH2 0x215 SWAP2 SWAP1 PUSH2 0x1D46 JUMP JUMPDEST PUSH1 0x40 MLOAD DUP1 SWAP2 SUB SWAP1 RETURN JUMPDEST PUSH2 0x226 PUSH2 0xA9E JUMP JUMPDEST PUSH1 0x40 MLOAD PUSH2 0x233 SWAP2 SWAP1 PUSH2 0x1D46 JUMP JUMPDEST PUSH1 0x40 MLOAD DUP1 SWAP2 SUB SWAP1 RETURN JUMPDEST PUSH2 0x256 PUSH1 0x4 DUP1 CALLDATASIZE SUB DUP2 ADD SWAP1 PUSH2 0x251 SWAP2 SWAP1 PUSH2 0x2001 JUMP JUMPDEST PUSH2 0xAA3 JUMP JUMPDEST PUSH1 0x40 MLOAD PUSH2 0x263 SWAP2 SWAP1 PUSH2 0x1D46 JUMP JUMPDEST PUSH1 0x40 MLOAD DUP1 SWAP2 SUB SWAP1 RETURN JUMPDEST PUSH2 0x286 PUSH1 0x4 DUP1 CALLDATASIZE SUB DUP2 ADD SWAP1 PUSH2 0x281 SWAP2 SWAP1 PUSH2 0x203F JUMP JUMPDEST PUSH2 0xD63 JUMP JUMPDEST PUSH1 0x40 MLOAD PUSH2 0x294 SWAP3 SWAP2 SWAP1 PUSH2 0x1D5F JUMP JUMPDEST PUSH1 0x40 MLOAD DUP1 SWAP2 SUB SWAP1 RETURN JUMPDEST PUSH2 0x2B7 PUSH1 0x4 DUP1 CALLDATASIZE SUB DUP2 ADD SWAP1 PUSH2 0x2B2 SWAP2 SWAP1 PUSH2 0x1FD6 JUMP JUMPDEST PUSH2 0x148E JUMP JUMPDEST PUSH1 0x40 MLOAD PUSH2 0x2C4 SWAP2 SWAP1 PUSH2 0x1D46 JUMP JUMPDEST PUSH1 0x40 MLOAD DUP1 SWAP2 SUB SWAP1 RETURN JUMPDEST PUSH2 0x2D5 PUSH2 0x14D4 JUMP JUMPDEST PUSH1 0x40 MLOAD PUSH2 0x2E3 SWAP3 SWAP2 SWAP1 PUSH2 0x20DC JUMP JUMPDEST PUSH1 0x40 MLOAD DUP1 SWAP2 SUB SWAP1 RETURN JUMPDEST PUSH2 0x306 PUSH1 0x4 DUP1 CALLDATASIZE SUB DUP2 ADD SWAP1 PUSH2 0x301 SWAP2 SWAP1 PUSH2 0x2103 JUMP JUMPDEST PUSH2 0x1520 JUMP JUMPDEST PUSH1 0x40 MLOAD PUSH2 0x315 SWAP4 SWAP3 SWAP2 SWAP1 PUSH2 0x21B4 JUMP JUMPDEST PUSH1 0x40 MLOAD DUP1 SWAP2 SUB SWAP1 RETURN JUMPDEST PUSH2 0x326 PUSH2 0x1C1C JUMP JUMPDEST PUSH1 0x40 MLOAD PUSH2 0x333 SWAP2 SWAP1 PUSH2 0x1FBD JUMP JUMPDEST PUSH1 0x40 MLOAD DUP1 SWAP2 SUB SWAP1 RETURN JUMPDEST PUSH0 PUSH0 DUP5 GT PUSH2 0x37F JUMPI PUSH1 0x40 MLOAD PUSH32 0x8C379A000000000000000000000000000000000000000000000000000000000 DUP2 MSTORE PUSH1 0x4 ADD PUSH2 0x376 SWAP1 PUSH2 0x2243 JUMP JUMPDEST PUSH1 0x40 MLOAD DUP1 SWAP2 SUB SWAP1 REVERT JUMPDEST PUSH0 DUP4 GT DUP1 ISZERO PUSH2 0x38D JUMPI POP PUSH0 DUP3 GT JUMPDEST PUSH2 0x3CC JUMPI PUSH1 0x40 MLOAD PUSH32 0x8C379A000000000000000000000000000000000000000000000000000000000 DUP2 MSTORE PUSH1 0x4 ADD PUSH2 0x3C3 SWAP1 PUSH2 0x22AB JUMP JUMPDEST PUSH1 0x40 MLOAD DUP1 SWAP2 SUB SWAP1 REVERT JUMPDEST PUSH0 PUSH2 0x3E5 DUP6 PUSH2 0x3DB SWAP2 SWAP1 PUSH2 0x22F6 JUMP JUMPDEST SWAP1 POP PUSH0 DUP4 DUP3 PUSH2 0x3EA SWAP2 SWAP1 PUSH2 0x22F6 JUMP JUMPDEST SWAP1 POP PUSH0 DUP3 PUSH2 0x3E8 DUP8 PUSH2 0x3FC SWAP2 SWAP1 PUSH2 0x22F6 JUMP JUMPDEST PUSH2 0x406 SWAP2 SWAP1 PUSH2 0x2337 JUMP JUMPDEST SWAP1 POP DUP1 DUP3 PUSH2 0x414 SWAP2 SWAP1 PUSH2 0x2397 JUMP JUMPDEST SWAP4 POP POP POP POP SWAP4 SWAP3 POP POP POP JUMP JUMPDEST PUSH0 PUSH0 PUSH0 SLOAD SWAP2 POP PUSH1 0x1 SLOAD SWAP1 POP SWAP1 SWAP2 JUMP JUMPDEST PUSH1 0x2 SLOAD DUP2 JUMP JUMPDEST PUSH1 0x1 SLOAD DUP2 JUMP JUMPDEST PUSH0 PUSH1 0x2 SLOAD SWAP1 POP SWAP1 JUMP JUMPDEST PUSH1 0x60 DUP2 TIMESTAMP DUP2 LT ISZERO PUSH2 0x48A JUMPI PUSH1 0x40 MLOAD PUSH32 0x8C379A000000000000000000000000000000000000000000000000000000000 DUP2 MSTORE PUSH1 0x4 ADD PUSH2 0x481 SWAP1 PUSH2 0x2411 JUMP JUMPDEST PUSH1 0x40 MLOAD DUP1 SWAP2 SUB SWAP1 REVERT JUMPDEST PUSH0 DUP9 GT PUSH2 0x4CC JUMPI PUSH1 0x40 MLOAD PUSH32 0x8C379A000000000000000000000000000000000000000000000000000000000 DUP2 MSTORE PUSH1 0x4 ADD PUSH2 0x4C3 SWAP1 PUSH2 0x2479 JUMP JUMPDEST PUSH1 0x40 MLOAD DUP1 SWAP2 SUB SWAP1 REVERT JUMPDEST PUSH1 0x2 DUP7 DUP7 SWAP1 POP EQ PUSH2 0x512 JUMPI PUSH1 0x40 MLOAD PUSH32 0x8C379A000000000000000000000000000000000000000000000000000000000 DUP2 MSTORE PUSH1 0x4 ADD PUSH2 0x509 SWAP1 PUSH2 0x24E1 JUMP JUMPDEST PUSH1 0x40 MLOAD DUP1 SWAP2 SUB SWAP1 REVERT JUMPDEST PUSH0 PUSH20 0xFFFFFFFFFFFFFFFFFFFFFFFFFFFFFFFFFFFFFFFF AND DUP5 PUSH20 0xFFFFFFFFFFFFFFFFFFFFFFFFFFFFFFFFFFFFFFFF AND SUB PUSH2 0x580 JUMPI PUSH1 0x40 MLOAD PUSH32 0x8C379A000000000000000000000000000000000000000000000000000000000 DUP2 MSTORE PUSH1 0x4 ADD PUSH2 0x577 SWAP1 PUSH2 0x2549 JUMP JUMPDEST PUSH1 0x40 MLOAD DUP1 SWAP2 SUB SWAP1 REVERT JUMPDEST PUSH0 DUP7 DUP7 PUSH0 DUP2 DUP2 LT PUSH2 0x594 JUMPI PUSH2 0x593 PUSH2 0x2567 JUMP JUMPDEST JUMPDEST SWAP1 POP PUSH1 0x20 MUL ADD PUSH1 0x20 DUP2 ADD SWAP1 PUSH2 0x5A9 SWAP2 SWAP1 PUSH2 0x1FD6 JUMP JUMPDEST SWAP1 POP PUSH0 DUP8 DUP8 PUSH1 0x1 DUP2 DUP2 LT PUSH2 0x5C0 JUMPI PUSH2 0x5BF PUSH2 0x2567 JUMP JUMPDEST JUMPDEST SWAP1 POP PUSH1 0x20 MUL ADD PUSH1 0x20 DUP2 ADD SWAP1 PUSH2 0x5D5 SWAP2 SWAP1 PUSH2 0x1FD6 JUMP JUMPDEST SWAP1 POP PUSH32 0x0 PUSH20 0xFFFFFFFFFFFFFFFFFFFFFFFFFFFFFFFFFFFFFFFF AND DUP3 PUSH20 0xFFFFFFFFFFFFFFFFFFFFFFFFFFFFFFFFFFFFFFFF AND EQ DUP1 ISZERO PUSH2 0x67D JUMPI POP PUSH32 0x0 PUSH20 0xFFFFFFFFFFFFFFFFFFFFFFFFFFFFFFFFFFFFFFFF AND DUP2 PUSH20 0xFFFFFFFFFFFFFFFFFFFFFFFFFFFFFFFFFFFFFFFF AND EQ JUMPDEST DUP1 PUSH2 0x72A JUMPI POP PUSH32 0x0 PUSH20 0xFFFFFFFFFFFFFFFFFFFFFFFFFFFFFFFFFFFFFFFF AND DUP3 PUSH20 0xFFFFFFFFFFFFFFFFFFFFFFFFFFFFFFFFFFFFFFFF AND EQ DUP1 ISZERO PUSH2 0x729 JUMPI POP PUSH32 0x0 PUSH20 0xFFFFFFFFFFFFFFFFFFFFFFFFFFFFFFFFFFFFFFFF AND DUP2 PUSH20 0xFFFFFFFFFFFFFFFFFFFFFFFFFFFFFFFFFFFFFFFF AND EQ JUMPDEST JUMPDEST PUSH2 0x769 JUMPI PUSH1 0x40 MLOAD PUSH32 0x8C379A000000000000000000000000000000000000000000000000000000000 DUP2 MSTORE PUSH1 0x4 ADD PUSH2 0x760 SWAP1 PUSH2 0x25DE JUMP JUMPDEST PUSH1 0x40 MLOAD DUP1 SWAP2 SUB SWAP1 REVERT JUMPDEST PUSH0 PUSH0 SLOAD GT DUP1 ISZERO PUSH2 0x77A JUMPI POP PUSH0 PUSH1 0x1 SLOAD GT JUMPDEST PUSH2 0x7B9 JUMPI PUSH1 0x40 MLOAD PUSH32 0x8C379A000000000000000000000000000000000000000000000000000000000 DUP2 MSTORE PUSH1 0x4 ADD PUSH2 0x7B0 SWAP1 PUSH2 0x22AB JUMP JUMPDEST PUSH1 0x40 MLOAD DUP1 SWAP2 SUB SWAP1 REVERT JUMPDEST PUSH0 PUSH32 0x0 PUSH20 0xFFFFFFFFFFFFFFFFFFFFFFFFFFFFFFFFFFFFFFFF AND DUP4 PUSH20 0xFFFFFFFFFFFFFFFFFFFFFFFFFFFFFFFFFFFFFFFF AND EQ PUSH2 0x815 JUMPI PUSH1 0x1 SLOAD PUSH2 0x818 JUMP JUMPDEST PUSH0 SLOAD JUMPDEST SWAP1 POP PUSH0 PUSH32 0x0 PUSH20 0xFFFFFFFFFFFFFFFFFFFFFFFFFFFFFFFFFFFFFFFF AND DUP5 PUSH20 0xFFFFFFFFFFFFFFFFFFFFFFFFFFFFFFFFFFFFFFFF AND EQ PUSH2 0x875 JUMPI PUSH0 SLOAD PUSH2 0x879 JUMP JUMPDEST PUSH1 0x1 SLOAD JUMPDEST SWAP1 POP PUSH0 PUSH2 0x887 DUP14 DUP5 DUP5 PUSH2 0x33C JUMP JUMPDEST SWAP1 POP DUP12 DUP2 LT ISZERO PUSH2 0x8CC JUMPI PUSH1 0x40 MLOAD PUSH32 0x8C379A000000000000000000000000000000000000000000000000000000000 DUP2 MSTORE PUSH1 0x4 ADD PUSH2 0x8C3 SWAP1 PUSH2 0x2646 JUMP JUMPDEST PUSH1 0x40 MLOAD DUP1 SWAP2 SUB SWAP1 REVERT JUMPDEST DUP2 DUP2 LT PUSH2 0x90E JUMPI PUSH1 0x40 MLOAD PUSH32 0x8C379A000000000000000000000000000000000000000000000000000000000 DUP2 MSTORE PUSH1 0x4 ADD PUSH2 0x905 SWAP1 PUSH2 0x26AE JUMP JUMPDEST PUSH1 0x40 MLOAD DUP1 SWAP2 SUB SWAP1 REVERT JUMPDEST DUP4 PUSH20 0xFFFFFFFFFFFFFFFFFFFFFFFFFFFFFFFFFFFFFFFF AND PUSH4 0xA9059CBB DUP11 DUP4 PUSH1 0x40 MLOAD DUP4 PUSH4 0xFFFFFFFF AND PUSH1 0xE0 SHL DUP2 MSTORE PUSH1 0x4 ADD PUSH2 0x949 SWAP3 SWAP2 SWAP1 PUSH2 0x26CC JUMP JUMPDEST PUSH1 0x20 PUSH1 0x40 MLOAD DUP1 DUP4 SUB DUP2 PUSH0 DUP8 GAS CALL ISZERO DUP1 ISZERO PUSH2 0x965 JUMPI RETURNDATASIZE PUSH0 PUSH0 RETURNDATACOPY RETURNDATASIZE PUSH0 REVERT JUMPDEST POP POP POP POP PUSH1 0x40 MLOAD RETURNDATASIZE PUSH1 0x1F NOT PUSH1 0x1F DUP3 ADD AND DUP3 ADD DUP1 PUSH1 0x40 MSTORE POP DUP2 ADD SWAP1 PUSH2 0x989 SWAP2 SWAP1 PUSH2 0x2728 JUMP JUMPDEST PUSH2 0x9C8 JUMPI PUSH1 0x40 MLOAD PUSH32 0x8C379A000000000000000000000000000000000000000000000000000000000 DUP2 MSTORE PUSH1 0x4 ADD PUSH2 0x9BF SWAP1 PUSH2 0x279D JUMP JUMPDEST PUSH1 0x40 MLOAD DUP1 SWAP2 SUB SWAP1 REVERT JUMPDEST PUSH1 0x2 PUSH8 0xFFFFFFFFFFFFFFFF DUP2 GT ISZERO PUSH2 0x9E3 JUMPI PUSH2 0x9E2 PUSH2 0x27BB JUMP JUMPDEST JUMPDEST PUSH1 0x40 MLOAD SWAP1 DUP1 DUP3 MSTORE DUP1 PUSH1 0x20 MUL PUSH1 0x20 ADD DUP3 ADD PUSH1 0x40 MSTORE DUP1 ISZERO PUSH2 0xA11 JUMPI DUP2 PUSH1 0x20 ADD PUSH1 0x20 DUP3 MUL DUP1 CALLDATASIZE DUP4 CALLDATACOPY DUP1 DUP3 ADD SWAP2 POP POP SWAP1 POP JUMPDEST POP SWAP7 POP DUP13 DUP8 PUSH0 DUP2 MLOAD DUP2 LT PUSH2 0xA28 JUMPI PUSH2 0xA27 PUSH2 0x2567 JUMP JUMPDEST JUMPDEST PUSH1 0x20 MUL PUSH1 0x20 ADD ADD DUP2 DUP2 MSTORE POP POP DUP1 DUP8 PUSH1 0x1 DUP2 MLOAD DUP2 LT PUSH2 0xA49 JUMPI PUSH2 0xA48 PUSH2 0x2567 JUMP JUMPDEST JUMPDEST PUSH1 0x20 MUL PUSH1 0x20 ADD ADD DUP2 DUP2 MSTORE POP POP POP POP POP POP POP POP SWAP7 SWAP6 POP POP POP POP POP POP JUMP JUMPDEST PUSH32 0x0 DUP2 JUMP JUMPDEST PUSH1 0x3 PUSH1 0x20 MSTORE DUP1 PUSH0 MSTORE PUSH1 0x40 PUSH0 KECCAK256 PUSH0 SWAP2 POP SWAP1 POP SLOAD DUP2 JUMP JUMPDEST PUSH0 SLOAD DUP2 JUMP JUMPDEST PUSH0 PUSH32 0x0 PUSH20 0xFFFFFFFFFFFFFFFFFFFFFFFFFFFFFFFFFFFFFFFF AND DUP4 PUSH20 0xFFFFFFFFFFFFFFFFFFFFFFFFFFFFFFFFFFFFFFFF AND EQ DUP1 ISZERO PUSH2 0xB4A JUMPI POP PUSH32 0x0 PUSH20 0xFFFFFFFFFFFFFFFFFFFFFFFFFFFFFFFFFFFFFFFF AND DUP3 PUSH20 0xFFFFFFFFFFFFFFFFFFFFFFFFFFFFFFFFFFFFFFFF AND EQ JUMPDEST DUP1 PUSH2 0xBF7 JUMPI POP PUSH32 0x0 PUSH20 0xFFFFFFFFFFFFFFFFFFFFFFFFFFFFFFFFFFFFFFFF AND DUP4 PUSH20 0xFFFFFFFFFFFFFFFFFFFFFFFFFFFFFFFFFFFFFFFF AND EQ DUP1 ISZERO PUSH2 0xBF6 JUMPI POP PUSH32 0x0 PUSH20 0xFFFFFFFFFFFFFFFFFFFFFFFFFFFFFFFFFFFFFFFF AND DUP3 PUSH20 0xFFFFFFFFFFFFFFFFFFFFFFFFFFFFFFFFFFFFFFFF AND EQ JUMPDEST JUMPDEST PUSH2 0xC36 JUMPI PUSH1 0x40 MLOAD PUSH32 0x8C379A000000000000000000000000000000000000000000000000000000000 DUP2 MSTORE PUSH1 0x4 ADD PUSH2 0xC2D SWAP1 PUSH2 0x25DE JUMP JUMPDEST PUSH1 0x40 MLOAD DUP1 SWAP2 SUB SWAP1 REVERT JUMPDEST PUSH0 PUSH32 0x0 PUSH20 0xFFFFFFFFFFFFFFFFFFFFFFFFFFFFFFFFFFFFFFFF AND DUP5 PUSH20 0xFFFFFFFFFFFFFFFFFFFFFFFFFFFFFFFFFFFFFFFF AND EQ PUSH2 0xC92 JUMPI PUSH1 0x1 SLOAD PUSH2 0xC95 JUMP JUMPDEST PUSH0 SLOAD JUMPDEST SWAP1 POP PUSH0 PUSH32 0x0 PUSH20 0xFFFFFFFFFFFFFFFFFFFFFFFFFFFFFFFFFFFFFFFF AND DUP6 PUSH20 0xFFFFFFFFFFFFFFFFFFFFFFFFFFFFFFFFFFFFFFFF AND EQ PUSH2 0xCF2 JUMPI PUSH0 SLOAD PUSH2 0xCF6 JUMP JUMPDEST PUSH1 0x1 SLOAD JUMPDEST SWAP1 POP PUSH0 DUP3 GT PUSH2 0xD3A JUMPI PUSH1 0x40 MLOAD PUSH32 0x8C379A000000000000000000000000000000000000000000000000000000000 DUP2 MSTORE PUSH1 0x4 ADD PUSH2 0xD31 SWAP1 PUSH2 0x2832 JUMP JUMPDEST PUSH1 0x40 MLOAD DUP1 SWAP2 SUB SWAP1 REVERT JUMPDEST DUP2 PUSH8 0xDE0B6B3A7640000 DUP3 PUSH2 0xD4F SWAP2 SWAP1 PUSH2 0x22F6 JUMP JUMPDEST PUSH2 0xD59 SWAP2 SWAP1 PUSH2 0x2397 JUMP JUMPDEST SWAP3 POP POP POP SWAP3 SWAP2 POP POP JUMP JUMPDEST PUSH0 PUSH0 DUP3 TIMESTAMP DUP2 LT ISZERO PUSH2 0xDA9 JUMPI PUSH1 0x40 MLOAD PUSH32 0x8C379A000000000000000000000000000000000000000000000000000000000 DUP2 MSTORE PUSH1 0x4 ADD PUSH2 0xDA0 SWAP1 PUSH2 0x2411 JUMP JUMPDEST PUSH1 0x40 MLOAD DUP1 SWAP2 SUB SWAP1 REVERT JUMPDEST PUSH32 0x0 PUSH20 0xFFFFFFFFFFFFFFFFFFFFFFFFFFFFFFFFFFFFFFFF AND DUP11 PUSH20 0xFFFFFFFFFFFFFFFFFFFFFFFFFFFFFFFFFFFFFFFF AND EQ DUP1 ISZERO PUSH2 0xE4F JUMPI POP PUSH32 0x0 PUSH20 0xFFFFFFFFFFFFFFFFFFFFFFFFFFFFFFFFFFFFFFFF AND DUP10 PUSH20 0xFFFFFFFFFFFFFFFFFFFFFFFFFFFFFFFFFFFFFFFF AND EQ JUMPDEST DUP1 PUSH2 0xEFC JUMPI POP PUSH32 0x0 PUSH20 0xFFFFFFFFFFFFFFFFFFFFFFFFFFFFFFFFFFFFFFFF AND DUP11 PUSH20 0xFFFFFFFFFFFFFFFFFFFFFFFFFFFFFFFFFFFFFFFF AND EQ DUP1 ISZERO PUSH2 0xEFB JUMPI POP PUSH32 0x0 PUSH20 0xFFFFFFFFFFFFFFFFFFFFFFFFFFFFFFFFFFFFFFFF AND DUP10 PUSH20 0xFFFFFFFFFFFFFFFFFFFFFFFFFFFFFFFFFFFFFFFF AND EQ JUMPDEST JUMPDEST PUSH2 0xF3B JUMPI PUSH1 0x40 MLOAD PUSH32 0x8C379A000000000000000000000000000000000000000000000000000000000 DUP2 MSTORE PUSH1 0x4 ADD PUSH2 0xF32 SWAP1 PUSH2 0x25DE JUMP JUMPDEST PUSH1 0x40 MLOAD DUP1 SWAP2 SUB SWAP1 REVERT JUMPDEST PUSH0 PUSH20 0xFFFFFFFFFFFFFFFFFFFFFFFFFFFFFFFFFFFFFFFF AND DUP6 PUSH20 0xFFFFFFFFFFFFFFFFFFFFFFFFFFFFFFFFFFFFFFFF AND SUB PUSH2 0xFA9 JUMPI PUSH1 0x40 MLOAD PUSH32 0x8C379A000000000000000000000000000000000000000000000000000000000 DUP2 MSTORE PUSH1 0x4 ADD PUSH2 0xFA0 SWAP1 PUSH2 0x2549 JUMP JUMPDEST PUSH1 0x40 MLOAD DUP1 SWAP2 SUB SWAP1 REVERT JUMPDEST PUSH0 DUP9 GT PUSH2 0xFEB JUMPI PUSH1 0x40 MLOAD PUSH32 0x8C379A000000000000000000000000000000000000000000000000000000000 DUP2 MSTORE PUSH1 0x4 ADD PUSH2 0xFE2 SWAP1 PUSH2 0x28C0 JUMP JUMPDEST PUSH1 0x40 MLOAD DUP1 SWAP2 SUB SWAP1 REVERT JUMPDEST DUP8 PUSH1 0x3 PUSH0 CALLER PUSH20 0xFFFFFFFFFFFFFFFFFFFFFFFFFFFFFFFFFFFFFFFF AND PUSH20 0xFFFFFFFFFFFFFFFFFFFFFFFFFFFFFFFFFFFFFFFF AND DUP2 MSTORE PUSH1 0x20 ADD SWAP1 DUP2 MSTORE PUSH1 0x20 ADD PUSH0 KECCAK256 SLOAD LT ISZERO PUSH2 0x106B JUMPI PUSH1 0x40 MLOAD PUSH32 0x8C379A000000000000000000000000000000000000000000000000000000000 DUP2 MSTORE PUSH1 0x4 ADD PUSH2 0x1062 SWAP1 PUSH2 0x2928 JUMP JUMPDEST PUSH1 0x40 MLOAD DUP1 SWAP2 SUB SWAP1 REVERT JUMPDEST PUSH0 PUSH1 0x2 SLOAD GT PUSH2 0x10AF JUMPI PUSH1 0x40 MLOAD PUSH32 0x8C379A000000000000000000000000000000000000000000000000000000000 DUP2 MSTORE PUSH1 0x4 ADD PUSH2 0x10A6 SWAP1 PUSH2 0x2990 JUMP JUMPDEST PUSH1 0x40 MLOAD DUP1 SWAP2 SUB SWAP1 REVERT JUMPDEST PUSH0 PUSH32 0x0 PUSH20 0xFFFFFFFFFFFFFFFFFFFFFFFFFFFFFFFFFFFFFFFF AND DUP12 PUSH20 0xFFFFFFFFFFFFFFFFFFFFFFFFFFFFFFFFFFFFFFFF AND EQ SWAP1 POP PUSH0 DUP2 PUSH2 0x110F JUMPI PUSH1 0x1 SLOAD PUSH2 0x1112 JUMP JUMPDEST PUSH0 SLOAD JUMPDEST SWAP1 POP PUSH0 DUP3 PUSH2 0x1121 JUMPI PUSH0 SLOAD PUSH2 0x1125 JUMP JUMPDEST PUSH1 0x1 SLOAD JUMPDEST SWAP1 POP PUSH1 0x2 SLOAD DUP3 DUP13 PUSH2 0x1136 SWAP2 SWAP1 PUSH2 0x22F6 JUMP JUMPDEST PUSH2 0x1140 SWAP2 SWAP1 PUSH2 0x2397 JUMP JUMPDEST SWAP6 POP PUSH1 0x2 SLOAD DUP2 DUP13 PUSH2 0x1151 SWAP2 SWAP1 PUSH2 0x22F6 JUMP JUMPDEST PUSH2 0x115B SWAP2 SWAP1 PUSH2 0x2397 JUMP JUMPDEST SWAP5 POP DUP10 DUP7 LT ISZERO PUSH2 0x11A0 JUMPI PUSH1 0x40 MLOAD PUSH32 0x8C379A000000000000000000000000000000000000000000000000000000000 DUP2 MSTORE PUSH1 0x4 ADD PUSH2 0x1197 SWAP1 PUSH2 0x29F8 JUMP JUMPDEST PUSH1 0x40 MLOAD DUP1 SWAP2 SUB SWAP1 REVERT JUMPDEST DUP9 DUP6 LT ISZERO PUSH2 0x11E3 JUMPI PUSH1 0x40 MLOAD PUSH32 0x8C379A000000000000000000000000000000000000000000000000000000000 DUP2 MSTORE PUSH1 0x4 ADD PUSH2 0x11DA SWAP1 PUSH2 0x2A60 JUMP JUMPDEST PUSH1 0x40 MLOAD DUP1 SWAP2 SUB SWAP1 REVERT JUMPDEST DUP3 ISZERO PUSH2 0x121D JUMPI DUP6 PUSH0 PUSH0 DUP3 DUP3 SLOAD PUSH2 0x11F9 SWAP2 SWAP1 PUSH2 0x2A7E JUMP JUMPDEST SWAP3 POP POP DUP2 SWAP1 SSTORE POP DUP5 PUSH1 0x1 PUSH0 DUP3 DUP3 SLOAD PUSH2 0x1211 SWAP2 SWAP1 PUSH2 0x2A7E JUMP JUMPDEST SWAP3 POP POP DUP2 SWAP1 SSTORE POP PUSH2 0x124D JUMP JUMPDEST DUP6 PUSH1 0x1 PUSH0 DUP3 DUP3 SLOAD PUSH2 0x122E SWAP2 SWAP1 PUSH2 0x2A7E JUMP JUMPDEST SWAP3 POP POP DUP2 SWAP1 SSTORE POP DUP5 PUSH0 PUSH0 DUP3 DUP3 SLOAD PUSH2 0x1245 SWAP2 SWAP1 PUSH2 0x2A7E JUMP JUMPDEST SWAP3 POP POP DUP2 SWAP1 SSTORE POP JUMPDEST DUP11 PUSH1 0x2 PUSH0 DUP3 DUP3 SLOAD PUSH2 0x125E SWAP2 SWAP1 PUSH2 0x2A7E JUMP JUMPDEST SWAP3 POP POP DUP2 SWAP1 SSTORE POP DUP11 PUSH1 0x3 PUSH0 CALLER PUSH20 0xFFFFFFFFFFFFFFFFFFFFFFFFFFFFFFFFFFFFFFFF AND PUSH20 0xFFFFFFFFFFFFFFFFFFFFFFFFFFFFFFFFFFFFFFFF AND DUP2 MSTORE PUSH1 0x20 ADD SWAP1 DUP2 MSTORE PUSH1 0x20 ADD PUSH0 KECCAK256 PUSH0 DUP3 DUP3 SLOAD PUSH2 0x12B1 SWAP2 SWAP1 PUSH2 0x2A7E JUMP JUMPDEST SWAP3 POP POP DUP2 SWAP1 SSTORE POP DUP13 PUSH20 0xFFFFFFFFFFFFFFFFFFFFFFFFFFFFFFFFFFFFFFFF AND PUSH4 0xA9059CBB DUP10 DUP9 PUSH1 0x40 MLOAD DUP4 PUSH4 0xFFFFFFFF AND PUSH1 0xE0 SHL DUP2 MSTORE PUSH1 0x4 ADD PUSH2 0x12F3 SWAP3 SWAP2 SWAP1 PUSH2 0x26CC JUMP JUMPDEST PUSH1 0x20 PUSH1 0x40 MLOAD DUP1 DUP4 SUB DUP2 PUSH0 DUP8 GAS CALL ISZERO DUP1 ISZERO PUSH2 0x130F JUMPI RETURNDATASIZE PUSH0 PUSH0 RETURNDATACOPY RETURNDATASIZE PUSH0 REVERT JUMPDEST POP POP POP POP PUSH1 0x40 MLOAD RETURNDATASIZE PUSH1 0x1F NOT PUSH1 0x1F DUP3 ADD AND DUP3 ADD DUP1 PUSH1 0x40 MSTORE POP DUP2 ADD SWAP1 PUSH2 0x1333 SWAP2 SWAP1 PUSH2 0x2728 JUMP JUMPDEST PUSH2 0x1372 JUMPI PUSH1 0x40 MLOAD PUSH32 0x8C379A000000000000000000000000000000000000000000000000000000000 DUP2 MSTORE PUSH1 0x4 ADD PUSH2 0x1369 SWAP1 PUSH2 0x2AFB JUMP JUMPDEST PUSH1 0x40 MLOAD DUP1 SWAP2 SUB SWAP1 REVERT JUMPDEST DUP12 PUSH20 0xFFFFFFFFFFFFFFFFFFFFFFFFFFFFFFFFFFFFFFFF AND PUSH4 0xA9059CBB DUP10 DUP8 PUSH1 0x40 MLOAD DUP4 PUSH4 0xFFFFFFFF AND PUSH1 0xE0 SHL DUP2 MSTORE PUSH1 0x4 ADD PUSH2 0x13AD SWAP3 SWAP2 SWAP1 PUSH2 0x26CC JUMP JUMPDEST PUSH1 0x20 PUSH1 0x40 MLOAD DUP1 DUP4 SUB DUP2 PUSH0 DUP8 GAS CALL ISZERO DUP1 ISZERO PUSH2 0x13C9 JUMPI RETURNDATASIZE PUSH0 PUSH0 RETURNDATACOPY RETURNDATASIZE PUSH0 REVERT JUMPDEST POP POP POP POP PUSH1 0x40 MLOAD RETURNDATASIZE PUSH1 0x1F NOT PUSH1 0x1F DUP3 ADD AND DUP3 ADD DUP1 PUSH1 0x40 MSTORE POP DUP2 ADD SWAP1 PUSH2 0x13ED SWAP2 SWAP1 PUSH2 0x2728 JUMP JUMPDEST PUSH2 0x142C JUMPI PUSH1 0x40 MLOAD PUSH32 0x8C379A000000000000000000000000000000000000000000000000000000000 DUP2 MSTORE PUSH1 0x4 ADD PUSH2 0x1423 SWAP1 PUSH2 0x2B63 JUMP JUMPDEST PUSH1 0x40 MLOAD DUP1 SWAP2 SUB SWAP1 REVERT JUMPDEST DUP8 PUSH20 0xFFFFFFFFFFFFFFFFFFFFFFFFFFFFFFFFFFFFFFFF AND PUSH32 0x1DC8BB69DF2B8E91FBDCBFCF93D951B3F0000F085A95FE3F7946D6161439245D DUP8 DUP8 DUP15 PUSH1 0x40 MLOAD PUSH2 0x1476 SWAP4 SWAP3 SWAP2 SWAP1 PUSH2 0x21B4 JUMP JUMPDEST PUSH1 0x40 MLOAD DUP1 SWAP2 SUB SWAP1 LOG2 POP POP POP POP SWAP8 POP SWAP8 SWAP6 POP POP POP POP POP POP JUMP JUMPDEST PUSH0 PUSH1 0x3 PUSH0 DUP4 PUSH20 0xFFFFFFFFFFFFFFFFFFFFFFFFFFFFFFFFFFFFFFFF AND PUSH20 0xFFFFFFFFFFFFFFFFFFFFFFFFFFFFFFFFFFFFFFFF AND DUP2 MSTORE PUSH1 0x20 ADD SWAP1 DUP2 MSTORE PUSH1 0x20 ADD PUSH0 KECCAK256 SLOAD SWAP1 POP SWAP2 SWAP1 POP JUMP JUMPDEST PUSH0 PUSH0 PUSH32 0x0 SWAP2 POP PUSH32 0x0 SWAP1 POP SWAP1 SWAP2 JUMP JUMPDEST PUSH0 PUSH0 PUSH0 DUP4 TIMESTAMP DUP2 LT ISZERO PUSH2 0x1567 JUMPI PUSH1 0x40 MLOAD PUSH32 0x8C379A000000000000000000000000000000000000000000000000000000000 DUP2 MSTORE PUSH1 0x4 ADD PUSH2 0x155E SWAP1 PUSH2 0x2411 JUMP JUMPDEST PUSH1 0x40 MLOAD DUP1 SWAP2 SUB SWAP1 REVERT JUMPDEST PUSH32 0x0 PUSH20 0xFFFFFFFFFFFFFFFFFFFFFFFFFFFFFFFFFFFFFFFF AND DUP13 PUSH20 0xFFFFFFFFFFFFFFFFFFFFFFFFFFFFFFFFFFFFFFFF AND EQ DUP1 ISZERO PUSH2 0x160D JUMPI POP PUSH32 0x0 PUSH20 0xFFFFFFFFFFFFFFFFFFFFFFFFFFFFFFFFFFFFFFFF AND DUP12 PUSH20 0xFFFFFFFFFFFFFFFFFFFFFFFFFFFFFFFFFFFFFFFF AND EQ JUMPDEST DUP1 PUSH2 0x16BA JUMPI POP PUSH32 0x0 PUSH20 0xFFFFFFFFFFFFFFFFFFFFFFFFFFFFFFFFFFFFFFFF AND DUP13 PUSH20 0xFFFFFFFFFFFFFFFFFFFFFFFFFFFFFFFFFFFFFFFF AND EQ DUP1 ISZERO PUSH2 0x16B9 JUMPI POP PUSH32 0x0 PUSH20 0xFFFFFFFFFFFFFFFFFFFFFFFFFFFFFFFFFFFFFFFF AND DUP12 PUSH20 0xFFFFFFFFFFFFFFFFFFFFFFFFFFFFFFFFFFFFFFFF AND EQ JUMPDEST JUMPDEST PUSH2 0x16F9 JUMPI PUSH1 0x40 MLOAD PUSH32 0x8C379A000000000000000000000000000000000000000000000000000000000 DUP2 MSTORE PUSH1 0x4 ADD PUSH2 0x16F0 SWAP1 PUSH2 0x25DE JUMP JUMPDEST PUSH1 0x40 MLOAD DUP1 SWAP2 SUB SWAP1 REVERT JUMPDEST PUSH0 PUSH20 0xFFFFFFFFFFFFFFFFFFFFFFFFFFFFFFFFFFFFFFFF AND DUP7 PUSH20 0xFFFFFFFFFFFFFFFFFFFFFFFFFFFFFFFFFFFFFFFF AND SUB PUSH2 0x1767 JUMPI PUSH1 0x40 MLOAD PUSH32 0x8C379A000000000000000000000000000000000000000000000000000000000 DUP2 MSTORE PUSH1 0x4 ADD PUSH2 0x175E SWAP1 PUSH2 0x2549 JUMP JUMPDEST PUSH1 0x40 MLOAD DUP1 SWAP2 SUB SWAP1 REVERT JUMPDEST PUSH0 PUSH32 0x0 PUSH20 0xFFFFFFFFFFFFFFFFFFFFFFFFFFFFFFFFFFFFFFFF AND DUP14 PUSH20 0xFFFFFFFFFFFFFFFFFFFFFFFFFFFFFFFFFFFFFFFF AND EQ SWAP1 POP PUSH0 PUSH1 0x2 SLOAD SUB PUSH2 0x17CD JUMPI DUP11 SWAP5 POP DUP10 SWAP4 POP PUSH2 0x18D7 JUMP JUMPDEST PUSH0 DUP2 PUSH2 0x17DB JUMPI PUSH1 0x1 SLOAD PUSH2 0x17DE JUMP JUMPDEST PUSH0 SLOAD JUMPDEST SWAP1 POP PUSH0 DUP3 PUSH2 0x17ED JUMPI PUSH0 SLOAD PUSH2 0x17F1 JUMP JUMPDEST PUSH1 0x1 SLOAD JUMPDEST SWAP1 POP PUSH0 DUP3 DUP3 DUP16 PUSH2 0x1801 SWAP2 SWAP1 PUSH2 0x22F6 JUMP JUMPDEST PUSH2 0x180B SWAP2 SWAP1 PUSH2 0x2397 JUMP JUMPDEST SWAP1 POP DUP13 DUP2 GT PUSH2 0x1862 JUMPI DUP11 DUP2 LT ISZERO PUSH2 0x1857 JUMPI PUSH1 0x40 MLOAD PUSH32 0x8C379A000000000000000000000000000000000000000000000000000000000 DUP2 MSTORE PUSH1 0x4 ADD PUSH2 0x184E SWAP1 PUSH2 0x2A60 JUMP JUMPDEST PUSH1 0x40 MLOAD DUP1 SWAP2 SUB SWAP1 REVERT JUMPDEST DUP14 SWAP8 POP DUP1 SWAP7 POP PUSH2 0x18D3 JUMP JUMPDEST PUSH0 DUP3 DUP5 DUP16 PUSH2 0x1870 SWAP2 SWAP1 PUSH2 0x22F6 JUMP JUMPDEST PUSH2 0x187A SWAP2 SWAP1 PUSH2 0x2397 JUMP JUMPDEST SWAP1 POP DUP15 DUP2 GT ISZERO DUP1 ISZERO PUSH2 0x188C JUMPI POP DUP13 DUP2 LT ISZERO JUMPDEST PUSH2 0x18CB JUMPI PUSH1 0x40 MLOAD PUSH32 0x8C379A000000000000000000000000000000000000000000000000000000000 DUP2 MSTORE PUSH1 0x4 ADD PUSH2 0x18C2 SWAP1 PUSH2 0x29F8 JUMP JUMPDEST PUSH1 0x40 MLOAD DUP1 SWAP2 SUB SWAP1 REVERT JUMPDEST DUP1 SWAP9 POP DUP14 SWAP8 POP POP JUMPDEST POP POP POP JUMPDEST DUP13 PUSH20 0xFFFFFFFFFFFFFFFFFFFFFFFFFFFFFFFFFFFFFFFF AND PUSH4 0x23B872DD CALLER ADDRESS DUP9 PUSH1 0x40 MLOAD DUP5 PUSH4 0xFFFFFFFF AND PUSH1 0xE0 SHL DUP2 MSTORE PUSH1 0x4 ADD PUSH2 0x1914 SWAP4 SWAP3 SWAP2 SWAP1 PUSH2 0x2B81 JUMP JUMPDEST PUSH1 0x20 PUSH1 0x40 MLOAD DUP1 DUP4 SUB DUP2 PUSH0 DUP8 GAS CALL ISZERO DUP1 ISZERO PUSH2 0x1930 JUMPI RETURNDATASIZE PUSH0 PUSH0 RETURNDATACOPY RETURNDATASIZE PUSH0 REVERT JUMPDEST POP POP POP POP PUSH1 0x40 MLOAD RETURNDATASIZE PUSH1 0x1F NOT PUSH1 0x1F DUP3 ADD AND DUP3 ADD DUP1 PUSH1 0x40 MSTORE POP DUP2 ADD SWAP1 PUSH2 0x1954 SWAP2 SWAP1 PUSH2 0x2728 JUMP JUMPDEST PUSH2 0x1993 JUMPI PUSH1 0x40 MLOAD PUSH32 0x8C379A000000000000000000000000000000000000000000000000000000000 DUP2 MSTORE PUSH1 0x4 ADD PUSH2 0x198A SWAP1 PUSH2 0x2AFB JUMP JUMPDEST PUSH1 0x40 MLOAD DUP1 SWAP2 SUB SWAP1 REVERT JUMPDEST DUP12 PUSH20 0xFFFFFFFFFFFFFFFFFFFFFFFFFFFFFFFFFFFFFFFF AND PUSH4 0x23B872DD CALLER ADDRESS DUP8 PUSH1 0x40 MLOAD DUP5 PUSH4 0xFFFFFFFF AND PUSH1 0xE0 SHL DUP2 MSTORE PUSH1 0x4 ADD PUSH2 0x19D0 SWAP4 SWAP3 SWAP2 SWAP1 PUSH2 0x2B81 JUMP JUMPDEST PUSH1 0x20 PUSH1 0x40 MLOAD DUP1 DUP4 SUB DUP2 PUSH0 DUP8 GAS CALL ISZERO DUP1 ISZERO PUSH2 0x19EC JUMPI RETURNDATASIZE PUSH0 PUSH0 RETURNDATACOPY RETURNDATASIZE PUSH0 REVERT JUMPDEST POP POP POP POP PUSH1 0x40 MLOAD RETURNDATASIZE PUSH1 0x1F NOT PUSH1 0x1F DUP3 ADD AND DUP3 ADD DUP1 PUSH1 0x40 MSTORE POP DUP2 ADD SWAP1 PUSH2 0x1A10 SWAP2 SWAP1 PUSH2 0x2728 JUMP JUMPDEST PUSH2 0x1A4F JUMPI PUSH1 0x40 MLOAD PUSH32 0x8C379A000000000000000000000000000000000000000000000000000000000 DUP2 MSTORE PUSH1 0x4 ADD PUSH2 0x1A46 SWAP1 PUSH2 0x2B63 JUMP JUMPDEST PUSH1 0x40 MLOAD DUP1 SWAP2 SUB SWAP1 REVERT JUMPDEST PUSH0 PUSH1 0x2 SLOAD SUB PUSH2 0x1A73 JUMPI PUSH2 0x1A6C DUP5 DUP7 PUSH2 0x1A67 SWAP2 SWAP1 PUSH2 0x22F6 JUMP JUMPDEST PUSH2 0x1C40 JUMP JUMPDEST SWAP3 POP PUSH2 0x1AA3 JUMP JUMPDEST PUSH0 DUP2 PUSH2 0x1A81 JUMPI PUSH1 0x1 SLOAD PUSH2 0x1A84 JUMP JUMPDEST PUSH0 SLOAD JUMPDEST SWAP1 POP DUP1 PUSH1 0x2 SLOAD DUP8 PUSH2 0x1A95 SWAP2 SWAP1 PUSH2 0x22F6 JUMP JUMPDEST PUSH2 0x1A9F SWAP2 SWAP1 PUSH2 0x2397 JUMP JUMPDEST SWAP4 POP POP JUMPDEST PUSH0 DUP4 GT PUSH2 0x1AE5 JUMPI PUSH1 0x40 MLOAD PUSH32 0x8C379A000000000000000000000000000000000000000000000000000000000 DUP2 MSTORE PUSH1 0x4 ADD PUSH2 0x1ADC SWAP1 PUSH2 0x2C00 JUMP JUMPDEST PUSH1 0x40 MLOAD DUP1 SWAP2 SUB SWAP1 REVERT JUMPDEST DUP1 ISZERO PUSH2 0x1B1F JUMPI DUP5 PUSH0 PUSH0 DUP3 DUP3 SLOAD PUSH2 0x1AFB SWAP2 SWAP1 PUSH2 0x2337 JUMP JUMPDEST SWAP3 POP POP DUP2 SWAP1 SSTORE POP DUP4 PUSH1 0x1 PUSH0 DUP3 DUP3 SLOAD PUSH2 0x1B13 SWAP2 SWAP1 PUSH2 0x2337 JUMP JUMPDEST SWAP3 POP POP DUP2 SWAP1 SSTORE POP PUSH2 0x1B4F JUMP JUMPDEST DUP5 PUSH1 0x1 PUSH0 DUP3 DUP3 SLOAD PUSH2 0x1B30 SWAP2 SWAP1 PUSH2 0x2337 JUMP JUMPDEST SWAP3 POP POP DUP2 SWAP1 SSTORE POP DUP4 PUSH0 PUSH0 DUP3 DUP3 SLOAD PUSH2 0x1B47 SWAP2 SWAP1 PUSH2 0x2337 JUMP JUMPDEST SWAP3 POP POP DUP2 SWAP1 SSTORE POP JUMPDEST DUP3 PUSH1 0x2 PUSH0 DUP3 DUP3 SLOAD PUSH2 0x1B60 SWAP2 SWAP1 PUSH2 0x2337 JUMP JUMPDEST SWAP3 POP POP DUP2 SWAP1 SSTORE POP DUP3 PUSH1 0x3 PUSH0 DUP10 PUSH20 0xFFFFFFFFFFFFFFFFFFFFFFFFFFFFFFFFFFFFFFFF AND PUSH20 0xFFFFFFFFFFFFFFFFFFFFFFFFFFFFFFFFFFFFFFFF AND DUP2 MSTORE PUSH1 0x20 ADD SWAP1 DUP2 MSTORE PUSH1 0x20 ADD PUSH0 KECCAK256 PUSH0 DUP3 DUP3 SLOAD PUSH2 0x1BB3 SWAP2 SWAP1 PUSH2 0x2337 JUMP JUMPDEST SWAP3 POP POP DUP2 SWAP1 SSTORE POP DUP7 PUSH20 0xFFFFFFFFFFFFFFFFFFFFFFFFFFFFFFFFFFFFFFFF AND PUSH32 0x64B83944E79C3CE8D4C297411DE637C3E102D064677AAC0C163976EBDCD6F50E DUP7 DUP7 DUP7 PUSH1 0x40 MLOAD PUSH2 0x1C04 SWAP4 SWAP3 SWAP2 SWAP1 PUSH2 0x21B4 JUMP JUMPDEST PUSH1 0x40 MLOAD DUP1 SWAP2 SUB SWAP1 LOG2 POP POP SWAP9 POP SWAP9 POP SWAP9 SWAP6 POP POP POP POP POP POP JUMP JUMPDEST PUSH32 0x0 DUP2 JUMP JUMPDEST PUSH0 PUSH0 DUP3 SUB PUSH2 0x1C50 JUMPI PUSH0 SWAP1 POP PUSH2 0x1CA7 JUMP JUMPDEST PUSH0 PUSH1 0x2 PUSH1 0x1 DUP5 PUSH2 0x1C60 SWAP2 SWAP1 PUSH2 0x2337 JUMP JUMPDEST PUSH2 0x1C6A SWAP2 SWAP1 PUSH2 0x2397 JUMP JUMPDEST SWAP1 POP DUP3 SWAP2 POP JUMPDEST DUP2 DUP2 LT ISZERO PUSH2 0x1CA5 JUMPI DUP1 SWAP2 POP PUSH1 0x2 DUP2 DUP3 DUP6 PUSH2 0x1C8A SWAP2 SWAP1 PUSH2 0x2397 JUMP JUMPDEST PUSH2 0x1C94 SWAP2 SWAP1 PUSH2 0x2337 JUMP JUMPDEST PUSH2 0x1C9E SWAP2 SWAP1 PUSH2 0x2397 JUMP JUMPDEST SWAP1 POP PUSH2 0x1C70 JUMP JUMPDEST POP JUMPDEST SWAP2 SWAP1 POP JUMP JUMPDEST PUSH0 PUSH0 REVERT JUMPDEST PUSH0 PUSH0 REVERT JUMPDEST PUSH0 DUP2 SWAP1 POP SWAP2 SWAP1 POP JUMP JUMPDEST PUSH2 0x1CC6 DUP2 PUSH2 0x1CB4 JUMP JUMPDEST DUP2 EQ PUSH2 0x1CD0 JUMPI PUSH0 PUSH0 REVERT JUMPDEST POP JUMP JUMPDEST PUSH0 DUP2 CALLDATALOAD SWAP1 POP PUSH2 0x1CE1 DUP2 PUSH2 0x1CBD JUMP JUMPDEST SWAP3 SWAP2 POP POP JUMP JUMPDEST PUSH0 PUSH0 PUSH0 PUSH1 0x60 DUP5 DUP7 SUB SLT ISZERO PUSH2 0x1CFE JUMPI PUSH2 0x1CFD PUSH2 0x1CAC JUMP JUMPDEST JUMPDEST PUSH0 PUSH2 0x1D0B DUP7 DUP3 DUP8 ADD PUSH2 0x1CD3 JUMP JUMPDEST SWAP4 POP POP PUSH1 0x20 PUSH2 0x1D1C DUP7 DUP3 DUP8 ADD PUSH2 0x1CD3 JUMP JUMPDEST SWAP3 POP POP PUSH1 0x40 PUSH2 0x1D2D DUP7 DUP3 DUP8 ADD PUSH2 0x1CD3 JUMP JUMPDEST SWAP2 POP POP SWAP3 POP SWAP3 POP SWAP3 JUMP JUMPDEST PUSH2 0x1D40 DUP2 PUSH2 0x1CB4 JUMP JUMPDEST DUP3 MSTORE POP POP JUMP JUMPDEST PUSH0 PUSH1 0x20 DUP3 ADD SWAP1 POP PUSH2 0x1D59 PUSH0 DUP4 ADD DUP5 PUSH2 0x1D37 JUMP JUMPDEST SWAP3 SWAP2 POP POP JUMP JUMPDEST PUSH0 PUSH1 0x40 DUP3 ADD SWAP1 POP PUSH2 0x1D72 PUSH0 DUP4 ADD DUP6 PUSH2 0x1D37 JUMP JUMPDEST PUSH2 0x1D7F PUSH1 0x20 DUP4 ADD DUP5 PUSH2 0x1D37 JUMP JUMPDEST SWAP4 SWAP3 POP POP POP JUMP JUMPDEST PUSH0 PUSH0 REVERT JUMPDEST PUSH0 PUSH0 REVERT JUMPDEST PUSH0 PUSH0 REVERT JUMPDEST PUSH0 PUSH0 DUP4 PUSH1 0x1F DUP5 ADD SLT PUSH2 0x1DA7 JUMPI PUSH2 0x1DA6 PUSH2 0x1D86 JUMP JUMPDEST JUMPDEST DUP3 CALLDATALOAD SWAP1 POP PUSH8 0xFFFFFFFFFFFFFFFF DUP2 GT ISZERO PUSH2 0x1DC4 JUMPI PUSH2 0x1DC3 PUSH2 0x1D8A JUMP JUMPDEST JUMPDEST PUSH1 0x20 DUP4 ADD SWAP2 POP DUP4 PUSH1 0x20 DUP3 MUL DUP4 ADD GT ISZERO PUSH2 0x1DE0 JUMPI PUSH2 0x1DDF PUSH2 0x1D8E JUMP JUMPDEST JUMPDEST SWAP3 POP SWAP3 SWAP1 POP JUMP JUMPDEST PUSH0 PUSH20 0xFFFFFFFFFFFFFFFFFFFFFFFFFFFFFFFFFFFFFFFF DUP3 AND SWAP1 POP SWAP2 SWAP1 POP JUMP JUMPDEST PUSH0 PUSH2 0x1E10 DUP3 PUSH2 0x1DE7 JUMP JUMPDEST SWAP1 POP SWAP2 SWAP1 POP JUMP JUMPDEST PUSH2 0x1E20 DUP2 PUSH2 0x1E06 JUMP JUMPDEST DUP2 EQ PUSH2 0x1E2A JUMPI PUSH0 PUSH0 REVERT JUMPDEST POP JUMP JUMPDEST PUSH0 DUP2 CALLDATALOAD SWAP1 POP PUSH2 0x1E3B DUP2 PUSH2 0x1E17 JUMP JUMPDEST SWAP3 SWAP2 POP POP JUMP JUMPDEST PUSH0 PUSH0 PUSH0 PUSH0 PUSH0 PUSH0 PUSH1 0xA0 DUP8 DUP10 SUB SLT ISZERO PUSH2 0x1E5B JUMPI PUSH2 0x1E5A PUSH2 0x1CAC JUMP JUMPDEST JUMPDEST PUSH0 PUSH2 0x1E68 DUP10 DUP3 DUP11 ADD PUSH2 0x1CD3 JUMP JUMPDEST SWAP7 POP POP PUSH1 0x20 PUSH2 0x1E79 DUP10 DUP3 DUP11 ADD PUSH2 0x1CD3 JUMP JUMPDEST SWAP6 POP POP PUSH1 0x40 DUP8 ADD CALLDATALOAD PUSH8 0xFFFFFFFFFFFFFFFF DUP2 GT ISZERO PUSH2 0x1E9A JUMPI PUSH2 0x1E99 PUSH2 0x1CB0 JUMP JUMPDEST JUMPDEST PUSH2 0x1EA6 DUP10 DUP3 DUP11 ADD PUSH2 0x1D92 JUMP JUMPDEST SWAP5 POP SWAP5 POP POP PUSH1 0x60 PUSH2 0x1EB9 DUP10 DUP3 DUP11 ADD PUSH2 0x1E2D JUMP JUMPDEST SWAP3 POP POP PUSH1 0x80 PUSH2 0x1ECA DUP10 DUP3 DUP11 ADD PUSH2 0x1CD3 JUMP JUMPDEST SWAP2 POP POP SWAP3 SWAP6 POP SWAP3 SWAP6 POP SWAP3 SWAP6 JUMP JUMPDEST PUSH0 DUP2 MLOAD SWAP1 POP SWAP2 SWAP1 POP JUMP JUMPDEST PUSH0 DUP3 DUP3 MSTORE PUSH1 0x20 DUP3 ADD SWAP1 POP SWAP3 SWAP2 POP POP JUMP JUMPDEST PUSH0 DUP2 SWAP1 POP PUSH1 0x20 DUP3 ADD SWAP1 POP SWAP2 SWAP1 POP JUMP JUMPDEST PUSH2 0x1F09 DUP2 PUSH2 0x1CB4 JUMP JUMPDEST DUP3 MSTORE POP POP JUMP JUMPDEST PUSH0 PUSH2 0x1F1A DUP4 DUP4 PUSH2 0x1F00 JUMP JUMPDEST PUSH1 0x20 DUP4 ADD SWAP1 POP SWAP3 SWAP2 POP POP JUMP JUMPDEST PUSH0 PUSH1 0x20 DUP3 ADD SWAP1 POP SWAP2 SWAP1 POP JUMP JUMPDEST PUSH0 PUSH2 0x1F3C DUP3 PUSH2 0x1ED7 JUMP JUMPDEST PUSH2 0x1F46 DUP2 DUP6 PUSH2 0x1EE1 JUMP JUMPDEST SWAP4 POP PUSH2 0x1F51 DUP4 PUSH2 0x1EF1 JUMP JUMPDEST DUP1 PUSH0 JUMPDEST DUP4 DUP2 LT ISZERO PUSH2 0x1F81 JUMPI DUP2 MLOAD PUSH2 0x1F68 DUP9 DUP3 PUSH2 0x1F0F JUMP JUMPDEST SWAP8 POP PUSH2 0x1F73 DUP4 PUSH2 0x1F26 JUMP JUMPDEST SWAP3 POP POP PUSH1 0x1 DUP2 ADD SWAP1 POP PUSH2 0x1F54 JUMP JUMPDEST POP DUP6 SWAP4 POP POP POP POP SWAP3 SWAP2 POP POP JUMP JUMPDEST PUSH0 PUSH1 0x20 DUP3 ADD SWAP1 POP DUP2 DUP2 SUB PUSH0 DUP4 ADD MSTORE PUSH2 0x1FA6 DUP2 DUP5 PUSH2 0x1F32 JUMP JUMPDEST SWAP1 POP SWAP3 SWAP2 POP POP JUMP JUMPDEST PUSH2 0x1FB7 DUP2 PUSH2 0x1E06 JUMP JUMPDEST DUP3 MSTORE POP POP JUMP JUMPDEST PUSH0 PUSH1 0x20 DUP3 ADD SWAP1 POP PUSH2 0x1FD0 PUSH0 DUP4 ADD DUP5 PUSH2 0x1FAE JUMP JUMPDEST SWAP3 SWAP2 POP POP JUMP JUMPDEST PUSH0 PUSH1 0x20 DUP3 DUP5 SUB SLT ISZERO PUSH2 0x1FEB JUMPI PUSH2 0x1FEA PUSH2 0x1CAC JUMP JUMPDEST JUMPDEST PUSH0 PUSH2 0x1FF8 DUP5 DUP3 DUP6 ADD PUSH2 0x1E2D JUMP JUMPDEST SWAP2 POP POP SWAP3 SWAP2 POP POP JUMP JUMPDEST PUSH0 PUSH0 PUSH1 0x40 DUP4 DUP6 SUB SLT ISZERO PUSH2 0x2017 JUMPI PUSH2 0x2016 PUSH2 0x1CAC JUMP JUMPDEST JUMPDEST PUSH0 PUSH2 0x2024 DUP6 DUP3 DUP7 ADD PUSH2 0x1E2D JUMP JUMPDEST SWAP3 POP POP PUSH1 0x20 PUSH2 0x2035 DUP6 DUP3 DUP7 ADD PUSH2 0x1E2D JUMP JUMPDEST SWAP2 POP POP SWAP3 POP SWAP3 SWAP1 POP JUMP JUMPDEST PUSH0 PUSH0 PUSH0 PUSH0 PUSH0 PUSH0 PUSH0 PUSH1 0xE0 DUP9 DUP11 SUB SLT ISZERO PUSH2 0x205A JUMPI PUSH2 0x2059 PUSH2 0x1CAC JUMP JUMPDEST JUMPDEST PUSH0 PUSH2 0x2067 DUP11 DUP3 DUP12 ADD PUSH2 0x1E2D JUMP JUMPDEST SWAP8 POP POP PUSH1 0x20 PUSH2 0x2078 DUP11 DUP3 DUP12 ADD PUSH2 0x1E2D JUMP JUMPDEST SWAP7 POP POP PUSH1 0x40 PUSH2 0x2089 DUP11 DUP3 DUP12 ADD PUSH2 0x1CD3 JUMP JUMPDEST SWAP6 POP POP PUSH1 0x60 PUSH2 0x209A DUP11 DUP3 DUP12 ADD PUSH2 0x1CD3 JUMP JUMPDEST SWAP5 POP POP PUSH1 0x80 PUSH2 0x20AB DUP11 DUP3 DUP12 ADD PUSH2 0x1CD3 JUMP JUMPDEST SWAP4 POP POP PUSH1 0xA0 PUSH2 0x20BC DUP11 DUP3 DUP12 ADD PUSH2 0x1E2D JUMP JUMPDEST SWAP3 POP POP PUSH1 0xC0 PUSH2 0x20CD DUP11 DUP3 DUP12 ADD PUSH2 0x1CD3 JUMP JUMPDEST SWAP2 POP POP SWAP3 SWAP6 SWAP9 SWAP2 SWAP5 SWAP8 POP SWAP3 SWAP6 POP JUMP JUMPDEST PUSH0 PUSH1 0x40 DUP3 ADD SWAP1 POP PUSH2 0x20EF PUSH0 DUP4 ADD DUP6 PUSH2 0x1FAE JUMP JUMPDEST PUSH2 0x20FC PUSH1 0x20 DUP4 ADD DUP5 PUSH2 0x1FAE JUMP JUMPDEST SWAP4 SWAP3 POP POP POP JUMP JUMPDEST PUSH0 PUSH0 PUSH0 PUSH0 PUSH0 PUSH0 PUSH0 PUSH0 PUSH2 0x100 DUP10 DUP12 SUB SLT ISZERO PUSH2 0x2120 JUMPI PUSH2 0x211F PUSH2 0x1CAC JUMP JUMPDEST JUMPDEST PUSH0 PUSH2 0x212D DUP12 DUP3 DUP13 ADD PUSH2 0x1E2D JUMP JUMPDEST SWAP9 POP POP PUSH1 0x20 PUSH2 0x213E DUP12 DUP3 DUP13 ADD PUSH2 0x1E2D JUMP JUMPDEST SWAP8 POP POP PUSH1 0x40 PUSH2 0x214F DUP12 DUP3 DUP13 ADD PUSH2 0x1CD3 JUMP JUMPDEST SWAP7 POP POP PUSH1 0x60 PUSH2 0x2160 DUP12 DUP3 DUP13 ADD PUSH2 0x1CD3 JUMP JUMPDEST SWAP6 POP POP PUSH1 0x80 PUSH2 0x2171 DUP12 DUP3 DUP13 ADD PUSH2 0x1CD3 JUMP JUMPDEST SWAP5 POP POP PUSH1 0xA0 PUSH2 0x2182 DUP12 DUP3 DUP13 ADD PUSH2 0x1CD3 JUMP JUMPDEST SWAP4 POP POP PUSH1 0xC0 PUSH2 0x2193 DUP12 DUP3 DUP13 ADD PUSH2 0x1E2D JUMP JUMPDEST SWAP3 POP POP PUSH1 0xE0 PUSH2 0x21A4 DUP12 DUP3 DUP13 ADD PUSH2 0x1CD3 JUMP JUMPDEST SWAP2 POP POP SWAP3 SWAP6 SWAP9 POP SWAP3 SWAP6 SWAP9 SWAP1 SWAP4 SWAP7 POP JUMP JUMPDEST PUSH0 PUSH1 0x60 DUP3 ADD SWAP1 POP PUSH2 0x21C7 PUSH0 DUP4 ADD DUP7 PUSH2 0x1D37 JUMP JUMPDEST PUSH2 0x21D4 PUSH1 0x20 DUP4 ADD DUP6 PUSH2 0x1D37 JUMP JUMPDEST PUSH2 0x21E1 PUSH1 0x40 DUP4 ADD DUP5 PUSH2 0x1D37 JUMP JUMPDEST SWAP5 SWAP4 POP POP POP POP JUMP JUMPDEST PUSH0 DUP3 DUP3 MSTORE PUSH1 0x20 DUP3 ADD SWAP1 POP SWAP3 SWAP2 POP POP JUMP JUMPDEST PUSH32 0x496E73756666696369656E7420696E70757420616D6F756E7400000000000000 PUSH0 DUP3 ADD MSTORE POP JUMP JUMPDEST PUSH0 PUSH2 0x222D PUSH1 0x19 DUP4 PUSH2 0x21E9 JUMP JUMPDEST SWAP2 POP PUSH2 0x2238 DUP3 PUSH2 0x21F9 JUMP JUMPDEST PUSH1 0x20 DUP3 ADD SWAP1 POP SWAP2 SWAP1 POP JUMP JUMPDEST PUSH0 PUSH1 0x20 DUP3 ADD SWAP1 POP DUP2 DUP2 SUB PUSH0 DUP4 ADD MSTORE PUSH2 0x225A DUP2 PUSH2 0x2221 JUMP JUMPDEST SWAP1 POP SWAP2 SWAP1 POP JUMP JUMPDEST PUSH32 0x496E73756666696369656E74206C697175696469747900000000000000000000 PUSH0 DUP3 ADD MSTORE POP JUMP JUMPDEST PUSH0 PUSH2 0x2295 PUSH1 0x16 DUP4 PUSH2 0x21E9 JUMP JUMPDEST SWAP2 POP PUSH2 0x22A0 DUP3 PUSH2 0x2261 JUMP JUMPDEST PUSH1 0x20 DUP3 ADD SWAP1 POP SWAP2 SWAP1 POP JUMP JUMPDEST PUSH0 PUSH1 0x20 DUP3 ADD SWAP1 POP DUP2 DUP2 SUB PUSH0 DUP4 ADD MSTORE PUSH2 0x22C2 DUP2 PUSH2 0x2289 JUMP JUMPDEST SWAP1 POP SWAP2 SWAP1 POP JUMP JUMPDEST PUSH32 0x4E487B7100000000000000000000000000000000000000000000000000000000 PUSH0 MSTORE PUSH1 0x11 PUSH1 0x4 MSTORE PUSH1 0x24 PUSH0 REVERT JUMPDEST PUSH0 PUSH2 0x2300 DUP3 PUSH2 0x1CB4 JUMP JUMPDEST SWAP2 POP PUSH2 0x230B DUP4 PUSH2 0x1CB4 JUMP JUMPDEST SWAP3 POP DUP3 DUP3 MUL PUSH2 0x2319 DUP2 PUSH2 0x1CB4 JUMP JUMPDEST SWAP2 POP DUP3 DUP3 DIV DUP5 EQ DUP4 ISZERO OR PUSH2 0x2330 JUMPI PUSH2 0x232F PUSH2 0x22C9 JUMP JUMPDEST JUMPDEST POP SWAP3 SWAP2 POP POP JUMP JUMPDEST PUSH0 PUSH2 0x2341 DUP3 PUSH2 0x1CB4 JUMP JUMPDEST SWAP2 POP PUSH2 0x234C DUP4 PUSH2 0x1CB4 JUMP JUMPDEST SWAP3 POP DUP3 DUP3 ADD SWAP1 POP DUP1 DUP3 GT ISZERO PUSH2 0x2364 JUMPI PUSH2 0x2363 PUSH2 0x22C9 JUMP JUMPDEST JUMPDEST SWAP3 SWAP2 POP POP JUMP JUMPDEST PUSH32 0x4E487B7100000000000000000000000000000000000000000000000000000000 PUSH0 MSTORE PUSH1 0x12 PUSH1 0x4 MSTORE PUSH1 0x24 PUSH0 REVERT JUMPDEST PUSH0 PUSH2 0x23A1 DUP3 PUSH2 0x1CB4 JUMP JUMPDEST SWAP2 POP PUSH2 0x23AC DUP4 PUSH2 0x1CB4 JUMP JUMPDEST SWAP3 POP DUP3 PUSH2 0x23BC JUMPI PUSH2 0x23BB PUSH2 0x236A JUMP JUMPDEST JUMPDEST DUP3 DUP3 DIV SWAP1 POP SWAP3 SWAP2 POP POP JUMP JUMPDEST PUSH32 0x5472616E73616374696F6E206578706972656400000000000000000000000000 PUSH0 DUP3 ADD MSTORE POP JUMP JUMPDEST PUSH0 PUSH2 0x23FB PUSH1 0x13 DUP4 PUSH2 0x21E9 JUMP JUMPDEST SWAP2 POP PUSH2 0x2406 DUP3 PUSH2 0x23C7 JUMP JUMPDEST PUSH1 0x20 DUP3 ADD SWAP1 POP SWAP2 SWAP1 POP JUMP JUMPDEST PUSH0 PUSH1 0x20 DUP3 ADD SWAP1 POP DUP2 DUP2 SUB PUSH0 DUP4 ADD MSTORE PUSH2 0x2428 DUP2 PUSH2 0x23EF JUMP JUMPDEST SWAP1 POP SWAP2 SWAP1 POP JUMP JUMPDEST PUSH32 0x416D6F756E74206D7573742062652067726561746572207468616E207A65726F PUSH0 DUP3 ADD MSTORE POP JUMP JUMPDEST PUSH0 PUSH2 0x2463 PUSH1 0x20 DUP4 PUSH2 0x21E9 JUMP JUMPDEST SWAP2 POP PUSH2 0x246E DUP3 PUSH2 0x242F JUMP JUMPDEST PUSH1 0x20 DUP3 ADD SWAP1 POP SWAP2 SWAP1 POP JUMP JUMPDEST PUSH0 PUSH1 0x20 DUP3 ADD SWAP1 POP DUP2 DUP2 SUB PUSH0 DUP4 ADD MSTORE PUSH2 0x2490 DUP2 PUSH2 0x2457 JUMP JUMPDEST SWAP1 POP SWAP2 SWAP1 POP JUMP JUMPDEST PUSH32 0x496E76616C69642070617468206C656E67746800000000000000000000000000 PUSH0 DUP3 ADD MSTORE POP JUMP JUMPDEST PUSH0 PUSH2 0x24CB PUSH1 0x13 DUP4 PUSH2 0x21E9 JUMP JUMPDEST SWAP2 POP PUSH2 0x24D6 DUP3 PUSH2 0x2497 JUMP JUMPDEST PUSH1 0x20 DUP3 ADD SWAP1 POP SWAP2 SWAP1 POP JUMP JUMPDEST PUSH0 PUSH1 0x20 DUP3 ADD SWAP1 POP DUP2 DUP2 SUB PUSH0 DUP4 ADD MSTORE PUSH2 0x24F8 DUP2 PUSH2 0x24BF JUMP JUMPDEST SWAP1 POP SWAP2 SWAP1 POP JUMP JUMPDEST PUSH32 0x496E76616C696420726563697069656E74206164647265737300000000000000 PUSH0 DUP3 ADD MSTORE POP JUMP JUMPDEST PUSH0 PUSH2 0x2533 PUSH1 0x19 DUP4 PUSH2 0x21E9 JUMP JUMPDEST SWAP2 POP PUSH2 0x253E DUP3 PUSH2 0x24FF JUMP JUMPDEST PUSH1 0x20 DUP3 ADD SWAP1 POP SWAP2 SWAP1 POP JUMP JUMPDEST PUSH0 PUSH1 0x20 DUP3 ADD SWAP1 POP DUP2 DUP2 SUB PUSH0 DUP4 ADD MSTORE PUSH2 0x2560 DUP2 PUSH2 0x2527 JUMP JUMPDEST SWAP1 POP SWAP2 SWAP1 POP JUMP JUMPDEST PUSH32 0x4E487B7100000000000000000000000000000000000000000000000000000000 PUSH0 MSTORE PUSH1 0x32 PUSH1 0x4 MSTORE PUSH1 0x24 PUSH0 REVERT JUMPDEST PUSH32 0x496E76616C696420746F6B656E20706169720000000000000000000000000000 PUSH0 DUP3 ADD MSTORE POP JUMP JUMPDEST PUSH0 PUSH2 0x25C8 PUSH1 0x12 DUP4 PUSH2 0x21E9 JUMP JUMPDEST SWAP2 POP PUSH2 0x25D3 DUP3 PUSH2 0x2594 JUMP JUMPDEST PUSH1 0x20 DUP3 ADD SWAP1 POP SWAP2 SWAP1 POP JUMP JUMPDEST PUSH0 PUSH1 0x20 DUP3 ADD SWAP1 POP DUP2 DUP2 SUB PUSH0 DUP4 ADD MSTORE PUSH2 0x25F5 DUP2 PUSH2 0x25BC JUMP JUMPDEST SWAP1 POP SWAP2 SWAP1 POP JUMP JUMPDEST PUSH32 0x496E73756666696369656E74206F757470757420616D6F756E74000000000000 PUSH0 DUP3 ADD MSTORE POP JUMP JUMPDEST PUSH0 PUSH2 0x2630 PUSH1 0x1A DUP4 PUSH2 0x21E9 JUMP JUMPDEST SWAP2 POP PUSH2 0x263B DUP3 PUSH2 0x25FC JUMP JUMPDEST PUSH1 0x20 DUP3 ADD SWAP1 POP SWAP2 SWAP1 POP JUMP JUMPDEST PUSH0 PUSH1 0x20 DUP3 ADD SWAP1 POP DUP2 DUP2 SUB PUSH0 DUP4 ADD MSTORE PUSH2 0x265D DUP2 PUSH2 0x2624 JUMP JUMPDEST SWAP1 POP SWAP2 SWAP1 POP JUMP JUMPDEST PUSH32 0x496E73756666696369656E742072657365727665000000000000000000000000 PUSH0 DUP3 ADD MSTORE POP JUMP JUMPDEST PUSH0 PUSH2 0x2698 PUSH1 0x14 DUP4 PUSH2 0x21E9 JUMP JUMPDEST SWAP2 POP PUSH2 0x26A3 DUP3 PUSH2 0x2664 JUMP JUMPDEST PUSH1 0x20 DUP3 ADD SWAP1 POP SWAP2 SWAP1 POP JUMP JUMPDEST PUSH0 PUSH1 0x20 DUP3 ADD SWAP1 POP DUP2 DUP2 SUB PUSH0 DUP4 ADD MSTORE PUSH2 0x26C5 DUP2 PUSH2 0x268C JUMP JUMPDEST SWAP1 POP SWAP2 SWAP1 POP JUMP JUMPDEST PUSH0 PUSH1 0x40 DUP3 ADD SWAP1 POP PUSH2 0x26DF PUSH0 DUP4 ADD DUP6 PUSH2 0x1FAE JUMP JUMPDEST PUSH2 0x26EC PUSH1 0x20 DUP4 ADD DUP5 PUSH2 0x1D37 JUMP JUMPDEST SWAP4 SWAP3 POP POP POP JUMP JUMPDEST PUSH0 DUP2 ISZERO ISZERO SWAP1 POP SWAP2 SWAP1 POP JUMP JUMPDEST PUSH2 0x2707 DUP2 PUSH2 0x26F3 JUMP JUMPDEST DUP2 EQ PUSH2 0x2711 JUMPI PUSH0 PUSH0 REVERT JUMPDEST POP JUMP JUMPDEST PUSH0 DUP2 MLOAD SWAP1 POP PUSH2 0x2722 DUP2 PUSH2 0x26FE JUMP JUMPDEST SWAP3 SWAP2 POP POP JUMP JUMPDEST PUSH0 PUSH1 0x20 DUP3 DUP5 SUB SLT ISZERO PUSH2 0x273D JUMPI PUSH2 0x273C PUSH2 0x1CAC JUMP JUMPDEST JUMPDEST PUSH0 PUSH2 0x274A DUP5 DUP3 DUP6 ADD PUSH2 0x2714 JUMP JUMPDEST SWAP2 POP POP SWAP3 SWAP2 POP POP JUMP JUMPDEST PUSH32 0x4F757470757420746F6B656E207472616E73666572206661696C656400000000 PUSH0 DUP3 ADD MSTORE POP JUMP JUMPDEST PUSH0 PUSH2 0x2787 PUSH1 0x1C DUP4 PUSH2 0x21E9 JUMP JUMPDEST SWAP2 POP PUSH2 0x2792 DUP3 PUSH2 0x2753 JUMP JUMPDEST PUSH1 0x20 DUP3 ADD SWAP1 POP SWAP2 SWAP1 POP JUMP JUMPDEST PUSH0 PUSH1 0x20 DUP3 ADD SWAP1 POP DUP2 DUP2 SUB PUSH0 DUP4 ADD MSTORE PUSH2 0x27B4 DUP2 PUSH2 0x277B JUMP JUMPDEST SWAP1 POP SWAP2 SWAP1 POP JUMP JUMPDEST PUSH32 0x4E487B7100000000000000000000000000000000000000000000000000000000 PUSH0 MSTORE PUSH1 0x41 PUSH1 0x4 MSTORE PUSH1 0x24 PUSH0 REVERT JUMPDEST PUSH32 0x4E6F206C697175696469747920666F7220746F6B656E41000000000000000000 PUSH0 DUP3 ADD MSTORE POP JUMP JUMPDEST PUSH0 PUSH2 0x281C PUSH1 0x17 DUP4 PUSH2 0x21E9 JUMP JUMPDEST SWAP2 POP PUSH2 0x2827 DUP3 PUSH2 0x27E8 JUMP JUMPDEST PUSH1 0x20 DUP3 ADD SWAP1 POP SWAP2 SWAP1 POP JUMP JUMPDEST PUSH0 PUSH1 0x20 DUP3 ADD SWAP1 POP DUP2 DUP2 SUB PUSH0 DUP4 ADD MSTORE PUSH2 0x2849 DUP2 PUSH2 0x2810 JUMP JUMPDEST SWAP1 POP SWAP2 SWAP1 POP JUMP JUMPDEST PUSH32 0x4C6971756964697479206D7573742062652067726561746572207468616E207A PUSH0 DUP3 ADD MSTORE PUSH32 0x65726F0000000000000000000000000000000000000000000000000000000000 PUSH1 0x20 DUP3 ADD MSTORE POP JUMP JUMPDEST PUSH0 PUSH2 0x28AA PUSH1 0x23 DUP4 PUSH2 0x21E9 JUMP JUMPDEST SWAP2 POP PUSH2 0x28B5 DUP3 PUSH2 0x2850 JUMP JUMPDEST PUSH1 0x40 DUP3 ADD SWAP1 POP SWAP2 SWAP1 POP JUMP JUMPDEST PUSH0 PUSH1 0x20 DUP3 ADD SWAP1 POP DUP2 DUP2 SUB PUSH0 DUP4 ADD MSTORE PUSH2 0x28D7 DUP2 PUSH2 0x289E JUMP JUMPDEST SWAP1 POP SWAP2 SWAP1 POP JUMP JUMPDEST PUSH32 0x496E73756666696369656E74206C697175696469747920736861726573000000 PUSH0 DUP3 ADD MSTORE POP JUMP JUMPDEST PUSH0 PUSH2 0x2912 PUSH1 0x1D DUP4 PUSH2 0x21E9 JUMP JUMPDEST SWAP2 POP PUSH2 0x291D DUP3 PUSH2 0x28DE JUMP JUMPDEST PUSH1 0x20 DUP3 ADD SWAP1 POP SWAP2 SWAP1 POP JUMP JUMPDEST PUSH0 PUSH1 0x20 DUP3 ADD SWAP1 POP DUP2 DUP2 SUB PUSH0 DUP4 ADD MSTORE PUSH2 0x293F DUP2 PUSH2 0x2906 JUMP JUMPDEST SWAP1 POP SWAP2 SWAP1 POP JUMP JUMPDEST PUSH32 0x4E6F206C697175696469747920696E20706F6F6C000000000000000000000000 PUSH0 DUP3 ADD MSTORE POP JUMP JUMPDEST PUSH0 PUSH2 0x297A PUSH1 0x14 DUP4 PUSH2 0x21E9 JUMP JUMPDEST SWAP2 POP PUSH2 0x2985 DUP3 PUSH2 0x2946 JUMP JUMPDEST PUSH1 0x20 DUP3 ADD SWAP1 POP SWAP2 SWAP1 POP JUMP JUMPDEST PUSH0 PUSH1 0x20 DUP3 ADD SWAP1 POP DUP2 DUP2 SUB PUSH0 DUP4 ADD MSTORE PUSH2 0x29A7 DUP2 PUSH2 0x296E JUMP JUMPDEST SWAP1 POP SWAP2 SWAP1 POP JUMP JUMPDEST PUSH32 0x496E73756666696369656E74204120616D6F756E740000000000000000000000 PUSH0 DUP3 ADD MSTORE POP JUMP JUMPDEST PUSH0 PUSH2 0x29E2 PUSH1 0x15 DUP4 PUSH2 0x21E9 JUMP JUMPDEST SWAP2 POP PUSH2 0x29ED DUP3 PUSH2 0x29AE JUMP JUMPDEST PUSH1 0x20 DUP3 ADD SWAP1 POP SWAP2 SWAP1 POP JUMP JUMPDEST PUSH0 PUSH1 0x20 DUP3 ADD SWAP1 POP DUP2 DUP2 SUB PUSH0 DUP4 ADD MSTORE PUSH2 0x2A0F DUP2 PUSH2 0x29D6 JUMP JUMPDEST SWAP1 POP SWAP2 SWAP1 POP JUMP JUMPDEST PUSH32 0x496E73756666696369656E74204220616D6F756E740000000000000000000000 PUSH0 DUP3 ADD MSTORE POP JUMP JUMPDEST PUSH0 PUSH2 0x2A4A PUSH1 0x15 DUP4 PUSH2 0x21E9 JUMP JUMPDEST SWAP2 POP PUSH2 0x2A55 DUP3 PUSH2 0x2A16 JUMP JUMPDEST PUSH1 0x20 DUP3 ADD SWAP1 POP SWAP2 SWAP1 POP JUMP JUMPDEST PUSH0 PUSH1 0x20 DUP3 ADD SWAP1 POP DUP2 DUP2 SUB PUSH0 DUP4 ADD MSTORE PUSH2 0x2A77 DUP2 PUSH2 0x2A3E JUMP JUMPDEST SWAP1 POP SWAP2 SWAP1 POP JUMP JUMPDEST PUSH0 PUSH2 0x2A88 DUP3 PUSH2 0x1CB4 JUMP JUMPDEST SWAP2 POP PUSH2 0x2A93 DUP4 PUSH2 0x1CB4 JUMP JUMPDEST SWAP3 POP DUP3 DUP3 SUB SWAP1 POP DUP2 DUP2 GT ISZERO PUSH2 0x2AAB JUMPI PUSH2 0x2AAA PUSH2 0x22C9 JUMP JUMPDEST JUMPDEST SWAP3 SWAP2 POP POP JUMP JUMPDEST PUSH32 0x546F6B656E41207472616E73666572206661696C656400000000000000000000 PUSH0 DUP3 ADD MSTORE POP JUMP JUMPDEST PUSH0 PUSH2 0x2AE5 PUSH1 0x16 DUP4 PUSH2 0x21E9 JUMP JUMPDEST SWAP2 POP PUSH2 0x2AF0 DUP3 PUSH2 0x2AB1 JUMP JUMPDEST PUSH1 0x20 DUP3 ADD SWAP1 POP SWAP2 SWAP1 POP JUMP JUMPDEST PUSH0 PUSH1 0x20 DUP3 ADD SWAP1 POP DUP2 DUP2 SUB PUSH0 DUP4 ADD MSTORE PUSH2 0x2B12 DUP2 PUSH2 0x2AD9 JUMP JUMPDEST SWAP1 POP SWAP2 SWAP1 POP JUMP JUMPDEST PUSH32 0x546F6B656E42207472616E73666572206661696C656400000000000000000000 PUSH0 DUP3 ADD MSTORE POP JUMP JUMPDEST PUSH0 PUSH2 0x2B4D PUSH1 0x16 DUP4 PUSH2 0x21E9 JUMP JUMPDEST SWAP2 POP PUSH2 0x2B58 DUP3 PUSH2 0x2B19 JUMP JUMPDEST PUSH1 0x20 DUP3 ADD SWAP1 POP SWAP2 SWAP1 POP JUMP JUMPDEST PUSH0 PUSH1 0x20 DUP3 ADD SWAP1 POP DUP2 DUP2 SUB PUSH0 DUP4 ADD MSTORE PUSH2 0x2B7A DUP2 PUSH2 0x2B41 JUMP JUMPDEST SWAP1 POP SWAP2 SWAP1 POP JUMP JUMPDEST PUSH0 PUSH1 0x60 DUP3 ADD SWAP1 POP PUSH2 0x2B94 PUSH0 DUP4 ADD DUP7 PUSH2 0x1FAE JUMP JUMPDEST PUSH2 0x2BA1 PUSH1 0x20 DUP4 ADD DUP6 PUSH2 0x1FAE JUMP JUMPDEST PUSH2 0x2BAE PUSH1 0x40 DUP4 ADD DUP5 PUSH2 0x1D37 JUMP JUMPDEST SWAP5 SWAP4 POP POP POP POP JUMP JUMPDEST PUSH32 0x496E73756666696369656E74206C6971756964697479206D696E746564000000 PUSH0 DUP3 ADD MSTORE POP JUMP JUMPDEST PUSH0 PUSH2 0x2BEA PUSH1 0x1D DUP4 PUSH2 0x21E9 JUMP JUMPDEST SWAP2 POP PUSH2 0x2BF5 DUP3 PUSH2 0x2BB6 JUMP JUMPDEST PUSH1 0x20 DUP3 ADD SWAP1 POP SWAP2 SWAP1 POP JUMP JUMPDEST PUSH0 PUSH1 0x20 DUP3 ADD SWAP1 POP DUP2 DUP2 SUB PUSH0 DUP4 ADD MSTORE PUSH2 0x2C17 DUP2 PUSH2 0x2BDE JUMP JUMPDEST SWAP1 POP SWAP2 SWAP1 POP JUMP INVALID LOG2 PUSH5 0x6970667358 0x22 SLT KECCAK256 DUPN 0x39 PUSH18 0xB086E01B6206E1C82EA345CBF6041BFFB6BF TIMESTAMP PUSH13 0xC7E0AE389717592F964736F6C PUSH4 0x4300081E STOP CALLER "
				},
				"gasEstimates": {
					"creation": {
						"codeDepositCost": "2269600",
						"executionCost": "infinite",
						"totalCost": "infinite"
					},
					"external": {
						"addLiquidity(address,address,uint256,uint256,uint256,uint256,address,uint256)": "infinite",
						"getAmountOut(uint256,uint256,uint256)": "infinite",
						"getLiquidityShares(address)": "2851",
						"getPrice(address,address)": "infinite",
						"getReserves()": "infinite",
						"getTokenPair()": "infinite",
						"getTotalLiquidity()": "2477",
						"liquidityShares(address)": "2825",
						"removeLiquidity(address,address,uint256,uint256,uint256,address,uint256)": "infinite",
						"reserveEKA()": "2469",
						"reserveEKB()": "2448",
						"swapExactTokensForTokens(uint256,uint256,address[],address,uint256)": "infinite",
						"tokenEKA()": "infinite",
						"tokenEKB()": "infinite",
						"totalLiquidity()": "2493"
					},
					"internal": {
						"sqrt(uint256)": "infinite"
					}
				},
				"methodIdentifiers": {
					"addLiquidity(address,address,uint256,uint256,uint256,uint256,address,uint256)": "e8e33700",
					"getAmountOut(uint256,uint256,uint256)": "054d50d4",
					"getLiquidityShares(address)": "c8c0526e",
					"getPrice(address,address)": "ac41865a",
					"getReserves()": "0902f1ac",
					"getTokenPair()": "cbbc94cf",
					"getTotalLiquidity()": "35c7e925",
					"liquidityShares(address)": "9db4aa04",
					"removeLiquidity(address,address,uint256,uint256,uint256,address,uint256)": "baa2abde",
					"reserveEKA()": "a1fc22b1",
					"reserveEKB()": "25b5e468",
					"swapExactTokensForTokens(uint256,uint256,address[],address,uint256)": "38ed1739",
					"tokenEKA()": "ef1b1591",
					"tokenEKB()": "4c82ab63",
					"totalLiquidity()": "15770f92"
				}
			},
			"storageLayout": {
				"storage": [
					{
						"astId": 75,
						"contract": "SimpleSwap.sol:SimpleSwap",
						"label": "reserveEKA",
						"offset": 0,
						"slot": "0",
						"type": "t_uint256"
					},
					{
						"astId": 77,
						"contract": "SimpleSwap.sol:SimpleSwap",
						"label": "reserveEKB",
						"offset": 0,
						"slot": "1",
						"type": "t_uint256"
					},
					{
						"astId": 79,
						"contract": "SimpleSwap.sol:SimpleSwap",
						"label": "totalLiquidity",
						"offset": 0,
						"slot": "2",
						"type": "t_uint256"
					},
					{
						"astId": 83,
						"contract": "SimpleSwap.sol:SimpleSwap",
						"label": "liquidityShares",
						"offset": 0,
						"slot": "3",
						"type": "t_mapping(t_address,t_uint256)"
					}
				],
				"types": {
					"t_address": {
						"encoding": "inplace",
						"label": "address",
						"numberOfBytes": "20"
					},
					"t_mapping(t_address,t_uint256)": {
						"encoding": "mapping",
						"key": "t_address",
						"label": "mapping(address => uint256)",
						"numberOfBytes": "32",
						"value": "t_uint256"
					},
					"t_uint256": {
						"encoding": "inplace",
						"label": "uint256",
						"numberOfBytes": "32"
					}
				}
			},
			"userdoc": {
				"kind": "user",
				"methods": {},
				"version": 1
			}
		}
	}
}