{
	"SimpleSwap.sol": {
		"SimpleSwap": {
			"abi": [
				{
					"inputs": [
						{
							"internalType": "address",
							"name": "_tokenEKA",
							"type": "address"
						},
						{
							"internalType": "address",
							"name": "_tokenEKB",
							"type": "address"
						}
					],
					"stateMutability": "nonpayable",
					"type": "constructor"
				},
				{
					"anonymous": false,
					"inputs": [
						{
							"indexed": true,
							"internalType": "address",
							"name": "provider",
							"type": "address"
						},
						{
							"indexed": false,
							"internalType": "uint256",
							"name": "amountA",
							"type": "uint256"
						},
						{
							"indexed": false,
							"internalType": "uint256",
							"name": "amountB",
							"type": "uint256"
						},
						{
							"indexed": false,
							"internalType": "uint256",
							"name": "liquidity",
							"type": "uint256"
						}
					],
					"name": "LiquidityAdded",
					"type": "event"
				},
				{
					"anonymous": false,
					"inputs": [
						{
							"indexed": true,
							"internalType": "address",
							"name": "provider",
							"type": "address"
						},
						{
							"indexed": false,
							"internalType": "uint256",
							"name": "amountA",
							"type": "uint256"
						},
						{
							"indexed": false,
							"internalType": "uint256",
							"name": "amountB",
							"type": "uint256"
						},
						{
							"indexed": false,
							"internalType": "uint256",
							"name": "liquidity",
							"type": "uint256"
						}
					],
					"name": "LiquidityRemoved",
					"type": "event"
				},
				{
					"anonymous": false,
					"inputs": [
						{
							"indexed": true,
							"internalType": "address",
							"name": "user",
							"type": "address"
						},
						{
							"indexed": true,
							"internalType": "address",
							"name": "tokenIn",
							"type": "address"
						},
						{
							"indexed": true,
							"internalType": "address",
							"name": "tokenOut",
							"type": "address"
						},
						{
							"indexed": false,
							"internalType": "uint256",
							"name": "amountIn",
							"type": "uint256"
						},
						{
							"indexed": false,
							"internalType": "uint256",
							"name": "amountOut",
							"type": "uint256"
						}
					],
					"name": "TokensSwapped",
					"type": "event"
				},
				{
					"inputs": [
						{
							"internalType": "address",
							"name": "tokenA",
							"type": "address"
						},
						{
							"internalType": "address",
							"name": "tokenB",
							"type": "address"
						},
						{
							"internalType": "uint256",
							"name": "amountADesired",
							"type": "uint256"
						},
						{
							"internalType": "uint256",
							"name": "amountBDesired",
							"type": "uint256"
						},
						{
							"internalType": "uint256",
							"name": "amountAMin",
							"type": "uint256"
						},
						{
							"internalType": "uint256",
							"name": "amountBMin",
							"type": "uint256"
						},
						{
							"internalType": "address",
							"name": "to",
							"type": "address"
						},
						{
							"internalType": "uint256",
							"name": "deadline",
							"type": "uint256"
						}
					],
					"name": "addLiquidity",
					"outputs": [
						{
							"internalType": "uint256",
							"name": "amountA",
							"type": "uint256"
						},
						{
							"internalType": "uint256",
							"name": "amountB",
							"type": "uint256"
						},
						{
							"internalType": "uint256",
							"name": "liquidity",
							"type": "uint256"
						}
					],
					"stateMutability": "nonpayable",
					"type": "function"
				},
				{
					"inputs": [
						{
							"internalType": "uint256",
							"name": "amountIn",
							"type": "uint256"
						},
						{
							"internalType": "uint256",
							"name": "reserveIn",
							"type": "uint256"
						},
						{
							"internalType": "uint256",
							"name": "reserveOut",
							"type": "uint256"
						}
					],
					"name": "getAmountOut",
					"outputs": [
						{
							"internalType": "uint256",
							"name": "amountOut",
							"type": "uint256"
						}
					],
					"stateMutability": "pure",
					"type": "function"
				},
				{
					"inputs": [
						{
							"internalType": "address",
							"name": "user",
							"type": "address"
						}
					],
					"name": "getLiquidityShares",
					"outputs": [
						{
							"internalType": "uint256",
							"name": "shares",
							"type": "uint256"
						}
					],
					"stateMutability": "view",
					"type": "function"
				},
				{
					"inputs": [
						{
							"internalType": "address",
							"name": "tokenA",
							"type": "address"
						},
						{
							"internalType": "address",
							"name": "tokenB",
							"type": "address"
						}
					],
					"name": "getPrice",
					"outputs": [
						{
							"internalType": "uint256",
							"name": "price",
							"type": "uint256"
						}
					],
					"stateMutability": "view",
					"type": "function"
				},
				{
					"inputs": [],
					"name": "getReserves",
					"outputs": [
						{
							"internalType": "uint256",
							"name": "reserveEKA",
							"type": "uint256"
						},
						{
							"internalType": "uint256",
							"name": "reserveEKB",
							"type": "uint256"
						}
					],
					"stateMutability": "view",
					"type": "function"
				},
				{
					"inputs": [],
					"name": "getSupportedTokens",
					"outputs": [
						{
							"internalType": "address",
							"name": "tokenA",
							"type": "address"
						},
						{
							"internalType": "address",
							"name": "tokenB",
							"type": "address"
						}
					],
					"stateMutability": "view",
					"type": "function"
				},
				{
					"inputs": [],
					"name": "getTotalLiquidity",
					"outputs": [
						{
							"internalType": "uint256",
							"name": "total",
							"type": "uint256"
						}
					],
					"stateMutability": "view",
					"type": "function"
				},
				{
					"inputs": [
						{
							"internalType": "address",
							"name": "",
							"type": "address"
						}
					],
					"name": "liquidityShares",
					"outputs": [
						{
							"internalType": "uint256",
							"name": "",
							"type": "uint256"
						}
					],
					"stateMutability": "view",
					"type": "function"
				},
				{
					"inputs": [
						{
							"internalType": "address",
							"name": "tokenA",
							"type": "address"
						},
						{
							"internalType": "address",
							"name": "tokenB",
							"type": "address"
						},
						{
							"internalType": "uint256",
							"name": "liquidity",
							"type": "uint256"
						},
						{
							"internalType": "uint256",
							"name": "amountAMin",
							"type": "uint256"
						},
						{
							"internalType": "uint256",
							"name": "amountBMin",
							"type": "uint256"
						},
						{
							"internalType": "address",
							"name": "to",
							"type": "address"
						},
						{
							"internalType": "uint256",
							"name": "deadline",
							"type": "uint256"
						}
					],
					"name": "removeLiquidity",
					"outputs": [
						{
							"internalType": "uint256",
							"name": "amountA",
							"type": "uint256"
						},
						{
							"internalType": "uint256",
							"name": "amountB",
							"type": "uint256"
						}
					],
					"stateMutability": "nonpayable",
					"type": "function"
				},
				{
					"inputs": [
						{
							"internalType": "uint256",
							"name": "amountIn",
							"type": "uint256"
						},
						{
							"internalType": "uint256",
							"name": "amountOutMin",
							"type": "uint256"
						},
						{
							"internalType": "address[]",
							"name": "path",
							"type": "address[]"
						},
						{
							"internalType": "address",
							"name": "to",
							"type": "address"
						},
						{
							"internalType": "uint256",
							"name": "deadline",
							"type": "uint256"
						}
					],
					"name": "swapExactTokensForTokens",
					"outputs": [
						{
							"internalType": "uint256[]",
							"name": "amounts",
							"type": "uint256[]"
						}
					],
					"stateMutability": "nonpayable",
					"type": "function"
				},
				{
					"inputs": [],
					"name": "tokenEKA",
					"outputs": [
						{
							"internalType": "address",
							"name": "",
							"type": "address"
						}
					],
					"stateMutability": "view",
					"type": "function"
				},
				{
					"inputs": [],
					"name": "tokenEKB",
					"outputs": [
						{
							"internalType": "address",
							"name": "",
							"type": "address"
						}
					],
					"stateMutability": "view",
					"type": "function"
				},
				{
					"inputs": [],
					"name": "totalLiquidity",
					"outputs": [
						{
							"internalType": "uint256",
							"name": "",
							"type": "uint256"
						}
					],
					"stateMutability": "view",
					"type": "function"
				}
			],
			"devdoc": {
				"kind": "dev",
				"methods": {},
				"version": 1
			},
			"evm": {
				"assembly": "    /* \"SimpleSwap.sol\":61:9381  contract SimpleSwap {... */\n  mstore(0x40, 0x80)\n    /* \"SimpleSwap.sol\":605:963  constructor(address _tokenEKA, address _tokenEKB) {... */\n  callvalue\n  dup1\n  iszero\n  tag_1\n  jumpi\n  revert(0x00, 0x00)\ntag_1:\n  pop\n  mload(0x40)\n  sub(codesize, bytecodeSize)\n  dup1\n  bytecodeSize\n  dup4\n  codecopy\n  dup2\n  dup2\n  add\n  0x40\n  mstore\n  dup2\n  add\n  swap1\n  tag_2\n  swap2\n  swap1\n  tag_3\n  jump\t// in\ntag_2:\n    /* \"SimpleSwap.sol\":695:696  0 */\n  0x00\n    /* \"SimpleSwap.sol\":674:697  _tokenEKA != address(0) */\n  0xffffffffffffffffffffffffffffffffffffffff\n  and\n    /* \"SimpleSwap.sol\":674:683  _tokenEKA */\n  dup3\n    /* \"SimpleSwap.sol\":674:697  _tokenEKA != address(0) */\n  0xffffffffffffffffffffffffffffffffffffffff\n  and\n  sub\n    /* \"SimpleSwap.sol\":666:718  require(_tokenEKA != address(0), \"Invalid tokenEKA\") */\n  tag_6\n  jumpi\n  mload(0x40)\n  0x08c379a000000000000000000000000000000000000000000000000000000000\n  dup2\n  mstore\n  0x04\n  add\n  tag_7\n  swap1\n  tag_8\n  jump\t// in\ntag_7:\n  mload(0x40)\n  dup1\n  swap2\n  sub\n  swap1\n  revert\ntag_6:\n    /* \"SimpleSwap.sol\":758:759  0 */\n  0x00\n    /* \"SimpleSwap.sol\":737:760  _tokenEKB != address(0) */\n  0xffffffffffffffffffffffffffffffffffffffff\n  and\n    /* \"SimpleSwap.sol\":737:746  _tokenEKB */\n  dup2\n    /* \"SimpleSwap.sol\":737:760  _tokenEKB != address(0) */\n  0xffffffffffffffffffffffffffffffffffffffff\n  and\n  sub\n    /* \"SimpleSwap.sol\":729:781  require(_tokenEKB != address(0), \"Invalid tokenEKB\") */\n  tag_9\n  jumpi\n  mload(0x40)\n  0x08c379a000000000000000000000000000000000000000000000000000000000\n  dup2\n  mstore\n  0x04\n  add\n  tag_10\n  swap1\n  tag_11\n  jump\t// in\ntag_10:\n  mload(0x40)\n  dup1\n  swap2\n  sub\n  swap1\n  revert\ntag_9:\n    /* \"SimpleSwap.sol\":813:822  _tokenEKB */\n  dup1\n    /* \"SimpleSwap.sol\":800:822  _tokenEKA != _tokenEKB */\n  0xffffffffffffffffffffffffffffffffffffffff\n  and\n    /* \"SimpleSwap.sol\":800:809  _tokenEKA */\n  dup3\n    /* \"SimpleSwap.sol\":800:822  _tokenEKA != _tokenEKB */\n  0xffffffffffffffffffffffffffffffffffffffff\n  and\n  sub\n    /* \"SimpleSwap.sol\":792:851  require(_tokenEKA != _tokenEKB, \"Tokens must be different\") */\n  tag_12\n  jumpi\n  mload(0x40)\n  0x08c379a000000000000000000000000000000000000000000000000000000000\n  dup2\n  mstore\n  0x04\n  add\n  tag_13\n  swap1\n  tag_14\n  jump\t// in\ntag_13:\n  mload(0x40)\n  dup1\n  swap2\n  sub\n  swap1\n  revert\ntag_12:\n    /* \"SimpleSwap.sol\":883:892  _tokenEKA */\n  dup2\n    /* \"SimpleSwap.sol\":872:880  tokenEKA */\n  0x00\n  0x00\n    /* \"SimpleSwap.sol\":872:892  tokenEKA = _tokenEKA */\n  0x0100\n  exp\n  dup2\n  sload\n  dup2\n  0xffffffffffffffffffffffffffffffffffffffff\n  mul\n  not\n  and\n  swap1\n  dup4\n  0xffffffffffffffffffffffffffffffffffffffff\n  and\n  mul\n  or\n  swap1\n  sstore\n  pop\n    /* \"SimpleSwap.sol\":914:923  _tokenEKB */\n  dup1\n    /* \"SimpleSwap.sol\":903:911  tokenEKB */\n  0x01\n  0x00\n    /* \"SimpleSwap.sol\":903:923  tokenEKB = _tokenEKB */\n  0x0100\n  exp\n  dup2\n  sload\n  dup2\n  0xffffffffffffffffffffffffffffffffffffffff\n  mul\n  not\n  and\n  swap1\n  dup4\n  0xffffffffffffffffffffffffffffffffffffffff\n  and\n  mul\n  or\n  swap1\n  sstore\n  pop\n    /* \"SimpleSwap.sol\":951:955  1000 */\n  0x03e8\n    /* \"SimpleSwap.sol\":934:948  totalLiquidity */\n  0x02\n    /* \"SimpleSwap.sol\":934:955  totalLiquidity = 1000 */\n  dup2\n  swap1\n  sstore\n  pop\n    /* \"SimpleSwap.sol\":605:963  constructor(address _tokenEKA, address _tokenEKB) {... */\n  pop\n  pop\n    /* \"SimpleSwap.sol\":61:9381  contract SimpleSwap {... */\n  jump(tag_15)\n    /* \"#utility.yul\":88:205   */\ntag_17:\n    /* \"#utility.yul\":197:198   */\n  0x00\n    /* \"#utility.yul\":194:195   */\n  0x00\n    /* \"#utility.yul\":187:199   */\n  revert\n    /* \"#utility.yul\":334:460   */\ntag_19:\n    /* \"#utility.yul\":371:378   */\n  0x00\n    /* \"#utility.yul\":411:453   */\n  0xffffffffffffffffffffffffffffffffffffffff\n    /* \"#utility.yul\":404:409   */\n  dup3\n    /* \"#utility.yul\":400:454   */\n  and\n    /* \"#utility.yul\":389:454   */\n  swap1\n  pop\n    /* \"#utility.yul\":334:460   */\n  swap2\n  swap1\n  pop\n  jump\t// out\n    /* \"#utility.yul\":466:562   */\ntag_20:\n    /* \"#utility.yul\":503:510   */\n  0x00\n    /* \"#utility.yul\":532:556   */\n  tag_36\n    /* \"#utility.yul\":550:555   */\n  dup3\n    /* \"#utility.yul\":532:556   */\n  tag_19\n  jump\t// in\ntag_36:\n    /* \"#utility.yul\":521:556   */\n  swap1\n  pop\n    /* \"#utility.yul\":466:562   */\n  swap2\n  swap1\n  pop\n  jump\t// out\n    /* \"#utility.yul\":568:690   */\ntag_21:\n    /* \"#utility.yul\":641:665   */\n  tag_38\n    /* \"#utility.yul\":659:664   */\n  dup2\n    /* \"#utility.yul\":641:665   */\n  tag_20\n  jump\t// in\ntag_38:\n    /* \"#utility.yul\":634:639   */\n  dup2\n    /* \"#utility.yul\":631:666   */\n  eq\n    /* \"#utility.yul\":621:684   */\n  tag_39\n  jumpi\n    /* \"#utility.yul\":680:681   */\n  0x00\n    /* \"#utility.yul\":677:678   */\n  0x00\n    /* \"#utility.yul\":670:682   */\n  revert\n    /* \"#utility.yul\":621:684   */\ntag_39:\n    /* \"#utility.yul\":568:690   */\n  pop\n  jump\t// out\n    /* \"#utility.yul\":696:839   */\ntag_22:\n    /* \"#utility.yul\":753:758   */\n  0x00\n    /* \"#utility.yul\":784:790   */\n  dup2\n    /* \"#utility.yul\":778:791   */\n  mload\n    /* \"#utility.yul\":769:791   */\n  swap1\n  pop\n    /* \"#utility.yul\":800:833   */\n  tag_41\n    /* \"#utility.yul\":827:832   */\n  dup2\n    /* \"#utility.yul\":800:833   */\n  tag_21\n  jump\t// in\ntag_41:\n    /* \"#utility.yul\":696:839   */\n  swap3\n  swap2\n  pop\n  pop\n  jump\t// out\n    /* \"#utility.yul\":845:1352   */\ntag_3:\n    /* \"#utility.yul\":924:930   */\n  0x00\n    /* \"#utility.yul\":932:938   */\n  0x00\n    /* \"#utility.yul\":981:983   */\n  0x40\n    /* \"#utility.yul\":969:978   */\n  dup4\n    /* \"#utility.yul\":960:967   */\n  dup6\n    /* \"#utility.yul\":956:979   */\n  sub\n    /* \"#utility.yul\":952:984   */\n  slt\n    /* \"#utility.yul\":949:1068   */\n  iszero\n  tag_43\n  jumpi\n    /* \"#utility.yul\":987:1066   */\n  tag_44\n  tag_17\n  jump\t// in\ntag_44:\n    /* \"#utility.yul\":949:1068   */\ntag_43:\n    /* \"#utility.yul\":1107:1108   */\n  0x00\n    /* \"#utility.yul\":1132:1196   */\n  tag_45\n    /* \"#utility.yul\":1188:1195   */\n  dup6\n    /* \"#utility.yul\":1179:1185   */\n  dup3\n    /* \"#utility.yul\":1168:1177   */\n  dup7\n    /* \"#utility.yul\":1164:1186   */\n  add\n    /* \"#utility.yul\":1132:1196   */\n  tag_22\n  jump\t// in\ntag_45:\n    /* \"#utility.yul\":1122:1196   */\n  swap3\n  pop\n    /* \"#utility.yul\":1078:1206   */\n  pop\n    /* \"#utility.yul\":1245:1247   */\n  0x20\n    /* \"#utility.yul\":1271:1335   */\n  tag_46\n    /* \"#utility.yul\":1327:1334   */\n  dup6\n    /* \"#utility.yul\":1318:1324   */\n  dup3\n    /* \"#utility.yul\":1307:1316   */\n  dup7\n    /* \"#utility.yul\":1303:1325   */\n  add\n    /* \"#utility.yul\":1271:1335   */\n  tag_22\n  jump\t// in\ntag_46:\n    /* \"#utility.yul\":1261:1335   */\n  swap2\n  pop\n    /* \"#utility.yul\":1216:1345   */\n  pop\n    /* \"#utility.yul\":845:1352   */\n  swap3\n  pop\n  swap3\n  swap1\n  pop\n  jump\t// out\n    /* \"#utility.yul\":1358:1527   */\ntag_23:\n    /* \"#utility.yul\":1442:1453   */\n  0x00\n    /* \"#utility.yul\":1476:1482   */\n  dup3\n    /* \"#utility.yul\":1471:1474   */\n  dup3\n    /* \"#utility.yul\":1464:1483   */\n  mstore\n    /* \"#utility.yul\":1516:1520   */\n  0x20\n    /* \"#utility.yul\":1511:1514   */\n  dup3\n    /* \"#utility.yul\":1507:1521   */\n  add\n    /* \"#utility.yul\":1492:1521   */\n  swap1\n  pop\n    /* \"#utility.yul\":1358:1527   */\n  swap3\n  swap2\n  pop\n  pop\n  jump\t// out\n    /* \"#utility.yul\":1533:1699   */\ntag_24:\n    /* \"#utility.yul\":1673:1691   */\n  0x496e76616c696420746f6b656e454b4100000000000000000000000000000000\n    /* \"#utility.yul\":1669:1670   */\n  0x00\n    /* \"#utility.yul\":1661:1667   */\n  dup3\n    /* \"#utility.yul\":1657:1671   */\n  add\n    /* \"#utility.yul\":1650:1692   */\n  mstore\n    /* \"#utility.yul\":1533:1699   */\n  pop\n  jump\t// out\n    /* \"#utility.yul\":1705:2071   */\ntag_25:\n    /* \"#utility.yul\":1847:1850   */\n  0x00\n    /* \"#utility.yul\":1868:1935   */\n  tag_50\n    /* \"#utility.yul\":1932:1934   */\n  0x10\n    /* \"#utility.yul\":1927:1930   */\n  dup4\n    /* \"#utility.yul\":1868:1935   */\n  tag_23\n  jump\t// in\ntag_50:\n    /* \"#utility.yul\":1861:1935   */\n  swap2\n  pop\n    /* \"#utility.yul\":1944:2037   */\n  tag_51\n    /* \"#utility.yul\":2033:2036   */\n  dup3\n    /* \"#utility.yul\":1944:2037   */\n  tag_24\n  jump\t// in\ntag_51:\n    /* \"#utility.yul\":2062:2064   */\n  0x20\n    /* \"#utility.yul\":2057:2060   */\n  dup3\n    /* \"#utility.yul\":2053:2065   */\n  add\n    /* \"#utility.yul\":2046:2065   */\n  swap1\n  pop\n    /* \"#utility.yul\":1705:2071   */\n  swap2\n  swap1\n  pop\n  jump\t// out\n    /* \"#utility.yul\":2077:2496   */\ntag_8:\n    /* \"#utility.yul\":2243:2247   */\n  0x00\n    /* \"#utility.yul\":2281:2283   */\n  0x20\n    /* \"#utility.yul\":2270:2279   */\n  dup3\n    /* \"#utility.yul\":2266:2284   */\n  add\n    /* \"#utility.yul\":2258:2284   */\n  swap1\n  pop\n    /* \"#utility.yul\":2330:2339   */\n  dup2\n    /* \"#utility.yul\":2324:2328   */\n  dup2\n    /* \"#utility.yul\":2320:2340   */\n  sub\n    /* \"#utility.yul\":2316:2317   */\n  0x00\n    /* \"#utility.yul\":2305:2314   */\n  dup4\n    /* \"#utility.yul\":2301:2318   */\n  add\n    /* \"#utility.yul\":2294:2341   */\n  mstore\n    /* \"#utility.yul\":2358:2489   */\n  tag_53\n    /* \"#utility.yul\":2484:2488   */\n  dup2\n    /* \"#utility.yul\":2358:2489   */\n  tag_25\n  jump\t// in\ntag_53:\n    /* \"#utility.yul\":2350:2489   */\n  swap1\n  pop\n    /* \"#utility.yul\":2077:2496   */\n  swap2\n  swap1\n  pop\n  jump\t// out\n    /* \"#utility.yul\":2502:2668   */\ntag_26:\n    /* \"#utility.yul\":2642:2660   */\n  0x496e76616c696420746f6b656e454b4200000000000000000000000000000000\n    /* \"#utility.yul\":2638:2639   */\n  0x00\n    /* \"#utility.yul\":2630:2636   */\n  dup3\n    /* \"#utility.yul\":2626:2640   */\n  add\n    /* \"#utility.yul\":2619:2661   */\n  mstore\n    /* \"#utility.yul\":2502:2668   */\n  pop\n  jump\t// out\n    /* \"#utility.yul\":2674:3040   */\ntag_27:\n    /* \"#utility.yul\":2816:2819   */\n  0x00\n    /* \"#utility.yul\":2837:2904   */\n  tag_56\n    /* \"#utility.yul\":2901:2903   */\n  0x10\n    /* \"#utility.yul\":2896:2899   */\n  dup4\n    /* \"#utility.yul\":2837:2904   */\n  tag_23\n  jump\t// in\ntag_56:\n    /* \"#utility.yul\":2830:2904   */\n  swap2\n  pop\n    /* \"#utility.yul\":2913:3006   */\n  tag_57\n    /* \"#utility.yul\":3002:3005   */\n  dup3\n    /* \"#utility.yul\":2913:3006   */\n  tag_26\n  jump\t// in\ntag_57:\n    /* \"#utility.yul\":3031:3033   */\n  0x20\n    /* \"#utility.yul\":3026:3029   */\n  dup3\n    /* \"#utility.yul\":3022:3034   */\n  add\n    /* \"#utility.yul\":3015:3034   */\n  swap1\n  pop\n    /* \"#utility.yul\":2674:3040   */\n  swap2\n  swap1\n  pop\n  jump\t// out\n    /* \"#utility.yul\":3046:3465   */\ntag_11:\n    /* \"#utility.yul\":3212:3216   */\n  0x00\n    /* \"#utility.yul\":3250:3252   */\n  0x20\n    /* \"#utility.yul\":3239:3248   */\n  dup3\n    /* \"#utility.yul\":3235:3253   */\n  add\n    /* \"#utility.yul\":3227:3253   */\n  swap1\n  pop\n    /* \"#utility.yul\":3299:3308   */\n  dup2\n    /* \"#utility.yul\":3293:3297   */\n  dup2\n    /* \"#utility.yul\":3289:3309   */\n  sub\n    /* \"#utility.yul\":3285:3286   */\n  0x00\n    /* \"#utility.yul\":3274:3283   */\n  dup4\n    /* \"#utility.yul\":3270:3287   */\n  add\n    /* \"#utility.yul\":3263:3310   */\n  mstore\n    /* \"#utility.yul\":3327:3458   */\n  tag_59\n    /* \"#utility.yul\":3453:3457   */\n  dup2\n    /* \"#utility.yul\":3327:3458   */\n  tag_27\n  jump\t// in\ntag_59:\n    /* \"#utility.yul\":3319:3458   */\n  swap1\n  pop\n    /* \"#utility.yul\":3046:3465   */\n  swap2\n  swap1\n  pop\n  jump\t// out\n    /* \"#utility.yul\":3471:3645   */\ntag_28:\n    /* \"#utility.yul\":3611:3637   */\n  0x546f6b656e73206d75737420626520646966666572656e740000000000000000\n    /* \"#utility.yul\":3607:3608   */\n  0x00\n    /* \"#utility.yul\":3599:3605   */\n  dup3\n    /* \"#utility.yul\":3595:3609   */\n  add\n    /* \"#utility.yul\":3588:3638   */\n  mstore\n    /* \"#utility.yul\":3471:3645   */\n  pop\n  jump\t// out\n    /* \"#utility.yul\":3651:4017   */\ntag_29:\n    /* \"#utility.yul\":3793:3796   */\n  0x00\n    /* \"#utility.yul\":3814:3881   */\n  tag_62\n    /* \"#utility.yul\":3878:3880   */\n  0x18\n    /* \"#utility.yul\":3873:3876   */\n  dup4\n    /* \"#utility.yul\":3814:3881   */\n  tag_23\n  jump\t// in\ntag_62:\n    /* \"#utility.yul\":3807:3881   */\n  swap2\n  pop\n    /* \"#utility.yul\":3890:3983   */\n  tag_63\n    /* \"#utility.yul\":3979:3982   */\n  dup3\n    /* \"#utility.yul\":3890:3983   */\n  tag_28\n  jump\t// in\ntag_63:\n    /* \"#utility.yul\":4008:4010   */\n  0x20\n    /* \"#utility.yul\":4003:4006   */\n  dup3\n    /* \"#utility.yul\":3999:4011   */\n  add\n    /* \"#utility.yul\":3992:4011   */\n  swap1\n  pop\n    /* \"#utility.yul\":3651:4017   */\n  swap2\n  swap1\n  pop\n  jump\t// out\n    /* \"#utility.yul\":4023:4442   */\ntag_14:\n    /* \"#utility.yul\":4189:4193   */\n  0x00\n    /* \"#utility.yul\":4227:4229   */\n  0x20\n    /* \"#utility.yul\":4216:4225   */\n  dup3\n    /* \"#utility.yul\":4212:4230   */\n  add\n    /* \"#utility.yul\":4204:4230   */\n  swap1\n  pop\n    /* \"#utility.yul\":4276:4285   */\n  dup2\n    /* \"#utility.yul\":4270:4274   */\n  dup2\n    /* \"#utility.yul\":4266:4286   */\n  sub\n    /* \"#utility.yul\":4262:4263   */\n  0x00\n    /* \"#utility.yul\":4251:4260   */\n  dup4\n    /* \"#utility.yul\":4247:4264   */\n  add\n    /* \"#utility.yul\":4240:4287   */\n  mstore\n    /* \"#utility.yul\":4304:4435   */\n  tag_65\n    /* \"#utility.yul\":4430:4434   */\n  dup2\n    /* \"#utility.yul\":4304:4435   */\n  tag_29\n  jump\t// in\ntag_65:\n    /* \"#utility.yul\":4296:4435   */\n  swap1\n  pop\n    /* \"#utility.yul\":4023:4442   */\n  swap2\n  swap1\n  pop\n  jump\t// out\n    /* \"SimpleSwap.sol\":61:9381  contract SimpleSwap {... */\ntag_15:\n  dataSize(sub_0)\n  dup1\n  dataOffset(sub_0)\n  0x00\n  codecopy\n  0x00\n  return\nstop\n\nsub_0: assembly {\n        /* \"SimpleSwap.sol\":61:9381  contract SimpleSwap {... */\n      mstore(0x40, 0x80)\n      callvalue\n      dup1\n      iszero\n      tag_1\n      jumpi\n      revert(0x00, 0x00)\n    tag_1:\n      pop\n      jumpi(tag_2, lt(calldatasize, 0x04))\n      shr(0xe0, calldataload(0x00))\n      dup1\n      0x9db4aa04\n      gt\n      tag_16\n      jumpi\n      dup1\n      0xc8c0526e\n      gt\n      tag_17\n      jumpi\n      dup1\n      0xc8c0526e\n      eq\n      tag_12\n      jumpi\n      dup1\n      0xd3c7c2c7\n      eq\n      tag_13\n      jumpi\n      dup1\n      0xe8e33700\n      eq\n      tag_14\n      jumpi\n      dup1\n      0xef1b1591\n      eq\n      tag_15\n      jumpi\n      jump(tag_2)\n    tag_17:\n      dup1\n      0x9db4aa04\n      eq\n      tag_9\n      jumpi\n      dup1\n      0xac41865a\n      eq\n      tag_10\n      jumpi\n      dup1\n      0xbaa2abde\n      eq\n      tag_11\n      jumpi\n      jump(tag_2)\n    tag_16:\n      dup1\n      0x054d50d4\n      eq\n      tag_3\n      jumpi\n      dup1\n      0x0902f1ac\n      eq\n      tag_4\n      jumpi\n      dup1\n      0x15770f92\n      eq\n      tag_5\n      jumpi\n      dup1\n      0x35c7e925\n      eq\n      tag_6\n      jumpi\n      dup1\n      0x38ed1739\n      eq\n      tag_7\n      jumpi\n      dup1\n      0x4c82ab63\n      eq\n      tag_8\n      jumpi\n    tag_2:\n      revert(0x00, 0x00)\n        /* \"SimpleSwap.sol\":4340:4690  function getAmountOut(uint256 amountIn, uint256 reserveIn, uint256 reserveOut) ... */\n    tag_3:\n      tag_18\n      0x04\n      dup1\n      calldatasize\n      sub\n      dup2\n      add\n      swap1\n      tag_19\n      swap2\n      swap1\n      tag_20\n      jump\t// in\n    tag_19:\n      tag_21\n      jump\t// in\n    tag_18:\n      mload(0x40)\n      tag_22\n      swap2\n      swap1\n      tag_23\n      jump\t// in\n    tag_22:\n      mload(0x40)\n      dup1\n      swap2\n      sub\n      swap1\n      return\n        /* \"SimpleSwap.sol\":8786:8970  function getReserves() external view returns (uint256 reserveEKA, uint256 reserveEKB) {... */\n    tag_4:\n      tag_24\n      tag_25\n      jump\t// in\n    tag_24:\n      mload(0x40)\n      tag_26\n      swap3\n      swap2\n      swap1\n      tag_27\n      jump\t// in\n    tag_26:\n      mload(0x40)\n      dup1\n      swap2\n      sub\n      swap1\n      return\n        /* \"SimpleSwap.sol\":154:183  uint256 public totalLiquidity */\n    tag_5:\n      tag_28\n      tag_29\n      jump\t// in\n    tag_28:\n      mload(0x40)\n      tag_30\n      swap2\n      swap1\n      tag_23\n      jump\t// in\n    tag_30:\n      mload(0x40)\n      dup1\n      swap2\n      sub\n      swap1\n      return\n        /* \"SimpleSwap.sol\":9271:9378  function getTotalLiquidity() external view returns (uint256 total) {... */\n    tag_6:\n      tag_31\n      tag_32\n      jump\t// in\n    tag_31:\n      mload(0x40)\n      tag_33\n      swap2\n      swap1\n      tag_23\n      jump\t// in\n    tag_33:\n      mload(0x40)\n      dup1\n      swap2\n      sub\n      swap1\n      return\n        /* \"SimpleSwap.sol\":3042:3916  function swapExactTokensForTokens(... */\n    tag_7:\n      tag_34\n      0x04\n      dup1\n      calldatasize\n      sub\n      dup2\n      add\n      swap1\n      tag_35\n      swap2\n      swap1\n      tag_36\n      jump\t// in\n    tag_35:\n      tag_37\n      jump\t// in\n    tag_34:\n      mload(0x40)\n      tag_38\n      swap2\n      swap1\n      tag_39\n      jump\t// in\n    tag_38:\n      mload(0x40)\n      dup1\n      swap2\n      sub\n      swap1\n      return\n        /* \"SimpleSwap.sol\":124:147  address public tokenEKB */\n    tag_8:\n      tag_40\n      tag_41\n      jump\t// in\n    tag_40:\n      mload(0x40)\n      tag_42\n      swap2\n      swap1\n      tag_43\n      jump\t// in\n    tag_42:\n      mload(0x40)\n      dup1\n      swap2\n      sub\n      swap1\n      return\n        /* \"SimpleSwap.sol\":190:240  mapping(address => uint256) public liquidityShares */\n    tag_9:\n      tag_44\n      0x04\n      dup1\n      calldatasize\n      sub\n      dup2\n      add\n      swap1\n      tag_45\n      swap2\n      swap1\n      tag_46\n      jump\t// in\n    tag_45:\n      tag_47\n      jump\t// in\n    tag_44:\n      mload(0x40)\n      tag_48\n      swap2\n      swap1\n      tag_23\n      jump\t// in\n    tag_48:\n      mload(0x40)\n      dup1\n      swap2\n      sub\n      swap1\n      return\n        /* \"SimpleSwap.sol\":3924:4332  function getPrice(address tokenA, address tokenB) external view returns (uint256 price) {... */\n    tag_10:\n      tag_49\n      0x04\n      dup1\n      calldatasize\n      sub\n      dup2\n      add\n      swap1\n      tag_50\n      swap2\n      swap1\n      tag_51\n      jump\t// in\n    tag_50:\n      tag_52\n      jump\t// in\n    tag_49:\n      mload(0x40)\n      tag_53\n      swap2\n      swap1\n      tag_23\n      jump\t// in\n    tag_53:\n      mload(0x40)\n      dup1\n      swap2\n      sub\n      swap1\n      return\n        /* \"SimpleSwap.sol\":2083:3034  function removeLiquidity(... */\n    tag_11:\n      tag_54\n      0x04\n      dup1\n      calldatasize\n      sub\n      dup2\n      add\n      swap1\n      tag_55\n      swap2\n      swap1\n      tag_56\n      jump\t// in\n    tag_55:\n      tag_57\n      jump\t// in\n    tag_54:\n      mload(0x40)\n      tag_58\n      swap3\n      swap2\n      swap1\n      tag_27\n      jump\t// in\n    tag_58:\n      mload(0x40)\n      dup1\n      swap2\n      sub\n      swap1\n      return\n        /* \"SimpleSwap.sol\":9135:9263  function getLiquidityShares(address user) external view returns (uint256 shares) {... */\n    tag_12:\n      tag_59\n      0x04\n      dup1\n      calldatasize\n      sub\n      dup2\n      add\n      swap1\n      tag_60\n      swap2\n      swap1\n      tag_46\n      jump\t// in\n    tag_60:\n      tag_61\n      jump\t// in\n    tag_59:\n      mload(0x40)\n      tag_62\n      swap2\n      swap1\n      tag_23\n      jump\t// in\n    tag_62:\n      mload(0x40)\n      dup1\n      swap2\n      sub\n      swap1\n      return\n        /* \"SimpleSwap.sol\":8978:9127  function getSupportedTokens() external view returns (address tokenA, address tokenB) {... */\n    tag_13:\n      tag_63\n      tag_64\n      jump\t// in\n    tag_63:\n      mload(0x40)\n      tag_65\n      swap3\n      swap2\n      swap1\n      tag_66\n      jump\t// in\n    tag_65:\n      mload(0x40)\n      dup1\n      swap2\n      sub\n      swap1\n      return\n        /* \"SimpleSwap.sol\":1103:2075  function addLiquidity(... */\n    tag_14:\n      tag_67\n      0x04\n      dup1\n      calldatasize\n      sub\n      dup2\n      add\n      swap1\n      tag_68\n      swap2\n      swap1\n      tag_69\n      jump\t// in\n    tag_68:\n      tag_70\n      jump\t// in\n    tag_67:\n      mload(0x40)\n      tag_71\n      swap4\n      swap3\n      swap2\n      swap1\n      tag_72\n      jump\t// in\n    tag_71:\n      mload(0x40)\n      dup1\n      swap2\n      sub\n      swap1\n      return\n        /* \"SimpleSwap.sol\":94:117  address public tokenEKA */\n    tag_15:\n      tag_73\n      tag_74\n      jump\t// in\n    tag_73:\n      mload(0x40)\n      tag_75\n      swap2\n      swap1\n      tag_43\n      jump\t// in\n    tag_75:\n      mload(0x40)\n      dup1\n      swap2\n      sub\n      swap1\n      return\n        /* \"SimpleSwap.sol\":4340:4690  function getAmountOut(uint256 amountIn, uint256 reserveIn, uint256 reserveOut) ... */\n    tag_21:\n        /* \"SimpleSwap.sol\":4450:4467  uint256 amountOut */\n      0x00\n        /* \"SimpleSwap.sol\":4499:4500  0 */\n      0x00\n        /* \"SimpleSwap.sol\":4488:4496  amountIn */\n      dup5\n        /* \"SimpleSwap.sol\":4488:4500  amountIn > 0 */\n      gt\n        /* \"SimpleSwap.sol\":4480:4530  require(amountIn > 0, \"Insufficient input amount\") */\n      tag_77\n      jumpi\n      mload(0x40)\n      0x08c379a000000000000000000000000000000000000000000000000000000000\n      dup2\n      mstore\n      0x04\n      add\n      tag_78\n      swap1\n      tag_79\n      jump\t// in\n    tag_78:\n      mload(0x40)\n      dup1\n      swap2\n      sub\n      swap1\n      revert\n    tag_77:\n        /* \"SimpleSwap.sol\":4561:4562  0 */\n      0x00\n        /* \"SimpleSwap.sol\":4549:4558  reserveIn */\n      dup4\n        /* \"SimpleSwap.sol\":4549:4562  reserveIn > 0 */\n      gt\n        /* \"SimpleSwap.sol\":4549:4580  reserveIn > 0 && reserveOut > 0 */\n      dup1\n      iszero\n      tag_80\n      jumpi\n      pop\n        /* \"SimpleSwap.sol\":4579:4580  0 */\n      0x00\n        /* \"SimpleSwap.sol\":4566:4576  reserveOut */\n      dup3\n        /* \"SimpleSwap.sol\":4566:4580  reserveOut > 0 */\n      gt\n        /* \"SimpleSwap.sol\":4549:4580  reserveIn > 0 && reserveOut > 0 */\n    tag_80:\n        /* \"SimpleSwap.sol\":4541:4606  require(reserveIn > 0 && reserveOut > 0, \"Insufficient reserves\") */\n      tag_81\n      jumpi\n      mload(0x40)\n      0x08c379a000000000000000000000000000000000000000000000000000000000\n      dup2\n      mstore\n      0x04\n      add\n      tag_82\n      swap1\n      tag_83\n      jump\t// in\n    tag_82:\n      mload(0x40)\n      dup1\n      swap2\n      sub\n      swap1\n      revert\n    tag_81:\n        /* \"SimpleSwap.sol\":4673:4681  amountIn */\n      dup4\n        /* \"SimpleSwap.sol\":4661:4670  reserveIn */\n      dup4\n        /* \"SimpleSwap.sol\":4661:4681  reserveIn + amountIn */\n      tag_84\n      swap2\n      swap1\n      tag_85\n      jump\t// in\n    tag_84:\n        /* \"SimpleSwap.sol\":4646:4656  reserveOut */\n      dup3\n        /* \"SimpleSwap.sol\":4635:4643  amountIn */\n      dup6\n        /* \"SimpleSwap.sol\":4635:4656  amountIn * reserveOut */\n      tag_86\n      swap2\n      swap1\n      tag_87\n      jump\t// in\n    tag_86:\n        /* \"SimpleSwap.sol\":4634:4682  (amountIn * reserveOut) / (reserveIn + amountIn) */\n      tag_88\n      swap2\n      swap1\n      tag_89\n      jump\t// in\n    tag_88:\n        /* \"SimpleSwap.sol\":4627:4682  return (amountIn * reserveOut) / (reserveIn + amountIn) */\n      swap1\n      pop\n        /* \"SimpleSwap.sol\":4340:4690  function getAmountOut(uint256 amountIn, uint256 reserveIn, uint256 reserveOut) ... */\n      swap4\n      swap3\n      pop\n      pop\n      pop\n      jump\t// out\n        /* \"SimpleSwap.sol\":8786:8970  function getReserves() external view returns (uint256 reserveEKA, uint256 reserveEKB) {... */\n    tag_25:\n        /* \"SimpleSwap.sol\":8832:8850  uint256 reserveEKA */\n      0x00\n        /* \"SimpleSwap.sol\":8852:8870  uint256 reserveEKB */\n      0x00\n        /* \"SimpleSwap.sol\":8896:8917  _getBalance(tokenEKA) */\n      tag_91\n        /* \"SimpleSwap.sol\":8908:8916  tokenEKA */\n      0x00\n      0x00\n      swap1\n      sload\n      swap1\n      0x0100\n      exp\n      swap1\n      div\n      0xffffffffffffffffffffffffffffffffffffffff\n      and\n        /* \"SimpleSwap.sol\":8896:8907  _getBalance */\n      tag_92\n        /* \"SimpleSwap.sol\":8896:8917  _getBalance(tokenEKA) */\n      jump\t// in\n    tag_91:\n        /* \"SimpleSwap.sol\":8883:8917  reserveEKA = _getBalance(tokenEKA) */\n      swap2\n      pop\n        /* \"SimpleSwap.sol\":8941:8962  _getBalance(tokenEKB) */\n      tag_93\n        /* \"SimpleSwap.sol\":8953:8961  tokenEKB */\n      0x01\n      0x00\n      swap1\n      sload\n      swap1\n      0x0100\n      exp\n      swap1\n      div\n      0xffffffffffffffffffffffffffffffffffffffff\n      and\n        /* \"SimpleSwap.sol\":8941:8952  _getBalance */\n      tag_92\n        /* \"SimpleSwap.sol\":8941:8962  _getBalance(tokenEKB) */\n      jump\t// in\n    tag_93:\n        /* \"SimpleSwap.sol\":8928:8962  reserveEKB = _getBalance(tokenEKB) */\n      swap1\n      pop\n        /* \"SimpleSwap.sol\":8786:8970  function getReserves() external view returns (uint256 reserveEKA, uint256 reserveEKB) {... */\n      swap1\n      swap2\n      jump\t// out\n        /* \"SimpleSwap.sol\":154:183  uint256 public totalLiquidity */\n    tag_29:\n      sload(0x02)\n      dup2\n      jump\t// out\n        /* \"SimpleSwap.sol\":9271:9378  function getTotalLiquidity() external view returns (uint256 total) {... */\n    tag_32:\n        /* \"SimpleSwap.sol\":9323:9336  uint256 total */\n      0x00\n        /* \"SimpleSwap.sol\":9356:9370  totalLiquidity */\n      sload(0x02)\n        /* \"SimpleSwap.sol\":9349:9370  return totalLiquidity */\n      swap1\n      pop\n        /* \"SimpleSwap.sol\":9271:9378  function getTotalLiquidity() external view returns (uint256 total) {... */\n      swap1\n      jump\t// out\n        /* \"SimpleSwap.sol\":3042:3916  function swapExactTokensForTokens(... */\n    tag_37:\n        /* \"SimpleSwap.sol\":3258:3282  uint256[] memory amounts */\n      0x60\n        /* \"SimpleSwap.sol\":3239:3247  deadline */\n      dup2\n        /* \"SimpleSwap.sol\":1036:1051  block.timestamp */\n      timestamp\n        /* \"SimpleSwap.sol\":1024:1032  deadline */\n      dup2\n        /* \"SimpleSwap.sol\":1024:1051  deadline >= block.timestamp */\n      lt\n      iszero\n        /* \"SimpleSwap.sol\":1016:1075  require(deadline >= block.timestamp, \"Transaction expired\") */\n      tag_96\n      jumpi\n      mload(0x40)\n      0x08c379a000000000000000000000000000000000000000000000000000000000\n      dup2\n      mstore\n      0x04\n      add\n      tag_97\n      swap1\n      tag_98\n      jump\t// in\n    tag_97:\n      mload(0x40)\n      dup1\n      swap2\n      sub\n      swap1\n      revert\n    tag_96:\n        /* \"SimpleSwap.sol\":3328:3329  2 */\n      0x02\n        /* \"SimpleSwap.sol\":3313:3317  path */\n      dup7\n      dup7\n        /* \"SimpleSwap.sol\":3313:3324  path.length */\n      swap1\n      pop\n        /* \"SimpleSwap.sol\":3313:3329  path.length == 2 */\n      eq\n        /* \"SimpleSwap.sol\":3305:3346  require(path.length == 2, \"Invalid path\") */\n      tag_100\n      jumpi\n      mload(0x40)\n      0x08c379a000000000000000000000000000000000000000000000000000000000\n      dup2\n      mstore\n      0x04\n      add\n      tag_101\n      swap1\n      tag_102\n      jump\t// in\n    tag_101:\n      mload(0x40)\n      dup1\n      swap2\n      sub\n      swap1\n      revert\n    tag_100:\n        /* \"SimpleSwap.sol\":3379:3380  0 */\n      0x00\n        /* \"SimpleSwap.sol\":3365:3381  to != address(0) */\n      0xffffffffffffffffffffffffffffffffffffffff\n      and\n        /* \"SimpleSwap.sol\":3365:3367  to */\n      dup5\n        /* \"SimpleSwap.sol\":3365:3381  to != address(0) */\n      0xffffffffffffffffffffffffffffffffffffffff\n      and\n      sub\n        /* \"SimpleSwap.sol\":3357:3403  require(to != address(0), \"Invalid recipient\") */\n      tag_103\n      jumpi\n      mload(0x40)\n      0x08c379a000000000000000000000000000000000000000000000000000000000\n      dup2\n      mstore\n      0x04\n      add\n      tag_104\n      swap1\n      tag_105\n      jump\t// in\n    tag_104:\n      mload(0x40)\n      dup1\n      swap2\n      sub\n      swap1\n      revert\n    tag_103:\n        /* \"SimpleSwap.sol\":3422:3457  _isValidTokenPair(path[0], path[1]) */\n      tag_106\n        /* \"SimpleSwap.sol\":3440:3444  path */\n      dup7\n      dup7\n        /* \"SimpleSwap.sol\":3445:3446  0 */\n      0x00\n        /* \"SimpleSwap.sol\":3440:3447  path[0] */\n      dup2\n      dup2\n      lt\n      tag_107\n      jumpi\n      tag_108\n      tag_109\n      jump\t// in\n    tag_108:\n    tag_107:\n      swap1\n      pop\n      0x20\n      mul\n      add\n      0x20\n      dup2\n      add\n      swap1\n      tag_110\n      swap2\n      swap1\n      tag_46\n      jump\t// in\n    tag_110:\n        /* \"SimpleSwap.sol\":3449:3453  path */\n      dup8\n      dup8\n        /* \"SimpleSwap.sol\":3454:3455  1 */\n      0x01\n        /* \"SimpleSwap.sol\":3449:3456  path[1] */\n      dup2\n      dup2\n      lt\n      tag_111\n      jumpi\n      tag_112\n      tag_109\n      jump\t// in\n    tag_112:\n    tag_111:\n      swap1\n      pop\n      0x20\n      mul\n      add\n      0x20\n      dup2\n      add\n      swap1\n      tag_113\n      swap2\n      swap1\n      tag_46\n      jump\t// in\n    tag_113:\n        /* \"SimpleSwap.sol\":3422:3439  _isValidTokenPair */\n      tag_114\n        /* \"SimpleSwap.sol\":3422:3457  _isValidTokenPair(path[0], path[1]) */\n      jump\t// in\n    tag_106:\n        /* \"SimpleSwap.sol\":3414:3480  require(_isValidTokenPair(path[0], path[1]), \"Invalid token pair\") */\n      tag_115\n      jumpi\n      mload(0x40)\n      0x08c379a000000000000000000000000000000000000000000000000000000000\n      dup2\n      mstore\n      0x04\n      add\n      tag_116\n      swap1\n      tag_117\n      jump\t// in\n    tag_116:\n      mload(0x40)\n      dup1\n      swap2\n      sub\n      swap1\n      revert\n    tag_115:\n        /* \"SimpleSwap.sol\":3493:3510  uint256 amountOut */\n      0x00\n        /* \"SimpleSwap.sol\":3513:3576  _calculateSwapAmounts(path[0], path[1], amountIn, amountOutMin) */\n      tag_118\n        /* \"SimpleSwap.sol\":3535:3539  path */\n      dup8\n      dup8\n        /* \"SimpleSwap.sol\":3540:3541  0 */\n      0x00\n        /* \"SimpleSwap.sol\":3535:3542  path[0] */\n      dup2\n      dup2\n      lt\n      tag_119\n      jumpi\n      tag_120\n      tag_109\n      jump\t// in\n    tag_120:\n    tag_119:\n      swap1\n      pop\n      0x20\n      mul\n      add\n      0x20\n      dup2\n      add\n      swap1\n      tag_121\n      swap2\n      swap1\n      tag_46\n      jump\t// in\n    tag_121:\n        /* \"SimpleSwap.sol\":3544:3548  path */\n      dup9\n      dup9\n        /* \"SimpleSwap.sol\":3549:3550  1 */\n      0x01\n        /* \"SimpleSwap.sol\":3544:3551  path[1] */\n      dup2\n      dup2\n      lt\n      tag_122\n      jumpi\n      tag_123\n      tag_109\n      jump\t// in\n    tag_123:\n    tag_122:\n      swap1\n      pop\n      0x20\n      mul\n      add\n      0x20\n      dup2\n      add\n      swap1\n      tag_124\n      swap2\n      swap1\n      tag_46\n      jump\t// in\n    tag_124:\n        /* \"SimpleSwap.sol\":3553:3561  amountIn */\n      dup12\n        /* \"SimpleSwap.sol\":3563:3575  amountOutMin */\n      dup12\n        /* \"SimpleSwap.sol\":3513:3534  _calculateSwapAmounts */\n      tag_125\n        /* \"SimpleSwap.sol\":3513:3576  _calculateSwapAmounts(path[0], path[1], amountIn, amountOutMin) */\n      jump\t// in\n    tag_118:\n        /* \"SimpleSwap.sol\":3493:3576  uint256 amountOut = _calculateSwapAmounts(path[0], path[1], amountIn, amountOutMin) */\n      swap1\n      pop\n        /* \"SimpleSwap.sol\":3589:3655  _executeTransferFrom(path[0], msg.sender, address(this), amountIn) */\n      tag_126\n        /* \"SimpleSwap.sol\":3610:3614  path */\n      dup8\n      dup8\n        /* \"SimpleSwap.sol\":3615:3616  0 */\n      0x00\n        /* \"SimpleSwap.sol\":3610:3617  path[0] */\n      dup2\n      dup2\n      lt\n      tag_127\n      jumpi\n      tag_128\n      tag_109\n      jump\t// in\n    tag_128:\n    tag_127:\n      swap1\n      pop\n      0x20\n      mul\n      add\n      0x20\n      dup2\n      add\n      swap1\n      tag_129\n      swap2\n      swap1\n      tag_46\n      jump\t// in\n    tag_129:\n        /* \"SimpleSwap.sol\":3619:3629  msg.sender */\n      caller\n        /* \"SimpleSwap.sol\":3639:3643  this */\n      address\n        /* \"SimpleSwap.sol\":3646:3654  amountIn */\n      dup13\n        /* \"SimpleSwap.sol\":3589:3609  _executeTransferFrom */\n      tag_130\n        /* \"SimpleSwap.sol\":3589:3655  _executeTransferFrom(path[0], msg.sender, address(this), amountIn) */\n      jump\t// in\n    tag_126:\n        /* \"SimpleSwap.sol\":3666:3706  _executeTransfer(path[1], to, amountOut) */\n      tag_131\n        /* \"SimpleSwap.sol\":3683:3687  path */\n      dup8\n      dup8\n        /* \"SimpleSwap.sol\":3688:3689  1 */\n      0x01\n        /* \"SimpleSwap.sol\":3683:3690  path[1] */\n      dup2\n      dup2\n      lt\n      tag_132\n      jumpi\n      tag_133\n      tag_109\n      jump\t// in\n    tag_133:\n    tag_132:\n      swap1\n      pop\n      0x20\n      mul\n      add\n      0x20\n      dup2\n      add\n      swap1\n      tag_134\n      swap2\n      swap1\n      tag_46\n      jump\t// in\n    tag_134:\n        /* \"SimpleSwap.sol\":3692:3694  to */\n      dup7\n        /* \"SimpleSwap.sol\":3696:3705  amountOut */\n      dup4\n        /* \"SimpleSwap.sol\":3666:3682  _executeTransfer */\n      tag_135\n        /* \"SimpleSwap.sol\":3666:3706  _executeTransfer(path[1], to, amountOut) */\n      jump\t// in\n    tag_131:\n        /* \"SimpleSwap.sol\":3751:3752  2 */\n      0x02\n        /* \"SimpleSwap.sol\":3737:3753  new uint256[](2) */\n      0xffffffffffffffff\n      dup2\n      gt\n      iszero\n      tag_136\n      jumpi\n      tag_137\n      tag_138\n      jump\t// in\n    tag_137:\n    tag_136:\n      mload(0x40)\n      swap1\n      dup1\n      dup3\n      mstore\n      dup1\n      0x20\n      mul\n      0x20\n      add\n      dup3\n      add\n      0x40\n      mstore\n      dup1\n      iszero\n      tag_139\n      jumpi\n      dup2\n      0x20\n      add\n      0x20\n      dup3\n      mul\n      dup1\n      calldatasize\n      dup4\n      calldatacopy\n      dup1\n      dup3\n      add\n      swap2\n      pop\n      pop\n      swap1\n      pop\n    tag_139:\n      pop\n        /* \"SimpleSwap.sol\":3727:3753  amounts = new uint256[](2) */\n      swap3\n      pop\n        /* \"SimpleSwap.sol\":3777:3785  amountIn */\n      dup9\n        /* \"SimpleSwap.sol\":3764:3771  amounts */\n      dup4\n        /* \"SimpleSwap.sol\":3772:3773  0 */\n      0x00\n        /* \"SimpleSwap.sol\":3764:3774  amounts[0] */\n      dup2\n      mload\n      dup2\n      lt\n      tag_140\n      jumpi\n      tag_141\n      tag_109\n      jump\t// in\n    tag_141:\n    tag_140:\n      0x20\n      mul\n      0x20\n      add\n      add\n        /* \"SimpleSwap.sol\":3764:3785  amounts[0] = amountIn */\n      dup2\n      dup2\n      mstore\n      pop\n      pop\n        /* \"SimpleSwap.sol\":3809:3818  amountOut */\n      dup1\n        /* \"SimpleSwap.sol\":3796:3803  amounts */\n      dup4\n        /* \"SimpleSwap.sol\":3804:3805  1 */\n      0x01\n        /* \"SimpleSwap.sol\":3796:3806  amounts[1] */\n      dup2\n      mload\n      dup2\n      lt\n      tag_142\n      jumpi\n      tag_143\n      tag_109\n      jump\t// in\n    tag_143:\n    tag_142:\n      0x20\n      mul\n      0x20\n      add\n      add\n        /* \"SimpleSwap.sol\":3796:3818  amounts[1] = amountOut */\n      dup2\n      dup2\n      mstore\n      pop\n      pop\n        /* \"SimpleSwap.sol\":3879:3883  path */\n      dup7\n      dup7\n        /* \"SimpleSwap.sol\":3884:3885  1 */\n      0x01\n        /* \"SimpleSwap.sol\":3879:3886  path[1] */\n      dup2\n      dup2\n      lt\n      tag_144\n      jumpi\n      tag_145\n      tag_109\n      jump\t// in\n    tag_145:\n    tag_144:\n      swap1\n      pop\n      0x20\n      mul\n      add\n      0x20\n      dup2\n      add\n      swap1\n      tag_146\n      swap2\n      swap1\n      tag_46\n      jump\t// in\n    tag_146:\n        /* \"SimpleSwap.sol\":3844:3908  TokensSwapped(msg.sender, path[0], path[1], amountIn, amountOut) */\n      0xffffffffffffffffffffffffffffffffffffffff\n      and\n        /* \"SimpleSwap.sol\":3870:3874  path */\n      dup8\n      dup8\n        /* \"SimpleSwap.sol\":3875:3876  0 */\n      0x00\n        /* \"SimpleSwap.sol\":3870:3877  path[0] */\n      dup2\n      dup2\n      lt\n      tag_147\n      jumpi\n      tag_148\n      tag_109\n      jump\t// in\n    tag_148:\n    tag_147:\n      swap1\n      pop\n      0x20\n      mul\n      add\n      0x20\n      dup2\n      add\n      swap1\n      tag_149\n      swap2\n      swap1\n      tag_46\n      jump\t// in\n    tag_149:\n        /* \"SimpleSwap.sol\":3844:3908  TokensSwapped(msg.sender, path[0], path[1], amountIn, amountOut) */\n      0xffffffffffffffffffffffffffffffffffffffff\n      and\n        /* \"SimpleSwap.sol\":3858:3868  msg.sender */\n      caller\n        /* \"SimpleSwap.sol\":3844:3908  TokensSwapped(msg.sender, path[0], path[1], amountIn, amountOut) */\n      0xffffffffffffffffffffffffffffffffffffffff\n      and\n      0xad56699d0f375866eb895ed27203058a36a713382aaded78eb6b67da266d4332\n        /* \"SimpleSwap.sol\":3888:3896  amountIn */\n      dup13\n        /* \"SimpleSwap.sol\":3898:3907  amountOut */\n      dup6\n        /* \"SimpleSwap.sol\":3844:3908  TokensSwapped(msg.sender, path[0], path[1], amountIn, amountOut) */\n      mload(0x40)\n      tag_150\n      swap3\n      swap2\n      swap1\n      tag_27\n      jump\t// in\n    tag_150:\n      mload(0x40)\n      dup1\n      swap2\n      sub\n      swap1\n      log4\n        /* \"SimpleSwap.sol\":3284:3916  {... */\n      pop\n        /* \"SimpleSwap.sol\":3042:3916  function swapExactTokensForTokens(... */\n      pop\n      swap7\n      swap6\n      pop\n      pop\n      pop\n      pop\n      pop\n      pop\n      jump\t// out\n        /* \"SimpleSwap.sol\":124:147  address public tokenEKB */\n    tag_41:\n      0x01\n      0x00\n      swap1\n      sload\n      swap1\n      0x0100\n      exp\n      swap1\n      div\n      0xffffffffffffffffffffffffffffffffffffffff\n      and\n      dup2\n      jump\t// out\n        /* \"SimpleSwap.sol\":190:240  mapping(address => uint256) public liquidityShares */\n    tag_47:\n      mstore(0x20, 0x03)\n      dup1\n      0x00\n      mstore\n      keccak256(0x00, 0x40)\n      0x00\n      swap2\n      pop\n      swap1\n      pop\n      sload\n      dup2\n      jump\t// out\n        /* \"SimpleSwap.sol\":3924:4332  function getPrice(address tokenA, address tokenB) external view returns (uint256 price) {... */\n    tag_52:\n        /* \"SimpleSwap.sol\":3997:4010  uint256 price */\n      0x00\n        /* \"SimpleSwap.sol\":4031:4064  _isValidTokenPair(tokenA, tokenB) */\n      tag_152\n        /* \"SimpleSwap.sol\":4049:4055  tokenA */\n      dup4\n        /* \"SimpleSwap.sol\":4057:4063  tokenB */\n      dup4\n        /* \"SimpleSwap.sol\":4031:4048  _isValidTokenPair */\n      tag_114\n        /* \"SimpleSwap.sol\":4031:4064  _isValidTokenPair(tokenA, tokenB) */\n      jump\t// in\n    tag_152:\n        /* \"SimpleSwap.sol\":4023:4087  require(_isValidTokenPair(tokenA, tokenB), \"Invalid token pair\") */\n      tag_153\n      jumpi\n      mload(0x40)\n      0x08c379a000000000000000000000000000000000000000000000000000000000\n      dup2\n      mstore\n      0x04\n      add\n      tag_154\n      swap1\n      tag_117\n      jump\t// in\n    tag_154:\n      mload(0x40)\n      dup1\n      swap2\n      sub\n      swap1\n      revert\n    tag_153:\n        /* \"SimpleSwap.sol\":4108:4124  uint256 reserveA */\n      0x00\n        /* \"SimpleSwap.sol\":4127:4146  _getBalance(tokenA) */\n      tag_155\n        /* \"SimpleSwap.sol\":4139:4145  tokenA */\n      dup5\n        /* \"SimpleSwap.sol\":4127:4138  _getBalance */\n      tag_92\n        /* \"SimpleSwap.sol\":4127:4146  _getBalance(tokenA) */\n      jump\t// in\n    tag_155:\n        /* \"SimpleSwap.sol\":4108:4146  uint256 reserveA = _getBalance(tokenA) */\n      swap1\n      pop\n        /* \"SimpleSwap.sol\":4157:4173  uint256 reserveB */\n      0x00\n        /* \"SimpleSwap.sol\":4176:4195  _getBalance(tokenB) */\n      tag_156\n        /* \"SimpleSwap.sol\":4188:4194  tokenB */\n      dup5\n        /* \"SimpleSwap.sol\":4176:4187  _getBalance */\n      tag_92\n        /* \"SimpleSwap.sol\":4176:4195  _getBalance(tokenB) */\n      jump\t// in\n    tag_156:\n        /* \"SimpleSwap.sol\":4157:4195  uint256 reserveB = _getBalance(tokenB) */\n      swap1\n      pop\n        /* \"SimpleSwap.sol\":4225:4226  0 */\n      0x00\n        /* \"SimpleSwap.sol\":4214:4222  reserveA */\n      dup3\n        /* \"SimpleSwap.sol\":4214:4226  reserveA > 0 */\n      gt\n        /* \"SimpleSwap.sol\":4214:4242  reserveA > 0 && reserveB > 0 */\n      dup1\n      iszero\n      tag_157\n      jumpi\n      pop\n        /* \"SimpleSwap.sol\":4241:4242  0 */\n      0x00\n        /* \"SimpleSwap.sol\":4230:4238  reserveB */\n      dup2\n        /* \"SimpleSwap.sol\":4230:4242  reserveB > 0 */\n      gt\n        /* \"SimpleSwap.sol\":4214:4242  reserveA > 0 && reserveB > 0 */\n    tag_157:\n        /* \"SimpleSwap.sol\":4206:4268  require(reserveA > 0 && reserveB > 0, \"Insufficient reserves\") */\n      tag_158\n      jumpi\n      mload(0x40)\n      0x08c379a000000000000000000000000000000000000000000000000000000000\n      dup2\n      mstore\n      0x04\n      add\n      tag_159\n      swap1\n      tag_83\n      jump\t// in\n    tag_159:\n      mload(0x40)\n      dup1\n      swap2\n      sub\n      swap1\n      revert\n    tag_158:\n        /* \"SimpleSwap.sol\":4316:4324  reserveA */\n      dup2\n        /* \"SimpleSwap.sol\":4308:4312  1e18 */\n      0x0de0b6b3a7640000\n        /* \"SimpleSwap.sol\":4297:4305  reserveB */\n      dup3\n        /* \"SimpleSwap.sol\":4297:4312  reserveB * 1e18 */\n      tag_160\n      swap2\n      swap1\n      tag_87\n      jump\t// in\n    tag_160:\n        /* \"SimpleSwap.sol\":4296:4324  (reserveB * 1e18) / reserveA */\n      tag_161\n      swap2\n      swap1\n      tag_89\n      jump\t// in\n    tag_161:\n        /* \"SimpleSwap.sol\":4289:4324  return (reserveB * 1e18) / reserveA */\n      swap3\n      pop\n      pop\n      pop\n        /* \"SimpleSwap.sol\":3924:4332  function getPrice(address tokenA, address tokenB) external view returns (uint256 price) {... */\n      swap3\n      swap2\n      pop\n      pop\n      jump\t// out\n        /* \"SimpleSwap.sol\":2083:3034  function removeLiquidity(... */\n    tag_57:\n        /* \"SimpleSwap.sol\":2334:2349  uint256 amountA */\n      0x00\n        /* \"SimpleSwap.sol\":2351:2366  uint256 amountB */\n      0x00\n        /* \"SimpleSwap.sol\":2315:2323  deadline */\n      dup3\n        /* \"SimpleSwap.sol\":1036:1051  block.timestamp */\n      timestamp\n        /* \"SimpleSwap.sol\":1024:1032  deadline */\n      dup2\n        /* \"SimpleSwap.sol\":1024:1051  deadline >= block.timestamp */\n      lt\n      iszero\n        /* \"SimpleSwap.sol\":1016:1075  require(deadline >= block.timestamp, \"Transaction expired\") */\n      tag_163\n      jumpi\n      mload(0x40)\n      0x08c379a000000000000000000000000000000000000000000000000000000000\n      dup2\n      mstore\n      0x04\n      add\n      tag_164\n      swap1\n      tag_98\n      jump\t// in\n    tag_164:\n      mload(0x40)\n      dup1\n      swap2\n      sub\n      swap1\n      revert\n    tag_163:\n        /* \"SimpleSwap.sol\":2393:2426  _isValidTokenPair(tokenA, tokenB) */\n      tag_166\n        /* \"SimpleSwap.sol\":2411:2417  tokenA */\n      dup11\n        /* \"SimpleSwap.sol\":2419:2425  tokenB */\n      dup11\n        /* \"SimpleSwap.sol\":2393:2410  _isValidTokenPair */\n      tag_114\n        /* \"SimpleSwap.sol\":2393:2426  _isValidTokenPair(tokenA, tokenB) */\n      jump\t// in\n    tag_166:\n        /* \"SimpleSwap.sol\":2385:2449  require(_isValidTokenPair(tokenA, tokenB), \"Invalid token pair\") */\n      tag_167\n      jumpi\n      mload(0x40)\n      0x08c379a000000000000000000000000000000000000000000000000000000000\n      dup2\n      mstore\n      0x04\n      add\n      tag_168\n      swap1\n      tag_117\n      jump\t// in\n    tag_168:\n      mload(0x40)\n      dup1\n      swap2\n      sub\n      swap1\n      revert\n    tag_167:\n        /* \"SimpleSwap.sol\":2482:2483  0 */\n      0x00\n        /* \"SimpleSwap.sol\":2468:2484  to != address(0) */\n      0xffffffffffffffffffffffffffffffffffffffff\n      and\n        /* \"SimpleSwap.sol\":2468:2470  to */\n      dup6\n        /* \"SimpleSwap.sol\":2468:2484  to != address(0) */\n      0xffffffffffffffffffffffffffffffffffffffff\n      and\n      sub\n        /* \"SimpleSwap.sol\":2460:2506  require(to != address(0), \"Invalid recipient\") */\n      tag_169\n      jumpi\n      mload(0x40)\n      0x08c379a000000000000000000000000000000000000000000000000000000000\n      dup2\n      mstore\n      0x04\n      add\n      tag_170\n      swap1\n      tag_105\n      jump\t// in\n    tag_170:\n      mload(0x40)\n      dup1\n      swap2\n      sub\n      swap1\n      revert\n    tag_169:\n        /* \"SimpleSwap.sol\":2537:2538  0 */\n      0x00\n        /* \"SimpleSwap.sol\":2525:2534  liquidity */\n      dup9\n        /* \"SimpleSwap.sol\":2525:2538  liquidity > 0 */\n      gt\n        /* \"SimpleSwap.sol\":2517:2557  require(liquidity > 0, \"Zero liquidity\") */\n      tag_171\n      jumpi\n      mload(0x40)\n      0x08c379a000000000000000000000000000000000000000000000000000000000\n      dup2\n      mstore\n      0x04\n      add\n      tag_172\n      swap1\n      tag_173\n      jump\t// in\n    tag_172:\n      mload(0x40)\n      dup1\n      swap2\n      sub\n      swap1\n      revert\n    tag_171:\n        /* \"SimpleSwap.sol\":2607:2616  liquidity */\n      dup8\n        /* \"SimpleSwap.sol\":2576:2591  liquidityShares */\n      0x03\n        /* \"SimpleSwap.sol\":2576:2603  liquidityShares[msg.sender] */\n      0x00\n        /* \"SimpleSwap.sol\":2592:2602  msg.sender */\n      caller\n        /* \"SimpleSwap.sol\":2576:2603  liquidityShares[msg.sender] */\n      0xffffffffffffffffffffffffffffffffffffffff\n      and\n      0xffffffffffffffffffffffffffffffffffffffff\n      and\n      dup2\n      mstore\n      0x20\n      add\n      swap1\n      dup2\n      mstore\n      0x20\n      add\n      0x00\n      keccak256\n      sload\n        /* \"SimpleSwap.sol\":2576:2616  liquidityShares[msg.sender] >= liquidity */\n      lt\n      iszero\n        /* \"SimpleSwap.sol\":2568:2650  require(liquidityShares[msg.sender] >= liquidity, \"Insufficient liquidity shares\") */\n      tag_174\n      jumpi\n      mload(0x40)\n      0x08c379a000000000000000000000000000000000000000000000000000000000\n      dup2\n      mstore\n      0x04\n      add\n      tag_175\n      swap1\n      tag_176\n      jump\t// in\n    tag_175:\n      mload(0x40)\n      dup1\n      swap2\n      sub\n      swap1\n      revert\n    tag_174:\n        /* \"SimpleSwap.sol\":2692:2770  _calculateWithdrawalAmounts(tokenA, tokenB, liquidity, amountAMin, amountBMin) */\n      tag_177\n        /* \"SimpleSwap.sol\":2720:2726  tokenA */\n      dup11\n        /* \"SimpleSwap.sol\":2728:2734  tokenB */\n      dup11\n        /* \"SimpleSwap.sol\":2736:2745  liquidity */\n      dup11\n        /* \"SimpleSwap.sol\":2747:2757  amountAMin */\n      dup11\n        /* \"SimpleSwap.sol\":2759:2769  amountBMin */\n      dup11\n        /* \"SimpleSwap.sol\":2692:2719  _calculateWithdrawalAmounts */\n      tag_178\n        /* \"SimpleSwap.sol\":2692:2770  _calculateWithdrawalAmounts(tokenA, tokenB, liquidity, amountAMin, amountBMin) */\n      jump\t// in\n    tag_177:\n        /* \"SimpleSwap.sol\":2671:2770  (amountA, amountB) = _calculateWithdrawalAmounts(tokenA, tokenB, liquidity, amountAMin, amountBMin) */\n      dup1\n      swap4\n      pop\n      dup2\n      swap5\n      pop\n      pop\n      pop\n        /* \"SimpleSwap.sol\":2814:2823  liquidity */\n      dup8\n        /* \"SimpleSwap.sol\":2783:2798  liquidityShares */\n      0x03\n        /* \"SimpleSwap.sol\":2783:2810  liquidityShares[msg.sender] */\n      0x00\n        /* \"SimpleSwap.sol\":2799:2809  msg.sender */\n      caller\n        /* \"SimpleSwap.sol\":2783:2810  liquidityShares[msg.sender] */\n      0xffffffffffffffffffffffffffffffffffffffff\n      and\n      0xffffffffffffffffffffffffffffffffffffffff\n      and\n      dup2\n      mstore\n      0x20\n      add\n      swap1\n      dup2\n      mstore\n      0x20\n      add\n      0x00\n      keccak256\n      0x00\n        /* \"SimpleSwap.sol\":2783:2823  liquidityShares[msg.sender] -= liquidity */\n      dup3\n      dup3\n      sload\n      tag_179\n      swap2\n      swap1\n      tag_180\n      jump\t// in\n    tag_179:\n      swap3\n      pop\n      pop\n      dup2\n      swap1\n      sstore\n      pop\n        /* \"SimpleSwap.sol\":2852:2861  liquidity */\n      dup8\n        /* \"SimpleSwap.sol\":2834:2848  totalLiquidity */\n      0x02\n      0x00\n        /* \"SimpleSwap.sol\":2834:2861  totalLiquidity -= liquidity */\n      dup3\n      dup3\n      sload\n      tag_181\n      swap2\n      swap1\n      tag_180\n      jump\t// in\n    tag_181:\n      swap3\n      pop\n      pop\n      dup2\n      swap1\n      sstore\n      pop\n        /* \"SimpleSwap.sol\":2874:2911  _executeTransfer(tokenA, to, amountA) */\n      tag_182\n        /* \"SimpleSwap.sol\":2891:2897  tokenA */\n      dup11\n        /* \"SimpleSwap.sol\":2899:2901  to */\n      dup7\n        /* \"SimpleSwap.sol\":2903:2910  amountA */\n      dup6\n        /* \"SimpleSwap.sol\":2874:2890  _executeTransfer */\n      tag_135\n        /* \"SimpleSwap.sol\":2874:2911  _executeTransfer(tokenA, to, amountA) */\n      jump\t// in\n    tag_182:\n        /* \"SimpleSwap.sol\":2922:2959  _executeTransfer(tokenB, to, amountB) */\n      tag_183\n        /* \"SimpleSwap.sol\":2939:2945  tokenB */\n      dup10\n        /* \"SimpleSwap.sol\":2947:2949  to */\n      dup7\n        /* \"SimpleSwap.sol\":2951:2958  amountB */\n      dup5\n        /* \"SimpleSwap.sol\":2922:2938  _executeTransfer */\n      tag_135\n        /* \"SimpleSwap.sol\":2922:2959  _executeTransfer(tokenB, to, amountB) */\n      jump\t// in\n    tag_183:\n        /* \"SimpleSwap.sol\":2994:2996  to */\n      dup5\n        /* \"SimpleSwap.sol\":2977:3026  LiquidityRemoved(to, amountA, amountB, liquidity) */\n      0xffffffffffffffffffffffffffffffffffffffff\n      and\n      0x1dc8bb69df2b8e91fbdcbfcf93d951b3f0000f085a95fe3f7946d6161439245d\n        /* \"SimpleSwap.sol\":2998:3005  amountA */\n      dup5\n        /* \"SimpleSwap.sol\":3007:3014  amountB */\n      dup5\n        /* \"SimpleSwap.sol\":3016:3025  liquidity */\n      dup12\n        /* \"SimpleSwap.sol\":2977:3026  LiquidityRemoved(to, amountA, amountB, liquidity) */\n      mload(0x40)\n      tag_184\n      swap4\n      swap3\n      swap2\n      swap1\n      tag_72\n      jump\t// in\n    tag_184:\n      mload(0x40)\n      dup1\n      swap2\n      sub\n      swap1\n      log2\n        /* \"SimpleSwap.sol\":2083:3034  function removeLiquidity(... */\n      pop\n      swap8\n      pop\n      swap8\n      swap6\n      pop\n      pop\n      pop\n      pop\n      pop\n      pop\n      jump\t// out\n        /* \"SimpleSwap.sol\":9135:9263  function getLiquidityShares(address user) external view returns (uint256 shares) {... */\n    tag_61:\n        /* \"SimpleSwap.sol\":9200:9214  uint256 shares */\n      0x00\n        /* \"SimpleSwap.sol\":9234:9249  liquidityShares */\n      0x03\n        /* \"SimpleSwap.sol\":9234:9255  liquidityShares[user] */\n      0x00\n        /* \"SimpleSwap.sol\":9250:9254  user */\n      dup4\n        /* \"SimpleSwap.sol\":9234:9255  liquidityShares[user] */\n      0xffffffffffffffffffffffffffffffffffffffff\n      and\n      0xffffffffffffffffffffffffffffffffffffffff\n      and\n      dup2\n      mstore\n      0x20\n      add\n      swap1\n      dup2\n      mstore\n      0x20\n      add\n      0x00\n      keccak256\n      sload\n        /* \"SimpleSwap.sol\":9227:9255  return liquidityShares[user] */\n      swap1\n      pop\n        /* \"SimpleSwap.sol\":9135:9263  function getLiquidityShares(address user) external view returns (uint256 shares) {... */\n      swap2\n      swap1\n      pop\n      jump\t// out\n        /* \"SimpleSwap.sol\":8978:9127  function getSupportedTokens() external view returns (address tokenA, address tokenB) {... */\n    tag_64:\n        /* \"SimpleSwap.sol\":9031:9045  address tokenA */\n      0x00\n        /* \"SimpleSwap.sol\":9047:9061  address tokenB */\n      0x00\n        /* \"SimpleSwap.sol\":9083:9091  tokenEKA */\n      0x00\n      0x00\n      swap1\n      sload\n      swap1\n      0x0100\n      exp\n      swap1\n      div\n      0xffffffffffffffffffffffffffffffffffffffff\n      and\n        /* \"SimpleSwap.sol\":9074:9091  tokenA = tokenEKA */\n      swap2\n      pop\n        /* \"SimpleSwap.sol\":9111:9119  tokenEKB */\n      0x01\n      0x00\n      swap1\n      sload\n      swap1\n      0x0100\n      exp\n      swap1\n      div\n      0xffffffffffffffffffffffffffffffffffffffff\n      and\n        /* \"SimpleSwap.sol\":9102:9119  tokenB = tokenEKB */\n      swap1\n      pop\n        /* \"SimpleSwap.sol\":8978:9127  function getSupportedTokens() external view returns (address tokenA, address tokenB) {... */\n      swap1\n      swap2\n      jump\t// out\n        /* \"SimpleSwap.sol\":1103:2075  function addLiquidity(... */\n    tag_70:\n        /* \"SimpleSwap.sol\":1389:1404  uint256 amountA */\n      0x00\n        /* \"SimpleSwap.sol\":1406:1421  uint256 amountB */\n      0x00\n        /* \"SimpleSwap.sol\":1423:1440  uint256 liquidity */\n      0x00\n        /* \"SimpleSwap.sol\":1370:1378  deadline */\n      dup4\n        /* \"SimpleSwap.sol\":1036:1051  block.timestamp */\n      timestamp\n        /* \"SimpleSwap.sol\":1024:1032  deadline */\n      dup2\n        /* \"SimpleSwap.sol\":1024:1051  deadline >= block.timestamp */\n      lt\n      iszero\n        /* \"SimpleSwap.sol\":1016:1075  require(deadline >= block.timestamp, \"Transaction expired\") */\n      tag_188\n      jumpi\n      mload(0x40)\n      0x08c379a000000000000000000000000000000000000000000000000000000000\n      dup2\n      mstore\n      0x04\n      add\n      tag_189\n      swap1\n      tag_98\n      jump\t// in\n    tag_189:\n      mload(0x40)\n      dup1\n      swap2\n      sub\n      swap1\n      revert\n    tag_188:\n        /* \"SimpleSwap.sol\":1471:1504  _isValidTokenPair(tokenA, tokenB) */\n      tag_191\n        /* \"SimpleSwap.sol\":1489:1495  tokenA */\n      dup13\n        /* \"SimpleSwap.sol\":1497:1503  tokenB */\n      dup13\n        /* \"SimpleSwap.sol\":1471:1488  _isValidTokenPair */\n      tag_114\n        /* \"SimpleSwap.sol\":1471:1504  _isValidTokenPair(tokenA, tokenB) */\n      jump\t// in\n    tag_191:\n        /* \"SimpleSwap.sol\":1463:1527  require(_isValidTokenPair(tokenA, tokenB), \"Invalid token pair\") */\n      tag_192\n      jumpi\n      mload(0x40)\n      0x08c379a000000000000000000000000000000000000000000000000000000000\n      dup2\n      mstore\n      0x04\n      add\n      tag_193\n      swap1\n      tag_117\n      jump\t// in\n    tag_193:\n      mload(0x40)\n      dup1\n      swap2\n      sub\n      swap1\n      revert\n    tag_192:\n        /* \"SimpleSwap.sol\":1560:1561  0 */\n      0x00\n        /* \"SimpleSwap.sol\":1546:1562  to != address(0) */\n      0xffffffffffffffffffffffffffffffffffffffff\n      and\n        /* \"SimpleSwap.sol\":1546:1548  to */\n      dup7\n        /* \"SimpleSwap.sol\":1546:1562  to != address(0) */\n      0xffffffffffffffffffffffffffffffffffffffff\n      and\n      sub\n        /* \"SimpleSwap.sol\":1538:1584  require(to != address(0), \"Invalid recipient\") */\n      tag_194\n      jumpi\n      mload(0x40)\n      0x08c379a000000000000000000000000000000000000000000000000000000000\n      dup2\n      mstore\n      0x04\n      add\n      tag_195\n      swap1\n      tag_105\n      jump\t// in\n    tag_195:\n      mload(0x40)\n      dup1\n      swap2\n      sub\n      swap1\n      revert\n    tag_194:\n        /* \"SimpleSwap.sol\":1637:1759  _calculateLiquidityAmounts(... */\n      tag_196\n        /* \"SimpleSwap.sol\":1678:1684  tokenA */\n      dup13\n        /* \"SimpleSwap.sol\":1686:1692  tokenB */\n      dup13\n        /* \"SimpleSwap.sol\":1694:1708  amountADesired */\n      dup13\n        /* \"SimpleSwap.sol\":1710:1724  amountBDesired */\n      dup13\n        /* \"SimpleSwap.sol\":1726:1736  amountAMin */\n      dup13\n        /* \"SimpleSwap.sol\":1738:1748  amountBMin */\n      dup13\n        /* \"SimpleSwap.sol\":1637:1663  _calculateLiquidityAmounts */\n      tag_197\n        /* \"SimpleSwap.sol\":1637:1759  _calculateLiquidityAmounts(... */\n      jump\t// in\n    tag_196:\n        /* \"SimpleSwap.sol\":1605:1759  (amountA, amountB, liquidity) = _calculateLiquidityAmounts(... */\n      dup1\n      swap5\n      pop\n      dup2\n      swap6\n      pop\n      dup3\n      swap7\n      pop\n      pop\n      pop\n      pop\n        /* \"SimpleSwap.sol\":1772:1836  _executeTransferFrom(tokenA, msg.sender, address(this), amountA) */\n      tag_198\n        /* \"SimpleSwap.sol\":1793:1799  tokenA */\n      dup13\n        /* \"SimpleSwap.sol\":1801:1811  msg.sender */\n      caller\n        /* \"SimpleSwap.sol\":1821:1825  this */\n      address\n        /* \"SimpleSwap.sol\":1828:1835  amountA */\n      dup8\n        /* \"SimpleSwap.sol\":1772:1792  _executeTransferFrom */\n      tag_130\n        /* \"SimpleSwap.sol\":1772:1836  _executeTransferFrom(tokenA, msg.sender, address(this), amountA) */\n      jump\t// in\n    tag_198:\n        /* \"SimpleSwap.sol\":1847:1911  _executeTransferFrom(tokenB, msg.sender, address(this), amountB) */\n      tag_199\n        /* \"SimpleSwap.sol\":1868:1874  tokenB */\n      dup12\n        /* \"SimpleSwap.sol\":1876:1886  msg.sender */\n      caller\n        /* \"SimpleSwap.sol\":1896:1900  this */\n      address\n        /* \"SimpleSwap.sol\":1903:1910  amountB */\n      dup7\n        /* \"SimpleSwap.sol\":1847:1867  _executeTransferFrom */\n      tag_130\n        /* \"SimpleSwap.sol\":1847:1911  _executeTransferFrom(tokenB, msg.sender, address(this), amountB) */\n      jump\t// in\n    tag_199:\n        /* \"SimpleSwap.sol\":1950:1959  liquidity */\n      dup2\n        /* \"SimpleSwap.sol\":1932:1946  totalLiquidity */\n      0x02\n      0x00\n        /* \"SimpleSwap.sol\":1932:1959  totalLiquidity += liquidity */\n      dup3\n      dup3\n      sload\n      tag_200\n      swap2\n      swap1\n      tag_85\n      jump\t// in\n    tag_200:\n      swap3\n      pop\n      pop\n      dup2\n      swap1\n      sstore\n      pop\n        /* \"SimpleSwap.sol\":1993:2002  liquidity */\n      dup2\n        /* \"SimpleSwap.sol\":1970:1985  liquidityShares */\n      0x03\n        /* \"SimpleSwap.sol\":1970:1989  liquidityShares[to] */\n      0x00\n        /* \"SimpleSwap.sol\":1986:1988  to */\n      dup9\n        /* \"SimpleSwap.sol\":1970:1989  liquidityShares[to] */\n      0xffffffffffffffffffffffffffffffffffffffff\n      and\n      0xffffffffffffffffffffffffffffffffffffffff\n      and\n      dup2\n      mstore\n      0x20\n      add\n      swap1\n      dup2\n      mstore\n      0x20\n      add\n      0x00\n      keccak256\n      0x00\n        /* \"SimpleSwap.sol\":1970:2002  liquidityShares[to] += liquidity */\n      dup3\n      dup3\n      sload\n      tag_201\n      swap2\n      swap1\n      tag_85\n      jump\t// in\n    tag_201:\n      swap3\n      pop\n      pop\n      dup2\n      swap1\n      sstore\n      pop\n        /* \"SimpleSwap.sol\":2035:2037  to */\n      dup6\n        /* \"SimpleSwap.sol\":2020:2067  LiquidityAdded(to, amountA, amountB, liquidity) */\n      0xffffffffffffffffffffffffffffffffffffffff\n      and\n      0x64b83944e79c3ce8d4c297411de637c3e102d064677aac0c163976ebdcd6f50e\n        /* \"SimpleSwap.sol\":2039:2046  amountA */\n      dup6\n        /* \"SimpleSwap.sol\":2048:2055  amountB */\n      dup6\n        /* \"SimpleSwap.sol\":2057:2066  liquidity */\n      dup6\n        /* \"SimpleSwap.sol\":2020:2067  LiquidityAdded(to, amountA, amountB, liquidity) */\n      mload(0x40)\n      tag_202\n      swap4\n      swap3\n      swap2\n      swap1\n      tag_72\n      jump\t// in\n    tag_202:\n      mload(0x40)\n      dup1\n      swap2\n      sub\n      swap1\n      log2\n        /* \"SimpleSwap.sol\":1103:2075  function addLiquidity(... */\n      pop\n      swap9\n      pop\n      swap9\n      pop\n      swap9\n      swap6\n      pop\n      pop\n      pop\n      pop\n      pop\n      pop\n      jump\t// out\n        /* \"SimpleSwap.sol\":94:117  address public tokenEKA */\n    tag_74:\n      0x00\n      0x00\n      swap1\n      sload\n      swap1\n      0x0100\n      exp\n      swap1\n      div\n      0xffffffffffffffffffffffffffffffffffffffff\n      and\n      dup2\n      jump\t// out\n        /* \"SimpleSwap.sol\":7469:7778  function _getBalance(address token) internal view returns (uint256 balance) {... */\n    tag_92:\n        /* \"SimpleSwap.sol\":7528:7543  uint256 balance */\n      0x00\n        /* \"SimpleSwap.sol\":7557:7569  bool success */\n      0x00\n        /* \"SimpleSwap.sol\":7571:7588  bytes memory data */\n      0x00\n        /* \"SimpleSwap.sol\":7592:7597  token */\n      dup4\n        /* \"SimpleSwap.sol\":7592:7608  token.staticcall */\n      0xffffffffffffffffffffffffffffffffffffffff\n      and\n        /* \"SimpleSwap.sol\":7663:7667  this */\n      address\n        /* \"SimpleSwap.sol\":7609:7669  abi.encodeWithSignature(\"balanceOf(address)\", address(this)) */\n      add(0x24, mload(0x40))\n      tag_204\n      swap2\n      swap1\n      tag_43\n      jump\t// in\n    tag_204:\n      mload(0x40)\n      0x20\n      dup2\n      dup4\n      sub\n      sub\n      dup2\n      mstore\n      swap1\n      0x40\n      mstore\n      and(not(0xffffffffffffffffffffffffffffffffffffffffffffffffffffffff), 0x70a0823100000000000000000000000000000000000000000000000000000000)\n      0x20\n      dup3\n      add\n      dup1\n      mload\n      0xffffffffffffffffffffffffffffffffffffffffffffffffffffffff\n      dup4\n      dup2\n      dup4\n      and\n      or\n      dup4\n      mstore\n      pop\n      pop\n      pop\n      pop\n        /* \"SimpleSwap.sol\":7592:7670  token.staticcall(abi.encodeWithSignature(\"balanceOf(address)\", address(this))) */\n      mload(0x40)\n      tag_205\n      swap2\n      swap1\n      tag_206\n      jump\t// in\n    tag_205:\n      0x00\n      mload(0x40)\n      dup1\n      dup4\n      sub\n      dup2\n      dup6\n      gas\n      staticcall\n      swap2\n      pop\n      pop\n      returndatasize\n      dup1\n      0x00\n      dup2\n      eq\n      tag_209\n      jumpi\n      mload(0x40)\n      swap2\n      pop\n      and(add(returndatasize, 0x3f), not(0x1f))\n      dup3\n      add\n      0x40\n      mstore\n      returndatasize\n      dup3\n      mstore\n      returndatasize\n      0x00\n      0x20\n      dup5\n      add\n      returndatacopy\n      jump(tag_208)\n    tag_209:\n      0x60\n      swap2\n      pop\n    tag_208:\n      pop\n        /* \"SimpleSwap.sol\":7556:7670  (bool success, bytes memory data) = token.staticcall(abi.encodeWithSignature(\"balanceOf(address)\", address(this))) */\n      swap2\n      pop\n      swap2\n      pop\n        /* \"SimpleSwap.sol\":7689:7696  success */\n      dup2\n        /* \"SimpleSwap.sol\":7681:7722  require(success, \"Failed to get balance\") */\n      tag_210\n      jumpi\n      mload(0x40)\n      0x08c379a000000000000000000000000000000000000000000000000000000000\n      dup2\n      mstore\n      0x04\n      add\n      tag_211\n      swap1\n      tag_212\n      jump\t// in\n    tag_211:\n      mload(0x40)\n      dup1\n      swap2\n      sub\n      swap1\n      revert\n    tag_210:\n        /* \"SimpleSwap.sol\":7754:7758  data */\n      dup1\n        /* \"SimpleSwap.sol\":7743:7770  abi.decode(data, (uint256)) */\n      dup1\n      0x20\n      add\n      swap1\n      mload\n      dup2\n      add\n      swap1\n      tag_213\n      swap2\n      swap1\n      tag_214\n      jump\t// in\n    tag_213:\n        /* \"SimpleSwap.sol\":7733:7770  balance = abi.decode(data, (uint256)) */\n      swap3\n      pop\n        /* \"SimpleSwap.sol\":7545:7778  {... */\n      pop\n      pop\n        /* \"SimpleSwap.sol\":7469:7778  function _getBalance(address token) internal view returns (uint256 balance) {... */\n      swap2\n      swap1\n      pop\n      jump\t// out\n        /* \"SimpleSwap.sol\":8312:8531  function _isValidTokenPair(address tokenA, address tokenB) internal view returns (bool) {... */\n    tag_114:\n        /* \"SimpleSwap.sol\":8394:8398  bool */\n      0x00\n        /* \"SimpleSwap.sol\":8429:8437  tokenEKA */\n      0x00\n      0x00\n      swap1\n      sload\n      swap1\n      0x0100\n      exp\n      swap1\n      div\n      0xffffffffffffffffffffffffffffffffffffffff\n      and\n        /* \"SimpleSwap.sol\":8419:8437  tokenA == tokenEKA */\n      0xffffffffffffffffffffffffffffffffffffffff\n      and\n        /* \"SimpleSwap.sol\":8419:8425  tokenA */\n      dup4\n        /* \"SimpleSwap.sol\":8419:8437  tokenA == tokenEKA */\n      0xffffffffffffffffffffffffffffffffffffffff\n      and\n      eq\n        /* \"SimpleSwap.sol\":8419:8459  tokenA == tokenEKA && tokenB == tokenEKB */\n      dup1\n      iszero\n      tag_216\n      jumpi\n      pop\n        /* \"SimpleSwap.sol\":8451:8459  tokenEKB */\n      0x01\n      0x00\n      swap1\n      sload\n      swap1\n      0x0100\n      exp\n      swap1\n      div\n      0xffffffffffffffffffffffffffffffffffffffff\n      and\n        /* \"SimpleSwap.sol\":8441:8459  tokenB == tokenEKB */\n      0xffffffffffffffffffffffffffffffffffffffff\n      and\n        /* \"SimpleSwap.sol\":8441:8447  tokenB */\n      dup3\n        /* \"SimpleSwap.sol\":8441:8459  tokenB == tokenEKB */\n      0xffffffffffffffffffffffffffffffffffffffff\n      and\n      eq\n        /* \"SimpleSwap.sol\":8419:8459  tokenA == tokenEKA && tokenB == tokenEKB */\n    tag_216:\n        /* \"SimpleSwap.sol\":8418:8523  (tokenA == tokenEKA && tokenB == tokenEKB) || ... */\n      dup1\n      tag_217\n      jumpi\n      pop\n        /* \"SimpleSwap.sol\":8492:8500  tokenEKB */\n      0x01\n      0x00\n      swap1\n      sload\n      swap1\n      0x0100\n      exp\n      swap1\n      div\n      0xffffffffffffffffffffffffffffffffffffffff\n      and\n        /* \"SimpleSwap.sol\":8482:8500  tokenA == tokenEKB */\n      0xffffffffffffffffffffffffffffffffffffffff\n      and\n        /* \"SimpleSwap.sol\":8482:8488  tokenA */\n      dup4\n        /* \"SimpleSwap.sol\":8482:8500  tokenA == tokenEKB */\n      0xffffffffffffffffffffffffffffffffffffffff\n      and\n      eq\n        /* \"SimpleSwap.sol\":8482:8522  tokenA == tokenEKB && tokenB == tokenEKA */\n      dup1\n      iszero\n      tag_218\n      jumpi\n      pop\n        /* \"SimpleSwap.sol\":8514:8522  tokenEKA */\n      0x00\n      0x00\n      swap1\n      sload\n      swap1\n      0x0100\n      exp\n      swap1\n      div\n      0xffffffffffffffffffffffffffffffffffffffff\n      and\n        /* \"SimpleSwap.sol\":8504:8522  tokenB == tokenEKA */\n      0xffffffffffffffffffffffffffffffffffffffff\n      and\n        /* \"SimpleSwap.sol\":8504:8510  tokenB */\n      dup3\n        /* \"SimpleSwap.sol\":8504:8522  tokenB == tokenEKA */\n      0xffffffffffffffffffffffffffffffffffffffff\n      and\n      eq\n        /* \"SimpleSwap.sol\":8482:8522  tokenA == tokenEKB && tokenB == tokenEKA */\n    tag_218:\n        /* \"SimpleSwap.sol\":8418:8523  (tokenA == tokenEKA && tokenB == tokenEKB) || ... */\n    tag_217:\n        /* \"SimpleSwap.sol\":8411:8523  return (tokenA == tokenEKA && tokenB == tokenEKB) || ... */\n      swap1\n      pop\n        /* \"SimpleSwap.sol\":8312:8531  function _isValidTokenPair(address tokenA, address tokenB) internal view returns (bool) {... */\n      swap3\n      swap2\n      pop\n      pop\n      jump\t// out\n        /* \"SimpleSwap.sol\":7003:7461  function _calculateSwapAmounts(... */\n    tag_125:\n        /* \"SimpleSwap.sol\":7175:7192  uint256 amountOut */\n      0x00\n        /* \"SimpleSwap.sol\":7215:7232  uint256 reserveIn */\n      0x00\n        /* \"SimpleSwap.sol\":7235:7255  _getBalance(tokenIn) */\n      tag_220\n        /* \"SimpleSwap.sol\":7247:7254  tokenIn */\n      dup7\n        /* \"SimpleSwap.sol\":7235:7246  _getBalance */\n      tag_92\n        /* \"SimpleSwap.sol\":7235:7255  _getBalance(tokenIn) */\n      jump\t// in\n    tag_220:\n        /* \"SimpleSwap.sol\":7215:7255  uint256 reserveIn = _getBalance(tokenIn) */\n      swap1\n      pop\n        /* \"SimpleSwap.sol\":7266:7284  uint256 reserveOut */\n      0x00\n        /* \"SimpleSwap.sol\":7287:7308  _getBalance(tokenOut) */\n      tag_221\n        /* \"SimpleSwap.sol\":7299:7307  tokenOut */\n      dup7\n        /* \"SimpleSwap.sol\":7287:7298  _getBalance */\n      tag_92\n        /* \"SimpleSwap.sol\":7287:7308  _getBalance(tokenOut) */\n      jump\t// in\n    tag_221:\n        /* \"SimpleSwap.sol\":7266:7308  uint256 reserveOut = _getBalance(tokenOut) */\n      swap1\n      pop\n        /* \"SimpleSwap.sol\":7333:7378  getAmountOut(amountIn, reserveIn, reserveOut) */\n      tag_222\n        /* \"SimpleSwap.sol\":7346:7354  amountIn */\n      dup6\n        /* \"SimpleSwap.sol\":7356:7365  reserveIn */\n      dup4\n        /* \"SimpleSwap.sol\":7367:7377  reserveOut */\n      dup4\n        /* \"SimpleSwap.sol\":7333:7345  getAmountOut */\n      tag_21\n        /* \"SimpleSwap.sol\":7333:7378  getAmountOut(amountIn, reserveIn, reserveOut) */\n      jump\t// in\n    tag_222:\n        /* \"SimpleSwap.sol\":7321:7378  amountOut = getAmountOut(amountIn, reserveIn, reserveOut) */\n      swap3\n      pop\n        /* \"SimpleSwap.sol\":7410:7422  amountOutMin */\n      dup4\n        /* \"SimpleSwap.sol\":7397:7406  amountOut */\n      dup4\n        /* \"SimpleSwap.sol\":7397:7422  amountOut >= amountOutMin */\n      lt\n      iszero\n        /* \"SimpleSwap.sol\":7389:7453  require(amountOut >= amountOutMin, \"Insufficient output amount\") */\n      tag_223\n      jumpi\n      mload(0x40)\n      0x08c379a000000000000000000000000000000000000000000000000000000000\n      dup2\n      mstore\n      0x04\n      add\n      tag_224\n      swap1\n      tag_225\n      jump\t// in\n    tag_224:\n      mload(0x40)\n      dup1\n      swap2\n      sub\n      swap1\n      revert\n    tag_223:\n        /* \"SimpleSwap.sol\":7194:7461  {... */\n      pop\n      pop\n        /* \"SimpleSwap.sol\":7003:7461  function _calculateSwapAmounts(... */\n      swap5\n      swap4\n      pop\n      pop\n      pop\n      pop\n      jump\t// out\n        /* \"SimpleSwap.sol\":7786:8059  function _executeTransferFrom(address token, address from, address to, uint256 amount) internal {... */\n    tag_130:\n        /* \"SimpleSwap.sol\":7894:7906  bool success */\n      0x00\n        /* \"SimpleSwap.sol\":7911:7916  token */\n      dup5\n        /* \"SimpleSwap.sol\":7911:7921  token.call */\n      0xffffffffffffffffffffffffffffffffffffffff\n      and\n        /* \"SimpleSwap.sol\":7987:7991  from */\n      dup5\n        /* \"SimpleSwap.sol\":7993:7995  to */\n      dup5\n        /* \"SimpleSwap.sol\":7997:8003  amount */\n      dup5\n        /* \"SimpleSwap.sol\":7922:8004  abi.encodeWithSignature(\"transferFrom(address,address,uint256)\", from, to, amount) */\n      add(0x24, mload(0x40))\n      tag_227\n      swap4\n      swap3\n      swap2\n      swap1\n      tag_228\n      jump\t// in\n    tag_227:\n      mload(0x40)\n      0x20\n      dup2\n      dup4\n      sub\n      sub\n      dup2\n      mstore\n      swap1\n      0x40\n      mstore\n      and(not(0xffffffffffffffffffffffffffffffffffffffffffffffffffffffff), 0x23b872dd00000000000000000000000000000000000000000000000000000000)\n      0x20\n      dup3\n      add\n      dup1\n      mload\n      0xffffffffffffffffffffffffffffffffffffffffffffffffffffffff\n      dup4\n      dup2\n      dup4\n      and\n      or\n      dup4\n      mstore\n      pop\n      pop\n      pop\n      pop\n        /* \"SimpleSwap.sol\":7911:8005  token.call(abi.encodeWithSignature(\"transferFrom(address,address,uint256)\", from, to, amount)) */\n      mload(0x40)\n      tag_229\n      swap2\n      swap1\n      tag_206\n      jump\t// in\n    tag_229:\n      0x00\n      mload(0x40)\n      dup1\n      dup4\n      sub\n      dup2\n      0x00\n      dup7\n      gas\n      call\n      swap2\n      pop\n      pop\n      returndatasize\n      dup1\n      0x00\n      dup2\n      eq\n      tag_232\n      jumpi\n      mload(0x40)\n      swap2\n      pop\n      and(add(returndatasize, 0x3f), not(0x1f))\n      dup3\n      add\n      0x40\n      mstore\n      returndatasize\n      dup3\n      mstore\n      returndatasize\n      0x00\n      0x20\n      dup5\n      add\n      returndatacopy\n      jump(tag_231)\n    tag_232:\n      0x60\n      swap2\n      pop\n    tag_231:\n      pop\n        /* \"SimpleSwap.sol\":7893:8005  (bool success,) = token.call(abi.encodeWithSignature(\"transferFrom(address,address,uint256)\", from, to, amount)) */\n      pop\n      swap1\n      pop\n        /* \"SimpleSwap.sol\":8024:8031  success */\n      dup1\n        /* \"SimpleSwap.sol\":8016:8051  require(success, \"Transfer failed\") */\n      tag_233\n      jumpi\n      mload(0x40)\n      0x08c379a000000000000000000000000000000000000000000000000000000000\n      dup2\n      mstore\n      0x04\n      add\n      tag_234\n      swap1\n      tag_235\n      jump\t// in\n    tag_234:\n      mload(0x40)\n      dup1\n      swap2\n      sub\n      swap1\n      revert\n    tag_233:\n        /* \"SimpleSwap.sol\":7882:8059  {... */\n      pop\n        /* \"SimpleSwap.sol\":7786:8059  function _executeTransferFrom(address token, address from, address to, uint256 amount) internal {... */\n      pop\n      pop\n      pop\n      pop\n      jump\t// out\n        /* \"SimpleSwap.sol\":8067:8304  function _executeTransfer(address token, address to, uint256 amount) internal {... */\n    tag_135:\n        /* \"SimpleSwap.sol\":8157:8169  bool success */\n      0x00\n        /* \"SimpleSwap.sol\":8174:8179  token */\n      dup4\n        /* \"SimpleSwap.sol\":8174:8184  token.call */\n      0xffffffffffffffffffffffffffffffffffffffff\n      and\n        /* \"SimpleSwap.sol\":8238:8240  to */\n      dup4\n        /* \"SimpleSwap.sol\":8242:8248  amount */\n      dup4\n        /* \"SimpleSwap.sol\":8185:8249  abi.encodeWithSignature(\"transfer(address,uint256)\", to, amount) */\n      add(0x24, mload(0x40))\n      tag_237\n      swap3\n      swap2\n      swap1\n      tag_238\n      jump\t// in\n    tag_237:\n      mload(0x40)\n      0x20\n      dup2\n      dup4\n      sub\n      sub\n      dup2\n      mstore\n      swap1\n      0x40\n      mstore\n      and(not(0xffffffffffffffffffffffffffffffffffffffffffffffffffffffff), 0xa9059cbb00000000000000000000000000000000000000000000000000000000)\n      0x20\n      dup3\n      add\n      dup1\n      mload\n      0xffffffffffffffffffffffffffffffffffffffffffffffffffffffff\n      dup4\n      dup2\n      dup4\n      and\n      or\n      dup4\n      mstore\n      pop\n      pop\n      pop\n      pop\n        /* \"SimpleSwap.sol\":8174:8250  token.call(abi.encodeWithSignature(\"transfer(address,uint256)\", to, amount)) */\n      mload(0x40)\n      tag_239\n      swap2\n      swap1\n      tag_206\n      jump\t// in\n    tag_239:\n      0x00\n      mload(0x40)\n      dup1\n      dup4\n      sub\n      dup2\n      0x00\n      dup7\n      gas\n      call\n      swap2\n      pop\n      pop\n      returndatasize\n      dup1\n      0x00\n      dup2\n      eq\n      tag_242\n      jumpi\n      mload(0x40)\n      swap2\n      pop\n      and(add(returndatasize, 0x3f), not(0x1f))\n      dup3\n      add\n      0x40\n      mstore\n      returndatasize\n      dup3\n      mstore\n      returndatasize\n      0x00\n      0x20\n      dup5\n      add\n      returndatacopy\n      jump(tag_241)\n    tag_242:\n      0x60\n      swap2\n      pop\n    tag_241:\n      pop\n        /* \"SimpleSwap.sol\":8156:8250  (bool success,) = token.call(abi.encodeWithSignature(\"transfer(address,uint256)\", to, amount)) */\n      pop\n      swap1\n      pop\n        /* \"SimpleSwap.sol\":8269:8276  success */\n      dup1\n        /* \"SimpleSwap.sol\":8261:8296  require(success, \"Transfer failed\") */\n      tag_243\n      jumpi\n      mload(0x40)\n      0x08c379a000000000000000000000000000000000000000000000000000000000\n      dup2\n      mstore\n      0x04\n      add\n      tag_244\n      swap1\n      tag_235\n      jump\t// in\n    tag_244:\n      mload(0x40)\n      dup1\n      swap2\n      sub\n      swap1\n      revert\n    tag_243:\n        /* \"SimpleSwap.sol\":8145:8304  {... */\n      pop\n        /* \"SimpleSwap.sol\":8067:8304  function _executeTransfer(address token, address to, uint256 amount) internal {... */\n      pop\n      pop\n      pop\n      jump\t// out\n        /* \"SimpleSwap.sol\":6370:6995  function _calculateWithdrawalAmounts(... */\n    tag_178:\n        /* \"SimpleSwap.sol\":6573:6588  uint256 amountA */\n      0x00\n        /* \"SimpleSwap.sol\":6590:6605  uint256 amountB */\n      0x00\n        /* \"SimpleSwap.sol\":6628:6644  uint256 reserveA */\n      0x00\n        /* \"SimpleSwap.sol\":6647:6666  _getBalance(tokenA) */\n      tag_246\n        /* \"SimpleSwap.sol\":6659:6665  tokenA */\n      dup9\n        /* \"SimpleSwap.sol\":6647:6658  _getBalance */\n      tag_92\n        /* \"SimpleSwap.sol\":6647:6666  _getBalance(tokenA) */\n      jump\t// in\n    tag_246:\n        /* \"SimpleSwap.sol\":6628:6666  uint256 reserveA = _getBalance(tokenA) */\n      swap1\n      pop\n        /* \"SimpleSwap.sol\":6677:6693  uint256 reserveB */\n      0x00\n        /* \"SimpleSwap.sol\":6696:6715  _getBalance(tokenB) */\n      tag_247\n        /* \"SimpleSwap.sol\":6708:6714  tokenB */\n      dup9\n        /* \"SimpleSwap.sol\":6696:6707  _getBalance */\n      tag_92\n        /* \"SimpleSwap.sol\":6696:6715  _getBalance(tokenB) */\n      jump\t// in\n    tag_247:\n        /* \"SimpleSwap.sol\":6677:6715  uint256 reserveB = _getBalance(tokenB) */\n      swap1\n      pop\n        /* \"SimpleSwap.sol\":6771:6785  totalLiquidity */\n      sload(0x02)\n        /* \"SimpleSwap.sol\":6759:6767  reserveA */\n      dup3\n        /* \"SimpleSwap.sol\":6747:6756  liquidity */\n      dup9\n        /* \"SimpleSwap.sol\":6747:6767  liquidity * reserveA */\n      tag_248\n      swap2\n      swap1\n      tag_87\n      jump\t// in\n    tag_248:\n        /* \"SimpleSwap.sol\":6746:6785  (liquidity * reserveA) / totalLiquidity */\n      tag_249\n      swap2\n      swap1\n      tag_89\n      jump\t// in\n    tag_249:\n        /* \"SimpleSwap.sol\":6736:6785  amountA = (liquidity * reserveA) / totalLiquidity */\n      swap4\n      pop\n        /* \"SimpleSwap.sol\":6831:6845  totalLiquidity */\n      sload(0x02)\n        /* \"SimpleSwap.sol\":6819:6827  reserveB */\n      dup2\n        /* \"SimpleSwap.sol\":6807:6816  liquidity */\n      dup9\n        /* \"SimpleSwap.sol\":6807:6827  liquidity * reserveB */\n      tag_250\n      swap2\n      swap1\n      tag_87\n      jump\t// in\n    tag_250:\n        /* \"SimpleSwap.sol\":6806:6845  (liquidity * reserveB) / totalLiquidity */\n      tag_251\n      swap2\n      swap1\n      tag_89\n      jump\t// in\n    tag_251:\n        /* \"SimpleSwap.sol\":6796:6845  amountB = (liquidity * reserveB) / totalLiquidity */\n      swap3\n      pop\n        /* \"SimpleSwap.sol\":6885:6895  amountAMin */\n      dup6\n        /* \"SimpleSwap.sol\":6874:6881  amountA */\n      dup5\n        /* \"SimpleSwap.sol\":6874:6895  amountA >= amountAMin */\n      lt\n      iszero\n        /* \"SimpleSwap.sol\":6866:6921  require(amountA >= amountAMin, \"Insufficient A amount\") */\n      tag_252\n      jumpi\n      mload(0x40)\n      0x08c379a000000000000000000000000000000000000000000000000000000000\n      dup2\n      mstore\n      0x04\n      add\n      tag_253\n      swap1\n      tag_254\n      jump\t// in\n    tag_253:\n      mload(0x40)\n      dup1\n      swap2\n      sub\n      swap1\n      revert\n    tag_252:\n        /* \"SimpleSwap.sol\":6951:6961  amountBMin */\n      dup5\n        /* \"SimpleSwap.sol\":6940:6947  amountB */\n      dup4\n        /* \"SimpleSwap.sol\":6940:6961  amountB >= amountBMin */\n      lt\n      iszero\n        /* \"SimpleSwap.sol\":6932:6987  require(amountB >= amountBMin, \"Insufficient B amount\") */\n      tag_255\n      jumpi\n      mload(0x40)\n      0x08c379a000000000000000000000000000000000000000000000000000000000\n      dup2\n      mstore\n      0x04\n      add\n      tag_256\n      swap1\n      tag_257\n      jump\t// in\n    tag_256:\n      mload(0x40)\n      dup1\n      swap2\n      sub\n      swap1\n      revert\n    tag_255:\n        /* \"SimpleSwap.sol\":6607:6995  {... */\n      pop\n      pop\n        /* \"SimpleSwap.sol\":6370:6995  function _calculateWithdrawalAmounts(... */\n      swap6\n      pop\n      swap6\n      swap4\n      pop\n      pop\n      pop\n      pop\n      jump\t// out\n        /* \"SimpleSwap.sol\":4758:6362  function _calculateLiquidityAmounts(... */\n    tag_197:\n        /* \"SimpleSwap.sol\":4998:5013  uint256 amountA */\n      0x00\n        /* \"SimpleSwap.sol\":5015:5030  uint256 amountB */\n      0x00\n        /* \"SimpleSwap.sol\":5032:5049  uint256 liquidity */\n      0x00\n        /* \"SimpleSwap.sol\":5072:5088  uint256 reserveA */\n      0x00\n        /* \"SimpleSwap.sol\":5091:5110  _getBalance(tokenA) */\n      tag_259\n        /* \"SimpleSwap.sol\":5103:5109  tokenA */\n      dup11\n        /* \"SimpleSwap.sol\":5091:5102  _getBalance */\n      tag_92\n        /* \"SimpleSwap.sol\":5091:5110  _getBalance(tokenA) */\n      jump\t// in\n    tag_259:\n        /* \"SimpleSwap.sol\":5072:5110  uint256 reserveA = _getBalance(tokenA) */\n      swap1\n      pop\n        /* \"SimpleSwap.sol\":5121:5137  uint256 reserveB */\n      0x00\n        /* \"SimpleSwap.sol\":5140:5159  _getBalance(tokenB) */\n      tag_260\n        /* \"SimpleSwap.sol\":5152:5158  tokenB */\n      dup11\n        /* \"SimpleSwap.sol\":5140:5151  _getBalance */\n      tag_92\n        /* \"SimpleSwap.sol\":5140:5159  _getBalance(tokenB) */\n      jump\t// in\n    tag_260:\n        /* \"SimpleSwap.sol\":5121:5159  uint256 reserveB = _getBalance(tokenB) */\n      swap1\n      pop\n        /* \"SimpleSwap.sol\":5196:5197  0 */\n      0x00\n        /* \"SimpleSwap.sol\":5184:5192  reserveA */\n      dup3\n        /* \"SimpleSwap.sol\":5184:5197  reserveA == 0 */\n      eq\n        /* \"SimpleSwap.sol\":5184:5214  reserveA == 0 && reserveB == 0 */\n      dup1\n      iszero\n      tag_261\n      jumpi\n      pop\n        /* \"SimpleSwap.sol\":5213:5214  0 */\n      0x00\n        /* \"SimpleSwap.sol\":5201:5209  reserveB */\n      dup2\n        /* \"SimpleSwap.sol\":5201:5214  reserveB == 0 */\n      eq\n        /* \"SimpleSwap.sol\":5184:5214  reserveA == 0 && reserveB == 0 */\n    tag_261:\n        /* \"SimpleSwap.sol\":5180:5944  if (reserveA == 0 && reserveB == 0) {... */\n      iszero\n      tag_262\n      jumpi\n        /* \"SimpleSwap.sol\":5241:5255  amountADesired */\n      dup9\n        /* \"SimpleSwap.sol\":5231:5255  amountA = amountADesired */\n      swap5\n      pop\n        /* \"SimpleSwap.sol\":5280:5294  amountBDesired */\n      dup8\n        /* \"SimpleSwap.sol\":5270:5294  amountB = amountBDesired */\n      swap4\n      pop\n        /* \"SimpleSwap.sol\":5180:5944  if (reserveA == 0 && reserveB == 0) {... */\n      jump(tag_263)\n    tag_262:\n        /* \"SimpleSwap.sol\":5327:5349  uint256 amountBOptimal */\n      0x00\n        /* \"SimpleSwap.sol\":5382:5390  reserveA */\n      dup3\n        /* \"SimpleSwap.sol\":5370:5378  reserveB */\n      dup3\n        /* \"SimpleSwap.sol\":5353:5367  amountADesired */\n      dup12\n        /* \"SimpleSwap.sol\":5353:5378  amountADesired * reserveB */\n      tag_264\n      swap2\n      swap1\n      tag_87\n      jump\t// in\n    tag_264:\n        /* \"SimpleSwap.sol\":5352:5390  (amountADesired * reserveB) / reserveA */\n      tag_265\n      swap2\n      swap1\n      tag_89\n      jump\t// in\n    tag_265:\n        /* \"SimpleSwap.sol\":5327:5390  uint256 amountBOptimal = (amountADesired * reserveB) / reserveA */\n      swap1\n      pop\n        /* \"SimpleSwap.sol\":5427:5441  amountBDesired */\n      dup9\n        /* \"SimpleSwap.sol\":5409:5423  amountBOptimal */\n      dup2\n        /* \"SimpleSwap.sol\":5409:5441  amountBOptimal <= amountBDesired */\n      gt\n        /* \"SimpleSwap.sol\":5405:5933  if (amountBOptimal <= amountBDesired) {... */\n      tag_266\n      jumpi\n        /* \"SimpleSwap.sol\":5488:5498  amountBMin */\n      dup7\n        /* \"SimpleSwap.sol\":5470:5484  amountBOptimal */\n      dup2\n        /* \"SimpleSwap.sol\":5470:5498  amountBOptimal >= amountBMin */\n      lt\n      iszero\n        /* \"SimpleSwap.sol\":5462:5524  require(amountBOptimal >= amountBMin, \"Insufficient B amount\") */\n      tag_267\n      jumpi\n      mload(0x40)\n      0x08c379a000000000000000000000000000000000000000000000000000000000\n      dup2\n      mstore\n      0x04\n      add\n      tag_268\n      swap1\n      tag_257\n      jump\t// in\n    tag_268:\n      mload(0x40)\n      dup1\n      swap2\n      sub\n      swap1\n      revert\n    tag_267:\n        /* \"SimpleSwap.sol\":5553:5567  amountADesired */\n      dup10\n        /* \"SimpleSwap.sol\":5543:5567  amountA = amountADesired */\n      swap6\n      pop\n        /* \"SimpleSwap.sol\":5596:5610  amountBOptimal */\n      dup1\n        /* \"SimpleSwap.sol\":5586:5610  amountB = amountBOptimal */\n      swap5\n      pop\n        /* \"SimpleSwap.sol\":5405:5933  if (amountBOptimal <= amountBDesired) {... */\n      jump(tag_269)\n    tag_266:\n        /* \"SimpleSwap.sol\":5651:5673  uint256 amountAOptimal */\n      0x00\n        /* \"SimpleSwap.sol\":5706:5714  reserveB */\n      dup3\n        /* \"SimpleSwap.sol\":5694:5702  reserveA */\n      dup5\n        /* \"SimpleSwap.sol\":5677:5691  amountBDesired */\n      dup12\n        /* \"SimpleSwap.sol\":5677:5702  amountBDesired * reserveA */\n      tag_270\n      swap2\n      swap1\n      tag_87\n      jump\t// in\n    tag_270:\n        /* \"SimpleSwap.sol\":5676:5714  (amountBDesired * reserveA) / reserveB */\n      tag_271\n      swap2\n      swap1\n      tag_89\n      jump\t// in\n    tag_271:\n        /* \"SimpleSwap.sol\":5651:5714  uint256 amountAOptimal = (amountBDesired * reserveA) / reserveB */\n      swap1\n      pop\n        /* \"SimpleSwap.sol\":5759:5773  amountADesired */\n      dup11\n        /* \"SimpleSwap.sol\":5741:5755  amountAOptimal */\n      dup2\n        /* \"SimpleSwap.sol\":5741:5773  amountAOptimal <= amountADesired */\n      gt\n      iszero\n        /* \"SimpleSwap.sol\":5741:5805  amountAOptimal <= amountADesired && amountAOptimal >= amountAMin */\n      dup1\n      iszero\n      tag_272\n      jumpi\n      pop\n        /* \"SimpleSwap.sol\":5795:5805  amountAMin */\n      dup9\n        /* \"SimpleSwap.sol\":5777:5791  amountAOptimal */\n      dup2\n        /* \"SimpleSwap.sol\":5777:5805  amountAOptimal >= amountAMin */\n      lt\n      iszero\n        /* \"SimpleSwap.sol\":5741:5805  amountAOptimal <= amountADesired && amountAOptimal >= amountAMin */\n    tag_272:\n        /* \"SimpleSwap.sol\":5733:5831  require(amountAOptimal <= amountADesired && amountAOptimal >= amountAMin, \"Insufficient A amount\") */\n      tag_273\n      jumpi\n      mload(0x40)\n      0x08c379a000000000000000000000000000000000000000000000000000000000\n      dup2\n      mstore\n      0x04\n      add\n      tag_274\n      swap1\n      tag_254\n      jump\t// in\n    tag_274:\n      mload(0x40)\n      dup1\n      swap2\n      sub\n      swap1\n      revert\n    tag_273:\n        /* \"SimpleSwap.sol\":5860:5874  amountAOptimal */\n      dup1\n        /* \"SimpleSwap.sol\":5850:5874  amountA = amountAOptimal */\n      swap7\n      pop\n        /* \"SimpleSwap.sol\":5903:5917  amountBDesired */\n      dup10\n        /* \"SimpleSwap.sol\":5893:5917  amountB = amountBDesired */\n      swap6\n      pop\n        /* \"SimpleSwap.sol\":5632:5933  {... */\n      pop\n        /* \"SimpleSwap.sol\":5405:5933  if (amountBOptimal <= amountBDesired) {... */\n    tag_269:\n        /* \"SimpleSwap.sol\":5312:5944  {... */\n      pop\n        /* \"SimpleSwap.sol\":5180:5944  if (reserveA == 0 && reserveB == 0) {... */\n    tag_263:\n        /* \"SimpleSwap.sol\":5978:5982  1000 */\n      0x03e8\n        /* \"SimpleSwap.sol\":5960:5974  totalLiquidity */\n      sload(0x02)\n        /* \"SimpleSwap.sol\":5960:5982  totalLiquidity == 1000 */\n      sub\n        /* \"SimpleSwap.sol\":5956:6287  if (totalLiquidity == 1000) {... */\n      tag_275\n      jumpi\n        /* \"SimpleSwap.sol\":6011:6035  _sqrt(amountA * amountB) */\n      tag_276\n        /* \"SimpleSwap.sol\":6027:6034  amountB */\n      dup5\n        /* \"SimpleSwap.sol\":6017:6024  amountA */\n      dup7\n        /* \"SimpleSwap.sol\":6017:6034  amountA * amountB */\n      tag_277\n      swap2\n      swap1\n      tag_87\n      jump\t// in\n    tag_277:\n        /* \"SimpleSwap.sol\":6011:6016  _sqrt */\n      tag_278\n        /* \"SimpleSwap.sol\":6011:6035  _sqrt(amountA * amountB) */\n      jump\t// in\n    tag_276:\n        /* \"SimpleSwap.sol\":5999:6035  liquidity = _sqrt(amountA * amountB) */\n      swap3\n      pop\n        /* \"SimpleSwap.sol\":5956:6287  if (totalLiquidity == 1000) {... */\n      jump(tag_279)\n    tag_275:\n        /* \"SimpleSwap.sol\":6068:6086  uint256 liquidityA */\n      0x00\n        /* \"SimpleSwap.sol\":6118:6126  reserveA */\n      dup3\n        /* \"SimpleSwap.sol\":6100:6114  totalLiquidity */\n      sload(0x02)\n        /* \"SimpleSwap.sol\":6090:6097  amountA */\n      dup8\n        /* \"SimpleSwap.sol\":6090:6114  amountA * totalLiquidity */\n      tag_280\n      swap2\n      swap1\n      tag_87\n      jump\t// in\n    tag_280:\n        /* \"SimpleSwap.sol\":6089:6126  (amountA * totalLiquidity) / reserveA */\n      tag_281\n      swap2\n      swap1\n      tag_89\n      jump\t// in\n    tag_281:\n        /* \"SimpleSwap.sol\":6068:6126  uint256 liquidityA = (amountA * totalLiquidity) / reserveA */\n      swap1\n      pop\n        /* \"SimpleSwap.sol\":6141:6159  uint256 liquidityB */\n      0x00\n        /* \"SimpleSwap.sol\":6191:6199  reserveB */\n      dup3\n        /* \"SimpleSwap.sol\":6173:6187  totalLiquidity */\n      sload(0x02)\n        /* \"SimpleSwap.sol\":6163:6170  amountB */\n      dup8\n        /* \"SimpleSwap.sol\":6163:6187  amountB * totalLiquidity */\n      tag_282\n      swap2\n      swap1\n      tag_87\n      jump\t// in\n    tag_282:\n        /* \"SimpleSwap.sol\":6162:6199  (amountB * totalLiquidity) / reserveB */\n      tag_283\n      swap2\n      swap1\n      tag_89\n      jump\t// in\n    tag_283:\n        /* \"SimpleSwap.sol\":6141:6199  uint256 liquidityB = (amountB * totalLiquidity) / reserveB */\n      swap1\n      pop\n        /* \"SimpleSwap.sol\":6239:6249  liquidityB */\n      dup1\n        /* \"SimpleSwap.sol\":6226:6236  liquidityA */\n      dup3\n        /* \"SimpleSwap.sol\":6226:6249  liquidityA < liquidityB */\n      lt\n        /* \"SimpleSwap.sol\":6226:6275  liquidityA < liquidityB ? liquidityA : liquidityB */\n      tag_284\n      jumpi\n        /* \"SimpleSwap.sol\":6265:6275  liquidityB */\n      dup1\n        /* \"SimpleSwap.sol\":6226:6275  liquidityA < liquidityB ? liquidityA : liquidityB */\n      jump(tag_285)\n    tag_284:\n        /* \"SimpleSwap.sol\":6252:6262  liquidityA */\n      dup2\n        /* \"SimpleSwap.sol\":6226:6275  liquidityA < liquidityB ? liquidityA : liquidityB */\n    tag_285:\n        /* \"SimpleSwap.sol\":6214:6275  liquidity = liquidityA < liquidityB ? liquidityA : liquidityB */\n      swap5\n      pop\n        /* \"SimpleSwap.sol\":6053:6287  {... */\n      pop\n      pop\n        /* \"SimpleSwap.sol\":5956:6287  if (totalLiquidity == 1000) {... */\n    tag_279:\n        /* \"SimpleSwap.sol\":6319:6320  0 */\n      0x00\n        /* \"SimpleSwap.sol\":6307:6316  liquidity */\n      dup4\n        /* \"SimpleSwap.sol\":6307:6320  liquidity > 0 */\n      gt\n        /* \"SimpleSwap.sol\":6299:6354  require(liquidity > 0, \"Insufficient liquidity minted\") */\n      tag_286\n      jumpi\n      mload(0x40)\n      0x08c379a000000000000000000000000000000000000000000000000000000000\n      dup2\n      mstore\n      0x04\n      add\n      tag_287\n      swap1\n      tag_288\n      jump\t// in\n    tag_287:\n      mload(0x40)\n      dup1\n      swap2\n      sub\n      swap1\n      revert\n    tag_286:\n        /* \"SimpleSwap.sol\":5051:6362  {... */\n      pop\n      pop\n        /* \"SimpleSwap.sol\":4758:6362  function _calculateLiquidityAmounts(... */\n      swap7\n      pop\n      swap7\n      pop\n      swap7\n      swap4\n      pop\n      pop\n      pop\n      pop\n      jump\t// out\n        /* \"SimpleSwap.sol\":8539:8778  function _sqrt(uint256 x) internal pure returns (uint256 y) {... */\n    tag_278:\n        /* \"SimpleSwap.sol\":8588:8597  uint256 y */\n      0x00\n        /* \"SimpleSwap.sol\":8619:8620  0 */\n      0x00\n        /* \"SimpleSwap.sol\":8614:8615  x */\n      dup3\n        /* \"SimpleSwap.sol\":8614:8620  x == 0 */\n      sub\n        /* \"SimpleSwap.sol\":8610:8630  if (x == 0) return 0 */\n      tag_290\n      jumpi\n        /* \"SimpleSwap.sol\":8629:8630  0 */\n      0x00\n        /* \"SimpleSwap.sol\":8622:8630  return 0 */\n      swap1\n      pop\n      jump(tag_289)\n        /* \"SimpleSwap.sol\":8610:8630  if (x == 0) return 0 */\n    tag_290:\n        /* \"SimpleSwap.sol\":8641:8650  uint256 z */\n      0x00\n        /* \"SimpleSwap.sol\":8663:8664  2 */\n      0x02\n        /* \"SimpleSwap.sol\":8658:8659  1 */\n      0x01\n        /* \"SimpleSwap.sol\":8654:8655  x */\n      dup5\n        /* \"SimpleSwap.sol\":8654:8659  x + 1 */\n      tag_291\n      swap2\n      swap1\n      tag_85\n      jump\t// in\n    tag_291:\n        /* \"SimpleSwap.sol\":8653:8664  (x + 1) / 2 */\n      tag_292\n      swap2\n      swap1\n      tag_89\n      jump\t// in\n    tag_292:\n        /* \"SimpleSwap.sol\":8641:8664  uint256 z = (x + 1) / 2 */\n      swap1\n      pop\n        /* \"SimpleSwap.sol\":8679:8680  x */\n      dup3\n        /* \"SimpleSwap.sol\":8675:8680  y = x */\n      swap2\n      pop\n        /* \"SimpleSwap.sol\":8691:8771  while (z < y) {... */\n    tag_293:\n        /* \"SimpleSwap.sol\":8702:8703  y */\n      dup2\n        /* \"SimpleSwap.sol\":8698:8699  z */\n      dup2\n        /* \"SimpleSwap.sol\":8698:8703  z < y */\n      lt\n        /* \"SimpleSwap.sol\":8691:8771  while (z < y) {... */\n      iszero\n      tag_294\n      jumpi\n        /* \"SimpleSwap.sol\":8724:8725  z */\n      dup1\n        /* \"SimpleSwap.sol\":8720:8725  y = z */\n      swap2\n      pop\n        /* \"SimpleSwap.sol\":8758:8759  2 */\n      0x02\n        /* \"SimpleSwap.sol\":8753:8754  z */\n      dup2\n        /* \"SimpleSwap.sol\":8749:8750  z */\n      dup3\n        /* \"SimpleSwap.sol\":8745:8746  x */\n      dup6\n        /* \"SimpleSwap.sol\":8745:8750  x / z */\n      tag_295\n      swap2\n      swap1\n      tag_89\n      jump\t// in\n    tag_295:\n        /* \"SimpleSwap.sol\":8745:8754  x / z + z */\n      tag_296\n      swap2\n      swap1\n      tag_85\n      jump\t// in\n    tag_296:\n        /* \"SimpleSwap.sol\":8744:8759  (x / z + z) / 2 */\n      tag_297\n      swap2\n      swap1\n      tag_89\n      jump\t// in\n    tag_297:\n        /* \"SimpleSwap.sol\":8740:8759  z = (x / z + z) / 2 */\n      swap1\n      pop\n        /* \"SimpleSwap.sol\":8691:8771  while (z < y) {... */\n      jump(tag_293)\n    tag_294:\n        /* \"SimpleSwap.sol\":8599:8778  {... */\n      pop\n        /* \"SimpleSwap.sol\":8539:8778  function _sqrt(uint256 x) internal pure returns (uint256 y) {... */\n    tag_289:\n      swap2\n      swap1\n      pop\n      jump\t// out\n        /* \"#utility.yul\":88:205   */\n    tag_299:\n        /* \"#utility.yul\":197:198   */\n      0x00\n        /* \"#utility.yul\":194:195   */\n      0x00\n        /* \"#utility.yul\":187:199   */\n      revert\n        /* \"#utility.yul\":211:328   */\n    tag_300:\n        /* \"#utility.yul\":320:321   */\n      0x00\n        /* \"#utility.yul\":317:318   */\n      0x00\n        /* \"#utility.yul\":310:322   */\n      revert\n        /* \"#utility.yul\":334:411   */\n    tag_301:\n        /* \"#utility.yul\":371:378   */\n      0x00\n        /* \"#utility.yul\":400:405   */\n      dup2\n        /* \"#utility.yul\":389:405   */\n      swap1\n      pop\n        /* \"#utility.yul\":334:411   */\n      swap2\n      swap1\n      pop\n      jump\t// out\n        /* \"#utility.yul\":417:539   */\n    tag_302:\n        /* \"#utility.yul\":490:514   */\n      tag_363\n        /* \"#utility.yul\":508:513   */\n      dup2\n        /* \"#utility.yul\":490:514   */\n      tag_301\n      jump\t// in\n    tag_363:\n        /* \"#utility.yul\":483:488   */\n      dup2\n        /* \"#utility.yul\":480:515   */\n      eq\n        /* \"#utility.yul\":470:533   */\n      tag_364\n      jumpi\n        /* \"#utility.yul\":529:530   */\n      0x00\n        /* \"#utility.yul\":526:527   */\n      0x00\n        /* \"#utility.yul\":519:531   */\n      revert\n        /* \"#utility.yul\":470:533   */\n    tag_364:\n        /* \"#utility.yul\":417:539   */\n      pop\n      jump\t// out\n        /* \"#utility.yul\":545:684   */\n    tag_303:\n        /* \"#utility.yul\":591:596   */\n      0x00\n        /* \"#utility.yul\":629:635   */\n      dup2\n        /* \"#utility.yul\":616:636   */\n      calldataload\n        /* \"#utility.yul\":607:636   */\n      swap1\n      pop\n        /* \"#utility.yul\":645:678   */\n      tag_366\n        /* \"#utility.yul\":672:677   */\n      dup2\n        /* \"#utility.yul\":645:678   */\n      tag_302\n      jump\t// in\n    tag_366:\n        /* \"#utility.yul\":545:684   */\n      swap3\n      swap2\n      pop\n      pop\n      jump\t// out\n        /* \"#utility.yul\":690:1309   */\n    tag_20:\n        /* \"#utility.yul\":767:773   */\n      0x00\n        /* \"#utility.yul\":775:781   */\n      0x00\n        /* \"#utility.yul\":783:789   */\n      0x00\n        /* \"#utility.yul\":832:834   */\n      0x60\n        /* \"#utility.yul\":820:829   */\n      dup5\n        /* \"#utility.yul\":811:818   */\n      dup7\n        /* \"#utility.yul\":807:830   */\n      sub\n        /* \"#utility.yul\":803:835   */\n      slt\n        /* \"#utility.yul\":800:919   */\n      iszero\n      tag_368\n      jumpi\n        /* \"#utility.yul\":838:917   */\n      tag_369\n      tag_299\n      jump\t// in\n    tag_369:\n        /* \"#utility.yul\":800:919   */\n    tag_368:\n        /* \"#utility.yul\":958:959   */\n      0x00\n        /* \"#utility.yul\":983:1036   */\n      tag_370\n        /* \"#utility.yul\":1028:1035   */\n      dup7\n        /* \"#utility.yul\":1019:1025   */\n      dup3\n        /* \"#utility.yul\":1008:1017   */\n      dup8\n        /* \"#utility.yul\":1004:1026   */\n      add\n        /* \"#utility.yul\":983:1036   */\n      tag_303\n      jump\t// in\n    tag_370:\n        /* \"#utility.yul\":973:1036   */\n      swap4\n      pop\n        /* \"#utility.yul\":929:1046   */\n      pop\n        /* \"#utility.yul\":1085:1087   */\n      0x20\n        /* \"#utility.yul\":1111:1164   */\n      tag_371\n        /* \"#utility.yul\":1156:1163   */\n      dup7\n        /* \"#utility.yul\":1147:1153   */\n      dup3\n        /* \"#utility.yul\":1136:1145   */\n      dup8\n        /* \"#utility.yul\":1132:1154   */\n      add\n        /* \"#utility.yul\":1111:1164   */\n      tag_303\n      jump\t// in\n    tag_371:\n        /* \"#utility.yul\":1101:1164   */\n      swap3\n      pop\n        /* \"#utility.yul\":1056:1174   */\n      pop\n        /* \"#utility.yul\":1213:1215   */\n      0x40\n        /* \"#utility.yul\":1239:1292   */\n      tag_372\n        /* \"#utility.yul\":1284:1291   */\n      dup7\n        /* \"#utility.yul\":1275:1281   */\n      dup3\n        /* \"#utility.yul\":1264:1273   */\n      dup8\n        /* \"#utility.yul\":1260:1282   */\n      add\n        /* \"#utility.yul\":1239:1292   */\n      tag_303\n      jump\t// in\n    tag_372:\n        /* \"#utility.yul\":1229:1292   */\n      swap2\n      pop\n        /* \"#utility.yul\":1184:1302   */\n      pop\n        /* \"#utility.yul\":690:1309   */\n      swap3\n      pop\n      swap3\n      pop\n      swap3\n      jump\t// out\n        /* \"#utility.yul\":1315:1433   */\n    tag_304:\n        /* \"#utility.yul\":1402:1426   */\n      tag_374\n        /* \"#utility.yul\":1420:1425   */\n      dup2\n        /* \"#utility.yul\":1402:1426   */\n      tag_301\n      jump\t// in\n    tag_374:\n        /* \"#utility.yul\":1397:1400   */\n      dup3\n        /* \"#utility.yul\":1390:1427   */\n      mstore\n        /* \"#utility.yul\":1315:1433   */\n      pop\n      pop\n      jump\t// out\n        /* \"#utility.yul\":1439:1661   */\n    tag_23:\n        /* \"#utility.yul\":1532:1536   */\n      0x00\n        /* \"#utility.yul\":1570:1572   */\n      0x20\n        /* \"#utility.yul\":1559:1568   */\n      dup3\n        /* \"#utility.yul\":1555:1573   */\n      add\n        /* \"#utility.yul\":1547:1573   */\n      swap1\n      pop\n        /* \"#utility.yul\":1583:1654   */\n      tag_376\n        /* \"#utility.yul\":1651:1652   */\n      0x00\n        /* \"#utility.yul\":1640:1649   */\n      dup4\n        /* \"#utility.yul\":1636:1653   */\n      add\n        /* \"#utility.yul\":1627:1633   */\n      dup5\n        /* \"#utility.yul\":1583:1654   */\n      tag_304\n      jump\t// in\n    tag_376:\n        /* \"#utility.yul\":1439:1661   */\n      swap3\n      swap2\n      pop\n      pop\n      jump\t// out\n        /* \"#utility.yul\":1667:1999   */\n    tag_27:\n        /* \"#utility.yul\":1788:1792   */\n      0x00\n        /* \"#utility.yul\":1826:1828   */\n      0x40\n        /* \"#utility.yul\":1815:1824   */\n      dup3\n        /* \"#utility.yul\":1811:1829   */\n      add\n        /* \"#utility.yul\":1803:1829   */\n      swap1\n      pop\n        /* \"#utility.yul\":1839:1910   */\n      tag_378\n        /* \"#utility.yul\":1907:1908   */\n      0x00\n        /* \"#utility.yul\":1896:1905   */\n      dup4\n        /* \"#utility.yul\":1892:1909   */\n      add\n        /* \"#utility.yul\":1883:1889   */\n      dup6\n        /* \"#utility.yul\":1839:1910   */\n      tag_304\n      jump\t// in\n    tag_378:\n        /* \"#utility.yul\":1920:1992   */\n      tag_379\n        /* \"#utility.yul\":1988:1990   */\n      0x20\n        /* \"#utility.yul\":1977:1986   */\n      dup4\n        /* \"#utility.yul\":1973:1991   */\n      add\n        /* \"#utility.yul\":1964:1970   */\n      dup5\n        /* \"#utility.yul\":1920:1992   */\n      tag_304\n      jump\t// in\n    tag_379:\n        /* \"#utility.yul\":1667:1999   */\n      swap4\n      swap3\n      pop\n      pop\n      pop\n      jump\t// out\n        /* \"#utility.yul\":2005:2122   */\n    tag_305:\n        /* \"#utility.yul\":2114:2115   */\n      0x00\n        /* \"#utility.yul\":2111:2112   */\n      0x00\n        /* \"#utility.yul\":2104:2116   */\n      revert\n        /* \"#utility.yul\":2128:2245   */\n    tag_306:\n        /* \"#utility.yul\":2237:2238   */\n      0x00\n        /* \"#utility.yul\":2234:2235   */\n      0x00\n        /* \"#utility.yul\":2227:2239   */\n      revert\n        /* \"#utility.yul\":2251:2368   */\n    tag_307:\n        /* \"#utility.yul\":2360:2361   */\n      0x00\n        /* \"#utility.yul\":2357:2358   */\n      0x00\n        /* \"#utility.yul\":2350:2362   */\n      revert\n        /* \"#utility.yul\":2391:2959   */\n    tag_308:\n        /* \"#utility.yul\":2464:2472   */\n      0x00\n        /* \"#utility.yul\":2474:2480   */\n      0x00\n        /* \"#utility.yul\":2524:2527   */\n      dup4\n        /* \"#utility.yul\":2517:2521   */\n      0x1f\n        /* \"#utility.yul\":2509:2515   */\n      dup5\n        /* \"#utility.yul\":2505:2522   */\n      add\n        /* \"#utility.yul\":2501:2528   */\n      slt\n        /* \"#utility.yul\":2491:2613   */\n      tag_384\n      jumpi\n        /* \"#utility.yul\":2532:2611   */\n      tag_385\n      tag_305\n      jump\t// in\n    tag_385:\n        /* \"#utility.yul\":2491:2613   */\n    tag_384:\n        /* \"#utility.yul\":2645:2651   */\n      dup3\n        /* \"#utility.yul\":2632:2652   */\n      calldataload\n        /* \"#utility.yul\":2622:2652   */\n      swap1\n      pop\n        /* \"#utility.yul\":2675:2693   */\n      0xffffffffffffffff\n        /* \"#utility.yul\":2667:2673   */\n      dup2\n        /* \"#utility.yul\":2664:2694   */\n      gt\n        /* \"#utility.yul\":2661:2778   */\n      iszero\n      tag_386\n      jumpi\n        /* \"#utility.yul\":2697:2776   */\n      tag_387\n      tag_306\n      jump\t// in\n    tag_387:\n        /* \"#utility.yul\":2661:2778   */\n    tag_386:\n        /* \"#utility.yul\":2811:2815   */\n      0x20\n        /* \"#utility.yul\":2803:2809   */\n      dup4\n        /* \"#utility.yul\":2799:2816   */\n      add\n        /* \"#utility.yul\":2787:2816   */\n      swap2\n      pop\n        /* \"#utility.yul\":2865:2868   */\n      dup4\n        /* \"#utility.yul\":2857:2861   */\n      0x20\n        /* \"#utility.yul\":2849:2855   */\n      dup3\n        /* \"#utility.yul\":2845:2862   */\n      mul\n        /* \"#utility.yul\":2835:2843   */\n      dup4\n        /* \"#utility.yul\":2831:2863   */\n      add\n        /* \"#utility.yul\":2828:2869   */\n      gt\n        /* \"#utility.yul\":2825:2953   */\n      iszero\n      tag_388\n      jumpi\n        /* \"#utility.yul\":2872:2951   */\n      tag_389\n      tag_307\n      jump\t// in\n    tag_389:\n        /* \"#utility.yul\":2825:2953   */\n    tag_388:\n        /* \"#utility.yul\":2391:2959   */\n      swap3\n      pop\n      swap3\n      swap1\n      pop\n      jump\t// out\n        /* \"#utility.yul\":2965:3091   */\n    tag_309:\n        /* \"#utility.yul\":3002:3009   */\n      0x00\n        /* \"#utility.yul\":3042:3084   */\n      0xffffffffffffffffffffffffffffffffffffffff\n        /* \"#utility.yul\":3035:3040   */\n      dup3\n        /* \"#utility.yul\":3031:3085   */\n      and\n        /* \"#utility.yul\":3020:3085   */\n      swap1\n      pop\n        /* \"#utility.yul\":2965:3091   */\n      swap2\n      swap1\n      pop\n      jump\t// out\n        /* \"#utility.yul\":3097:3193   */\n    tag_310:\n        /* \"#utility.yul\":3134:3141   */\n      0x00\n        /* \"#utility.yul\":3163:3187   */\n      tag_392\n        /* \"#utility.yul\":3181:3186   */\n      dup3\n        /* \"#utility.yul\":3163:3187   */\n      tag_309\n      jump\t// in\n    tag_392:\n        /* \"#utility.yul\":3152:3187   */\n      swap1\n      pop\n        /* \"#utility.yul\":3097:3193   */\n      swap2\n      swap1\n      pop\n      jump\t// out\n        /* \"#utility.yul\":3199:3321   */\n    tag_311:\n        /* \"#utility.yul\":3272:3296   */\n      tag_394\n        /* \"#utility.yul\":3290:3295   */\n      dup2\n        /* \"#utility.yul\":3272:3296   */\n      tag_310\n      jump\t// in\n    tag_394:\n        /* \"#utility.yul\":3265:3270   */\n      dup2\n        /* \"#utility.yul\":3262:3297   */\n      eq\n        /* \"#utility.yul\":3252:3315   */\n      tag_395\n      jumpi\n        /* \"#utility.yul\":3311:3312   */\n      0x00\n        /* \"#utility.yul\":3308:3309   */\n      0x00\n        /* \"#utility.yul\":3301:3313   */\n      revert\n        /* \"#utility.yul\":3252:3315   */\n    tag_395:\n        /* \"#utility.yul\":3199:3321   */\n      pop\n      jump\t// out\n        /* \"#utility.yul\":3327:3466   */\n    tag_312:\n        /* \"#utility.yul\":3373:3378   */\n      0x00\n        /* \"#utility.yul\":3411:3417   */\n      dup2\n        /* \"#utility.yul\":3398:3418   */\n      calldataload\n        /* \"#utility.yul\":3389:3418   */\n      swap1\n      pop\n        /* \"#utility.yul\":3427:3460   */\n      tag_397\n        /* \"#utility.yul\":3454:3459   */\n      dup2\n        /* \"#utility.yul\":3427:3460   */\n      tag_311\n      jump\t// in\n    tag_397:\n        /* \"#utility.yul\":3327:3466   */\n      swap3\n      swap2\n      pop\n      pop\n      jump\t// out\n        /* \"#utility.yul\":3472:4613   */\n    tag_36:\n        /* \"#utility.yul\":3594:3600   */\n      0x00\n        /* \"#utility.yul\":3602:3608   */\n      0x00\n        /* \"#utility.yul\":3610:3616   */\n      0x00\n        /* \"#utility.yul\":3618:3624   */\n      0x00\n        /* \"#utility.yul\":3626:3632   */\n      0x00\n        /* \"#utility.yul\":3634:3640   */\n      0x00\n        /* \"#utility.yul\":3683:3686   */\n      0xa0\n        /* \"#utility.yul\":3671:3680   */\n      dup8\n        /* \"#utility.yul\":3662:3669   */\n      dup10\n        /* \"#utility.yul\":3658:3681   */\n      sub\n        /* \"#utility.yul\":3654:3687   */\n      slt\n        /* \"#utility.yul\":3651:3771   */\n      iszero\n      tag_399\n      jumpi\n        /* \"#utility.yul\":3690:3769   */\n      tag_400\n      tag_299\n      jump\t// in\n    tag_400:\n        /* \"#utility.yul\":3651:3771   */\n    tag_399:\n        /* \"#utility.yul\":3810:3811   */\n      0x00\n        /* \"#utility.yul\":3835:3888   */\n      tag_401\n        /* \"#utility.yul\":3880:3887   */\n      dup10\n        /* \"#utility.yul\":3871:3877   */\n      dup3\n        /* \"#utility.yul\":3860:3869   */\n      dup11\n        /* \"#utility.yul\":3856:3878   */\n      add\n        /* \"#utility.yul\":3835:3888   */\n      tag_303\n      jump\t// in\n    tag_401:\n        /* \"#utility.yul\":3825:3888   */\n      swap7\n      pop\n        /* \"#utility.yul\":3781:3898   */\n      pop\n        /* \"#utility.yul\":3937:3939   */\n      0x20\n        /* \"#utility.yul\":3963:4016   */\n      tag_402\n        /* \"#utility.yul\":4008:4015   */\n      dup10\n        /* \"#utility.yul\":3999:4005   */\n      dup3\n        /* \"#utility.yul\":3988:3997   */\n      dup11\n        /* \"#utility.yul\":3984:4006   */\n      add\n        /* \"#utility.yul\":3963:4016   */\n      tag_303\n      jump\t// in\n    tag_402:\n        /* \"#utility.yul\":3953:4016   */\n      swap6\n      pop\n        /* \"#utility.yul\":3908:4026   */\n      pop\n        /* \"#utility.yul\":4093:4095   */\n      0x40\n        /* \"#utility.yul\":4082:4091   */\n      dup8\n        /* \"#utility.yul\":4078:4096   */\n      add\n        /* \"#utility.yul\":4065:4097   */\n      calldataload\n        /* \"#utility.yul\":4124:4142   */\n      0xffffffffffffffff\n        /* \"#utility.yul\":4116:4122   */\n      dup2\n        /* \"#utility.yul\":4113:4143   */\n      gt\n        /* \"#utility.yul\":4110:4227   */\n      iszero\n      tag_403\n      jumpi\n        /* \"#utility.yul\":4146:4225   */\n      tag_404\n      tag_300\n      jump\t// in\n    tag_404:\n        /* \"#utility.yul\":4110:4227   */\n    tag_403:\n        /* \"#utility.yul\":4259:4339   */\n      tag_405\n        /* \"#utility.yul\":4331:4338   */\n      dup10\n        /* \"#utility.yul\":4322:4328   */\n      dup3\n        /* \"#utility.yul\":4311:4320   */\n      dup11\n        /* \"#utility.yul\":4307:4329   */\n      add\n        /* \"#utility.yul\":4259:4339   */\n      tag_308\n      jump\t// in\n    tag_405:\n        /* \"#utility.yul\":4241:4339   */\n      swap5\n      pop\n      swap5\n      pop\n        /* \"#utility.yul\":4036:4349   */\n      pop\n        /* \"#utility.yul\":4388:4390   */\n      0x60\n        /* \"#utility.yul\":4414:4467   */\n      tag_406\n        /* \"#utility.yul\":4459:4466   */\n      dup10\n        /* \"#utility.yul\":4450:4456   */\n      dup3\n        /* \"#utility.yul\":4439:4448   */\n      dup11\n        /* \"#utility.yul\":4435:4457   */\n      add\n        /* \"#utility.yul\":4414:4467   */\n      tag_312\n      jump\t// in\n    tag_406:\n        /* \"#utility.yul\":4404:4467   */\n      swap3\n      pop\n        /* \"#utility.yul\":4359:4477   */\n      pop\n        /* \"#utility.yul\":4516:4519   */\n      0x80\n        /* \"#utility.yul\":4543:4596   */\n      tag_407\n        /* \"#utility.yul\":4588:4595   */\n      dup10\n        /* \"#utility.yul\":4579:4585   */\n      dup3\n        /* \"#utility.yul\":4568:4577   */\n      dup11\n        /* \"#utility.yul\":4564:4586   */\n      add\n        /* \"#utility.yul\":4543:4596   */\n      tag_303\n      jump\t// in\n    tag_407:\n        /* \"#utility.yul\":4533:4596   */\n      swap2\n      pop\n        /* \"#utility.yul\":4487:4606   */\n      pop\n        /* \"#utility.yul\":3472:4613   */\n      swap3\n      swap6\n      pop\n      swap3\n      swap6\n      pop\n      swap3\n      swap6\n      jump\t// out\n        /* \"#utility.yul\":4619:4733   */\n    tag_313:\n        /* \"#utility.yul\":4686:4692   */\n      0x00\n        /* \"#utility.yul\":4720:4725   */\n      dup2\n        /* \"#utility.yul\":4714:4726   */\n      mload\n        /* \"#utility.yul\":4704:4726   */\n      swap1\n      pop\n        /* \"#utility.yul\":4619:4733   */\n      swap2\n      swap1\n      pop\n      jump\t// out\n        /* \"#utility.yul\":4739:4923   */\n    tag_314:\n        /* \"#utility.yul\":4838:4849   */\n      0x00\n        /* \"#utility.yul\":4872:4878   */\n      dup3\n        /* \"#utility.yul\":4867:4870   */\n      dup3\n        /* \"#utility.yul\":4860:4879   */\n      mstore\n        /* \"#utility.yul\":4912:4916   */\n      0x20\n        /* \"#utility.yul\":4907:4910   */\n      dup3\n        /* \"#utility.yul\":4903:4917   */\n      add\n        /* \"#utility.yul\":4888:4917   */\n      swap1\n      pop\n        /* \"#utility.yul\":4739:4923   */\n      swap3\n      swap2\n      pop\n      pop\n      jump\t// out\n        /* \"#utility.yul\":4929:5061   */\n    tag_315:\n        /* \"#utility.yul\":4996:5000   */\n      0x00\n        /* \"#utility.yul\":5019:5022   */\n      dup2\n        /* \"#utility.yul\":5011:5022   */\n      swap1\n      pop\n        /* \"#utility.yul\":5049:5053   */\n      0x20\n        /* \"#utility.yul\":5044:5047   */\n      dup3\n        /* \"#utility.yul\":5040:5054   */\n      add\n        /* \"#utility.yul\":5032:5054   */\n      swap1\n      pop\n        /* \"#utility.yul\":4929:5061   */\n      swap2\n      swap1\n      pop\n      jump\t// out\n        /* \"#utility.yul\":5067:5175   */\n    tag_316:\n        /* \"#utility.yul\":5144:5168   */\n      tag_412\n        /* \"#utility.yul\":5162:5167   */\n      dup2\n        /* \"#utility.yul\":5144:5168   */\n      tag_301\n      jump\t// in\n    tag_412:\n        /* \"#utility.yul\":5139:5142   */\n      dup3\n        /* \"#utility.yul\":5132:5169   */\n      mstore\n        /* \"#utility.yul\":5067:5175   */\n      pop\n      pop\n      jump\t// out\n        /* \"#utility.yul\":5181:5360   */\n    tag_317:\n        /* \"#utility.yul\":5250:5260   */\n      0x00\n        /* \"#utility.yul\":5271:5317   */\n      tag_414\n        /* \"#utility.yul\":5313:5316   */\n      dup4\n        /* \"#utility.yul\":5305:5311   */\n      dup4\n        /* \"#utility.yul\":5271:5317   */\n      tag_316\n      jump\t// in\n    tag_414:\n        /* \"#utility.yul\":5349:5353   */\n      0x20\n        /* \"#utility.yul\":5344:5347   */\n      dup4\n        /* \"#utility.yul\":5340:5354   */\n      add\n        /* \"#utility.yul\":5326:5354   */\n      swap1\n      pop\n        /* \"#utility.yul\":5181:5360   */\n      swap3\n      swap2\n      pop\n      pop\n      jump\t// out\n        /* \"#utility.yul\":5366:5479   */\n    tag_318:\n        /* \"#utility.yul\":5436:5440   */\n      0x00\n        /* \"#utility.yul\":5468:5472   */\n      0x20\n        /* \"#utility.yul\":5463:5466   */\n      dup3\n        /* \"#utility.yul\":5459:5473   */\n      add\n        /* \"#utility.yul\":5451:5473   */\n      swap1\n      pop\n        /* \"#utility.yul\":5366:5479   */\n      swap2\n      swap1\n      pop\n      jump\t// out\n        /* \"#utility.yul\":5515:6247   */\n    tag_319:\n        /* \"#utility.yul\":5634:5637   */\n      0x00\n        /* \"#utility.yul\":5663:5717   */\n      tag_417\n        /* \"#utility.yul\":5711:5716   */\n      dup3\n        /* \"#utility.yul\":5663:5717   */\n      tag_313\n      jump\t// in\n    tag_417:\n        /* \"#utility.yul\":5733:5819   */\n      tag_418\n        /* \"#utility.yul\":5812:5818   */\n      dup2\n        /* \"#utility.yul\":5807:5810   */\n      dup6\n        /* \"#utility.yul\":5733:5819   */\n      tag_314\n      jump\t// in\n    tag_418:\n        /* \"#utility.yul\":5726:5819   */\n      swap4\n      pop\n        /* \"#utility.yul\":5843:5899   */\n      tag_419\n        /* \"#utility.yul\":5893:5898   */\n      dup4\n        /* \"#utility.yul\":5843:5899   */\n      tag_315\n      jump\t// in\n    tag_419:\n        /* \"#utility.yul\":5922:5929   */\n      dup1\n        /* \"#utility.yul\":5953:5954   */\n      0x00\n        /* \"#utility.yul\":5938:6222   */\n    tag_420:\n        /* \"#utility.yul\":5963:5969   */\n      dup4\n        /* \"#utility.yul\":5960:5961   */\n      dup2\n        /* \"#utility.yul\":5957:5970   */\n      lt\n        /* \"#utility.yul\":5938:6222   */\n      iszero\n      tag_422\n      jumpi\n        /* \"#utility.yul\":6039:6045   */\n      dup2\n        /* \"#utility.yul\":6033:6046   */\n      mload\n        /* \"#utility.yul\":6066:6129   */\n      tag_423\n        /* \"#utility.yul\":6125:6128   */\n      dup9\n        /* \"#utility.yul\":6110:6123   */\n      dup3\n        /* \"#utility.yul\":6066:6129   */\n      tag_317\n      jump\t// in\n    tag_423:\n        /* \"#utility.yul\":6059:6129   */\n      swap8\n      pop\n        /* \"#utility.yul\":6152:6212   */\n      tag_424\n        /* \"#utility.yul\":6205:6211   */\n      dup4\n        /* \"#utility.yul\":6152:6212   */\n      tag_318\n      jump\t// in\n    tag_424:\n        /* \"#utility.yul\":6142:6212   */\n      swap3\n      pop\n        /* \"#utility.yul\":5998:6222   */\n      pop\n        /* \"#utility.yul\":5985:5986   */\n      0x01\n        /* \"#utility.yul\":5982:5983   */\n      dup2\n        /* \"#utility.yul\":5978:5987   */\n      add\n        /* \"#utility.yul\":5973:5987   */\n      swap1\n      pop\n        /* \"#utility.yul\":5938:6222   */\n      jump(tag_420)\n    tag_422:\n        /* \"#utility.yul\":5942:5956   */\n      pop\n        /* \"#utility.yul\":6238:6241   */\n      dup6\n        /* \"#utility.yul\":6231:6241   */\n      swap4\n      pop\n        /* \"#utility.yul\":5639:6247   */\n      pop\n      pop\n      pop\n        /* \"#utility.yul\":5515:6247   */\n      swap3\n      swap2\n      pop\n      pop\n      jump\t// out\n        /* \"#utility.yul\":6253:6626   */\n    tag_39:\n        /* \"#utility.yul\":6396:6400   */\n      0x00\n        /* \"#utility.yul\":6434:6436   */\n      0x20\n        /* \"#utility.yul\":6423:6432   */\n      dup3\n        /* \"#utility.yul\":6419:6437   */\n      add\n        /* \"#utility.yul\":6411:6437   */\n      swap1\n      pop\n        /* \"#utility.yul\":6483:6492   */\n      dup2\n        /* \"#utility.yul\":6477:6481   */\n      dup2\n        /* \"#utility.yul\":6473:6493   */\n      sub\n        /* \"#utility.yul\":6469:6470   */\n      0x00\n        /* \"#utility.yul\":6458:6467   */\n      dup4\n        /* \"#utility.yul\":6454:6471   */\n      add\n        /* \"#utility.yul\":6447:6494   */\n      mstore\n        /* \"#utility.yul\":6511:6619   */\n      tag_426\n        /* \"#utility.yul\":6614:6618   */\n      dup2\n        /* \"#utility.yul\":6605:6611   */\n      dup5\n        /* \"#utility.yul\":6511:6619   */\n      tag_319\n      jump\t// in\n    tag_426:\n        /* \"#utility.yul\":6503:6619   */\n      swap1\n      pop\n        /* \"#utility.yul\":6253:6626   */\n      swap3\n      swap2\n      pop\n      pop\n      jump\t// out\n        /* \"#utility.yul\":6632:6750   */\n    tag_320:\n        /* \"#utility.yul\":6719:6743   */\n      tag_428\n        /* \"#utility.yul\":6737:6742   */\n      dup2\n        /* \"#utility.yul\":6719:6743   */\n      tag_310\n      jump\t// in\n    tag_428:\n        /* \"#utility.yul\":6714:6717   */\n      dup3\n        /* \"#utility.yul\":6707:6744   */\n      mstore\n        /* \"#utility.yul\":6632:6750   */\n      pop\n      pop\n      jump\t// out\n        /* \"#utility.yul\":6756:6978   */\n    tag_43:\n        /* \"#utility.yul\":6849:6853   */\n      0x00\n        /* \"#utility.yul\":6887:6889   */\n      0x20\n        /* \"#utility.yul\":6876:6885   */\n      dup3\n        /* \"#utility.yul\":6872:6890   */\n      add\n        /* \"#utility.yul\":6864:6890   */\n      swap1\n      pop\n        /* \"#utility.yul\":6900:6971   */\n      tag_430\n        /* \"#utility.yul\":6968:6969   */\n      0x00\n        /* \"#utility.yul\":6957:6966   */\n      dup4\n        /* \"#utility.yul\":6953:6970   */\n      add\n        /* \"#utility.yul\":6944:6950   */\n      dup5\n        /* \"#utility.yul\":6900:6971   */\n      tag_320\n      jump\t// in\n    tag_430:\n        /* \"#utility.yul\":6756:6978   */\n      swap3\n      swap2\n      pop\n      pop\n      jump\t// out\n        /* \"#utility.yul\":6984:7313   */\n    tag_46:\n        /* \"#utility.yul\":7043:7049   */\n      0x00\n        /* \"#utility.yul\":7092:7094   */\n      0x20\n        /* \"#utility.yul\":7080:7089   */\n      dup3\n        /* \"#utility.yul\":7071:7078   */\n      dup5\n        /* \"#utility.yul\":7067:7090   */\n      sub\n        /* \"#utility.yul\":7063:7095   */\n      slt\n        /* \"#utility.yul\":7060:7179   */\n      iszero\n      tag_432\n      jumpi\n        /* \"#utility.yul\":7098:7177   */\n      tag_433\n      tag_299\n      jump\t// in\n    tag_433:\n        /* \"#utility.yul\":7060:7179   */\n    tag_432:\n        /* \"#utility.yul\":7218:7219   */\n      0x00\n        /* \"#utility.yul\":7243:7296   */\n      tag_434\n        /* \"#utility.yul\":7288:7295   */\n      dup5\n        /* \"#utility.yul\":7279:7285   */\n      dup3\n        /* \"#utility.yul\":7268:7277   */\n      dup6\n        /* \"#utility.yul\":7264:7286   */\n      add\n        /* \"#utility.yul\":7243:7296   */\n      tag_312\n      jump\t// in\n    tag_434:\n        /* \"#utility.yul\":7233:7296   */\n      swap2\n      pop\n        /* \"#utility.yul\":7189:7306   */\n      pop\n        /* \"#utility.yul\":6984:7313   */\n      swap3\n      swap2\n      pop\n      pop\n      jump\t// out\n        /* \"#utility.yul\":7319:7793   */\n    tag_51:\n        /* \"#utility.yul\":7387:7393   */\n      0x00\n        /* \"#utility.yul\":7395:7401   */\n      0x00\n        /* \"#utility.yul\":7444:7446   */\n      0x40\n        /* \"#utility.yul\":7432:7441   */\n      dup4\n        /* \"#utility.yul\":7423:7430   */\n      dup6\n        /* \"#utility.yul\":7419:7442   */\n      sub\n        /* \"#utility.yul\":7415:7447   */\n      slt\n        /* \"#utility.yul\":7412:7531   */\n      iszero\n      tag_436\n      jumpi\n        /* \"#utility.yul\":7450:7529   */\n      tag_437\n      tag_299\n      jump\t// in\n    tag_437:\n        /* \"#utility.yul\":7412:7531   */\n    tag_436:\n        /* \"#utility.yul\":7570:7571   */\n      0x00\n        /* \"#utility.yul\":7595:7648   */\n      tag_438\n        /* \"#utility.yul\":7640:7647   */\n      dup6\n        /* \"#utility.yul\":7631:7637   */\n      dup3\n        /* \"#utility.yul\":7620:7629   */\n      dup7\n        /* \"#utility.yul\":7616:7638   */\n      add\n        /* \"#utility.yul\":7595:7648   */\n      tag_312\n      jump\t// in\n    tag_438:\n        /* \"#utility.yul\":7585:7648   */\n      swap3\n      pop\n        /* \"#utility.yul\":7541:7658   */\n      pop\n        /* \"#utility.yul\":7697:7699   */\n      0x20\n        /* \"#utility.yul\":7723:7776   */\n      tag_439\n        /* \"#utility.yul\":7768:7775   */\n      dup6\n        /* \"#utility.yul\":7759:7765   */\n      dup3\n        /* \"#utility.yul\":7748:7757   */\n      dup7\n        /* \"#utility.yul\":7744:7766   */\n      add\n        /* \"#utility.yul\":7723:7776   */\n      tag_312\n      jump\t// in\n    tag_439:\n        /* \"#utility.yul\":7713:7776   */\n      swap2\n      pop\n        /* \"#utility.yul\":7668:7786   */\n      pop\n        /* \"#utility.yul\":7319:7793   */\n      swap3\n      pop\n      swap3\n      swap1\n      pop\n      jump\t// out\n        /* \"#utility.yul\":7799:9002   */\n    tag_56:\n        /* \"#utility.yul\":7912:7918   */\n      0x00\n        /* \"#utility.yul\":7920:7926   */\n      0x00\n        /* \"#utility.yul\":7928:7934   */\n      0x00\n        /* \"#utility.yul\":7936:7942   */\n      0x00\n        /* \"#utility.yul\":7944:7950   */\n      0x00\n        /* \"#utility.yul\":7952:7958   */\n      0x00\n        /* \"#utility.yul\":7960:7966   */\n      0x00\n        /* \"#utility.yul\":8009:8012   */\n      0xe0\n        /* \"#utility.yul\":7997:8006   */\n      dup9\n        /* \"#utility.yul\":7988:7995   */\n      dup11\n        /* \"#utility.yul\":7984:8007   */\n      sub\n        /* \"#utility.yul\":7980:8013   */\n      slt\n        /* \"#utility.yul\":7977:8097   */\n      iszero\n      tag_441\n      jumpi\n        /* \"#utility.yul\":8016:8095   */\n      tag_442\n      tag_299\n      jump\t// in\n    tag_442:\n        /* \"#utility.yul\":7977:8097   */\n    tag_441:\n        /* \"#utility.yul\":8136:8137   */\n      0x00\n        /* \"#utility.yul\":8161:8214   */\n      tag_443\n        /* \"#utility.yul\":8206:8213   */\n      dup11\n        /* \"#utility.yul\":8197:8203   */\n      dup3\n        /* \"#utility.yul\":8186:8195   */\n      dup12\n        /* \"#utility.yul\":8182:8204   */\n      add\n        /* \"#utility.yul\":8161:8214   */\n      tag_312\n      jump\t// in\n    tag_443:\n        /* \"#utility.yul\":8151:8214   */\n      swap8\n      pop\n        /* \"#utility.yul\":8107:8224   */\n      pop\n        /* \"#utility.yul\":8263:8265   */\n      0x20\n        /* \"#utility.yul\":8289:8342   */\n      tag_444\n        /* \"#utility.yul\":8334:8341   */\n      dup11\n        /* \"#utility.yul\":8325:8331   */\n      dup3\n        /* \"#utility.yul\":8314:8323   */\n      dup12\n        /* \"#utility.yul\":8310:8332   */\n      add\n        /* \"#utility.yul\":8289:8342   */\n      tag_312\n      jump\t// in\n    tag_444:\n        /* \"#utility.yul\":8279:8342   */\n      swap7\n      pop\n        /* \"#utility.yul\":8234:8352   */\n      pop\n        /* \"#utility.yul\":8391:8393   */\n      0x40\n        /* \"#utility.yul\":8417:8470   */\n      tag_445\n        /* \"#utility.yul\":8462:8469   */\n      dup11\n        /* \"#utility.yul\":8453:8459   */\n      dup3\n        /* \"#utility.yul\":8442:8451   */\n      dup12\n        /* \"#utility.yul\":8438:8460   */\n      add\n        /* \"#utility.yul\":8417:8470   */\n      tag_303\n      jump\t// in\n    tag_445:\n        /* \"#utility.yul\":8407:8470   */\n      swap6\n      pop\n        /* \"#utility.yul\":8362:8480   */\n      pop\n        /* \"#utility.yul\":8519:8521   */\n      0x60\n        /* \"#utility.yul\":8545:8598   */\n      tag_446\n        /* \"#utility.yul\":8590:8597   */\n      dup11\n        /* \"#utility.yul\":8581:8587   */\n      dup3\n        /* \"#utility.yul\":8570:8579   */\n      dup12\n        /* \"#utility.yul\":8566:8588   */\n      add\n        /* \"#utility.yul\":8545:8598   */\n      tag_303\n      jump\t// in\n    tag_446:\n        /* \"#utility.yul\":8535:8598   */\n      swap5\n      pop\n        /* \"#utility.yul\":8490:8608   */\n      pop\n        /* \"#utility.yul\":8647:8650   */\n      0x80\n        /* \"#utility.yul\":8674:8727   */\n      tag_447\n        /* \"#utility.yul\":8719:8726   */\n      dup11\n        /* \"#utility.yul\":8710:8716   */\n      dup3\n        /* \"#utility.yul\":8699:8708   */\n      dup12\n        /* \"#utility.yul\":8695:8717   */\n      add\n        /* \"#utility.yul\":8674:8727   */\n      tag_303\n      jump\t// in\n    tag_447:\n        /* \"#utility.yul\":8664:8727   */\n      swap4\n      pop\n        /* \"#utility.yul\":8618:8737   */\n      pop\n        /* \"#utility.yul\":8776:8779   */\n      0xa0\n        /* \"#utility.yul\":8803:8856   */\n      tag_448\n        /* \"#utility.yul\":8848:8855   */\n      dup11\n        /* \"#utility.yul\":8839:8845   */\n      dup3\n        /* \"#utility.yul\":8828:8837   */\n      dup12\n        /* \"#utility.yul\":8824:8846   */\n      add\n        /* \"#utility.yul\":8803:8856   */\n      tag_312\n      jump\t// in\n    tag_448:\n        /* \"#utility.yul\":8793:8856   */\n      swap3\n      pop\n        /* \"#utility.yul\":8747:8866   */\n      pop\n        /* \"#utility.yul\":8905:8908   */\n      0xc0\n        /* \"#utility.yul\":8932:8985   */\n      tag_449\n        /* \"#utility.yul\":8977:8984   */\n      dup11\n        /* \"#utility.yul\":8968:8974   */\n      dup3\n        /* \"#utility.yul\":8957:8966   */\n      dup12\n        /* \"#utility.yul\":8953:8975   */\n      add\n        /* \"#utility.yul\":8932:8985   */\n      tag_303\n      jump\t// in\n    tag_449:\n        /* \"#utility.yul\":8922:8985   */\n      swap2\n      pop\n        /* \"#utility.yul\":8876:8995   */\n      pop\n        /* \"#utility.yul\":7799:9002   */\n      swap3\n      swap6\n      swap9\n      swap2\n      swap5\n      swap8\n      pop\n      swap3\n      swap6\n      pop\n      jump\t// out\n        /* \"#utility.yul\":9008:9340   */\n    tag_66:\n        /* \"#utility.yul\":9129:9133   */\n      0x00\n        /* \"#utility.yul\":9167:9169   */\n      0x40\n        /* \"#utility.yul\":9156:9165   */\n      dup3\n        /* \"#utility.yul\":9152:9170   */\n      add\n        /* \"#utility.yul\":9144:9170   */\n      swap1\n      pop\n        /* \"#utility.yul\":9180:9251   */\n      tag_451\n        /* \"#utility.yul\":9248:9249   */\n      0x00\n        /* \"#utility.yul\":9237:9246   */\n      dup4\n        /* \"#utility.yul\":9233:9250   */\n      add\n        /* \"#utility.yul\":9224:9230   */\n      dup6\n        /* \"#utility.yul\":9180:9251   */\n      tag_320\n      jump\t// in\n    tag_451:\n        /* \"#utility.yul\":9261:9333   */\n      tag_452\n        /* \"#utility.yul\":9329:9331   */\n      0x20\n        /* \"#utility.yul\":9318:9327   */\n      dup4\n        /* \"#utility.yul\":9314:9332   */\n      add\n        /* \"#utility.yul\":9305:9311   */\n      dup5\n        /* \"#utility.yul\":9261:9333   */\n      tag_320\n      jump\t// in\n    tag_452:\n        /* \"#utility.yul\":9008:9340   */\n      swap4\n      swap3\n      pop\n      pop\n      pop\n      jump\t// out\n        /* \"#utility.yul\":9346:10695   */\n    tag_69:\n        /* \"#utility.yul\":9468:9474   */\n      0x00\n        /* \"#utility.yul\":9476:9482   */\n      0x00\n        /* \"#utility.yul\":9484:9490   */\n      0x00\n        /* \"#utility.yul\":9492:9498   */\n      0x00\n        /* \"#utility.yul\":9500:9506   */\n      0x00\n        /* \"#utility.yul\":9508:9514   */\n      0x00\n        /* \"#utility.yul\":9516:9522   */\n      0x00\n        /* \"#utility.yul\":9524:9530   */\n      0x00\n        /* \"#utility.yul\":9573:9576   */\n      0x0100\n        /* \"#utility.yul\":9561:9570   */\n      dup10\n        /* \"#utility.yul\":9552:9559   */\n      dup12\n        /* \"#utility.yul\":9548:9571   */\n      sub\n        /* \"#utility.yul\":9544:9577   */\n      slt\n        /* \"#utility.yul\":9541:9661   */\n      iszero\n      tag_454\n      jumpi\n        /* \"#utility.yul\":9580:9659   */\n      tag_455\n      tag_299\n      jump\t// in\n    tag_455:\n        /* \"#utility.yul\":9541:9661   */\n    tag_454:\n        /* \"#utility.yul\":9700:9701   */\n      0x00\n        /* \"#utility.yul\":9725:9778   */\n      tag_456\n        /* \"#utility.yul\":9770:9777   */\n      dup12\n        /* \"#utility.yul\":9761:9767   */\n      dup3\n        /* \"#utility.yul\":9750:9759   */\n      dup13\n        /* \"#utility.yul\":9746:9768   */\n      add\n        /* \"#utility.yul\":9725:9778   */\n      tag_312\n      jump\t// in\n    tag_456:\n        /* \"#utility.yul\":9715:9778   */\n      swap9\n      pop\n        /* \"#utility.yul\":9671:9788   */\n      pop\n        /* \"#utility.yul\":9827:9829   */\n      0x20\n        /* \"#utility.yul\":9853:9906   */\n      tag_457\n        /* \"#utility.yul\":9898:9905   */\n      dup12\n        /* \"#utility.yul\":9889:9895   */\n      dup3\n        /* \"#utility.yul\":9878:9887   */\n      dup13\n        /* \"#utility.yul\":9874:9896   */\n      add\n        /* \"#utility.yul\":9853:9906   */\n      tag_312\n      jump\t// in\n    tag_457:\n        /* \"#utility.yul\":9843:9906   */\n      swap8\n      pop\n        /* \"#utility.yul\":9798:9916   */\n      pop\n        /* \"#utility.yul\":9955:9957   */\n      0x40\n        /* \"#utility.yul\":9981:10034   */\n      tag_458\n        /* \"#utility.yul\":10026:10033   */\n      dup12\n        /* \"#utility.yul\":10017:10023   */\n      dup3\n        /* \"#utility.yul\":10006:10015   */\n      dup13\n        /* \"#utility.yul\":10002:10024   */\n      add\n        /* \"#utility.yul\":9981:10034   */\n      tag_303\n      jump\t// in\n    tag_458:\n        /* \"#utility.yul\":9971:10034   */\n      swap7\n      pop\n        /* \"#utility.yul\":9926:10044   */\n      pop\n        /* \"#utility.yul\":10083:10085   */\n      0x60\n        /* \"#utility.yul\":10109:10162   */\n      tag_459\n        /* \"#utility.yul\":10154:10161   */\n      dup12\n        /* \"#utility.yul\":10145:10151   */\n      dup3\n        /* \"#utility.yul\":10134:10143   */\n      dup13\n        /* \"#utility.yul\":10130:10152   */\n      add\n        /* \"#utility.yul\":10109:10162   */\n      tag_303\n      jump\t// in\n    tag_459:\n        /* \"#utility.yul\":10099:10162   */\n      swap6\n      pop\n        /* \"#utility.yul\":10054:10172   */\n      pop\n        /* \"#utility.yul\":10211:10214   */\n      0x80\n        /* \"#utility.yul\":10238:10291   */\n      tag_460\n        /* \"#utility.yul\":10283:10290   */\n      dup12\n        /* \"#utility.yul\":10274:10280   */\n      dup3\n        /* \"#utility.yul\":10263:10272   */\n      dup13\n        /* \"#utility.yul\":10259:10281   */\n      add\n        /* \"#utility.yul\":10238:10291   */\n      tag_303\n      jump\t// in\n    tag_460:\n        /* \"#utility.yul\":10228:10291   */\n      swap5\n      pop\n        /* \"#utility.yul\":10182:10301   */\n      pop\n        /* \"#utility.yul\":10340:10343   */\n      0xa0\n        /* \"#utility.yul\":10367:10420   */\n      tag_461\n        /* \"#utility.yul\":10412:10419   */\n      dup12\n        /* \"#utility.yul\":10403:10409   */\n      dup3\n        /* \"#utility.yul\":10392:10401   */\n      dup13\n        /* \"#utility.yul\":10388:10410   */\n      add\n        /* \"#utility.yul\":10367:10420   */\n      tag_303\n      jump\t// in\n    tag_461:\n        /* \"#utility.yul\":10357:10420   */\n      swap4\n      pop\n        /* \"#utility.yul\":10311:10430   */\n      pop\n        /* \"#utility.yul\":10469:10472   */\n      0xc0\n        /* \"#utility.yul\":10496:10549   */\n      tag_462\n        /* \"#utility.yul\":10541:10548   */\n      dup12\n        /* \"#utility.yul\":10532:10538   */\n      dup3\n        /* \"#utility.yul\":10521:10530   */\n      dup13\n        /* \"#utility.yul\":10517:10539   */\n      add\n        /* \"#utility.yul\":10496:10549   */\n      tag_312\n      jump\t// in\n    tag_462:\n        /* \"#utility.yul\":10486:10549   */\n      swap3\n      pop\n        /* \"#utility.yul\":10440:10559   */\n      pop\n        /* \"#utility.yul\":10598:10601   */\n      0xe0\n        /* \"#utility.yul\":10625:10678   */\n      tag_463\n        /* \"#utility.yul\":10670:10677   */\n      dup12\n        /* \"#utility.yul\":10661:10667   */\n      dup3\n        /* \"#utility.yul\":10650:10659   */\n      dup13\n        /* \"#utility.yul\":10646:10668   */\n      add\n        /* \"#utility.yul\":10625:10678   */\n      tag_303\n      jump\t// in\n    tag_463:\n        /* \"#utility.yul\":10615:10678   */\n      swap2\n      pop\n        /* \"#utility.yul\":10569:10688   */\n      pop\n        /* \"#utility.yul\":9346:10695   */\n      swap3\n      swap6\n      swap9\n      pop\n      swap3\n      swap6\n      swap9\n      swap1\n      swap4\n      swap7\n      pop\n      jump\t// out\n        /* \"#utility.yul\":10701:11143   */\n    tag_72:\n        /* \"#utility.yul\":10850:10854   */\n      0x00\n        /* \"#utility.yul\":10888:10890   */\n      0x60\n        /* \"#utility.yul\":10877:10886   */\n      dup3\n        /* \"#utility.yul\":10873:10891   */\n      add\n        /* \"#utility.yul\":10865:10891   */\n      swap1\n      pop\n        /* \"#utility.yul\":10901:10972   */\n      tag_465\n        /* \"#utility.yul\":10969:10970   */\n      0x00\n        /* \"#utility.yul\":10958:10967   */\n      dup4\n        /* \"#utility.yul\":10954:10971   */\n      add\n        /* \"#utility.yul\":10945:10951   */\n      dup7\n        /* \"#utility.yul\":10901:10972   */\n      tag_304\n      jump\t// in\n    tag_465:\n        /* \"#utility.yul\":10982:11054   */\n      tag_466\n        /* \"#utility.yul\":11050:11052   */\n      0x20\n        /* \"#utility.yul\":11039:11048   */\n      dup4\n        /* \"#utility.yul\":11035:11053   */\n      add\n        /* \"#utility.yul\":11026:11032   */\n      dup6\n        /* \"#utility.yul\":10982:11054   */\n      tag_304\n      jump\t// in\n    tag_466:\n        /* \"#utility.yul\":11064:11136   */\n      tag_467\n        /* \"#utility.yul\":11132:11134   */\n      0x40\n        /* \"#utility.yul\":11121:11130   */\n      dup4\n        /* \"#utility.yul\":11117:11135   */\n      add\n        /* \"#utility.yul\":11108:11114   */\n      dup5\n        /* \"#utility.yul\":11064:11136   */\n      tag_304\n      jump\t// in\n    tag_467:\n        /* \"#utility.yul\":10701:11143   */\n      swap5\n      swap4\n      pop\n      pop\n      pop\n      pop\n      jump\t// out\n        /* \"#utility.yul\":11149:11318   */\n    tag_321:\n        /* \"#utility.yul\":11233:11244   */\n      0x00\n        /* \"#utility.yul\":11267:11273   */\n      dup3\n        /* \"#utility.yul\":11262:11265   */\n      dup3\n        /* \"#utility.yul\":11255:11274   */\n      mstore\n        /* \"#utility.yul\":11307:11311   */\n      0x20\n        /* \"#utility.yul\":11302:11305   */\n      dup3\n        /* \"#utility.yul\":11298:11312   */\n      add\n        /* \"#utility.yul\":11283:11312   */\n      swap1\n      pop\n        /* \"#utility.yul\":11149:11318   */\n      swap3\n      swap2\n      pop\n      pop\n      jump\t// out\n        /* \"#utility.yul\":11324:11499   */\n    tag_322:\n        /* \"#utility.yul\":11464:11491   */\n      0x496e73756666696369656e7420696e70757420616d6f756e7400000000000000\n        /* \"#utility.yul\":11460:11461   */\n      0x00\n        /* \"#utility.yul\":11452:11458   */\n      dup3\n        /* \"#utility.yul\":11448:11462   */\n      add\n        /* \"#utility.yul\":11441:11492   */\n      mstore\n        /* \"#utility.yul\":11324:11499   */\n      pop\n      jump\t// out\n        /* \"#utility.yul\":11505:11871   */\n    tag_323:\n        /* \"#utility.yul\":11647:11650   */\n      0x00\n        /* \"#utility.yul\":11668:11735   */\n      tag_471\n        /* \"#utility.yul\":11732:11734   */\n      0x19\n        /* \"#utility.yul\":11727:11730   */\n      dup4\n        /* \"#utility.yul\":11668:11735   */\n      tag_321\n      jump\t// in\n    tag_471:\n        /* \"#utility.yul\":11661:11735   */\n      swap2\n      pop\n        /* \"#utility.yul\":11744:11837   */\n      tag_472\n        /* \"#utility.yul\":11833:11836   */\n      dup3\n        /* \"#utility.yul\":11744:11837   */\n      tag_322\n      jump\t// in\n    tag_472:\n        /* \"#utility.yul\":11862:11864   */\n      0x20\n        /* \"#utility.yul\":11857:11860   */\n      dup3\n        /* \"#utility.yul\":11853:11865   */\n      add\n        /* \"#utility.yul\":11846:11865   */\n      swap1\n      pop\n        /* \"#utility.yul\":11505:11871   */\n      swap2\n      swap1\n      pop\n      jump\t// out\n        /* \"#utility.yul\":11877:12296   */\n    tag_79:\n        /* \"#utility.yul\":12043:12047   */\n      0x00\n        /* \"#utility.yul\":12081:12083   */\n      0x20\n        /* \"#utility.yul\":12070:12079   */\n      dup3\n        /* \"#utility.yul\":12066:12084   */\n      add\n        /* \"#utility.yul\":12058:12084   */\n      swap1\n      pop\n        /* \"#utility.yul\":12130:12139   */\n      dup2\n        /* \"#utility.yul\":12124:12128   */\n      dup2\n        /* \"#utility.yul\":12120:12140   */\n      sub\n        /* \"#utility.yul\":12116:12117   */\n      0x00\n        /* \"#utility.yul\":12105:12114   */\n      dup4\n        /* \"#utility.yul\":12101:12118   */\n      add\n        /* \"#utility.yul\":12094:12141   */\n      mstore\n        /* \"#utility.yul\":12158:12289   */\n      tag_474\n        /* \"#utility.yul\":12284:12288   */\n      dup2\n        /* \"#utility.yul\":12158:12289   */\n      tag_323\n      jump\t// in\n    tag_474:\n        /* \"#utility.yul\":12150:12289   */\n      swap1\n      pop\n        /* \"#utility.yul\":11877:12296   */\n      swap2\n      swap1\n      pop\n      jump\t// out\n        /* \"#utility.yul\":12302:12473   */\n    tag_324:\n        /* \"#utility.yul\":12442:12465   */\n      0x496e73756666696369656e742072657365727665730000000000000000000000\n        /* \"#utility.yul\":12438:12439   */\n      0x00\n        /* \"#utility.yul\":12430:12436   */\n      dup3\n        /* \"#utility.yul\":12426:12440   */\n      add\n        /* \"#utility.yul\":12419:12466   */\n      mstore\n        /* \"#utility.yul\":12302:12473   */\n      pop\n      jump\t// out\n        /* \"#utility.yul\":12479:12845   */\n    tag_325:\n        /* \"#utility.yul\":12621:12624   */\n      0x00\n        /* \"#utility.yul\":12642:12709   */\n      tag_477\n        /* \"#utility.yul\":12706:12708   */\n      0x15\n        /* \"#utility.yul\":12701:12704   */\n      dup4\n        /* \"#utility.yul\":12642:12709   */\n      tag_321\n      jump\t// in\n    tag_477:\n        /* \"#utility.yul\":12635:12709   */\n      swap2\n      pop\n        /* \"#utility.yul\":12718:12811   */\n      tag_478\n        /* \"#utility.yul\":12807:12810   */\n      dup3\n        /* \"#utility.yul\":12718:12811   */\n      tag_324\n      jump\t// in\n    tag_478:\n        /* \"#utility.yul\":12836:12838   */\n      0x20\n        /* \"#utility.yul\":12831:12834   */\n      dup3\n        /* \"#utility.yul\":12827:12839   */\n      add\n        /* \"#utility.yul\":12820:12839   */\n      swap1\n      pop\n        /* \"#utility.yul\":12479:12845   */\n      swap2\n      swap1\n      pop\n      jump\t// out\n        /* \"#utility.yul\":12851:13270   */\n    tag_83:\n        /* \"#utility.yul\":13017:13021   */\n      0x00\n        /* \"#utility.yul\":13055:13057   */\n      0x20\n        /* \"#utility.yul\":13044:13053   */\n      dup3\n        /* \"#utility.yul\":13040:13058   */\n      add\n        /* \"#utility.yul\":13032:13058   */\n      swap1\n      pop\n        /* \"#utility.yul\":13104:13113   */\n      dup2\n        /* \"#utility.yul\":13098:13102   */\n      dup2\n        /* \"#utility.yul\":13094:13114   */\n      sub\n        /* \"#utility.yul\":13090:13091   */\n      0x00\n        /* \"#utility.yul\":13079:13088   */\n      dup4\n        /* \"#utility.yul\":13075:13092   */\n      add\n        /* \"#utility.yul\":13068:13115   */\n      mstore\n        /* \"#utility.yul\":13132:13263   */\n      tag_480\n        /* \"#utility.yul\":13258:13262   */\n      dup2\n        /* \"#utility.yul\":13132:13263   */\n      tag_325\n      jump\t// in\n    tag_480:\n        /* \"#utility.yul\":13124:13263   */\n      swap1\n      pop\n        /* \"#utility.yul\":12851:13270   */\n      swap2\n      swap1\n      pop\n      jump\t// out\n        /* \"#utility.yul\":13276:13456   */\n    tag_326:\n        /* \"#utility.yul\":13324:13401   */\n      0x4e487b7100000000000000000000000000000000000000000000000000000000\n        /* \"#utility.yul\":13321:13322   */\n      0x00\n        /* \"#utility.yul\":13314:13402   */\n      mstore\n        /* \"#utility.yul\":13421:13425   */\n      0x11\n        /* \"#utility.yul\":13418:13419   */\n      0x04\n        /* \"#utility.yul\":13411:13426   */\n      mstore\n        /* \"#utility.yul\":13445:13449   */\n      0x24\n        /* \"#utility.yul\":13442:13443   */\n      0x00\n        /* \"#utility.yul\":13435:13450   */\n      revert\n        /* \"#utility.yul\":13462:13653   */\n    tag_85:\n        /* \"#utility.yul\":13502:13505   */\n      0x00\n        /* \"#utility.yul\":13521:13541   */\n      tag_483\n        /* \"#utility.yul\":13539:13540   */\n      dup3\n        /* \"#utility.yul\":13521:13541   */\n      tag_301\n      jump\t// in\n    tag_483:\n        /* \"#utility.yul\":13516:13541   */\n      swap2\n      pop\n        /* \"#utility.yul\":13555:13575   */\n      tag_484\n        /* \"#utility.yul\":13573:13574   */\n      dup4\n        /* \"#utility.yul\":13555:13575   */\n      tag_301\n      jump\t// in\n    tag_484:\n        /* \"#utility.yul\":13550:13575   */\n      swap3\n      pop\n        /* \"#utility.yul\":13598:13599   */\n      dup3\n        /* \"#utility.yul\":13595:13596   */\n      dup3\n        /* \"#utility.yul\":13591:13600   */\n      add\n        /* \"#utility.yul\":13584:13600   */\n      swap1\n      pop\n        /* \"#utility.yul\":13619:13622   */\n      dup1\n        /* \"#utility.yul\":13616:13617   */\n      dup3\n        /* \"#utility.yul\":13613:13623   */\n      gt\n        /* \"#utility.yul\":13610:13646   */\n      iszero\n      tag_485\n      jumpi\n        /* \"#utility.yul\":13626:13644   */\n      tag_486\n      tag_326\n      jump\t// in\n    tag_486:\n        /* \"#utility.yul\":13610:13646   */\n    tag_485:\n        /* \"#utility.yul\":13462:13653   */\n      swap3\n      swap2\n      pop\n      pop\n      jump\t// out\n        /* \"#utility.yul\":13659:14069   */\n    tag_87:\n        /* \"#utility.yul\":13699:13706   */\n      0x00\n        /* \"#utility.yul\":13722:13742   */\n      tag_488\n        /* \"#utility.yul\":13740:13741   */\n      dup3\n        /* \"#utility.yul\":13722:13742   */\n      tag_301\n      jump\t// in\n    tag_488:\n        /* \"#utility.yul\":13717:13742   */\n      swap2\n      pop\n        /* \"#utility.yul\":13756:13776   */\n      tag_489\n        /* \"#utility.yul\":13774:13775   */\n      dup4\n        /* \"#utility.yul\":13756:13776   */\n      tag_301\n      jump\t// in\n    tag_489:\n        /* \"#utility.yul\":13751:13776   */\n      swap3\n      pop\n        /* \"#utility.yul\":13811:13812   */\n      dup3\n        /* \"#utility.yul\":13808:13809   */\n      dup3\n        /* \"#utility.yul\":13804:13813   */\n      mul\n        /* \"#utility.yul\":13833:13863   */\n      tag_490\n        /* \"#utility.yul\":13851:13862   */\n      dup2\n        /* \"#utility.yul\":13833:13863   */\n      tag_301\n      jump\t// in\n    tag_490:\n        /* \"#utility.yul\":13822:13863   */\n      swap2\n      pop\n        /* \"#utility.yul\":14012:14013   */\n      dup3\n        /* \"#utility.yul\":14003:14010   */\n      dup3\n        /* \"#utility.yul\":13999:14014   */\n      div\n        /* \"#utility.yul\":13996:13997   */\n      dup5\n        /* \"#utility.yul\":13993:14015   */\n      eq\n        /* \"#utility.yul\":13973:13974   */\n      dup4\n        /* \"#utility.yul\":13966:13975   */\n      iszero\n        /* \"#utility.yul\":13946:14029   */\n      or\n        /* \"#utility.yul\":13923:14062   */\n      tag_491\n      jumpi\n        /* \"#utility.yul\":14042:14060   */\n      tag_492\n      tag_326\n      jump\t// in\n    tag_492:\n        /* \"#utility.yul\":13923:14062   */\n    tag_491:\n        /* \"#utility.yul\":13707:14069   */\n      pop\n        /* \"#utility.yul\":13659:14069   */\n      swap3\n      swap2\n      pop\n      pop\n      jump\t// out\n        /* \"#utility.yul\":14075:14255   */\n    tag_327:\n        /* \"#utility.yul\":14123:14200   */\n      0x4e487b7100000000000000000000000000000000000000000000000000000000\n        /* \"#utility.yul\":14120:14121   */\n      0x00\n        /* \"#utility.yul\":14113:14201   */\n      mstore\n        /* \"#utility.yul\":14220:14224   */\n      0x12\n        /* \"#utility.yul\":14217:14218   */\n      0x04\n        /* \"#utility.yul\":14210:14225   */\n      mstore\n        /* \"#utility.yul\":14244:14248   */\n      0x24\n        /* \"#utility.yul\":14241:14242   */\n      0x00\n        /* \"#utility.yul\":14234:14249   */\n      revert\n        /* \"#utility.yul\":14261:14446   */\n    tag_89:\n        /* \"#utility.yul\":14301:14302   */\n      0x00\n        /* \"#utility.yul\":14318:14338   */\n      tag_495\n        /* \"#utility.yul\":14336:14337   */\n      dup3\n        /* \"#utility.yul\":14318:14338   */\n      tag_301\n      jump\t// in\n    tag_495:\n        /* \"#utility.yul\":14313:14338   */\n      swap2\n      pop\n        /* \"#utility.yul\":14352:14372   */\n      tag_496\n        /* \"#utility.yul\":14370:14371   */\n      dup4\n        /* \"#utility.yul\":14352:14372   */\n      tag_301\n      jump\t// in\n    tag_496:\n        /* \"#utility.yul\":14347:14372   */\n      swap3\n      pop\n        /* \"#utility.yul\":14391:14392   */\n      dup3\n        /* \"#utility.yul\":14381:14416   */\n      tag_497\n      jumpi\n        /* \"#utility.yul\":14396:14414   */\n      tag_498\n      tag_327\n      jump\t// in\n    tag_498:\n        /* \"#utility.yul\":14381:14416   */\n    tag_497:\n        /* \"#utility.yul\":14438:14439   */\n      dup3\n        /* \"#utility.yul\":14435:14436   */\n      dup3\n        /* \"#utility.yul\":14431:14440   */\n      div\n        /* \"#utility.yul\":14426:14440   */\n      swap1\n      pop\n        /* \"#utility.yul\":14261:14446   */\n      swap3\n      swap2\n      pop\n      pop\n      jump\t// out\n        /* \"#utility.yul\":14452:14621   */\n    tag_328:\n        /* \"#utility.yul\":14592:14613   */\n      0x5472616e73616374696f6e206578706972656400000000000000000000000000\n        /* \"#utility.yul\":14588:14589   */\n      0x00\n        /* \"#utility.yul\":14580:14586   */\n      dup3\n        /* \"#utility.yul\":14576:14590   */\n      add\n        /* \"#utility.yul\":14569:14614   */\n      mstore\n        /* \"#utility.yul\":14452:14621   */\n      pop\n      jump\t// out\n        /* \"#utility.yul\":14627:14993   */\n    tag_329:\n        /* \"#utility.yul\":14769:14772   */\n      0x00\n        /* \"#utility.yul\":14790:14857   */\n      tag_501\n        /* \"#utility.yul\":14854:14856   */\n      0x13\n        /* \"#utility.yul\":14849:14852   */\n      dup4\n        /* \"#utility.yul\":14790:14857   */\n      tag_321\n      jump\t// in\n    tag_501:\n        /* \"#utility.yul\":14783:14857   */\n      swap2\n      pop\n        /* \"#utility.yul\":14866:14959   */\n      tag_502\n        /* \"#utility.yul\":14955:14958   */\n      dup3\n        /* \"#utility.yul\":14866:14959   */\n      tag_328\n      jump\t// in\n    tag_502:\n        /* \"#utility.yul\":14984:14986   */\n      0x20\n        /* \"#utility.yul\":14979:14982   */\n      dup3\n        /* \"#utility.yul\":14975:14987   */\n      add\n        /* \"#utility.yul\":14968:14987   */\n      swap1\n      pop\n        /* \"#utility.yul\":14627:14993   */\n      swap2\n      swap1\n      pop\n      jump\t// out\n        /* \"#utility.yul\":14999:15418   */\n    tag_98:\n        /* \"#utility.yul\":15165:15169   */\n      0x00\n        /* \"#utility.yul\":15203:15205   */\n      0x20\n        /* \"#utility.yul\":15192:15201   */\n      dup3\n        /* \"#utility.yul\":15188:15206   */\n      add\n        /* \"#utility.yul\":15180:15206   */\n      swap1\n      pop\n        /* \"#utility.yul\":15252:15261   */\n      dup2\n        /* \"#utility.yul\":15246:15250   */\n      dup2\n        /* \"#utility.yul\":15242:15262   */\n      sub\n        /* \"#utility.yul\":15238:15239   */\n      0x00\n        /* \"#utility.yul\":15227:15236   */\n      dup4\n        /* \"#utility.yul\":15223:15240   */\n      add\n        /* \"#utility.yul\":15216:15263   */\n      mstore\n        /* \"#utility.yul\":15280:15411   */\n      tag_504\n        /* \"#utility.yul\":15406:15410   */\n      dup2\n        /* \"#utility.yul\":15280:15411   */\n      tag_329\n      jump\t// in\n    tag_504:\n        /* \"#utility.yul\":15272:15411   */\n      swap1\n      pop\n        /* \"#utility.yul\":14999:15418   */\n      swap2\n      swap1\n      pop\n      jump\t// out\n        /* \"#utility.yul\":15424:15586   */\n    tag_330:\n        /* \"#utility.yul\":15564:15578   */\n      0x496e76616c696420706174680000000000000000000000000000000000000000\n        /* \"#utility.yul\":15560:15561   */\n      0x00\n        /* \"#utility.yul\":15552:15558   */\n      dup3\n        /* \"#utility.yul\":15548:15562   */\n      add\n        /* \"#utility.yul\":15541:15579   */\n      mstore\n        /* \"#utility.yul\":15424:15586   */\n      pop\n      jump\t// out\n        /* \"#utility.yul\":15592:15958   */\n    tag_331:\n        /* \"#utility.yul\":15734:15737   */\n      0x00\n        /* \"#utility.yul\":15755:15822   */\n      tag_507\n        /* \"#utility.yul\":15819:15821   */\n      0x0c\n        /* \"#utility.yul\":15814:15817   */\n      dup4\n        /* \"#utility.yul\":15755:15822   */\n      tag_321\n      jump\t// in\n    tag_507:\n        /* \"#utility.yul\":15748:15822   */\n      swap2\n      pop\n        /* \"#utility.yul\":15831:15924   */\n      tag_508\n        /* \"#utility.yul\":15920:15923   */\n      dup3\n        /* \"#utility.yul\":15831:15924   */\n      tag_330\n      jump\t// in\n    tag_508:\n        /* \"#utility.yul\":15949:15951   */\n      0x20\n        /* \"#utility.yul\":15944:15947   */\n      dup3\n        /* \"#utility.yul\":15940:15952   */\n      add\n        /* \"#utility.yul\":15933:15952   */\n      swap1\n      pop\n        /* \"#utility.yul\":15592:15958   */\n      swap2\n      swap1\n      pop\n      jump\t// out\n        /* \"#utility.yul\":15964:16383   */\n    tag_102:\n        /* \"#utility.yul\":16130:16134   */\n      0x00\n        /* \"#utility.yul\":16168:16170   */\n      0x20\n        /* \"#utility.yul\":16157:16166   */\n      dup3\n        /* \"#utility.yul\":16153:16171   */\n      add\n        /* \"#utility.yul\":16145:16171   */\n      swap1\n      pop\n        /* \"#utility.yul\":16217:16226   */\n      dup2\n        /* \"#utility.yul\":16211:16215   */\n      dup2\n        /* \"#utility.yul\":16207:16227   */\n      sub\n        /* \"#utility.yul\":16203:16204   */\n      0x00\n        /* \"#utility.yul\":16192:16201   */\n      dup4\n        /* \"#utility.yul\":16188:16205   */\n      add\n        /* \"#utility.yul\":16181:16228   */\n      mstore\n        /* \"#utility.yul\":16245:16376   */\n      tag_510\n        /* \"#utility.yul\":16371:16375   */\n      dup2\n        /* \"#utility.yul\":16245:16376   */\n      tag_331\n      jump\t// in\n    tag_510:\n        /* \"#utility.yul\":16237:16376   */\n      swap1\n      pop\n        /* \"#utility.yul\":15964:16383   */\n      swap2\n      swap1\n      pop\n      jump\t// out\n        /* \"#utility.yul\":16389:16556   */\n    tag_332:\n        /* \"#utility.yul\":16529:16548   */\n      0x496e76616c696420726563697069656e74000000000000000000000000000000\n        /* \"#utility.yul\":16525:16526   */\n      0x00\n        /* \"#utility.yul\":16517:16523   */\n      dup3\n        /* \"#utility.yul\":16513:16527   */\n      add\n        /* \"#utility.yul\":16506:16549   */\n      mstore\n        /* \"#utility.yul\":16389:16556   */\n      pop\n      jump\t// out\n        /* \"#utility.yul\":16562:16928   */\n    tag_333:\n        /* \"#utility.yul\":16704:16707   */\n      0x00\n        /* \"#utility.yul\":16725:16792   */\n      tag_513\n        /* \"#utility.yul\":16789:16791   */\n      0x11\n        /* \"#utility.yul\":16784:16787   */\n      dup4\n        /* \"#utility.yul\":16725:16792   */\n      tag_321\n      jump\t// in\n    tag_513:\n        /* \"#utility.yul\":16718:16792   */\n      swap2\n      pop\n        /* \"#utility.yul\":16801:16894   */\n      tag_514\n        /* \"#utility.yul\":16890:16893   */\n      dup3\n        /* \"#utility.yul\":16801:16894   */\n      tag_332\n      jump\t// in\n    tag_514:\n        /* \"#utility.yul\":16919:16921   */\n      0x20\n        /* \"#utility.yul\":16914:16917   */\n      dup3\n        /* \"#utility.yul\":16910:16922   */\n      add\n        /* \"#utility.yul\":16903:16922   */\n      swap1\n      pop\n        /* \"#utility.yul\":16562:16928   */\n      swap2\n      swap1\n      pop\n      jump\t// out\n        /* \"#utility.yul\":16934:17353   */\n    tag_105:\n        /* \"#utility.yul\":17100:17104   */\n      0x00\n        /* \"#utility.yul\":17138:17140   */\n      0x20\n        /* \"#utility.yul\":17127:17136   */\n      dup3\n        /* \"#utility.yul\":17123:17141   */\n      add\n        /* \"#utility.yul\":17115:17141   */\n      swap1\n      pop\n        /* \"#utility.yul\":17187:17196   */\n      dup2\n        /* \"#utility.yul\":17181:17185   */\n      dup2\n        /* \"#utility.yul\":17177:17197   */\n      sub\n        /* \"#utility.yul\":17173:17174   */\n      0x00\n        /* \"#utility.yul\":17162:17171   */\n      dup4\n        /* \"#utility.yul\":17158:17175   */\n      add\n        /* \"#utility.yul\":17151:17198   */\n      mstore\n        /* \"#utility.yul\":17215:17346   */\n      tag_516\n        /* \"#utility.yul\":17341:17345   */\n      dup2\n        /* \"#utility.yul\":17215:17346   */\n      tag_333\n      jump\t// in\n    tag_516:\n        /* \"#utility.yul\":17207:17346   */\n      swap1\n      pop\n        /* \"#utility.yul\":16934:17353   */\n      swap2\n      swap1\n      pop\n      jump\t// out\n        /* \"#utility.yul\":17359:17539   */\n    tag_109:\n        /* \"#utility.yul\":17407:17484   */\n      0x4e487b7100000000000000000000000000000000000000000000000000000000\n        /* \"#utility.yul\":17404:17405   */\n      0x00\n        /* \"#utility.yul\":17397:17485   */\n      mstore\n        /* \"#utility.yul\":17504:17508   */\n      0x32\n        /* \"#utility.yul\":17501:17502   */\n      0x04\n        /* \"#utility.yul\":17494:17509   */\n      mstore\n        /* \"#utility.yul\":17528:17532   */\n      0x24\n        /* \"#utility.yul\":17525:17526   */\n      0x00\n        /* \"#utility.yul\":17518:17533   */\n      revert\n        /* \"#utility.yul\":17545:17713   */\n    tag_334:\n        /* \"#utility.yul\":17685:17705   */\n      0x496e76616c696420746f6b656e20706169720000000000000000000000000000\n        /* \"#utility.yul\":17681:17682   */\n      0x00\n        /* \"#utility.yul\":17673:17679   */\n      dup3\n        /* \"#utility.yul\":17669:17683   */\n      add\n        /* \"#utility.yul\":17662:17706   */\n      mstore\n        /* \"#utility.yul\":17545:17713   */\n      pop\n      jump\t// out\n        /* \"#utility.yul\":17719:18085   */\n    tag_335:\n        /* \"#utility.yul\":17861:17864   */\n      0x00\n        /* \"#utility.yul\":17882:17949   */\n      tag_520\n        /* \"#utility.yul\":17946:17948   */\n      0x12\n        /* \"#utility.yul\":17941:17944   */\n      dup4\n        /* \"#utility.yul\":17882:17949   */\n      tag_321\n      jump\t// in\n    tag_520:\n        /* \"#utility.yul\":17875:17949   */\n      swap2\n      pop\n        /* \"#utility.yul\":17958:18051   */\n      tag_521\n        /* \"#utility.yul\":18047:18050   */\n      dup3\n        /* \"#utility.yul\":17958:18051   */\n      tag_334\n      jump\t// in\n    tag_521:\n        /* \"#utility.yul\":18076:18078   */\n      0x20\n        /* \"#utility.yul\":18071:18074   */\n      dup3\n        /* \"#utility.yul\":18067:18079   */\n      add\n        /* \"#utility.yul\":18060:18079   */\n      swap1\n      pop\n        /* \"#utility.yul\":17719:18085   */\n      swap2\n      swap1\n      pop\n      jump\t// out\n        /* \"#utility.yul\":18091:18510   */\n    tag_117:\n        /* \"#utility.yul\":18257:18261   */\n      0x00\n        /* \"#utility.yul\":18295:18297   */\n      0x20\n        /* \"#utility.yul\":18284:18293   */\n      dup3\n        /* \"#utility.yul\":18280:18298   */\n      add\n        /* \"#utility.yul\":18272:18298   */\n      swap1\n      pop\n        /* \"#utility.yul\":18344:18353   */\n      dup2\n        /* \"#utility.yul\":18338:18342   */\n      dup2\n        /* \"#utility.yul\":18334:18354   */\n      sub\n        /* \"#utility.yul\":18330:18331   */\n      0x00\n        /* \"#utility.yul\":18319:18328   */\n      dup4\n        /* \"#utility.yul\":18315:18332   */\n      add\n        /* \"#utility.yul\":18308:18355   */\n      mstore\n        /* \"#utility.yul\":18372:18503   */\n      tag_523\n        /* \"#utility.yul\":18498:18502   */\n      dup2\n        /* \"#utility.yul\":18372:18503   */\n      tag_335\n      jump\t// in\n    tag_523:\n        /* \"#utility.yul\":18364:18503   */\n      swap1\n      pop\n        /* \"#utility.yul\":18091:18510   */\n      swap2\n      swap1\n      pop\n      jump\t// out\n        /* \"#utility.yul\":18516:18696   */\n    tag_138:\n        /* \"#utility.yul\":18564:18641   */\n      0x4e487b7100000000000000000000000000000000000000000000000000000000\n        /* \"#utility.yul\":18561:18562   */\n      0x00\n        /* \"#utility.yul\":18554:18642   */\n      mstore\n        /* \"#utility.yul\":18661:18665   */\n      0x41\n        /* \"#utility.yul\":18658:18659   */\n      0x04\n        /* \"#utility.yul\":18651:18666   */\n      mstore\n        /* \"#utility.yul\":18685:18689   */\n      0x24\n        /* \"#utility.yul\":18682:18683   */\n      0x00\n        /* \"#utility.yul\":18675:18690   */\n      revert\n        /* \"#utility.yul\":18702:18866   */\n    tag_336:\n        /* \"#utility.yul\":18842:18858   */\n      0x5a65726f206c6971756964697479000000000000000000000000000000000000\n        /* \"#utility.yul\":18838:18839   */\n      0x00\n        /* \"#utility.yul\":18830:18836   */\n      dup3\n        /* \"#utility.yul\":18826:18840   */\n      add\n        /* \"#utility.yul\":18819:18859   */\n      mstore\n        /* \"#utility.yul\":18702:18866   */\n      pop\n      jump\t// out\n        /* \"#utility.yul\":18872:19238   */\n    tag_337:\n        /* \"#utility.yul\":19014:19017   */\n      0x00\n        /* \"#utility.yul\":19035:19102   */\n      tag_527\n        /* \"#utility.yul\":19099:19101   */\n      0x0e\n        /* \"#utility.yul\":19094:19097   */\n      dup4\n        /* \"#utility.yul\":19035:19102   */\n      tag_321\n      jump\t// in\n    tag_527:\n        /* \"#utility.yul\":19028:19102   */\n      swap2\n      pop\n        /* \"#utility.yul\":19111:19204   */\n      tag_528\n        /* \"#utility.yul\":19200:19203   */\n      dup3\n        /* \"#utility.yul\":19111:19204   */\n      tag_336\n      jump\t// in\n    tag_528:\n        /* \"#utility.yul\":19229:19231   */\n      0x20\n        /* \"#utility.yul\":19224:19227   */\n      dup3\n        /* \"#utility.yul\":19220:19232   */\n      add\n        /* \"#utility.yul\":19213:19232   */\n      swap1\n      pop\n        /* \"#utility.yul\":18872:19238   */\n      swap2\n      swap1\n      pop\n      jump\t// out\n        /* \"#utility.yul\":19244:19663   */\n    tag_173:\n        /* \"#utility.yul\":19410:19414   */\n      0x00\n        /* \"#utility.yul\":19448:19450   */\n      0x20\n        /* \"#utility.yul\":19437:19446   */\n      dup3\n        /* \"#utility.yul\":19433:19451   */\n      add\n        /* \"#utility.yul\":19425:19451   */\n      swap1\n      pop\n        /* \"#utility.yul\":19497:19506   */\n      dup2\n        /* \"#utility.yul\":19491:19495   */\n      dup2\n        /* \"#utility.yul\":19487:19507   */\n      sub\n        /* \"#utility.yul\":19483:19484   */\n      0x00\n        /* \"#utility.yul\":19472:19481   */\n      dup4\n        /* \"#utility.yul\":19468:19485   */\n      add\n        /* \"#utility.yul\":19461:19508   */\n      mstore\n        /* \"#utility.yul\":19525:19656   */\n      tag_530\n        /* \"#utility.yul\":19651:19655   */\n      dup2\n        /* \"#utility.yul\":19525:19656   */\n      tag_337\n      jump\t// in\n    tag_530:\n        /* \"#utility.yul\":19517:19656   */\n      swap1\n      pop\n        /* \"#utility.yul\":19244:19663   */\n      swap2\n      swap1\n      pop\n      jump\t// out\n        /* \"#utility.yul\":19669:19848   */\n    tag_338:\n        /* \"#utility.yul\":19809:19840   */\n      0x496e73756666696369656e74206c697175696469747920736861726573000000\n        /* \"#utility.yul\":19805:19806   */\n      0x00\n        /* \"#utility.yul\":19797:19803   */\n      dup3\n        /* \"#utility.yul\":19793:19807   */\n      add\n        /* \"#utility.yul\":19786:19841   */\n      mstore\n        /* \"#utility.yul\":19669:19848   */\n      pop\n      jump\t// out\n        /* \"#utility.yul\":19854:20220   */\n    tag_339:\n        /* \"#utility.yul\":19996:19999   */\n      0x00\n        /* \"#utility.yul\":20017:20084   */\n      tag_533\n        /* \"#utility.yul\":20081:20083   */\n      0x1d\n        /* \"#utility.yul\":20076:20079   */\n      dup4\n        /* \"#utility.yul\":20017:20084   */\n      tag_321\n      jump\t// in\n    tag_533:\n        /* \"#utility.yul\":20010:20084   */\n      swap2\n      pop\n        /* \"#utility.yul\":20093:20186   */\n      tag_534\n        /* \"#utility.yul\":20182:20185   */\n      dup3\n        /* \"#utility.yul\":20093:20186   */\n      tag_338\n      jump\t// in\n    tag_534:\n        /* \"#utility.yul\":20211:20213   */\n      0x20\n        /* \"#utility.yul\":20206:20209   */\n      dup3\n        /* \"#utility.yul\":20202:20214   */\n      add\n        /* \"#utility.yul\":20195:20214   */\n      swap1\n      pop\n        /* \"#utility.yul\":19854:20220   */\n      swap2\n      swap1\n      pop\n      jump\t// out\n        /* \"#utility.yul\":20226:20645   */\n    tag_176:\n        /* \"#utility.yul\":20392:20396   */\n      0x00\n        /* \"#utility.yul\":20430:20432   */\n      0x20\n        /* \"#utility.yul\":20419:20428   */\n      dup3\n        /* \"#utility.yul\":20415:20433   */\n      add\n        /* \"#utility.yul\":20407:20433   */\n      swap1\n      pop\n        /* \"#utility.yul\":20479:20488   */\n      dup2\n        /* \"#utility.yul\":20473:20477   */\n      dup2\n        /* \"#utility.yul\":20469:20489   */\n      sub\n        /* \"#utility.yul\":20465:20466   */\n      0x00\n        /* \"#utility.yul\":20454:20463   */\n      dup4\n        /* \"#utility.yul\":20450:20467   */\n      add\n        /* \"#utility.yul\":20443:20490   */\n      mstore\n        /* \"#utility.yul\":20507:20638   */\n      tag_536\n        /* \"#utility.yul\":20633:20637   */\n      dup2\n        /* \"#utility.yul\":20507:20638   */\n      tag_339\n      jump\t// in\n    tag_536:\n        /* \"#utility.yul\":20499:20638   */\n      swap1\n      pop\n        /* \"#utility.yul\":20226:20645   */\n      swap2\n      swap1\n      pop\n      jump\t// out\n        /* \"#utility.yul\":20651:20845   */\n    tag_180:\n        /* \"#utility.yul\":20691:20695   */\n      0x00\n        /* \"#utility.yul\":20711:20731   */\n      tag_538\n        /* \"#utility.yul\":20729:20730   */\n      dup3\n        /* \"#utility.yul\":20711:20731   */\n      tag_301\n      jump\t// in\n    tag_538:\n        /* \"#utility.yul\":20706:20731   */\n      swap2\n      pop\n        /* \"#utility.yul\":20745:20765   */\n      tag_539\n        /* \"#utility.yul\":20763:20764   */\n      dup4\n        /* \"#utility.yul\":20745:20765   */\n      tag_301\n      jump\t// in\n    tag_539:\n        /* \"#utility.yul\":20740:20765   */\n      swap3\n      pop\n        /* \"#utility.yul\":20789:20790   */\n      dup3\n        /* \"#utility.yul\":20786:20787   */\n      dup3\n        /* \"#utility.yul\":20782:20791   */\n      sub\n        /* \"#utility.yul\":20774:20791   */\n      swap1\n      pop\n        /* \"#utility.yul\":20813:20814   */\n      dup2\n        /* \"#utility.yul\":20807:20811   */\n      dup2\n        /* \"#utility.yul\":20804:20815   */\n      gt\n        /* \"#utility.yul\":20801:20838   */\n      iszero\n      tag_540\n      jumpi\n        /* \"#utility.yul\":20818:20836   */\n      tag_541\n      tag_326\n      jump\t// in\n    tag_541:\n        /* \"#utility.yul\":20801:20838   */\n    tag_540:\n        /* \"#utility.yul\":20651:20845   */\n      swap3\n      swap2\n      pop\n      pop\n      jump\t// out\n        /* \"#utility.yul\":20851:20949   */\n    tag_340:\n        /* \"#utility.yul\":20902:20908   */\n      0x00\n        /* \"#utility.yul\":20936:20941   */\n      dup2\n        /* \"#utility.yul\":20930:20942   */\n      mload\n        /* \"#utility.yul\":20920:20942   */\n      swap1\n      pop\n        /* \"#utility.yul\":20851:20949   */\n      swap2\n      swap1\n      pop\n      jump\t// out\n        /* \"#utility.yul\":20955:21102   */\n    tag_341:\n        /* \"#utility.yul\":21056:21067   */\n      0x00\n        /* \"#utility.yul\":21093:21096   */\n      dup2\n        /* \"#utility.yul\":21078:21096   */\n      swap1\n      pop\n        /* \"#utility.yul\":20955:21102   */\n      swap3\n      swap2\n      pop\n      pop\n      jump\t// out\n        /* \"#utility.yul\":21108:21247   */\n    tag_342:\n        /* \"#utility.yul\":21197:21203   */\n      dup3\n        /* \"#utility.yul\":21192:21195   */\n      dup2\n        /* \"#utility.yul\":21187:21190   */\n      dup4\n        /* \"#utility.yul\":21181:21204   */\n      mcopy\n        /* \"#utility.yul\":21238:21239   */\n      0x00\n        /* \"#utility.yul\":21229:21235   */\n      dup4\n        /* \"#utility.yul\":21224:21227   */\n      dup4\n        /* \"#utility.yul\":21220:21236   */\n      add\n        /* \"#utility.yul\":21213:21240   */\n      mstore\n        /* \"#utility.yul\":21108:21247   */\n      pop\n      pop\n      pop\n      jump\t// out\n        /* \"#utility.yul\":21253:21639   */\n    tag_343:\n        /* \"#utility.yul\":21357:21360   */\n      0x00\n        /* \"#utility.yul\":21385:21423   */\n      tag_546\n        /* \"#utility.yul\":21417:21422   */\n      dup3\n        /* \"#utility.yul\":21385:21423   */\n      tag_340\n      jump\t// in\n    tag_546:\n        /* \"#utility.yul\":21439:21527   */\n      tag_547\n        /* \"#utility.yul\":21520:21526   */\n      dup2\n        /* \"#utility.yul\":21515:21518   */\n      dup6\n        /* \"#utility.yul\":21439:21527   */\n      tag_341\n      jump\t// in\n    tag_547:\n        /* \"#utility.yul\":21432:21527   */\n      swap4\n      pop\n        /* \"#utility.yul\":21536:21601   */\n      tag_548\n        /* \"#utility.yul\":21594:21600   */\n      dup2\n        /* \"#utility.yul\":21589:21592   */\n      dup6\n        /* \"#utility.yul\":21582:21586   */\n      0x20\n        /* \"#utility.yul\":21575:21580   */\n      dup7\n        /* \"#utility.yul\":21571:21587   */\n      add\n        /* \"#utility.yul\":21536:21601   */\n      tag_342\n      jump\t// in\n    tag_548:\n        /* \"#utility.yul\":21626:21632   */\n      dup1\n        /* \"#utility.yul\":21621:21624   */\n      dup5\n        /* \"#utility.yul\":21617:21633   */\n      add\n        /* \"#utility.yul\":21610:21633   */\n      swap2\n      pop\n        /* \"#utility.yul\":21361:21639   */\n      pop\n        /* \"#utility.yul\":21253:21639   */\n      swap3\n      swap2\n      pop\n      pop\n      jump\t// out\n        /* \"#utility.yul\":21645:21916   */\n    tag_206:\n        /* \"#utility.yul\":21775:21778   */\n      0x00\n        /* \"#utility.yul\":21797:21890   */\n      tag_550\n        /* \"#utility.yul\":21886:21889   */\n      dup3\n        /* \"#utility.yul\":21877:21883   */\n      dup5\n        /* \"#utility.yul\":21797:21890   */\n      tag_343\n      jump\t// in\n    tag_550:\n        /* \"#utility.yul\":21790:21890   */\n      swap2\n      pop\n        /* \"#utility.yul\":21907:21910   */\n      dup2\n        /* \"#utility.yul\":21900:21910   */\n      swap1\n      pop\n        /* \"#utility.yul\":21645:21916   */\n      swap3\n      swap2\n      pop\n      pop\n      jump\t// out\n        /* \"#utility.yul\":21922:22093   */\n    tag_344:\n        /* \"#utility.yul\":22062:22085   */\n      0x4661696c656420746f206765742062616c616e63650000000000000000000000\n        /* \"#utility.yul\":22058:22059   */\n      0x00\n        /* \"#utility.yul\":22050:22056   */\n      dup3\n        /* \"#utility.yul\":22046:22060   */\n      add\n        /* \"#utility.yul\":22039:22086   */\n      mstore\n        /* \"#utility.yul\":21922:22093   */\n      pop\n      jump\t// out\n        /* \"#utility.yul\":22099:22465   */\n    tag_345:\n        /* \"#utility.yul\":22241:22244   */\n      0x00\n        /* \"#utility.yul\":22262:22329   */\n      tag_553\n        /* \"#utility.yul\":22326:22328   */\n      0x15\n        /* \"#utility.yul\":22321:22324   */\n      dup4\n        /* \"#utility.yul\":22262:22329   */\n      tag_321\n      jump\t// in\n    tag_553:\n        /* \"#utility.yul\":22255:22329   */\n      swap2\n      pop\n        /* \"#utility.yul\":22338:22431   */\n      tag_554\n        /* \"#utility.yul\":22427:22430   */\n      dup3\n        /* \"#utility.yul\":22338:22431   */\n      tag_344\n      jump\t// in\n    tag_554:\n        /* \"#utility.yul\":22456:22458   */\n      0x20\n        /* \"#utility.yul\":22451:22454   */\n      dup3\n        /* \"#utility.yul\":22447:22459   */\n      add\n        /* \"#utility.yul\":22440:22459   */\n      swap1\n      pop\n        /* \"#utility.yul\":22099:22465   */\n      swap2\n      swap1\n      pop\n      jump\t// out\n        /* \"#utility.yul\":22471:22890   */\n    tag_212:\n        /* \"#utility.yul\":22637:22641   */\n      0x00\n        /* \"#utility.yul\":22675:22677   */\n      0x20\n        /* \"#utility.yul\":22664:22673   */\n      dup3\n        /* \"#utility.yul\":22660:22678   */\n      add\n        /* \"#utility.yul\":22652:22678   */\n      swap1\n      pop\n        /* \"#utility.yul\":22724:22733   */\n      dup2\n        /* \"#utility.yul\":22718:22722   */\n      dup2\n        /* \"#utility.yul\":22714:22734   */\n      sub\n        /* \"#utility.yul\":22710:22711   */\n      0x00\n        /* \"#utility.yul\":22699:22708   */\n      dup4\n        /* \"#utility.yul\":22695:22712   */\n      add\n        /* \"#utility.yul\":22688:22735   */\n      mstore\n        /* \"#utility.yul\":22752:22883   */\n      tag_556\n        /* \"#utility.yul\":22878:22882   */\n      dup2\n        /* \"#utility.yul\":22752:22883   */\n      tag_345\n      jump\t// in\n    tag_556:\n        /* \"#utility.yul\":22744:22883   */\n      swap1\n      pop\n        /* \"#utility.yul\":22471:22890   */\n      swap2\n      swap1\n      pop\n      jump\t// out\n        /* \"#utility.yul\":22896:23039   */\n    tag_346:\n        /* \"#utility.yul\":22953:22958   */\n      0x00\n        /* \"#utility.yul\":22984:22990   */\n      dup2\n        /* \"#utility.yul\":22978:22991   */\n      mload\n        /* \"#utility.yul\":22969:22991   */\n      swap1\n      pop\n        /* \"#utility.yul\":23000:23033   */\n      tag_558\n        /* \"#utility.yul\":23027:23032   */\n      dup2\n        /* \"#utility.yul\":23000:23033   */\n      tag_302\n      jump\t// in\n    tag_558:\n        /* \"#utility.yul\":22896:23039   */\n      swap3\n      swap2\n      pop\n      pop\n      jump\t// out\n        /* \"#utility.yul\":23045:23396   */\n    tag_214:\n        /* \"#utility.yul\":23115:23121   */\n      0x00\n        /* \"#utility.yul\":23164:23166   */\n      0x20\n        /* \"#utility.yul\":23152:23161   */\n      dup3\n        /* \"#utility.yul\":23143:23150   */\n      dup5\n        /* \"#utility.yul\":23139:23162   */\n      sub\n        /* \"#utility.yul\":23135:23167   */\n      slt\n        /* \"#utility.yul\":23132:23251   */\n      iszero\n      tag_560\n      jumpi\n        /* \"#utility.yul\":23170:23249   */\n      tag_561\n      tag_299\n      jump\t// in\n    tag_561:\n        /* \"#utility.yul\":23132:23251   */\n    tag_560:\n        /* \"#utility.yul\":23290:23291   */\n      0x00\n        /* \"#utility.yul\":23315:23379   */\n      tag_562\n        /* \"#utility.yul\":23371:23378   */\n      dup5\n        /* \"#utility.yul\":23362:23368   */\n      dup3\n        /* \"#utility.yul\":23351:23360   */\n      dup6\n        /* \"#utility.yul\":23347:23369   */\n      add\n        /* \"#utility.yul\":23315:23379   */\n      tag_346\n      jump\t// in\n    tag_562:\n        /* \"#utility.yul\":23305:23379   */\n      swap2\n      pop\n        /* \"#utility.yul\":23261:23389   */\n      pop\n        /* \"#utility.yul\":23045:23396   */\n      swap3\n      swap2\n      pop\n      pop\n      jump\t// out\n        /* \"#utility.yul\":23402:23578   */\n    tag_347:\n        /* \"#utility.yul\":23542:23570   */\n      0x496e73756666696369656e74206f757470757420616d6f756e74000000000000\n        /* \"#utility.yul\":23538:23539   */\n      0x00\n        /* \"#utility.yul\":23530:23536   */\n      dup3\n        /* \"#utility.yul\":23526:23540   */\n      add\n        /* \"#utility.yul\":23519:23571   */\n      mstore\n        /* \"#utility.yul\":23402:23578   */\n      pop\n      jump\t// out\n        /* \"#utility.yul\":23584:23950   */\n    tag_348:\n        /* \"#utility.yul\":23726:23729   */\n      0x00\n        /* \"#utility.yul\":23747:23814   */\n      tag_565\n        /* \"#utility.yul\":23811:23813   */\n      0x1a\n        /* \"#utility.yul\":23806:23809   */\n      dup4\n        /* \"#utility.yul\":23747:23814   */\n      tag_321\n      jump\t// in\n    tag_565:\n        /* \"#utility.yul\":23740:23814   */\n      swap2\n      pop\n        /* \"#utility.yul\":23823:23916   */\n      tag_566\n        /* \"#utility.yul\":23912:23915   */\n      dup3\n        /* \"#utility.yul\":23823:23916   */\n      tag_347\n      jump\t// in\n    tag_566:\n        /* \"#utility.yul\":23941:23943   */\n      0x20\n        /* \"#utility.yul\":23936:23939   */\n      dup3\n        /* \"#utility.yul\":23932:23944   */\n      add\n        /* \"#utility.yul\":23925:23944   */\n      swap1\n      pop\n        /* \"#utility.yul\":23584:23950   */\n      swap2\n      swap1\n      pop\n      jump\t// out\n        /* \"#utility.yul\":23956:24375   */\n    tag_225:\n        /* \"#utility.yul\":24122:24126   */\n      0x00\n        /* \"#utility.yul\":24160:24162   */\n      0x20\n        /* \"#utility.yul\":24149:24158   */\n      dup3\n        /* \"#utility.yul\":24145:24163   */\n      add\n        /* \"#utility.yul\":24137:24163   */\n      swap1\n      pop\n        /* \"#utility.yul\":24209:24218   */\n      dup2\n        /* \"#utility.yul\":24203:24207   */\n      dup2\n        /* \"#utility.yul\":24199:24219   */\n      sub\n        /* \"#utility.yul\":24195:24196   */\n      0x00\n        /* \"#utility.yul\":24184:24193   */\n      dup4\n        /* \"#utility.yul\":24180:24197   */\n      add\n        /* \"#utility.yul\":24173:24220   */\n      mstore\n        /* \"#utility.yul\":24237:24368   */\n      tag_568\n        /* \"#utility.yul\":24363:24367   */\n      dup2\n        /* \"#utility.yul\":24237:24368   */\n      tag_348\n      jump\t// in\n    tag_568:\n        /* \"#utility.yul\":24229:24368   */\n      swap1\n      pop\n        /* \"#utility.yul\":23956:24375   */\n      swap2\n      swap1\n      pop\n      jump\t// out\n        /* \"#utility.yul\":24381:24823   */\n    tag_228:\n        /* \"#utility.yul\":24530:24534   */\n      0x00\n        /* \"#utility.yul\":24568:24570   */\n      0x60\n        /* \"#utility.yul\":24557:24566   */\n      dup3\n        /* \"#utility.yul\":24553:24571   */\n      add\n        /* \"#utility.yul\":24545:24571   */\n      swap1\n      pop\n        /* \"#utility.yul\":24581:24652   */\n      tag_570\n        /* \"#utility.yul\":24649:24650   */\n      0x00\n        /* \"#utility.yul\":24638:24647   */\n      dup4\n        /* \"#utility.yul\":24634:24651   */\n      add\n        /* \"#utility.yul\":24625:24631   */\n      dup7\n        /* \"#utility.yul\":24581:24652   */\n      tag_320\n      jump\t// in\n    tag_570:\n        /* \"#utility.yul\":24662:24734   */\n      tag_571\n        /* \"#utility.yul\":24730:24732   */\n      0x20\n        /* \"#utility.yul\":24719:24728   */\n      dup4\n        /* \"#utility.yul\":24715:24733   */\n      add\n        /* \"#utility.yul\":24706:24712   */\n      dup6\n        /* \"#utility.yul\":24662:24734   */\n      tag_320\n      jump\t// in\n    tag_571:\n        /* \"#utility.yul\":24744:24816   */\n      tag_572\n        /* \"#utility.yul\":24812:24814   */\n      0x40\n        /* \"#utility.yul\":24801:24810   */\n      dup4\n        /* \"#utility.yul\":24797:24815   */\n      add\n        /* \"#utility.yul\":24788:24794   */\n      dup5\n        /* \"#utility.yul\":24744:24816   */\n      tag_304\n      jump\t// in\n    tag_572:\n        /* \"#utility.yul\":24381:24823   */\n      swap5\n      swap4\n      pop\n      pop\n      pop\n      pop\n      jump\t// out\n        /* \"#utility.yul\":24829:24994   */\n    tag_349:\n        /* \"#utility.yul\":24969:24986   */\n      0x5472616e73666572206661696c65640000000000000000000000000000000000\n        /* \"#utility.yul\":24965:24966   */\n      0x00\n        /* \"#utility.yul\":24957:24963   */\n      dup3\n        /* \"#utility.yul\":24953:24967   */\n      add\n        /* \"#utility.yul\":24946:24987   */\n      mstore\n        /* \"#utility.yul\":24829:24994   */\n      pop\n      jump\t// out\n        /* \"#utility.yul\":25000:25366   */\n    tag_350:\n        /* \"#utility.yul\":25142:25145   */\n      0x00\n        /* \"#utility.yul\":25163:25230   */\n      tag_575\n        /* \"#utility.yul\":25227:25229   */\n      0x0f\n        /* \"#utility.yul\":25222:25225   */\n      dup4\n        /* \"#utility.yul\":25163:25230   */\n      tag_321\n      jump\t// in\n    tag_575:\n        /* \"#utility.yul\":25156:25230   */\n      swap2\n      pop\n        /* \"#utility.yul\":25239:25332   */\n      tag_576\n        /* \"#utility.yul\":25328:25331   */\n      dup3\n        /* \"#utility.yul\":25239:25332   */\n      tag_349\n      jump\t// in\n    tag_576:\n        /* \"#utility.yul\":25357:25359   */\n      0x20\n        /* \"#utility.yul\":25352:25355   */\n      dup3\n        /* \"#utility.yul\":25348:25360   */\n      add\n        /* \"#utility.yul\":25341:25360   */\n      swap1\n      pop\n        /* \"#utility.yul\":25000:25366   */\n      swap2\n      swap1\n      pop\n      jump\t// out\n        /* \"#utility.yul\":25372:25791   */\n    tag_235:\n        /* \"#utility.yul\":25538:25542   */\n      0x00\n        /* \"#utility.yul\":25576:25578   */\n      0x20\n        /* \"#utility.yul\":25565:25574   */\n      dup3\n        /* \"#utility.yul\":25561:25579   */\n      add\n        /* \"#utility.yul\":25553:25579   */\n      swap1\n      pop\n        /* \"#utility.yul\":25625:25634   */\n      dup2\n        /* \"#utility.yul\":25619:25623   */\n      dup2\n        /* \"#utility.yul\":25615:25635   */\n      sub\n        /* \"#utility.yul\":25611:25612   */\n      0x00\n        /* \"#utility.yul\":25600:25609   */\n      dup4\n        /* \"#utility.yul\":25596:25613   */\n      add\n        /* \"#utility.yul\":25589:25636   */\n      mstore\n        /* \"#utility.yul\":25653:25784   */\n      tag_578\n        /* \"#utility.yul\":25779:25783   */\n      dup2\n        /* \"#utility.yul\":25653:25784   */\n      tag_350\n      jump\t// in\n    tag_578:\n        /* \"#utility.yul\":25645:25784   */\n      swap1\n      pop\n        /* \"#utility.yul\":25372:25791   */\n      swap2\n      swap1\n      pop\n      jump\t// out\n        /* \"#utility.yul\":25797:26129   */\n    tag_238:\n        /* \"#utility.yul\":25918:25922   */\n      0x00\n        /* \"#utility.yul\":25956:25958   */\n      0x40\n        /* \"#utility.yul\":25945:25954   */\n      dup3\n        /* \"#utility.yul\":25941:25959   */\n      add\n        /* \"#utility.yul\":25933:25959   */\n      swap1\n      pop\n        /* \"#utility.yul\":25969:26040   */\n      tag_580\n        /* \"#utility.yul\":26037:26038   */\n      0x00\n        /* \"#utility.yul\":26026:26035   */\n      dup4\n        /* \"#utility.yul\":26022:26039   */\n      add\n        /* \"#utility.yul\":26013:26019   */\n      dup6\n        /* \"#utility.yul\":25969:26040   */\n      tag_320\n      jump\t// in\n    tag_580:\n        /* \"#utility.yul\":26050:26122   */\n      tag_581\n        /* \"#utility.yul\":26118:26120   */\n      0x20\n        /* \"#utility.yul\":26107:26116   */\n      dup4\n        /* \"#utility.yul\":26103:26121   */\n      add\n        /* \"#utility.yul\":26094:26100   */\n      dup5\n        /* \"#utility.yul\":26050:26122   */\n      tag_304\n      jump\t// in\n    tag_581:\n        /* \"#utility.yul\":25797:26129   */\n      swap4\n      swap3\n      pop\n      pop\n      pop\n      jump\t// out\n        /* \"#utility.yul\":26135:26306   */\n    tag_351:\n        /* \"#utility.yul\":26275:26298   */\n      0x496e73756666696369656e74204120616d6f756e740000000000000000000000\n        /* \"#utility.yul\":26271:26272   */\n      0x00\n        /* \"#utility.yul\":26263:26269   */\n      dup3\n        /* \"#utility.yul\":26259:26273   */\n      add\n        /* \"#utility.yul\":26252:26299   */\n      mstore\n        /* \"#utility.yul\":26135:26306   */\n      pop\n      jump\t// out\n        /* \"#utility.yul\":26312:26678   */\n    tag_352:\n        /* \"#utility.yul\":26454:26457   */\n      0x00\n        /* \"#utility.yul\":26475:26542   */\n      tag_584\n        /* \"#utility.yul\":26539:26541   */\n      0x15\n        /* \"#utility.yul\":26534:26537   */\n      dup4\n        /* \"#utility.yul\":26475:26542   */\n      tag_321\n      jump\t// in\n    tag_584:\n        /* \"#utility.yul\":26468:26542   */\n      swap2\n      pop\n        /* \"#utility.yul\":26551:26644   */\n      tag_585\n        /* \"#utility.yul\":26640:26643   */\n      dup3\n        /* \"#utility.yul\":26551:26644   */\n      tag_351\n      jump\t// in\n    tag_585:\n        /* \"#utility.yul\":26669:26671   */\n      0x20\n        /* \"#utility.yul\":26664:26667   */\n      dup3\n        /* \"#utility.yul\":26660:26672   */\n      add\n        /* \"#utility.yul\":26653:26672   */\n      swap1\n      pop\n        /* \"#utility.yul\":26312:26678   */\n      swap2\n      swap1\n      pop\n      jump\t// out\n        /* \"#utility.yul\":26684:27103   */\n    tag_254:\n        /* \"#utility.yul\":26850:26854   */\n      0x00\n        /* \"#utility.yul\":26888:26890   */\n      0x20\n        /* \"#utility.yul\":26877:26886   */\n      dup3\n        /* \"#utility.yul\":26873:26891   */\n      add\n        /* \"#utility.yul\":26865:26891   */\n      swap1\n      pop\n        /* \"#utility.yul\":26937:26946   */\n      dup2\n        /* \"#utility.yul\":26931:26935   */\n      dup2\n        /* \"#utility.yul\":26927:26947   */\n      sub\n        /* \"#utility.yul\":26923:26924   */\n      0x00\n        /* \"#utility.yul\":26912:26921   */\n      dup4\n        /* \"#utility.yul\":26908:26925   */\n      add\n        /* \"#utility.yul\":26901:26948   */\n      mstore\n        /* \"#utility.yul\":26965:27096   */\n      tag_587\n        /* \"#utility.yul\":27091:27095   */\n      dup2\n        /* \"#utility.yul\":26965:27096   */\n      tag_352\n      jump\t// in\n    tag_587:\n        /* \"#utility.yul\":26957:27096   */\n      swap1\n      pop\n        /* \"#utility.yul\":26684:27103   */\n      swap2\n      swap1\n      pop\n      jump\t// out\n        /* \"#utility.yul\":27109:27280   */\n    tag_353:\n        /* \"#utility.yul\":27249:27272   */\n      0x496e73756666696369656e74204220616d6f756e740000000000000000000000\n        /* \"#utility.yul\":27245:27246   */\n      0x00\n        /* \"#utility.yul\":27237:27243   */\n      dup3\n        /* \"#utility.yul\":27233:27247   */\n      add\n        /* \"#utility.yul\":27226:27273   */\n      mstore\n        /* \"#utility.yul\":27109:27280   */\n      pop\n      jump\t// out\n        /* \"#utility.yul\":27286:27652   */\n    tag_354:\n        /* \"#utility.yul\":27428:27431   */\n      0x00\n        /* \"#utility.yul\":27449:27516   */\n      tag_590\n        /* \"#utility.yul\":27513:27515   */\n      0x15\n        /* \"#utility.yul\":27508:27511   */\n      dup4\n        /* \"#utility.yul\":27449:27516   */\n      tag_321\n      jump\t// in\n    tag_590:\n        /* \"#utility.yul\":27442:27516   */\n      swap2\n      pop\n        /* \"#utility.yul\":27525:27618   */\n      tag_591\n        /* \"#utility.yul\":27614:27617   */\n      dup3\n        /* \"#utility.yul\":27525:27618   */\n      tag_353\n      jump\t// in\n    tag_591:\n        /* \"#utility.yul\":27643:27645   */\n      0x20\n        /* \"#utility.yul\":27638:27641   */\n      dup3\n        /* \"#utility.yul\":27634:27646   */\n      add\n        /* \"#utility.yul\":27627:27646   */\n      swap1\n      pop\n        /* \"#utility.yul\":27286:27652   */\n      swap2\n      swap1\n      pop\n      jump\t// out\n        /* \"#utility.yul\":27658:28077   */\n    tag_257:\n        /* \"#utility.yul\":27824:27828   */\n      0x00\n        /* \"#utility.yul\":27862:27864   */\n      0x20\n        /* \"#utility.yul\":27851:27860   */\n      dup3\n        /* \"#utility.yul\":27847:27865   */\n      add\n        /* \"#utility.yul\":27839:27865   */\n      swap1\n      pop\n        /* \"#utility.yul\":27911:27920   */\n      dup2\n        /* \"#utility.yul\":27905:27909   */\n      dup2\n        /* \"#utility.yul\":27901:27921   */\n      sub\n        /* \"#utility.yul\":27897:27898   */\n      0x00\n        /* \"#utility.yul\":27886:27895   */\n      dup4\n        /* \"#utility.yul\":27882:27899   */\n      add\n        /* \"#utility.yul\":27875:27922   */\n      mstore\n        /* \"#utility.yul\":27939:28070   */\n      tag_593\n        /* \"#utility.yul\":28065:28069   */\n      dup2\n        /* \"#utility.yul\":27939:28070   */\n      tag_354\n      jump\t// in\n    tag_593:\n        /* \"#utility.yul\":27931:28070   */\n      swap1\n      pop\n        /* \"#utility.yul\":27658:28077   */\n      swap2\n      swap1\n      pop\n      jump\t// out\n        /* \"#utility.yul\":28083:28262   */\n    tag_355:\n        /* \"#utility.yul\":28223:28254   */\n      0x496e73756666696369656e74206c6971756964697479206d696e746564000000\n        /* \"#utility.yul\":28219:28220   */\n      0x00\n        /* \"#utility.yul\":28211:28217   */\n      dup3\n        /* \"#utility.yul\":28207:28221   */\n      add\n        /* \"#utility.yul\":28200:28255   */\n      mstore\n        /* \"#utility.yul\":28083:28262   */\n      pop\n      jump\t// out\n        /* \"#utility.yul\":28268:28634   */\n    tag_356:\n        /* \"#utility.yul\":28410:28413   */\n      0x00\n        /* \"#utility.yul\":28431:28498   */\n      tag_596\n        /* \"#utility.yul\":28495:28497   */\n      0x1d\n        /* \"#utility.yul\":28490:28493   */\n      dup4\n        /* \"#utility.yul\":28431:28498   */\n      tag_321\n      jump\t// in\n    tag_596:\n        /* \"#utility.yul\":28424:28498   */\n      swap2\n      pop\n        /* \"#utility.yul\":28507:28600   */\n      tag_597\n        /* \"#utility.yul\":28596:28599   */\n      dup3\n        /* \"#utility.yul\":28507:28600   */\n      tag_355\n      jump\t// in\n    tag_597:\n        /* \"#utility.yul\":28625:28627   */\n      0x20\n        /* \"#utility.yul\":28620:28623   */\n      dup3\n        /* \"#utility.yul\":28616:28628   */\n      add\n        /* \"#utility.yul\":28609:28628   */\n      swap1\n      pop\n        /* \"#utility.yul\":28268:28634   */\n      swap2\n      swap1\n      pop\n      jump\t// out\n        /* \"#utility.yul\":28640:29059   */\n    tag_288:\n        /* \"#utility.yul\":28806:28810   */\n      0x00\n        /* \"#utility.yul\":28844:28846   */\n      0x20\n        /* \"#utility.yul\":28833:28842   */\n      dup3\n        /* \"#utility.yul\":28829:28847   */\n      add\n        /* \"#utility.yul\":28821:28847   */\n      swap1\n      pop\n        /* \"#utility.yul\":28893:28902   */\n      dup2\n        /* \"#utility.yul\":28887:28891   */\n      dup2\n        /* \"#utility.yul\":28883:28903   */\n      sub\n        /* \"#utility.yul\":28879:28880   */\n      0x00\n        /* \"#utility.yul\":28868:28877   */\n      dup4\n        /* \"#utility.yul\":28864:28881   */\n      add\n        /* \"#utility.yul\":28857:28904   */\n      mstore\n        /* \"#utility.yul\":28921:29052   */\n      tag_599\n        /* \"#utility.yul\":29047:29051   */\n      dup2\n        /* \"#utility.yul\":28921:29052   */\n      tag_356\n      jump\t// in\n    tag_599:\n        /* \"#utility.yul\":28913:29052   */\n      swap1\n      pop\n        /* \"#utility.yul\":28640:29059   */\n      swap2\n      swap1\n      pop\n      jump\t// out\n\n    auxdata: 0xa2646970667358221220224930f01e3b9f2d4c716b6112e0831a28f2a4e44047ab0e54f44cf061ab09f164736f6c634300081e0033\n}\n",
				"bytecode": {
					"linkReferences": {},
					"object": "608060405234801561000f575f5ffd5b506040516128bf3803806128bf83398181016040528101906100319190610268565b5f73ffffffffffffffffffffffffffffffffffffffff168273ffffffffffffffffffffffffffffffffffffffff160361009f576040517f08c379a000000000000000000000000000000000000000000000000000000000815260040161009690610300565b60405180910390fd5b5f73ffffffffffffffffffffffffffffffffffffffff168173ffffffffffffffffffffffffffffffffffffffff160361010d576040517f08c379a000000000000000000000000000000000000000000000000000000000815260040161010490610368565b60405180910390fd5b8073ffffffffffffffffffffffffffffffffffffffff168273ffffffffffffffffffffffffffffffffffffffff160361017b576040517f08c379a0000000000000000000000000000000000000000000000000000000008152600401610172906103d0565b60405180910390fd5b815f5f6101000a81548173ffffffffffffffffffffffffffffffffffffffff021916908373ffffffffffffffffffffffffffffffffffffffff1602179055508060015f6101000a81548173ffffffffffffffffffffffffffffffffffffffff021916908373ffffffffffffffffffffffffffffffffffffffff1602179055506103e860028190555050506103ee565b5f5ffd5b5f73ffffffffffffffffffffffffffffffffffffffff82169050919050565b5f6102378261020e565b9050919050565b6102478161022d565b8114610251575f5ffd5b50565b5f815190506102628161023e565b92915050565b5f5f6040838503121561027e5761027d61020a565b5b5f61028b85828601610254565b925050602061029c85828601610254565b9150509250929050565b5f82825260208201905092915050565b7f496e76616c696420746f6b656e454b41000000000000000000000000000000005f82015250565b5f6102ea6010836102a6565b91506102f5826102b6565b602082019050919050565b5f6020820190508181035f830152610317816102de565b9050919050565b7f496e76616c696420746f6b656e454b42000000000000000000000000000000005f82015250565b5f6103526010836102a6565b915061035d8261031e565b602082019050919050565b5f6020820190508181035f83015261037f81610346565b9050919050565b7f546f6b656e73206d75737420626520646966666572656e7400000000000000005f82015250565b5f6103ba6018836102a6565b91506103c582610386565b602082019050919050565b5f6020820190508181035f8301526103e7816103ae565b9050919050565b6124c4806103fb5f395ff3fe608060405234801561000f575f5ffd5b50600436106100cd575f3560e01c80639db4aa041161008a578063c8c0526e11610064578063c8c0526e1461023b578063d3c7c2c71461026b578063e8e337001461028a578063ef1b1591146102bc576100cd565b80639db4aa04146101aa578063ac41865a146101da578063baa2abde1461020a576100cd565b8063054d50d4146100d15780630902f1ac1461010157806315770f921461012057806335c7e9251461013e57806338ed17391461015c5780634c82ab631461018c575b5f5ffd5b6100eb60048036038101906100e6919061173e565b6102da565b6040516100f8919061179d565b60405180910390f35b610109610395565b6040516101179291906117b6565b60405180910390f35b6101286103f2565b604051610135919061179d565b60405180910390f35b6101466103f8565b604051610153919061179d565b60405180910390f35b61017660048036038101906101719190611898565b610401565b60405161018391906119e5565b60405180910390f35b6101946107bd565b6040516101a19190611a14565b60405180910390f35b6101c460048036038101906101bf9190611a2d565b6107e2565b6040516101d1919061179d565b60405180910390f35b6101f460048036038101906101ef9190611a58565b6107f7565b604051610201919061179d565b60405180910390f35b610224600480360381019061021f9190611a96565b6108cf565b6040516102329291906117b6565b60405180910390f35b61025560048036038101906102509190611a2d565b610b83565b604051610262919061179d565b60405180910390f35b610273610bc9565b604051610281929190611b33565b60405180910390f35b6102a4600480360381019061029f9190611b5a565b610c16565b6040516102b393929190611c0b565b60405180910390f35b6102c4610e12565b6040516102d19190611a14565b60405180910390f35b5f5f841161031d576040517f08c379a000000000000000000000000000000000000000000000000000000000815260040161031490611c9a565b60405180910390fd5b5f8311801561032b57505f82115b61036a576040517f08c379a000000000000000000000000000000000000000000000000000000000815260040161036190611d02565b60405180910390fd5b83836103769190611d4d565b82856103829190611d80565b61038c9190611dee565b90509392505050565b5f5f6103c05f5f9054906101000a900473ffffffffffffffffffffffffffffffffffffffff16610e36565b91506103ec60015f9054906101000a900473ffffffffffffffffffffffffffffffffffffffff16610e36565b90509091565b60025481565b5f600254905090565b60608142811015610447576040517f08c379a000000000000000000000000000000000000000000000000000000000815260040161043e90611e68565b60405180910390fd5b6002868690501461048d576040517f08c379a000000000000000000000000000000000000000000000000000000000815260040161048490611ed0565b60405180910390fd5b5f73ffffffffffffffffffffffffffffffffffffffff168473ffffffffffffffffffffffffffffffffffffffff16036104fb576040517f08c379a00000000000000000000000000000000000000000000000000000000081526004016104f290611f38565b60405180910390fd5b61055486865f81811061051157610510611f56565b5b90506020020160208101906105269190611a2d565b8787600181811061053a57610539611f56565b5b905060200201602081019061054f9190611a2d565b610f8a565b610593576040517f08c379a000000000000000000000000000000000000000000000000000000000815260040161058a90611fcd565b60405180910390fd5b5f6105ef87875f8181106105aa576105a9611f56565b5b90506020020160208101906105bf9190611a2d565b888860018181106105d3576105d2611f56565b5b90506020020160208101906105e89190611a2d565b8b8b6110e8565b905061062487875f81811061060757610606611f56565b5b905060200201602081019061061c9190611a2d565b33308c61115b565b6106578787600181811061063b5761063a611f56565b5b90506020020160208101906106509190611a2d565b868361129b565b600267ffffffffffffffff81111561067257610671611feb565b5b6040519080825280602002602001820160405280156106a05781602001602082028036833780820191505090505b50925088835f815181106106b7576106b6611f56565b5b60200260200101818152505080836001815181106106d8576106d7611f56565b5b602002602001018181525050868660018181106106f8576106f7611f56565b5b905060200201602081019061070d9190611a2d565b73ffffffffffffffffffffffffffffffffffffffff1687875f81811061073657610735611f56565b5b905060200201602081019061074b9190611a2d565b73ffffffffffffffffffffffffffffffffffffffff163373ffffffffffffffffffffffffffffffffffffffff167fad56699d0f375866eb895ed27203058a36a713382aaded78eb6b67da266d43328c856040516107a99291906117b6565b60405180910390a450509695505050505050565b60015f9054906101000a900473ffffffffffffffffffffffffffffffffffffffff1681565b6003602052805f5260405f205f915090505481565b5f6108028383610f8a565b610841576040517f08c379a000000000000000000000000000000000000000000000000000000000815260040161083890611fcd565b60405180910390fd5b5f61084b84610e36565b90505f61085784610e36565b90505f8211801561086757505f81115b6108a6576040517f08c379a000000000000000000000000000000000000000000000000000000000815260040161089d90611d02565b60405180910390fd5b81670de0b6b3a7640000826108bb9190611d80565b6108c59190611dee565b9250505092915050565b5f5f8242811015610915576040517f08c379a000000000000000000000000000000000000000000000000000000000815260040161090c90611e68565b60405180910390fd5b61091f8a8a610f8a565b61095e576040517f08c379a000000000000000000000000000000000000000000000000000000000815260040161095590611fcd565b60405180910390fd5b5f73ffffffffffffffffffffffffffffffffffffffff168573ffffffffffffffffffffffffffffffffffffffff16036109cc576040517f08c379a00000000000000000000000000000000000000000000000000000000081526004016109c390611f38565b60405180910390fd5b5f8811610a0e576040517f08c379a0000000000000000000000000000000000000000000000000000000008152600401610a0590612062565b60405180910390fd5b8760035f3373ffffffffffffffffffffffffffffffffffffffff1673ffffffffffffffffffffffffffffffffffffffff1681526020019081526020015f20541015610a8e576040517f08c379a0000000000000000000000000000000000000000000000000000000008152600401610a85906120ca565b60405180910390fd5b610a9b8a8a8a8a8a6113d8565b80935081945050508760035f3373ffffffffffffffffffffffffffffffffffffffff1673ffffffffffffffffffffffffffffffffffffffff1681526020019081526020015f205f828254610aef91906120e8565b925050819055508760025f828254610b0791906120e8565b92505081905550610b198a868561129b565b610b2489868461129b565b8473ffffffffffffffffffffffffffffffffffffffff167f1dc8bb69df2b8e91fbdcbfcf93d951b3f0000f085a95fe3f7946d6161439245d84848b604051610b6e93929190611c0b565b60405180910390a25097509795505050505050565b5f60035f8373ffffffffffffffffffffffffffffffffffffffff1673ffffffffffffffffffffffffffffffffffffffff1681526020019081526020015f20549050919050565b5f5f5f5f9054906101000a900473ffffffffffffffffffffffffffffffffffffffff16915060015f9054906101000a900473ffffffffffffffffffffffffffffffffffffffff1690509091565b5f5f5f8342811015610c5d576040517f08c379a0000000000000000000000000000000000000000000000000000000008152600401610c5490611e68565b60405180910390fd5b610c678c8c610f8a565b610ca6576040517f08c379a0000000000000000000000000000000000000000000000000000000008152600401610c9d90611fcd565b60405180910390fd5b5f73ffffffffffffffffffffffffffffffffffffffff168673ffffffffffffffffffffffffffffffffffffffff1603610d14576040517f08c379a0000000000000000000000000000000000000000000000000000000008152600401610d0b90611f38565b60405180910390fd5b610d228c8c8c8c8c8c6114ba565b809450819550829650505050610d3a8c33308761115b565b610d468b33308661115b565b8160025f828254610d579190611d4d565b925050819055508160035f8873ffffffffffffffffffffffffffffffffffffffff1673ffffffffffffffffffffffffffffffffffffffff1681526020019081526020015f205f828254610daa9190611d4d565b925050819055508573ffffffffffffffffffffffffffffffffffffffff167f64b83944e79c3ce8d4c297411de637c3e102d064677aac0c163976ebdcd6f50e858585604051610dfb93929190611c0b565b60405180910390a250985098509895505050505050565b5f5f9054906101000a900473ffffffffffffffffffffffffffffffffffffffff1681565b5f5f5f8373ffffffffffffffffffffffffffffffffffffffff1630604051602401610e619190611a14565b6040516020818303038152906040527f70a08231000000000000000000000000000000000000000000000000000000007bffffffffffffffffffffffffffffffffffffffffffffffffffffffff19166020820180517bffffffffffffffffffffffffffffffffffffffffffffffffffffffff8381831617835250505050604051610eeb919061216d565b5f60405180830381855afa9150503d805f8114610f23576040519150601f19603f3d011682016040523d82523d5f602084013e610f28565b606091505b509150915081610f6d576040517f08c379a0000000000000000000000000000000000000000000000000000000008152600401610f64906121cd565b60405180910390fd5b80806020019051810190610f8191906121ff565b92505050919050565b5f5f5f9054906101000a900473ffffffffffffffffffffffffffffffffffffffff1673ffffffffffffffffffffffffffffffffffffffff168373ffffffffffffffffffffffffffffffffffffffff16148015611032575060015f9054906101000a900473ffffffffffffffffffffffffffffffffffffffff1673ffffffffffffffffffffffffffffffffffffffff168273ffffffffffffffffffffffffffffffffffffffff16145b806110e0575060015f9054906101000a900473ffffffffffffffffffffffffffffffffffffffff1673ffffffffffffffffffffffffffffffffffffffff168373ffffffffffffffffffffffffffffffffffffffff161480156110df57505f5f9054906101000a900473ffffffffffffffffffffffffffffffffffffffff1673ffffffffffffffffffffffffffffffffffffffff168273ffffffffffffffffffffffffffffffffffffffff16145b5b905092915050565b5f5f6110f386610e36565b90505f6110ff86610e36565b905061110c8583836102da565b925083831015611151576040517f08c379a000000000000000000000000000000000000000000000000000000000815260040161114890612274565b60405180910390fd5b5050949350505050565b5f8473ffffffffffffffffffffffffffffffffffffffff1684848460405160240161118893929190612292565b6040516020818303038152906040527f23b872dd000000000000000000000000000000000000000000000000000000007bffffffffffffffffffffffffffffffffffffffffffffffffffffffff19166020820180517bffffffffffffffffffffffffffffffffffffffffffffffffffffffff8381831617835250505050604051611212919061216d565b5f604051808303815f865af19150503d805f811461124b576040519150601f19603f3d011682016040523d82523d5f602084013e611250565b606091505b5050905080611294576040517f08c379a000000000000000000000000000000000000000000000000000000000815260040161128b90612311565b60405180910390fd5b5050505050565b5f8373ffffffffffffffffffffffffffffffffffffffff1683836040516024016112c692919061232f565b6040516020818303038152906040527fa9059cbb000000000000000000000000000000000000000000000000000000007bffffffffffffffffffffffffffffffffffffffffffffffffffffffff19166020820180517bffffffffffffffffffffffffffffffffffffffffffffffffffffffff8381831617835250505050604051611350919061216d565b5f604051808303815f865af19150503d805f8114611389576040519150601f19603f3d011682016040523d82523d5f602084013e61138e565b606091505b50509050806113d2576040517f08c379a00000000000000000000000000000000000000000000000000000000081526004016113c990612311565b60405180910390fd5b50505050565b5f5f5f6113e488610e36565b90505f6113f088610e36565b905060025482886114019190611d80565b61140b9190611dee565b9350600254818861141c9190611d80565b6114269190611dee565b92508584101561146b576040517f08c379a0000000000000000000000000000000000000000000000000000000008152600401611462906123a0565b60405180910390fd5b848310156114ae576040517f08c379a00000000000000000000000000000000000000000000000000000000081526004016114a590612408565b60405180910390fd5b50509550959350505050565b5f5f5f5f6114c78a610e36565b90505f6114d38a610e36565b90505f821480156114e357505f81145b156114f3578894508793506115d5565b5f82828b6115019190611d80565b61150b9190611dee565b90508881116115625786811015611557576040517f08c379a000000000000000000000000000000000000000000000000000000000815260040161154e90612408565b60405180910390fd5b8995508094506115d3565b5f82848b6115709190611d80565b61157a9190611dee565b90508a811115801561158c5750888110155b6115cb576040517f08c379a00000000000000000000000000000000000000000000000000000000081526004016115c2906123a0565b60405180910390fd5b809650899550505b505b6103e8600254036115fb576115f484866115ef9190611d80565b611697565b9250611647565b5f826002548761160b9190611d80565b6116159190611dee565b90505f82600254876116279190611d80565b6116319190611dee565b90508082106116405780611642565b815b945050505b5f8311611689576040517f08c379a000000000000000000000000000000000000000000000000000000000815260040161168090612470565b60405180910390fd5b505096509650969350505050565b5f5f82036116a7575f90506116fe565b5f60026001846116b79190611d4d565b6116c19190611dee565b90508291505b818110156116fc5780915060028182856116e19190611dee565b6116eb9190611d4d565b6116f59190611dee565b90506116c7565b505b919050565b5f5ffd5b5f5ffd5b5f819050919050565b61171d8161170b565b8114611727575f5ffd5b50565b5f8135905061173881611714565b92915050565b5f5f5f6060848603121561175557611754611703565b5b5f6117628682870161172a565b93505060206117738682870161172a565b92505060406117848682870161172a565b9150509250925092565b6117978161170b565b82525050565b5f6020820190506117b05f83018461178e565b92915050565b5f6040820190506117c95f83018561178e565b6117d6602083018461178e565b9392505050565b5f5ffd5b5f5ffd5b5f5ffd5b5f5f83601f8401126117fe576117fd6117dd565b5b8235905067ffffffffffffffff81111561181b5761181a6117e1565b5b602083019150836020820283011115611837576118366117e5565b5b9250929050565b5f73ffffffffffffffffffffffffffffffffffffffff82169050919050565b5f6118678261183e565b9050919050565b6118778161185d565b8114611881575f5ffd5b50565b5f813590506118928161186e565b92915050565b5f5f5f5f5f5f60a087890312156118b2576118b1611703565b5b5f6118bf89828a0161172a565b96505060206118d089828a0161172a565b955050604087013567ffffffffffffffff8111156118f1576118f0611707565b5b6118fd89828a016117e9565b9450945050606061191089828a01611884565b925050608061192189828a0161172a565b9150509295509295509295565b5f81519050919050565b5f82825260208201905092915050565b5f819050602082019050919050565b6119608161170b565b82525050565b5f6119718383611957565b60208301905092915050565b5f602082019050919050565b5f6119938261192e565b61199d8185611938565b93506119a883611948565b805f5b838110156119d85781516119bf8882611966565b97506119ca8361197d565b9250506001810190506119ab565b5085935050505092915050565b5f6020820190508181035f8301526119fd8184611989565b905092915050565b611a0e8161185d565b82525050565b5f602082019050611a275f830184611a05565b92915050565b5f60208284031215611a4257611a41611703565b5b5f611a4f84828501611884565b91505092915050565b5f5f60408385031215611a6e57611a6d611703565b5b5f611a7b85828601611884565b9250506020611a8c85828601611884565b9150509250929050565b5f5f5f5f5f5f5f60e0888a031215611ab157611ab0611703565b5b5f611abe8a828b01611884565b9750506020611acf8a828b01611884565b9650506040611ae08a828b0161172a565b9550506060611af18a828b0161172a565b9450506080611b028a828b0161172a565b93505060a0611b138a828b01611884565b92505060c0611b248a828b0161172a565b91505092959891949750929550565b5f604082019050611b465f830185611a05565b611b536020830184611a05565b9392505050565b5f5f5f5f5f5f5f5f610100898b031215611b7757611b76611703565b5b5f611b848b828c01611884565b9850506020611b958b828c01611884565b9750506040611ba68b828c0161172a565b9650506060611bb78b828c0161172a565b9550506080611bc88b828c0161172a565b94505060a0611bd98b828c0161172a565b93505060c0611bea8b828c01611884565b92505060e0611bfb8b828c0161172a565b9150509295985092959890939650565b5f606082019050611c1e5f83018661178e565b611c2b602083018561178e565b611c38604083018461178e565b949350505050565b5f82825260208201905092915050565b7f496e73756666696369656e7420696e70757420616d6f756e74000000000000005f82015250565b5f611c84601983611c40565b9150611c8f82611c50565b602082019050919050565b5f6020820190508181035f830152611cb181611c78565b9050919050565b7f496e73756666696369656e7420726573657276657300000000000000000000005f82015250565b5f611cec601583611c40565b9150611cf782611cb8565b602082019050919050565b5f6020820190508181035f830152611d1981611ce0565b9050919050565b7f4e487b71000000000000000000000000000000000000000000000000000000005f52601160045260245ffd5b5f611d578261170b565b9150611d628361170b565b9250828201905080821115611d7a57611d79611d20565b5b92915050565b5f611d8a8261170b565b9150611d958361170b565b9250828202611da38161170b565b91508282048414831517611dba57611db9611d20565b5b5092915050565b7f4e487b71000000000000000000000000000000000000000000000000000000005f52601260045260245ffd5b5f611df88261170b565b9150611e038361170b565b925082611e1357611e12611dc1565b5b828204905092915050565b7f5472616e73616374696f6e2065787069726564000000000000000000000000005f82015250565b5f611e52601383611c40565b9150611e5d82611e1e565b602082019050919050565b5f6020820190508181035f830152611e7f81611e46565b9050919050565b7f496e76616c6964207061746800000000000000000000000000000000000000005f82015250565b5f611eba600c83611c40565b9150611ec582611e86565b602082019050919050565b5f6020820190508181035f830152611ee781611eae565b9050919050565b7f496e76616c696420726563697069656e740000000000000000000000000000005f82015250565b5f611f22601183611c40565b9150611f2d82611eee565b602082019050919050565b5f6020820190508181035f830152611f4f81611f16565b9050919050565b7f4e487b71000000000000000000000000000000000000000000000000000000005f52603260045260245ffd5b7f496e76616c696420746f6b656e207061697200000000000000000000000000005f82015250565b5f611fb7601283611c40565b9150611fc282611f83565b602082019050919050565b5f6020820190508181035f830152611fe481611fab565b9050919050565b7f4e487b71000000000000000000000000000000000000000000000000000000005f52604160045260245ffd5b7f5a65726f206c69717569646974790000000000000000000000000000000000005f82015250565b5f61204c600e83611c40565b915061205782612018565b602082019050919050565b5f6020820190508181035f83015261207981612040565b9050919050565b7f496e73756666696369656e74206c6971756964697479207368617265730000005f82015250565b5f6120b4601d83611c40565b91506120bf82612080565b602082019050919050565b5f6020820190508181035f8301526120e1816120a8565b9050919050565b5f6120f28261170b565b91506120fd8361170b565b925082820390508181111561211557612114611d20565b5b92915050565b5f81519050919050565b5f81905092915050565b8281835e5f83830152505050565b5f6121478261211b565b6121518185612125565b935061216181856020860161212f565b80840191505092915050565b5f612178828461213d565b915081905092915050565b7f4661696c656420746f206765742062616c616e636500000000000000000000005f82015250565b5f6121b7601583611c40565b91506121c282612183565b602082019050919050565b5f6020820190508181035f8301526121e4816121ab565b9050919050565b5f815190506121f981611714565b92915050565b5f6020828403121561221457612213611703565b5b5f612221848285016121eb565b91505092915050565b7f496e73756666696369656e74206f757470757420616d6f756e740000000000005f82015250565b5f61225e601a83611c40565b91506122698261222a565b602082019050919050565b5f6020820190508181035f83015261228b81612252565b9050919050565b5f6060820190506122a55f830186611a05565b6122b26020830185611a05565b6122bf604083018461178e565b949350505050565b7f5472616e73666572206661696c656400000000000000000000000000000000005f82015250565b5f6122fb600f83611c40565b9150612306826122c7565b602082019050919050565b5f6020820190508181035f830152612328816122ef565b9050919050565b5f6040820190506123425f830185611a05565b61234f602083018461178e565b9392505050565b7f496e73756666696369656e74204120616d6f756e7400000000000000000000005f82015250565b5f61238a601583611c40565b915061239582612356565b602082019050919050565b5f6020820190508181035f8301526123b78161237e565b9050919050565b7f496e73756666696369656e74204220616d6f756e7400000000000000000000005f82015250565b5f6123f2601583611c40565b91506123fd826123be565b602082019050919050565b5f6020820190508181035f83015261241f816123e6565b9050919050565b7f496e73756666696369656e74206c6971756964697479206d696e7465640000005f82015250565b5f61245a601d83611c40565b915061246582612426565b602082019050919050565b5f6020820190508181035f8301526124878161244e565b905091905056fea2646970667358221220224930f01e3b9f2d4c716b6112e0831a28f2a4e44047ab0e54f44cf061ab09f164736f6c634300081e0033",
					"opcodes": "PUSH1 0x80 PUSH1 0x40 MSTORE CALLVALUE DUP1 ISZERO PUSH2 0xF JUMPI PUSH0 PUSH0 REVERT JUMPDEST POP PUSH1 0x40 MLOAD PUSH2 0x28BF CODESIZE SUB DUP1 PUSH2 0x28BF DUP4 CODECOPY DUP2 DUP2 ADD PUSH1 0x40 MSTORE DUP2 ADD SWAP1 PUSH2 0x31 SWAP2 SWAP1 PUSH2 0x268 JUMP JUMPDEST PUSH0 PUSH20 0xFFFFFFFFFFFFFFFFFFFFFFFFFFFFFFFFFFFFFFFF AND DUP3 PUSH20 0xFFFFFFFFFFFFFFFFFFFFFFFFFFFFFFFFFFFFFFFF AND SUB PUSH2 0x9F JUMPI PUSH1 0x40 MLOAD PUSH32 0x8C379A000000000000000000000000000000000000000000000000000000000 DUP2 MSTORE PUSH1 0x4 ADD PUSH2 0x96 SWAP1 PUSH2 0x300 JUMP JUMPDEST PUSH1 0x40 MLOAD DUP1 SWAP2 SUB SWAP1 REVERT JUMPDEST PUSH0 PUSH20 0xFFFFFFFFFFFFFFFFFFFFFFFFFFFFFFFFFFFFFFFF AND DUP2 PUSH20 0xFFFFFFFFFFFFFFFFFFFFFFFFFFFFFFFFFFFFFFFF AND SUB PUSH2 0x10D JUMPI PUSH1 0x40 MLOAD PUSH32 0x8C379A000000000000000000000000000000000000000000000000000000000 DUP2 MSTORE PUSH1 0x4 ADD PUSH2 0x104 SWAP1 PUSH2 0x368 JUMP JUMPDEST PUSH1 0x40 MLOAD DUP1 SWAP2 SUB SWAP1 REVERT JUMPDEST DUP1 PUSH20 0xFFFFFFFFFFFFFFFFFFFFFFFFFFFFFFFFFFFFFFFF AND DUP3 PUSH20 0xFFFFFFFFFFFFFFFFFFFFFFFFFFFFFFFFFFFFFFFF AND SUB PUSH2 0x17B JUMPI PUSH1 0x40 MLOAD PUSH32 0x8C379A000000000000000000000000000000000000000000000000000000000 DUP2 MSTORE PUSH1 0x4 ADD PUSH2 0x172 SWAP1 PUSH2 0x3D0 JUMP JUMPDEST PUSH1 0x40 MLOAD DUP1 SWAP2 SUB SWAP1 REVERT JUMPDEST DUP2 PUSH0 PUSH0 PUSH2 0x100 EXP DUP2 SLOAD DUP2 PUSH20 0xFFFFFFFFFFFFFFFFFFFFFFFFFFFFFFFFFFFFFFFF MUL NOT AND SWAP1 DUP4 PUSH20 0xFFFFFFFFFFFFFFFFFFFFFFFFFFFFFFFFFFFFFFFF AND MUL OR SWAP1 SSTORE POP DUP1 PUSH1 0x1 PUSH0 PUSH2 0x100 EXP DUP2 SLOAD DUP2 PUSH20 0xFFFFFFFFFFFFFFFFFFFFFFFFFFFFFFFFFFFFFFFF MUL NOT AND SWAP1 DUP4 PUSH20 0xFFFFFFFFFFFFFFFFFFFFFFFFFFFFFFFFFFFFFFFF AND MUL OR SWAP1 SSTORE POP PUSH2 0x3E8 PUSH1 0x2 DUP2 SWAP1 SSTORE POP POP POP PUSH2 0x3EE JUMP JUMPDEST PUSH0 PUSH0 REVERT JUMPDEST PUSH0 PUSH20 0xFFFFFFFFFFFFFFFFFFFFFFFFFFFFFFFFFFFFFFFF DUP3 AND SWAP1 POP SWAP2 SWAP1 POP JUMP JUMPDEST PUSH0 PUSH2 0x237 DUP3 PUSH2 0x20E JUMP JUMPDEST SWAP1 POP SWAP2 SWAP1 POP JUMP JUMPDEST PUSH2 0x247 DUP2 PUSH2 0x22D JUMP JUMPDEST DUP2 EQ PUSH2 0x251 JUMPI PUSH0 PUSH0 REVERT JUMPDEST POP JUMP JUMPDEST PUSH0 DUP2 MLOAD SWAP1 POP PUSH2 0x262 DUP2 PUSH2 0x23E JUMP JUMPDEST SWAP3 SWAP2 POP POP JUMP JUMPDEST PUSH0 PUSH0 PUSH1 0x40 DUP4 DUP6 SUB SLT ISZERO PUSH2 0x27E JUMPI PUSH2 0x27D PUSH2 0x20A JUMP JUMPDEST JUMPDEST PUSH0 PUSH2 0x28B DUP6 DUP3 DUP7 ADD PUSH2 0x254 JUMP JUMPDEST SWAP3 POP POP PUSH1 0x20 PUSH2 0x29C DUP6 DUP3 DUP7 ADD PUSH2 0x254 JUMP JUMPDEST SWAP2 POP POP SWAP3 POP SWAP3 SWAP1 POP JUMP JUMPDEST PUSH0 DUP3 DUP3 MSTORE PUSH1 0x20 DUP3 ADD SWAP1 POP SWAP3 SWAP2 POP POP JUMP JUMPDEST PUSH32 0x496E76616C696420746F6B656E454B4100000000000000000000000000000000 PUSH0 DUP3 ADD MSTORE POP JUMP JUMPDEST PUSH0 PUSH2 0x2EA PUSH1 0x10 DUP4 PUSH2 0x2A6 JUMP JUMPDEST SWAP2 POP PUSH2 0x2F5 DUP3 PUSH2 0x2B6 JUMP JUMPDEST PUSH1 0x20 DUP3 ADD SWAP1 POP SWAP2 SWAP1 POP JUMP JUMPDEST PUSH0 PUSH1 0x20 DUP3 ADD SWAP1 POP DUP2 DUP2 SUB PUSH0 DUP4 ADD MSTORE PUSH2 0x317 DUP2 PUSH2 0x2DE JUMP JUMPDEST SWAP1 POP SWAP2 SWAP1 POP JUMP JUMPDEST PUSH32 0x496E76616C696420746F6B656E454B4200000000000000000000000000000000 PUSH0 DUP3 ADD MSTORE POP JUMP JUMPDEST PUSH0 PUSH2 0x352 PUSH1 0x10 DUP4 PUSH2 0x2A6 JUMP JUMPDEST SWAP2 POP PUSH2 0x35D DUP3 PUSH2 0x31E JUMP JUMPDEST PUSH1 0x20 DUP3 ADD SWAP1 POP SWAP2 SWAP1 POP JUMP JUMPDEST PUSH0 PUSH1 0x20 DUP3 ADD SWAP1 POP DUP2 DUP2 SUB PUSH0 DUP4 ADD MSTORE PUSH2 0x37F DUP2 PUSH2 0x346 JUMP JUMPDEST SWAP1 POP SWAP2 SWAP1 POP JUMP JUMPDEST PUSH32 0x546F6B656E73206D75737420626520646966666572656E740000000000000000 PUSH0 DUP3 ADD MSTORE POP JUMP JUMPDEST PUSH0 PUSH2 0x3BA PUSH1 0x18 DUP4 PUSH2 0x2A6 JUMP JUMPDEST SWAP2 POP PUSH2 0x3C5 DUP3 PUSH2 0x386 JUMP JUMPDEST PUSH1 0x20 DUP3 ADD SWAP1 POP SWAP2 SWAP1 POP JUMP JUMPDEST PUSH0 PUSH1 0x20 DUP3 ADD SWAP1 POP DUP2 DUP2 SUB PUSH0 DUP4 ADD MSTORE PUSH2 0x3E7 DUP2 PUSH2 0x3AE JUMP JUMPDEST SWAP1 POP SWAP2 SWAP1 POP JUMP JUMPDEST PUSH2 0x24C4 DUP1 PUSH2 0x3FB PUSH0 CODECOPY PUSH0 RETURN INVALID PUSH1 0x80 PUSH1 0x40 MSTORE CALLVALUE DUP1 ISZERO PUSH2 0xF JUMPI PUSH0 PUSH0 REVERT JUMPDEST POP PUSH1 0x4 CALLDATASIZE LT PUSH2 0xCD JUMPI PUSH0 CALLDATALOAD PUSH1 0xE0 SHR DUP1 PUSH4 0x9DB4AA04 GT PUSH2 0x8A JUMPI DUP1 PUSH4 0xC8C0526E GT PUSH2 0x64 JUMPI DUP1 PUSH4 0xC8C0526E EQ PUSH2 0x23B JUMPI DUP1 PUSH4 0xD3C7C2C7 EQ PUSH2 0x26B JUMPI DUP1 PUSH4 0xE8E33700 EQ PUSH2 0x28A JUMPI DUP1 PUSH4 0xEF1B1591 EQ PUSH2 0x2BC JUMPI PUSH2 0xCD JUMP JUMPDEST DUP1 PUSH4 0x9DB4AA04 EQ PUSH2 0x1AA JUMPI DUP1 PUSH4 0xAC41865A EQ PUSH2 0x1DA JUMPI DUP1 PUSH4 0xBAA2ABDE EQ PUSH2 0x20A JUMPI PUSH2 0xCD JUMP JUMPDEST DUP1 PUSH4 0x54D50D4 EQ PUSH2 0xD1 JUMPI DUP1 PUSH4 0x902F1AC EQ PUSH2 0x101 JUMPI DUP1 PUSH4 0x15770F92 EQ PUSH2 0x120 JUMPI DUP1 PUSH4 0x35C7E925 EQ PUSH2 0x13E JUMPI DUP1 PUSH4 0x38ED1739 EQ PUSH2 0x15C JUMPI DUP1 PUSH4 0x4C82AB63 EQ PUSH2 0x18C JUMPI JUMPDEST PUSH0 PUSH0 REVERT JUMPDEST PUSH2 0xEB PUSH1 0x4 DUP1 CALLDATASIZE SUB DUP2 ADD SWAP1 PUSH2 0xE6 SWAP2 SWAP1 PUSH2 0x173E JUMP JUMPDEST PUSH2 0x2DA JUMP JUMPDEST PUSH1 0x40 MLOAD PUSH2 0xF8 SWAP2 SWAP1 PUSH2 0x179D JUMP JUMPDEST PUSH1 0x40 MLOAD DUP1 SWAP2 SUB SWAP1 RETURN JUMPDEST PUSH2 0x109 PUSH2 0x395 JUMP JUMPDEST PUSH1 0x40 MLOAD PUSH2 0x117 SWAP3 SWAP2 SWAP1 PUSH2 0x17B6 JUMP JUMPDEST PUSH1 0x40 MLOAD DUP1 SWAP2 SUB SWAP1 RETURN JUMPDEST PUSH2 0x128 PUSH2 0x3F2 JUMP JUMPDEST PUSH1 0x40 MLOAD PUSH2 0x135 SWAP2 SWAP1 PUSH2 0x179D JUMP JUMPDEST PUSH1 0x40 MLOAD DUP1 SWAP2 SUB SWAP1 RETURN JUMPDEST PUSH2 0x146 PUSH2 0x3F8 JUMP JUMPDEST PUSH1 0x40 MLOAD PUSH2 0x153 SWAP2 SWAP1 PUSH2 0x179D JUMP JUMPDEST PUSH1 0x40 MLOAD DUP1 SWAP2 SUB SWAP1 RETURN JUMPDEST PUSH2 0x176 PUSH1 0x4 DUP1 CALLDATASIZE SUB DUP2 ADD SWAP1 PUSH2 0x171 SWAP2 SWAP1 PUSH2 0x1898 JUMP JUMPDEST PUSH2 0x401 JUMP JUMPDEST PUSH1 0x40 MLOAD PUSH2 0x183 SWAP2 SWAP1 PUSH2 0x19E5 JUMP JUMPDEST PUSH1 0x40 MLOAD DUP1 SWAP2 SUB SWAP1 RETURN JUMPDEST PUSH2 0x194 PUSH2 0x7BD JUMP JUMPDEST PUSH1 0x40 MLOAD PUSH2 0x1A1 SWAP2 SWAP1 PUSH2 0x1A14 JUMP JUMPDEST PUSH1 0x40 MLOAD DUP1 SWAP2 SUB SWAP1 RETURN JUMPDEST PUSH2 0x1C4 PUSH1 0x4 DUP1 CALLDATASIZE SUB DUP2 ADD SWAP1 PUSH2 0x1BF SWAP2 SWAP1 PUSH2 0x1A2D JUMP JUMPDEST PUSH2 0x7E2 JUMP JUMPDEST PUSH1 0x40 MLOAD PUSH2 0x1D1 SWAP2 SWAP1 PUSH2 0x179D JUMP JUMPDEST PUSH1 0x40 MLOAD DUP1 SWAP2 SUB SWAP1 RETURN JUMPDEST PUSH2 0x1F4 PUSH1 0x4 DUP1 CALLDATASIZE SUB DUP2 ADD SWAP1 PUSH2 0x1EF SWAP2 SWAP1 PUSH2 0x1A58 JUMP JUMPDEST PUSH2 0x7F7 JUMP JUMPDEST PUSH1 0x40 MLOAD PUSH2 0x201 SWAP2 SWAP1 PUSH2 0x179D JUMP JUMPDEST PUSH1 0x40 MLOAD DUP1 SWAP2 SUB SWAP1 RETURN JUMPDEST PUSH2 0x224 PUSH1 0x4 DUP1 CALLDATASIZE SUB DUP2 ADD SWAP1 PUSH2 0x21F SWAP2 SWAP1 PUSH2 0x1A96 JUMP JUMPDEST PUSH2 0x8CF JUMP JUMPDEST PUSH1 0x40 MLOAD PUSH2 0x232 SWAP3 SWAP2 SWAP1 PUSH2 0x17B6 JUMP JUMPDEST PUSH1 0x40 MLOAD DUP1 SWAP2 SUB SWAP1 RETURN JUMPDEST PUSH2 0x255 PUSH1 0x4 DUP1 CALLDATASIZE SUB DUP2 ADD SWAP1 PUSH2 0x250 SWAP2 SWAP1 PUSH2 0x1A2D JUMP JUMPDEST PUSH2 0xB83 JUMP JUMPDEST PUSH1 0x40 MLOAD PUSH2 0x262 SWAP2 SWAP1 PUSH2 0x179D JUMP JUMPDEST PUSH1 0x40 MLOAD DUP1 SWAP2 SUB SWAP1 RETURN JUMPDEST PUSH2 0x273 PUSH2 0xBC9 JUMP JUMPDEST PUSH1 0x40 MLOAD PUSH2 0x281 SWAP3 SWAP2 SWAP1 PUSH2 0x1B33 JUMP JUMPDEST PUSH1 0x40 MLOAD DUP1 SWAP2 SUB SWAP1 RETURN JUMPDEST PUSH2 0x2A4 PUSH1 0x4 DUP1 CALLDATASIZE SUB DUP2 ADD SWAP1 PUSH2 0x29F SWAP2 SWAP1 PUSH2 0x1B5A JUMP JUMPDEST PUSH2 0xC16 JUMP JUMPDEST PUSH1 0x40 MLOAD PUSH2 0x2B3 SWAP4 SWAP3 SWAP2 SWAP1 PUSH2 0x1C0B JUMP JUMPDEST PUSH1 0x40 MLOAD DUP1 SWAP2 SUB SWAP1 RETURN JUMPDEST PUSH2 0x2C4 PUSH2 0xE12 JUMP JUMPDEST PUSH1 0x40 MLOAD PUSH2 0x2D1 SWAP2 SWAP1 PUSH2 0x1A14 JUMP JUMPDEST PUSH1 0x40 MLOAD DUP1 SWAP2 SUB SWAP1 RETURN JUMPDEST PUSH0 PUSH0 DUP5 GT PUSH2 0x31D JUMPI PUSH1 0x40 MLOAD PUSH32 0x8C379A000000000000000000000000000000000000000000000000000000000 DUP2 MSTORE PUSH1 0x4 ADD PUSH2 0x314 SWAP1 PUSH2 0x1C9A JUMP JUMPDEST PUSH1 0x40 MLOAD DUP1 SWAP2 SUB SWAP1 REVERT JUMPDEST PUSH0 DUP4 GT DUP1 ISZERO PUSH2 0x32B JUMPI POP PUSH0 DUP3 GT JUMPDEST PUSH2 0x36A JUMPI PUSH1 0x40 MLOAD PUSH32 0x8C379A000000000000000000000000000000000000000000000000000000000 DUP2 MSTORE PUSH1 0x4 ADD PUSH2 0x361 SWAP1 PUSH2 0x1D02 JUMP JUMPDEST PUSH1 0x40 MLOAD DUP1 SWAP2 SUB SWAP1 REVERT JUMPDEST DUP4 DUP4 PUSH2 0x376 SWAP2 SWAP1 PUSH2 0x1D4D JUMP JUMPDEST DUP3 DUP6 PUSH2 0x382 SWAP2 SWAP1 PUSH2 0x1D80 JUMP JUMPDEST PUSH2 0x38C SWAP2 SWAP1 PUSH2 0x1DEE JUMP JUMPDEST SWAP1 POP SWAP4 SWAP3 POP POP POP JUMP JUMPDEST PUSH0 PUSH0 PUSH2 0x3C0 PUSH0 PUSH0 SWAP1 SLOAD SWAP1 PUSH2 0x100 EXP SWAP1 DIV PUSH20 0xFFFFFFFFFFFFFFFFFFFFFFFFFFFFFFFFFFFFFFFF AND PUSH2 0xE36 JUMP JUMPDEST SWAP2 POP PUSH2 0x3EC PUSH1 0x1 PUSH0 SWAP1 SLOAD SWAP1 PUSH2 0x100 EXP SWAP1 DIV PUSH20 0xFFFFFFFFFFFFFFFFFFFFFFFFFFFFFFFFFFFFFFFF AND PUSH2 0xE36 JUMP JUMPDEST SWAP1 POP SWAP1 SWAP2 JUMP JUMPDEST PUSH1 0x2 SLOAD DUP2 JUMP JUMPDEST PUSH0 PUSH1 0x2 SLOAD SWAP1 POP SWAP1 JUMP JUMPDEST PUSH1 0x60 DUP2 TIMESTAMP DUP2 LT ISZERO PUSH2 0x447 JUMPI PUSH1 0x40 MLOAD PUSH32 0x8C379A000000000000000000000000000000000000000000000000000000000 DUP2 MSTORE PUSH1 0x4 ADD PUSH2 0x43E SWAP1 PUSH2 0x1E68 JUMP JUMPDEST PUSH1 0x40 MLOAD DUP1 SWAP2 SUB SWAP1 REVERT JUMPDEST PUSH1 0x2 DUP7 DUP7 SWAP1 POP EQ PUSH2 0x48D JUMPI PUSH1 0x40 MLOAD PUSH32 0x8C379A000000000000000000000000000000000000000000000000000000000 DUP2 MSTORE PUSH1 0x4 ADD PUSH2 0x484 SWAP1 PUSH2 0x1ED0 JUMP JUMPDEST PUSH1 0x40 MLOAD DUP1 SWAP2 SUB SWAP1 REVERT JUMPDEST PUSH0 PUSH20 0xFFFFFFFFFFFFFFFFFFFFFFFFFFFFFFFFFFFFFFFF AND DUP5 PUSH20 0xFFFFFFFFFFFFFFFFFFFFFFFFFFFFFFFFFFFFFFFF AND SUB PUSH2 0x4FB JUMPI PUSH1 0x40 MLOAD PUSH32 0x8C379A000000000000000000000000000000000000000000000000000000000 DUP2 MSTORE PUSH1 0x4 ADD PUSH2 0x4F2 SWAP1 PUSH2 0x1F38 JUMP JUMPDEST PUSH1 0x40 MLOAD DUP1 SWAP2 SUB SWAP1 REVERT JUMPDEST PUSH2 0x554 DUP7 DUP7 PUSH0 DUP2 DUP2 LT PUSH2 0x511 JUMPI PUSH2 0x510 PUSH2 0x1F56 JUMP JUMPDEST JUMPDEST SWAP1 POP PUSH1 0x20 MUL ADD PUSH1 0x20 DUP2 ADD SWAP1 PUSH2 0x526 SWAP2 SWAP1 PUSH2 0x1A2D JUMP JUMPDEST DUP8 DUP8 PUSH1 0x1 DUP2 DUP2 LT PUSH2 0x53A JUMPI PUSH2 0x539 PUSH2 0x1F56 JUMP JUMPDEST JUMPDEST SWAP1 POP PUSH1 0x20 MUL ADD PUSH1 0x20 DUP2 ADD SWAP1 PUSH2 0x54F SWAP2 SWAP1 PUSH2 0x1A2D JUMP JUMPDEST PUSH2 0xF8A JUMP JUMPDEST PUSH2 0x593 JUMPI PUSH1 0x40 MLOAD PUSH32 0x8C379A000000000000000000000000000000000000000000000000000000000 DUP2 MSTORE PUSH1 0x4 ADD PUSH2 0x58A SWAP1 PUSH2 0x1FCD JUMP JUMPDEST PUSH1 0x40 MLOAD DUP1 SWAP2 SUB SWAP1 REVERT JUMPDEST PUSH0 PUSH2 0x5EF DUP8 DUP8 PUSH0 DUP2 DUP2 LT PUSH2 0x5AA JUMPI PUSH2 0x5A9 PUSH2 0x1F56 JUMP JUMPDEST JUMPDEST SWAP1 POP PUSH1 0x20 MUL ADD PUSH1 0x20 DUP2 ADD SWAP1 PUSH2 0x5BF SWAP2 SWAP1 PUSH2 0x1A2D JUMP JUMPDEST DUP9 DUP9 PUSH1 0x1 DUP2 DUP2 LT PUSH2 0x5D3 JUMPI PUSH2 0x5D2 PUSH2 0x1F56 JUMP JUMPDEST JUMPDEST SWAP1 POP PUSH1 0x20 MUL ADD PUSH1 0x20 DUP2 ADD SWAP1 PUSH2 0x5E8 SWAP2 SWAP1 PUSH2 0x1A2D JUMP JUMPDEST DUP12 DUP12 PUSH2 0x10E8 JUMP JUMPDEST SWAP1 POP PUSH2 0x624 DUP8 DUP8 PUSH0 DUP2 DUP2 LT PUSH2 0x607 JUMPI PUSH2 0x606 PUSH2 0x1F56 JUMP JUMPDEST JUMPDEST SWAP1 POP PUSH1 0x20 MUL ADD PUSH1 0x20 DUP2 ADD SWAP1 PUSH2 0x61C SWAP2 SWAP1 PUSH2 0x1A2D JUMP JUMPDEST CALLER ADDRESS DUP13 PUSH2 0x115B JUMP JUMPDEST PUSH2 0x657 DUP8 DUP8 PUSH1 0x1 DUP2 DUP2 LT PUSH2 0x63B JUMPI PUSH2 0x63A PUSH2 0x1F56 JUMP JUMPDEST JUMPDEST SWAP1 POP PUSH1 0x20 MUL ADD PUSH1 0x20 DUP2 ADD SWAP1 PUSH2 0x650 SWAP2 SWAP1 PUSH2 0x1A2D JUMP JUMPDEST DUP7 DUP4 PUSH2 0x129B JUMP JUMPDEST PUSH1 0x2 PUSH8 0xFFFFFFFFFFFFFFFF DUP2 GT ISZERO PUSH2 0x672 JUMPI PUSH2 0x671 PUSH2 0x1FEB JUMP JUMPDEST JUMPDEST PUSH1 0x40 MLOAD SWAP1 DUP1 DUP3 MSTORE DUP1 PUSH1 0x20 MUL PUSH1 0x20 ADD DUP3 ADD PUSH1 0x40 MSTORE DUP1 ISZERO PUSH2 0x6A0 JUMPI DUP2 PUSH1 0x20 ADD PUSH1 0x20 DUP3 MUL DUP1 CALLDATASIZE DUP4 CALLDATACOPY DUP1 DUP3 ADD SWAP2 POP POP SWAP1 POP JUMPDEST POP SWAP3 POP DUP9 DUP4 PUSH0 DUP2 MLOAD DUP2 LT PUSH2 0x6B7 JUMPI PUSH2 0x6B6 PUSH2 0x1F56 JUMP JUMPDEST JUMPDEST PUSH1 0x20 MUL PUSH1 0x20 ADD ADD DUP2 DUP2 MSTORE POP POP DUP1 DUP4 PUSH1 0x1 DUP2 MLOAD DUP2 LT PUSH2 0x6D8 JUMPI PUSH2 0x6D7 PUSH2 0x1F56 JUMP JUMPDEST JUMPDEST PUSH1 0x20 MUL PUSH1 0x20 ADD ADD DUP2 DUP2 MSTORE POP POP DUP7 DUP7 PUSH1 0x1 DUP2 DUP2 LT PUSH2 0x6F8 JUMPI PUSH2 0x6F7 PUSH2 0x1F56 JUMP JUMPDEST JUMPDEST SWAP1 POP PUSH1 0x20 MUL ADD PUSH1 0x20 DUP2 ADD SWAP1 PUSH2 0x70D SWAP2 SWAP1 PUSH2 0x1A2D JUMP JUMPDEST PUSH20 0xFFFFFFFFFFFFFFFFFFFFFFFFFFFFFFFFFFFFFFFF AND DUP8 DUP8 PUSH0 DUP2 DUP2 LT PUSH2 0x736 JUMPI PUSH2 0x735 PUSH2 0x1F56 JUMP JUMPDEST JUMPDEST SWAP1 POP PUSH1 0x20 MUL ADD PUSH1 0x20 DUP2 ADD SWAP1 PUSH2 0x74B SWAP2 SWAP1 PUSH2 0x1A2D JUMP JUMPDEST PUSH20 0xFFFFFFFFFFFFFFFFFFFFFFFFFFFFFFFFFFFFFFFF AND CALLER PUSH20 0xFFFFFFFFFFFFFFFFFFFFFFFFFFFFFFFFFFFFFFFF AND PUSH32 0xAD56699D0F375866EB895ED27203058A36A713382AADED78EB6B67DA266D4332 DUP13 DUP6 PUSH1 0x40 MLOAD PUSH2 0x7A9 SWAP3 SWAP2 SWAP1 PUSH2 0x17B6 JUMP JUMPDEST PUSH1 0x40 MLOAD DUP1 SWAP2 SUB SWAP1 LOG4 POP POP SWAP7 SWAP6 POP POP POP POP POP POP JUMP JUMPDEST PUSH1 0x1 PUSH0 SWAP1 SLOAD SWAP1 PUSH2 0x100 EXP SWAP1 DIV PUSH20 0xFFFFFFFFFFFFFFFFFFFFFFFFFFFFFFFFFFFFFFFF AND DUP2 JUMP JUMPDEST PUSH1 0x3 PUSH1 0x20 MSTORE DUP1 PUSH0 MSTORE PUSH1 0x40 PUSH0 KECCAK256 PUSH0 SWAP2 POP SWAP1 POP SLOAD DUP2 JUMP JUMPDEST PUSH0 PUSH2 0x802 DUP4 DUP4 PUSH2 0xF8A JUMP JUMPDEST PUSH2 0x841 JUMPI PUSH1 0x40 MLOAD PUSH32 0x8C379A000000000000000000000000000000000000000000000000000000000 DUP2 MSTORE PUSH1 0x4 ADD PUSH2 0x838 SWAP1 PUSH2 0x1FCD JUMP JUMPDEST PUSH1 0x40 MLOAD DUP1 SWAP2 SUB SWAP1 REVERT JUMPDEST PUSH0 PUSH2 0x84B DUP5 PUSH2 0xE36 JUMP JUMPDEST SWAP1 POP PUSH0 PUSH2 0x857 DUP5 PUSH2 0xE36 JUMP JUMPDEST SWAP1 POP PUSH0 DUP3 GT DUP1 ISZERO PUSH2 0x867 JUMPI POP PUSH0 DUP2 GT JUMPDEST PUSH2 0x8A6 JUMPI PUSH1 0x40 MLOAD PUSH32 0x8C379A000000000000000000000000000000000000000000000000000000000 DUP2 MSTORE PUSH1 0x4 ADD PUSH2 0x89D SWAP1 PUSH2 0x1D02 JUMP JUMPDEST PUSH1 0x40 MLOAD DUP1 SWAP2 SUB SWAP1 REVERT JUMPDEST DUP2 PUSH8 0xDE0B6B3A7640000 DUP3 PUSH2 0x8BB SWAP2 SWAP1 PUSH2 0x1D80 JUMP JUMPDEST PUSH2 0x8C5 SWAP2 SWAP1 PUSH2 0x1DEE JUMP JUMPDEST SWAP3 POP POP POP SWAP3 SWAP2 POP POP JUMP JUMPDEST PUSH0 PUSH0 DUP3 TIMESTAMP DUP2 LT ISZERO PUSH2 0x915 JUMPI PUSH1 0x40 MLOAD PUSH32 0x8C379A000000000000000000000000000000000000000000000000000000000 DUP2 MSTORE PUSH1 0x4 ADD PUSH2 0x90C SWAP1 PUSH2 0x1E68 JUMP JUMPDEST PUSH1 0x40 MLOAD DUP1 SWAP2 SUB SWAP1 REVERT JUMPDEST PUSH2 0x91F DUP11 DUP11 PUSH2 0xF8A JUMP JUMPDEST PUSH2 0x95E JUMPI PUSH1 0x40 MLOAD PUSH32 0x8C379A000000000000000000000000000000000000000000000000000000000 DUP2 MSTORE PUSH1 0x4 ADD PUSH2 0x955 SWAP1 PUSH2 0x1FCD JUMP JUMPDEST PUSH1 0x40 MLOAD DUP1 SWAP2 SUB SWAP1 REVERT JUMPDEST PUSH0 PUSH20 0xFFFFFFFFFFFFFFFFFFFFFFFFFFFFFFFFFFFFFFFF AND DUP6 PUSH20 0xFFFFFFFFFFFFFFFFFFFFFFFFFFFFFFFFFFFFFFFF AND SUB PUSH2 0x9CC JUMPI PUSH1 0x40 MLOAD PUSH32 0x8C379A000000000000000000000000000000000000000000000000000000000 DUP2 MSTORE PUSH1 0x4 ADD PUSH2 0x9C3 SWAP1 PUSH2 0x1F38 JUMP JUMPDEST PUSH1 0x40 MLOAD DUP1 SWAP2 SUB SWAP1 REVERT JUMPDEST PUSH0 DUP9 GT PUSH2 0xA0E JUMPI PUSH1 0x40 MLOAD PUSH32 0x8C379A000000000000000000000000000000000000000000000000000000000 DUP2 MSTORE PUSH1 0x4 ADD PUSH2 0xA05 SWAP1 PUSH2 0x2062 JUMP JUMPDEST PUSH1 0x40 MLOAD DUP1 SWAP2 SUB SWAP1 REVERT JUMPDEST DUP8 PUSH1 0x3 PUSH0 CALLER PUSH20 0xFFFFFFFFFFFFFFFFFFFFFFFFFFFFFFFFFFFFFFFF AND PUSH20 0xFFFFFFFFFFFFFFFFFFFFFFFFFFFFFFFFFFFFFFFF AND DUP2 MSTORE PUSH1 0x20 ADD SWAP1 DUP2 MSTORE PUSH1 0x20 ADD PUSH0 KECCAK256 SLOAD LT ISZERO PUSH2 0xA8E JUMPI PUSH1 0x40 MLOAD PUSH32 0x8C379A000000000000000000000000000000000000000000000000000000000 DUP2 MSTORE PUSH1 0x4 ADD PUSH2 0xA85 SWAP1 PUSH2 0x20CA JUMP JUMPDEST PUSH1 0x40 MLOAD DUP1 SWAP2 SUB SWAP1 REVERT JUMPDEST PUSH2 0xA9B DUP11 DUP11 DUP11 DUP11 DUP11 PUSH2 0x13D8 JUMP JUMPDEST DUP1 SWAP4 POP DUP2 SWAP5 POP POP POP DUP8 PUSH1 0x3 PUSH0 CALLER PUSH20 0xFFFFFFFFFFFFFFFFFFFFFFFFFFFFFFFFFFFFFFFF AND PUSH20 0xFFFFFFFFFFFFFFFFFFFFFFFFFFFFFFFFFFFFFFFF AND DUP2 MSTORE PUSH1 0x20 ADD SWAP1 DUP2 MSTORE PUSH1 0x20 ADD PUSH0 KECCAK256 PUSH0 DUP3 DUP3 SLOAD PUSH2 0xAEF SWAP2 SWAP1 PUSH2 0x20E8 JUMP JUMPDEST SWAP3 POP POP DUP2 SWAP1 SSTORE POP DUP8 PUSH1 0x2 PUSH0 DUP3 DUP3 SLOAD PUSH2 0xB07 SWAP2 SWAP1 PUSH2 0x20E8 JUMP JUMPDEST SWAP3 POP POP DUP2 SWAP1 SSTORE POP PUSH2 0xB19 DUP11 DUP7 DUP6 PUSH2 0x129B JUMP JUMPDEST PUSH2 0xB24 DUP10 DUP7 DUP5 PUSH2 0x129B JUMP JUMPDEST DUP5 PUSH20 0xFFFFFFFFFFFFFFFFFFFFFFFFFFFFFFFFFFFFFFFF AND PUSH32 0x1DC8BB69DF2B8E91FBDCBFCF93D951B3F0000F085A95FE3F7946D6161439245D DUP5 DUP5 DUP12 PUSH1 0x40 MLOAD PUSH2 0xB6E SWAP4 SWAP3 SWAP2 SWAP1 PUSH2 0x1C0B JUMP JUMPDEST PUSH1 0x40 MLOAD DUP1 SWAP2 SUB SWAP1 LOG2 POP SWAP8 POP SWAP8 SWAP6 POP POP POP POP POP POP JUMP JUMPDEST PUSH0 PUSH1 0x3 PUSH0 DUP4 PUSH20 0xFFFFFFFFFFFFFFFFFFFFFFFFFFFFFFFFFFFFFFFF AND PUSH20 0xFFFFFFFFFFFFFFFFFFFFFFFFFFFFFFFFFFFFFFFF AND DUP2 MSTORE PUSH1 0x20 ADD SWAP1 DUP2 MSTORE PUSH1 0x20 ADD PUSH0 KECCAK256 SLOAD SWAP1 POP SWAP2 SWAP1 POP JUMP JUMPDEST PUSH0 PUSH0 PUSH0 PUSH0 SWAP1 SLOAD SWAP1 PUSH2 0x100 EXP SWAP1 DIV PUSH20 0xFFFFFFFFFFFFFFFFFFFFFFFFFFFFFFFFFFFFFFFF AND SWAP2 POP PUSH1 0x1 PUSH0 SWAP1 SLOAD SWAP1 PUSH2 0x100 EXP SWAP1 DIV PUSH20 0xFFFFFFFFFFFFFFFFFFFFFFFFFFFFFFFFFFFFFFFF AND SWAP1 POP SWAP1 SWAP2 JUMP JUMPDEST PUSH0 PUSH0 PUSH0 DUP4 TIMESTAMP DUP2 LT ISZERO PUSH2 0xC5D JUMPI PUSH1 0x40 MLOAD PUSH32 0x8C379A000000000000000000000000000000000000000000000000000000000 DUP2 MSTORE PUSH1 0x4 ADD PUSH2 0xC54 SWAP1 PUSH2 0x1E68 JUMP JUMPDEST PUSH1 0x40 MLOAD DUP1 SWAP2 SUB SWAP1 REVERT JUMPDEST PUSH2 0xC67 DUP13 DUP13 PUSH2 0xF8A JUMP JUMPDEST PUSH2 0xCA6 JUMPI PUSH1 0x40 MLOAD PUSH32 0x8C379A000000000000000000000000000000000000000000000000000000000 DUP2 MSTORE PUSH1 0x4 ADD PUSH2 0xC9D SWAP1 PUSH2 0x1FCD JUMP JUMPDEST PUSH1 0x40 MLOAD DUP1 SWAP2 SUB SWAP1 REVERT JUMPDEST PUSH0 PUSH20 0xFFFFFFFFFFFFFFFFFFFFFFFFFFFFFFFFFFFFFFFF AND DUP7 PUSH20 0xFFFFFFFFFFFFFFFFFFFFFFFFFFFFFFFFFFFFFFFF AND SUB PUSH2 0xD14 JUMPI PUSH1 0x40 MLOAD PUSH32 0x8C379A000000000000000000000000000000000000000000000000000000000 DUP2 MSTORE PUSH1 0x4 ADD PUSH2 0xD0B SWAP1 PUSH2 0x1F38 JUMP JUMPDEST PUSH1 0x40 MLOAD DUP1 SWAP2 SUB SWAP1 REVERT JUMPDEST PUSH2 0xD22 DUP13 DUP13 DUP13 DUP13 DUP13 DUP13 PUSH2 0x14BA JUMP JUMPDEST DUP1 SWAP5 POP DUP2 SWAP6 POP DUP3 SWAP7 POP POP POP POP PUSH2 0xD3A DUP13 CALLER ADDRESS DUP8 PUSH2 0x115B JUMP JUMPDEST PUSH2 0xD46 DUP12 CALLER ADDRESS DUP7 PUSH2 0x115B JUMP JUMPDEST DUP2 PUSH1 0x2 PUSH0 DUP3 DUP3 SLOAD PUSH2 0xD57 SWAP2 SWAP1 PUSH2 0x1D4D JUMP JUMPDEST SWAP3 POP POP DUP2 SWAP1 SSTORE POP DUP2 PUSH1 0x3 PUSH0 DUP9 PUSH20 0xFFFFFFFFFFFFFFFFFFFFFFFFFFFFFFFFFFFFFFFF AND PUSH20 0xFFFFFFFFFFFFFFFFFFFFFFFFFFFFFFFFFFFFFFFF AND DUP2 MSTORE PUSH1 0x20 ADD SWAP1 DUP2 MSTORE PUSH1 0x20 ADD PUSH0 KECCAK256 PUSH0 DUP3 DUP3 SLOAD PUSH2 0xDAA SWAP2 SWAP1 PUSH2 0x1D4D JUMP JUMPDEST SWAP3 POP POP DUP2 SWAP1 SSTORE POP DUP6 PUSH20 0xFFFFFFFFFFFFFFFFFFFFFFFFFFFFFFFFFFFFFFFF AND PUSH32 0x64B83944E79C3CE8D4C297411DE637C3E102D064677AAC0C163976EBDCD6F50E DUP6 DUP6 DUP6 PUSH1 0x40 MLOAD PUSH2 0xDFB SWAP4 SWAP3 SWAP2 SWAP1 PUSH2 0x1C0B JUMP JUMPDEST PUSH1 0x40 MLOAD DUP1 SWAP2 SUB SWAP1 LOG2 POP SWAP9 POP SWAP9 POP SWAP9 SWAP6 POP POP POP POP POP POP JUMP JUMPDEST PUSH0 PUSH0 SWAP1 SLOAD SWAP1 PUSH2 0x100 EXP SWAP1 DIV PUSH20 0xFFFFFFFFFFFFFFFFFFFFFFFFFFFFFFFFFFFFFFFF AND DUP2 JUMP JUMPDEST PUSH0 PUSH0 PUSH0 DUP4 PUSH20 0xFFFFFFFFFFFFFFFFFFFFFFFFFFFFFFFFFFFFFFFF AND ADDRESS PUSH1 0x40 MLOAD PUSH1 0x24 ADD PUSH2 0xE61 SWAP2 SWAP1 PUSH2 0x1A14 JUMP JUMPDEST PUSH1 0x40 MLOAD PUSH1 0x20 DUP2 DUP4 SUB SUB DUP2 MSTORE SWAP1 PUSH1 0x40 MSTORE PUSH32 0x70A0823100000000000000000000000000000000000000000000000000000000 PUSH28 0xFFFFFFFFFFFFFFFFFFFFFFFFFFFFFFFFFFFFFFFFFFFFFFFFFFFFFFFF NOT AND PUSH1 0x20 DUP3 ADD DUP1 MLOAD PUSH28 0xFFFFFFFFFFFFFFFFFFFFFFFFFFFFFFFFFFFFFFFFFFFFFFFFFFFFFFFF DUP4 DUP2 DUP4 AND OR DUP4 MSTORE POP POP POP POP PUSH1 0x40 MLOAD PUSH2 0xEEB SWAP2 SWAP1 PUSH2 0x216D JUMP JUMPDEST PUSH0 PUSH1 0x40 MLOAD DUP1 DUP4 SUB DUP2 DUP6 GAS STATICCALL SWAP2 POP POP RETURNDATASIZE DUP1 PUSH0 DUP2 EQ PUSH2 0xF23 JUMPI PUSH1 0x40 MLOAD SWAP2 POP PUSH1 0x1F NOT PUSH1 0x3F RETURNDATASIZE ADD AND DUP3 ADD PUSH1 0x40 MSTORE RETURNDATASIZE DUP3 MSTORE RETURNDATASIZE PUSH0 PUSH1 0x20 DUP5 ADD RETURNDATACOPY PUSH2 0xF28 JUMP JUMPDEST PUSH1 0x60 SWAP2 POP JUMPDEST POP SWAP2 POP SWAP2 POP DUP2 PUSH2 0xF6D JUMPI PUSH1 0x40 MLOAD PUSH32 0x8C379A000000000000000000000000000000000000000000000000000000000 DUP2 MSTORE PUSH1 0x4 ADD PUSH2 0xF64 SWAP1 PUSH2 0x21CD JUMP JUMPDEST PUSH1 0x40 MLOAD DUP1 SWAP2 SUB SWAP1 REVERT JUMPDEST DUP1 DUP1 PUSH1 0x20 ADD SWAP1 MLOAD DUP2 ADD SWAP1 PUSH2 0xF81 SWAP2 SWAP1 PUSH2 0x21FF JUMP JUMPDEST SWAP3 POP POP POP SWAP2 SWAP1 POP JUMP JUMPDEST PUSH0 PUSH0 PUSH0 SWAP1 SLOAD SWAP1 PUSH2 0x100 EXP SWAP1 DIV PUSH20 0xFFFFFFFFFFFFFFFFFFFFFFFFFFFFFFFFFFFFFFFF AND PUSH20 0xFFFFFFFFFFFFFFFFFFFFFFFFFFFFFFFFFFFFFFFF AND DUP4 PUSH20 0xFFFFFFFFFFFFFFFFFFFFFFFFFFFFFFFFFFFFFFFF AND EQ DUP1 ISZERO PUSH2 0x1032 JUMPI POP PUSH1 0x1 PUSH0 SWAP1 SLOAD SWAP1 PUSH2 0x100 EXP SWAP1 DIV PUSH20 0xFFFFFFFFFFFFFFFFFFFFFFFFFFFFFFFFFFFFFFFF AND PUSH20 0xFFFFFFFFFFFFFFFFFFFFFFFFFFFFFFFFFFFFFFFF AND DUP3 PUSH20 0xFFFFFFFFFFFFFFFFFFFFFFFFFFFFFFFFFFFFFFFF AND EQ JUMPDEST DUP1 PUSH2 0x10E0 JUMPI POP PUSH1 0x1 PUSH0 SWAP1 SLOAD SWAP1 PUSH2 0x100 EXP SWAP1 DIV PUSH20 0xFFFFFFFFFFFFFFFFFFFFFFFFFFFFFFFFFFFFFFFF AND PUSH20 0xFFFFFFFFFFFFFFFFFFFFFFFFFFFFFFFFFFFFFFFF AND DUP4 PUSH20 0xFFFFFFFFFFFFFFFFFFFFFFFFFFFFFFFFFFFFFFFF AND EQ DUP1 ISZERO PUSH2 0x10DF JUMPI POP PUSH0 PUSH0 SWAP1 SLOAD SWAP1 PUSH2 0x100 EXP SWAP1 DIV PUSH20 0xFFFFFFFFFFFFFFFFFFFFFFFFFFFFFFFFFFFFFFFF AND PUSH20 0xFFFFFFFFFFFFFFFFFFFFFFFFFFFFFFFFFFFFFFFF AND DUP3 PUSH20 0xFFFFFFFFFFFFFFFFFFFFFFFFFFFFFFFFFFFFFFFF AND EQ JUMPDEST JUMPDEST SWAP1 POP SWAP3 SWAP2 POP POP JUMP JUMPDEST PUSH0 PUSH0 PUSH2 0x10F3 DUP7 PUSH2 0xE36 JUMP JUMPDEST SWAP1 POP PUSH0 PUSH2 0x10FF DUP7 PUSH2 0xE36 JUMP JUMPDEST SWAP1 POP PUSH2 0x110C DUP6 DUP4 DUP4 PUSH2 0x2DA JUMP JUMPDEST SWAP3 POP DUP4 DUP4 LT ISZERO PUSH2 0x1151 JUMPI PUSH1 0x40 MLOAD PUSH32 0x8C379A000000000000000000000000000000000000000000000000000000000 DUP2 MSTORE PUSH1 0x4 ADD PUSH2 0x1148 SWAP1 PUSH2 0x2274 JUMP JUMPDEST PUSH1 0x40 MLOAD DUP1 SWAP2 SUB SWAP1 REVERT JUMPDEST POP POP SWAP5 SWAP4 POP POP POP POP JUMP JUMPDEST PUSH0 DUP5 PUSH20 0xFFFFFFFFFFFFFFFFFFFFFFFFFFFFFFFFFFFFFFFF AND DUP5 DUP5 DUP5 PUSH1 0x40 MLOAD PUSH1 0x24 ADD PUSH2 0x1188 SWAP4 SWAP3 SWAP2 SWAP1 PUSH2 0x2292 JUMP JUMPDEST PUSH1 0x40 MLOAD PUSH1 0x20 DUP2 DUP4 SUB SUB DUP2 MSTORE SWAP1 PUSH1 0x40 MSTORE PUSH32 0x23B872DD00000000000000000000000000000000000000000000000000000000 PUSH28 0xFFFFFFFFFFFFFFFFFFFFFFFFFFFFFFFFFFFFFFFFFFFFFFFFFFFFFFFF NOT AND PUSH1 0x20 DUP3 ADD DUP1 MLOAD PUSH28 0xFFFFFFFFFFFFFFFFFFFFFFFFFFFFFFFFFFFFFFFFFFFFFFFFFFFFFFFF DUP4 DUP2 DUP4 AND OR DUP4 MSTORE POP POP POP POP PUSH1 0x40 MLOAD PUSH2 0x1212 SWAP2 SWAP1 PUSH2 0x216D JUMP JUMPDEST PUSH0 PUSH1 0x40 MLOAD DUP1 DUP4 SUB DUP2 PUSH0 DUP7 GAS CALL SWAP2 POP POP RETURNDATASIZE DUP1 PUSH0 DUP2 EQ PUSH2 0x124B JUMPI PUSH1 0x40 MLOAD SWAP2 POP PUSH1 0x1F NOT PUSH1 0x3F RETURNDATASIZE ADD AND DUP3 ADD PUSH1 0x40 MSTORE RETURNDATASIZE DUP3 MSTORE RETURNDATASIZE PUSH0 PUSH1 0x20 DUP5 ADD RETURNDATACOPY PUSH2 0x1250 JUMP JUMPDEST PUSH1 0x60 SWAP2 POP JUMPDEST POP POP SWAP1 POP DUP1 PUSH2 0x1294 JUMPI PUSH1 0x40 MLOAD PUSH32 0x8C379A000000000000000000000000000000000000000000000000000000000 DUP2 MSTORE PUSH1 0x4 ADD PUSH2 0x128B SWAP1 PUSH2 0x2311 JUMP JUMPDEST PUSH1 0x40 MLOAD DUP1 SWAP2 SUB SWAP1 REVERT JUMPDEST POP POP POP POP POP JUMP JUMPDEST PUSH0 DUP4 PUSH20 0xFFFFFFFFFFFFFFFFFFFFFFFFFFFFFFFFFFFFFFFF AND DUP4 DUP4 PUSH1 0x40 MLOAD PUSH1 0x24 ADD PUSH2 0x12C6 SWAP3 SWAP2 SWAP1 PUSH2 0x232F JUMP JUMPDEST PUSH1 0x40 MLOAD PUSH1 0x20 DUP2 DUP4 SUB SUB DUP2 MSTORE SWAP1 PUSH1 0x40 MSTORE PUSH32 0xA9059CBB00000000000000000000000000000000000000000000000000000000 PUSH28 0xFFFFFFFFFFFFFFFFFFFFFFFFFFFFFFFFFFFFFFFFFFFFFFFFFFFFFFFF NOT AND PUSH1 0x20 DUP3 ADD DUP1 MLOAD PUSH28 0xFFFFFFFFFFFFFFFFFFFFFFFFFFFFFFFFFFFFFFFFFFFFFFFFFFFFFFFF DUP4 DUP2 DUP4 AND OR DUP4 MSTORE POP POP POP POP PUSH1 0x40 MLOAD PUSH2 0x1350 SWAP2 SWAP1 PUSH2 0x216D JUMP JUMPDEST PUSH0 PUSH1 0x40 MLOAD DUP1 DUP4 SUB DUP2 PUSH0 DUP7 GAS CALL SWAP2 POP POP RETURNDATASIZE DUP1 PUSH0 DUP2 EQ PUSH2 0x1389 JUMPI PUSH1 0x40 MLOAD SWAP2 POP PUSH1 0x1F NOT PUSH1 0x3F RETURNDATASIZE ADD AND DUP3 ADD PUSH1 0x40 MSTORE RETURNDATASIZE DUP3 MSTORE RETURNDATASIZE PUSH0 PUSH1 0x20 DUP5 ADD RETURNDATACOPY PUSH2 0x138E JUMP JUMPDEST PUSH1 0x60 SWAP2 POP JUMPDEST POP POP SWAP1 POP DUP1 PUSH2 0x13D2 JUMPI PUSH1 0x40 MLOAD PUSH32 0x8C379A000000000000000000000000000000000000000000000000000000000 DUP2 MSTORE PUSH1 0x4 ADD PUSH2 0x13C9 SWAP1 PUSH2 0x2311 JUMP JUMPDEST PUSH1 0x40 MLOAD DUP1 SWAP2 SUB SWAP1 REVERT JUMPDEST POP POP POP POP JUMP JUMPDEST PUSH0 PUSH0 PUSH0 PUSH2 0x13E4 DUP9 PUSH2 0xE36 JUMP JUMPDEST SWAP1 POP PUSH0 PUSH2 0x13F0 DUP9 PUSH2 0xE36 JUMP JUMPDEST SWAP1 POP PUSH1 0x2 SLOAD DUP3 DUP9 PUSH2 0x1401 SWAP2 SWAP1 PUSH2 0x1D80 JUMP JUMPDEST PUSH2 0x140B SWAP2 SWAP1 PUSH2 0x1DEE JUMP JUMPDEST SWAP4 POP PUSH1 0x2 SLOAD DUP2 DUP9 PUSH2 0x141C SWAP2 SWAP1 PUSH2 0x1D80 JUMP JUMPDEST PUSH2 0x1426 SWAP2 SWAP1 PUSH2 0x1DEE JUMP JUMPDEST SWAP3 POP DUP6 DUP5 LT ISZERO PUSH2 0x146B JUMPI PUSH1 0x40 MLOAD PUSH32 0x8C379A000000000000000000000000000000000000000000000000000000000 DUP2 MSTORE PUSH1 0x4 ADD PUSH2 0x1462 SWAP1 PUSH2 0x23A0 JUMP JUMPDEST PUSH1 0x40 MLOAD DUP1 SWAP2 SUB SWAP1 REVERT JUMPDEST DUP5 DUP4 LT ISZERO PUSH2 0x14AE JUMPI PUSH1 0x40 MLOAD PUSH32 0x8C379A000000000000000000000000000000000000000000000000000000000 DUP2 MSTORE PUSH1 0x4 ADD PUSH2 0x14A5 SWAP1 PUSH2 0x2408 JUMP JUMPDEST PUSH1 0x40 MLOAD DUP1 SWAP2 SUB SWAP1 REVERT JUMPDEST POP POP SWAP6 POP SWAP6 SWAP4 POP POP POP POP JUMP JUMPDEST PUSH0 PUSH0 PUSH0 PUSH0 PUSH2 0x14C7 DUP11 PUSH2 0xE36 JUMP JUMPDEST SWAP1 POP PUSH0 PUSH2 0x14D3 DUP11 PUSH2 0xE36 JUMP JUMPDEST SWAP1 POP PUSH0 DUP3 EQ DUP1 ISZERO PUSH2 0x14E3 JUMPI POP PUSH0 DUP2 EQ JUMPDEST ISZERO PUSH2 0x14F3 JUMPI DUP9 SWAP5 POP DUP8 SWAP4 POP PUSH2 0x15D5 JUMP JUMPDEST PUSH0 DUP3 DUP3 DUP12 PUSH2 0x1501 SWAP2 SWAP1 PUSH2 0x1D80 JUMP JUMPDEST PUSH2 0x150B SWAP2 SWAP1 PUSH2 0x1DEE JUMP JUMPDEST SWAP1 POP DUP9 DUP2 GT PUSH2 0x1562 JUMPI DUP7 DUP2 LT ISZERO PUSH2 0x1557 JUMPI PUSH1 0x40 MLOAD PUSH32 0x8C379A000000000000000000000000000000000000000000000000000000000 DUP2 MSTORE PUSH1 0x4 ADD PUSH2 0x154E SWAP1 PUSH2 0x2408 JUMP JUMPDEST PUSH1 0x40 MLOAD DUP1 SWAP2 SUB SWAP1 REVERT JUMPDEST DUP10 SWAP6 POP DUP1 SWAP5 POP PUSH2 0x15D3 JUMP JUMPDEST PUSH0 DUP3 DUP5 DUP12 PUSH2 0x1570 SWAP2 SWAP1 PUSH2 0x1D80 JUMP JUMPDEST PUSH2 0x157A SWAP2 SWAP1 PUSH2 0x1DEE JUMP JUMPDEST SWAP1 POP DUP11 DUP2 GT ISZERO DUP1 ISZERO PUSH2 0x158C JUMPI POP DUP9 DUP2 LT ISZERO JUMPDEST PUSH2 0x15CB JUMPI PUSH1 0x40 MLOAD PUSH32 0x8C379A000000000000000000000000000000000000000000000000000000000 DUP2 MSTORE PUSH1 0x4 ADD PUSH2 0x15C2 SWAP1 PUSH2 0x23A0 JUMP JUMPDEST PUSH1 0x40 MLOAD DUP1 SWAP2 SUB SWAP1 REVERT JUMPDEST DUP1 SWAP7 POP DUP10 SWAP6 POP POP JUMPDEST POP JUMPDEST PUSH2 0x3E8 PUSH1 0x2 SLOAD SUB PUSH2 0x15FB JUMPI PUSH2 0x15F4 DUP5 DUP7 PUSH2 0x15EF SWAP2 SWAP1 PUSH2 0x1D80 JUMP JUMPDEST PUSH2 0x1697 JUMP JUMPDEST SWAP3 POP PUSH2 0x1647 JUMP JUMPDEST PUSH0 DUP3 PUSH1 0x2 SLOAD DUP8 PUSH2 0x160B SWAP2 SWAP1 PUSH2 0x1D80 JUMP JUMPDEST PUSH2 0x1615 SWAP2 SWAP1 PUSH2 0x1DEE JUMP JUMPDEST SWAP1 POP PUSH0 DUP3 PUSH1 0x2 SLOAD DUP8 PUSH2 0x1627 SWAP2 SWAP1 PUSH2 0x1D80 JUMP JUMPDEST PUSH2 0x1631 SWAP2 SWAP1 PUSH2 0x1DEE JUMP JUMPDEST SWAP1 POP DUP1 DUP3 LT PUSH2 0x1640 JUMPI DUP1 PUSH2 0x1642 JUMP JUMPDEST DUP2 JUMPDEST SWAP5 POP POP POP JUMPDEST PUSH0 DUP4 GT PUSH2 0x1689 JUMPI PUSH1 0x40 MLOAD PUSH32 0x8C379A000000000000000000000000000000000000000000000000000000000 DUP2 MSTORE PUSH1 0x4 ADD PUSH2 0x1680 SWAP1 PUSH2 0x2470 JUMP JUMPDEST PUSH1 0x40 MLOAD DUP1 SWAP2 SUB SWAP1 REVERT JUMPDEST POP POP SWAP7 POP SWAP7 POP SWAP7 SWAP4 POP POP POP POP JUMP JUMPDEST PUSH0 PUSH0 DUP3 SUB PUSH2 0x16A7 JUMPI PUSH0 SWAP1 POP PUSH2 0x16FE JUMP JUMPDEST PUSH0 PUSH1 0x2 PUSH1 0x1 DUP5 PUSH2 0x16B7 SWAP2 SWAP1 PUSH2 0x1D4D JUMP JUMPDEST PUSH2 0x16C1 SWAP2 SWAP1 PUSH2 0x1DEE JUMP JUMPDEST SWAP1 POP DUP3 SWAP2 POP JUMPDEST DUP2 DUP2 LT ISZERO PUSH2 0x16FC JUMPI DUP1 SWAP2 POP PUSH1 0x2 DUP2 DUP3 DUP6 PUSH2 0x16E1 SWAP2 SWAP1 PUSH2 0x1DEE JUMP JUMPDEST PUSH2 0x16EB SWAP2 SWAP1 PUSH2 0x1D4D JUMP JUMPDEST PUSH2 0x16F5 SWAP2 SWAP1 PUSH2 0x1DEE JUMP JUMPDEST SWAP1 POP PUSH2 0x16C7 JUMP JUMPDEST POP JUMPDEST SWAP2 SWAP1 POP JUMP JUMPDEST PUSH0 PUSH0 REVERT JUMPDEST PUSH0 PUSH0 REVERT JUMPDEST PUSH0 DUP2 SWAP1 POP SWAP2 SWAP1 POP JUMP JUMPDEST PUSH2 0x171D DUP2 PUSH2 0x170B JUMP JUMPDEST DUP2 EQ PUSH2 0x1727 JUMPI PUSH0 PUSH0 REVERT JUMPDEST POP JUMP JUMPDEST PUSH0 DUP2 CALLDATALOAD SWAP1 POP PUSH2 0x1738 DUP2 PUSH2 0x1714 JUMP JUMPDEST SWAP3 SWAP2 POP POP JUMP JUMPDEST PUSH0 PUSH0 PUSH0 PUSH1 0x60 DUP5 DUP7 SUB SLT ISZERO PUSH2 0x1755 JUMPI PUSH2 0x1754 PUSH2 0x1703 JUMP JUMPDEST JUMPDEST PUSH0 PUSH2 0x1762 DUP7 DUP3 DUP8 ADD PUSH2 0x172A JUMP JUMPDEST SWAP4 POP POP PUSH1 0x20 PUSH2 0x1773 DUP7 DUP3 DUP8 ADD PUSH2 0x172A JUMP JUMPDEST SWAP3 POP POP PUSH1 0x40 PUSH2 0x1784 DUP7 DUP3 DUP8 ADD PUSH2 0x172A JUMP JUMPDEST SWAP2 POP POP SWAP3 POP SWAP3 POP SWAP3 JUMP JUMPDEST PUSH2 0x1797 DUP2 PUSH2 0x170B JUMP JUMPDEST DUP3 MSTORE POP POP JUMP JUMPDEST PUSH0 PUSH1 0x20 DUP3 ADD SWAP1 POP PUSH2 0x17B0 PUSH0 DUP4 ADD DUP5 PUSH2 0x178E JUMP JUMPDEST SWAP3 SWAP2 POP POP JUMP JUMPDEST PUSH0 PUSH1 0x40 DUP3 ADD SWAP1 POP PUSH2 0x17C9 PUSH0 DUP4 ADD DUP6 PUSH2 0x178E JUMP JUMPDEST PUSH2 0x17D6 PUSH1 0x20 DUP4 ADD DUP5 PUSH2 0x178E JUMP JUMPDEST SWAP4 SWAP3 POP POP POP JUMP JUMPDEST PUSH0 PUSH0 REVERT JUMPDEST PUSH0 PUSH0 REVERT JUMPDEST PUSH0 PUSH0 REVERT JUMPDEST PUSH0 PUSH0 DUP4 PUSH1 0x1F DUP5 ADD SLT PUSH2 0x17FE JUMPI PUSH2 0x17FD PUSH2 0x17DD JUMP JUMPDEST JUMPDEST DUP3 CALLDATALOAD SWAP1 POP PUSH8 0xFFFFFFFFFFFFFFFF DUP2 GT ISZERO PUSH2 0x181B JUMPI PUSH2 0x181A PUSH2 0x17E1 JUMP JUMPDEST JUMPDEST PUSH1 0x20 DUP4 ADD SWAP2 POP DUP4 PUSH1 0x20 DUP3 MUL DUP4 ADD GT ISZERO PUSH2 0x1837 JUMPI PUSH2 0x1836 PUSH2 0x17E5 JUMP JUMPDEST JUMPDEST SWAP3 POP SWAP3 SWAP1 POP JUMP JUMPDEST PUSH0 PUSH20 0xFFFFFFFFFFFFFFFFFFFFFFFFFFFFFFFFFFFFFFFF DUP3 AND SWAP1 POP SWAP2 SWAP1 POP JUMP JUMPDEST PUSH0 PUSH2 0x1867 DUP3 PUSH2 0x183E JUMP JUMPDEST SWAP1 POP SWAP2 SWAP1 POP JUMP JUMPDEST PUSH2 0x1877 DUP2 PUSH2 0x185D JUMP JUMPDEST DUP2 EQ PUSH2 0x1881 JUMPI PUSH0 PUSH0 REVERT JUMPDEST POP JUMP JUMPDEST PUSH0 DUP2 CALLDATALOAD SWAP1 POP PUSH2 0x1892 DUP2 PUSH2 0x186E JUMP JUMPDEST SWAP3 SWAP2 POP POP JUMP JUMPDEST PUSH0 PUSH0 PUSH0 PUSH0 PUSH0 PUSH0 PUSH1 0xA0 DUP8 DUP10 SUB SLT ISZERO PUSH2 0x18B2 JUMPI PUSH2 0x18B1 PUSH2 0x1703 JUMP JUMPDEST JUMPDEST PUSH0 PUSH2 0x18BF DUP10 DUP3 DUP11 ADD PUSH2 0x172A JUMP JUMPDEST SWAP7 POP POP PUSH1 0x20 PUSH2 0x18D0 DUP10 DUP3 DUP11 ADD PUSH2 0x172A JUMP JUMPDEST SWAP6 POP POP PUSH1 0x40 DUP8 ADD CALLDATALOAD PUSH8 0xFFFFFFFFFFFFFFFF DUP2 GT ISZERO PUSH2 0x18F1 JUMPI PUSH2 0x18F0 PUSH2 0x1707 JUMP JUMPDEST JUMPDEST PUSH2 0x18FD DUP10 DUP3 DUP11 ADD PUSH2 0x17E9 JUMP JUMPDEST SWAP5 POP SWAP5 POP POP PUSH1 0x60 PUSH2 0x1910 DUP10 DUP3 DUP11 ADD PUSH2 0x1884 JUMP JUMPDEST SWAP3 POP POP PUSH1 0x80 PUSH2 0x1921 DUP10 DUP3 DUP11 ADD PUSH2 0x172A JUMP JUMPDEST SWAP2 POP POP SWAP3 SWAP6 POP SWAP3 SWAP6 POP SWAP3 SWAP6 JUMP JUMPDEST PUSH0 DUP2 MLOAD SWAP1 POP SWAP2 SWAP1 POP JUMP JUMPDEST PUSH0 DUP3 DUP3 MSTORE PUSH1 0x20 DUP3 ADD SWAP1 POP SWAP3 SWAP2 POP POP JUMP JUMPDEST PUSH0 DUP2 SWAP1 POP PUSH1 0x20 DUP3 ADD SWAP1 POP SWAP2 SWAP1 POP JUMP JUMPDEST PUSH2 0x1960 DUP2 PUSH2 0x170B JUMP JUMPDEST DUP3 MSTORE POP POP JUMP JUMPDEST PUSH0 PUSH2 0x1971 DUP4 DUP4 PUSH2 0x1957 JUMP JUMPDEST PUSH1 0x20 DUP4 ADD SWAP1 POP SWAP3 SWAP2 POP POP JUMP JUMPDEST PUSH0 PUSH1 0x20 DUP3 ADD SWAP1 POP SWAP2 SWAP1 POP JUMP JUMPDEST PUSH0 PUSH2 0x1993 DUP3 PUSH2 0x192E JUMP JUMPDEST PUSH2 0x199D DUP2 DUP6 PUSH2 0x1938 JUMP JUMPDEST SWAP4 POP PUSH2 0x19A8 DUP4 PUSH2 0x1948 JUMP JUMPDEST DUP1 PUSH0 JUMPDEST DUP4 DUP2 LT ISZERO PUSH2 0x19D8 JUMPI DUP2 MLOAD PUSH2 0x19BF DUP9 DUP3 PUSH2 0x1966 JUMP JUMPDEST SWAP8 POP PUSH2 0x19CA DUP4 PUSH2 0x197D JUMP JUMPDEST SWAP3 POP POP PUSH1 0x1 DUP2 ADD SWAP1 POP PUSH2 0x19AB JUMP JUMPDEST POP DUP6 SWAP4 POP POP POP POP SWAP3 SWAP2 POP POP JUMP JUMPDEST PUSH0 PUSH1 0x20 DUP3 ADD SWAP1 POP DUP2 DUP2 SUB PUSH0 DUP4 ADD MSTORE PUSH2 0x19FD DUP2 DUP5 PUSH2 0x1989 JUMP JUMPDEST SWAP1 POP SWAP3 SWAP2 POP POP JUMP JUMPDEST PUSH2 0x1A0E DUP2 PUSH2 0x185D JUMP JUMPDEST DUP3 MSTORE POP POP JUMP JUMPDEST PUSH0 PUSH1 0x20 DUP3 ADD SWAP1 POP PUSH2 0x1A27 PUSH0 DUP4 ADD DUP5 PUSH2 0x1A05 JUMP JUMPDEST SWAP3 SWAP2 POP POP JUMP JUMPDEST PUSH0 PUSH1 0x20 DUP3 DUP5 SUB SLT ISZERO PUSH2 0x1A42 JUMPI PUSH2 0x1A41 PUSH2 0x1703 JUMP JUMPDEST JUMPDEST PUSH0 PUSH2 0x1A4F DUP5 DUP3 DUP6 ADD PUSH2 0x1884 JUMP JUMPDEST SWAP2 POP POP SWAP3 SWAP2 POP POP JUMP JUMPDEST PUSH0 PUSH0 PUSH1 0x40 DUP4 DUP6 SUB SLT ISZERO PUSH2 0x1A6E JUMPI PUSH2 0x1A6D PUSH2 0x1703 JUMP JUMPDEST JUMPDEST PUSH0 PUSH2 0x1A7B DUP6 DUP3 DUP7 ADD PUSH2 0x1884 JUMP JUMPDEST SWAP3 POP POP PUSH1 0x20 PUSH2 0x1A8C DUP6 DUP3 DUP7 ADD PUSH2 0x1884 JUMP JUMPDEST SWAP2 POP POP SWAP3 POP SWAP3 SWAP1 POP JUMP JUMPDEST PUSH0 PUSH0 PUSH0 PUSH0 PUSH0 PUSH0 PUSH0 PUSH1 0xE0 DUP9 DUP11 SUB SLT ISZERO PUSH2 0x1AB1 JUMPI PUSH2 0x1AB0 PUSH2 0x1703 JUMP JUMPDEST JUMPDEST PUSH0 PUSH2 0x1ABE DUP11 DUP3 DUP12 ADD PUSH2 0x1884 JUMP JUMPDEST SWAP8 POP POP PUSH1 0x20 PUSH2 0x1ACF DUP11 DUP3 DUP12 ADD PUSH2 0x1884 JUMP JUMPDEST SWAP7 POP POP PUSH1 0x40 PUSH2 0x1AE0 DUP11 DUP3 DUP12 ADD PUSH2 0x172A JUMP JUMPDEST SWAP6 POP POP PUSH1 0x60 PUSH2 0x1AF1 DUP11 DUP3 DUP12 ADD PUSH2 0x172A JUMP JUMPDEST SWAP5 POP POP PUSH1 0x80 PUSH2 0x1B02 DUP11 DUP3 DUP12 ADD PUSH2 0x172A JUMP JUMPDEST SWAP4 POP POP PUSH1 0xA0 PUSH2 0x1B13 DUP11 DUP3 DUP12 ADD PUSH2 0x1884 JUMP JUMPDEST SWAP3 POP POP PUSH1 0xC0 PUSH2 0x1B24 DUP11 DUP3 DUP12 ADD PUSH2 0x172A JUMP JUMPDEST SWAP2 POP POP SWAP3 SWAP6 SWAP9 SWAP2 SWAP5 SWAP8 POP SWAP3 SWAP6 POP JUMP JUMPDEST PUSH0 PUSH1 0x40 DUP3 ADD SWAP1 POP PUSH2 0x1B46 PUSH0 DUP4 ADD DUP6 PUSH2 0x1A05 JUMP JUMPDEST PUSH2 0x1B53 PUSH1 0x20 DUP4 ADD DUP5 PUSH2 0x1A05 JUMP JUMPDEST SWAP4 SWAP3 POP POP POP JUMP JUMPDEST PUSH0 PUSH0 PUSH0 PUSH0 PUSH0 PUSH0 PUSH0 PUSH0 PUSH2 0x100 DUP10 DUP12 SUB SLT ISZERO PUSH2 0x1B77 JUMPI PUSH2 0x1B76 PUSH2 0x1703 JUMP JUMPDEST JUMPDEST PUSH0 PUSH2 0x1B84 DUP12 DUP3 DUP13 ADD PUSH2 0x1884 JUMP JUMPDEST SWAP9 POP POP PUSH1 0x20 PUSH2 0x1B95 DUP12 DUP3 DUP13 ADD PUSH2 0x1884 JUMP JUMPDEST SWAP8 POP POP PUSH1 0x40 PUSH2 0x1BA6 DUP12 DUP3 DUP13 ADD PUSH2 0x172A JUMP JUMPDEST SWAP7 POP POP PUSH1 0x60 PUSH2 0x1BB7 DUP12 DUP3 DUP13 ADD PUSH2 0x172A JUMP JUMPDEST SWAP6 POP POP PUSH1 0x80 PUSH2 0x1BC8 DUP12 DUP3 DUP13 ADD PUSH2 0x172A JUMP JUMPDEST SWAP5 POP POP PUSH1 0xA0 PUSH2 0x1BD9 DUP12 DUP3 DUP13 ADD PUSH2 0x172A JUMP JUMPDEST SWAP4 POP POP PUSH1 0xC0 PUSH2 0x1BEA DUP12 DUP3 DUP13 ADD PUSH2 0x1884 JUMP JUMPDEST SWAP3 POP POP PUSH1 0xE0 PUSH2 0x1BFB DUP12 DUP3 DUP13 ADD PUSH2 0x172A JUMP JUMPDEST SWAP2 POP POP SWAP3 SWAP6 SWAP9 POP SWAP3 SWAP6 SWAP9 SWAP1 SWAP4 SWAP7 POP JUMP JUMPDEST PUSH0 PUSH1 0x60 DUP3 ADD SWAP1 POP PUSH2 0x1C1E PUSH0 DUP4 ADD DUP7 PUSH2 0x178E JUMP JUMPDEST PUSH2 0x1C2B PUSH1 0x20 DUP4 ADD DUP6 PUSH2 0x178E JUMP JUMPDEST PUSH2 0x1C38 PUSH1 0x40 DUP4 ADD DUP5 PUSH2 0x178E JUMP JUMPDEST SWAP5 SWAP4 POP POP POP POP JUMP JUMPDEST PUSH0 DUP3 DUP3 MSTORE PUSH1 0x20 DUP3 ADD SWAP1 POP SWAP3 SWAP2 POP POP JUMP JUMPDEST PUSH32 0x496E73756666696369656E7420696E70757420616D6F756E7400000000000000 PUSH0 DUP3 ADD MSTORE POP JUMP JUMPDEST PUSH0 PUSH2 0x1C84 PUSH1 0x19 DUP4 PUSH2 0x1C40 JUMP JUMPDEST SWAP2 POP PUSH2 0x1C8F DUP3 PUSH2 0x1C50 JUMP JUMPDEST PUSH1 0x20 DUP3 ADD SWAP1 POP SWAP2 SWAP1 POP JUMP JUMPDEST PUSH0 PUSH1 0x20 DUP3 ADD SWAP1 POP DUP2 DUP2 SUB PUSH0 DUP4 ADD MSTORE PUSH2 0x1CB1 DUP2 PUSH2 0x1C78 JUMP JUMPDEST SWAP1 POP SWAP2 SWAP1 POP JUMP JUMPDEST PUSH32 0x496E73756666696369656E742072657365727665730000000000000000000000 PUSH0 DUP3 ADD MSTORE POP JUMP JUMPDEST PUSH0 PUSH2 0x1CEC PUSH1 0x15 DUP4 PUSH2 0x1C40 JUMP JUMPDEST SWAP2 POP PUSH2 0x1CF7 DUP3 PUSH2 0x1CB8 JUMP JUMPDEST PUSH1 0x20 DUP3 ADD SWAP1 POP SWAP2 SWAP1 POP JUMP JUMPDEST PUSH0 PUSH1 0x20 DUP3 ADD SWAP1 POP DUP2 DUP2 SUB PUSH0 DUP4 ADD MSTORE PUSH2 0x1D19 DUP2 PUSH2 0x1CE0 JUMP JUMPDEST SWAP1 POP SWAP2 SWAP1 POP JUMP JUMPDEST PUSH32 0x4E487B7100000000000000000000000000000000000000000000000000000000 PUSH0 MSTORE PUSH1 0x11 PUSH1 0x4 MSTORE PUSH1 0x24 PUSH0 REVERT JUMPDEST PUSH0 PUSH2 0x1D57 DUP3 PUSH2 0x170B JUMP JUMPDEST SWAP2 POP PUSH2 0x1D62 DUP4 PUSH2 0x170B JUMP JUMPDEST SWAP3 POP DUP3 DUP3 ADD SWAP1 POP DUP1 DUP3 GT ISZERO PUSH2 0x1D7A JUMPI PUSH2 0x1D79 PUSH2 0x1D20 JUMP JUMPDEST JUMPDEST SWAP3 SWAP2 POP POP JUMP JUMPDEST PUSH0 PUSH2 0x1D8A DUP3 PUSH2 0x170B JUMP JUMPDEST SWAP2 POP PUSH2 0x1D95 DUP4 PUSH2 0x170B JUMP JUMPDEST SWAP3 POP DUP3 DUP3 MUL PUSH2 0x1DA3 DUP2 PUSH2 0x170B JUMP JUMPDEST SWAP2 POP DUP3 DUP3 DIV DUP5 EQ DUP4 ISZERO OR PUSH2 0x1DBA JUMPI PUSH2 0x1DB9 PUSH2 0x1D20 JUMP JUMPDEST JUMPDEST POP SWAP3 SWAP2 POP POP JUMP JUMPDEST PUSH32 0x4E487B7100000000000000000000000000000000000000000000000000000000 PUSH0 MSTORE PUSH1 0x12 PUSH1 0x4 MSTORE PUSH1 0x24 PUSH0 REVERT JUMPDEST PUSH0 PUSH2 0x1DF8 DUP3 PUSH2 0x170B JUMP JUMPDEST SWAP2 POP PUSH2 0x1E03 DUP4 PUSH2 0x170B JUMP JUMPDEST SWAP3 POP DUP3 PUSH2 0x1E13 JUMPI PUSH2 0x1E12 PUSH2 0x1DC1 JUMP JUMPDEST JUMPDEST DUP3 DUP3 DIV SWAP1 POP SWAP3 SWAP2 POP POP JUMP JUMPDEST PUSH32 0x5472616E73616374696F6E206578706972656400000000000000000000000000 PUSH0 DUP3 ADD MSTORE POP JUMP JUMPDEST PUSH0 PUSH2 0x1E52 PUSH1 0x13 DUP4 PUSH2 0x1C40 JUMP JUMPDEST SWAP2 POP PUSH2 0x1E5D DUP3 PUSH2 0x1E1E JUMP JUMPDEST PUSH1 0x20 DUP3 ADD SWAP1 POP SWAP2 SWAP1 POP JUMP JUMPDEST PUSH0 PUSH1 0x20 DUP3 ADD SWAP1 POP DUP2 DUP2 SUB PUSH0 DUP4 ADD MSTORE PUSH2 0x1E7F DUP2 PUSH2 0x1E46 JUMP JUMPDEST SWAP1 POP SWAP2 SWAP1 POP JUMP JUMPDEST PUSH32 0x496E76616C696420706174680000000000000000000000000000000000000000 PUSH0 DUP3 ADD MSTORE POP JUMP JUMPDEST PUSH0 PUSH2 0x1EBA PUSH1 0xC DUP4 PUSH2 0x1C40 JUMP JUMPDEST SWAP2 POP PUSH2 0x1EC5 DUP3 PUSH2 0x1E86 JUMP JUMPDEST PUSH1 0x20 DUP3 ADD SWAP1 POP SWAP2 SWAP1 POP JUMP JUMPDEST PUSH0 PUSH1 0x20 DUP3 ADD SWAP1 POP DUP2 DUP2 SUB PUSH0 DUP4 ADD MSTORE PUSH2 0x1EE7 DUP2 PUSH2 0x1EAE JUMP JUMPDEST SWAP1 POP SWAP2 SWAP1 POP JUMP JUMPDEST PUSH32 0x496E76616C696420726563697069656E74000000000000000000000000000000 PUSH0 DUP3 ADD MSTORE POP JUMP JUMPDEST PUSH0 PUSH2 0x1F22 PUSH1 0x11 DUP4 PUSH2 0x1C40 JUMP JUMPDEST SWAP2 POP PUSH2 0x1F2D DUP3 PUSH2 0x1EEE JUMP JUMPDEST PUSH1 0x20 DUP3 ADD SWAP1 POP SWAP2 SWAP1 POP JUMP JUMPDEST PUSH0 PUSH1 0x20 DUP3 ADD SWAP1 POP DUP2 DUP2 SUB PUSH0 DUP4 ADD MSTORE PUSH2 0x1F4F DUP2 PUSH2 0x1F16 JUMP JUMPDEST SWAP1 POP SWAP2 SWAP1 POP JUMP JUMPDEST PUSH32 0x4E487B7100000000000000000000000000000000000000000000000000000000 PUSH0 MSTORE PUSH1 0x32 PUSH1 0x4 MSTORE PUSH1 0x24 PUSH0 REVERT JUMPDEST PUSH32 0x496E76616C696420746F6B656E20706169720000000000000000000000000000 PUSH0 DUP3 ADD MSTORE POP JUMP JUMPDEST PUSH0 PUSH2 0x1FB7 PUSH1 0x12 DUP4 PUSH2 0x1C40 JUMP JUMPDEST SWAP2 POP PUSH2 0x1FC2 DUP3 PUSH2 0x1F83 JUMP JUMPDEST PUSH1 0x20 DUP3 ADD SWAP1 POP SWAP2 SWAP1 POP JUMP JUMPDEST PUSH0 PUSH1 0x20 DUP3 ADD SWAP1 POP DUP2 DUP2 SUB PUSH0 DUP4 ADD MSTORE PUSH2 0x1FE4 DUP2 PUSH2 0x1FAB JUMP JUMPDEST SWAP1 POP SWAP2 SWAP1 POP JUMP JUMPDEST PUSH32 0x4E487B7100000000000000000000000000000000000000000000000000000000 PUSH0 MSTORE PUSH1 0x41 PUSH1 0x4 MSTORE PUSH1 0x24 PUSH0 REVERT JUMPDEST PUSH32 0x5A65726F206C6971756964697479000000000000000000000000000000000000 PUSH0 DUP3 ADD MSTORE POP JUMP JUMPDEST PUSH0 PUSH2 0x204C PUSH1 0xE DUP4 PUSH2 0x1C40 JUMP JUMPDEST SWAP2 POP PUSH2 0x2057 DUP3 PUSH2 0x2018 JUMP JUMPDEST PUSH1 0x20 DUP3 ADD SWAP1 POP SWAP2 SWAP1 POP JUMP JUMPDEST PUSH0 PUSH1 0x20 DUP3 ADD SWAP1 POP DUP2 DUP2 SUB PUSH0 DUP4 ADD MSTORE PUSH2 0x2079 DUP2 PUSH2 0x2040 JUMP JUMPDEST SWAP1 POP SWAP2 SWAP1 POP JUMP JUMPDEST PUSH32 0x496E73756666696369656E74206C697175696469747920736861726573000000 PUSH0 DUP3 ADD MSTORE POP JUMP JUMPDEST PUSH0 PUSH2 0x20B4 PUSH1 0x1D DUP4 PUSH2 0x1C40 JUMP JUMPDEST SWAP2 POP PUSH2 0x20BF DUP3 PUSH2 0x2080 JUMP JUMPDEST PUSH1 0x20 DUP3 ADD SWAP1 POP SWAP2 SWAP1 POP JUMP JUMPDEST PUSH0 PUSH1 0x20 DUP3 ADD SWAP1 POP DUP2 DUP2 SUB PUSH0 DUP4 ADD MSTORE PUSH2 0x20E1 DUP2 PUSH2 0x20A8 JUMP JUMPDEST SWAP1 POP SWAP2 SWAP1 POP JUMP JUMPDEST PUSH0 PUSH2 0x20F2 DUP3 PUSH2 0x170B JUMP JUMPDEST SWAP2 POP PUSH2 0x20FD DUP4 PUSH2 0x170B JUMP JUMPDEST SWAP3 POP DUP3 DUP3 SUB SWAP1 POP DUP2 DUP2 GT ISZERO PUSH2 0x2115 JUMPI PUSH2 0x2114 PUSH2 0x1D20 JUMP JUMPDEST JUMPDEST SWAP3 SWAP2 POP POP JUMP JUMPDEST PUSH0 DUP2 MLOAD SWAP1 POP SWAP2 SWAP1 POP JUMP JUMPDEST PUSH0 DUP2 SWAP1 POP SWAP3 SWAP2 POP POP JUMP JUMPDEST DUP3 DUP2 DUP4 MCOPY PUSH0 DUP4 DUP4 ADD MSTORE POP POP POP JUMP JUMPDEST PUSH0 PUSH2 0x2147 DUP3 PUSH2 0x211B JUMP JUMPDEST PUSH2 0x2151 DUP2 DUP6 PUSH2 0x2125 JUMP JUMPDEST SWAP4 POP PUSH2 0x2161 DUP2 DUP6 PUSH1 0x20 DUP7 ADD PUSH2 0x212F JUMP JUMPDEST DUP1 DUP5 ADD SWAP2 POP POP SWAP3 SWAP2 POP POP JUMP JUMPDEST PUSH0 PUSH2 0x2178 DUP3 DUP5 PUSH2 0x213D JUMP JUMPDEST SWAP2 POP DUP2 SWAP1 POP SWAP3 SWAP2 POP POP JUMP JUMPDEST PUSH32 0x4661696C656420746F206765742062616C616E63650000000000000000000000 PUSH0 DUP3 ADD MSTORE POP JUMP JUMPDEST PUSH0 PUSH2 0x21B7 PUSH1 0x15 DUP4 PUSH2 0x1C40 JUMP JUMPDEST SWAP2 POP PUSH2 0x21C2 DUP3 PUSH2 0x2183 JUMP JUMPDEST PUSH1 0x20 DUP3 ADD SWAP1 POP SWAP2 SWAP1 POP JUMP JUMPDEST PUSH0 PUSH1 0x20 DUP3 ADD SWAP1 POP DUP2 DUP2 SUB PUSH0 DUP4 ADD MSTORE PUSH2 0x21E4 DUP2 PUSH2 0x21AB JUMP JUMPDEST SWAP1 POP SWAP2 SWAP1 POP JUMP JUMPDEST PUSH0 DUP2 MLOAD SWAP1 POP PUSH2 0x21F9 DUP2 PUSH2 0x1714 JUMP JUMPDEST SWAP3 SWAP2 POP POP JUMP JUMPDEST PUSH0 PUSH1 0x20 DUP3 DUP5 SUB SLT ISZERO PUSH2 0x2214 JUMPI PUSH2 0x2213 PUSH2 0x1703 JUMP JUMPDEST JUMPDEST PUSH0 PUSH2 0x2221 DUP5 DUP3 DUP6 ADD PUSH2 0x21EB JUMP JUMPDEST SWAP2 POP POP SWAP3 SWAP2 POP POP JUMP JUMPDEST PUSH32 0x496E73756666696369656E74206F757470757420616D6F756E74000000000000 PUSH0 DUP3 ADD MSTORE POP JUMP JUMPDEST PUSH0 PUSH2 0x225E PUSH1 0x1A DUP4 PUSH2 0x1C40 JUMP JUMPDEST SWAP2 POP PUSH2 0x2269 DUP3 PUSH2 0x222A JUMP JUMPDEST PUSH1 0x20 DUP3 ADD SWAP1 POP SWAP2 SWAP1 POP JUMP JUMPDEST PUSH0 PUSH1 0x20 DUP3 ADD SWAP1 POP DUP2 DUP2 SUB PUSH0 DUP4 ADD MSTORE PUSH2 0x228B DUP2 PUSH2 0x2252 JUMP JUMPDEST SWAP1 POP SWAP2 SWAP1 POP JUMP JUMPDEST PUSH0 PUSH1 0x60 DUP3 ADD SWAP1 POP PUSH2 0x22A5 PUSH0 DUP4 ADD DUP7 PUSH2 0x1A05 JUMP JUMPDEST PUSH2 0x22B2 PUSH1 0x20 DUP4 ADD DUP6 PUSH2 0x1A05 JUMP JUMPDEST PUSH2 0x22BF PUSH1 0x40 DUP4 ADD DUP5 PUSH2 0x178E JUMP JUMPDEST SWAP5 SWAP4 POP POP POP POP JUMP JUMPDEST PUSH32 0x5472616E73666572206661696C65640000000000000000000000000000000000 PUSH0 DUP3 ADD MSTORE POP JUMP JUMPDEST PUSH0 PUSH2 0x22FB PUSH1 0xF DUP4 PUSH2 0x1C40 JUMP JUMPDEST SWAP2 POP PUSH2 0x2306 DUP3 PUSH2 0x22C7 JUMP JUMPDEST PUSH1 0x20 DUP3 ADD SWAP1 POP SWAP2 SWAP1 POP JUMP JUMPDEST PUSH0 PUSH1 0x20 DUP3 ADD SWAP1 POP DUP2 DUP2 SUB PUSH0 DUP4 ADD MSTORE PUSH2 0x2328 DUP2 PUSH2 0x22EF JUMP JUMPDEST SWAP1 POP SWAP2 SWAP1 POP JUMP JUMPDEST PUSH0 PUSH1 0x40 DUP3 ADD SWAP1 POP PUSH2 0x2342 PUSH0 DUP4 ADD DUP6 PUSH2 0x1A05 JUMP JUMPDEST PUSH2 0x234F PUSH1 0x20 DUP4 ADD DUP5 PUSH2 0x178E JUMP JUMPDEST SWAP4 SWAP3 POP POP POP JUMP JUMPDEST PUSH32 0x496E73756666696369656E74204120616D6F756E740000000000000000000000 PUSH0 DUP3 ADD MSTORE POP JUMP JUMPDEST PUSH0 PUSH2 0x238A PUSH1 0x15 DUP4 PUSH2 0x1C40 JUMP JUMPDEST SWAP2 POP PUSH2 0x2395 DUP3 PUSH2 0x2356 JUMP JUMPDEST PUSH1 0x20 DUP3 ADD SWAP1 POP SWAP2 SWAP1 POP JUMP JUMPDEST PUSH0 PUSH1 0x20 DUP3 ADD SWAP1 POP DUP2 DUP2 SUB PUSH0 DUP4 ADD MSTORE PUSH2 0x23B7 DUP2 PUSH2 0x237E JUMP JUMPDEST SWAP1 POP SWAP2 SWAP1 POP JUMP JUMPDEST PUSH32 0x496E73756666696369656E74204220616D6F756E740000000000000000000000 PUSH0 DUP3 ADD MSTORE POP JUMP JUMPDEST PUSH0 PUSH2 0x23F2 PUSH1 0x15 DUP4 PUSH2 0x1C40 JUMP JUMPDEST SWAP2 POP PUSH2 0x23FD DUP3 PUSH2 0x23BE JUMP JUMPDEST PUSH1 0x20 DUP3 ADD SWAP1 POP SWAP2 SWAP1 POP JUMP JUMPDEST PUSH0 PUSH1 0x20 DUP3 ADD SWAP1 POP DUP2 DUP2 SUB PUSH0 DUP4 ADD MSTORE PUSH2 0x241F DUP2 PUSH2 0x23E6 JUMP JUMPDEST SWAP1 POP SWAP2 SWAP1 POP JUMP JUMPDEST PUSH32 0x496E73756666696369656E74206C6971756964697479206D696E746564000000 PUSH0 DUP3 ADD MSTORE POP JUMP JUMPDEST PUSH0 PUSH2 0x245A PUSH1 0x1D DUP4 PUSH2 0x1C40 JUMP JUMPDEST SWAP2 POP PUSH2 0x2465 DUP3 PUSH2 0x2426 JUMP JUMPDEST PUSH1 0x20 DUP3 ADD SWAP1 POP SWAP2 SWAP1 POP JUMP JUMPDEST PUSH0 PUSH1 0x20 DUP3 ADD SWAP1 POP DUP2 DUP2 SUB PUSH0 DUP4 ADD MSTORE PUSH2 0x2487 DUP2 PUSH2 0x244E JUMP JUMPDEST SWAP1 POP SWAP2 SWAP1 POP JUMP INVALID LOG2 PUSH5 0x6970667358 0x22 SLT KECCAK256 0x22 BLOBHASH ADDRESS CREATE 0x1E EXTCODESIZE SWAP16 0x2D 0x4C PUSH18 0x6B6112E0831A28F2A4E44047AB0E54F44CF0 PUSH2 0xAB09 CALL PUSH5 0x736F6C6343 STOP ADDMOD 0x1E STOP CALLER "
				},
				"gasEstimates": {
					"creation": {
						"codeDepositCost": "1882400",
						"executionCost": "infinite",
						"totalCost": "infinite"
					},
					"external": {
						"addLiquidity(address,address,uint256,uint256,uint256,uint256,address,uint256)": "infinite",
						"getAmountOut(uint256,uint256,uint256)": "infinite",
						"getLiquidityShares(address)": "2851",
						"getPrice(address,address)": "infinite",
						"getReserves()": "infinite",
						"getSupportedTokens()": "infinite",
						"getTotalLiquidity()": "2499",
						"liquidityShares(address)": "2825",
						"removeLiquidity(address,address,uint256,uint256,uint256,address,uint256)": "infinite",
						"swapExactTokensForTokens(uint256,uint256,address[],address,uint256)": "infinite",
						"tokenEKA()": "2595",
						"tokenEKB()": "2619",
						"totalLiquidity()": "2470"
					},
					"internal": {
						"_calculateLiquidityAmounts(address,address,uint256,uint256,uint256,uint256)": "infinite",
						"_calculateSwapAmounts(address,address,uint256,uint256)": "infinite",
						"_calculateWithdrawalAmounts(address,address,uint256,uint256,uint256)": "infinite",
						"_executeTransfer(address,address,uint256)": "infinite",
						"_executeTransferFrom(address,address,address,uint256)": "infinite",
						"_getBalance(address)": "infinite",
						"_isValidTokenPair(address,address)": "8711",
						"_sqrt(uint256)": "infinite"
					}
				},
				"methodIdentifiers": {
					"addLiquidity(address,address,uint256,uint256,uint256,uint256,address,uint256)": "e8e33700",
					"getAmountOut(uint256,uint256,uint256)": "054d50d4",
					"getLiquidityShares(address)": "c8c0526e",
					"getPrice(address,address)": "ac41865a",
					"getReserves()": "0902f1ac",
					"getSupportedTokens()": "d3c7c2c7",
					"getTotalLiquidity()": "35c7e925",
					"liquidityShares(address)": "9db4aa04",
					"removeLiquidity(address,address,uint256,uint256,uint256,address,uint256)": "baa2abde",
					"swapExactTokensForTokens(uint256,uint256,address[],address,uint256)": "38ed1739",
					"tokenEKA()": "ef1b1591",
					"tokenEKB()": "4c82ab63",
					"totalLiquidity()": "15770f92"
				}
			},
			"storageLayout": {
				"storage": [
					{
						"astId": 3,
						"contract": "SimpleSwap.sol:SimpleSwap",
						"label": "tokenEKA",
						"offset": 0,
						"slot": "0",
						"type": "t_address"
					},
					{
						"astId": 5,
						"contract": "SimpleSwap.sol:SimpleSwap",
						"label": "tokenEKB",
						"offset": 0,
						"slot": "1",
						"type": "t_address"
					},
					{
						"astId": 7,
						"contract": "SimpleSwap.sol:SimpleSwap",
						"label": "totalLiquidity",
						"offset": 0,
						"slot": "2",
						"type": "t_uint256"
					},
					{
						"astId": 11,
						"contract": "SimpleSwap.sol:SimpleSwap",
						"label": "liquidityShares",
						"offset": 0,
						"slot": "3",
						"type": "t_mapping(t_address,t_uint256)"
					}
				],
				"types": {
					"t_address": {
						"encoding": "inplace",
						"label": "address",
						"numberOfBytes": "20"
					},
					"t_mapping(t_address,t_uint256)": {
						"encoding": "mapping",
						"key": "t_address",
						"label": "mapping(address => uint256)",
						"numberOfBytes": "32",
						"value": "t_uint256"
					},
					"t_uint256": {
						"encoding": "inplace",
						"label": "uint256",
						"numberOfBytes": "32"
					}
				}
			},
			"userdoc": {
				"kind": "user",
				"methods": {},
				"version": 1
			}
		}
	}
}